:02000002D0002C
:1040000000400D00D8A00D00000006000D000501C5
:084010000401DE0500000000C0
:0440180010940D00F3
:1040200009480A49884208B505D0094A824202D0A7
:10403000121A04F029FD0748074A0021121A04F059
:104040002EFD014808BD00BF9CE00320749F0D00B9
:10405000D4E10320D4E10320F0E7032070B503F09E
:10406000CDFC074C074BE41AA40800251E46A542C8
:1040700004D056F8253098470135F8E770BD00BFE9
:10408000649F0D00249F0D0001F01ABA08B500F0DE
:104090007DFFBDE8084003F073BC02F045B902F0B3
:1040A0004BB902F049B90078B0FA80F04009704786
:1040B0000123037070470000014B01221A70704702
:1040C00049E20320024A01239371024A13707047A8
:1040D00024E303200DE2032003681847012A02D0DD
:1040E000022A02D004E0016002E00B6800B1036024
:1040F0000020704738B50446006928B185680C2156
:1041000003F0AFFD2846F8E7204638BD08B504495E
:1041100003F05DF918B1034B03221A70012008BDAA
:104120001C9A0D000EE20320436913B183690C3021
:104130001847704713B500210446084601F0F2FD08
:1041400002A90023204641F8043D01F003FE019C32
:104150000CB1012323710021012001F0E3FD2CB1FA
:10416000236820469B6898470023237102B010BD46
:1041700037B59DF8184023438DF800303C230546A1
:1041800002F004FC284603B030BD10B504460068B8
:1041900008B102F0D1F8204610BD10B5836804467E
:1041A00013B1032201469847204610BD30B585B0B3
:1041B0000D4604A9002241F8102D01F093FFD8B953
:1041C000009CE388012B04D001460C4A0A2001F030
:1041D00079FF216919B9094A0A2001F073FF002308
:1041E00001930C23ADF80430042303930295236953
:1041F00001AA01212046984705B030BDE55D0D00BC
:104200000368D86820B183888B4201D08068F9E7C1
:10421000704700002DE9F041037D05460F46164624
:104220003BB30121FFF7ECFF50B18389BB4204D1BE
:1042300086731EE08388012BF6D080680028F9D1B0
:104240000D49102003F018FD044688B14FF0100806
:104250004246002104F023FC022363800123A4F8DA
:104260000080A3802B69A360A781A6732C6100E066
:1042700028752846BDE8F081249D0D002DE9F04108
:10428000037D05460F46F3B10421FFF7B9FF06464B
:1042900008B1C76017E00D49102003F0EDFC04469B
:1042A00080B14FF010084246314604F0F8FB02237B
:1042B00063800423A4F80080A3802B69A360E760D7
:1042C0002C6100E028752846BDE8F081249D0D0092
:1042D00008B52DED028BB0EE408A28B10138FFF70A
:1042E000F7FF28EE000A01E0B7EE000ABDEC028BF2
:1042F00008BD0000F0B500258E46154905718560A2
:1043000045610160044692E8030085B002AF04F104
:104310000C0687E8030096E8030082E8030097E8AC
:10432000030086E803009168606990606161D1686C
:10433000A069D060A1618DE82800064A2346714635
:1043400004F1080001F0F6FC204605B0F0BD00BF06
:104350002C940D0035410D0007B58068002338B15D
:104360008DE80A00022101F0FDFCB0FA80F040095E
:1043700003B05DF804FB000038B5104B03608368A0
:104380000446A3B16FF000410022FFF7E5FF0021D2
:10439000A06801F0FFFC237903F0FF0513B101F0E1
:1043A000A9FCF8E72946A06801F0CCFCA56004F15F
:1043B0000C00FFF7F2FE204638BD00BF2C940D0024
:1043C00010B50446FFF7D8FF20461C2103F049FC36
:1043D000204610BD37B5054600220C461146FFF7B2
:1043E000BBFFA868002340B1019300941A46194608
:1043F00001F0B8FCB0FA80F0400903B030BD000015
:1044000030B5194D0FCD99B004AC0FC40FCD0FC40A
:1044100095E8030084E8030014490EA802F036F87A
:104420000EA802F086F804460EA802F0D3F80EA8F3
:1044300010EE105A02F0B4F818AB10EE100A03EBAD
:10444000840403F0D9FECDE90201284603F0D4FE2E
:10445000CDE90001064A54F8503C0648402101F0DD
:1044600083FF19B030BD00BF38940D0048E303202E
:10447000C0940D0088E2032030B50E4D0FCD89B0F9
:1044800001AC0FC495E8070084E8070069460720DF
:10449000FFF78CFE0028A8BF0098074A08AB03EB83
:1044A0008000102150F81C3C044801F05DFF09B069
:1044B00030BD00BF60940D00A7970D00FDE1032003
:1044C0007FB5594D594C2B7B3BB1594801F0DCFB72
:1044D000B4EE400AF1EE10FA03D70023A361636142
:1044E00009E0534801F0D0FB514884ED050A01F082
:1044F000D9FB84ED060A60694C4E03F07DFE4D4AFF
:10450000CDE9000110214C4801F02EFFA06903F015
:1045100073FE4A4ACDE900011021494801F024FF09
:104520002B7C43B1474801F0D7FA464801F08EFA98
:1045300086ED070A01E00023F361E0693B4E03F0DA
:104540005BFE414ACDE900011021404801F00CFF1B
:10455000AB7B63B1132003F0F4FA642300930023D0
:1045600040F68A62194601F017FF306000E03360C0
:10457000AB7B022B0CD1122003F0E3FA64230093EF
:10458000002340F68A62194601F006FF606001E0F0
:1045900000236360EB7B012B0DD1112003F0D1FAD6
:1045A0001E2300934FF4306200234FF4D67101F0C4
:1045B000F3FEA06002E01C4B0022DA73244B0022C1
:1045C0001146586801F078FE08B1FFF719FF03A9FA
:1045D0000320FFF7EBFD88B90620B0EE000AFFF7D5
:1045E00077FEBDF80C3030EE000A07EE103A30EEE0
:1045F000000AB8EE477AC7EE007A01E0FFEE007AD3
:10460000FDEEE77A134A1448C5ED027A17EE903AA8
:10461000082101F0A9FEFFF72FFF104B01201870B1
:104620000F4B187004B070BD24E30320D8E20320C0
:1046300078E20320D9940D00D8E10320E1940D0025
:10464000FCE20320F4E10320EA940D0014E30320CC
:1046500048E30320F4940D000CE3032048E2032018
:104660000DE203202DE9D0431A4800231A461946CB
:10467000406801F029FE01F0BFFD4FF4967440F24E
:10468000E7360027002001F0EDFB4FF000098046DF
:10469000002001F0E7FBB0EB080061EB09018F425D
:1046A00008BF864205D301F0B7FD10B901F09CFDAB
:1046B000EEE701F0B1FD18B1BDE8D04301F0ACBDAB
:1046C00001F098FB044B186001F08EFD013CF3D023
:1046D000D8E700BF48E30320F0E6032008B501F067
:1046E0009BFD80F00100C0B208BD0000F8B501F0EC
:1046F0008BFD002001F0B6FB0025044643F697260B
:104700000027002001F0AEFB001B61EB05018F428A
:1047100008BF864205D3FFF7E1FF10B901F064FD41
:10472000EFE7FFF7DBFF064800231A46194640680B
:1047300001F0D2FD4FF4FA6001F03AFE0120F8BD1D
:1047400048E3032010B5202490B02246002168469B
:1047500004F0A5F9224600210DEB04008DF8054078
:1047600004F09DF900210DEB04008DF8254001F0C7
:1047700017FD174B5979009BA1B140F22622ADF8E5
:10478000082041F2D832ADF806204FF40072ADF89F
:104790000A2043F4007341F27202ADF80C2000933A
:1047A000002110E04FF46172ADF8082041F2700072
:1047B000ADF80A2043F4007341F21002ADF8060090
:1047C000ADF80C200093684601F0EAFC10B010BD73
:1047D00024E3032010B5074C01F00CFB2368C01A3A
:1047E000B0F57A7F04D301F005FB2060012010BDF5
:1047F000002010BDC8E2032008B5FFF7EBFF18B199
:10480000BDE80840FFF7E6BF01F0EEFCF5E7000069
:1048100037B501F0F9FC01F0EDFA43F697250446AF
:1048200001F0FAFC40B101F0E5FA001BA84203D800
:10483000642001F0BDFDF3E70021094B47F230523F
:10484000084601F047FA4FF47A7001F0B1FD054BCC
:104850000A221B680121684602F0A8FE03B030BDA1
:10486000FA940D0064E2032038B5046805467CB173
:104870006368013B63605BB9236820469B68984787
:10488000A368013BA3601BB923682046DB689847F7
:10489000284638BD30B52E4C2E4D236AD1B00C932E
:1048A0002D4B9A690B929B680A93E3680993A3685E
:1048B00008936368079323680693E06903F09CFC00
:1048C000CDE90401A06903F097FCCDE9020160691C
:1048D00003F092FC0024CDE90001204A4FF48071DE
:1048E00010A801F041FDFFF787FF2B781C498DF8D8
:1048F000004010AA0EA8FFF73BFC0FA8FFF7B4FF7B
:10490000FFF77AFF2B7817498DF8004010AA0EA800
:10491000FFF72EFC0FA8FFF7A7FFFFF76DFF2B781F
:1049200011498DF8004010AA0EA8FFF721FC0FA82E
:10493000FFF79AFF02F0E2FE0C4B18700C4B0122BD
:104940001A7001F057FA0B4B186051B030BD00BF20
:10495000D8E20320F0E1032024E3032007950D00B3
:10496000B6950D00D7950D00EF950D004AE2032096
:104970001AE10320ECE1032010B50B7894B00C464B
:1049800023B91C4904A804F0C5F817E0084603F051
:1049900071FFC82804D0204603F06CFFC9281ED13F
:1049A000154904A804F0B6F802F0A0FE134BD86134
:1049B000134B01221A70134B00221A70FFF71CFFD1
:1049C000114B12491B7800228DF8002002A804AA7E
:1049D000FFF7CEFB03A8FFF747FF14B010BD20463A
:1049E00003F048FF0A4A0346402104A801F0BCFC3A
:1049F000E4E700BF08960D001D960D0024E3032098
:104A00000DE203201AE10320F0E1032010960D00CF
:104A10002F960D007FB51E49044602F0D8FC0646CD
:104A200058B11C4B00229A731B4B01241C701B4B6A
:104A30001B788DF800201A4A20E01A49204602F01F
:104A4000C6FC054650B1134B174A01249C73124B08
:104A50001C70124B1B788DF800600FE01349204644
:104A600002F0B5FC90B10B4B02229A730A4B104A2C
:104A700001241C70094B1B788DF800500D4902A8C9
:104A8000FFF776FB03A8FFF7EFFE204604B070BDEA
:104A90004C960D0024E303200DE20320F0E10320F7
:104AA0004E960D001C9A0D0065960D00E0980D00C5
:104AB00075960D005E960D0030B5164985B004461A
:104AC00002F085FC054658B1134B0022DA73134BF4
:104AD00001241C70124B1B788DF80020114A0EE047
:104AE0001149204602F073FC88B10B4B0F4A012498
:104AF000DC730A4B1C700A4B1B788DF800500C4974
:104B000002A8FFF735FB03A8FFF7AEFE204605B06D
:104B100030BD00BF4C960D0024E303200DE20320BE
:104B2000F0E1032086960D001C9A0D0099960D0069
:104B30005E960D0030B5194985B0044602F047FC79
:104B4000054658B1164B00221A74164B01241C70EE
:104B5000154B1B788DF80020144A15E014492046A7
:104B600002F035FCC0B10E4B124801241C740D4BF1
:104B70001C7000F060FF20210E4800F098FF0A4BE7
:104B80000D4A1B788DF800500C4902A8FFF7F0FA87
:104B900003A8FFF769FE204605B030BD4C960D0016
:104BA00024E303200DE20320F0E10320B1960D0081
:104BB0001C9A0D00F4E10320C1960D005E960D00D5
:104BC00030B5184985B0044602F001FC054658B1DD
:104BD000154B00221A73154B01241C70144B1B78C3
:104BE0008DF80020134A12E01349204602F0EFFB33
:104BF000A8B10D4B114801241C730C4B44211C70AF
:104C000000F0AAFF0A4B0E4A1B788DF800500D49A0
:104C100002A8FFF7ADFA03A8FFF726FE204605B06D
:104C200030BD00BF4C960D0024E303200DE20320AD
:104C3000F0E10320D6960D001C9A0D0078E20320C7
:104C4000D9960D005E960D0030B5164985B0044624
:104C500002F0BDFB054658B1134B01241C71134BE8
:104C60001C70134B00221B788DF80020114A0EE0B7
:104C70001149204602F0ABFB88B10B4B0F4A1D7166
:104C80000A4B01241C700A4B1B788DF800500C490C
:104C900002A8FFF76DFA03A8FFF7E6FD204605B06E
:104CA00030BD00BF1C9A0D0024E303200DE2032059
:104CB000F0E10320F8960D004C960D0009970D00C9
:104CC00019970D0030B52B4985B0044602F07FFBE3
:104CD00028B92949204602F07AFB002848D0254906
:104CE000204602F074FBB0B101F096FA70B1FFF704
:104CF00083FD224B22491B7800228DF8002002A858
:104D0000204AFFF735FA03A8FFF7AEFD1E4B1F49F7
:104D100001229A7126E01849204602F058FB20B380
:104D200001F07AFA184C18B9FFF79CFC0123E370E4
:104D3000FFF762FD114B164A1B781149002502A8A6
:104D40008DF80050FFF714FA03A8FFF78DFD4FF41C
:104D50007A7001F02DFB6FF000410E48FFF73AFB2F
:104D60000D49A5710D4803F0D5FE0D4B01201870BB
:104D700005B030BD1C9A0D004C960D00F0E10320EB
:104D800019970D001E970D0024E303202D970D00A9
:104D900032970D0010E2032044970D00D0E203206B
:104DA0000DE20320F0B5264985B0044602F00FFB62
:104DB00028B92449204602F00AFB00283DD02046AD
:104DC0001F49214D214E224F02F001FB0446B0B194
:104DD000012421460220EC6002F087FE002103201E
:104DE00002F083FE706901F0E3FA2146032002F02D
:104DF0007CFE00223B788DF80020164A13E0214605
:104E0000022002F072FE2146032002F06EFE70695D
:104E100001F0CEFA0121032002F067FE0E4A3B7832
:104E2000EC608DF800400D4902A8FFF7A1F903A836
:104E3000FFF71AFD0A4B0120187005B0F0BD00BF46
:104E40004A970D004D970D00D8E2032024E303207C
:104E5000F0E1032051970D0069970D0060970D0058
:104E600048E2032010B586B02049044602A802F0AB
:104E700081FA02A8FFF796FF02A802F034FA1C4953
:104E8000204602F0A4FA78B91A49204602F09FFAA7
:104E900050B91949204602F09AFA88B917492046B4
:104EA00002F095FA60B91EE0154B01245C74154BB5
:104EB0001C70154B00221B788DF80020134A0AE065
:104EC0000F4B00225A740F4B01241C700E4B1B78A1
:104ED0008DF800200E4A0F4902A8FFF749F903A8F0
:104EE000FFF7C2FC204606B010BD00BF4D970D0075
:104EF00079970D007D970D0084970D0081970D0027
:104F000024E303200DE20320F0E103208A970D0043
:104F100087970D005E960D0030B5164D164C17495B
:104F20002A7820788FB00E2303FB0212009203FB35
:104F30000013134A282104A801F016FA2B782370D5
:104F400001F06AF970B1FFF757FC0E4B0E491B7860
:104F500000228DF8002002A804AAFFF709F903A88F
:104F6000FFF782FC02F0C8FC04A902F064F90FB05C
:104F700030BD00BF0EE20320FCE103209CE00320D3
:104F80009C970D00F0E10320AA970D0070B5864CA8
:104F90002378013B8AB0072B00F26782DFE813F029
:104FA000F00108004E007F00AC00D20032019801F1
:104FB0007E4D2B792BB17E4B1B78022B01D0FFF756
:104FC000ABFF7C4E337843B102F0D2FD202277490B
:104FD000012000F037FF00233370774E337843B160
:104FE00002F0C6FD24227549502000F02BFF00235B
:104FF0003370AB7963B100F0FDFE714B1B68C01AD2
:10500000704B984204D96D4BDB68002B00F02A826C
:1050100002F074FB6C4BAA681B7898421CBF0323F8
:1050200023706A4B1B689A42DCBF08232370684BCD
:105030001B78002B00F0198204232EE05B4D2B79A6
:105040002BB15B4B1B78032B01D0FFF765FFFFF7FC
:1050500037FA0646E8B90123237000F0CBFE5D4B1A
:1050600018602B79002B00F0008201F0D5F80028A1
:1050700000F0FB81FFF7C0FB574B584A1B7858499B
:105080008DF8006006A8FFF773F807A8FFF7ECFBA0
:10509000EBE16B7C002BCFD105232370E5E14C4D78
:1050A0002B7863B14F4906A802F064F906A8FFF710
:1050B00079FE06A802F017F900232B70ECE73F4DAC
:1050C000286803F087F80022474B03F05BFB0028B9
:1050D000E2D0EB68002BDFD1444906A802F04AF980
:1050E00006A8FFF75FFE06A802F0FDF86FF000418A
:1050F0003F48FFF76FF9CFE72C4D2B792BB12C4BA5
:105100001B78052B01D0FFF707FF01F085F890B160
:1051100002F0F4FA064650B9287101F07DF810B19A
:10512000304601F099F8254A0023AB611362FFF77E
:10513000B1FB0623B1E7FFF795FA002840F095810F
:105140000123AAE7194B1B792BB1194B1B78062BAE
:1051500001D0FFF7E1FE274B1B782BB900F04AFE88
:10516000174B1860022398E700F044FE224B1B689F
:10517000C01A4AF6C873984240F2778100F03AFEAE
:10518000144B186001F048F80028D9D0124B1B4985
:105190001B7800228DF8002006A8194AFEF7E8FFC8
:1051A00007A8FFF761FBCBE70EE2032024E303200F
:1051B000FCE103200DE2032048E20320D8E20320B3
:1051C00084E20320905F01004AE20320E8E103202B
:1051D00049E20320CCE20320F0E103204B980D00CC
:1051E000E1970D004D970D0000003E404A970D00DD
:1051F0002CE203201AE10320ECE10320BB970D0011
:1052000006950D009A4B1A791D462AB1994B1B78C9
:10521000072B01D0FFF780FE00F0FEFFB0B12B7925
:1052200073B1FFF7E9FA944B94491B7800228DF88B
:10523000002006A8924AFEF79BFF07A8FFF714FB81
:105240004FF47A7001F0B4F8FFF750FA002107200C
:1052500002F04BFC00210E2002F047FC02F058FA4D
:105260003C23C0F13C0003FB00F5864B1A7D0AB1DC
:1052700001221A72002204218248FEF7CBFF4FF46C
:105280007A716943FEF7FAFF7E4903A802F026F916
:10529000039B7BB19A88012A0CD19B89042B09D1ED
:1052A000794906A802F066F806A8FFF70BFD06A8E4
:1052B00002F019F80121072002F017FC01210E204D
:1052C00002F013FCFFF7CEF902232370039852E09B
:1052D000674B1A791D462AB1664B1B78082B01D003
:1052E000FFF71AFE00F098FFA0B1FFF785FA624BB6
:1052F00062491B7800228DF8002006A8634AFEF759
:1053000037FF07A8FFF7B0FA4FF4FA6001F050F842
:10531000FFF7ECF90021072002F0E7FB6B7C4BB1B3
:105320005B4906A802F026F806A8FFF73BFD06A891
:1053300001F0D9FF41F2883001F03AF802F0E8F9C3
:105340003C23C0F13C0003FB00F54E4B1A7D0AB133
:1053500001221A72002204214A48FEF75BFF4FF433
:105360007A716943FEF78AFF06A8464902F0B6F84B
:10537000022306982370002877D000F0DDFF74E048
:105380003B4C23792BB13B4B1B78012B01D0FFF712
:10539000C3FD00F02FFD3F4B1B6803F5EA4330339C
:1053A000984262D9A369032B14DC00F035FF60B189
:1053B000314B32491B7800228DF8002006A8364A6E
:1053C000FEF7D6FE07A8FFF74FFA4FF4FA6000F099
:1053D000EFFF24E002F08AF9254BDB69C01AB0F533
:1053E000E15F1FD900F018FF60B1234B23491B7800
:1053F00000228DF8002006A8284AFEF7B9FE07A86B
:10540000FFF732FA4FF4FA6000F0D2FF0023A361F5
:1054100002F0AEFB20221649012000F013FD02F03D
:105420005AF822E000F0F8FE60B1134B13491B78E4
:1054300000228DF8002006A8194AFEF799FE07A859
:10544000FFF712FA4FF4FA6000F0B2FF0023A361F5
:1054500002F08EFB20220649012000F0F3FCFFF74A
:10546000D7F902E007232370D2E50AB070BD00BF70
:1054700024E30320FCE10320F0E10320E1970D0089
:10548000D4970D004CE203204C960D00E7970D00D9
:105490004D970D00CCE20320FE970D0012980D00F1
:1054A0002C980D000023042200F08EBE002302225F
:1054B00000F08ABE0246014801F048B921670D009C
:1054C000F0B5AE4BBBB00AAA03F11005164618683A
:1054D0005968144603C40833AB422246F7D11988F1
:1054E0009B782180A3702D2200210DF13B00A44F59
:1054F00003F0D5FA02233B70A24B1B6893F830509F
:1055000093F8313003F01F0343EA45152F2D05DDD5
:105510009D4A00210A2000F0D5FD01E01F2D03DD8A
:1055200005F01F05994B01E04FF0A043012404FA58
:1055300005F5C3F808552146072002F0C5FA0021F9
:10554000042002F0C1FA0021132002F0BDFA00216C
:10555000122002F0B9FA0021112002F0B5FA21461A
:105560000E2002F0B1FA21460E2002F0BEFA2146CA
:10557000032002F0A9FA2146022002F0A5FA2146F2
:10558000032002F0B2FA0021022002F0AEFA02A8D3
:1055900000F04AFE002500237D221AA902A801F08E
:1055A00028FF2B462A467A49019500951AA800F053
:1055B0004BFE78497848FFF775FF78497848FFF740
:1055C00075FF78497848FFF76DFF78497848FFF70D
:1055D00069FF78497848FFF765FF78497848FFF711
:1055E00061FF78497848FFF75DFF78497848FFF711
:1055F00059FF78497848FFF755FF78497848FFF711
:1056000055FF78497848FFF751FF78497848FFF708
:105610004DFF78497848FFF74DFF78496848FFF714
:1056200049FF77497748FFF745FF77497748FFF704
:1056300041FF77497748FFF73DFF77497748FFF704
:1056400039FF77497748FFF735FF77497748FFF704
:1056500031FF77497748FFF72DFF02F089FA284696
:1056600000F0E0FB022811D1734C02F081FA2022F5
:105670002146012000F0DEFB02F07AFA242257498D
:10568000502000F0D7FB237BEBB112E002F070FA60
:1056900004226A49284600F0D5FB02F069FA204648
:1056A000042206A90134069500F0CCFBF02CF4D1BD
:1056B000DAE74421624800F04FFA20B920736149CB
:1056C000304603F027FA237C33B15F4800F0B3F98A
:1056D00020215D4800F0EBF90022114606A8069251
:1056E00000F070FB069B142B02BFA3690133A3617A
:1056F000A369052B04DD504B04229A61FFF788F85B
:10570000A3794BB951492D4803F004FA6FF00041D9
:105710004F48FEF75FFE03E04E49284803F0FAF9D0
:1057200005236361637C63B12C4BDB684BB14A4951
:1057300006A801F01FFE06A8FFF734FB06A801F03B
:10574000D2FD01236371FEF7FDFF042002F0E6F9AC
:1057500048B9424906A801F00DFE06A8FFF7B2FAC3
:1057600006A801F0C0FDFEF7ABFE3D4BA2681B682A
:105770009A4277DC08233B7081E000BF7C940D00E7
:105780000EE2032074E20320E55D0D0000030050EB
:1057900079490D0088E2032065980D003CE3032061
:1057A0006C980D001E9A0D0077980D000CE30320F5
:1057B0007F980D00FDE103208A980D00D0E20320C0
:1057C00099980D00D8E10320A6980D00FCE2032073
:1057D000B2980D0014E30320BB980D00D8E203201B
:1057E000C6980D00DCE20320D4980D00E0E203200F
:1057F000E2980D000D410D00EB980D00C54C0D0019
:10580000494C0D00F7980D00A54D0D0060970D0057
:10581000154A0D0004990D00B94A0D0013990D00A9
:10582000354B0D0025990D00654E0D0034990D0086
:10583000C14B0D0044990D0024E30320BC940D00DE
:1058400078E2032057990D00F4E1032044970D00FE
:1058500010E203202D970D004D970D004C960D0082
:10586000E8E10320FEF7FEFE48B901233B7000F09B
:10587000C1FA134B13491860304603F04BF900F09E
:10588000CBFC08B1237963B902F036F8314601F058
:10589000D2FC0D4B012202A81A7001F024FD3BB08E
:1058A000F0BD0A4B0A491B7800228DF8002006A89B
:1058B0003246FEF75DFC07A8FEF7D6FFE4E700BF1F
:1058C000CCE203208B990D000DE20320F0E10320D0
:1058D0009D990D002DE9F0433F4B404E404FDFF8BE
:1058E0003C9100241C603F4B85B001251D7000F0E9
:1058F000C1FA3D4B186002F0ADF82346224642F64D
:10590000D51102F0AFF802F0A5F82246234619217E
:1059100002F0B0F84FF6FF7373813460B480B47155
:105920003481022000F0F0FB3A463049304602F064
:1059300093F92F4E2146284600F0FEFB294604200D
:1059400000F030FA4FF01008301D4246214630601A
:1059500003F0A5F802233A462649F3803046357510
:10596000A6F8048002F078F92348DFF8B480234CCD
:10597000234E00F0CEF802F029F9232102462148F7
:1059800000F054F8204B00936A462B461F490294BE
:105990004846CDF80C80FEF7ADFC6846FEF7FDFBEF
:1059A0003A463146484602F057F90294184C194BD2
:1059B00000936A462B461849CDF80C802046FEF726
:1059C00099FC6846FEF7E9FB3A463146204602F06C
:1059D00043F905B0BDE8F08364E2032068E20320E8
:1059E000D4E10320F0E1032074E203208B410D0099
:1059F0004CE20320F5400D0078E20320DD400D006D
:105A000079430D00F4E10320B9400D00804F1200EE
:105A100010E20320C5400D0040771B002CE203205C
:105A2000D9400D000368C9B29B6818474260112233
:105A300041700270704710B50446406801F0E6F905
:105A400010B9606801F0A0F9012010BD70B50546DD
:105A50004178406801F0CFF902226978686801F066
:105A6000C7F9686803685B69984706466868036811
:105A70005B699847044644EA06246868A4B201F0CA
:105A8000C2F907EE904AB8EE670ADFED027A80EEBF
:105A9000270A70BD9A99993F0378232B04D0132BC2
:105AA0000CBF1820B42000E0182000F081BC38B5ED
:105AB00004460D464178406801F09DF9606803682E
:105AC00029469B689847606801F09DF9257020463B
:105AD000BDE83840FFF7E0BF10B50378A3F120021E
:105AE000012A044601D9232B10D16178606801F0A6
:105AF00082F96068217803689B689847606801F0C4
:105B000082F92046BDE81040FFF7C6BF10BD00F087
:105B1000B1B9704738B505460C4602F057F82978F8
:105B200001F069F902F052F8210AFFF77BFF02F059
:105B30004DF8E1B2FFF776FF02F048F8BDE83840D3
:105B400001F061B908B543F2A201FFF7E3FF0A20B3
:105B5000BDE8084000F02CBC38B504460D4602F004
:105B600035F801F011F920462570FFF7EBFF012011
:105B700038BD0A44FF2091420ED011F8013B584035
:105B8000082310F0800F4FEA400018BF80F031006A
:105B9000013BC0B2F5D1EEE7704700000000000005
:105BA00073B54FF410510446FFF7B4FF4FF4FA7089
:105BB00000F0FEFB02F00AF80622217801F018F945
:105BC00002F004F803681B69984706284AD10025AB
:105BD00001F0FCFF03685B6998470DF8050001358B
:105BE000062DF5D1022269462046FFF7C2FF9DF837
:105BF0000250854236D102220DF103012046FFF703
:105C0000B8FF9DF8055085422CD1BDF800009DF8E5
:105C100003609DF8045040BA80B202F0CBFA18A39A
:105C2000D3E9002302F03CFB11A3D3E9002302F0E7
:105C300061FC0022104B02F07FF902F0CBFDA06066
:105C400045EA062002F0B6FA00220C4B02F028FBCF
:105C500007A3D3E9002302F04DFC02F0BBFD606016
:105C6000012000E0002002B070BD00BFAFF3008053
:105C700000000000E0FFEF40008046400000594077
:105C80000000000000E0654010B50446FFF788FF03
:105C900010B194ED020A10BD9FED010A10BD00BFC6
:105CA0000000C07F10B50446FFF77AFF10B194EDF5
:105CB000010A10BD9FED010A10BD00BF0000C07FAA
:105CC00000F0D8B808B5024B1B685B6C019308BDA7
:105CD0007402030008B5024B1B689B6C019308BD5E
:105CE0007402030008B5024B1B689B68019308BD52
:105CF0004802030008B5024B1B68DB68019308BD2E
:105D00004802030008B5024B1B681B69019308BDDC
:105D10004802030008B5024B1B685B69019308BD8C
:105D20004802030008B5024B1B68DB69019308BDFC
:105D30004802030008B5024B1B681B6A019308BDAB
:105D40004802030008B5024B1B685B6A019308BD5B
:105D50004802030008B5024B1B689B6A019308BD0B
:105D60004802030008B5024B1B68DB6A019308BDBB
:105D70004802030008B5024B1B685B6C019308BD29
:105D80004802030008B5024B1B689B6C019308BDD9
:105D90004802030008B5024B1B681B6F019308BD46
:105DA0004802030008B5024B1B685B6E019308BDF7
:105DB0003402030008B5024B1B689B6E019308BDBB
:105DC0003402030008B5024B1B68DB6E019308BD6B
:105DD0003402030008B5024B1B685B68019308BDE1
:105DE0001802030008B5024B1B68DB68019308BD6D
:105DF0001802030008B5024B1B685B69019308BDDC
:105E00001802030008B5024B1B68DB69019308BD4B
:105E10001802030008B5024B1B689B6A019308BD7A
:105E20001802030008B5024B1B68DB6A019308BD2A
:105E30001802030008B5024B1B685B6C019308BD98
:105E40001802030008B5024B1B689B6C019308BD48
:105E50001802030008B5024B1B689B6D019308BD37
:105E60001802030008B5024B1B68DB6D019308BDE7
:105E70001802030008B5024B1B681B68019308BD9C
:105E80002C02030008B5024B1B685B68019308BD38
:105E90002C02030008B5024B1B689B68019308BDE8
:105EA0002C02030008B5024B1B68DB68019308BD98
:105EB0002C02030008B5024B1B681B69019308BD47
:105EC0002C02030008B5024B1B685B69019308BDF7
:105ED0002C02030008B5024B1B681B6B019308BD25
:105EE0002C02030008B5024B1B68DB68019308BD58
:105EF0002802030008B5024B1B689B69019308BD8B
:105F00002802030008B5024B1B68DB69019308BD3A
:105F10002802030008B5024B1B681B6A019308BDE9
:105F20002802030008B5024B1B685B6A019308BD99
:105F30002802030008B5024B1B689B6A019308BD49
:105F40002802030008B5024B1B68DB6A019308BDF9
:105F50002802030008B5024B1B681B6B019308BDA8
:105F60002802030008B5024B1B685B6B019308BD58
:105F70002802030008B5024B1B681B6C019308BD87
:105F80002802030008B5024B1B681B6D019308BD76
:105F90002802030008B5024B1B685B69019308BD2A
:105FA0006402030008B5024B1B689B68019308BD9F
:105FB0006802030008B5024B1B68DB68019308BD4B
:105FC0006802030008B5024B1B68DB69019308BD3A
:105FD0003002030008B5024B1B681B6A019308BD21
:105FE0003002030008B5024B1B681B68019308BD13
:105FF0003C02030008B5024B1B68DB68019308BD37
:106000003C02030008B5024B1B681B69019308BDE5
:106010003C02030008B5024B1B685B69019308BD95
:106020003C02030008B5024B1B689B69019308BD45
:106030003C02030008B5024B1B68DB69019308BDF5
:106040003C02030008B5024B1B681B6A019308BDA4
:106050003C02030008B5024B1B689B6A019308BD14
:106060003C02030008B5024B1B681B68019308BD86
:106070004C02030008B5024B1B681B69019308BD65
:106080004C02030008B5024B1B685B69019308BD15
:106090004C02030008B5024B1B689B69019308BDC5
:1060A0004C02030008B5024B1B68DB69019308BD75
:1060B0004C02030008B5024B1B681B6A019308BD24
:1060C0004C02030008B5024B1B685B6B019308BDD3
:1060D0006002030008B5024B1B681B6D019308BDED
:1060E0006002030008B5034B1B68D3F89830019396
:1060F00008BD00006002030008B5024B1B681B6866
:10610000019308BD2002030008B5024B1B685B68C1
:10611000019308BD2002030008B5024B1B685B69B0
:10612000019308BD2002030008B5024B1B689B6960
:10613000019308BD2002030008B5024B1B68DB6A0F
:10614000019308BD2002030008B5024B1B68DB6CFD
:10615000019308BD2002030008B5024B1B685B6D6C
:10616000019308BD2002030008B5024B1B689B6D1C
:10617000019308BD2002030008B5034B1B68D3F848
:106180008830019308BD00002002030008B5034BCE
:106190001B68D3F89430019308BD0000200203006F
:1061A00008B5034B1B68D3F8A830019308BD000065
:1061B0002002030008B5034B1B68D3F8AC300193F1
:1061C00008BD00002002030008B5024B1B681B68D5
:1061D000019308BD4402030008B5024B1B685B68CD
:1061E000019308BD4402030008B5024B1B689B687D
:1061F000019308BD4402030008B5024B1B68DB682D
:10620000019308BD4402030008B5024B1B681B69DB
:10621000019308BD4402030008B5024B1B685B698B
:10622000019308BD4402030008B5024B1B68DB69FB
:10623000019308BD4402030008B5024B1B681B6AAA
:10624000019308BD4402030008B5024B1B685B6A5A
:10625000019308BD4402030008B5024B1B68DB6ACA
:10626000019308BD4402030008B5024B1B681B6B79
:10627000019308BD4402030008B5024B1B68DB6BA9
:10628000019308BD4402030008B5024B1B685B681C
:10629000019308BD4002030008B5024B1B689B68D0
:1062A000019308BD4002030008B5024B1B68DB6880
:1062B000019308BD4002030008B5024B1B681B692F
:1062C000019308BD4002030008B5024B1B685B69DF
:1062D000019308BD4002030008B5024B1B689B698F
:1062E000019308BD4002030008B5024B1B68DB693F
:1062F000019308BD4002030008B5024B1B681B6AEE
:10630000019308BD4002030008B5024B1B681B6BDC
:10631000019308BD4002030008B5024B1B685B6B8C
:10632000019308BD4002030008B5024B1B681B68BF
:10633000019308BD1C02030008B5024B1B685B6893
:10634000019308BD1C02030008B5024B1B689B6843
:10635000019308BD1C02030008B5024B1B689B6932
:10636000019308BD1C02030008B5024B1B68DB69E2
:10637000019308BD1C02030008B5024B1B68DB6AD1
:10638000019308BD1C02030008B5024B1B681B6B80
:10639000019308BD1C0203008A4230B507D0039D5B
:1063A000441AED1A6C43521A94FBF2F4E01830BD13
:1063B0000021FFF7B1BE10B5836804460BB901F0A8
:1063C0006CFCC3689847A3681BB103222146204692
:1063D000984720461021BDE8104001F042BC10B59E
:1063E0000446006808B1FFF7CDFC204610BD0B68DD
:1063F000036013B15A6801325A60704710B5064CF9
:10640000002320462360FFF7B5FC2046034A0449D9
:10641000BDE8104001F020BC44E30320D4E1032098
:10642000DF630D00002211464068FFF745BF0022E0
:1064300011464068FFF760BF002211464068FFF731
:106440006BBF00224068FFF75FBF002281F00101AF
:106450004068FFF749BF00231A4619464068FFF716
:106460003BBF00231A4619464068FFF72DBF0022A4
:1064700011464068FFF710BF002202214068FFF775
:1064800013BF00231A464068FFF7FEBEF0B51B4B52
:10649000036000250F462833182689B043608560C5
:1064A000C560324629460446103002F0F8FA2A4602
:1064B00029467868FFF700FF08B9A0601BE029466D
:1064C000324602A80095019502F0E9FA02A9684651
:1064D000ADF80860FFF7F6FB10B10123A3600AE0F6
:1064E000009B019AA360E2600BB90223A36002A99A
:1064F000204600F089F8204609B0F0BD609A0D00F2
:1065000038B5084C28252A460021204602F0C7FA53
:106510004FF0FF336360044B258004225A60034A26
:106520001A6038BD50E3032048E303202C9A0D0085
:106530007047007D70470000037D1BB18369B3F194
:10654000004F02D19FED050A704707EE903A9FED8C
:10655000047AF8EEE77A87EE870A704700000000B9
:106560000000C842037D1BB1036AB3F1004F02D1A2
:106570009FED050A704707EE903A9FED047AF8EE1A
:10658000E77A87EE870A7047000000000000C842E3
:1065900010B52821044601F064FB204610BD000020
:1065A000037D7BB1436A002B0CDB07EE903ADFEDF5
:1065B000076A9FED070AB8EEE77AC7EE267A27EE5C
:1065C000800A7047BFEE000A704700BF00FF7F4798
:1065D0000000C842037D7BB1C369002B0CDB07EED2
:1065E000903ADFED076A9FED070AB8EEE77AC7EE4B
:1065F000267A27EE800A7047BFEE000A704700BF78
:1066000000FF7F470000C84230B50D4600F110047E
:106610000FCD0FC495E8030084E80300012030BDCE
:106620002DE9F04107460C4615462AB90368C9B260
:106630009B68BDE8F0411847002907DA0A2A05D10E
:106640002D2100F0E9FD6142064601E021460026C9
:10665000EAB2384600F0F9FD3044BDE8F08170B58B
:106660000D4606460A2281682846FFF7D9FF2C21ED
:106670000446284600F0D0FD0A220444F16828466A
:10668000FFF7CEFF204470BDA0F10400FFF7E7BF85
:1066900070470020704710B51021044601F0E1FA60
:1066A000204610BD08B508B1FFF7F5FF08BD002270
:1066B000026010B54FF69C728280B1F9044084806C
:1066C0008A8002680C6804600A6010BD10B5044638
:1066D0000068FFF731FE204610BD38B5C468F4B13C
:1066E0002378022B03D104F10C00FFF7EFFF65685C
:1066F00035B12846FDF751FD1021284601F0B1FAC9
:10670000A56835B12846FDF748FD1021284601F05F
:10671000A8FA20461421BDE8384001F0A2BA38BDDD
:1067200010B588B00446684600F024FE694604A807
:1067300000F042FE04A8A047044604A800F0D3FDE0
:10674000684600F0D0FD204608B010BDF0B510241A
:1067500085B007460E46154600212246684602F0DF
:106760009EF9002269461046ADF800400297039654
:106770000195FFF731FD05B0F0BD13B5044691E872
:10678000050000234B600B602060626001A801934C
:106790000093FEF769F8204602B010BDF7B50C462D
:1067A00002AD54F8043B45F8083D06460F4601A8E3
:1067B0002146FFF71CFE29463046FFF7DEFF01A801
:1067C000FEF752F82046FEF74FF83846082101F050
:1067D00048FA304603B0F0BD13B50B46044603C873
:1067E0008DE8030093E8030084E803009DE80300BC
:1067F00083E8030002B010BD38B5002304460360EF
:1068000010200D46FDF749FC28B101234360836049
:10681000024B0360C5602060204638BD949A0D008D
:10682000826810B50AB901F038FAC368BDE81040B3
:10683000184708B5006800F11001FFF7F1FF08BD27
:10684000826810B50AB901F028FAC368BDE81040A3
:10685000184708B5006800F11001FFF7F1FF08BD07
:1068600038B5002383608B6804460D462BB10222A5
:106870009847EB68E360AB68A360204638BD000032
:10688000F0B589B004686846FFF711FF00238DF862
:1068900008304FF00202D4E84F3F002B03D1C4E888
:1068A000412F0029F7D102D08DF8083063E014F1B0
:1068B0000C0503D069462846FFF7F9FEBFF35F8F4A
:1068C00001236370002004F10803BFF35F8F53E8D6
:1068D000006F43E80002002AF9D1BFF35F8F002E5A
:1068E00049D0FFF731FC20B129463046FFF798FF29
:1068F0003AE0314602A8FFF7B3FFE068B4F9105060
:1069000008B102F00FF906901020ADF81C50FDF709
:10691000C4FB0546E8B1002787601820FDF7BDFBE2
:10692000044688B10146876002A8FFF755FF049B23
:10693000A268A360059B049206A9E268E36004F1E3
:1069400010000592FFF7B3FE0D4BEB600D4B2C6072
:10695000AB6006A8FFF7BAFE02A8FDF71EFC0022F6
:1069600029460948FFF7F8FB3046FDF716FC1021D1
:10697000304601F076F96846FFF7A8FE09B0F0BD91
:1069800033680D00A96A0D00B7630D002DE9F04FC3
:106990008BB006460F46904699469DF850A0FFF7EB
:1069A0003BFC07AD834630BB4FF62E73059005A91F
:1069B0002846ADF81830FFF77AFE1420FDF76DFB7E
:1069C000044658B10223037001234370C0F804B099
:1069D000C0F808B029460C30FFF769FE3046214662
:1069E00040F8044BFFF708FF2846FFF76FFE05A8A5
:1069F000FFF76CFE52E000240C2314206C60AC60A6
:106A00000793FDF74AFB014618B1047044704460D7
:106A1000846004A80391FFF7EFFE224B089308203F
:106A2000FDF73BFB044628B1039B40F8043B04A957
:106A3000FFF7DDFC00955FFA8AF34A464146384687
:106A40000994FFF7F9FB20B9039B5B7803F0FF0281
:106A500083B1039B059304A906A8FFF7C8FC05A909
:106A60003046FFF78AFE06A8FDF7FEFE04A8FDF7F4
:106A7000FBFE13E04FF69C7305A903A80592ADF841
:106A80001830FFF7FDFE05A8FFF720FE05A80999BD
:106A9000FFF784FE06A8FDF7E7FEDAE730460BB005
:106AA000BDE8F08F196C0D00022AF8B5044606D037
:106AB000032A17D0012A22D10B6803601FE0182097
:106AC0000E68FDF7EAFA054650B13146FFF7C8FEF9
:106AD0003069B6F9147008B102F024F82861AF8269
:106AE00025600CE0046854B104F11000FFF7EEFDDE
:106AF0002046FDF752FB1821204601F0B2F8002095
:106B0000F8BD38B5002383608B6804460D462BB171
:106B100002229847EB68E360AB68A360204638BD6B
:106B2000022A70B5044606D0032A11D0012A18D1D2
:106B30000B68036015E014200E68FDF7AEFA0546F9
:106B400020B13146FFF7DDFF337C2B74256008E070
:106B5000046834B12046FDF720FB1421204601F0E3
:106B600080F8002070BD0000F0B5002387B00C460F
:106B7000BFF35F8F50E8006F40E80032002AF9D180
:106B8000BFF35F8F002E3FD01846FFF7DDFA0746B0
:106B900020B121463046FFF753FE2EE0314601A8D2
:106BA000FFF7AFFF23788DF814301020FDF775FA4A
:106BB0000546D0B187601420FDF76FFA044678B11E
:106BC0008760014601A8FFF707FE039BA268A36048
:106BD000049B0392E268E3609DF8143004922374EE
:106BE0000A4BEB600A4B2C60AB6001A8FDF7D5FAAD
:106BF000002229460748FFF7AFFA3046FDF7CDFAE5
:106C00001021304601F02DF807B0F0BD53680D009B
:106C1000216B0D00B7630D0030B585B004460D46FD
:106C200068461146FFF7BAFD7CB124B228460DB183
:106C300001F078FF029002A96846ADF80C40FFF71A
:106C40001FFE02A8FFF742FD1DE000988DF80840E6
:106C50004FF00102D0E84F3FA34203D1C0E8412FDB
:106C60000029F7D102D08DF808300CE010F10C01AA
:106C70004FF0010318BF0373BFF35F8F043000F8B8
:106C8000033CFFF771FF01A8FDF7EEFD05B030BD35
:106C9000002211464068FFF72FBB002211464068D2
:106CA000FFF73ABB00224068FFF72EBB002281F0BD
:106CB00001014068FFF718BB00231A4619464068D7
:106CC000FFF70ABB00231A4619464068FFF7FCBAD3
:106CD000002211464068FFF7EFBA002211464068D3
:106CE000FFF7DABA002202214068FFF7DDBA00237D
:106CF0001A464068FFF7C8BA024B03225A60024A9C
:106D00001A60704778E30320B09A0D007047F8B519
:106D1000064615460C468F18BC4206D0336814F858
:106D2000011B9B6830469847F6E72846F8BD0022CD
:106D3000007CFFF7EFB80021007CFFF7F3B80021DB
:106D4000007CFFF7F7B80021007CFFF7FBB80021BB
:106D5000007CFFF7FFB810B51421044600F081FF56
:106D6000204610BD10B50446002363604FF47A73CB
:106D7000A360044B2174084623601146FFF7FAF81C
:106D8000204610BDE49A0D0000231A461946007CE7
:106D9000FFF7A8B870B50C4686B0142506462A46FB
:106DA000002101A801F07BFE23788DF8083063688C
:106DB0000393E36804930022237A307CADF80450F7
:106DC00001A90593FFF7DEF806B070BD1FB50033CB
:106DD0008DF800104FF06401039118BF012369463C
:106DE00001928DF80830FFF7D5FF05B05DF804FB80
:106DF0000123FFF7EBBF0022007CFFF77BB80022E6
:106E0000007CFFF77FB80121FFF7F9BF0021007C6C
:106E1000FFF7A8B8704710B51821044600F021FF0D
:106E2000204610BDF0B5037D062B8DB00E4600F157
:106E300004074FF0000402D000F1080518E00CAD83
:106E4000394605F8304D2F232A460A20FFF7A2F8CD
:106E5000284601F082FE33680246DB682946304648
:106E600098470FE024B12E21304600F0D5F90444B4
:106E700015F8011D0A22304600F0E7F9BD4204442E
:106E8000F0D120460DB0F0BD10B5054B04461122DF
:106E900040F8043B002101F002FE204610BD00BF77
:106EA0000C9B0D000346074A10B543F8042B01F173
:106EB000100251F8044B43F8044B9142F9D10A787F
:106EC0001A7010BD0C9B0D0010B59DF8084044EAE7
:106ED000032343EA024242EA01610423416003754D
:106EE00010BD37B50D788B784A78C978009129465E
:106EF000FFF7EAFF03B030BD014B024A1A6070474A
:106F000080E303208B9B0D00002211464068FFF7B1
:106F1000F3B9002211464068FFF7FEB9002240682D
:106F2000FFF7F2B9002281F001014068FFF7DCB9F8
:106F300000231A4601214068FFF7CEB900231A4604
:106F400019464068FFF7C0B9002211464068FFF7B4
:106F5000B3B9002211464068FFF79EB90022022112
:106F60004068FFF7A1B900231A464068FFF78CB9C3
:106F700038B5054688B104684CB1A3681BB103223B
:106F80002146204698471021204600F06AFE2846F8
:106F90001421BDE8384000F064BE38BD10B103686C
:106FA0005B681847704710B503680446BBB1586862
:106FB000FEF798FE78B923685A7C12B95868FEF734
:106FC000A1FE23685868FEF7A5FE20680023236011
:106FD00028B1FFF7CDFF206808B1FFF7C9FF2046B1
:106FE00010BD38B50446D0F8C40108B1FDF759F812
:106FF000D4F8C00108B1FEF7C5FED4F8BC5135B1D4
:107000002846FFF7D0FF0421284600F02AFE20681A
:1070100008B1FFF7C3FF204638BD000010B5044B90
:10702000044640F8083BFFF7DCFF204610BD00BFD8
:10703000FC9B0D0038B50E4C0E4B2360002502233F
:1070400004F5E4706360A560C4F8C451C4F8C85185
:10705000FEF790FE084BC4F8CC5184F8D051236061
:107060002046064A0649BDE8384000F0F5BD00BF9D
:1070700084E30320309C0D00FC9B0D00D4E1032031
:107080001D700D0000231A464068FFF7FDB800226E
:1070900002214068FFF708B9002211464068FFF757
:1070A000FBB8002211464068FFF706B900231A46D4
:1070B00019464068FFF708B900231A461946406888
:1070C000FFF70AB9002281F001014068FFF70CB90F
:1070D00000224068FFF718B9002211464068FFF708
:1070E0001BB9002211464068FFF706B92DE9F043AD
:1070F000002495B016460D460746FFF7C5FE21460B
:1071000020220CA8009401F0CAFC40230C932146D5
:107110006B460CAA3046FEF74DFF0446002844D1CA
:10712000024601216868FFF7C7F80221804622461F
:107130006868FFF7C1F8009E81462146002E34D0D2
:10714000002932D17368022B02D00A2B09D02AE021
:10715000B8F1000F27D0716938460431FFF7C1FE3E
:1071600020E0B9F1000F1ED07469112201A801F0CE
:1071700096FC06238DF8143001AD04F10803183491
:10718000186859682A4603C20833A3421546F7D146
:1071900001A906A807ADFFF785FE0FCD3C1D0FC462
:1071A0002B6823700121F669C8E70098FEF7FAFE04
:1071B000384615B0BDE8F083024B034A1A6000223E
:1071C0005A60704758E50320309C0D00F8B506461C
:1071D0000D468F180024BD420CD0336815F8011BF2
:1071E0009B6830469847002801DB0444F3E7002CF5
:1071F00008BF04462046F8BD70B505460C46084653
:1072000049B101F0AAFC2B68024621462846DB68FA
:10721000BDE87040184770BD03689B68184738B5D3
:107220000D210546FFF7F8FF0A2104462846FFF71F
:10723000F3FF204438BD38B50546FFF7DDFF0446AF
:107240002846FFF7ECFF204438BD30B58BB00B4625
:1072500000218DF82410012A98BF0A220DF1230481
:10726000B3FBF2F505FB123303F0FF03092B94BFC8
:1072700030333733DBB2214604F801392B46002D79
:10728000EED1FFF7B9FF0BB030BD10B50446FCF7E7
:1072900084FF204610BD00000348044A044900232F
:1072A000836000F0D9BC00BF60E50320D4E1032077
:1072B0008B720D00704710B50C21044600F0D1FC14
:1072C000204610BD10B5054B036004460171084609
:1072D000FEF778FE0023A360204610BD649C0D00DD
:1072E0000079FEF777BE10B504460068FFF724F872
:1072F000204610BD10B50446006808B1FFF71CF821
:1073000000232360A360636010BD38B504460D46BA
:1073100000680131FFF718F810B184E8210001205E
:1073200038BD10B50368044613B143688B4207D2D9
:107330002046FFF7EAFF20B1A3680BB9226813705B
:10734000012010BD70B50E46114604461546FFF7E4
:10735000E8FF18B92046FFF7CDFF09E02A4631467D
:10736000A560206801F090FB2268A3680021D15439
:10737000204670BD38B50023044603604360836037
:1073800003730D4639B1084601F0E7FB2946024672
:107390002046FFF7D7FF204638BD884210B50B4680
:1073A000044607D0096819B19A68FFF7CBFF01E0DE
:1073B000FFF7A0FF204610BD10B500230446036070
:1073C000436083600373FFF7E8FF204610BD08B5F4
:1073D00082680B4612B919B9012008BD11B90368BA
:1073E000187802E0006801F08BFBB0FA80F04009E9
:1073F00008BD70B50E469AB191B185689D4202D81C
:1074000000230B7070BD541EED1A0168AC4228BFFA
:107410002C4619442246304601F0BCFB002333556C
:1074200070BD10B50446006818B1FEF785FF002353
:10743000236010BD38B5B1F9043083800B460D468A
:1074400053F8062FC0F806209B8843810446FFF7B7
:10745000E8FF2B6813B1236000232B60204638BD62
:10746000B1F9043010B50BB90A689AB10C685CB177
:10747000A288012A03D0042A06D1022205E0A489A9
:107480004C818A710B8105E004220B814FF6FF735A
:107490008A714B8151F8063F03608B88838010BD51
:1074A00038B50C460546FFF7BCFF44B12088FEF70F
:1074B0003BFF286028B12288214601F0E5FA002030
:1074C00038BD014838BD00BFFCFEFFFF0146002269
:1074D0008C20FEF76FBC0020FFF7F8BFF0B5304DF1
:1074E0000B7D04468BB00846AF1D13B30B681B79A8
:1074F000FBB100224FF6FF7302A904300292ADF8EF
:107500000C208DF80E20ADF81020ADF81230FEF7EB
:1075100051FE0AAB00B253F81A2DADF80C009B884F
:10752000A880C5F806200299BB802846FFF7B8FF5F
:107530001CE02023002602931A4B00931A4903965D
:107540003346322002AAFEF7C5FD4FF6FF73ADF8B1
:10755000123002A94FF6F263114802968DF80E60C0
:10756000ADF81060ADF80C30FFF764FF02A8FFF72C
:1075700058FF00232360A380A37123814FF6FF737C
:107580006381B5F90430A3803B68C4F80630BB883A
:10759000638129682046FFF783FF20460BB0F0BDCA
:1075A00070E50320739C0D006C9C0D0030B5044603
:1075B00085B0084611461A460023FEF7B5FD0D4D6D
:1075C000ADF80C00002301A90193ADF808308DF847
:1075D0000A3028464FF6FF73ADF80E30FFF72AFF4A
:1075E00001A8FFF71EFF20462946FFF739FF204676
:1075F00005B030BD70E5032010B5094C00204FF6F2
:10760000FF732060A080A07120816381FEF77CFD64
:107610002046044A0449BDE8104000F01DBB00BFED
:1076200070E50320D4E103208B410D00F0B5144B2D
:10763000144F1E68144B064418683B6806449E426B
:107640008BB01BD00AA801AD40F8286D01F024F9D9
:10765000436903F26C73436104460FCC0FC50FCC32
:107660000FC5D4F800E0C5F800E001AD0FCD074C20
:107670000FC40FCD0FC43E60C4F800E00BB0F0BDE6
:10768000ACE50320A8E50320A4E503207CE5032066
:1076900008B50020FEF7E8FD28B1FEF7BDFD80F03B
:1076A0000100C0B208BD012008BD10B50020FEF7E2
:1076B000D1FB044668B9FEF71FFD01280BD1204617
:1076C000FEF752FD38B9FFF7E3FF30B9FEF78CFD46
:1076D000F9E7012010BD002010BDFFF7D9FF002001
:1076E000FEF7B8FB003018BF012010BD08B5FFF74A
:1076F000DCFFBDE80840FEF785BB000008B5FFF7DA
:10770000F5FFFFF793FF014B986808BD7CE5032068
:1077100008B5FFF7EBFFFFF789FF014B586808BD7D
:107720007CE50320024B1A68024B1A60704700BFC9
:107730001CE10320A0E5032070474174704708B5A1
:10774000007CFEF787FC20EAE07008BD08B5007CED
:10775000FEF758FC20EAE07008BD08B5007CFEF793
:1077600061FC30EA200028BF4FF0FF3008BD08B5AB
:10777000007CFEF74FFC30EA200028BF4FF0FF30BE
:1077800008BD007CFEF756BC10B51421044600F07D
:1077900068FA204610BD70B5457C04460E4625B9F2
:1077A000007CFEF757FC002805DD3146207CBDE853
:1077B0007040FEF71FBC284670BD000010B504469F
:1077C00008461146002262604FF47A72A260054AB0
:1077D00022600122207462741A46FEF703FC2046E0
:1077E00010BD00BFCC9C0D00007CFEF72BBC000040
:1077F00038B50C4D296811F0010411D12846FCF769
:1078000052FC68B1084A094B09482146FFF7D6FFE8
:107810002846FCF74DFC074A0749054800F01CFACA
:10782000034838BD48E603204CE60320C4E50320A6
:10783000B0E50320D4E1032039770D00417470478F
:10784000704708B50021007CFEF724FC30EA2000D8
:1078500028BF4FF0FF3008BD08B50121007CFEF7BE
:1078600019FC30EA200028BF4FF0FF3008BD08B5F2
:10787000007CFEF707FC20EAE07008BD08B5007C3C
:10788000FEF7F8FB20EAE07008BD007CFEF712BCB2
:1078900010B51421044600F0E4F9204610BD38B5B7
:1078A0000446007C0D46FEF7EDFB002801DC607C01
:1078B00028B12946207CFEF7F5FB20EAE07038BDB0
:1078C00010B50446002363604FF47A73A360054B40
:1078D000236001230846217463741146FEF7C2FB3E
:1078E000204610BDFC9C0D0010B51422044600215A
:1078F00001F0D5F8204610BD30B50E4D87B001A877
:10790000FFF7F2FF296811F0010410D12846FCF7B7
:10791000CAFB60B101AA21460748FFF7D1FF2846FC
:10792000FCF7C6FB054A0649034800F095F90248F2
:1079300007B030BDD0E60320D4E60320D4E1032015
:1079400041780D0008B50C4B33B1FFF7D5FF036844
:107950001B699847002809DC084B63B1FFF748FF13
:1079600003681B699847002803DC08BDAFF300805B
:10797000F2E7AFF3008008BD000000000000000047
:1079800008B5FFF7DFFFFEF735FA014B186008BDB9
:10799000F0E603200248034A0349121A01F074B8C2
:1079A00000F4032004F40320709F0D0007B50023AA
:1079B00000931A466FF07701FEF7E8FB03B05DF81D
:1079C00004FB000007B543880A2B08D0502B09D1CF
:1079D000094B1B683BB103B05DF804EB1847FFF798
:1079E000E5FF06E0002300931A466FF07701FEF7EB
:1079F000CDFB03B05DF804FBE8E6032038B5104C7E
:107A0000104D2368AB42104B0CBF012200221A70AC
:107A100002D0FFF7BFFF2560FEF7DCF9044601F056
:107A200047F80A4B13B12046AFF300800021074806
:107A3000FEF722FC00210648BDE83840FEF79CBB5B
:107A400000F403201E1C279AECE60320000000002F
:107A5000C5790D0008B5024B1B681B68019308BD72
:107A60005C02030008B5024B1B685B68019308BD0C
:107A70005C02030008B5024B1B689B68019308BDBC
:107A80005C02030010B5044600F0C6F8FFF728FCBE
:107A900028B1A4F10B03022B01D8002010BD00F087
:107AA00095F8FFF7B3F908B1012CF6D9FFF7A0FE5E
:107AB000FFF79AFE18B1A4F10903012BEDD9232C8D
:107AC0008CBF0020012010BD232838B504460D4688
:107AD0000AD8FF2908D0FFF7D5FF28B1294620464C
:107AE000BDE83840FEF7D6B938BD38B504460D4676
:107AF000FEF7D8F9FF2810D0062804D84D2323FA22
:107B000000F0C30709D42046FFF7BCFF28B129467F
:107B10002046BDE83840FEF7CDB938BD10B5044663
:107B2000FEF7C0F90438C0B2012808D92046FFF793
:107B3000A9FF20B12046BDE81040FEF7C3B90020E0
:107B400010BD0D2810B504469CBF0E34A4B22046CB
:107B5000FFF798FF50B103212046FEF793F9032861
:107B600004D12046BDE81040FEF7B4B9002010BD96
:107B700010B5074C2368DB0708D42046FCF793FABE
:107B800020B1FEF747F92046FCF792FA014810BDF4
:107B9000F4E60320F8E6032070B5044614252A46CF
:107BA000094E002100F07BFF258020253146A5608D
:107BB0002561284600F06FF831466060284600F0E5
:107BC0006AF8E060204670BD249D0D0030B50E4D72
:107BD000296811F0010487B013D12846FCF763FA35
:107BE00078B101A8FFF7D8FF01AA21460748FFF79F
:107BF000B9F82846FCF75CFA054A0649034800F044
:107C00002BF8024807B030BDFCE6032000E7032054
:107C1000D4E103200D6D0D0038B50B4D296811F02E
:107C200001040FD12846FCF73EFA58B12146074817
:107C3000FFF748FB2846FCF73BFA054A054903488D
:107C400000F00AF8014838BD20E7032014E70320BC
:107C5000D4E10320B5720D000B460146184600F032
:107C60000DBEFCF71CBA0000024B1868BFF35F8F13
:107C7000704700BF24E7032010B5002814BF044656
:107C800001242046FEF750FB20B9FFF7EDFF08B1B5
:107C90008047F6E710BDFFF7EFBF08B5FEF76CFBB6
:107CA000244B1A68D0075CBF01221A60224B1A6865
:107CB000D1075CBF01221A60204B1A68D2075CBF53
:107CC00001221A601E4B1A68D0075CBF01221A609D
:107CD0001C4B1A68D1075CBF01221A601A4B1A6844
:107CE000D2075CBF01221A60184B1A68D0075CBF2C
:107CF00001221A60164B1A68D1075CBF01221A6074
:107D0000144B1A68D2075CBF01221A60124B1A6822
:107D1000D0075CBF01221A60104B1A68D1075CBF04
:107D200001221A600E4B1A68D2075CBF01221A604A
:107D3000704700BF54E7032050E703204CE70320BF
:107D400048E7032044E7032040E703203CE7032003
:107D500038E7032034E7032030E703202CE7032033
:107D600028E70320184B1A68D1075CBF01221A606C
:107D7000164B1A68D2075CBF01221A60144B1A68AE
:107D8000D0075CBF01221A60124B1A68D1075CBF92
:107D900001221A60104B1A68D2075CBF01221A60D8
:107DA0000E4B1A68D0075CBF01221A600C4B1A6890
:107DB000D1075CBF01221A600A4B1A68D2075CBF68
:107DC00001221A60704700BF74E7032070E70320A8
:107DD0006CE7032068E7032064E7032060E70320E3
:107DE0005CE7032058E70320184B1A68D1075CBFF3
:107DF00001221A60164B1A68D2075CBF01221A6072
:107E0000144B1A68D0075CBF01221A60124B1A6823
:107E1000D1075CBF01221A60104B1A68D2075CBF01
:107E200001221A600E4B1A68D0075CBF01221A604B
:107E30000C4B1A68D1075CBF01221A600A4B1A6802
:107E4000D2075CBF01221A60704700BF94E703208D
:107E500090E703208CE7032088E7032084E70320D2
:107E600080E703207CE7032078E70320244B1A688F
:107E7000D0075CBF01221A60224B1A68D1075CBF91
:107E800001221A60204B1A68D2075CBF01221A60D7
:107E90001E4B1A68D0075CBF01221A601C4B1A687F
:107EA000D1075CBF01221A601A4B1A68D2075CBF67
:107EB00001221A60184B1A68D0075CBF01221A60B1
:107EC000164B1A68D1075CBF01221A60144B1A685E
:107ED000D2075CBF01221A60124B1A68D0075CBF40
:107EE00001221A60104B1A68D1075CBF01221A6088
:107EF0000E4B1A68D2075CBF01221A60704700BFA0
:107F0000C4E70320C0E70320BCE70320B8E7032051
:107F1000B4E70320B0E70320ACE70320A8E7032081
:107F2000A4E70320A0E703209CE7032098E70320B1
:107F300081F0004102E000BF83F0004330B54FEA1A
:107F400041044FEA430594EA050F08BF90EA020F87
:107F50001FBF54EA000C55EA020C7FEA645C7FEA1A
:107F6000655C00F0E2804FEA5454D4EB5555B8BF3D
:107F70006D420CDD2C4480EA020281EA030382EAAE
:107F8000000083EA010180EA020281EA0303362D40
:107F900088BF30BD11F0004F4FEA01314FF4801C13
:107FA0004CEA113102D0404261EB410113F0004F25
:107FB0004FEA03334CEA133302D0524263EB4303DC
:107FC00094EA050F00F0A780A4F10104D5F1200E7A
:107FD0000DDB02FA0EFC22FA05F2801841F10001D5
:107FE00003FA0EF2801843FA05F359410EE0A5F1A9
:107FF00020050EF1200E012A03FA0EFC28BF4CF0DA
:10800000020C43FA05F3C01851EBE37101F000458F
:1080100007D54FF0000EDCF1000C7EEB00006EEB9C
:108020000101B1F5801F1BD3B1F5001F0CD3490826
:108030005FEA30004FEA3C0C04F101044FEA44527D
:1080400012F5800F80F09A80BCF1004F08BF5FEA04
:10805000500C50F1000041EB045141EA050130BDE4
:108060005FEA4C0C404141EB010111F4801FA4F187
:108070000104E9D191F0000F04BF01460020B1FADC
:1080800081F308BF2033A3F10B03B3F120020CDA14
:108090000C3208DD02F1140CC2F10C0201FA0CF0F2
:1080A00021FA02F10CE002F11402D8BFC2F1200C57
:1080B00001FA02F120FA0CFCDCBF41EA0C0190400D
:1080C000E41AA2BF01EB0451294330BD6FEA040456
:1080D0001F3C1CDA0C340EDC04F11404C4F1200241
:1080E00020FA04F001FA02F340EA030021FA04F353
:1080F00045EA030130BDC4F10C04C4F1200220FAAA
:1081000002F001FA04F340EA0300294630BD21FAE7
:1081100004F0294630BD94F0000F83F4801306BFAD
:1081200081F480110134013D4EE77FEA645C18BFA1
:108130007FEA655C29D094EA050F08BF90EA020F38
:1081400005D054EA000C04BF1946104630BD91EA30
:10815000030F1EBF0021002030BD5FEA545C05D133
:108160004000494128BF41F0004130BD14F5800472
:108170003CBF01F5801130BD01F0004545F0FE41E6
:1081800041F470014FF0000030BD7FEA645C1ABF1B
:10819000194610467FEA655C1CBF0B46024650EA52
:1081A000013406BF52EA033591EA030F41F400217E
:1081B00030BD00BF90F0000F04BF0021704730B504
:1081C0004FF4806404F132044FF000054FF00001D9
:1081D00050E700BF90F0000F04BF0021704730B59A
:1081E0004FF4806404F1320410F0004548BF40426F
:1081F0004FF000013EE700BF42004FEAE2014FEAC4
:1082000031014FEA02701FBF12F07F4393F07F4F9E
:1082100081F06051704792F0000F14BF93F07F4FD0
:10822000704730B54FF4607401F0004521F0004113
:1082300020E700BF50EA010208BF704730B54FF099
:1082400000050AE050EA010208BF704730B511F09E
:10825000004502D5404261EB41014FF4806404F1D6
:1082600032045FEA915C3FF4DCAE4FF003025FEA58
:10827000DC0C18BF03325FEADC0C18BF033202EBE0
:10828000DC02C2F1200300FA03FC20FA02F001FA3A
:1082900003FE40EA0E0021FA02F11444C1E600BFD9
:1082A00070B54FF0FF0C4CF4E06C1CEA11541DBF8C
:1082B0001CEA135594EA0C0F95EA0C0F00F0DEF857
:1082C0002C4481EA030621EA4C5123EA4C5350EA3C
:1082D000013518BF52EA033541F4801143F480138D
:1082E00038D0A0FB02CE4FF00005E1FB02E506F01E
:1082F0000042E0FB03E54FF00006E1FB03569CF073
:10830000000F18BF4EF0010EA4F1FF04B6F5007F78
:1083100064F5407404D25FEA4E0E6D4146EB0606EA
:1083200042EAC62141EA55514FEAC52040EA5E5073
:108330004FEACE2EB4F1FD0C88BFBCF5E06F1ED81D
:10834000BEF1004F08BF5FEA500E50F1000041EB54
:10835000045170BD06F0004646EA010140EA020001
:1083600081EA0301B4EB5C04C2BFD4EB0C0541EA23
:10837000045170BD41F480114FF0000E013C00F338
:10838000AB8014F1360FDEBF002001F0004170BD5C
:10839000C4F10004203C35DA0C341BDC04F1140475
:1083A000C4F1200500FA05F320FA04F001FA05F201
:1083B00040EA020001F0004221F0004110EBD370CE
:1083C00021FA04F642EB06015EEA430E08BF20EAFA
:1083D000D37070BDC4F10C04C4F1200500FA04F39D
:1083E00020FA05F001FA04F240EA020001F000412F
:1083F00010EBD37041F100015EEA430E08BF20EAA2
:10840000D37070BDC4F1200500FA05F24EEA020EE9
:1084100020FA04F301FA05F243EA020321FA04F018
:1084200001F0004121FA04F220EA020000EBD370CF
:108430005EEA430E08BF20EAD37070BD94F0000FCF
:108440000FD101F00046400041EB010111F4801F03
:1084500008BF013CF7D041EA060195F0000F18BFB4
:10846000704703F00046520043EB030313F4801FF0
:1084700008BF013DF7D043EA0603704794EA0C0FAA
:108480000CEA135518BF95EA0C0F0CD050EA4106C0
:1084900018BF52EA4306D1D181EA030101F000413D
:1084A0004FF0000070BD50EA410606BF1046194665
:1084B00052EA430619D094EA0C0F02D150EA013671
:1084C00013D195EA0C0F05D152EA03361CBF1046B2
:1084D00019460AD181EA030101F0004141F0FE4151
:1084E00041F470014FF0000070BD41F0FE4141F4D5
:1084F000780170BD70B54FF0FF0C4CF4E06C1CEAD5
:1085000011541DBF1CEA135594EA0C0F95EA0C0F89
:1085100000F0A7F8A4EB050481EA030E52EA033544
:108520004FEA013100F088804FEA03334FF0805565
:1085300045EA131343EA12634FEA022245EA111592
:1085400045EA10654FEA00260EF000419D4208BF43
:10855000964244F1FD0404F5407402D25B084FEAF0
:108560003202B61A65EB03055B084FEA32024FF49C
:1085700080104FF4002CB6EB020E75EB030E22BFF9
:10858000B61A754640EA0C005B084FEA3202B6EBB9
:10859000020E75EB030E22BFB61A754640EA5C0068
:1085A0005B084FEA3202B6EB020E75EB030E22BFF8
:1085B000B61A754640EA9C005B084FEA3202B6EBF9
:1085C000020E75EB030E22BFB61A754640EADC00B8
:1085D00055EA060E18D04FEA051545EA16754FEA1A
:1085E00006164FEAC30343EA52734FEAC2025FEA38
:1085F0001C1CC0D111F4801F0BD141EA00014FF0C7
:1086000000004FF0004CB6E711F4801F04BF014397
:108610000020B4F1FD0C88BFBCF5E06F3FF6AFAEB3
:10862000B5EB030C04BFB6EB020C5FEA500C50F143
:10863000000041EB045170BD0EF0004E4EEA1131C6
:1086400014EB5C04C2BFD4EB0C0541EA045170BDCD
:1086500041F480114FF0000E013C90E645EA060E11
:108660008DE60CEA135594EA0C0F08BF95EA0C0F3F
:108670003FF43BAF94EA0C0F0AD150EA01347FF487
:1086800034AF95EA0C0F7FF425AF104619462CE75E
:1086900095EA0C0F06D152EA03353FF4FDAE1046C1
:1086A000194622E750EA410618BF52EA43067FF412
:1086B000C5AE50EA41047FF40DAF52EA43057FF4A2
:1086C000EBAE12E74FF0FF3C06E000BF4FF0010CAD
:1086D00002E000BF4FF0010C4DF804CD4FEA410C11
:1086E0007FEA6C5C4FEA430C18BF7FEA6C5C1BD0DE
:1086F00001B050EA410C0CBF52EA430C91EA030F5F
:1087000002BF90EA020F0020704710F1000F91EABB
:10871000030F58BF994208BF90422CBFD8176FEA89
:10872000E37040F0010070474FEA410C7FEA6C5C57
:1087300002D150EA013C07D14FEA430C7FEA6C5C5E
:10874000D6D152EA033CD3D05DF8040B704700BF8A
:108750008446104662468C461946634600E000BFD8
:1087600001B5FFF7B7FF002848BF10F1000F01BDAA
:108770004DF808EDFFF7F4FF0CBF012000205DF875
:1087800008FB00BF4DF808EDFFF7EAFF34BF0120FA
:1087900000205DF808FB00BF4DF808EDFFF7E0FF93
:1087A00094BF012000205DF808FB00BF4DF808EDE4
:1087B000FFF7CEFF94BF012000205DF808FB00BF4B
:1087C0004DF808EDFFF7C4FF34BF012000205DF82D
:1087D00008FB00BF4FEA4102B2F1E04324BFB3F50A
:1087E000001CDCF1FE5C0DD901F0004C4FEAC00228
:1087F0004CEA5070B2F1004F40EB830008BF20F00C
:108800000100704711F0804F21D113F13872BCBFC5
:1088100001F00040704741F480114FEA5252C2F11A
:108820001802C2F1200C10FA0CF320FA02F018BF63
:1088300040F001004FEAC1234FEAD32303FA0CFCB6
:1088400040EA0C0023FA02F34FEA4303CCE77FEA45
:10885000625307D150EA01331EBF4FF0FE4040F48F
:108860004000704701F0004040F0FE4040F400003E
:10887000704700BF0A22002100F026BA10B5054C4F
:1088800013462CB10A4601460220AFF3008010BD0A
:10889000204610BD0000000038B5074B1C68E36B94
:1088A00005461BB92420FDF73FFDE063E16B284638
:1088B000BDE8384000F002B884E103202DE9F04122
:1088C0000C46804600F006FD21460746404600F073
:1088D00005FD466906F26C76B307044605D16422AD
:1088E00096FBF2F302FB13634BB94FF4C87596FB8A
:1088F000F5F305FB1365B5FA85F35B0900E0012389
:108900005F4A302505FB032500F018FB00F018FB3B
:108910005C4B1B68F3B17B689E4205D13968D8F87F
:108920000030FA6941B90AE0304600F05FFA0028E9
:10893000F4D14FF0FF330DE0934208DB01E09342A6
:1089400007DABA6B9342ACBF0023012302E0002395
:1089500000E001232362236A012B0CBFF96B396A03
:108960004FF461633C2091FBF3F603FB161361683F
:1089700093FBF0F200FB12302368891AA268616051
:108980001B1A921B3B2B2360A26003DD0131616047
:108990003C3B04E0002B03DA013961603C33236087
:1089A00063683B2B03DD0132A2603C3B04E0002BFB
:1089B00003DA013AA2603C336360A368172B22DD1F
:1089C000E2690132E261A2690132062AC8BF0022CF
:1089D000A261E268183B0132A3602369E26055F8A6
:1089E00023108A4246DD01330C2B0CBF63692361DF
:1089F000A2EB0102E26001BF013300222261636148
:108A000008BFE26136E0002B34DAE269013AE26144
:108A1000A269013A48BF0622A261E2681833013A0E
:108A2000E260A36032BB2369013B01D423611DE0F6
:108A30000B23236163695A1E12F0030F626103F274
:108A40006B7305D1642193FBF1F201FB12324AB939
:108A50004FF4C87193FBF1F201FB1233B3FA83F3C5
:108A60005B0900E0012303F5B673E361236955F860
:108A70002330E36000F063FA2046BDE8F08100BFD8
:108A8000889E0D00E4E7032010B5431E0A4491427E
:108A900004D011F8014B03F8014FF8E710BD024470
:108AA0000346934202D003F8011BFAE77047000027
:108AB00038B5124B1C68A36B0546D3B91820FDF7D7
:108AC00033FC43F20E33A06303804AF6CD33438078
:108AD00041F2342383804EF26D63C3804DF6EC6324
:108AE0000381052343810B23838101220023C0E9F5
:108AF0000423A36B00221D615A6138BD84E1032069
:108B000010F8012B11F8013B012A28BF9A42F7D037
:108B1000D01A7047034611F8012B03F8012B002AE5
:108B2000F9D17047024B0146186800F003B800BF46
:108B300084E1032070B5064608460C4600F00DF8A7
:108B4000451C29463046FDF71FFC064618B12A464B
:108B50002146FFF799FF304670BD034613F8012BFD
:108B6000002AFBD1181A0138704730B582B1451E72
:108B7000013915F8013F11F8014FA34206D1EC432A
:108B80001444E04201D0002BF3D11C46181B30BD29
:108B9000104630BD10B5034642B111F8014B03F841
:108BA000014B013A002CF7D11A4400E010BD93426A
:108BB00002D003F8014BFAE710BD00002DE9F047A1
:108BC00080464048D0F800900F463D4615F8014BCE
:108BD00009EB0400407800F0080000F0FF0608B13F
:108BE0002F46F2E72D2C03D1BD1C7C78012603E033
:108BF0002B2C04BF7C78BD1C13B1102B0AD15BE079
:108C0000302C57D1287800F0DF0058284DD16C78EF
:108C100010230235002E14BF4FF0004C6FF0004CB3
:108C20000027BCFBF3FA384603FB1ACC09EB040E11
:108C30009EF801E01EF0040F01D0303C0BE01EF066
:108C4000030E1BD0BEF1010F0CBF4FF0370E4FF0DB
:108C5000570ECEEB0404A34210DDB7F1FF3F0AD05C
:108C6000504506D801D1644503DC03FB00400127D1
:108C700001E04FF0FF3715F8014BD7E77B1C0CD113
:108C8000002E4FF0220314BF4FF000406FF0004061
:108C9000C8F800302AB9BDE8F08706B1404272B189
:108CA00007B1691E1160BDE8F0873024002BB1D1F7
:108CB0000823AFE70A23ADE7302CA3D0AAE7BDE82D
:108CC000F08700BF20E1032013460A460146024810
:108CD0000068FFF773BF00BF84E103202DE9F04770
:108CE00080463C48D0F800900E46354615F8014BBA
:108CF00009EB0400407800F0080000F0FF0708B11D
:108D00002E46F2E72D2C03D1B51C7478012703E021
:108D10002B2C04BF7478B51C13B1102B0AD153E06F
:108D2000302C4FD1287800F0DF00582845D16C78DE
:108D3000102302354FF0FF3C0026BCFBF3FC03FB85
:108D40000CFA6FEA0A0A304609EB040E9EF801E0BD
:108D50001EF0040F01D0303C0BE01EF0030E1AD0C1
:108D6000BEF1010F0CBF4FF0370E4FF0570ECEEB98
:108D70000404A3420FDD002E08DB604506D801D1B4
:108D8000544503DC03FB0040012601E04FF0FF36B1
:108D900015F8014BD8E7002E07DA2223C8F8003077
:108DA0004FF0FF302AB9BDE8F08707B1404272B1F9
:108DB00006B1691E1160BDE8F0873024002BB9D1DF
:108DC0000823B7E70A23B5E7302CABD0B2E7BDE8FC
:108DD000F08700BF20E1032013460A4601460248FF
:108DE0000068FFF77BBF00BF84E103202DE9F74F48
:108DF000044600F06FFA40F2B1739C4240F3968053
:108E00006FF4F663E318A4F2B2729B1040F26D1592
:108E100005FB0235A4F26D726FF0630392FBF3F36E
:108E20006FF4C8622B44A5184FF4C87295FBF2F595
:108E30001D44642394FBF2F794FBF3F602FB1747FF
:108E400003FB164600F13803B7FA87FE019304F0DE
:108E5000030344604FEA5E1E014600934FF0070C87
:108E60000B7A4A2B0ED14B69009AEC1802B906B95D
:108E700027B93B2BD4BF0023012300E00023234468
:108E8000013B3FE0442B02D14B692B443AE0009B6D
:108E90002BB9002E0CBFF0464FF0010800E0F04661
:108EA000244BCC68302202FB0838A8F1040AA946FA
:108EB0000123A34204DA5AF804BF0133D944F8E786
:108EC00009F1040393FBFCFBCBEBCB0A012CCAEBAF
:108ED000030A4B69B8BF012404F18044B3EB0A0ACA
:108EE0000B6904F1FF3403F1FF3348BF0AF1070AAD
:108EF000C3EBC30358F824405344A34201DB073BB0
:108F0000FBE74B448C690C4A02FB03430C6A234485
:108F100041F81C3F019B9942A2D1C369826B9342E5
:108F2000ACBF002301230360012000E0002003B058
:108F3000BDE8F08F889E0D0080510100704770479A
:108F4000014B186800F002B884E103202DE9F04FCE
:108F50008DB0074600F0BEF9B049B14E0446384620
:108F600000F0B0F9054660B9AE4BAF4A1860AF4BA0
:108F70001860AF4B30681A605A60FDF7DDF9356054
:108F800048E1316879B93068FDF7D6F92846FFF72E
:108F9000E4FD411C3846FDF7F7F9306048B1294639
:108FA000FFF7B8FD05E0FFF7ABFD002800F03281C8
:108FB000E9E72B789F4AA0493A2B08BF01350AAE52
:108FC00033462846FDF7C8F9002840F323810A9B61
:108FD000EF18EB5C2D2B03D101374FF0FF3503E089
:108FE0002B2B08BF013701250DF1200A0DF11E0BB7
:108FF0004FF000080396CDF808A00196CDF800B018
:10900000334607AA8D49ADF81E803846ADF820805A
:10901000FDF7A2F9404540F3FD80BDF81E20BDF8E4
:109020002030DFF824923C2101FB0233BDF81C20E4
:109030004FF4616101FB02335D4325627C4D7D4B42
:109040002B600A9B7C491F444A4633463846FDF74D
:1090500083F9404508DC2B686B60724B226A1A600A
:10906000724BC3F80080D5E00A9BC5F80490FD1848
:10907000FB5C2D2B03D101354FF0FF3703E02B2B89
:1090800008BF013501270023ADF81C30ADF81E30B4
:10909000ADF820300A930396CDF808A00196CDF8DC
:1090A00000B0334607AA65492846FDF755F9002860
:1090B00004DC236AA3F56163E3630EE0BDF81E20C0
:1090C000BDF820303C2101FB0233BDF81C204FF4D9
:1090D000616101FB02335F43E7630A9B27461D443E
:1090E0004FF000092B782C2B08BF013595F8008034
:1090F000B8F14D0F26D10DF12603029309AB009371
:109100000396019633460DF122024D492846FDF79C
:1091100023F903287ED1BDF822104B1E0B2B79D8E2
:10912000BDF82420531E042B74D8BDF82630062B1E
:1091300070D887F80880F9603A617B610A9B05EB7B
:1091400003082AE0B8F14A0F06BF0135434644231D
:109150000A220BA928460593FFF73EFEDDF82C8076
:10916000ADF826004545059B14D14D23B9F1000FFC
:1091700007D123720323E36002232361C4F8149010
:109180000BE084F824300B23A3620123E362002365
:10919000236302E080B23B7278610223ADF81C3099
:1091A0000023ADF81E30ADF820300A9398F8003057
:1091B0002F2B0BD10396CDF808A00196CDF800B067
:1091C000334607AA1F494046FDF7C6F8BDF81E20E2
:1091D000BDF820303C2101FB0233BDF81C204FF4C8
:1091E000616101FB0233BB610A9D09F10109B9F11B
:1091F000020F454407F11C077FF474AF6068FFF766
:10920000F5FD084B226A1A60E36B9B1A074A18BFE8
:10921000012313600DB0BDE8F08F00BFE89E0D0084
:10922000E0E70320E8E70320EB9E0D00E4E70320DE
:1092300088E10320D3E70320EF9E0D00129F0D006D
:10924000FE9E0D00119F0D00C8E703202DE9F84F89
:1092500007468B46904600F0D9F8194B1D689A4690
:109260003DB15C46234613F8012B42B13D2A1C4612
:10927000F8D1384600F0CBF80020BDE8F88FCBEBF2
:109280000404A94659F8040B0028F2D02246594696
:10929000FFF76BFC88B959F8043C1E191B5D3D2B88
:1092A0000BD1DAF80030ED1AAD103846C8F800508E
:1092B00000F0ADF8701CBDE8F88F4D46E1E700BF47
:1092C000D0E1032007B501AAFFF7C0FF03B05DF8A6
:1092D00004FB00000048704790E103200268474B00
:1092E000F0B592FBF3F403FB1422002ABCBF02F595
:1092F000A83202F5C0724FF4616004F52F2492FB8E
:10930000F0F300FB13224FF03C00ACBF04F66C24DA
:1093100004F66B248B6092FBF0F300FB13224B608E
:109320000A600723E21C92FBF3F3C3EBC303D31AD7
:109330008B61334B334D94FBF5F503FB054448F645
:10934000AC62B4FBF2F2224440F2B457B4FBF7F340
:10935000D21A2D48B4FBF0F048F69466131AB3FB0A
:10936000F6F6344440F26D12B3FBF2F0B3FBF7F3C0
:10937000E31A02FB1033992403EB83020232B2FB9F
:10938000F4F20A2A04FB02F404F102064FF0050489
:10939000B6FBF4F434BF02266FF0090616444FF40E
:1093A000C87202FB05055F1C012E98BF0135B3F59D
:1093B000997FA7EB040702D3A3F5997214E0820703
:1093C00005D16424B0FBF4F204FB12024AB94FF455
:1093D000C872B0FBF2F402FB1400B0FA80F252093A
:1093E00000E001223B331A44A5F26C750023CA61E8
:1093F0004D610E61CF600B620846F0BD80510100E7
:109400004FC5FDFFB13A0200B03A02007047704705
:1094100021400D005D400D0089400D008D400D0084
:1094200000000000000000000000000079430D0073
:10943000C1430D0029410D00A5990D00E0990D00D3
:10944000E5990D00EA990D00EE990D00F3990D00D4
:10945000F8990D00FC990D00079A0D00129A0D0065
:10946000A5990D00AD990D00B1990D00BA990D00A7
:10947000C2990D00CE990D00D4990D0053746172FC
:10948000747570205375636365737366756C000043
:1094900000000000000000000000000000000000CC
:1094A00000000000000000000000000000000000BC
:1094B00000000000000000000000000002000000AA
:1094C000257320533A25322E306625252C20513A1B
:1094D00025322E30662525200025342E3166204386
:1094E0000025342E31662025250025342E316620B6
:1094F0006C75780025692025250041542B4346557D
:109500004E3D31360D0A007B2254656D70657261E7
:1095100074757265223A25342E31662C20224875E6
:109520006D6964697479223A25342E31662C2022C3
:109530004C696768744C6576656C223A25342E3127
:10954000662C2022536F696C6D6F69737475726538
:1095500031223A25692C2022536F696C6D6F697333
:109560007475726532223A25692C20227761746500
:10957000725072657373757265223A25692C2022C8
:10958000536F6C656E6F6964223A25692C20224204
:10959000617474657279223A25692C2022526573B0
:1095A000657473223A25692C2022416C65727473AC
:1095B000223A25697D005277616E64612D53656E94
:1095C00073652D416E642D436F6E74726F6C2D4503
:1095D0006C6173746963006167726963756C74753B
:1095E00072652D6177732D776562686F6F6B0052BE
:1095F00077616E64612D53656E73652D416E642DC8
:10960000436F6E74726F6C004E6F20446174610022
:10961000556269646F747320486F6F6B0052657395
:10962000706F6E7365205265636569766564005579
:109630006E6B6E6F776E20726573706F6E736520E0
:1096400072656365766965642025690030004E6F38
:1096500020536F696C2053656E736F727300436F94
:109660006E666967004F6E6520536F696C205365A5
:109670006E736F720054776F20536F696C2053655F
:109680006E736F7273004E6F2050726573737572D4
:10969000652053656E736F720050726573737572D7
:1096A000652053656E736F722050726573656E74BA
:1096B000004E6F204C696768742053656E736F723B
:1096C000004C696768742053656E736F7220507226
:1096D0006573656E74004E6F2054656D70202F2089
:1096E00048756D69646974792053656E736F722073
:1096F00050726573656E74005365742056657262AE
:109700006F7365204D6F646500436C6561726564BD
:1097100020566572626F7365204D6F6465004C6FF3
:109720007720506F776572204D6F646500547275B5
:1097300065004E6F726D616C204F70657261746967
:109740006F6E730046616C7365004F6E004F666606
:10975000004F70656E207468652056616C766500F8
:109760005761746572696E6700436C6F736520742E
:1097700068652076616C766500596573007965735C
:10978000006E6F004E6F004E6F20536F6C656E6FF2
:1097900069642041747461636865640046726F6D2A
:1097A00020257320746F2025730053746174652025
:1097B0005472616E736974696F6E00737061726B5D
:1097C0002F6465766963652F73657373696F6E2F98
:1097D000656E640054616B696E672061204E617034
:1097E000005374617465004C6F7720426174746536
:1097F0007279202D20536C656570696E6700457223
:10980000726F72205374617465202D2052657365E8
:1098100074004572726F72205374617465202D203C
:10982000506F776572204379636C65004572726F83
:1098300072205374617465202D2046756C6C204D28
:109840006F64656D205265736574004572726F7246
:109850002074616B696E67204D6561737572656D0B
:10986000656E7473005369676E616C005265736551
:1098700074436F756E740052656C65617365005357
:10988000746174654F664368670042617474657201
:1098900079436F6E74657874004C6F77506F77659D
:1098A000724D6F64650054656D7065726174757298
:1098B000650048756D6964697479004C756D696EF1
:1098C0006F7369747900536F696C4D6F6973747548
:1098D00072653100536F696C4D6F69737475726591
:1098E00032005072657373757265004D65617375F2
:1098F00072652D4E6F7700566572626F73652D4DE0
:109900006F646500536574536F696C53656E736F54
:109910007273005365745072657373757265536525
:109920006E736F72005365744C6967687453656E2B
:10993000736F7200536F6C656E6F696450726573FC
:10994000656E740053657454656D7048756D696417
:1099500053656E736F720054656D702F48756D6935
:10996000646974792053656E736F72204661696C07
:10997000656420746F20496E69616C697A65202D79
:109980002064697361626C696E67004661696C6529
:109990006420746F20636F6E6E656374005374612E
:1099A0007274757000556E6B6E6F776E004E6F74CB
:1099B000204368617267696E67004368617267651A
:1099C00064004469736368617267696E6700466129
:1099D000756C74004469636F6E6E656374656400D2
:1099E0004E6F6E6500576946690047534D00554DEF
:1099F00054530043444D41004C54450049454545AE
:109A0000383032313534004C54455F4341545F4D5A
:109A100031004C54455F4341545F4E423100323572
:109A200000000000000000000000000083640D0042
:109A300079640D006F640D0025640D0063640D00F2
:109A400057640D004B640D0043640D0039640D0034
:109A50002F640D00ED700D000000000000000000FC
:109A600031650D0091650D0033650D00D5650D0064
:109A700039650D00A1650D0065650D005F660D007F
:109A8000FCFFFFFF0000000089660D0000000000E1
:109A90000000000091660D0097660D00DB660D006A
:109AA000A5660D0093660D00000000000000000098
:109AB000EF6C0D00E56C0D00DB6C0D00D16C0D0042
:109AC000C56C0D00B96C0D00AD6C0D00A56C0D00E2
:109AD0009B6C0D00916C0D00ED700D0000000000FE
