:02000002D0002C
:1040000000400D00C8A10D00000006000D000501D4
:084010000401DE0500000000C0
:0440180010950D00F2
:1040200009480A49884208B505D0094A824202D0A7
:10403000121A04F0A9FD0748074A0021121A04F0D9
:10404000AEFD014808BD00BF78E0032064A00D006C
:10405000B0E10320B0E10320F0E7032070B503F0E6
:104060000DFD074C074BE41AA40800251E46A54287
:1040700004D056F8253098470135F8E770BD00BFE9
:1040800060A00D0020A00D0001F0B0B908B500F04F
:10409000C5FEBDE8084003F0B3BC02F0FFB802F073
:1040A00005B902F003B90078B0FA80F04009704712
:1040B0000123037070470000014B01221A70704702
:1040C00014E2032003681847012A02D0022A02D012
:1040D00004E0016002E00B6800B10360002070475B
:1040E00038B50446006928B185680C2103F039FE13
:1040F0002846F8E7204638BD08B5044903F057F9CB
:1041000018B1034B03221A70012008BD189B0D0043
:10411000F2E10320436913B183690C3018477047FB
:1041200013B500210446084601F09CFD02A90023B6
:10413000204641F8043D01F0ADFD019C0CB1012386
:1041400023710021012001F08DFD2CB12368204650
:104150009B6898470023237102B010BD37B59DF8C6
:10416000184023438DF800303C23054602F0C8FB7D
:10417000284603B030BD10B50446006808B102F00F
:1041800095F8204610BD10B58368044613B103228C
:1041900001469847204610BD30B585B00D4604A9AC
:1041A000002241F8102D01F04DFFD8B9009CE388A2
:1041B000012B04D001460C4A0A2001F033FF21698B
:1041C00019B9094A0A2001F02DFF002301930C239D
:1041D000ADF80430042303930295236901AA012159
:1041E0002046984705B030BD255D0D000368D868AE
:1041F00020B183888B4201D08068F9E7704708B509
:104200002DED028BB0EE408A28B10138FFF7F7FFA1
:1042100028EE000A01E0B7EE000ABDEC028B08BDF3
:1042200007B58068002338B18DE80A00022101F04B
:1042300039FDB0FA80F0400903B05DF804FB0000DE
:1042400038B5104B036083680446A3B16FF000419A
:104250000022FFF7E5FF0021A06801F03BFD237974
:1042600003F0FF0513B101F0E5FCF8E72946A0686B
:1042700001F008FDA56004F10C00FFF784FF204663
:1042800038BD00BF2C950D0010B50446FFF7D8FFD0
:1042900020461C2103F065FD204610BD30B5194DA8
:1042A0000FCD99B004AC0FC40FCD0FC495E8030037
:1042B00084E8030014490EA802F0A2F80EA802F048
:1042C000F2F804460EA802F03FF90EA810EE105ABC
:1042D00002F020F918AB10EE100A03EB840404F08E
:1042E0000BF8CDE90201284604F006F8CDE90001FB
:1042F000064A54F8503C0648402101F0EFFF19B03F
:1043000030BD00BF38950D0030E30320C0950D008F
:1043100070E2032030B50E4D0FCD89B001AC0FC453
:1043200095E8070084E8070069460720FFF734FF97
:104330000028A8BF0098074A08AB03EB80001021B3
:1043400050F81C3C044801F0C9FF09B030BD00BF63
:1043500060950D00C1980D00E1E103207FB5554D3A
:10436000554C2B7B53B1554801F02EFC534884ED3E
:10437000050A01F037FC84ED060A02E00023A36180
:10438000636160694C4E03F0B7FF4D4ACDE900010F
:1043900010214C4801F0A2FFA06903F0ADFF4A4A8A
:1043A000CDE900011021494801F098FF2B7C43B171
:1043B000474801F033FB464801F0EAFA86ED070A68
:1043C00001E00023F361E0693B4E03F095FF414AB1
:1043D000CDE900011021404801F080FFAB7B63B1C3
:1043E000132003F0EEFB64230093002340F68A625F
:1043F000194601F08BFF306000E03360AB7B022B8D
:104400000CD1122003F0DDFB64230093002340F65F
:104410008A62194601F07AFF606001E00023636060
:10442000EB7B012B0DD1112003F0CBFB1E2300935E
:104430004FF4306200234FF4D67101F067FFA060A3
:1044400002E01C4B0022DA73244B0022114658680C
:1044500001F0ECFE08B1FFF721FF03A90320FFF7ED
:104460009BFE88B90620B0EE000AFFF7C8FEBDF833
:104470000C3030EE000A07EE103A30EE000AB8EECB
:10448000477AC7EE007A01E0FFEE007AFDEEE77AA8
:10449000134A1448C5ED027A17EE903A082101F04C
:1044A0001DFFFFF737FF104B012018700F4B1870DE
:1044B00004B070BD0CE30320C0E2032060E20320DF
:1044C000D9950D00B4E10320E1950D00E4E203204D
:1044D000D0E10320EA950D00FCE2032030E3032045
:1044E000F4950D00F4E20320F3E10320F1E1032051
:1044F0002DE9D0431A4800231A461946406801F0B6
:104500009DFE01F033FE4FF4967440F2E73600272B
:10451000002001F047FC4FF000098046002001F028
:1045200041FCB0EB080061EB09018F4208BF8642F5
:1045300005D301F02BFE10B901F010FEEEE701F0FB
:1045400025FE18B1BDE8D04301F020BE01F0F2FB1A
:10455000044B186001F002FE013CF3D0D8E700BF25
:1045600030E30320D8E6032008B501F00FFE80F009
:104570000100C0B208BD0000F8B501F0FFFD002049
:1045800001F010FC0025044643F697260027002082
:1045900001F008FC001B61EB05018F4208BF864259
:1045A00005D3FFF7E1FF10B901F0D8FDEFE7FFF702
:1045B000DBFF064800231A461946406801F046FE14
:1045C0004FF4FA6001F0AEFE0120F8BD30E30320A5
:1045D000154B1648597999B14FF46173038141F233
:1045E000D833C3804FF48063438141F270038381E9
:1045F000036843F4007343F001030360002111E0FA
:1046000040F2DC53038141F27003C3804FF48063B6
:10461000438141F210038381036843F4007343F044
:104620000103036001F076BD0CE30320F4E10320F5
:1046300010B5074C01F07EFB2368C01AB0F57A7FF5
:1046400004D301F077FB2060012010BD002010BDD5
:10465000B0E2032008B5FFF7EBFF18B1BDE8084052
:10466000FFF7E6BF01F07AFDF5E7000037B501F08E
:1046700085FD01F05FFB43F69725044601F086FDBA
:1046800040B101F057FB001BA84203D8642001F0A1
:1046900049FEF3E70021094B47F23052084601F08A
:1046A000B9FA4FF47A7001F03DFE054B0A221B68FF
:1046B0000121684602F06AFF03B030BDFA950D0093
:1046C0004CE2032038B5046805467CB16368013BC1
:1046D00063605BB9236820469B689847A368013BE9
:1046E000A3601BB923682046DB689847284638BD7D
:1046F00030B5254C254D236AD1B00C93244B9A69D3
:104700000B929B680A93E3680993A3680893636814
:10471000079323680693E06903F0EEFDCDE90401F9
:10472000A06903F0E9FDCDE90201606903F0E4FD51
:104730000024CDE90001174A4FF4807110A801F060
:10474000CDFD2B7814498DF8004010AA0EA8FFF774
:1047500005FD0FA8FFF7B6FF2B7810498DF8004034
:1047600010AA0EA8FFF7FAFC0FA8FFF7ABFF03F0A3
:1047700005F80B4B18700B4B01221A7001F0DAFA96
:10478000094B186051B030BDC0E20320CCE10320DA
:104790000CE3032007960D00B6960D00CF960D0092
:1047A00015E20320F6E00320C8E1032010B50B78E2
:1047B00094B00C4623B91C4904A804F02BFA17E066
:1047C000084604F0D7F8C82804D0204604F0D2F8F0
:1047D000C9281ED1154904A804F01CFA02F0C6FF2E
:1047E000134BD861134B01221A70134B00221A701D
:1047F000FFF730FF114B12491B7800228DF8002083
:1048000002A804AAFFF7AAFC03A8FFF75BFF14B0F5
:1048100010BD204604F0AEF80A4A0346402104A821
:1048200001F05CFDE4E700BFF0960D0005970D0078
:104830000CE30320F1E10320F6E00320CCE10320A8
:10484000F8960D0017970D0030B5184985B004464D
:1048500002F0ADFD054668B1154B01245C71154BA6
:104860001C70FFF7B5FE144B00221B788DF800205A
:10487000124A10E01249204602F099FD98B10C4B03
:104880005D710C4B01241C70FFF7A2FE0A4B0D4A10
:104890001B788DF800500C4902A8FFF75FFC03A8B5
:1048A000FFF710FF204605B030BD00BF189B0D007C
:1048B0000CE30320F1E10320CCE1032034970D0049
:1048C00052970D0054970D004B970D007FB51E4970
:1048D000044602F06CFD064658B11C4B00229A7348
:1048E0001B4B01241C701B4B1B788DF800201A4AAF
:1048F00020E01A49204602F05AFD054650B1134BFC
:10490000174A01249C73124B1C70124B1B788DF8B4
:1049100000600FE01349204602F049FD90B10B4BB7
:1049200002229A730A4B104A01241C70094B1B780F
:104930008DF800500D4902A8FFF710FC03A8FFF7FF
:10494000C1FE204604B070BD52970D000CE3032059
:10495000F1E10320CCE103206F970D00189B0D00BF
:104960007F970D00FA990D008F970D004B970D0062
:1049700030B5164985B0044602F019FD054658B118
:10498000134B0022DA73134B01241C70124B1B785B
:104990008DF80020114A0EE01149204602F007FD73
:1049A00088B10B4B0F4A0124DC730A4B1C700A4B75
:1049B0001B788DF800500C4902A8FFF7CFFB03A825
:1049C000FFF780FE204605B030BD00BF52970D00B6
:1049D0000CE30320F1E10320CCE10320A0970D00BC
:1049E000189B0D00B3970D004B970D0030B519497A
:1049F00085B0044602F0DBFC054658B1164B002298
:104A00001A74164B01241C70154B1B788DF800206E
:104A1000144A15E01449204602F0C9FCC0B10E4BFF
:104A2000124801241C740D4B1C7000F0A6FF2021BD
:104A30000E4800F0DEFF0A4B0D4A1B788DF800503F
:104A40000C4902A8FFF78AFB03A8FFF73BFE2046AC
:104A500005B030BD52970D000CE30320F1E10320B7
:104A6000CCE10320CB970D00189B0D00D0E1032073
:104A7000DB970D004B970D0030B5184985B0044603
:104A800002F095FC054658B1154B00221A73154BE0
:104A900001241C70144B1B788DF80020134A12E07F
:104AA0001349204602F083FCA8B10D4B11480124A4
:104AB0001C730C4B44211C7000F0F0FF0A4B0E4A93
:104AC0001B788DF800500D4902A8FFF747FB03A89B
:104AD000FFF7F8FD204605B030BD00BF52970D002E
:104AE0000CE30320F1E10320CCE10320F0970D005B
:104AF000189B0D0060E20320F3970D004B970D000B
:104B00001FB51B49044602F052FC78B919492046EA
:104B100002F04DFC50B91849204602F048FC88B913
:104B20001649204602F043FC60B91EE0144B0124F4
:104B30005C74144B1C70144B00221B788DF8002001
:104B4000124A0AE00E4B00225A740E4B01241C70CC
:104B50000D4B1B788DF800200D4A0E4902A8FFF777
:104B6000FDFA03A8FFF7AEFD204604B010BD00BF5C
:104B700012980D0016980D001D980D001A980D0042
:104B80000CE30320F1E10320CCE1032023980D0086
:104B900020980D004B970D0030B5164985B004469E
:104BA00002F005FC054658B1134B01241C71134B50
:104BB0001C70134B00221B788DF80020114A0EE068
:104BC0001149204602F0F3FB88B10B4B0F4A1D71CF
:104BD0000A4B01241C700A4B1B788DF800500C49BD
:104BE00002A8FFF7BBFA03A8FFF76CFD204605B04B
:104BF00030BD00BF189B0D000CE30320F1E1032042
:104C0000CCE1032035980D0052970D0046980D0019
:104C10006A970D0030B5294985B0044602F0C7FBFC
:104C200028B92749204602F0C2FB002843D0234977
:104C3000204602F0BCFBB0B101F0A8FA70B1FFF75A
:104C400009FD204B20491B7800228DF8002002A886
:104C50001E4AFFF783FA03A8FFF734FD1C4B1D49DA
:104C600001229A7121E01649204602F0A0FBF8B11A
:104C700001F08CFA164C18B9FFF73AFC0123E370E7
:104C8000FFF7E8FC0F4B10491B78134A002502A8D8
:104C90008DF80050FFF762FA03A8FFF713FD4FF4F9
:104CA0007A7001F03FFB0D49A5710D4803F0B2FF8A
:104CB0000C4B0120187005B030BD00BF189B0D00D3
:104CC00052970D00CCE103206A970D005B980D0010
:104CD0000CE303206A980D006F980D0081980D0079
:104CE000B8E20320F1E10320F0B5264985B004467F
:104CF00002F05DFB28B92449204602F058FB002849
:104D00003DD020461F49214D214E224F02F04FFB3E
:104D10000446B0B1012421460220EC6002F025FFD8
:104D20000021032002F021FF706901F0FBFA214607
:104D3000032002F01AFF00223B788DF80020164A6B
:104D400013E02146022002F010FF2146032002F06A
:104D50000CFF706901F0E6FA0121032002F005FF63
:104D60000E4A3B78EC608DF800400D4902A8FFF731
:104D7000F5F903A8FFF7A6FC0A4B0120187005B04F
:104D8000F0BD00BF87980D008A980D00C0E2032097
:104D90000CE30320CCE103208E980D00A6980D00B3
:104DA0009D980D00F3E1032030B5164D164C1749C0
:104DB0002A7820788FB00E2303FB0212009203FBA7
:104DC0000013134A282104A801F088FA2B782370D5
:104DD00001F0DCF970B1FFF73DFC0E4B0E491B787A
:104DE00000228DF8002002A804AAFFF7B7F903A853
:104DF000FFF768FC02F0C0FD04A902F00CFA0FB046
:104E000030BD00BFF2E10320E0E1032078E00320A1
:104E1000B6980D00CCE10320C4980D002DE9F043B5
:104E20008A4C2378013B8DB0072B00F2C582DFE866
:104E300013F02C0208004E007F00B900DA003B019D
:104E4000EB01834D2B792BB1824B1B78022B01D0C8
:104E5000FFF7AAFF804E337843B102F0C9FE20224B
:104E60007B49012000F08EFF002333707B4E3378A6
:104E700043B102F0BDFE24227949502000F082FFA8
:104E800000233370AB7963B100F054FF754B1B689E
:104E9000C01A754B984204D9714BDB68002B00F0A7
:104EA000838202F06BFC714BAA681B7898421CBF8E
:104EB000032323706E4B1B689A42DCBF08232370C8
:104EC0006C4B1B78002B00F0778204232EE0604DA2
:104ED0002B792BB15F4B1B78032B01D0FFF764FFBD
:104EE000FFF73CFA0646E8B90123237000F022FFE1
:104EF000614B18602B79002B00F05E8201F046F9BF
:104F0000002800F05982FFF7A5FB5C4B5C4A1B7838
:104F10005C498DF8006008A8FFF720F909A8FFF7A1
:104F2000D1FB49E26B7C002BCFD10523237043E2F8
:104F3000504D2B7863B1544908A802F00BFA08A829
:104F4000FFF7D2FE08A802F0BEF900232B70ECE7B1
:104F5000434D286803F0BEF900224C4B03F092FC4D
:104F60000028E2D0ED68002DDFD14949494E08A85C
:104F700002F0F0F908A8FFF7B7FE08A802F0A3F9BD
:104F80002A4629463046FFF74BF9B0680028CCD0B6
:104F90006FF00043009301952B462A46294600F006
:104FA00081FEC2E72A4B1B792BB12A4B1B78052BBC
:104FB00001D0FFF7F9FE01F0E9F868B102F0DEFB7D
:104FC0000C2805D101F0E2F810B1002001F0FEF844
:104FD000FFF78EFB0623A9E7FFF78AFA002840F0C7
:104FE000EB810123A2E71A4B1B792BB1194B1B78DC
:104FF000062B01D0FFF7D8FE274B1B782BB900F00A
:1050000099FE184B1860022390E700F093FE234BA3
:105010001B68C01A4AF6C873984240F2CD8100F06E
:1050200089FE154B186001F0B1F80028D9D0134B58
:105030001B491B7800228DF8002008A8194AFFF7A9
:105040008DF809A8FFF73EFBCBE700BFF2E1032094
:105050000CE30320E0E10320F1E10320F3E103206E
:10506000C0E203206CE20320905F010015E2032000
:10507000C4E1032014E20320B4E20320CCE10320C6
:1050800065990D00FB980D008A980D0000003E40C8
:1050900087980D0018E20320F6E00320C8E1032002
:1050A000D5980D0006960D00A24B1A791D462AB11F
:1050B000A14B1B78072B01D0FFF776FE01F066F8B5
:1050C000B0B12B7973B1FFF7C5FA9C4B9C491B78A3
:1050D00000228DF8002008A89A4AFFF73FF809A897
:1050E000FFF7F0FA4FF47A7001F01CF9FFF744FA79
:1050F0000021072002F039FD934D00210E2002F01F
:1051000034FD02F045FB2B7D804643B30121284648
:105110002972FFF76BF858B18389042B05D100235E
:1051200083731CE08388012BF5D080680028F9D1B7
:105130008649102002F020FE0646002800F0378144
:1051400010273A46002103F02AFD02237380012331
:105150003780B3802B69B3600423B3812E612B7D2C
:10516000DFF8E4913BB34EF66023C8F13C0804211C
:10517000484608FB03F8FFF739F8064610B1C0F8B7
:105180000C8018E07149102002F0F6FD0546002859
:1051900000F00F8110273A46314603F000FD02234C
:1051A0006B8004232F80AB80D9F81030AB60C5F83A
:1051B0000C80C9F81050644905A802F07FF9059BDE
:1051C0007BB19A88012A0CD19B89042B09D16049B3
:1051D00008A802F0BFF808A8FFF71CFD08A802F015
:1051E00072F80121072002F0C0FC01210E2002F01C
:1051F000BCFCFFF77DF9059802232370002800F01E
:10520000DB8001F053F8D7E04A4B1A791D462AB1EA
:10521000494B1B78082B01D0FFF7C6FD00F0B6FF05
:10522000B0B12B7973B1FFF715FA444B44491B78A1
:1052300000228DF8002008A8464AFEF78FFF09A833
:10524000FFF740FA4FF47A7001F06CF8FFF794F929
:105250000021072002F089FC02F09AFA3E4B1A68FE
:105260000423ADF814300CAB022503F81D5DC0F12A
:105270003C0002923C22504301220190009205A979
:1052800008A802F0C1F9257096E02A4B1A791C464D
:105290002AB1294B1B78012B01D0FFF785FD00F0C7
:1052A00049FD2E4B1B6803F5EA433033984240F228
:1052B0008380A369032B14DC00F068FF60B11F4BEF
:1052C0001F491B7800228DF8002008A8244AFEF709
:1052D00045FF09A8FFF7F6F94FF4FA6001F022F84C
:1052E00024E002F043FA134BDB69C01AB0F5E15F2A
:1052F0003AD900F04BFF60B1104B11491B780022E6
:105300008DF8002008A8174AFEF728FF09A8FFF724
:10531000D9F94FF4FA6001F005F80023A36102F017
:1053200067FC20220349012000F02CFD02F0C3F8A5
:1053300042E000BF0CE30320E0E10320CCE10320C6
:10534000FB980D00EE980D0034E20320209E0D0026
:1053500052970D0001990D004CE20320B4E20320A6
:1053600018990D002C990D0000F010FF60B1144B3E
:1053700014491B7800228DF8002008A8124AFEF775
:10538000EDFE09A8FFF79EF94FF4FA6000F0CAFF9E
:105390000023A36102F02CFC20220C49012000F024
:1053A000F1FCFFF763F907E00723237079E528751F
:1053B000D5E689F81400FEE60DB0BDE8F08300BF25
:1053C000CCE10320FB980D0046990D000CE303206F
:1053D0000023042200F0B2BE0023022200F0AEBE81
:1053E0000246014801F06CB995660D00F0B5A84B76
:1053F000BBB00AAA03F1100516461868596814468E
:1054000003C40833AB422246F7D119889B78218028
:10541000A3702D2200210DF13B009E4F03F0BFFB36
:1054200002233B709C4B1B6893F8305093F831304B
:1054300003F01F0343EA45152F2D05DD974A002190
:105440000A2000F0EFFD01E01F2D03DD05F01F0530
:10545000934B01E04FF0A043012404FA05F5C3F893
:1054600008552146072002F06FFB0021042002F0BE
:105470006BFB0021132002F067FB0021122002F0D9
:1054800063FB0021112002F05FFB21460E2002F099
:105490005BFB21460E2002F068FB2146032002F050
:1054A00053FB2146022002F04FFB2146032002F06D
:1054B0005CFB0021022002F058FB02A800F06EFE07
:1054C000002500237D221AA902A801F082FF2B46A5
:1054D0002A467449019500951AA800F06FFE72499A
:1054E0007248FFF775FF72497248FFF775FF7249FE
:1054F0007248FFF76DFF72497248FFF769FF724902
:105500007248FFF765FF72497248FFF761FF724901
:105510007248FFF75DFF72497248FFF759FF724901
:105520007248FFF755FF72497248FFF755FF7249FD
:105530007248FFF751FF72497248FFF74DFF7249F9
:105540007248FFF74DFF72496248FFF749FF714902
:105550007148FFF745FF71497148FFF741FF7149F5
:105560007148FFF73DFF71497148FFF739FF7149F5
:105570007148FFF735FF71497148FFF731FF7149F5
:105580007148FFF72DFF71497148FFF729FF02F0BD
:105590002FFB284600F0E6FB022815D16D4C02F0E7
:1055A00027FB20222146012000F0E4FB02F020FB33
:1055B00024224F49502000F0DDFB237BBBB1442166
:1055C000654800F06BFA12E002F012FB0422634916
:1055D000284600F0D7FB02F00BFB2046042206A968
:1055E0000134069500F0CEFBF02CF4D1D6E7237CF5
:1055F00033B15B4800F0C1F92021594800F0F9F9B6
:105600000022114606A8069200F07CFB069B142B94
:1056100002BFA3690133A361A369052B04DD4D4BD0
:1056200004229A61FFF722F8A3790BB14D4900E0FB
:105630004D49274803F0EEFA05236361637C63B1AB
:105640002B4BDB684BB1494906A801F083FE06A845
:10565000FFF74AFB06A801F036FEFEF7B9FF04206B
:1056600002F09CFA48B9424906A801F073FE06A868
:10567000FFF7D0FA06A801F026FEFEF76FFE3D4BBD
:10568000A2681B689A4277DC08233B7081E000BF68
:105690007C950D00F2E103205CE20320255D0D0006
:1056A00000030050AD470D0070E203207F990D000C
:1056B00024E3032086990D001A9B0D0091990D009B
:1056C000F4E2032099990D00E1E10320A4990D0073
:1056D000B8E20320B3990D00B4E10320C0990D0096
:1056E000E4E20320CC990D00FCE20320D5990D00E3
:1056F000C0E20320E0990D00C4E20320EE990D0002
:10570000C8E20320FC990D00F9400D00059A0D0038
:10571000154C0D0049480D00119A0D00994B0D00D4
:105720001C9A0D00E94C0D009D980D00CD480D0010
:10573000299A0D0071490D00389A0D00ED490D00B0
:105740004A9A0D00014B0D00599A0D00794A0D003F
:10575000699A0D000CE3032060E20320BC950D0064
:10576000D0E103207C9A0D00819A0D008A980D00EB
:1057700052970D00C4E10320FEF7BAFE48B9012399
:105780003B7000F0D7FA134B13491860304603F012
:1057900041FA00F0FBFC08B1237963B902F0ECF8A0
:1057A000314601F038FD0D4B012202A81A7001F0BC
:1057B0008AFD3BB0F0BD0A4B0A491B7800228DF8E8
:1057C000002006A83246FEF7C9FC07A8FEF77AFFBC
:1057D000E4E700BFB4E20320879A0D00F1E1032063
:1057E000CCE10320999A0D002DE9F041494B4A4D37
:1057F000DFF8708100241C60484B88B001271F70BF
:1058000000F0D8FA464B186002F064F923462246AD
:1058100042F6D51102F066F902F05CF92246234601
:10582000152102F067F94FF6FF736B812C60AC8095
:10583000AC712C81022000F017FC42463949284601
:1058400002F08AFA384D2146384600F025FC3946E8
:10585000042000F047FA2146284601F01DFA2846A8
:10586000324D33494246202602F076FA324621462E
:10587000284603F094F96E712E4D1026281D3246ED
:105880002146286003F08BF9022342462A49EB8027
:1058900028462F75AE8002F05FFA2848284D00F0A8
:1058A000DAF802F0EDF923210246264800F060F80C
:1058B000254B04936E4496E80300244B2B6002AA08
:1058C00005F10C0382E8030093E8030086E8030077
:1058D00092E8030083E803001D4B6B61AB690793FB
:1058E0001C4BAB612C71AC602B461B4A1B490194CD
:1058F000009705F10800069400F0BCF93046FEF769
:1059000042FC42461649284602F026FA08B0BDE895
:10591000F08100BF4CE2032050E20320CCE10320E1
:105920005CE2032077410D00D8E10320F4E103207D
:10593000B76C0D0034E20320E1400D0060E203206B
:1059400018E20320D0E10320B9400D002C950D0092
:10595000C9400D00C5400D0021410D00804F1200CF
:1059600041420D00B0E103200368C9B29B681847AB
:105970004260112241700270704710B504464068C1
:1059800001F022FA10B9606801F0DCF9012010BDC5
:1059900070B505464178406801F00BFA022269783B
:1059A000686801F003FA686803685B69984706460F
:1059B000686803685B699847044644EA0624686897
:1059C000A4B201F0FEF907EE904AB8EE670ADFEDE7
:1059D000027A80EE270A70BD9A99993F0378232BAB
:1059E00004D0132B0CBF1820B42000E0182000F0C6
:1059F00099BC38B504460D464178406801F0D9F9A4
:105A00006068036829469B689847606801F0D9F987
:105A100025702046BDE83840FFF7E0BF10B5037899
:105A2000A3F12002012A044601D9232B10D1617869
:105A3000606801F0BEF96068217803689B68984748
:105A4000606801F0BEF92046BDE81040FFF7C6BF10
:105A500010BD00F0AFB9704738B505460C4602F0EE
:105A60000FF9297801F0A5F902F00AF9210AFFF7E8
:105A70007BFF02F005F9E1B2FFF776FF02F000F9D3
:105A8000BDE8384001F09DB908B543F2A201FFF727
:105A9000E3FF0A20BDE8084000F044BC38B50446E6
:105AA0000D4602F0EDF801F04DF920462570FFF7A4
:105AB000EBFF012038BD0A44FF2091420ED011F8BF
:105AC000013B5840082310F0800F4FEA400018BFF8
:105AD00080F03100013BC0B2F5D1EEE77047000025
:105AE00073B54FF410510446FFF7B6FF4FF4FA7048
:105AF00000F018FC02F0C4F80622217801F056F9F3
:105B000002F0BEF803681B69984706284AD10025B1
:105B100002F0B6F803685B6998470DF80500013597
:105B2000062DF5D1022269462046FFF7C4FF9DF8F5
:105B30000250854236D102220DF103012046FFF7C3
:105B4000BAFF9DF8055085422CD1BDF800009DF8A4
:105B500003609DF8045040BA80B202F0ABFB18A37A
:105B6000D3E9002302F01CFC11A3D3E9002302F0C7
:105B700041FD0022104B02F05FFA02F0ABFEA06084
:105B800045EA062002F096FB00220C4B02F008FCCE
:105B900007A3D3E9002302F02DFD02F09BFE606015
:105BA000012000E0002002B070BD00BFAFF3008014
:105BB00000000000E0FFEF40008046400000594038
:105BC0000000000000E0654010B50446FFF788FFC4
:105BD00010B194ED020A10BD9FED010A10BD00BF87
:105BE0000000C07F10B50446FFF77AFF10B194EDB6
:105BF000010A10BD9FED010A10BD00BF0000C07F6B
:105C000000F0D8B808B5024B1B685B6C019308BD67
:105C10007402030008B5024B1B689B6C019308BD1E
:105C20007402030008B5024B1B689B68019308BD12
:105C30004802030008B5024B1B68DB68019308BDEE
:105C40004802030008B5024B1B681B69019308BD9D
:105C50004802030008B5024B1B685B69019308BD4D
:105C60004802030008B5024B1B68DB69019308BDBD
:105C70004802030008B5024B1B681B6A019308BD6C
:105C80004802030008B5024B1B685B6A019308BD1C
:105C90004802030008B5024B1B689B6A019308BDCC
:105CA0004802030008B5024B1B68DB6A019308BD7C
:105CB0004802030008B5024B1B685B6C019308BDEA
:105CC0004802030008B5024B1B689B6C019308BD9A
:105CD0004802030008B5024B1B681B6F019308BD07
:105CE0004802030008B5024B1B685B6E019308BDB8
:105CF0003402030008B5024B1B689B6E019308BD7C
:105D00003402030008B5024B1B68DB6E019308BD2B
:105D10003402030008B5024B1B685B68019308BDA1
:105D20001802030008B5024B1B68DB68019308BD2D
:105D30001802030008B5024B1B685B69019308BD9C
:105D40001802030008B5024B1B68DB69019308BD0C
:105D50001802030008B5024B1B689B6A019308BD3B
:105D60001802030008B5024B1B68DB6A019308BDEB
:105D70001802030008B5024B1B685B6C019308BD59
:105D80001802030008B5024B1B689B6C019308BD09
:105D90001802030008B5024B1B689B6D019308BDF8
:105DA0001802030008B5024B1B68DB6D019308BDA8
:105DB0001802030008B5024B1B681B68019308BD5D
:105DC0002C02030008B5024B1B685B68019308BDF9
:105DD0002C02030008B5024B1B689B68019308BDA9
:105DE0002C02030008B5024B1B68DB68019308BD59
:105DF0002C02030008B5024B1B681B69019308BD08
:105E00002C02030008B5024B1B685B69019308BDB7
:105E10002C02030008B5024B1B681B6B019308BDE5
:105E20002C02030008B5024B1B68DB68019308BD18
:105E30002802030008B5024B1B689B69019308BD4B
:105E40002802030008B5024B1B68DB69019308BDFB
:105E50002802030008B5024B1B681B6A019308BDAA
:105E60002802030008B5024B1B685B6A019308BD5A
:105E70002802030008B5024B1B689B6A019308BD0A
:105E80002802030008B5024B1B68DB6A019308BDBA
:105E90002802030008B5024B1B681B6B019308BD69
:105EA0002802030008B5024B1B685B6B019308BD19
:105EB0002802030008B5024B1B681B6C019308BD48
:105EC0002802030008B5024B1B689B6C019308BDB8
:105ED0002802030008B5024B1B68DB6C019308BD68
:105EE0002802030008B5024B1B681B6D019308BD17
:105EF0002802030008B5024B1B685B69019308BDCB
:105F00006402030008B5024B1B689B68019308BD3F
:105F10006802030008B5024B1B68DB68019308BDEB
:105F20006802030008B5024B1B68DB69019308BDDA
:105F30003002030008B5024B1B681B6A019308BDC1
:105F40003002030008B5024B1B681B68019308BDB3
:105F50003C02030008B5024B1B68DB68019308BDD7
:105F60003C02030008B5024B1B681B69019308BD86
:105F70003C02030008B5024B1B685B69019308BD36
:105F80003C02030008B5024B1B689B69019308BDE6
:105F90003C02030008B5024B1B68DB69019308BD96
:105FA0003C02030008B5024B1B681B6A019308BD45
:105FB0003C02030008B5024B1B689B6A019308BDB5
:105FC0003C02030008B5024B1B681B68019308BD27
:105FD0004C02030008B5024B1B681B69019308BD06
:105FE0004C02030008B5024B1B685B69019308BDB6
:105FF0004C02030008B5024B1B689B69019308BD66
:106000004C02030008B5024B1B68DB69019308BD15
:106010004C02030008B5024B1B681B6A019308BDC4
:106020004C02030008B5024B1B685B6B019308BD73
:106030006002030008B5024B1B681B6D019308BD8D
:106040006002030008B5034B1B68D3F89830019336
:1060500008BD00006002030008B5024B1B681B6806
:10606000019308BD2002030008B5024B1B685B6862
:10607000019308BD2002030008B5024B1B685B6951
:10608000019308BD2002030008B5024B1B689B6901
:10609000019308BD2002030008B5024B1B68DB6AB0
:1060A000019308BD2002030008B5024B1B68DB6C9E
:1060B000019308BD2002030008B5024B1B685B6D0D
:1060C000019308BD2002030008B5024B1B689B6DBD
:1060D000019308BD2002030008B5034B1B68D3F8E9
:1060E0008830019308BD00002002030008B5034B6F
:1060F0001B68D3F89430019308BD00002002030010
:1061000008B5034B1B68D3F8A030019308BD00000D
:106110002002030008B5034B1B68D3F8A830019395
:1061200008BD00002002030008B5034B1B68D3F82C
:10613000AC30019308BD00002002030008B5024BFB
:106140001B681B68019308BD4402030008B5024B9D
:106150001B685B68019308BD4402030008B5024B4D
:106160001B689B68019308BD4402030008B5024BFD
:106170001B68DB68019308BD4402030008B5024BAD
:106180001B681B69019308BD4402030008B5024B5C
:106190001B685B69019308BD4402030008B5024B0C
:1061A0001B68DB69019308BD4402030008B5024B7C
:1061B0001B681B6A019308BD4402030008B5024B2B
:1061C0001B685B6A019308BD4402030008B5024BDB
:1061D0001B68DB6A019308BD4402030008B5024B4B
:1061E0001B681B6B019308BD4402030008B5024BFA
:1061F0001B68DB6B019308BD4402030008B5024B2A
:106200001B685B68019308BD4002030008B5024BA0
:106210001B689B68019308BD4002030008B5024B50
:106220001B68DB68019308BD4002030008B5024B00
:106230001B681B69019308BD4002030008B5024BAF
:106240001B685B69019308BD4002030008B5024B5F
:106250001B689B69019308BD4002030008B5024B0F
:106260001B68DB69019308BD4002030008B5024BBF
:106270001B681B6A019308BD4002030008B5024B6E
:106280001B681B6B019308BD4002030008B5024B5D
:106290001B685B6B019308BD4002030008B5024B0D
:1062A0001B681B68019308BD1C02030008B5024B64
:1062B0001B685B68019308BD1C02030008B5024B14
:1062C0001B689B68019308BD1C02030008B5024BC4
:1062D0001B689B69019308BD1C02030008B5024BB3
:1062E0001B68DB69019308BD1C02030008B5024B63
:1062F0001B68DB6A019308BD1C02030008B5024B52
:106300001B681B6B019308BD1C0203008A4230B559
:1063100007D0039D441AED1A6C43521A94FBF2F411
:10632000E01830BD0021FFF7A7BE10B58368044612
:106330000BB901F032FDC3689847A3681BB1032273
:1063400021462046984720461021BDE8104001F024
:1063500008BD10B50446006808B1FFF7B3FC20463D
:1063600010BD0B68036013B15A6801325A60704760
:1063700010B5064C002320462360FFF79BFC204607
:10638000034A0449BDE8104001F0E6BC2CE30320B9
:10639000B0E1032053630D00002211464068FFF76F
:1063A00045BF002211464068FFF760BF002211463A
:1063B0004068FFF76BBF00224068FFF75FBF002215
:1063C00081F001014068FFF749BF00231A461946D2
:1063D0004068FFF73BBF00231A4619464068FFF7A5
:1063E0002DBF002211464068FFF710BF0022022196
:1063F0004068FFF713BF00231A464068FFF7FEBE50
:10640000F0B51B4B036000250F462833182689B0D2
:1064100043608560C560324629460446103002F06C
:10642000BEFB2A4629467868FFF700FF08B9A0603E
:106430001BE02946324602A80095019502F0AFFB09
:1064400002A96846ADF80860FFF7DCFB10B1012334
:10645000A3600AE0009B019AA360E2600BB90223EB
:10646000A36002A9204600F089F8204609B0F0BDDB
:106470005C9B0D0038B5084C28252A460021204693
:1064800002F08DFB4FF0FF336360044B2580042244
:106490005A60034A1A6038BD38E3032030E3032012
:1064A000289B0D007047007D70470000037D1BB1E5
:1064B0008369B3F1004F02D19FED050A704707EEE3
:1064C000903A9FED047AF8EEE77A87EE870A7047F4
:1064D000000000000000C842037D1BB1036AB3F155
:1064E000004F02D19FED050A704707EE903A9FEDED
:1064F000047AF8EEE77A87EE870A7047000000001A
:106500000000C84210B52821044601F02AFC2046AC
:1065100010BD0000037D7BB1436A002B0CDB07EE4E
:10652000903ADFED076A9FED070AB8EEE77AC7EE0B
:10653000267A27EE800A7047BFEE000A704700BF38
:1065400000FF7F470000C842037D7BB1C369002B79
:106550000CDB07EE903ADFED076A9FED070AB8EE15
:10656000E77AC7EE267A27EE800A7047BFEE000A68
:10657000704700BF00FF7F470000C84230B50D469E
:1065800000F110040FCD0FC495E8030084E8030068
:10659000012030BD2DE9F04107460C4615462AB9C9
:1065A0000368C9B29B68BDE8F0411847002907DAC3
:1065B0000A2A05D12D2100F01FFE6142064601E0A6
:1065C00021460026EAB2384600F02FFE3044BDE8EE
:1065D000F08170B50D4606460A2281682846FFF70D
:1065E000D9FF2C210446284600F006FE0A22044466
:1065F000F1682846FFF7CEFF204470BDA0F10400EB
:10660000FFF7E7BF70470020704710B51021044620
:1066100001F0A7FB204610BD08B508B1FFF7F5FF54
:1066200008BD0022026010B54FF69C728280B1F95D
:10663000044084808A8002680C6804600A6010BD8F
:1066400010B504460068FFF731FE204610BD38B58E
:10665000C468F4B12378022B03D104F10C00FFF7D6
:10666000EFFF656835B12846FDF78DFD10212846FE
:1066700001F077FBA56835B12846FDF784FD1021B0
:10668000284601F06EFB20461421BDE8384001F099
:1066900068BB38BD10B588B00446684600F05AFEA5
:1066A000694604A800F078FE04A8A047044604A8A0
:1066B00000F009FE684600F006FE204608B010BD56
:1066C000F0B5102485B007460E4615460021224637
:1066D000684602F064FA002269461046ADF80040B0
:1066E000029703960195FFF731FD05B0F0BD13B594
:1066F000044691E8050000234B600B602060626057
:1067000001A801930093FDF7DDFF204602B010BD04
:10671000F7B50C4602AD54F8043B45F8083D064673
:106720000F4601A82146FFF71CFE29463046FFF719
:10673000DEFF01A8FDF7C6FF2046FDF7C3FF384680
:10674000082101F00EFB304603B0F0BD13B50B4637
:10675000044603C88DE8030093E8030084E80300BF
:106760009DE8030083E8030002B010BD38B50023A4
:106770000446036010200D46FDF78FFC28B101236D
:1067800043608360024B0360C5602060204638BDD3
:10679000909B0D00826810B50AB901F0FEFAC3683B
:1067A000BDE81040184708B5006800F11001FFF778
:1067B000F1FF08BD826810B50AB901F0EEFAC368AE
:1067C000BDE81040184708B5006800F11001FFF758
:1067D000F1FF08BD38B5002383608B6804460D4681
:1067E0002BB102229847EB68E360AB68A3602046B8
:1067F00038BD0000F0B589B004686846FFF711FFA6
:1068000000238DF808304FF00202D4E84F3F002BF0
:1068100003D1C4E8412F0029F7D102D08DF8083008
:1068200063E014F10C0503D069462846FFF7F9FE32
:10683000BFF35F8F01236370002004F10803BFF3EF
:106840005F8F53E8006F43E80002002AF9D1BFF3DD
:106850005F8F002E49D0FFF727FC20B12946304634
:10686000FFF798FF3AE0314602A8FFF7B3FFE06870
:10687000B4F9105008B102F0D5F906901020ADF827
:106880001C50FDF70AFC0546E8B100278760182078
:10689000FDF703FC044688B10146876002A8FFF7B4
:1068A00055FF049BA268A360059B049206A9E268B9
:1068B000E36004F110000592FFF7B3FE0D4BEB60AF
:1068C0000D4B2C60AB6006A8FFF7BAFE02A8FDF7DF
:1068D0005AFC002229460948FFF7EEFB3046FDF737
:1068E00052FC1021304601F03CFA6846FFF7A8FE42
:1068F00009B0F0BDA7670D001D6A0D002B630D00E8
:106900002DE9F04F8BB006460F46904699469DF80C
:1069100050A0FFF73BFC07AD834630BB4FF62E730C
:10692000059005A92846ADF81830FFF77AFE142027
:10693000FDF7B3FB044658B10223037001234370F3
:10694000C0F804B0C0F808B029460C30FFF769FE63
:106950003046214640F8044BFFF708FF2846FFF772
:106960006FFE05A8FFF76CFE52E000240C231420F4
:106970006C60AC600793FDF790FB014618B10470A2
:1069800044704460846004A80391FFF7EFFE224B3B
:1069900008930820FDF781FB044628B1039B40F8CB
:1069A000043B04A9FFF7DDFC00955FFA8AF34A4631
:1069B000414638460994FFF7F9FB20B9039B5B7801
:1069C00003F0FF0283B1039B059304A906A8FFF718
:1069D000C8FC05A93046FFF78AFE06A8FDF772FE3F
:1069E00004A8FDF76FFE13E04FF69C7305A903A8FA
:1069F0000592ADF81830FFF7FDFE05A8FFF720FE61
:106A000005A80999FFF784FE06A8FDF75BFEDAE703
:106A100030460BB0BDE8F08F8D6B0D00022AF8B543
:106A2000044606D0032A17D0012A22D10B6803603E
:106A30001FE018200E68FDF730FB054650B13146C7
:106A4000FFF7C8FE3069B6F9147008B102F0EAF831
:106A50002861AF8225600CE0046854B104F1100095
:106A6000FFF7EEFD2046FDF78EFB1821204601F0D2
:106A700078F90020F8BD38B5002383608B680446A0
:106A80000D462BB102229847EB68E360AB68A36028
:106A9000204638BD022A70B5044606D0032A11D01C
:106AA000012A18D10B68036015E014200E68FDF769
:106AB000F4FA054620B13146FFF7DDFF337C2B7435
:106AC000256008E0046834B12046FDF75CFB142122
:106AD000204601F046F9002070BD0000F0B500230B
:106AE00087B00C46BFF35F8F50E8006F40E800327C
:106AF000002AF9D1BFF35F8F002E3FD01846FFF771
:106B0000D3FA074620B121463046FFF753FE2EE068
:106B1000314601A8FFF7AFFF23788DF8143010201D
:106B2000FDF7BBFA0546D0B187601420FDF7B5FA32
:106B3000044678B18760014601A8FFF707FE039B72
:106B4000A268A360049B0392E268E3609DF814309E
:106B5000049223740A4BEB600A4B2C60AB6001A8D3
:106B6000FDF711FB002229460748FFF7A5FA30463A
:106B7000FDF709FB1021304601F0F3F807B0F0BD36
:106B8000C7670D00956A0D002B630D0030B585B009
:106B900004460D4668461146FFF7BAFD7CB124B2A3
:106BA00028460DB102F03EF8029002A96846ADF801
:106BB0000C40FFF71FFE02A8FFF742FD1DE0009802
:106BC0008DF808404FF00102D0E84F3FA34203D1B7
:106BD000C0E8412F0029F7D102D08DF808300CE031
:106BE00010F10C014FF0010318BF0373BFF35F8F67
:106BF000043000F8033CFFF771FF01A8FDF762FDC8
:106C000005B030BD002211464068FFF72FBB0022BF
:106C100011464068FFF73ABB00224068FFF72EBBE1
:106C2000002281F001014068FFF718BB00231A46DB
:106C300019464068FFF70ABB00231A461946406808
:106C4000FFF7FCBA002211464068FFF7EFBA0022B6
:106C500011464068FFF7DABA002202214068FFF7C8
:106C6000DDBA00231A464068FFF7C8BA024B032278
:106C70005A60024A1A60704760E30320AC9B0D0023
:106C8000006800F0A5B810B50446016002710AB1B1
:106C9000FFF7F6FF204610BD38B504460D4601F05B
:106CA00015F82A4601462046FFF7EDFF204638BD7D
:106CB000006800F096B810B5037904460BB1FFF7F1
:106CC000F7FF204610BD7047F8B5064615460C463E
:106CD0008F18BC4206D0336814F8011B9B683046FD
:106CE0009847F6E72846F8BD0022007CFFF7B2B8C7
:106CF0000021007CFFF7B6B80021007CFFF7BAB88E
:106D00000021007CFFF7BEB80021007CFFF7C2B86D
:106D100010B51421044601F024F8204610BD0000EF
:106D200010B50446002363604FF47A73A360044BEC
:106D30002174084623601146FFF7BCF8204610BDB9
:106D4000E09B0D0000231A461946007CFFF76AB845
:106D500070B50C4686B0142506462A46002101A8C7
:106D600001F01DFF23788DF8083063680393E36812
:106D700004930022237A307CADF8045001A90593D6
:106D8000FFF7B0F806B070BD1FB500338DF80010E6
:106D90004FF06401039118BF0123694601928DF8F9
:106DA0000830FFF7D5FF05B05DF804FB0123FFF7BE
:106DB000EBBF0022007CFFF73DB80022007CFFF70C
:106DC00041B80121FFF7F9BF0021007CFFF76AB845
:106DD00008B50021007CFFF775F8B0FA80F0400993
:106DE00008BD08B50021007CFFF774F8B0FA80F008
:106DF000400908BD704710B51821044600F0B1FFE6
:106E0000204610BDF0B5037D062B8DB00E4600F177
:106E100004074FF0000402D000F1080518E00CADA3
:106E2000394605F8304D2F232A460A20FFF762F82D
:106E3000284601F012FF33680246DB6829463046D7
:106E400098470FE024B12E21304600F0D5F90444D4
:106E500015F8011D0A22304600F0E7F9BD4204444E
:106E6000F0D120460DB0F0BD10B5054B04461122FF
:106E700040F8043B002101F092FE204610BD00BF07
:106E8000089C0D000346074A10B543F8042B01F196
:106E9000100251F8044B43F8044B9142F9D10A789F
:106EA0001A7010BD089C0D0010B59DF8084044EA0A
:106EB000032343EA024242EA01610423416003756D
:106EC00010BD37B50D788B784A78C978009129467E
:106ED000FFF7EAFF03B030BD014B024A1A6070476A
:106EE00068E30320879C0D00002211464068FFF7ED
:106EF000BDB9002211464068FFF7C8B900224068BA
:106F0000FFF7BCB9002281F001014068FFF7A6B984
:106F100000231A4601214068FFF798B900231A465A
:106F200019464068FFF78AB9002211464068FFF70A
:106F30007DB9002211464068FFF768B9002202219E
:106F40004068FFF76BB900231A464068FFF756B94F
:106F500038B5054688B104684CB1A3681BB103225B
:106F60002146204698471021204600F0FAFE284688
:106F70001421BDE8384000F0F4BE38BD10B10368FC
:106F80005B681847704710B503680446BBB1586882
:106F9000FEF748FE78B923685A7C12B95868FEF7A4
:106FA00051FE23685868FEF755FE206800232360D1
:106FB00028B1FFF7CDFF206808B1FFF7C9FF2046D1
:106FC00010BD38B50446D0F8C40108B1FDF769F822
:106FD000D4F8C00108B1FEF775FED4F8BC5135B144
:106FE0002846FFF7D0FF0421284600F0BAFE2068AB
:106FF00008B1FFF7C3FF204638BD000010B5044BB1
:10700000044640F8083BFFF7DCFF204610BD00BFF8
:10701000F89C0D0038B50E4C0E4B23600025022362
:1070200004F5E4706360A560C4F8C451C4F8C851A5
:10703000FEF740FE084BC4F8CC5184F8D0512360D1
:107040002046064A0649BDE8384000F085BE00BF2C
:107050006CE303202C9D0D00F89C0D00B0E1032093
:10706000FD6F0D0000231A464068FFF7C7B80022E5
:1070700002214068FFF7D2B8002211464068FFF7AE
:10708000C5B8002211464068FFF7D0B800231A4661
:1070900019464068FFF7D2B800231A4619464068DF
:1070A000FFF7D4B8002281F001014068FFF7D6B89D
:1070B00000224068FFF7E2B8002211464068FFF75F
:1070C000E5B8002211464068FFF7D0B82DE9F0433B
:1070D000002495B016460D460746FFF7C5FE21462B
:1070E00020220CA8009401F05AFD40230C93214665
:1070F0006B460CAA3046FEF70DFF0446002844D12B
:10710000024601216868FFF791F802218046224675
:107110006868FFF78BF8009E81462146002E34D028
:10712000002932D17368022B02D00A2B09D02AE041
:10713000B8F1000F27D0716938460431FFF7C1FE5E
:1071400020E0B9F1000F1ED07469112201A801F0EE
:1071500026FD06238DF8143001AD04F10803183420
:10716000186859682A4603C20833A3421546F7D166
:1071700001A906A807ADFFF785FE0FCD3C1D0FC482
:107180002B6823700121F669C8E70098FEF7BAFE64
:10719000384615B0BDE8F083024B034A1A6000225E
:1071A0005A60704740E503202C9D0D00F8B5064657
:1071B0000D468F180024BD420CD0336815F8011B12
:1071C0009B6830469847002801DB0444F3E7002C15
:1071D00008BF04462046F8BD70B505460C46084673
:1071E00049B101F03AFD2B68024621462846DB688A
:1071F000BDE87040184770BD03689B68184738B5F4
:107200000D210546FFF7F8FF0A2104462846FFF73F
:10721000F3FF204438BD38B50546FFF7DDFF0446CF
:107220002846FFF7ECFF204438BD30B58BB00B4645
:1072300000218DF82410012A98BF0A220DF12304A1
:10724000B3FBF2F505FB123303F0FF03092B94BFE8
:1072500030333733DBB2214604F801392B46002D99
:10726000EED1FFF7B9FF0BB030BD10B50446FCF707
:107270008AFF204610BD00000348044A0449002349
:10728000836000F069BD00BF48E50320B0E1032042
:107290006B720D00704710B50C21044600F061FDC3
:1072A000204610BD10B5054B036004460171084629
:1072B000FEF738FE0023A360204610BD609D0D0040
:1072C0000079FEF737BE10B504460068FEF7EEFF02
:1072D000204610BD10B50446006808B1FEF7E6FF71
:1072E00000232360A360636010BD38B504460D46DB
:1072F00000680131FEF7E2FF10B184E821000120AF
:1073000038BD10B50368044613B143688B4207D2F9
:107310002046FFF7EAFF20B1A3680BB9226813707B
:10732000012010BD70B50E46114604461546FFF704
:10733000E8FF18B92046FFF7CDFF09E02A4631469D
:10734000A560206801F020FC2268A3680021D154C8
:10735000204670BD38B50023044603604360836057
:1073600003730D4639B1084601F077FC2946024601
:107370002046FFF7D7FF204638BD884210B50B46A0
:10738000044607D0096819B19A68FFF7CBFF01E0FE
:10739000FFF7A0FF204610BD10B500230446036090
:1073A000436083600373FFF7E8FF204610BD08B514
:1073B00082680B4612B919B9012008BD11B90368DA
:1073C000187802E0006801F01BFCB0FA80F0400978
:1073D00008BD70B50E469AB191B185689D4202D83C
:1073E00000230B7070BD541EED1A0168AC4228BF1B
:1073F0002C4619442246304601F04CFC00233355FC
:1074000070BD10B50446006818B1FEF74FFF0023A9
:10741000236010BD38B5B1F9043083800B460D46AA
:1074200053F8062FC0F806209B8843810446FFF7D7
:10743000E8FF2B6813B1236000232B60204638BD82
:10744000B1F9043010B50BB90A689AB10C685CB197
:10745000A288012A03D0042A06D1022205E0A489C9
:107460004C818A710B8105E004220B814FF6FF737A
:107470008A714B8151F8063F03608B88838010BD71
:1074800038B50C460546FFF7BCFF44B12088FEF72F
:1074900005FF286028B12288214601F075FB0020F5
:1074A00038BD014838BD00BFFCFEFFFF0146002289
:1074B0008C20FEF71FBC0020FFF7F8BFF0B5304D61
:1074C0000B7D04468BB00846AF1D13B30B681B79C8
:1074D000FBB100224FF6FF7302A904300292ADF80F
:1074E0000C208DF80E20ADF81020ADF81230FEF70C
:1074F0001BFE0AAB00B253F81A2DADF80C009B88A6
:10750000A880C5F806200299BB802846FFF7B8FF7F
:107510001CE02023002602931A4B00931A4903967D
:107520003346322002AAFEF785FD4FF6FF73ADF811
:10753000123002A94FF6F263114802968DF80E60E0
:10754000ADF81060ADF80C30FFF764FF02A8FFF74C
:1075500058FF00232360A380A37123814FF6FF739C
:107560006381B5F90430A3803B68C4F80630BB885A
:10757000638129682046FFF783FF20460BB0F0BDEA
:1075800058E503206F9D0D00689D0D0030B5044641
:1075900085B0084611461A460023FEF775FD0D4DCD
:1075A000ADF80C00002301A90193ADF808308DF867
:1075B0000A3028464FF6FF73ADF80E30FFF72AFF6A
:1075C00001A8FFF71EFF20462946FFF739FF204696
:1075D00005B030BD58E5032010B500240470448088
:1075E00000294FF6FF74848007DD0139994209D2E2
:1075F00032F811308380012301E002D102230370AD
:1076000010BD418010BD0000F0B58BB017461A4682
:10761000129B01930E460024119B02940546009391
:107620003946109B3046FEF76BFD3B46324601461D
:1076300005A8FFF7D1FF0794ADF820400D4C9DF849
:107640001410BDF91620BDF818308DF82210204610
:1076500007A9ADF82420ADF82630FFF7DBFE07A818
:10766000FFF7CFFE28462146FFF7EAFE28460BB07B
:10767000F0BD00BF58E5032010B5094C00204FF6BF
:10768000FF732060A080A07120816381FEF7ECFC75
:107690002046044A0449BDE8104000F05DBB00BF2D
:1076A00058E50320B0E1032077410D00F0B5144BFD
:1076B000144F1E68144B064418683B6806449E42EB
:1076C0008BB01BD00AA801AD40F8286D01F064F919
:1076D000436903F26C73436104460FCC0FC50FCCB2
:1076E0000FC5D4F800E0C5F800E001AD0FCD074CA0
:1076F0000FC40FCD0FC43E60C4F800E00BB0F0BD66
:1077000094E5032090E503208CE5032064E5032045
:1077100008B50020FEF762FD28B1FEF737FD80F0C6
:107720000100C0B208BD012008BD10B50020FEF761
:1077300031FB044668B9FEF78FFC01280BD12046C7
:10774000FEF7C2FC38B9FFF7E3FF30B9FEF706FDDC
:10775000F9E7012010BD002010BDFFF7D9FF002080
:10776000FEF718FB003018BF012010BD08B5FFF769
:10777000DCFFBDE80840FEF7E5BA000008B5FFF7FA
:10778000F5FFFFF793FF014B986808BD64E5032000
:1077900008B5FFF7EBFFFFF789FF014B586808BDFD
:1077A00064E50320024B1A68024B1A60704700BF61
:1077B000F8E0032088E5032070474174704708B55E
:1077C000007CFEF7F7FB20EAE07008BD08B5007CFE
:1077D000FEF7C8FB20EAE07008BD08B5007CFEF7A4
:1077E000D1FB30EA200028BF4FF0FF3008BD08B5BC
:1077F000007CFEF7BFFB30EA200028BF4FF0FF30CF
:1078000008BD007CFEF7C6BB10B51421044600F08D
:10781000A8FA204610BD70B5457C04460E4625B931
:10782000007CFEF7C7FB002805DD3146207CBDE863
:107830007040FEF78FBB284670BD000010B50446AF
:1078400008461146002262604FF47A72A260054A2F
:1078500022600122207462741A46FEF773FB2046F0
:1078600010BD00BFC89D0D00007CFEF79BBB000053
:1078700038B50C4D296811F0010411D12846FCF7E8
:1078800012FC68B1084A094B09482146FFF7D6FFA8
:107890002846FCF70DFC074A0749054800F05CFA4A
:1078A000034838BD30E6032034E60320ACE503206E
:1078B00098E50320B0E10320B9770D0041747047CB
:1078C000704708B50021007CFEF794FB30EA2000E9
:1078D00028BF4FF0FF3008BD08B50121007CFEF73E
:1078E00089FB30EA200028BF4FF0FF3008BD08B503
:1078F000007CFEF777FB20EAE07008BD08B5007C4D
:10790000FEF768FB20EAE07008BD007CFEF782BB52
:1079100010B51421044600F024FA204610BD38B5F5
:107920000446007C0D46FEF75DFB002801DC607C10
:1079300028B12946207CFEF765FB20EAE07038BDBF
:1079400010B50446002363604FF47A73A360054BBF
:10795000236001230846217463741146FEF732FB4D
:10796000204610BDF89D0D0010B5142204460021DC
:1079700001F015F9204610BD30B50E4D87B001A8B5
:10798000FFF7F2FF296811F0010410D12846FCF737
:107990008AFB60B101AA21460748FFF7D1FF2846BC
:1079A000FCF786FB054A0649034800F0D5F9024872
:1079B00007B030BDB8E60320BCE60320B0E10320E9
:1079C000C1780D0008B50C4B33B1FFF7D5FF036844
:1079D0001B699847002809DC084B63B1FFF748FF93
:1079E00003681B699847002803DC08BDAFF30080DB
:1079F000F2E7AFF3008008BD0000000000000000C7
:107A000008B5FFF7DFFFFEF795F9014B186008BDD9
:107A1000D8E603200248034A0349121A01F0B4B819
:107A200000F4032004F4032060A00D0007B5002338
:107A300000931A466FF07701FEF758FB03B05DF82C
:107A400004FB000007B543880A2B08D0502B09D14E
:107A5000094B1B683BB103B05DF804EB1847FFF717
:107A6000E5FF06E0002300931A466FF07701FEF76A
:107A70003DFB03B05DF804FBD0E6032038B5104CA5
:107A8000104D2368AB42104B0CBF012200221A702C
:107A900002D0FFF7BFFF2560FEF73CF9044601F076
:107AA00087F80A4B13B12046AFF300800021074846
:107AB000FEF79CFB00210648BDE83840FEF70CBBF2
:107AC00000F403201E1C279AD4E6032000000000C7
:107AD000457A0D0008B5024B1B681B68019308BD71
:107AE0005C02030008B5024B1B685B68019308BD8C
:107AF0005C02030008B5024B1B689B68019308BD3C
:107B00005C02030010B5044600F006F9FFF7D8FB4D
:107B100028B1A4F10B03022B01D8002010BD00F006
:107B2000AFF8FFF751F908B1012CF6D9FFF7A0FE25
:107B3000FFF79AFE18B1A4F10903012BEDD9232C0C
:107B40008CBF0020012010BD232838B504460D4607
:107B50000AD8FF2908D0FFF7D5FF28B129462046CB
:107B6000BDE83840FEF736B938BD38B504460D4695
:107B7000FEF738F9FF2810D0062804D84D2323FA41
:107B800000F0C30709D42046FFF7BCFF28B12946FF
:107B90002046BDE83840FEF72DB938BD10B5044683
:107BA000FEF720F90438C0B2012808D92046FFF7B3
:107BB000A9FF20B12046BDE81040FEF723B9002000
:107BC00010BD0D2810B504469CBF0E34A4B220464B
:107BD000FFF798FF50B103212046FEF7F3F8032882
:107BE00004D12046BDE81040FEF714B9002010BDB6
:107BF00010B5074C2368DB0708D42046FCF753FA7E
:107C000020B1FEF7A7F82046FCF752FA014810BD54
:107C1000DCE60320E0E6032070B5044614252A467E
:107C2000094E002100F0BBFF258020253146A560CC
:107C30002561284600F0AFF831466060284600F024
:107C4000AAF8E060204670BD209E0D0070B5044685
:107C500014252A46094E002100F0A1FF2580202589
:107C60003146A5602561284600F095F831466060F0
:107C7000284600F090F8E060204670BD209E0D0080
:107C800030B50E4D296811F0010487B013D1284694
:107C9000FCF709FA78B101A8FFF7BEFF01AA214657
:107CA0000748FFF73DF82846FCF702FA054A06495F
:107CB000034800F051F8024807B030BDE4E6032065
:107CC000FCE60320B0E10320C76C0D0010B50E4C9C
:107CD0002368DB0786B013D42046FCF7E4F978B1BB
:107CE00001A8FFF7B3FF01AA01210848FFF718F820
:107CF0002046FCF7DDF9064A0649044800F02CF856
:107D0000024806B010BD00BF10E70320E8E60320DC
:107D1000B0E10320C76C0D0038B50B4D296811F098
:107D200001040FD12846FCF7BEF958B12146074897
:107D3000FFF7B8FA2846FCF7BBF9054A054903489E
:107D400000F00AF8014838BD20E7032014E70320BB
:107D5000B0E1032095720D000B460146184600F075
:107D60000DBEFCF79CB90000024B1868BFF35F8F93
:107D7000704700BF24E7032010B5002814BF044655
:107D800001242046FEF78AFA20B9FFF7EDFF08B17B
:107D90008047F6E710BDFFF7EFBF08B5FEF7A6FA7C
:107DA000244B1A68D0075CBF01221A60224B1A6864
:107DB000D1075CBF01221A60204B1A68D2075CBF52
:107DC00001221A601E4B1A68D0075CBF01221A609C
:107DD0001C4B1A68D1075CBF01221A601A4B1A6843
:107DE000D2075CBF01221A60184B1A68D0075CBF2B
:107DF00001221A60164B1A68D1075CBF01221A6073
:107E0000144B1A68D2075CBF01221A60124B1A6821
:107E1000D0075CBF01221A60104B1A68D1075CBF03
:107E200001221A600E4B1A68D2075CBF01221A6049
:107E3000704700BF54E7032050E703204CE70320BE
:107E400048E7032044E7032040E703203CE7032002
:107E500038E7032034E7032030E703202CE7032032
:107E600028E70320184B1A68D1075CBF01221A606B
:107E7000164B1A68D2075CBF01221A60144B1A68AD
:107E8000D0075CBF01221A60124B1A68D1075CBF91
:107E900001221A60104B1A68D2075CBF01221A60D7
:107EA0000E4B1A68D0075CBF01221A600C4B1A688F
:107EB000D1075CBF01221A600A4B1A68D2075CBF67
:107EC00001221A60704700BF74E7032070E70320A7
:107ED0006CE7032068E7032064E7032060E70320E2
:107EE0005CE7032058E70320184B1A68D1075CBFF2
:107EF00001221A60164B1A68D2075CBF01221A6071
:107F0000144B1A68D0075CBF01221A60124B1A6822
:107F1000D1075CBF01221A60104B1A68D2075CBF00
:107F200001221A600E4B1A68D0075CBF01221A604A
:107F30000C4B1A68D1075CBF01221A600A4B1A6801
:107F4000D2075CBF01221A60704700BF94E703208C
:107F500090E703208CE7032088E7032084E70320D1
:107F600080E703207CE7032078E70320244B1A688E
:107F7000D0075CBF01221A60224B1A68D1075CBF90
:107F800001221A60204B1A68D2075CBF01221A60D6
:107F90001E4B1A68D0075CBF01221A601C4B1A687E
:107FA000D1075CBF01221A601A4B1A68D2075CBF66
:107FB00001221A60184B1A68D0075CBF01221A60B0
:107FC000164B1A68D1075CBF01221A60144B1A685D
:107FD000D2075CBF01221A60124B1A68D0075CBF3F
:107FE00001221A60104B1A68D1075CBF01221A6087
:107FF0000E4B1A68D2075CBF01221A60704700BF9F
:10800000C4E70320C0E70320BCE70320B8E7032050
:10801000B4E70320B0E70320ACE70320A8E7032080
:10802000A4E70320A0E703209CE7032098E70320B0
:1080300081F0004102E000BF83F0004330B54FEA19
:1080400041044FEA430594EA050F08BF90EA020F86
:108050001FBF54EA000C55EA020C7FEA645C7FEA19
:10806000655C00F0E2804FEA5454D4EB5555B8BF3C
:108070006D420CDD2C4480EA020281EA030382EAAD
:10808000000083EA010180EA020281EA0303362D3F
:1080900088BF30BD11F0004F4FEA01314FF4801C12
:1080A0004CEA113102D0404261EB410113F0004F24
:1080B0004FEA03334CEA133302D0524263EB4303DB
:1080C00094EA050F00F0A780A4F10104D5F1200E79
:1080D0000DDB02FA0EFC22FA05F2801841F10001D4
:1080E00003FA0EF2801843FA05F359410EE0A5F1A8
:1080F00020050EF1200E012A03FA0EFC28BF4CF0D9
:10810000020C43FA05F3C01851EBE37101F000458E
:1081100007D54FF0000EDCF1000C7EEB00006EEB9B
:108120000101B1F5801F1BD3B1F5001F0CD3490825
:108130005FEA30004FEA3C0C04F101044FEA44527C
:1081400012F5800F80F09A80BCF1004F08BF5FEA03
:10815000500C50F1000041EB045141EA050130BDE3
:108160005FEA4C0C404141EB010111F4801FA4F186
:108170000104E9D191F0000F04BF01460020B1FADB
:1081800081F308BF2033A3F10B03B3F120020CDA13
:108190000C3208DD02F1140CC2F10C0201FA0CF0F1
:1081A00021FA02F10CE002F11402D8BFC2F1200C56
:1081B00001FA02F120FA0CFCDCBF41EA0C0190400C
:1081C000E41AA2BF01EB0451294330BD6FEA040455
:1081D0001F3C1CDA0C340EDC04F11404C4F1200240
:1081E00020FA04F001FA02F340EA030021FA04F352
:1081F00045EA030130BDC4F10C04C4F1200220FAA9
:1082000002F001FA04F340EA0300294630BD21FAE6
:1082100004F0294630BD94F0000F83F4801306BFAC
:1082200081F480110134013D4EE77FEA645C18BFA0
:108230007FEA655C29D094EA050F08BF90EA020F37
:1082400005D054EA000C04BF1946104630BD91EA2F
:10825000030F1EBF0021002030BD5FEA545C05D132
:108260004000494128BF41F0004130BD14F5800471
:108270003CBF01F5801130BD01F0004545F0FE41E5
:1082800041F470014FF0000030BD7FEA645C1ABF1A
:10829000194610467FEA655C1CBF0B46024650EA51
:1082A000013406BF52EA033591EA030F41F400217D
:1082B00030BD00BF90F0000F04BF0021704730B503
:1082C0004FF4806404F132044FF000054FF00001D8
:1082D00050E700BF90F0000F04BF0021704730B599
:1082E0004FF4806404F1320410F0004548BF40426E
:1082F0004FF000013EE700BF42004FEAE2014FEAC3
:1083000031014FEA02701FBF12F07F4393F07F4F9D
:1083100081F06051704792F0000F14BF93F07F4FCF
:10832000704730B54FF4607401F0004521F0004112
:1083300020E700BF50EA010208BF704730B54FF098
:1083400000050AE050EA010208BF704730B511F09D
:10835000004502D5404261EB41014FF4806404F1D5
:1083600032045FEA915C3FF4DCAE4FF003025FEA57
:10837000DC0C18BF03325FEADC0C18BF033202EBDF
:10838000DC02C2F1200300FA03FC20FA02F001FA39
:1083900003FE40EA0E0021FA02F11444C1E600BFD8
:1083A00070B54FF0FF0C4CF4E06C1CEA11541DBF8B
:1083B0001CEA135594EA0C0F95EA0C0F00F0DEF856
:1083C0002C4481EA030621EA4C5123EA4C5350EA3B
:1083D000013518BF52EA033541F4801143F480138C
:1083E00038D0A0FB02CE4FF00005E1FB02E506F01D
:1083F0000042E0FB03E54FF00006E1FB03569CF072
:10840000000F18BF4EF0010EA4F1FF04B6F5007F77
:1084100064F5407404D25FEA4E0E6D4146EB0606E9
:1084200042EAC62141EA55514FEAC52040EA5E5072
:108430004FEACE2EB4F1FD0C88BFBCF5E06F1ED81C
:10844000BEF1004F08BF5FEA500E50F1000041EB53
:10845000045170BD06F0004646EA010140EA020000
:1084600081EA0301B4EB5C04C2BFD4EB0C0541EA22
:10847000045170BD41F480114FF0000E013C00F337
:10848000AB8014F1360FDEBF002001F0004170BD5B
:10849000C4F10004203C35DA0C341BDC04F1140474
:1084A000C4F1200500FA05F320FA04F001FA05F200
:1084B00040EA020001F0004221F0004110EBD370CD
:1084C00021FA04F642EB06015EEA430E08BF20EAF9
:1084D000D37070BDC4F10C04C4F1200500FA04F39C
:1084E00020FA05F001FA04F240EA020001F000412E
:1084F00010EBD37041F100015EEA430E08BF20EAA1
:10850000D37070BDC4F1200500FA05F24EEA020EE8
:1085100020FA04F301FA05F243EA020321FA04F017
:1085200001F0004121FA04F220EA020000EBD370CE
:108530005EEA430E08BF20EAD37070BD94F0000FCE
:108540000FD101F00046400041EB010111F4801F02
:1085500008BF013CF7D041EA060195F0000F18BFB3
:10856000704703F00046520043EB030313F4801FEF
:1085700008BF013DF7D043EA0603704794EA0C0FA9
:108580000CEA135518BF95EA0C0F0CD050EA4106BF
:1085900018BF52EA4306D1D181EA030101F000413C
:1085A0004FF0000070BD50EA410606BF1046194664
:1085B00052EA430619D094EA0C0F02D150EA013670
:1085C00013D195EA0C0F05D152EA03361CBF1046B1
:1085D00019460AD181EA030101F0004141F0FE4150
:1085E00041F470014FF0000070BD41F0FE4141F4D4
:1085F000780170BD70B54FF0FF0C4CF4E06C1CEAD4
:1086000011541DBF1CEA135594EA0C0F95EA0C0F88
:1086100000F0A7F8A4EB050481EA030E52EA033543
:108620004FEA013100F088804FEA03334FF0805564
:1086300045EA131343EA12634FEA022245EA111591
:1086400045EA10654FEA00260EF000419D4208BF42
:10865000964244F1FD0404F5407402D25B084FEAEF
:108660003202B61A65EB03055B084FEA32024FF49B
:1086700080104FF4002CB6EB020E75EB030E22BFF8
:10868000B61A754640EA0C005B084FEA3202B6EBB8
:10869000020E75EB030E22BFB61A754640EA5C0067
:1086A0005B084FEA3202B6EB020E75EB030E22BFF7
:1086B000B61A754640EA9C005B084FEA3202B6EBF8
:1086C000020E75EB030E22BFB61A754640EADC00B7
:1086D00055EA060E18D04FEA051545EA16754FEA19
:1086E00006164FEAC30343EA52734FEAC2025FEA37
:1086F0001C1CC0D111F4801F0BD141EA00014FF0C6
:1087000000004FF0004CB6E711F4801F04BF014396
:108710000020B4F1FD0C88BFBCF5E06F3FF6AFAEB2
:10872000B5EB030C04BFB6EB020C5FEA500C50F142
:10873000000041EB045170BD0EF0004E4EEA1131C5
:1087400014EB5C04C2BFD4EB0C0541EA045170BDCC
:1087500041F480114FF0000E013C90E645EA060E10
:108760008DE60CEA135594EA0C0F08BF95EA0C0F3E
:108770003FF43BAF94EA0C0F0AD150EA01347FF486
:1087800034AF95EA0C0F7FF425AF104619462CE75D
:1087900095EA0C0F06D152EA03353FF4FDAE1046C0
:1087A000194622E750EA410618BF52EA43067FF411
:1087B000C5AE50EA41047FF40DAF52EA43057FF4A1
:1087C000EBAE12E74FF0FF3C06E000BF4FF0010CAC
:1087D00002E000BF4FF0010C4DF804CD4FEA410C10
:1087E0007FEA6C5C4FEA430C18BF7FEA6C5C1BD0DD
:1087F00001B050EA410C0CBF52EA430C91EA030F5E
:1088000002BF90EA020F0020704710F1000F91EABA
:10881000030F58BF994208BF90422CBFD8176FEA88
:10882000E37040F0010070474FEA410C7FEA6C5C56
:1088300002D150EA013C07D14FEA430C7FEA6C5C5D
:10884000D6D152EA033CD3D05DF8040B704700BF89
:108850008446104662468C461946634600E000BFD7
:1088600001B5FFF7B7FF002848BF10F1000F01BDA9
:108870004DF808EDFFF7F4FF0CBF012000205DF874
:1088800008FB00BF4DF808EDFFF7EAFF34BF0120F9
:1088900000205DF808FB00BF4DF808EDFFF7E0FF92
:1088A00094BF012000205DF808FB00BF4DF808EDE3
:1088B000FFF7CEFF94BF012000205DF808FB00BF4A
:1088C0004DF808EDFFF7C4FF34BF012000205DF82C
:1088D00008FB00BF4FEA4102B2F1E04324BFB3F509
:1088E000001CDCF1FE5C0DD901F0004C4FEAC00227
:1088F0004CEA5070B2F1004F40EB830008BF20F00B
:108900000100704711F0804F21D113F13872BCBFC4
:1089100001F00040704741F480114FEA5252C2F119
:108920001802C2F1200C10FA0CF320FA02F018BF62
:1089300040F001004FEAC1234FEAD32303FA0CFCB5
:1089400040EA0C0023FA02F34FEA4303CCE77FEA44
:10895000625307D150EA01331EBF4FF0FE4040F48E
:108960004000704701F0004040F0FE4040F400003D
:10897000704700BF0A22002100F026BA10B5054C4E
:1089800013462CB10A4601460220AFF3008010BD09
:10899000204610BD0000000038B5074B1C68E36B93
:1089A00005461BB92420FDF779FCE063E16B2846FE
:1089B000BDE8384000F002B860E103202DE9F04145
:1089C0000C46804600F006FD21460746404600F072
:1089D00005FD466906F26C76B307044605D16422AC
:1089E00096FBF2F302FB13634BB94FF4C87596FB89
:1089F000F5F305FB1365B5FA85F35B0900E0012388
:108A00005F4A302505FB032500F018FB00F018FB3A
:108A10005C4B1B68F3B17B689E4205D13968D8F87E
:108A20000030FA6941B90AE0304600F05FFA0028E8
:108A3000F4D14FF0FF330DE0934208DB01E09342A5
:108A400007DABA6B9342ACBF0023012302E0002394
:108A500000E001232362236A012B0CBFF96B396A02
:108A60004FF461633C2091FBF3F603FB161361683E
:108A700093FBF0F200FB12302368891AA268616050
:108A80001B1A921B3B2B2360A26003DD0131616046
:108A90003C3B04E0002B03DA013961603C33236086
:108AA00063683B2B03DD0132A2603C3B04E0002BFA
:108AB00003DA013AA2603C336360A368172B22DD1E
:108AC000E2690132E261A2690132062AC8BF0022CE
:108AD000A261E268183B0132A3602369E26055F8A5
:108AE00023108A4246DD01330C2B0CBF63692361DE
:108AF000A2EB0102E26001BF013300222261636147
:108B000008BFE26136E0002B34DAE269013AE26143
:108B1000A269013A48BF0622A261E2681833013A0D
:108B2000E260A36032BB2369013B01D423611DE0F5
:108B30000B23236163695A1E12F0030F626103F273
:108B40006B7305D1642193FBF1F201FB12324AB938
:108B50004FF4C87193FBF1F201FB1233B3FA83F3C4
:108B60005B0900E0012303F5B673E361236955F85F
:108B70002330E36000F063FA2046BDE8F08100BFD7
:108B8000849F0D00E4E7032010B5431E0A44914280
:108B900004D011F8014B03F8014FF8E710BD02446F
:108BA0000346934202D003F8011BFAE77047000026
:108BB00038B5124B1C68A36B0546D3B91820FDF7D6
:108BC0006DFB43F20E33A06303804AF6CD3343803E
:108BD00041F2342383804EF26D63C3804DF6EC6323
:108BE0000381052343810B23838101220023C0E9F4
:108BF0000423A36B00221D615A6138BD60E103208C
:108C000010F8012B11F8013B012A28BF9A42F7D036
:108C1000D01A7047034611F8012B03F8012B002AE4
:108C2000F9D17047024B0146186800F003B800BF45
:108C300060E1032070B5064608460C4600F00DF8CA
:108C4000451C29463046FDF759FB064618B12A4611
:108C50002146FFF799FF304670BD034613F8012BFC
:108C6000002AFBD1181A0138704730B582B1451E71
:108C7000013915F8013F11F8014FA34206D1EC4329
:108C80001444E04201D0002BF3D11C46181B30BD28
:108C9000104630BD10B5034642B111F8014B03F840
:108CA000014B013A002CF7D11A4400E010BD934269
:108CB00002D003F8014BFAE710BD00002DE9F047A0
:108CC00080464048D0F800900F463D4615F8014BCD
:108CD00009EB0400407800F0080000F0FF0608B13E
:108CE0002F46F2E72D2C03D1BD1C7C78012603E032
:108CF0002B2C04BF7C78BD1C13B1102B0AD15BE078
:108D0000302C57D1287800F0DF0058284DD16C78EE
:108D100010230235002E14BF4FF0004C6FF0004CB2
:108D20000027BCFBF3FA384603FB1ACC09EB040E10
:108D30009EF801E01EF0040F01D0303C0BE01EF065
:108D4000030E1BD0BEF1010F0CBF4FF0370E4FF0DA
:108D5000570ECEEB0404A34210DDB7F1FF3F0AD05B
:108D6000504506D801D1644503DC03FB00400127D0
:108D700001E04FF0FF3715F8014BD7E77B1C0CD112
:108D8000002E4FF0220314BF4FF000406FF0004060
:108D9000C8F800302AB9BDE8F08706B1404272B188
:108DA00007B1691E1160BDE8F0873024002BB1D1F6
:108DB0000823AFE70A23ADE7302CA3D0AAE7BDE82C
:108DC000F08700BFFCE0032013460A460146024834
:108DD0000068FFF773BF00BF60E103202DE9F04793
:108DE00080463C48D0F800900E46354615F8014BB9
:108DF00009EB0400407800F0080000F0FF0708B11C
:108E00002E46F2E72D2C03D1B51C7478012703E020
:108E10002B2C04BF7478B51C13B1102B0AD153E06E
:108E2000302C4FD1287800F0DF00582845D16C78DD
:108E3000102302354FF0FF3C0026BCFBF3FC03FB84
:108E40000CFA6FEA0A0A304609EB040E9EF801E0BC
:108E50001EF0040F01D0303C0BE01EF0030E1AD0C0
:108E6000BEF1010F0CBF4FF0370E4FF0570ECEEB97
:108E70000404A3420FDD002E08DB604506D801D1B3
:108E8000544503DC03FB0040012601E04FF0FF36B0
:108E900015F8014BD8E7002E07DA2223C8F8003076
:108EA0004FF0FF302AB9BDE8F08707B1404272B1F8
:108EB00006B1691E1160BDE8F0873024002BB9D1DE
:108EC0000823B7E70A23B5E7302CABD0B2E7BDE8FB
:108ED000F08700BFFCE0032013460A460146024823
:108EE0000068FFF77BBF00BF60E103202DE9F74F6B
:108EF000044600F06FFA40F2B1739C4240F3968052
:108F00006FF4F663E318A4F2B2729B1040F26D1591
:108F100005FB0235A4F26D726FF0630392FBF3F36D
:108F20006FF4C8622B44A5184FF4C87295FBF2F594
:108F30001D44642394FBF2F794FBF3F602FB1747FE
:108F400003FB164600F13803B7FA87FE019304F0DD
:108F5000030344604FEA5E1E014600934FF0070C86
:108F60000B7A4A2B0ED14B69009AEC1802B906B95C
:108F700027B93B2BD4BF0023012300E00023234467
:108F8000013B3FE0442B02D14B692B443AE0009B6C
:108F90002BB9002E0CBFF0464FF0010800E0F04660
:108FA000244BCC68302202FB0838A8F1040AA946F9
:108FB0000123A34204DA5AF804BF0133D944F8E785
:108FC00009F1040393FBFCFBCBEBCB0A012CCAEBAE
:108FD000030A4B69B8BF012404F18044B3EB0A0AC9
:108FE0000B6904F1FF3403F1FF3348BF0AF1070AAC
:108FF000C3EBC30358F824405344A34201DB073BAF
:10900000FBE74B448C690C4A02FB03430C6A234484
:1090100041F81C3F019B9942A2D1C369826B9342E4
:10902000ACBF002301230360012000E0002003B057
:10903000BDE8F08F849F0D0080510100704770479C
:10904000014B186800F002B860E103202DE9F04FF1
:109050008DB0074600F0BEF9B049B14E044638461F
:1090600000F0B0F9054660B9AE4BAF4A1860AF4B9F
:109070001860AF4B30681A605A60FDF717F9356019
:1090800048E1316879B93068FDF710F92846FFF7F3
:10909000E4FD411C3846FDF731F9306048B12946FE
:1090A000FFF7B8FD05E0FFF7ABFD002800F03281C7
:1090B000E9E72B789F4AA0493A2B08BF01350AAE51
:1090C00033462846FDF702F9002840F323810A9B26
:1090D000EF18EB5C2D2B03D101374FF0FF3503E088
:1090E0002B2B08BF013701250DF1200A0DF11E0BB6
:1090F0004FF000080396CDF808A00196CDF800B017
:10910000334607AA8D49ADF81E803846ADF8208059
:10911000FDF7DCF8404540F3FD80BDF81E20BDF8AA
:109120002030DFF824923C2101FB0233BDF81C20E3
:109130004FF4616101FB02335D4325627C4D7D4B41
:109140002B600A9B7C491F444A4633463846FDF74C
:10915000BDF8404508DC2B686B60724B226A1A60D0
:10916000724BC3F80080D5E00A9BC5F80490FD1847
:10917000FB5C2D2B03D101354FF0FF3703E02B2B88
:1091800008BF013501270023ADF81C30ADF81E30B3
:10919000ADF820300A930396CDF808A00196CDF8DB
:1091A00000B0334607AA65492846FDF78FF8002826
:1091B00004DC236AA3F56163E3630EE0BDF81E20BF
:1091C000BDF820303C2101FB0233BDF81C204FF4D8
:1091D000616101FB02335F43E7630A9B27461D443D
:1091E0004FF000092B782C2B08BF013595F8008033
:1091F000B8F14D0F26D10DF12603029309AB009370
:109200000396019633460DF122024D492846FDF79B
:109210005DF803287ED1BDF822104B1E0B2B79D8A8
:10922000BDF82420531E042B74D8BDF82630062B1D
:1092300070D887F80880F9603A617B610A9B05EB7A
:1092400003082AE0B8F14A0F06BF0135434644231C
:109250000A220BA928460593FFF73EFEDDF82C8075
:10926000ADF826004545059B14D14D23B9F1000FFB
:1092700007D123720323E36002232361C4F814900F
:109280000BE084F824300B23A3620123E362002364
:10929000236302E080B23B7278610223ADF81C3098
:1092A0000023ADF81E30ADF820300A9398F8003056
:1092B0002F2B0BD10396CDF808A00196CDF800B066
:1092C000334607AA1F494046FDF700F8BDF81E20A7
:1092D000BDF820303C2101FB0233BDF81C204FF4C7
:1092E000616101FB0233BB610A9D09F10109B9F11A
:1092F000020F454407F11C077FF474AF6068FFF765
:10930000F5FD084B226A1A60E36B9B1A074A18BFE7
:10931000012313600DB0BDE8F08F00BFE49F0D0086
:10932000E0E70320E8E70320E79F0D00E4E70320E0
:1093300064E10320D3E70320EB9F0D000EA00D0096
:10934000FA9F0D000DA00D00C8E703202DE9F84F8E
:1093500007468B46904600F0D9F8194B1D689A468F
:109360003DB15C46234613F8012B42B13D2A1C4611
:10937000F8D1384600F0CBF80020BDE8F88FCBEBF1
:109380000404A94659F8040B0028F2D02246594695
:10939000FFF76BFC88B959F8043C1E191B5D3D2B87
:1093A0000BD1DAF80030ED1AAD103846C8F800508D
:1093B00000F0ADF8701CBDE8F88F4D46E1E700BF46
:1093C000ACE1032007B501AAFFF7C0FF03B05DF8C9
:1093D00004FB0000004870476CE103200268474B23
:1093E000F0B592FBF3F403FB1422002ABCBF02F594
:1093F000A83202F5C0724FF4616004F52F2492FB8D
:10940000F0F300FB13224FF03C00ACBF04F66C24D9
:1094100004F66B248B6092FBF0F300FB13224B608D
:109420000A600723E21C92FBF3F3C3EBC303D31AD6
:109430008B61334B334D94FBF5F503FB054448F644
:10944000AC62B4FBF2F2224440F2B457B4FBF7F33F
:10945000D21A2D48B4FBF0F048F69466131AB3FB09
:10946000F6F6344440F26D12B3FBF2F0B3FBF7F3BF
:10947000E31A02FB1033992403EB83020232B2FB9E
:10948000F4F20A2A04FB02F404F102064FF0050488
:10949000B6FBF4F434BF02266FF0090616444FF40D
:1094A000C87202FB05055F1C012E98BF0135B3F59C
:1094B000997FA7EB040702D3A3F5997214E0820702
:1094C00005D16424B0FBF4F204FB12024AB94FF454
:1094D000C872B0FBF2F402FB1400B0FA80F2520939
:1094E00000E001223B331A44A5F26C750023CA61E7
:1094F0004D610E61CF600B620846F0BD80510100E6
:109500004FC5FDFFB13A0200B03A02007047704704
:1095100021400D005D400D0089400D008D400D0083
:1095200000000000000000000000000041420D00AB
:1095300089420D0015410D00A19A0D00DC9A0D0025
:10954000E19A0D00E69A0D00EA9A0D00EF9A0D00DF
:10955000F49A0D00F89A0D00039B0D000E9B0D0070
:10956000A19A0D00A99A0D00AD9A0D00B69A0D00B2
:10957000BE9A0D00CA9A0D00D09A0D005374617204
:10958000747570205375636365737366756C000042
:1095900000000000000000000000000000000000CB
:1095A00000000000000000000000000000000000BB
:1095B00000000000000000000000000002000000A9
:1095C000257320533A25322E306625252C20513A1A
:1095D00025322E30662525200025342E3166204385
:1095E0000025342E31662025250025342E316620B5
:1095F0006C75780025692025250041542B4346557C
:109600004E3D31360D0A007B2254656D70657261E6
:1096100074757265223A25342E31662C20224875E5
:109620006D6964697479223A25342E31662C2022C2
:109630004C696768744C6576656C223A25342E3126
:10964000662C2022536F696C6D6F69737475726537
:1096500031223A25692C2022536F696C6D6F697332
:109660007475726532223A25692C202277617465FF
:10967000725072657373757265223A25692C2022C7
:10968000536F6C656E6F6964223A25692C20224203
:10969000617474657279223A25692C2022526573AF
:1096A000657473223A25692C2022416C65727473AB
:1096B000223A25697D005277616E64612D53656E93
:1096C00073652D416E642D436F6E74726F6C005222
:1096D00077616E64612D53656E73652D416E642DE7
:1096E000436F6E74726F6C2D456C617374696300A7
:1096F0004E6F204461746100556269646F74732019
:10970000486F6F6B00526573706F6E7365205265A2
:1097100063656976656400556E6B6E6F776E207257
:109720006573706F6E7365207265636576696564D5
:109730002025690053657420536F6C617220506F4F
:109740007765726564204D6F646500436F6E66696E
:1097500067003000436C656172656420536F6C6113
:109760007220506F7765726564204D6F6465004E9E
:109770006F20536F696C2053656E736F7273004F67
:109780006E6520536F696C2053656E736F72005461
:10979000776F20536F696C2053656E736F7273001F
:1097A0004E6F2050726573737572652053656E73CA
:1097B0006F720050726573737572652053656E73B6
:1097C0006F722050726573656E74004E6F204C6925
:1097D0006768742053656E736F72004C69676874B4
:1097E0002053656E736F722050726573656E7400DE
:1097F0004E6F2054656D70202F2048756D69646927
:1098000074792053656E736F722050726573656E44
:10981000740059657300796573006E6F004E6F00B8
:109820004E6F20536F6C656E6F6964204174746174
:10983000636865640053657420566572626F736572
:10984000204D6F646500436C6561726564205665E8
:1098500072626F7365204D6F6465004C6F772050A6
:109860006F776572204D6F64650054727565004EA8
:109870006F726D616C204F7065726174696F6E7389
:109880000046616C7365004F6E004F6666004F7056
:10989000656E207468652056616C7665005761744A
:1098A0006572696E6700436C6F736520746865202C
:1098B00076616C76650046726F6D20257320746F3B
:1098C000202573005374617465205472616E73694E
:1098D00074696F6E00737061726B2F646576696373
:1098E000652F73657373696F6E2F656E64005461C5
:1098F0006B696E672061204E6170005374617465FE
:10990000004C6F772042617474657279202D20536A
:109910006C656570696E67004572726F7220537472
:10992000617465202D205265736574004572726FF5
:1099300072205374617465202D20506F77657220FA
:109940004379636C65004572726F72205374617461
:1099500065202D2046756C6C204D6F64656D20521E
:1099600065736574004572726F722074616B696E05
:1099700067204D6561737572656D656E7473005314
:1099800069676E616C005265736574436F756E74C0
:109990000052656C656173650053746174654F6650
:1099A0004368670042617474657279436F6E7465D1
:1099B0007874004C6F77506F7765724D6F646500F7
:1099C00054656D70657261747572650048756D6976
:1099D00064697479004C756D696E6F736974790090
:1099E000536F696C4D6F6973747572653100536F95
:1099F000696C4D6F6973747572653200507265736E
:109A000073757265004D6561737572652D4E6F7764
:109A100000536F6C61722D4D6F6465005665726204
:109A20006F73652D4D6F646500536574536F696C7A
:109A300053656E736F727300536574507265737300
:109A400075726553656E736F72005365744C696708
:109A5000687453656E736F7200536F6C656E6F69D7
:109A60006450726573656E740053657454656D70EF
:109A700048756D696453656E736F720074727565B5
:109A80000066616C7365004661696C656420746F83
:109A900020636F6E6E6563740053746172747570C9
:109AA00000556E6B6E6F776E004E6F742043686169
:109AB0007267696E67004368617267656400446934
:109AC000736368617267696E67004661756C7400E4
:109AD0004469636F6E6E6563746564004E6F6E6596
