:02000002D0002C
:1040000000400D00189B0D00000006000D0005018A
:084010000401DE0500000000C0
:04401800FC8E0D000D
:1040200009480A49884208B505D0094A824202D0A7
:10403000121A04F09FFA0748074A0021121A04F0E6
:10404000A4FA014808BD00BF74E0032094990D0054
:10405000CCE10320CCE10320F0E7032070B503F0AE
:104060008BFA074C074BE41AA40800251E46A5420C
:1040700004D056F8253098470135F8E770BD00BFE9
:1040800088990D0048990D0001F000B808B500F0BE
:10409000D7FDBDE8084003F031BA01F09FBE01F042
:1040A000A5BE01F0A3BE0078B0FA80F040097047C9
:1040B000012303707047000008B5044902F073FF44
:1040C00018B1034B03221A70012008BD8C930D0018
:1040D00016E2032010B50446006808B101F086FE20
:1040E000204610BD37B59DF8184023438DF80030A9
:1040F0003C23054602F0AEF9284603B030BD00006F
:1041000030B58FB0124904A801F01AFF04A801F0DD
:104110006AFF044604A801F0B7FF04A810EE105A85
:1041200001F098FF10EE100A03F064FECDE90201E1
:10413000284603F05FFECDE90001064B064A53F81E
:1041400024300648402101F069FE0FB030BD00BFA9
:1041500030E30320F4E00320548F0D0070E20320CD
:1041600073B5494D494C2B7B53B1494801F020FBB5
:10417000474884ED050A01F029FB84ED060A02E0B8
:104180000023A36163616069404E03F033FE414A3E
:10419000CDE900011021404801F040FEA06903F084
:1041A00029FE3E4ACDE9000110213D4801F036FECE
:1041B0002B7C43B13B4801F025FA3A4801F0DCF989
:1041C00086ED070A01E00023F361E0692F4E03F05A
:1041D00011FE354ACDE900011021344801F01EFEE0
:1041E000AB7B63B1132003F06AFA642300930023CE
:1041F00040F68A62194601F029FE306000E0336023
:10420000AB7B022B0CD1122003F059FA64230093EC
:10421000002340F68A62194601F018FE606001E052
:1042200000236360EB7B012B0DD1112003F047FAD3
:104230001E2300934FF4306200234FF4D67101F037
:1042400005FEA06002E0104B0022DA73184B00223A
:104250001146586801F08AFD08B1FFF751FF154873
:1042600002F004FBFDEEC07A134A1448C5ED027A51
:1042700017EE903A102101F0D1FD114B012018707A
:10428000104B187002B070BD0CE30320B8E203209D
:1042900060E203206D8F0D00D0E10320758F0D00CB
:1042A000DCE20320ECE103207E8F0D00FCE2032022
:1042B00030E303200CE20320888F0D00ECE20320A2
:1042C00027E2032015E203202DE9D0431A480023FA
:1042D0001A461946406801F051FD01F0E7FC4FF421
:1042E000967440F2E7360027002001F017FB4FF0EC
:1042F00000098046002001F011FBB0EB080061EBE3
:1043000009018F4208BF864205D301F0DFFC10B9D6
:1043100001F0C4FCEEE701F0D9FC18B1BDE8D043D0
:1043200001F0D4BC01F0C2FA044B186001F0B6FCF5
:10433000013CF3D0D8E700BF30E30320D8E60320E8
:1043400008B501F0C3FC80F00100C0B208BD000058
:10435000F8B501F0B3FC002001F0E0FA00250446B6
:1043600043F697260027002001F0D8FA001B61EBE6
:1043700005018F4208BF864205D3FFF7E1FF10B960
:1043800001F08CFCEFE7FFF7DBFF064800231A463D
:104390001946406801F0FAFC4FF4FA6001F062FD42
:1043A0000120F8BD30E30320154B1648597999B127
:1043B0004FF46173038141F2D833C3804FF48063BB
:1043C000438141F270038381036843F4007343F037
:1043D00001030360002111E040F2DC53038141F24C
:1043E0007003C3804FF48063438141F210038381E3
:1043F000036843F4007343F00103036001F034BC2D
:104400000CE3032028E2032010B5074C01F04EFA1C
:104410002368C01AB0F57A7F04D301F047FA206010
:10442000012010BD002010BDB0E2032008B5FFF749
:10443000EBFF18B1BDE80840FFF7E6BF01F02EFC26
:10444000F5E7000037B501F039FC01F02FFA43F62B
:104450009725044601F03AFC40B101F027FA001B11
:10446000A84203D8642001F0FDFCF3E70021094BCA
:1044700047F23052084601F0C1F94FF47A7001F06A
:10448000F1FC054B0A221B680121684602F0FCFD85
:1044900003B030BD8E8F0D004CE2032038B50468A8
:1044A00005467CB16368013B63605BB923682046C5
:1044B0009B689847A368013BA3601BB9236820460B
:1044C000DB689847284638BD30B5254C254D236A12
:1044D000D1B00C93244B9A690B929B680A93E368C2
:1044E0000993A36808936368079323680693E069B8
:1044F00003F080FCCDE90401A06903F07BFCCDE969
:104500000201606903F076FC0024CDE90001174A3E
:104510004FF4807110A801F081FC2B7814498DF8BC
:10452000004010AA0EA8FFF7DDFD0FA8FFF7B6FFA9
:104530002B7810498DF8004010AA0EA8FFF7D2FD85
:104540000FA8FFF7ABFF02F097FE0B4B18700B4B59
:1045500001221A7001F0AAF9094B186051B030BD60
:10456000B8E20320E8E103200CE303209B8F0D0059
:104570004A900D0063900D0048E20320F2E0032012
:10458000E4E1032010B50B7894B00C4623B91C4924
:1045900004A804F035F817E0084603F0E1FEC82847
:1045A00004D0204603F0DCFEC9281ED1154904A81A
:1045B00004F026F802F058FE134BD861134B012289
:1045C0001A70134B00221A70FFF730FF114B12497B
:1045D0001B7800228DF8002002A804AAFFF782FDB4
:1045E00003A8FFF75BFF14B010BD204603F0B8FE30
:1045F0000A4A0346402104A801F010FCE4E700BF8A
:1046000084900D0099900D000CE3032015E2032027
:10461000F2E00320E8E103208C900D00AB900D0048
:1046200030B5184985B0044602F0BDFC054668B1B6
:10463000154B01245C71154B1C70FFF7B5FE144B34
:1046400000221B788DF80020124A10E01249204603
:1046500002F0A9FC98B10C4B5D710C4B01241C704D
:10466000FFF7A2FE0A4B0D4A1B788DF800500C494B
:1046700002A8FFF737FD03A8FFF710FF204605B09B
:1046800030BD00BF8C930D000CE3032015E2032026
:10469000E8E10320C8900D00E6900D00E8900D00C1
:1046A000DF900D007FB51E49044602F07CFC0646F3
:1046B00058B11C4B00229A731B4B01241C701B4BDE
:1046C0001B788DF800201A4A20E01A49204602F093
:1046D0006AFC054650B1134B174A01249C73124BD8
:1046E0001C70124B1B788DF800600FE013492046B8
:1046F00002F059FC90B10B4B02229A730A4B104AFC
:1047000001241C70094B1B788DF800500D4902A83C
:10471000FFF7E8FC03A8FFF7C1FE204604B070BD18
:10472000E6900D000CE3032015E20320E8E10320EE
:1047300003910D008C930D0013910D009A930D00C1
:1047400023910D00DF900D0030B5164985B0044669
:1047500002F029FC054658B1134B0022DA73134BC3
:1047600001241C70124B1B788DF80020114A0EE0BA
:104770001149204602F017FC88B10B4B0F4A012467
:10478000DC730A4B1C700A4B1B788DF800500C49E7
:1047900002A8FFF7A7FC03A8FFF780FE204605B09C
:1047A00030BD00BFE6900D000CE3032015E20320AE
:1047B000E8E1032034910D008C930D0047910D002A
:1047C000DF900D0030B5194985B0044602F0EBFBCF
:1047D000054658B1164B00221A74164B01241C7062
:1047E000154B1B788DF80020144A15E0144920461B
:1047F00002F0D9FBC0B10E4B124801241C740D4BC2
:104800001C7000F0AEFE20210E4800F0E6FE0A4BC0
:104810000D4A1B788DF800500C4902A8FFF762FC86
:1048200003A8FFF73BFE204605B030BDE6900D0023
:104830000CE3032015E20320E8E103205F910D0063
:104840008C930D00ECE103206F910D00DF900D00C3
:1048500030B5184985B0044602F0A5FB054658B1AD
:10486000154B00221A73154B01241C70144B1B7836
:104870008DF80020134A12E01349204602F093FB02
:10488000A8B10D4B114801241C730C4B44211C7022
:1048900000F0F8FE0A4B0E4A1B788DF800500D49C7
:1048A00002A8FFF71FFC03A8FFF7F8FD204605B09C
:1048B00030BD00BFE6900D000CE3032015E203209D
:1048C000E8E1032084910D008C930D0060E2032049
:1048D00087910D00DF900D001FB51B49044602F0C3
:1048E00062FB78B91949204602F05DFB50B91849BE
:1048F000204602F058FB88B91649204602F053FBC7
:1049000060B91EE0144B01245C74144B1C70144BF2
:1049100000221B788DF80020124A0AE00E4B00227C
:104920005A740E4B01241C700D4B1B788DF800201F
:104930000D4A0E4902A8FFF7D5FB03A8FFF7AEFD0D
:10494000204604B010BD00BFA6910D00AA910D0035
:10495000B1910D00AE910D000CE3032015E2032090
:10496000E8E10320B7910D00B4910D00DF900D0038
:1049700030B587B00A2203A9006803F01BFF41F29B
:104980008832904203461FD8124D134A68610124B1
:1049900014701021114A124801F040FA2B79ABB182
:1049A00001F094F990B1FFF741FD0E4B0E491B78D1
:1049B00000228DF8002004A8094AFFF793FB05A800
:1049C000FFF76CFD204602E0002000E0012007B068
:1049D00030BD00BF0CE3032015E20320C9910D0098
:1049E00017E20320E8E10320DF900D0030B51649FF
:1049F00085B0044602F0D7FA054658B1134B01249E
:104A00001C71134B1C70134B00221B788DF8002077
:104A1000114A0EE01149204602F0C5FA88B10B4B4D
:104A20000F4A1D710A4B01241C700A4B1B788DF82C
:104A300000500C4902A8FFF755FB03A8FFF72EFD15
:104A4000204605B030BD00BF8C930D000CE3032061
:104A500015E20320E8E10320E2910D00E6900D004D
:104A6000F3910D00FE900D0030B5274985B0044646
:104A700002F099FA28B92549204602F094FA002854
:104A80003FD02149204602F08EFA054640B1204B26
:104A90001A791C4612B101F019F998B901230CE0FA
:104AA0001A49204602F07FFA40B1194B1A791C4688
:104AB00012B101F00BF9A8B90023A371154B012025
:104AC00018701EE0FFF7B2FC134B14491B7800224C
:104AD0008DF8002002A8124AFFF704FB03A8FFF795
:104AE000DDFCDBE7FFF7A2FC0B4B0E4A1B780B4902
:104AF0008DF8005002A8FFF7F5FA03A8FFF7CEFCE7
:104B0000DAE705B030BD00BF8C930D00E6900D00D4
:104B10000CE3032015E20320E8E10320FE900D00E2
:104B200008920D0017920D0030B5214985B0054659
:104B300002F039FA0446B0B10121022002F093FDDF
:104B40000021032002F08FFD1A4B586901F08AF909
:104B50000121032002F087FD174B00221B788DF8FE
:104B60000020164A19E01649284602F01CFAE0B166
:104B70002146022002F077FD2146032002F073FD5A
:104B80000C4B586901F06EF90121032002F06BFD16
:104B9000094B0C4A1B788DF800400B4902A8FFF71F
:104BA000A1FA03A8FFF77AFC012005B030BD00BFD1
:104BB00029920D000CE30320E8E103202C920D0064
:104BC00044920D0048920D003B920D0030B5164DF9
:104BD000164C17492A7820788FB00E2303FB021257
:104BE000009203FB0013134A282104A801F016F9D0
:104BF0002B78237001F06AF870B1FFF717FC0E4BA9
:104C00000E491B7800228DF8002002A804AAFFF7A5
:104C100069FA03A8FFF742FC02F02CFC04A902F099
:104C2000F6F80FB030BD00BF16E2032014E20320F7
:104C300074E0032058920D00E8E1032066920D0015
:104C400070B5904C2378013B88B0072B00F2F981B6
:104C5000DFE813F08201080044007400760097003A
:104C6000C8004001884D2B792BB1884B1B78022B53
:104C700001D0FFF7ABFF864E337843B102F036FD2B
:104C800020228149012000F039FE00233370814E3B
:104C9000337843B102F02AFD24227F49502000F0EE
:104CA0002DFE00233370AB7943B100F0FFFD7B4B49
:104CB0001B68C01A7A4B984200F2C08102F0DCFAFD
:104CC000784BAA681B7898421CBF03232370764B4D
:104CD0001B689A4200F3B58108232DE06A4D2B79B9
:104CE0002BB16A4B1B78032B01D0FFF76FFFFFF747
:104CF00037FA0646E8B90123237000F0D7FD6B4B65
:104D000018602B79002B00F09C8100F0DFFF002859
:104D100000F09781FFF78AFB654B664A1B7866496E
:104D20008DF8006006A8FFF7DDF907A8FFF7B6FBCE
:104D300087E16B7C13B10423237082E10523FBE739
:104D4000514B1B792BB1514B1B78052B01D0FFF731
:104D50003DFF00F0BBFF68B102F08EFA0C2805D1D0
:104D600000F0B4FF10B1002000F0D0FFFFF7ACFB63
:104D70000623E1E7FFF7A8FA002840F0628101234B
:104D8000DAE7414B1B792BB1404B1B78062B01D046
:104D9000FFF71CFF494B1B7823B900F087FD3F4B01
:104DA00018606DE000F082FD454B1B68C01A4AF6A2
:104DB000C873984240F2458100F078FD3B4B186083
:104DC00000F084FF0028DAD0394B3E491B780022DE
:104DD0008DF8002006A83C4AFFF784F907A8FFF7E2
:104DE0005DFBCCE7284B1A791D462AB1274B1B786F
:104DF000072B01D0FFF7EAFE00F068FFB0B12B7976
:104E000073B1FFF713FB2A4B2B491B7800228DF857
:104E1000002006A82D4AFFF765F907A8FFF73EFB1B
:104E20004FF47A7001F01EF8FFF792FA0021072084
:104E300002F019FC00210E2002F015FC02F026FA07
:104E4000234B1A680423ADF8143008AB002103F893
:104E50000E1DC0F13C0002923C22012550430190FE
:104E60002A4605A906A8009502F04CF92946072014
:104E700002F0F9FB29460E2002F0F5FBFFF724FAB9
:104E8000022359E716E203200CE3032014E2032077
:104E900015E2032027E20320B8E203206CE203209E
:104EA000905F010048E20320E0E10320B4E2032028
:104EB000E8E1032007930D009D920D00F2E003202E
:104EC000E4E1032077920D009A8F0D0090920D007F
:104ED0004CE203205C4B1A791D462AB15B4B1B78D0
:104EE000082B01D0FFF772FE00F0F0FEB0B12B7975
:104EF00073B1FFF79BFA564B56491B7800228DF889
:104F0000002006A8544AFFF7EDF807A8FFF7C6FAF5
:104F10004FF47A7000F0A6FFFFF71AFA002107207D
:104F200002F0A1FB02F0B2F94C4B1A680423ADF871
:104F3000163008AB022503F80D5DC0F13C0002926B
:104F40003C2250430122019000920DF1160106A867
:104F500002F0D8F8257074E03B4C23792BB13B4B21
:104F60001B78012B01D0FFF731FE00F09FFC3C4B7A
:104F70001B6803F5EA433033984262D9A369032BD7
:104F800014DC00F0A3FE60B1314B32491B780022E3
:104F90008DF8002006A8334AFFF7A4F807A8FFF70A
:104FA0007DFA4FF4FA6000F05DFF24E002F05CF956
:104FB000254BDB69C01AB0F5E15F1FD900F086FE12
:104FC00060B1234B23491B7800228DF8002006A8EE
:104FD000254AFFF787F807A8FFF760FA4FF4FA6051
:104FE00000F040FF0023A36102F080FB202216495D
:104FF000012000F083FC02F044F822E000F066FE9D
:1050000060B1134B13491B7800228DF8002006A8CD
:10501000164AFFF767F807A8FFF740FA4FF4FA605F
:1050200000F020FF0023A36102F060FB202206496C
:10503000012000F063FCFFF705FA02E0072323706C
:105040003CE608B070BD00BF0CE3032014E203206F
:10505000E8E103209D920D00A3920D004CE2032095
:10506000B4E20320BA920D00CE920D00E8920D003A
:105070000023042200F002BE0023022200F0FEBD45
:105080000246014801F0C5B8E7610D002DE9F04383
:10509000B64BB9B008AA03F110051646186859684E
:1050A000144603C40833AB422246F7D119889B78D3
:1050B0002180A3702D2200210DF1330003F065FA49
:1050C000AB4A02231370AB4B1B6893F8305093F834
:1050D000313003F01F0343EA45152F2D904605DDBF
:1050E000A54A00210A2000F059FD01E01F2D03DD33
:1050F00005F01F05A14B01E04FF0A043012404FA85
:1051000005F5C3F808552146072002F09BFA002157
:10511000042002F097FA0021132002F093FA0021F4
:10512000122002F08FFA0021112002F08BFA2146A2
:105130000E2002F087FA21460E2002F094FA214652
:10514000032002F07FFA2146022002F07BFA21467A
:10515000032002F088FA0021022002F084FA04A859
:1051600000F0BCFD002700237D2218A904A801F04F
:105170002CFF834D834901973B463A46009718A878
:1051800000F0BCFD80498148FFF772FF05F118016E
:105190007F48FFF771FF7F497F48FFF769FF7F492D
:1051A0007F48FFF765FF7F497F48FFF761FFAB79D5
:1051B0007E48DB1B0DF1E00918BF012309F8D83D3B
:1051C00022463B46494600F059FD79497948FFF7A8
:1051D0004FFF79497948FFF74BFF79497948FFF745
:1051E00047FF79497948FFF747FF79497948FFF741
:1051F00043FF79497948FFF73FFF79497948FFF73D
:1052000037FF79497948FFF73BFF79496748FFF74E
:1052100037FF78497848FFF733FF78497848FFF738
:105220002FFF78497848FFF72BFF78497848FFF738
:1052300027FF78497848FFF723FF78497848FFF738
:105240001FFF78497848FFF71BFF78497848FFF738
:1052500017FF78497848FFF713FF02F047FA3846FE
:1052600000F03CFB02280DD102F040FA2022444914
:10527000012000F03BFB2B7BBBB144216F4800F0C9
:1052800001FA12E002F032FA04226D49384600F0C9
:1052900035FB02F02BFA20460422494601340297DE
:1052A00000F02CFBF02CF4D1DEE72B7C33B1654809
:1052B00000F057F92021634800F08FF900221146D1
:1052C0004846029200F0DAFA029B142B02BFAB6947
:1052D0000133AB61AB69052B04DD294B04229A61D4
:1052E000FFF7B0F86B693E48013B632B82BF244B4C
:1052F0000F225A616B69544A102100F08FFDFFF7AD
:1053000053F8042002F0C8F908B91D4B9871FEF754
:1053100027FF4E4BAA681B689A4203DC082388F8D3
:1053200000300DE0FEF7D0FF50B9012388F80030BF
:1053300000F0BCFA464B47491860304603F060F96C
:1053400000F0C4FC18B12B79002B40F0878002F0EC
:1053500091F8314601F05BFD3F4B012204A81A7021
:1053600001F0ADFD39B0BDE8F08300BF108F0D0036
:1053700016E203205CE203209D580D00000300505C
:105380000CE3032085450D0070E2032021930D00FE
:1053900028930D0071940D0033930D00ECE203206F
:1053A0003B930D00F4E1032046930D0053930D0051
:1053B000D0E1032060930D00DCE203206C930D002C
:1053C000FCE2032075930D00B8E2032080930D00EA
:1053D000BCE203208E930D00C0E203209C930D00DD
:1053E00017E20320CC930D00B9400D00A5930D00EA
:1053F000694A0D0021460D00B1930D00ED490D00E5
:10540000BC930D00294B0D003B920D0071490D001E
:10541000C9930D00A5460D00D5930D0049470D0019
:10542000E4930D00C5470D00F6930D00D9480D001B
:1054300005940D0051480D0015940D0060E2032005
:10544000508F0D00ECE10320DA910D00E0E1032024
:10545000B4E2032028940D0015E20320064B07490F
:105460001B7800228DF8002048463246FEF73AFEAF
:1054700003A8FFF713F86AE7E8E103203A940D0068
:10548000F8B5284B284D294F00241C60284B0126D5
:105490001E7000F04BFA274B186002F099F8234673
:1054A000224642F6D51102F09BF802F091F822460E
:1054B0002346132102F09CF84FF6FF736B812C609A
:1054C000AC80AC712C81022000F078FB3A461A497E
:1054D000284602F0BFF9194D2146304600F086FB00
:1054E0003146042000F0BAF92146284601F07EF941
:1054F0002846134D13493A46202602F0ABF93246AE
:105500002146284603F041F80F486E7100F097F8E5
:1055100002F034F923210246BDE8F8400B4800F0C0
:105520001BB800BF4CE2032050E20320CCE1032073
:10553000E8E103205CE20320D5400D000CE20320EB
:1055400028E203200B680D0060E20320ECE1032059
:105550000368C9B29B68184742601122417002700B
:10556000704710B50446406801F029FA10B9606828
:1055700001F0E0F9012010BD70B5054641784068A2
:1055800001F00FFA02226978686801F007FA68688A
:1055900003685B6998470646686803685B699847D3
:1055A000044644EA06246868A4B201F005FA07EE4E
:1055B000904AB8EE670ADFED027A80EE270A70BDE6
:1055C0009A99993F0378232B04D0132B0CBF1820F2
:1055D000B42000E0182000F045BC38B504460D4664
:1055E0004178406801F0DDF96068036829469B68EE
:1055F0009847606801F0E0F925702046BDE8384022
:10560000FFF7E0BF10B50378A3F12002012A04469A
:1056100001D9232B10D16178606801F0C2F960686C
:10562000217803689B689847606801F0C5F92046B7
:10563000BDE81040FFF7C6BF10BD00F077B9704756
:1056400038B505460C4602F099F8297801F0A9F919
:1056500002F094F8210AFFF77BFF02F08FF8E1B225
:10566000FFF776FF02F08AF8BDE8384001F0A4B9F0
:1056700008B543F2A201FFF7E3FF0A20BDE80840A6
:1056800000F0F0BB38B504460D4602F077F801F0A3
:1056900051F920462570FFF7EBFF012038BD0A4481
:1056A000FF2091420ED011F8013B5840082310F022
:1056B000800F4FEA400018BF80F03100013BC0B2BC
:1056C000F5D1EEE77047000073B54FF41051044672
:1056D000FFF7B6FF4FF4FA7000F0C4FB02F04EF88B
:1056E0000622217801F05AF902F048F803681B6994
:1056F000984706284AD1002502F040F803685B6904
:1057000098470DF805000135062DF5D102226946AE
:105710002046FFF7C4FF9DF80250854236D1022291
:105720000DF103012046FFF7BAFF9DF805508542B1
:105730002CD1BDF800009DF803609DF8045040BADC
:1057400080B202F035FB18A3D3E9002302F0A6FBD8
:1057500011A3D3E9002302F0CBFC0022104B02F08E
:10576000E9F902F0ADFDA06045EA062002F020FB59
:1057700000220C4B02F092FB07A3D3E9002302F0B6
:10578000B7FC02F09DFD6060012000E0002002B047
:1057900070BD00BFAFF3008000000000E0FFEF40ED
:1057A00000804640000059400000000000E06540D5
:1057B00010B50446FFF788FF10B194ED020A10BD42
:1057C0009FED010A10BD00BF0000C07F10B5044668
:1057D000FFF77AFF10B194ED010A10BD9FED010AA9
:1057E00010BD00BF0000C07F00F0A0B808B5024B9C
:1057F0001B685B6C019308BD7402030008B5024B83
:105800001B689B6C019308BD7402030008B5024B32
:105810001B689B68019308BD4802030008B5024B52
:105820001B681B69019308BD4802030008B5024BC1
:105830001B685B69019308BD4802030008B5024B71
:105840001B685B6C019308BD4802030008B5024B5E
:105850001B689B6C019308BD4802030008B5024B0E
:105860001B685B6E019308BD3402030008B5024B50
:105870001B689B6E019308BD3402030008B5024B00
:105880001B68DB6E019308BD3402030008B5024BB0
:105890001B685B68019308BD1802030008B5024B42
:1058A0001B68DB68019308BD1802030008B5024BB2
:1058B0001B685B69019308BD1802030008B5024B21
:1058C0001B68DB69019308BD1802030008B5024B91
:1058D0001B689B6A019308BD1802030008B5024BC0
:1058E0001B68DB6A019308BD1802030008B5024B70
:1058F0001B685B6C019308BD1802030008B5024BDE
:105900001B689B6C019308BD1802030008B5024B8D
:105910001B689B6D019308BD1802030008B5024B7C
:105920001B68DB6D019308BD1802030008B5024B2C
:105930001B681B68019308BD2C02030008B5024BCD
:105940001B685B68019308BD2C02030008B5024B7D
:105950001B689B68019308BD2C02030008B5024B2D
:105960001B68DB68019308BD2C02030008B5024BDD
:105970001B681B69019308BD2C02030008B5024B8C
:105980001B685B69019308BD2C02030008B5024B3C
:105990001B681B6B019308BD2C02030008B5024B6A
:1059A0001B68DB68019308BD2802030008B5024BA1
:1059B0001B689B69019308BD2802030008B5024BD0
:1059C0001B68DB69019308BD2802030008B5024B80
:1059D0001B681B6A019308BD2802030008B5024B2F
:1059E0001B685B6A019308BD2802030008B5024BDF
:1059F0001B689B6A019308BD2802030008B5024B8F
:105A00001B68DB6A019308BD2802030008B5024B3E
:105A10001B681B6B019308BD2802030008B5024BED
:105A20001B685B6B019308BD2802030008B5024B9D
:105A30001B681B6C019308BD2802030008B5024BCC
:105A40001B689B6C019308BD2802030008B5024B3C
:105A50001B68DB6C019308BD2802030008B5024BEC
:105A60001B681B6D019308BD2802030008B5024B9B
:105A70001B685B69019308BD6402030008B5024B13
:105A80001B689B68019308BD6802030008B5024BC0
:105A90001B68DB68019308BD6802030008B5024B70
:105AA0001B68DB69019308BD3002030008B5024B97
:105AB0001B681B6A019308BD3002030008B5024B46
:105AC0001B681B68019308BD3C02030008B5024B2C
:105AD0001B68DB68019308BD3C02030008B5024B5C
:105AE0001B681B69019308BD3C02030008B5024B0B
:105AF0001B685B69019308BD3C02030008B5024BBB
:105B00001B689B69019308BD3C02030008B5024B6A
:105B10001B68DB69019308BD3C02030008B5024B1A
:105B20001B681B6A019308BD3C02030008B5024BC9
:105B30001B689B6A019308BD3C02030008B5024B39
:105B40001B681B68019308BD4C02030008B5024B9B
:105B50001B681B69019308BD4C02030008B5024B8A
:105B60001B685B69019308BD4C02030008B5024B3A
:105B70001B689B69019308BD4C02030008B5024BEA
:105B80001B68DB69019308BD4C02030008B5024B9A
:105B90001B681B6A019308BD4C02030008B5024B49
:105BA0001B685B6B019308BD6002030008B5024BE4
:105BB0001B681B68019308BD2002030008B5024B57
:105BC0001B685B68019308BD2002030008B5024B07
:105BD0001B685B69019308BD2002030008B5024BF6
:105BE0001B689B69019308BD2002030008B5024BA6
:105BF0001B68DB6A019308BD2002030008B5024B55
:105C00001B68DB6C019308BD2002030008B5024B42
:105C10001B685B6D019308BD2002030008B5024BB1
:105C20001B689B6D019308BD2002030008B5034B60
:105C30001B68D3F88830019308BD000020020300E0
:105C400008B5034B1B68D3F89430019308BD0000DE
:105C50002002030008B5034B1B68D3F8A030019362
:105C600008BD00002002030008B5034B1B68D3F8F1
:105C7000A830019308BD00002002030008B5024BC4
:105C80001B681B68019308BD4402030008B5024B62
:105C90001B685B68019308BD4402030008B5024B12
:105CA0001B689B68019308BD4402030008B5024BC2
:105CB0001B68DB68019308BD4402030008B5024B72
:105CC0001B681B69019308BD4402030008B5024B21
:105CD0001B685B69019308BD4402030008B5024BD1
:105CE0001B68DB69019308BD4402030008B5024B41
:105CF0001B681B6A019308BD4402030008B5024BF0
:105D00001B685B6A019308BD4402030008B5024B9F
:105D10001B68DB6A019308BD4402030008B5024B0F
:105D20001B681B6B019308BD4402030008B5024BBE
:105D30001B68DB6B019308BD4402030008B5024BEE
:105D40001B685B68019308BD4002030008B5024B65
:105D50001B689B68019308BD4002030008B5024B15
:105D60001B68DB68019308BD4002030008B5024BC5
:105D70001B681B69019308BD4002030008B5024B74
:105D80001B685B69019308BD4002030008B5024B24
:105D90001B689B69019308BD4002030008B5024BD4
:105DA0001B68DB69019308BD4002030008B5024B84
:105DB0001B681B6A019308BD4002030008B5024B33
:105DC0001B681B6B019308BD4002030008B5024B22
:105DD0001B685B6B019308BD4002030008B5024BD2
:105DE0001B681B68019308BD1C02030008B5024B29
:105DF0001B685B68019308BD1C02030008B5024BD9
:105E00001B689B68019308BD1C02030008B5024B88
:105E10001B689B69019308BD1C02030008B5024B77
:105E20001B68DB69019308BD1C02030008B5024B27
:105E30001B68DB6A019308BD1C02030008B5024B16
:105E40001B681B6B019308BD1C0203008A4230B51E
:105E500007D0039D441AED1A6C43521A94FBF2F4D6
:105E6000E01830BD0021FFF7B1BE10B583680446CD
:105E70000BB901F010FDC3689847A3681BB103225A
:105E800021462046984720461021BDE8104001F0E9
:105E9000E6BC10B50446006808B1FFF7D7FC204601
:105EA00010BD0B68036013B15A6801325A60704725
:105EB00010B5064C002320462360FFF7BFFC2046A8
:105EC000034A0449BDE8104001F0C4BC2CE30320A0
:105ED000CCE10320935E0D00002211464068FFF7DD
:105EE00045BF002211464068FFF760BF00221146FF
:105EF0004068FFF76BBF00224068FFF75FBF0022DA
:105F000081F001014068FFF749BF00231A46194696
:105F10004068FFF73BBF00231A4619464068FFF769
:105F20002DBF002211464068FFF710BF002202215A
:105F30004068FFF713BF00231A464068FFF7FEBE14
:105F4000F0B51B4B036000250F462833182689B097
:105F500043608560C560324629460446103002F031
:105F600014FB2A4629467868FFF700FF08B9A060AD
:105F70001BE02946324602A80095019502F005FB78
:105F800002A96846ADF80860FFF730FC10B10123A4
:105F9000A3600AE0009B019AA360E2600BB90223B0
:105FA000A36002A9204600F089F8204609B0F0BDA0
:105FB000B4940D0038B5084C28252A460021204607
:105FC00002F0E3FA4FF0FF336360044B25800422B4
:105FD0005A60034A1A6038BD38E3032030E30320D7
:105FE00080940D007047007D70470000037D1BB159
:105FF0008369B3F1004F02D19FED050A704707EEA8
:10600000903A9FED047AF8EEE77A87EE870A7047B8
:10601000000000000000C842037D1BB1036AB3F119
:10602000004F02D19FED050A704707EE903A9FEDB1
:10603000047AF8EEE77A87EE870A704700000000DE
:106040000000C84210B52821044601F008FC204693
:1060500010BD0000037D7BB1436A002B0CDB07EE13
:10606000903ADFED076A9FED070AB8EEE77AC7EED0
:10607000267A27EE800A7047BFEE000A704700BFFD
:1060800000FF7F470000C842037D7BB1C369002B3E
:106090000CDB07EE903ADFED076A9FED070AB8EEDA
:1060A000E77AC7EE267A27EE800A7047BFEE000A2D
:1060B000704700BF00FF7F470000C84230B50D4663
:1060C00000F110040FCD0FC495E8030084E803002D
:1060D000012030BD2DE9F04107460C4615462AB98E
:1060E0000368C9B29B68BDE8F0411847002907DA88
:1060F0000A2A05D12D2100F07BFE6142064601E00F
:1061000021460026EAB2384600F08BFE3044BDE856
:10611000F08170B50D4606460A2281682846FFF7D1
:10612000D9FF2C210446284600F062FE0A220444CE
:10613000F1682846FFF7CEFF204470BDA0F10400AF
:10614000FFF7E7BF70470020704710B510210446E5
:1061500001F085FB204610BD08B508B1FFF7F5FF3B
:1061600008BD10B58368044613B103220146984761
:10617000204610BD0022026010B54FF69C7282804E
:10618000B1F9044084808A8002680C6804600A6067
:1061900010BD10B504460068FFF728FE204610BD6C
:1061A00038B5C468F4B12378022B03D104F10C0094
:1061B000FFF7EFFF656835B12846FFF7D2FF1021E2
:1061C000284601F04CFBA56835B12846FFF7C9FF0A
:1061D0001021284601F043FB20461421BDE8384039
:1061E00001F03DBB38BD10B588B00446684600F0EC
:1061F000ADFE694604A800F0CBFE04A8A047044603
:1062000004A800F05CFE684600F059FE204608B085
:1062100010BDF0B5102485B007460E461546002186
:106220002246684602F0B1F9002269461046ADF8F0
:106230000040029703960195FFF728FD05B0F0BDD9
:1062400013B5044691E8050000234B600B60206005
:10625000626001A801930093FEF720F9204602B086
:1062600010BDF7B50C4602AD54F8043B45F8083DA7
:1062700006460F4601A82146FFF713FE2946304681
:10628000FFF7DEFF01A8FEF709F92046FEF706F941
:106290003846082101F0E3FA304603B0F0BD13B5EB
:1062A0000B46044603C88DE8030093E8030084E826
:1062B00003009DE8030083E8030002B010BD000066
:1062C00038B500230446036010200D46FDF7E5FEB7
:1062D00028B1012343608360024B0360C5602060E6
:1062E000204638BDE8940D00826810B50AB901F067
:1062F000D2FAC368BDE81040184708B5006800F13D
:106300001001FFF7F1FF08BD826810B50AB901F06E
:10631000C2FAC368BDE81040184708B5006800F12C
:106320001001FFF7F1FF08BD38B5002383608B68CB
:1063300004460D462BB102229847EB68E360AB6838
:10634000A360204638BD0000F0B589B004686846F7
:10635000FFF710FF00238DF808304FF00202D4E859
:106360004F3F002B03D1C4E8412F0029F7D102D0C1
:106370008DF8083063E014F10C0503D06946284617
:10638000FFF7F8FEBFF35F8F01236370002004F175
:106390000803BFF35F8F53E8006F43E80002002A51
:1063A000F9D1BFF35F8F002E49D0FFF727FC20B152
:1063B00029463046FFF798FF3AE0314602A8FFF73A
:1063C000B3FFE068B4F9105008B102F021F906906B
:1063D0001020ADF81C50FDF760FE0546E8B100271F
:1063E00087601820FDF759FE044688B10146876092
:1063F00002A8FFF754FF049BA268A360059B0492C8
:1064000006A9E268E36004F110000592FFF7B2FE0E
:106410000D4BEB600D4B2C60AB6006A8FFF7B9FE8F
:1064200002A8FFF79EFE002229460948FFF7EEFB6F
:106430003046FFF796FE1021304601F010FA68460C
:10644000FFF7A7FE09B0F0BDFB620D0071650D00FE
:106450006B5E0D002DE9F04F8BB006460F4690465F
:1064600099469DF850A0FFF731FC07AD834630BB3D
:106470004FF62E73059005A92846ADF81830FFF7A2
:1064800079FE1420FDF709FE044658B1022303707B
:1064900001234370C0F804B0C0F808B029460C309E
:1064A000FFF768FE3046214640F8044BFFF708FF2F
:1064B0002846FFF76EFE05A8FFF76BFE52E00024AA
:1064C0000C2314206C60AC600793FDF7E6FD0146D9
:1064D00018B1047044704460846004A80391FFF70D
:1064E000EFFE224B08930820FDF7D7FD044628B1A4
:1064F000039B40F8043B04A9FFF7D3FC00955FFA27
:106500008AF34A46414638460994FFF7EFFB20B923
:10651000039B5B7803F0FF0283B1039B059304A9FF
:1065200006A8FFF7BEFC05A93046FFF789FE06A8BE
:10653000FDF7B4FF04A8FDF7B1FF13E04FF69C731D
:1065400005A903A80592ADF81830FFF7FDFE05A8D0
:10655000FFF71FFE05A80999FFF783FE06A8FDF7C0
:106560009DFFDAE730460BB0BDE8F08FE1660D0025
:10657000022AF8B5044606D0032A17D0012A22D1F0
:106580000B6803601FE018200E68FDF786FD0546C6
:1065900050B13146FFF7C8FE3069B6F9147008B142
:1065A00002F036F82861AF8225600CE0046854B12F
:1065B00004F11000FFF7EDFD2046FFF7D2FD182192
:1065C000204601F04CF90020F8BD38B50023836067
:1065D0008B6804460D462BB102229847EB68E360B6
:1065E000AB68A360204638BD022A70B5044606D0C9
:1065F000032A11D0012A18D10B68036015E014207A
:106600000E68FDF74AFD054620B13146FFF7DDFF74
:10661000337C2B74256008E0046834B12046FFF712
:10662000A0FD1421204601F01AF9002070BD0000E1
:10663000F0B5002387B00C46BFF35F8F50E8006FC2
:1066400040E80032002AF9D1BFF35F8F002E3FD01F
:106650001846FFF7D3FA074620B121463046FFF728
:1066600053FE2EE0314601A8FFF7AFFF23788DF8E7
:1066700014301020FDF711FD0546D0B187601420BD
:10668000FDF70BFD044678B18760014601A8FFF7CE
:1066900006FE039BA268A360049B0392E268E3608A
:1066A0009DF81430049223740A4BEB600A4B2C6063
:1066B000AB6001A8FFF755FD002229460748FFF708
:1066C000A5FA3046FFF74DFD1021304601F0C7F81E
:1066D00007B0F0BD1B630D00E9650D006B5E0D009A
:1066E00030B585B004460D4668461146FFF7B9FD42
:1066F0007CB124B228460DB101F08AFF029002A9B4
:106700006846ADF80C40FFF71FFE02A8FFF741FDF9
:106710001DE000988DF808404FF00102D0E84F3F8F
:10672000A34203D1C0E8412F0029F7D102D08DF850
:1067300008300CE010F10C014FF0010318BF037397
:10674000BFF35F8F043000F8033CFFF771FF01A82F
:10675000FDF7A4FE05B030BD002211464068FFF7EA
:1067600025BB002211464068FFF730BB002240687D
:10677000FFF724BB002281F001014068FFF70EBB48
:1067800000231A4619464068FFF700BB00231A464B
:1067900019464068FFF7F2BA002211464068FFF739
:1067A000E5BA002211464068FFF7D0BA0022022164
:1067B0004068FFF7D3BA00231A464068FFF7BEBA15
:1067C000024B03225A60024A1A60704760E30320BA
:1067D00004950D00006800F0F6B810B5044601609D
:1067E00002710AB1FFF7F6FF204610BD38B5044626
:1067F0000D4600F0E9FF2A4601462046FFF7EDFF6F
:10680000204638BD006800F0E7B810B503790446AB
:106810000BB1FFF7F7FF204610BDF8B5044616464A
:106820001D460F46FFF7D6FF2068362100F0BDF861
:106830002068036839469B6898470121206800F06A
:10684000B7F8022236210123206800F095F820686D
:1068500003685B6998473070206803685B699847F4
:1068600028702046BDE8F840FFF7CCBF07B502AB63
:10687000002203F8012D8DF8062004210DF10602F7
:10688000FFF7CBFF9DF8070001F0A2FA0022094BA9
:1068900001F004FB01F014FD9DF8063000EE103A03
:1068A00007EE900AB8EEC00A37EE800A03B05DF832
:1068B00004FB00BF0000703F7047F8B50646154660
:1068C0000C468F18BC4206D0336814F8011B9B6835
:1068D00030469847F6E72846F8BD0022007CFFF7CF
:1068E00075B80021007CFFF779B80021007CFFF724
:1068F0007DB80021007CFFF781B80021007CFFF704
:1069000085B810B51421044600F0A9FF204610BD3B
:1069100010B50446002363604FF47A73A360044B00
:106920002174084623601146FFF780F8204610BD09
:1069300038950D0000231A461946007CFFF72EB843
:1069400070B50C4686B0142506462A46002101A8DB
:1069500001F01BFE23788DF8083063680393E36829
:1069600004930022237A307CADF8045001A90593EA
:10697000FFF774F806B070BD1FB500338DF8001036
:106980004FF06401039118BF0123694601928DF80D
:106990000830FFF7D5FF05B05DF804FB0123FFF7D2
:1069A000EBBF0022007CFFF701B8C9B2FFF7F9BFC7
:1069B0000022007CFFF702B80121FFF7F9BF002198
:1069C000007CFFF72BB808B50021007CFFF736F8F4
:1069D000B0FA80F0400908BD08B50021007CFFF73F
:1069E00035F8B0FA80F0400908BD704710B518219D
:1069F000044600F034FF204610BDF0B5037D062BA1
:106A00008DB00E4600F104074FF0000402D000F1F3
:106A1000080518E00CAD394605F8304D2F232A46FD
:106A20000A20FFF723F8284601F00DFE33680246DE
:106A3000DB682946304698470FE024B12E213046C6
:106A400000F0D6F9044415F8011D0A22304600F082
:106A5000E8F9BD420444F0D120460DB0F0BD00007D
:106A600010B5054B0446112240F8043B002101F00B
:106A70008CFD204610BD00BF60950D000346074AFF
:106A800010B543F8042B01F1100251F8044B43F800
:106A9000044B9142F9D10A781A7010BD60950D002F
:106AA00010B59DF8084044EA032343EA024242EA53
:106AB000016104234160037510BD37B50D788B78F3
:106AC0004A78C97800912946FFF7EAFF03B030BD44
:106AD000014B024A1A60704768E30320DF950D00FE
:106AE000002211464068FFF761B900221146406854
:106AF000FFF76CB900224068FFF760B9002281F00F
:106B000001014068FFF74AB900231A460121406895
:106B1000FFF73CB900231A4619464068FFF72EB923
:106B2000002211464068FFF721B900221146406853
:106B3000FFF70CB9002202214068FFF70FB90023CC
:106B40001A464068FFF7FAB838B5054688B10468B8
:106B50004CB1A3681BB1032221462046984710215F
:106B6000204600F07CFE28461421BDE8384000F0A5
:106B700076BE38BD10B103685B681847704710B522
:106B800003680446BBB15868FEF740FE78B9236835
:106B90005A7C12B95868FEF741FE23685868FEF720
:106BA00045FE20680023236028B1FFF7CDFF206851
:106BB00008B1FFF7C9FF204610BD38B50446D0F82C
:106BC000C40108B1FDF76DFAD4F8C00108B1FEF7B1
:106BD0003DFED4F8BC5135B12846FFF7D0FF042163
:106BE000284600F03CFE206808B1FFF7C3FF2046AE
:106BF00038BD000010B5044B044640F8083BFFF7D1
:106C0000DCFF204610BD00BF50960D0038B50E4C7D
:106C10000E4B23600025022304F5E4706360A56039
:106C2000C4F8C451C4F8C851FEF708FE084BC4F8B4
:106C3000CC5184F8D05123602046064A0649BDE86D
:106C4000384000F007BE00BF6CE3032084960D00BF
:106C500050960D00CCE10320F56B0D0000231A4681
:106C60004068FFF76BB8002202214068FFF776B852
:106C7000002211464068FFF769B8002211464068BB
:106C8000FFF774B800231A4619464068FFF776B834
:106C900000231A4619464068FFF778B8002281F0B1
:106CA00001014068FFF77AB800224068FFF786B814
:106CB000002211464068FFF789B80022114640685B
:106CC000FFF774B82DE9F043002495B016460D4641
:106CD0000746FFF7C5FE214620220CA8009401F0CC
:106CE00054FC40230C9321466B460CAA3046FEF719
:106CF000CDFE0446002844D1024601216868FFF712
:106D000035F80221804622466868FFF72FF8009E7A
:106D100081462146002E34D0002932D17368022BDF
:106D200002D00A2B09D02AE0B8F1000F27D07169F0
:106D300038460431FFF7C1FE20E0B9F1000F1ED044
:106D40007469112201A801F020FC06238DF814308B
:106D500001AD04F108031834186859682A4603C2C3
:106D60000833A3421546F7D101A906A807ADFFF7DE
:106D700085FE0FCD3C1D0FC42B6823700121F669E1
:106D8000C8E70098FEF77AFE384615B0BDE8F083F4
:106D9000024B034A1A6000225A60704740E5032004
:106DA00084960D00F8B506460D468F180024BD42A6
:106DB0000CD0336815F8011B9B68304698470028B3
:106DC00001DB0444F3E7002C08BF04462046F8BD6D
:106DD00070B505460C46084649B101F034FC2B68F5
:106DE000024621462846DB68BDE87040184770BD62
:106DF00003689B68184738B50D210546FFF7F8FF73
:106E00000A2104462846FFF7F3FF204438BD38B571
:106E10000546FFF7DDFF04462846FFF7ECFF204458
:106E200038BD30B58BB00B4600218DF82410012AF7
:106E300098BF0A220DF12304B3FBF2F505FB1233D0
:106E400003F0FF03092B94BF30333733DBB2214605
:106E500004F801392B46002DEED1FFF7B9FF0BB036
:106E600030BD10B50446FFF77CF9204610BD000088
:106E70000348044A04490023836000F0EBBC00BFD0
:106E800048E50320CCE10320636E0D00704710B588
:106E90000C21044600F0E3FC204610BD10B5054B64
:106EA0000360044601710846FEF7F8FD0023A36065
:106EB000204610BDB8960D000079FEF7F7BD10B55D
:106EC00004460068FEF792FF204610BD10B5044648
:106ED000006808B1FEF78AFF00232360A3606360A7
:106EE00010BD38B504460D4600680131FEF786FF37
:106EF00010B184E82100012038BD10B503680446B4
:106F000013B143688B4207D22046FFF7EAFF20B156
:106F1000A3680BB922681370012010BD70B50E462E
:106F2000114604461546FFF7E8FF18B92046FFF75B
:106F3000CDFF09E02A463146A560206801F01AFB22
:106F40002268A3680021D154204670BD38B50023C3
:106F5000044603604360836003730D4639B10846FD
:106F600001F071FB294602462046FFF7D7FF204675
:106F700038BD884210B50B46044607D0096819B1E0
:106F80009A68FFF7CBFF01E0FFF7A0FF204610BD96
:106F900010B5002304460360436083600373FFF76A
:106FA000E8FF204610BD08B582680B4612B919B932
:106FB000012008BD11B90368187802E0006801F0EB
:106FC00015FBB0FA80F0400908BD70B50E469AB1C5
:106FD00091B185689D4202D800230B7070BD541E8C
:106FE000ED1A0168AC4228BF2C46194422463046AF
:106FF00001F046FB0023335570BD10B50446006810
:1070000018B1FEF7F3FE0023236010BD38B5B1F9C7
:10701000043083800B460D4653F8062FC0F8062037
:107020009B8843810446FFF7E8FF2B6813B1236078
:1070300000232B60204638BDB1F9043010B50BB9E0
:107040000A689AB10C685CB1A288012A03D0042AAC
:1070500006D1022205E0A4894C818A710B8105E0EA
:1070600004220B814FF6FF738A714B8151F8063F62
:1070700003608B88838010BD014600228C20FEF7C0
:10708000F5BB0020FFF7F8BF30B5044685B00846D1
:1070900011461A460023FEF7A1FD0D4DADF80C0078
:1070A000002301A90193ADF808308DF80A30284675
:1070B0004FF6FF73ADF80E30FFF7A8FF01A8FFF7FA
:1070C0009CFF20462946FFF7B7FF204605B030BD9C
:1070D00058E5032010B500240470448000294FF6C1
:1070E000FF74848007DD0139994209D232F81130EA
:1070F0008380012301E002D10223037010BD41808F
:1071000010BD0000F0B58BB017461A46129B0193D4
:107110000E460024119B0294054600933946109BAD
:107120003046FEF797FD3B463246014605A8FFF77D
:10713000D1FF0794ADF820400D4C9DF81410BDF917
:107140001620BDF818308DF82210204607A9ADF89A
:107150002420ADF82630FFF759FF07A8FFF74DFFB1
:1071600028462146FFF768FF28460BB0F0BD00BF58
:1071700058E5032010B5094C00204FF6FF7320603E
:10718000A080A07120816381FEF718FD2046044A8B
:107190000449BDE8104000F05DBB00BF58E5032086
:1071A000CCE10320D5400D00F0B5144B144F1E6800
:1071B000144B064418683B6806449E428BB01BD0B3
:1071C0000AA801AD40F8286D01F0DCF8436903F22C
:1071D0006C73436104460FCC0FC50FCC0FC5D4F8B8
:1071E00000E0C5F800E001AD0FCD074C0FC40FCD96
:1071F0000FC43E60C4F800E00BB0F0BD94E503207E
:1072000090E503208CE5032064E5032008B5002009
:10721000FEF784FD28B1FEF759FD80F00100C0B2F1
:1072200008BD012008BD10B50020FEF76FFB044625
:1072300068B9FEF7BBFC01280BD12046FEF7EEFC37
:1072400038B9FFF7E3FF30B9FEF728FDF9E7012071
:1072500010BD002010BDFFF7D9FF0020FEF756FB40
:10726000003018BF012010BD08B5FFF7DCFFBDE8F6
:107270000840FEF723BB000008B5FFF7F5FFFFF756
:1072800093FF014B986808BD64E5032008B5FFF73C
:10729000EBFFFFF789FF014B586808BD64E5032049
:1072A000024B1A68024B1A60704700BF14E10320BA
:1072B00088E5032070474174704708B5007CFEF7ED
:1072C00035FC20EAE07008BD08B5007CFEF706FC3E
:1072D00020EAE07008BD08B5007CFEF70FFC30EA3C
:1072E000200028BF4FF0FF3008BD08B5007CFEF736
:1072F000FDFB30EA200028BF4FF0FF3008BD007CC6
:10730000FEF704BC10B51421044600F0A8FA20468C
:1073100010BD70B5457C04460E4625B9007CFEF7CD
:1073200005FC002805DD3146207CBDE87040FEF7F5
:10733000CDBB284670BD000010B504460846114676
:10734000002262604FF47A72A260054A2260012234
:10735000207462741A46FEF7B1FB204610BD00BFD0
:10736000F0960D00007CFEF7D9BB000038B50C4D3F
:10737000296811F0010411D12846FCF794FE68B188
:10738000084A094B09482146FFF7D6FF2846FCF773
:107390008FFE074A0749054800F05CFA034838BDEC
:1073A00030E6032034E60320ACE5032098E5032013
:1073B000CCE10320B5720D0041747047704708B5E9
:1073C0000021007CFEF7D2FB30EA200028BF4FF0FE
:1073D000FF3008BD08B50121007CFEF7C7FB30EA8D
:1073E000200028BF4FF0FF3008BD08B5007CFEF735
:1073F000B5FB20EAE07008BD08B5007CFEF7A6FBEF
:1074000020EAE07008BD007CFEF7C0BB10B5142177
:10741000044600F024FA204610BD38B50446007C2E
:107420000D46FEF79BFB002801DC607C28B1294655
:10743000207CFEF7A3FB20EAE07038BD10B50446BF
:10744000002363604FF47A73A360054B236001232C
:107450000846217463741146FEF770FB204610BD88
:1074600020970D0010B514220446002101F08DF87C
:10747000204610BD30B50E4D87B001A8FFF7F2FFD2
:10748000296811F0010410D12846FCF70CFE60B108
:1074900001AA21460748FFF7D1FF2846FCF708FE5E
:1074A000054A0649034800F0D5F9024807B030BD47
:1074B000B8E60320BCE60320CCE10320BD730D0039
:1074C00008B50C4B33B1FFF7D5FF03681B6998472C
:1074D000002809DC084B63B1FFF748FF03681B690C
:1074E0009847002803DC08BDAFF30080F2E7AFF354
:1074F000008008BD000000000000000008B5FFF794
:10750000DFFFFEF7D3F9014B186008BDD8E6032072
:107510000248034A0349121A01F02CB800F4032070
:1075200004F4032090990D0007B5002300931A4638
:107530006FF07701FEF784FB03B05DF804FB0000F9
:1075400007B543880A2B08D0502B09D1094B1B687B
:107550003BB103B05DF804EB1847FFF7E5FF06E029
:10756000002300931A466FF07701FEF769FB03B022
:107570005DF804FBD0E6032038B5104C104D2368AD
:10758000AB42104B0CBF012200221A7002D0FFF751
:10759000BFFF2560FEF77AF9044600F0FFFF0A4BB3
:1075A00013B12046AFF3008000210748FEF7BEFB71
:1075B00000210648BDE83840FEF738BB00F4032040
:1075C0001E1C279AD4E603200000000041750D0020
:1075D00008B5024B1B681B68019308BD5C020300E1
:1075E00008B5024B1B685B68019308BD5C02030091
:1075F00008B5024B1B689B68019308BD5C02030041
:1076000010B5044600F006F9FFF756FC28B1A4F1C6
:107610000B03022B01D8002010BD00F0AFF8FFF7DC
:10762000CEF908B1012CF6D9FFF7A0FEFFF79AFEBC
:1076300018B1A4F10903012BEDD9232C8CBF002034
:10764000012010BD232838B504460D460AD8FF296D
:1076500008D0FFF7D5FF28B129462046BDE83840BD
:10766000FEF774B938BD38B504460D46FEF776F915
:10767000FF2810D0062804D84D2323FA00F0C307B2
:1076800009D42046FFF7BCFF28B129462046BDE8B3
:107690003840FEF76BB938BD10B50446FEF75EF909
:1076A0000438C0B2012808D92046FFF7A9FF20B14D
:1076B0002046BDE81040FEF761B9002010BD0D283E
:1076C00010B504469CBF0E34A4B22046FFF798FFC5
:1076D00050B103212046FEF731F9032804D120469A
:1076E000BDE81040FEF752B9002010BD10B5074CA0
:1076F0002368DB0708D42046FCF7D5FC20B1FEF751
:10770000E5F82046FCF7D4FC014810BDDCE6032078
:10771000E0E6032070B5044614252A46094E0021F0
:1077200000F033FF258020253146A56025612846DD
:1077300000F0AFF831466060284600F0AAF8E0603B
:10774000204670BD48970D0070B5044614252A46A2
:10775000094E002100F019FF258020253146A56043
:107760002561284600F095F831466060284600F013
:1077700090F8E060204670BD48970D0030B50E4D82
:10778000296811F0010487B013D12846FCF78BFC5F
:1077900078B101A8FFF7BEFF01AA21460748FFF70D
:1077A000B7F82846FCF784FC054A0649034800F070
:1077B00051F8024807B030BDE4E60320FCE60320A0
:1077C000CCE10320B9680D0010B50E4C2368DB072F
:1077D00086B013D42046FCF766FC78B101A8FFF709
:1077E000B3FF01AA01210848FFF792F82046FCF7F1
:1077F0005FFC064A0649044800F02CF8024806B02F
:1078000010BD00BF10E70320E8E60320CCE1032011
:10781000B9680D0038B50B4D296811F001040FD17E
:107820002846FCF740FC58B121460748FFF736FBD5
:107830002846FCF73DFC054A0549034800F00AF8D4
:10784000014838BD20E7032014E70320CCE10320E2
:107850008D6E0D000B460146184600F085BDFCF705
:107860001EBC0000024B1868BFF35F8F704700BF5B
:1078700024E7032010B5002814BF04460124204645
:10788000FEF7ACFA20B9FFF7EDFF08B18047F6E745
:1078900010BDFFF7EFBF08B5FEF7C8FA244B1A6812
:1078A000D0075CBF01221A60224B1A68D1075CBF67
:1078B00001221A60204B1A68D2075CBF01221A60AD
:1078C0001E4B1A68D0075CBF01221A601C4B1A6855
:1078D000D1075CBF01221A601A4B1A68D2075CBF3D
:1078E00001221A60184B1A68D0075CBF01221A6087
:1078F000164B1A68D1075CBF01221A60144B1A6834
:10790000D2075CBF01221A60124B1A68D0075CBF15
:1079100001221A60104B1A68D1075CBF01221A605D
:107920000E4B1A68D2075CBF01221A60704700BF75
:1079300054E7032050E703204CE7032048E70320E7
:1079400044E7032040E703203CE7032038E7032017
:1079500034E7032030E703202CE7032028E7032047
:10796000184B1A68D1075CBF01221A60164B1A68BF
:10797000D2075CBF01221A60144B1A68D0075CBFA3
:1079800001221A60124B1A68D1075CBF01221A60EB
:10799000104B1A68D2075CBF01221A600E4B1A689E
:1079A000D0075CBF01221A600C4B1A68D1075CBF7C
:1079B00001221A600A4B1A68D2075CBF01221A60C2
:1079C000704700BF74E7032070E703206CE70320D3
:1079D00068E7032064E7032060E703205CE70320F7
:1079E00058E70320184B1A68D1075CBF01221A60C0
:1079F000164B1A68D2075CBF01221A60144B1A6832
:107A0000D0075CBF01221A60124B1A68D1075CBF15
:107A100001221A60104B1A68D2075CBF01221A605B
:107A20000E4B1A68D0075CBF01221A600C4B1A6813
:107A3000D1075CBF01221A600A4B1A68D2075CBFEB
:107A400001221A60704700BF94E7032090E70320EB
:107A50008CE7032088E7032084E7032080E70320E6
:107A60007CE7032078E70320244B1A68D0075CBF2B
:107A700001221A60224B1A68D1075CBF01221A60EA
:107A8000204B1A68D2075CBF01221A601E4B1A688D
:107A9000D0075CBF01221A601C4B1A68D1075CBF7B
:107AA00001221A601A4B1A68D2075CBF01221A60C1
:107AB000184B1A68D0075CBF01221A60164B1A686F
:107AC000D1075CBF01221A60144B1A68D2075CBF51
:107AD00001221A60124B1A68D0075CBF01221A609B
:107AE000104B1A68D1075CBF01221A600E4B1A684E
:107AF000D2075CBF01221A60704700BFC4E70320B1
:107B0000C0E70320BCE70320B8E70320B4E7032065
:107B1000B0E70320ACE70320A8E70320A4E7032095
:107B2000A0E703209CE7032098E7032081F00041B1
:107B300002E000BF83F0004330B54FEA41044FEA52
:107B4000430594EA050F08BF90EA020F1FBF54EAED
:107B5000000C55EA020C7FEA645C7FEA655C00F089
:107B6000E2804FEA5454D4EB5555B8BF6D420CDD5A
:107B70002C4480EA020281EA030382EA000083EADD
:107B8000010180EA020281EA0303362D88BF30BD7D
:107B900011F0004F4FEA01314FF4801C4CEA1131D3
:107BA00002D0404261EB410113F0004F4FEA033332
:107BB0004CEA133302D0524263EB430394EA050FBD
:107BC00000F0A780A4F10104D5F1200E0DDB02FA2C
:107BD0000EFC22FA05F2801841F1000103FA0EF2C0
:107BE000801843FA05F359410EE0A5F120050EF186
:107BF000200E012A03FA0EFC28BF4CF0020C43FAB7
:107C000005F3C01851EBE37101F0004507D54FF0C3
:107C1000000EDCF1000C7EEB00006EEB0101B1F513
:107C2000801F1BD3B1F5001F0CD349085FEA300059
:107C30004FEA3C0C04F101044FEA445212F5800F64
:107C400080F09A80BCF1004F08BF5FEA500C50F101
:107C5000000041EB045141EA050130BD5FEA4C0CE4
:107C6000404141EB010111F4801FA4F10104E9D16D
:107C700091F0000F04BF01460020B1FA81F308BF64
:107C80002033A3F10B03B3F120020CDA0C3208DD30
:107C900002F1140CC2F10C0201FA0CF021FA02F10B
:107CA0000CE002F11402D8BFC2F1200C01FA02F17B
:107CB00020FA0CFCDCBF41EA0C019040E41AA2BFA0
:107CC00001EB0451294330BD6FEA04041F3C1CDA68
:107CD0000C340EDC04F11404C4F1200220FA04F088
:107CE00001FA02F340EA030021FA04F345EA030132
:107CF00030BDC4F10C04C4F1200220FA02F001FAF4
:107D000004F340EA0300294630BD21FA04F0294675
:107D100030BD94F0000F83F4801306BF81F480110E
:107D20000134013D4EE77FEA645C18BF7FEA655C81
:107D300029D094EA050F08BF90EA020F05D054EA53
:107D4000000C04BF1946104630BD91EA030F1EBF58
:107D50000021002030BD5FEA545C05D1400049415C
:107D600028BF41F0004130BD14F580043CBF01F54F
:107D7000801130BD01F0004545F0FE4141F4700135
:107D80004FF0000030BD7FEA645C1ABF1946104610
:107D90007FEA655C1CBF0B46024650EA013406BF11
:107DA00052EA033591EA030F41F4002130BD00BFD0
:107DB00090F0000F04BF0021704730B54FF480648D
:107DC00004F132044FF000054FF0000150E700BF0E
:107DD00090F0000F04BF0021704730B54FF480646D
:107DE00004F1320410F0004548BF40424FF000015A
:107DF0003EE700BF42004FEAE2014FEA31014FEA9D
:107E000002701FBF12F07F4393F07F4F81F06051EB
:107E1000704792F0000F14BF93F07F4F704730B55A
:107E20004FF4607401F0004521F0004120E700BFED
:107E300050EA010208BF704730B54FF000050AE074
:107E400050EA010208BF704730B511F0004502D575
:107E5000404261EB41014FF4806404F132045FEA77
:107E6000915C3FF4DCAE4FF003025FEADC0C18BF1C
:107E700003325FEADC0C18BF033202EBDC02C2F112
:107E8000200300FA03FC20FA02F001FA03FE40EAA4
:107E90000E0021FA02F11444C1E600BF70B54FF0A4
:107EA000FF0C4CF4E06C1CEA11541DBF1CEA135586
:107EB00094EA0C0F95EA0C0F00F0DEF82C4481EAEE
:107EC000030621EA4C5123EA4C5350EA013518BF0E
:107ED00052EA033541F4801143F4801338D0A0FBFB
:107EE00002CE4FF00005E1FB02E506F00042E0FBA8
:107EF00003E54FF00006E1FB03569CF0000F18BFAE
:107F00004EF0010EA4F1FF04B6F5007F64F5407455
:107F100004D25FEA4E0E6D4146EB060642EAC621E8
:107F200041EA55514FEAC52040EA5E504FEACE2E55
:107F3000B4F1FD0C88BFBCF5E06F1ED8BEF1004F58
:107F400008BF5FEA500E50F1000041EB045170BDD4
:107F500006F0004646EA010140EA020081EA030118
:107F6000B4EB5C04C2BFD4EB0C0541EA045170BD14
:107F700041F480114FF0000E013C00F3AB8014F18E
:107F8000360FDEBF002001F0004170BDC4F10004D7
:107F9000203C35DA0C341BDC04F11404C4F1200558
:107FA00000FA05F320FA04F001FA05F240EA0200B3
:107FB00001F0004221F0004110EBD37021FA04F6E9
:107FC00042EB06015EEA430E08BF20EAD37070BDA3
:107FD000C4F10C04C4F1200500FA04F320FA05F002
:107FE00001FA04F240EA020001F0004110EBD37004
:107FF00041F100015EEA430E08BF20EAD37070BD74
:10800000C4F1200500FA05F24EEA020E20FA04F34C
:1080100001FA05F243EA020321FA04F001F00041FB
:1080200021FA04F220EA020000EBD3705EEA430E6C
:1080300008BF20EAD37070BD94F0000F0FD101F09B
:108040000046400041EB010111F4801F08BF013CD4
:10805000F7D041EA060195F0000F18BF704703F012
:108060000046520043EB030313F4801F08BF013D99
:10807000F7D043EA0603704794EA0C0F0CEA135555
:1080800018BF95EA0C0F0CD050EA410618BF52EA0F
:108090004306D1D181EA030101F000414FF0000015
:1080A00070BD50EA410606BF1046194652EA430623
:1080B00019D094EA0C0F02D150EA013613D195EA97
:1080C0000C0F05D152EA03361CBF104619460AD1DF
:1080D00081EA030101F0004141F0FE4141F47001E9
:1080E0004FF0000070BD41F0FE4141F4780170BDD9
:1080F00070B54FF0FF0C4CF4E06C1CEA11541DBF3E
:108100001CEA135594EA0C0F95EA0C0F00F0A7F83F
:10811000A4EB050481EA030E52EA03354FEA01316C
:1081200000F088804FEA03334FF0805545EA13137F
:1081300043EA12634FEA022245EA111545EA106547
:108140004FEA00260EF000419D4208BF964244F1DE
:10815000FD0404F5407402D25B084FEA3202B61AFD
:1081600065EB03055B084FEA32024FF480104FF4D1
:10817000002CB6EB020E75EB030E22BFB61A754645
:1081800040EA0C005B084FEA3202B6EB020E75EBD8
:10819000030E22BFB61A754640EA5C005B084FEA40
:1081A0003202B6EB020E75EB030E22BFB61A75460D
:1081B00040EA9C005B084FEA3202B6EB020E75EB18
:1081C000030E22BFB61A754640EADC0055EA060ED9
:1081D00018D04FEA051545EA16754FEA06164FEA1C
:1081E000C30343EA52734FEAC2025FEA1C1CC0D1C8
:1081F00011F4801F0BD141EA00014FF000004FF055
:10820000004CB6E711F4801F04BF01430020B4F115
:10821000FD0C88BFBCF5E06F3FF6AFAEB5EB030CCD
:1082200004BFB6EB020C5FEA500C50F1000041EBCA
:10823000045170BD0EF0004E4EEA113114EB5C0497
:10824000C2BFD4EB0C0541EA045170BD41F480116A
:108250004FF0000E013C90E645EA060E8DE60CEA72
:10826000135594EA0C0F08BF95EA0C0F3FF43BAF8F
:1082700094EA0C0F0AD150EA01347FF434AF95EA46
:108280000C0F7FF425AF104619462CE795EA0C0F2A
:1082900006D152EA03353FF4FDAE1046194622E7F7
:1082A00050EA410618BF52EA43067FF4C5AE50EAD1
:1082B00041047FF40DAF52EA43057FF4EBAE12E7C1
:1082C0004FEA4102B2F1E04324BFB3F5001CDCF1F8
:1082D000FE5C0DD901F0004C4FEAC0024CEA507030
:1082E000B2F1004F40EB830008BF20F0010070475F
:1082F00011F0804F21D113F13872BCBF01F0004062
:10830000704741F480114FEA5252C2F11802C2F193
:10831000200C10FA0CF320FA02F018BF40F0010014
:108320004FEAC1234FEAD32303FA0CFC40EA0C00C6
:1083300023FA02F34FEA4303CCE77FEA625307D103
:1083400050EA01331EBF4FF0FE4040F4400070473A
:1083500001F0004040F0FE4040F40000704700BFD4
:108360000A22002100F026BA10B5054C13462CB1A4
:108370000A4601460220AFF3008010BD204610BD22
:108380000000000038B5074B1C68E36B05461BB9BD
:108390002420FDF723FDE063E16B2846BDE838406B
:1083A00000F002B87CE103202DE9F0410C46804644
:1083B00000F006FD21460746404600F005FD4669EF
:1083C00006F26C76B307044605D1642296FBF2F3FD
:1083D00002FB13634BB94FF4C87596FBF5F305FB2D
:1083E0001365B5FA85F35B0900E001235F4A302588
:1083F00005FB032500F018FB00F018FB5C4B1B6825
:10840000F3B17B689E4205D13968D8F80030FA692B
:1084100041B90AE0304600F05FFA0028F4D14FF08D
:10842000FF330DE0934208DB01E0934207DABA6BB9
:108430009342ACBF0023012302E0002300E00123AC
:108440002362236A012B0CBFF96B396A4FF4616315
:108450003C2091FBF3F603FB1613616893FBF0F2EB
:1084600000FB12302368891AA26861601B1A921BF4
:108470003B2B2360A26003DD013161603C3B04E0E3
:10848000002B03DA013961603C33236063683B2BC6
:1084900003DD0132A2603C3B04E0002B03DA013A29
:1084A000A2603C336360A368172B22DDE2690132CE
:1084B000E261A2690132062AC8BF0022A261E26815
:1084C000183B0132A3602369E26055F823108A4209
:1084D00046DD01330C2B0CBF63692361A2EB010263
:1084E000E26001BF013300222261636108BFE261E3
:1084F00036E0002B34DAE269013AE261A269013A1E
:1085000048BF0622A261E2681833013AE260A36024
:1085100032BB2369013B01D423611DE00B2323619E
:1085200063695A1E12F0030F626103F26B7305D187
:10853000642193FBF1F201FB12324AB94FF4C87186
:1085400093FBF1F201FB1233B3FA83F35B0900E012
:10855000012303F5B673E361236955F82330E36023
:1085600000F063FA2046BDE8F08100BFAC980D0032
:10857000E4E7032010B5431E0A44914204D011F8E9
:10858000014B03F8014FF8E710BD02440346934244
:1085900002D003F8011BFAE77047000038B5124B10
:1085A0001C68A36B0546D3B91820FDF717FC43F2EE
:1085B0000E33A06303804AF6CD33438041F2342367
:1085C00083804EF26D63C3804DF6EC630381052317
:1085D00043810B23838101220023C0E90423A36B81
:1085E00000221D615A6138BD7CE1032010F8012B87
:1085F00011F8013B012A28BF9A42F7D0D01A7047E0
:10860000034611F8012B03F8012B002AF9D170471A
:10861000024B0146186800F003B800BF7CE103205C
:1086200070B5064608460C4600F00DF8451C294674
:108630003046FDF703FC064618B12A462146FFF7EF
:1086400099FF304670BD034613F8012B002AFBD179
:10865000181A0138704730B582B1451E013915F836
:10866000013F11F8014FA34206D1EC431444E0420C
:1086700001D0002BF3D11C46181B30BD104630BD75
:1086800010B5034642B111F8014B03F8014B013A12
:10869000002CF7D11A4400E010BD934202D003F839
:1086A000014BFAE710BD00002DE9F0478046404835
:1086B000D0F800900F463D4615F8014B09EB040039
:1086C000407800F0080000F0FF0608B12F46F2E7FE
:1086D0002D2C03D1BD1C7C78012603E02B2C04BF7C
:1086E0007C78BD1C13B1102B0AD15BE0302C57D124
:1086F000287800F0DF0058284DD16C78102302351F
:10870000002E14BF4FF0004C6FF0004C0027BCFB54
:10871000F3FA384603FB1ACC09EB040E9EF801E08D
:108720001EF0040F01D0303C0BE01EF0030E1BD0F6
:10873000BEF1010F0CBF4FF0370E4FF0570ECEEBCE
:108740000404A34210DDB7F1FF3F0AD0504506D81C
:1087500001D1644503DC03FB0040012701E04FF039
:10876000FF3715F8014BD7E77B1C0CD1002E4FF0DB
:10877000220314BF4FF000406FF00040C8F80030F3
:108780002AB9BDE8F08706B1404272B107B1691E4F
:108790001160BDE8F0873024002BB1D10823AFE78A
:1087A0000A23ADE7302CA3D0AAE7BDE8F08700BFCD
:1087B00018E1032013460A46014602480068FFF705
:1087C00073BF00BF7CE103202DE9F04780463C48A1
:1087D000D0F800900E46354615F8014B09EB040021
:1087E000407800F0080000F0FF0708B12E46F2E7DD
:1087F0002D2C03D1B51C7478012703E02B2C04BF6A
:108800007478B51C13B1102B0AD153E0302C4FD122
:10881000287800F0DF00582845D16C781023023505
:108820004FF0FF3C0026BCFBF3FC03FB0CFA6FEAA5
:108830000A0A304609EB040E9EF801E01EF0040F10
:1088400001D0303C0BE01EF0030E1AD0BEF1010F38
:108850000CBF4FF0370E4FF0570ECEEB0404A3427F
:108860000FDD002E08DB604506D801D1544503DC3E
:1088700003FB0040012601E04FF0FF3615F8014BE5
:10888000D8E7002E07DA2223C8F800304FF0FF3077
:108890002AB9BDE8F08707B1404272B106B1691E3E
:1088A0001160BDE8F0873024002BB9D10823B7E769
:1088B0000A23B5E7302CABD0B2E7BDE8F08700BFA4
:1088C00018E1032013460A46014602480068FFF7F4
:1088D0007BBF00BF7CE103202DE9F74F044600F089
:1088E0006FFA40F2B1739C4240F396806FF4F663E6
:1088F000E318A4F2B2729B1040F26D1505FB02352D
:10890000A4F26D726FF0630392FBF3F36FF4C8622D
:108910002B44A5184FF4C87295FBF2F51D4464234F
:1089200094FBF2F794FBF3F602FB174703FB1646A2
:1089300000F13803B7FA87FE019304F003034460A3
:108940004FEA5E1E014600934FF0070C0B7A4A2B4C
:108950000ED14B69009AEC1802B906B927B93B2B26
:10896000D4BF0023012300E000232344013B3FE068
:10897000442B02D14B692B443AE0009B2BB9002ECB
:108980000CBFF0464FF0010800E0F046244BCC68E5
:10899000302202FB0838A8F1040AA9460123A342A9
:1089A00004DA5AF804BF0133D944F8E709F10403A3
:1089B00093FBFCFBCBEBCB0A012CCAEB030A4B6904
:1089C000B8BF012404F18044B3EB0A0A0B6904F137
:1089D000FF3403F1FF3348BF0AF1070AC3EBC303B7
:1089E00058F824405344A34201DB073BFBE74B44C8
:1089F0008C690C4A02FB03430C6A234441F81C3F78
:108A0000019B9942A2D1C369826B9342ACBF002300
:108A100001230360012000E0002003B0BDE8F08FD7
:108A2000AC980D008051010070477047014B1868E9
:108A300000F002B87CE103202DE9F04F8DB007462D
:108A400000F0BEF9B049B14E0446384600F0B0F926
:108A5000054660B9AE4BAF4A1860AF4B1860AF4BDC
:108A600030681A605A60FDF7C1F9356048E1316835
:108A700079B93068FDF7BAF92846FFF7E4FD411CE3
:108A80003846FDF7DBF9306048B12946FFF7B8FDFD
:108A900005E0FFF7ABFD002800F03281E9E72B7815
:108AA0009F4AA0493A2B08BF01350AAE33462846F3
:108AB000FDF7ACF9002840F323810A9BEF18EB5C2B
:108AC0002D2B03D101374FF0FF3503E02B2B08BFCF
:108AD000013701250DF1200A0DF11E0B4FF00008A2
:108AE0000396CDF808A00196CDF800B0334607AA4A
:108AF0008D49ADF81E803846ADF82080FDF786F927
:108B0000404540F3FD80BDF81E20BDF82030DFF861
:108B100024923C2101FB0233BDF81C204FF461611B
:108B200001FB02335D4325627C4D7D4B2B600A9B2C
:108B30007C491F444A4633463846FDF767F94045AD
:108B400008DC2B686B60724B226A1A60724BC3F8A8
:108B50000080D5E00A9BC5F80490FD18FB5C2D2B26
:108B600003D101354FF0FF3703E02B2B08BF013550
:108B700001270023ADF81C30ADF81E30ADF82030D1
:108B80000A930396CDF808A00196CDF800B03346BD
:108B900007AA65492846FDF739F9002804DC236A4D
:108BA000A3F56163E3630EE0BDF81E20BDF820303D
:108BB0003C2101FB0233BDF81C204FF4616101FB35
:108BC00002335F43E7630A9B27461D444FF00009C9
:108BD0002B782C2B08BF013595F80080B8F14D0F8C
:108BE00026D10DF12603029309AB0093039601965B
:108BF00033460DF122024D492846FDF707F90328B7
:108C00007ED1BDF822104B1E0B2B79D8BDF8242045
:108C1000531E042B74D8BDF82630062B70D887F865
:108C20000880F9603A617B610A9B05EB03082AE042
:108C3000B8F14A0F06BF0135434644230A220BA967
:108C400028460593FFF73EFEDDF82C80ADF82600A0
:108C50004545059B14D14D23B9F1000F07D123726F
:108C60000323E36002232361C4F814900BE084F82B
:108C700024300B23A3620123E3620023236302E079
:108C800080B23B7278610223ADF81C300023ADF84E
:108C90001E30ADF820300A9398F800302F2B0BD1FE
:108CA0000396CDF808A00196CDF800B0334607AA88
:108CB0001F494046FDF7AAF8BDF81E20BDF8203038
:108CC0003C2101FB0233BDF81C204FF4616101FB24
:108CD0000233BB610A9D09F10109B9F1020F454454
:108CE00007F11C077FF474AF6068FFF7F5FD084BD0
:108CF000226A1A60E36B9B1A074A18BF01231360AC
:108D00000DB0BDE8F08F00BF0C990D00E0E7032027
:108D1000E8E703200F990D00E4E7032080E103203A
:108D2000D3E7032013990D0036990D0022990D0009
:108D300035990D00C8E703202DE9F84F07468B460B
:108D4000904600F0D9F8194B1D689A463DB15C4633
:108D5000234613F8012B42B13D2A1C46F8D1384670
:108D600000F0CBF80020BDE8F88FCBEB0404A94657
:108D700059F8040B0028F2D022465946FFF76BFC45
:108D800088B959F8043C1E191B5D3D2B0BD1DAF84C
:108D90000030ED1AAD103846C8F8005000F0ADF8BC
:108DA000701CBDE8F88F4D46E1E700BFC8E1032025
:108DB00007B501AAFFF7C0FF03B05DF804FB000090
:108DC0000048704788E103200268474BF0B592FBEA
:108DD000F3F403FB1422002ABCBF02F5A83202F50B
:108DE000C0724FF4616004F52F2492FBF0F300FB96
:108DF00013224FF03C00ACBF04F66C2404F66B2445
:108E00008B6092FBF0F300FB13224B600A60072398
:108E1000E21C92FBF3F3C3EBC303D31A8B61334B16
:108E2000334D94FBF5F503FB054448F6AC62B4FB07
:108E3000F2F2224440F2B457B4FBF7F3D21A2D48B1
:108E4000B4FBF0F048F69466131AB3FBF6F634441C
:108E500040F26D12B3FBF2F0B3FBF7F3E31A02FB3F
:108E60001033992403EB83020232B2FBF4F20A2A94
:108E700004FB02F404F102064FF00504B6FBF4F41F
:108E800034BF02266FF0090616444FF4C87202FB85
:108E900005055F1C012E98BF0135B3F5997FA7EB3F
:108EA000040702D3A3F5997214E0820705D1642464
:108EB000B0FBF4F204FB12024AB94FF4C872B0FBE3
:108EC000F2F402FB1400B0FA80F2520900E0012231
:108ED0003B331A44A5F26C750023CA614D610E61E3
:108EE000CF600B620846F0BD805101004FC5FDFF09
:108EF000B13A0200B03A02007047704721400D00BD
:108F00005D400D0089400D008D400D000000000007
:108F100053746172747570205375636365737366FF
:108F2000756C000000000000000000000000000060
:108F30000000000000000000000000000000000031
:108F40000000000000000000000000000000000021
:108F500002000000257320533A25322E3066252565
:108F60002C20513A25322E30662525200025342E1E
:108F7000316620430025342E316620252500253416
:108F80002E3166206C757800256920252500415416
:108F90002B4346554E3D31360D0A007B2254656DFC
:108FA0007065726174757265223A25342E31662CB3
:108FB000202248756D6964697479223A25342E310E
:108FC000662C20224C696768744C6576656C223A81
:108FD00025342E31662C2022536F696C6D6F6973B6
:108FE0007475726531223A25692C2022536F696CA1
:108FF0006D6F69737475726532223A25692C20226F
:1090000077617465725072657373757265223A2563
:10901000692C2022536F6C656E6F6964223A256952
:109020002C202242617474657279223A25692C20C1
:1090300022526573657473223A25692C2022416C93
:1090400065727473223A25697D005277616E64619E
:109050002D53656E73652D416E642D436F6E747272
:109060006F6C005277616E64612D53656E73652D70
:10907000416E642D436F6E74726F6C2D456C61731D
:10908000746963004E6F20446174610055626964C5
:109090006F747320486F6F6B00526573706F6E73DF
:1090A0006520526563656976656400556E6B6E6F09
:1090B000776E20726573706F6E736520726563657D
:1090C000766965642025690053657420536F6C616F
:1090D0007220506F7765726564204D6F6465004340
:1090E0006F6E666967003000436C6561726564206D
:1090F000536F6C617220506F7765726564204D6F9D
:109100006465004E6F20536F696C2053656E736FFA
:109110007273004F6E6520536F696C2053656E73D8
:109120006F720054776F20536F696C2053656E73B4
:109130006F7273004E6F2050726573737572652085
:1091400053656E736F72005072657373757265202C
:1091500053656E736F722050726573656E74004E46
:109160006F204C696768742053656E736F72004C92
:10917000696768742053656E736F722050726573EF
:10918000656E74004E6F2054656D70202F204875F9
:109190006D69646974792053656E736F72205072C3
:1091A0006573656E740059657300796573006E6F41
:1091B000004E6F004E6F20536F6C656E6F696420B8
:1091C000417474616368656400486F6C642054691D
:1091D0006D652073657420746F202569206D53655B
:1091E000630053657420566572626F7365204D6F1E
:1091F000646500436C656172656420566572626FD8
:109200007365204D6F6465004C6F7720506F7765F4
:1092100072204D6F6465004E6F726D616C204F70EF
:1092200065726174696F6E73004F6E004F70656E8A
:10923000207468652056616C7665005761746572AC
:10924000696E67004F666600436C6F7365207468D3
:10925000652076616C76650046726F6D20257320FF
:10926000746F202573005374617465205472616EAD
:10927000736974696F6E00737061726B2F646576C9
:109280006963652F73657373696F6E2F656E640014
:1092900054616B696E672061204E61700053746188
:1092A0007465004C6F772042617474657279202D6B
:1092B00020536C656570696E67004572726F72202D
:1092C0005374617465202D20526573657400457276
:1092D000726F72205374617465202D20506F776512
:1092E00072204379636C65004572726F722053740B
:1092F000617465202D2046756C6C204D6F64656D22
:10930000205265736574004572726F722074616BD0
:10931000696E67204D6561737572656D656E7473F6
:10932000005369676E616C005265736574436F75B5
:109330006E740052656C6561736500537461746589
:109340004F6643686700506F776572436F6E746550
:109350007874004C6F77506F7765724D6F6465005D
:1093600054656D70657261747572650048756D69DC
:1093700064697479004C756D696E6F7369747900F6
:10938000536F696C4D6F6973747572653100536FFB
:10939000696C4D6F697374757265320050726573D4
:1093A00073757265004D6561737572652D4E6F77CB
:1093B00000536F6C61722D4D6F646500566572626B
:1093C0006F73652D4D6F646500536574486F6C64F1
:1093D00054696D6500536574536F696C53656E73A2
:1093E0006F72730053657450726573737572655351
:1093F000656E736F72005365744C6967687453656A
:109400006E736F7200536F6C656E6F696450726536
:1094100073656E740053657454656D7048756D693D
:109420006453656E736F72004661696C6564207485
:109430006F20636F6E6E6563740053746172747530
:109440007000556E6B6E6F776E004E6F6E650057D5
:109450006946690047534D00554D54530043444DF0
:1094600041004C544500494545453830323135348A
:109470000031390000000000000000000000000082
:10948000375F0D002D5F0D00235F0D00D95E0D00CD
:10949000175F0D000B5F0D00FF5E0D00F75E0D0006
:1094A000ED5E0D00E35E0D00C56C0D0000000000D8
:1094B00000000000E55F0D0045600D00E75F0D0056
:1094C00089600D00ED5F0D0055600D0019600D0005
:1094D00013610D00FCFFFFFF000000003D610D0067
:1094E000000000000000000045610D004B610D0010
:1094F000A1610D0059610D0047610D0000000000E1
:1095000000000000B7670D00AD670D00A3670D00F8
:1095100099670D008D670D0081670D0075670D005F
:109520006D670D0063670D0059670D00C56C0D0078
:109530000000000000000000B9680D0003690D0084
:10954000DB680D00BB680D00E3680D00EB680D00E3
:10955000F3680D00FB680D00000000000000000033
:10956000FB690D00EB690D00ED690D00626175642A
:109570000053657269616C0053657269616C3100FA
:109580007479706500706172616D00636D6400696B
:109590006400686E64007374726D0066696C7400B8
:1095A0006C766C0061646448616E646C6572007214
:1095B000656D6F766548616E646C657200656E7589
:1095C0006D48616E646C657273004A534F4E5374FC
:1095D0007265616D4C6F6748616E646C65720061A5
:1095E000707000253031307520005D20002564004A
:1095F0002C200028293A2000205B00636F6465203E
:109600003D200064657461696C73203D20006C6EC0
:1096100000666E00636F64650064657461696C0068
:109620006E6F6E6500747261636500696E666F00CF
:109630007761726E006572726F720070616E69633D
:1096400000616C6C000000000000000000000000E1
:109650003F6B0D00356B0D002B6B0D00216B0D006A
:10966000156B0D00096B0D00FD6A0D00F56A0D000C
:10967000EB6A0D00E16A0D00C56C0D0000000000F2
:10968000000000005D6C0D00676C0D00716C0D003A
:109690007B6C0D00856C0D00916C0D009D6C0D00B8
:1096A000A96C0D00B16C0D00BB6C0D00C56C0D00FC
:1096B00000000000000000008D6E0D008F6E0D0098
:1096C000252B3033643A253032750025592D256D10
:1096D0002D25645425483A254D3A2553257A0061B5
:1096E000736374696D6500000000000000000000F5
:1096F000B5720D0005730D0013730D00A56D0D00FF
:10970000C9720D00EB720D00D7720D00FF720D00D3
:10971000B7720D00BB720D000000000000000000D9
:10972000BD730D000D740D001B740D00A56D0D00B3
:10973000F9730D00BF730D00D5730D0007740D0094
:10974000EB730D00B9730D000000202020202020B5
:1097500020202028282828282020202020202020E1
:1097600020202020202020202020881010101010E1
:109770001010101010101010101004040404040431
:109780000404040410101010101010414141414114
:109790004101010101010101010101010101010179
:1097A000010101010110101010101042424242420A
:1097B0004202020202020202020202020202020249
:1097C000020202020210101010200000000000002F
:1097D0000000000000000000000000000000000089
:1097E0000000000000000000000000000000000079
:1097F0000000000000000000000000000000000069
:109800000000000000000000000000000000000058
:109810000000000000000000000000000000000048
:109820000000000000000000000000000000000038
:109830000000000000000000000000000000000028
:109840000000000000000000000000000000000018
:109850000000000000000000000000000000000008
:1098600000000000000000000000000000000000F8
:1098700000000000000000000000000000000000E8
:1098800000000000000000000000000000000000D8
:1098900000000000000000000000000000000000C8
:1098A0000000000000000000000000001F00000099
:1098B0001C0000001F0000001E0000001F00000030
:1098C0001E0000001F0000001F0000001E0000001E
:1098D0001F0000001E0000001F0000001F0000000D
:1098E0001D0000001F0000001E0000001F000000FF
:1098F0001E0000001F0000001F0000001E000000EE
:109900001F0000001E0000001F000000545A004706
:109910004D54002531305B5E302D392C2B2D5D25CB
:109920006E004D256875256E2E256875256E2E25D1
:109930006875256E002F256875256E3A2568752592
:109940006E3A256875256E0081540D003B560D005A
:10995000E9570D00B15E0D00B55F0D00C1670D0048
:10996000D16A0D000D6C0D00916D0D00716E0D0032
:1099700075710D00A1720D009D780D0061790D00CB
:10998000E5790D00697A0D0000000000000000007C
:0499900000000000D3
:10999400496E697469616C697A65000000004572FA
:1099A400726F7200000000000000000049646C65E2
:1099B400000000000000000000004D656173757236
:1099C400696E6700000000005761746572696E6714
:1099D4000000000000005265706F7274696E6700C9
:1099E40000000000526573706F6E736520576169E3
:1099F40074004E617070696E670000000000000022
:109A04004C6F772042617474657279000000010024
:109A140042940D004A940D004F940D0054940D008F
:109A240058940D005D940D0062940D0066940D0031
:109A3400DF960D0049970D00000000004C980D00C2
:109A44006C980D008C980D000000000000000000D0
:109A54000000000000000000738F0D0000000000F3
:109A640000000000000000000000000000000000F2
:109A740000000000000000000000000000000000E2
:109A840000000000000000000000000000000000D2
:109A940000000000000000001CE103200F990D00ED
:109AA4000F990D0001000000000000004A000000B2
:109AB40000000000000000000000000000000000A2
:109AC40000000000000000004A0000000000000048
