:02000002D0002C
:1040000000400D0058A20D00000006000D00050143
:084010000401DE0500000000C0
:0440180098950D006A
:1040200009480A49884208B505D0094A824202D0A7
:10403000121A04F0EDFD0748074A0021121A04F095
:10404000F2FD014808BD00BF58E00320F4A00D00B8
:1040500090E1032090E10320F0E7032070B503F026
:1040600051FD074C074BE41AA40800251E46A54243
:1040700004D056F8253098470135F8E770BD00BFE9
:10408000ECA00D00ACA00D0001F0E6B908B500F001
:1040900003FFBDE8084003F0F7BC02F043B902F0AB
:1040A00049B902F047B90078B0FA80F0400970478A
:1040B0000123037070470000014B01221A70704702
:1040C00030E20320024A01239371024A13707047C1
:1040D0000CE30320D1E1032003681847012A02D032
:1040E000022A02D004E0016002E00B6800B1036024
:1040F0000020704738B50446006928B185680C2156
:1041000003F073FE2846F8E7204638BD08B5044999
:1041100003F091F918B1034B03221A70012008BD76
:10412000A49B0D00D2E10320436913B183690C30D5
:104130001847704713B500210446084601F0D6FD24
:1041400002A90023204641F8043D01F0E7FD019C4F
:104150000CB1012323710021012001F0C7FD2CB116
:10416000236820469B6898470023237102B010BD46
:1041700037B59DF8184023438DF800303C230546A1
:1041800002F002FC284603B030BD10B504460068BA
:1041900008B102F0CFF8204610BD10B58368044680
:1041A00013B1032201469847204610BD30B585B0B3
:1041B0000D4604A9002241F8102D01F087FFD8B95F
:1041C000009CE388012B04D001460C4A0A2001F030
:1041D0006DFF216919B9094A0A2001F067FF002320
:1041E00001930C23ADF80430042303930295236953
:1041F00001AA01212046984705B030BDAD5D0D00F4
:104200000368D86820B183888B4201D08068F9E7C1
:10421000704708B52DED028BB0EE408A28B1013809
:10422000FFF7F7FF28EE000A01E0B7EE000ABDEC49
:10423000028B08BDF0B500258E46154905718560D5
:1042400045610160044692E8030085B002AF04F1C5
:104250000C0687E8030096E8030082E8030097E86D
:10426000030086E803009168606990606161D1682D
:10427000A069D060A1618DE82800064A23467146F6
:1042800004F1080001F03AFD204605B0F0BD00BF82
:10429000B4950D0035410D0007B58068002338B195
:1042A0008DE80A00022101F041FDB0FA80F04009DA
:1042B00003B05DF804FB000038B5104B0360836861
:1042C0000446A3B16FF000410022FFF7E5FF002193
:1042D000A06801F043FD237903F0FF0513B101F05D
:1042E000EDFCF8E72946A06801F010FDA56004F197
:1042F0000C00FFF752FF204638BD00BFB4950D00FB
:1043000010B50446FFF7D8FF20461C2103F06DFDD1
:10431000204610BD37B5054600220C461146FFF772
:10432000BBFFA868002340B1019300941A461946C8
:1043300001F0FCFCB0FA80F0400903B030BD000091
:1043400030B5194D0FCD99B004AC0FC40FCD0FC4CB
:1043500095E8030084E8030014490EA802F094F8DD
:104360000EA802F0E4F804460EA802F031F90EA8F7
:1043700010EE105A02F012F918AB10EE100A03EB0F
:10438000840403F0FDFFCDE90201284603F0F8FFA5
:10439000CDE90001064A54F8503C0648402101F09E
:1043A000E1FF19B030BD00BFC0950D0030E3032020
:1043B00048960D0070E2032030B50E4D0FCD89B048
:1043C00001AC0FC495E8070084E8070069460720A0
:1043D000FFF7ECFE0028A8BF0098074A08AB03EBE4
:1043E0008000102150F81C3C044801F0BBFF09B0CC
:1043F00030BD00BFE8950D002F990D00C1E10320ED
:104400007FB5584D584C2B7B83B1584801F020FCA8
:10441000564884ED050A01F029FCD4ED057A84EDB7
:10442000060AF4EE677AF1EE10FA02D70023A361D0
:10443000636160694C4E03F0A3FF4D4ACDE9000172
:1044400010214C4801F08EFFA06903F099FF4A4A01
:10445000CDE900011021494801F084FF2B7C43B1D4
:10446000474801F01FFB464801F0D6FA86ED070ADF
:1044700001E00023F361E0693B4E03F081FF414A14
:10448000CDE900011021404801F06CFFAB7B63B126
:10449000132003F0DAFB64230093002340F68A62C2
:1044A000194601F077FF306000E03360AB7B022BF0
:1044B0000CD1122003F0C9FB64230093002340F6C3
:1044C0008A62194601F066FF606001E000236360C4
:1044D000EB7B012B0DD1112003F0B7FB1E230093C2
:1044E0004FF4306200234FF4D67101F053FFA06007
:1044F00002E01C4B0022DA73244B0022114658685C
:1045000001F0D8FE08B1FFF71BFF03A90320FFF756
:104510004DFE88B90620B0EE000AFFF77AFEBDF81E
:104520000C3030EE000A07EE103A30EE000AB8EE1A
:10453000477AC7EE007A01E0FFEE007AFDEEE77AF7
:10454000134A1448C5ED027A17EE903A082101F09B
:1045500009FFFFF731FF104B012018700F4B187047
:1045600004B070BD0CE30320C0E2032060E203202E
:1045700061960D0094E1032069960D00E4E20320AA
:10458000B0E1032072960D00FCE2032030E303202B
:104590007C960D00F4E203200CE20320D1E103201D
:1045A0002DE9D0431A4800231A461946406801F005
:1045B00089FE01F01FFE4FF4967440F2E7360027A3
:1045C000002001F033FC4FF000098046002001F08C
:1045D0002DFCB0EB080061EB09018F4208BF864259
:1045E00005D301F017FE10B901F0FCFDEEE701F074
:1045F00011FE18B1BDE8D04301F00CBE01F0DEFBA6
:10460000044B186001F0EEFD013CF3D0D8E700BF89
:1046100030E30320D8E6032008B501F0FBFD80F06D
:104620000100C0B208BD0000F8B501F0EBFD0020AC
:1046300001F0FCFB0025044643F6972600270020E6
:1046400001F0F4FB001B61EB05018F4208BF8642BD
:1046500005D3FFF7E1FF10B901F0C4FDEFE7FFF765
:10466000DBFF064800231A461946406801F032FE77
:104670004FF4FA6001F09AFE0120F8BD30E3032008
:10468000154B1648597999B14FF46173038141F282
:10469000D833C3804FF48063438141F27003838138
:1046A000036843F4007343F001030360002111E049
:1046B00040F2DC53038141F27003C3804FF4806306
:1046C000438141F210038381036843F4007343F094
:1046D0000103036001F062BD0CE3032010E203203C
:1046E00010B5074C01F06AFB2368C01AB0F57A7F59
:1046F00004D301F063FB2060012010BD002010BD39
:10470000B0E2032008B5FFF7EBFF18B1BDE80840A1
:10471000FFF7E6BF01F066FDF5E7000037B501F0F1
:1047200071FD01F04BFB43F69725044601F072FD45
:1047300040B101F043FB001BA84203D8642001F004
:1047400035FEF3E70021094B47F23052084601F0ED
:10475000A5FA4FF47A7001F029FE054B0A221B6876
:104760000121684602F056FF03B030BD82960D006D
:104770004CE2032038B5046805467CB16368013B10
:1047800063605BB9236820469B689847A368013B38
:10479000A3601BB923682046DB689847284638BDCC
:1047A00030B52E4C2E4D236AD1B00C932D4B9A6907
:1047B0000B929B680A93E3680993A3680893636864
:1047C000079323680693E06903F0DAFDCDE904015D
:1047D000A06903F0D5FDCDE90201606903F0D0FDC9
:1047E0000024CDE90001204A4FF4807110A801F0A7
:1047F000B9FDFFF787FF2B781C498DF8004010AA00
:104800000EA8FFF7B5FC0FA8FFF7B4FFFFF77AFF7C
:104810002B7817498DF8004010AA0EA8FFF7A8FCC6
:104820000FA8FFF7A7FFFFF76DFF2B7811498DF851
:10483000004010AA0EA8FFF79BFC0FA8FFF79AFFF5
:1048400002F0E0FF0C4B18700C4B01221A7001F0C3
:10485000B5FA0B4B186051B030BD00BFC0E2032069
:10486000ACE103200CE303208F960D003E970D0072
:104870005F970D0077970D0031E20320D6E003200B
:10488000A8E1032010B50B7894B00C4623B91C495D
:1048900004A804F003FA17E0084604F0AFF8C828AB
:1048A00004D0204604F0AAF8C9281ED1154904A84E
:1048B00004F0F4F902F09EFF134BD861134B012270
:1048C0001A70134B00221A70FFF71CFF114B12498C
:1048D0001B7800228DF8002002A804AAFFF748FCEC
:1048E00003A8FFF747FF14B010BD204604F086F878
:1048F0000A4A0346402104A801F034FDE4E700BF62
:1049000090970D00A5970D000CE30320D1E1032043
:10491000D6E00320ACE1032098970D00B7970D0077
:104920007FB51E49044602F086FD064658B11C4B71
:1049300000229A731B4B01241C701B4B1B788DF8B3
:1049400000201A4A20E01A49204602F074FD05466C
:1049500050B1134B174A01249C73124B1C70124B1D
:104960001B788DF800600FE01349204602F063FDCC
:1049700090B10B4B02229A730A4B104A01241C700F
:10498000094B1B788DF800500D4902A8FFF7F0FB8A
:1049900003A8FFF7EFFE204604B070BDD4970D00CA
:1049A0000CE30320D1E10320ACE10320D6970D00F6
:1049B000A49B0D00ED970D00689A0D00FD970D006A
:1049C000E6970D0030B5164985B0044602F033FD78
:1049D000054658B1134B0022DA73134B01241C70A7
:1049E000124B1B788DF80020114A0EE01149204629
:1049F00002F021FD88B10B4B0F4A0124DC730A4BF6
:104A00001C700A4B1B788DF800500C4902A8FFF768
:104A1000AFFB03A8FFF7AEFE204605B030BD00BFD8
:104A2000D4970D000CE30320D1E10320ACE1032077
:104A30000E980D00A49B0D0021980D00E6970D0027
:104A400030B5194985B0044602F0F5FC054658B169
:104A5000164B00221A74164B01241C70154B1B7840
:104A60008DF80020144A15E01449204602F0E3FCBA
:104A7000C0B10E4B124801241C740D4B1C7000F089
:104A8000C0FF20210E4800F0F8FF0A4B0D4A1B78AA
:104A90008DF800500C4902A8FFF76AFB03A8FFF746
:104AA00069FE204605B030BDD4970D000CE303200D
:104AB000D1E10320ACE1032039980D00A49B0D0047
:104AC000B0E1032049980D00E6970D0030B5184974
:104AD00085B0044602F0AFFC054658B1154B0022E4
:104AE0001A73154B01241C70144B1B788DF8002091
:104AF000134A12E01349204602F09DFCA8B10D4B69
:104B0000114801241C730C4B44211C7001F00AF85D
:104B10000A4B0E4A1B788DF800500D4902A8FFF78A
:104B200027FB03A8FFF726FE204605B030BD00BFD7
:104B3000D4970D000CE30320D1E10320ACE1032066
:104B40005E980D00A49B0D0060E2032061980D00AB
:104B5000E6970D0030B5164985B0044602F06BFCAF
:104B6000054658B1134B01241C71134B1C70134B99
:104B700000221B788DF80020114A0EE011492046D2
:104B800002F059FC88B10B4B0F4A1D710A4B0124EE
:104B90001C700A4B1B788DF800500C4902A8FFF7D7
:104BA000E7FA03A8FFF7E6FD204605B030BD00BFD9
:104BB000A49B0D000CE30320D1E10320ACE1032012
:104BC00080980D00D4970D0091980D00A1980D00CC
:104BD00030B52B4985B0044602F02DFC28B929498F
:104BE000204602F028FC002848D02549204602F043
:104BF00022FCB0B101F00EFB70B1FFF783FD224B38
:104C000022491B7800228DF8002002A8204AFFF7D5
:104C1000AFFA03A8FFF7AEFD1E4B1F4901229A71A0
:104C200026E01849204602F006FC20B301F0F2FA13
:104C3000184C18B9FFF7B4FC0123E370FFF762FDCD
:104C4000114B164A1B781149002502A88DF8005017
:104C5000FFF78EFA03A8FFF78DFD4FF47A7001F08D
:104C6000A5FB6FF000410E48FFF754FB0D49A571FD
:104C70000D4804F013F80D4B0120187005B030BD3D
:104C8000A49B0D00D4970D00ACE10320A1980D006A
:104C9000A6980D000CE30320B5980D00BA980D00FE
:104CA000D4E10320CC980D00B8E20320D1E1032029
:104CB000F0B5264985B0044602F0BDFB28B9244969
:104CC000204602F0B8FB00283DD020461F49214D68
:104CD000214E224F02F0AFFB0446B0B10124214621
:104CE0000220EC6002F085FF0021032002F081FF2A
:104CF000706901F05BFB2146032002F07AFF00227D
:104D00003B788DF80020164A13E02146022002F07D
:104D100070FF2146032002F06CFF706901F046FB32
:104D20000121032002F065FF0E4A3B78EC608DF80C
:104D300000400D4902A8FFF71BFA03A8FFF71AFD70
:104D40000A4B0120187005B0F0BD00BFD2980D00CD
:104D5000D5980D00C0E203200CE30320ACE1032052
:104D6000D9980D00F1980D00E8980D000CE2032091
:104D700010B586B02049044602A802F02FFB02A815
:104D8000FFF796FF02A802F0E2FA1C49204602F063
:104D900052FB78B91A49204602F04DFB50B9194927
:104DA000204602F048FB88B91749204602F043FB31
:104DB00060B91EE0154B01245C74154B1C70154B3B
:104DC00000221B788DF80020134A0AE00F4B0022C6
:104DD0005A740F4B01241C700E4B1B788DF8002069
:104DE0000E4A0F4902A8FFF7C3F903A8FFF7C2FC58
:104DF000204606B010BD00BFD5980D0001990D00EA
:104E000005990D000C990D0009990D000CE3032084
:104E1000D1E10320ACE1032012990D000F990D00A0
:104E2000E6970D0030B5164D164C17492A782078B4
:104E30008FB00E2303FB0212009203FB0013134AF0
:104E4000282104A801F08EFA2B78237001F0E2F9F2
:104E500070B1FFF757FC0E4B0E491B7800228DF8FE
:104E6000002002A804AAFFF783F903A8FFF782FC39
:104E700002F0C6FD04A902F012FA0FB030BD00BF67
:104E8000D2E10320C0E1032058E0032024990D0063
:104E9000ACE1032032990D002DE9F043864C2378D4
:104EA000013B8DB0072B00F2BD82DFE813F0240236
:104EB00008004E007F00AC00D2003301E3017F4DBB
:104EC0002B792BB17E4B1B78022B01D0FFF7AAFF69
:104ED0007C4E337843B102F0CFFE20227749012087
:104EE00000F094FF00233370774E337843B102F023
:104EF000C3FE24227549502000F088FF0023337040
:104F0000AB7963B100F05AFF714B1B68C01A714B4B
:104F1000984204D96D4BDB68002B00F07B8202F0D5
:104F200071FC6D4BAA681B7898421CBF0323237049
:104F30006A4B1B689A42DCBF08232370684B1B78BE
:104F4000002B00F06F8204232EE05C4D2B792BB1F7
:104F50005B4B1B78032B01D0FFF764FFFFF750FA80
:104F60000646E8B90123237000F028FF5D4B186066
:104F70002B79002B00F0568201F04CF9002800F04C
:104F80005182FFF7BFFB584B584A1B7858498DF8A0
:104F9000006008A8FFF7ECF809A8FFF7EBFB41E277
:104FA0006B7C002BCFD1052323703BE24C4D2B783B
:104FB00063B1504908A802F011FA08A8FFF778FE7B
:104FC00008A802F0C4F900232B70ECE73F4D2868D5
:104FD00003F0C4F90022484B03F098FC0028E2D00B
:104FE000EB68002BDFD1454908A802F0F7F908A8C3
:104FF000FFF75EFE08A802F0AAF96FF000414048F2
:10500000FFF788F9CFE72D4D2B792BB12C4B1B786F
:10501000052B01D0FFF706FF01F0FCF890B102F07C
:10502000F1FB064650B9287101F0F4F810B1304692
:1050300001F010F9254A0023AB611362FFF7B0FBC2
:105040000623B1E7FFF7ACFA002840F0EB8101231B
:10505000AAE71A4B1B792BB1194B1B78062B01D0F1
:10506000FFF7E0FE274B1B782BB900F0A7FE184B8B
:105070001860022398E700F0A1FE234B1B68C01ABA
:105080004AF6C873984240F2CD8100F097FE154B66
:10509000186001F0BFF80028D9D0134B1B491B78CA
:1050A00000228DF8002008A8194AFFF761F809A826
:1050B000FFF760FBCBE700BFD2E103200CE3032046
:1050C000C0E10320D1E103200CE20320C0E2032071
:1050D0006CE20320905F010031E20320A4E1032091
:1050E00030E20320B4E20320ACE10320D3990D00A9
:1050F00069990D00D5980D0000003E40D2980D0032
:10510000F0E10320D6E00320A8E1032043990D003D
:105110008E960D00A24B1A791D462AB1A14B1B7821
:10512000072B01D0FFF77EFE01F074F8B0B12B79A8
:1051300073B1FFF7E7FA9C4B9C491B7800228DF86E
:10514000002008A89A4AFFF713F809A8FFF712FBF6
:105150004FF47A7001F02AF9FFF766FA0021072070
:1051600002F047FD934D00210E2002F042FD02F0B7
:1051700053FB2B7D804643B3012128462972FFF75C
:105180003FF858B18389042B05D1002383731CE0B9
:105190008388012BF5D080680028F9D1864910203A
:1051A00002F02EFE0646002800F0378110273A460E
:1051B000002103F038FD0223738001233780B38080
:1051C0002B69B3600423B3812E612B7DDFF8E4915A
:1051D0003BB34EF66023C8F13C080421484608FB67
:1051E00003F8FFF70DF8064610B1C0F80C8018E080
:1051F0007149102002F004FE0546002800F00F81DE
:1052000010273A46314603F00EFD02236B8004233B
:105210002F80AB80D9F81030AB60C5F80C80C9F88E
:105220001050644905A802F08DF9059B7BB19A885E
:10523000012A0CD19B89042B09D1604908A802F0EE
:10524000CDF808A8FFF7C4FC08A802F080F80121F7
:10525000072002F0CEFC01210E2002F0CAFCFFF76D
:105260009FF9059802232370002800F0DB8001F0ED
:1052700061F8D7E04A4B1A791D462AB1494B1B7891
:10528000082B01D0FFF7CEFD00F0C4FFB0B12B79A1
:1052900073B1FFF737FA444B44491B7800228DF86D
:1052A000002008A8464AFEF763FF09A8FFF762FA44
:1052B0004FF47A7001F07AF8FFF7B6F90021072071
:1052C00002F097FC02F0A8FA3E4B1A680423ADF8EE
:1052D00014300CAB022503F81D5DC0F13C000292B6
:1052E0003C22504301220190009205A908A802F037
:1052F000CFF9257096E02A4B1A791C462AB1294B22
:105300001B78012B01D0FFF78DFD00F057FD2E4BD0
:105310001B6803F5EA433033984240F28380A36967
:10532000032B14DC00F076FF60B11F4B1F491B7884
:1053300000228DF8002008A8244AFEF719FF09A8CA
:10534000FFF718FA4FF4FA6001F030F824E002F0A9
:1053500051FA134BDB69C01AB0F5E15F3AD900F09E
:1053600059FF60B1104B11491B7800228DF80020C5
:1053700008A8174AFEF7FCFE09A8FFF7FBF94FF44F
:10538000FA6001F013F80023A36102F075FC2022FB
:105390000349012000F03AFD02F0D1F842E000BFDD
:1053A0000CE30320C0E10320ACE1032069990D0068
:1053B0005C990D0034E20320AC9E0D00D4970D00E3
:1053C0006F990D004CE20320B4E2032086990D0092
:1053D0009A990D0000F01EFF60B1144B14491B7820
:1053E00000228DF8002008A8124AFEF7C1FE09A885
:1053F000FFF7C0F94FF4FA6000F0D8FF0023A36173
:1054000002F03AFC20220C49012000F0FFFCFFF7DB
:1054100085F907E00723237081E52875D5E689F82B
:105420001400FEE60DB0BDE8F08300BFACE1032040
:1054300069990D00B4990D000CE3032000230422A8
:1054400000F0C0BE0023022200F0BCBE02460148AC
:1054500001F07AB91D670D00F0B5AE4BBBB00AAADA
:1054600003F11005164618685968144603C408333A
:10547000AB422246F7D119889B782180A3702D2258
:1054800000210DF13B00A44F03F0CDFB02233B7044
:10549000A24B1B6893F8305093F8313003F01F0390
:1054A00043EA45152F2D05DD9D4A00210A2000F015
:1054B000FDFD01E01F2D03DD05F01F05994B01E007
:1054C0004FF0A043012404FA05F5C3F8085521461E
:1054D000072002F07DFB0021042002F079FB00216F
:1054E000132002F075FB0021122002F071FB002155
:1054F000112002F06DFB21460E2002F069FB2146CF
:105500000E2002F076FB2146032002F061FB2146CB
:10551000022002F05DFB2146032002F06AFB00211D
:10552000022002F066FB02A800F07CFE00250023AA
:105530007D221AA902A801F090FF2B462A467A493B
:10554000019500951AA800F07DFE78497848FFF78C
:1055500075FF78497848FFF775FF78497848FFF775
:105560006DFF78497848FFF769FF78497848FFF779
:1055700065FF78497848FFF761FF78497848FFF779
:105580005DFF78497848FFF759FF78497848FFF779
:1055900055FF78497848FFF755FF78497848FFF775
:1055A00051FF78497848FFF74DFF78497848FFF771
:1055B0004DFF78496848FFF749FF77497748FFF77B
:1055C00045FF77497748FFF741FF77497748FFF76D
:1055D0003DFF77497748FFF739FF77497748FFF76D
:1055E00035FF77497748FFF731FF77497748FFF76D
:1055F0002DFF02F041FB284600F0F8FB022811D1F4
:10560000734C02F039FB20222146012000F0F6FB0A
:1056100002F032FB24225749502000F0EFFB237B9D
:10562000EBB112E002F028FB04226A49284600F0A0
:10563000EDFB02F021FB2046042206A90134069569
:1056400000F0E4FBF02CF4D1DAE74421624800F0EA
:1056500069FA20B920736149304603F01FFB237CAF
:1056600033B15F4800F0CDF920215D4800F005FA24
:105670000022114606A8069200F088FB069B142B18
:1056800002BFA3690133A361A369052B04DD504B5D
:1056900004229A61FFF742F8A3794BB951492D488A
:1056A00003F0FCFA6FF000414F48FEF733FE03E0D1
:1056B0004E49284803F0F2FA05236361637C63B125
:1056C0002C4BDB684BB14A4906A801F087FE06A8BF
:1056D000FFF7EEFA06A801F03AFE01236371FEF728
:1056E000CFFF042002F09EFA48B9424906A801F013
:1056F00075FE06A8FFF76CFA06A801F028FEFEF773
:105700007FFE3D4BA2681B689A4277DC08233B7002
:1057100081E000BF04960D00D2E103205CE203208B
:10572000AD5D0D000003005085480D0070E20320C0
:10573000ED990D0024E30320F4990D00A69B0D00C4
:10574000FF990D00F4E20320079A0D00C1E1032048
:10575000129A0D00B8E20320219A0D0094E1032073
:105760002E9A0D00E4E203203A9A0D00FCE2032099
:10577000439A0D00C0E203204E9A0D00C4E20320BC
:105780005C9A0D00C8E203206A9A0D000D410D00DD
:10579000739A0D00D14B0D00554B0D007F9A0D00F3
:1057A000B14C0D00E8980D0021490D008C9A0D00B8
:1057B000C5490D009B9A0D00414A0D00AD9A0D00A0
:1057C000714D0D00BC9A0D00CD4A0D00CC9A0D0014
:1057D0000CE3032044960D0060E20320DF9A0D00E5
:1057E000B0E10320CC980D00D4E10320B5980D0062
:1057F000D5980D00D4970D00A4E10320FEF7D0FE4C
:1058000048B901233B7000F0D9FA134B13491860D3
:10581000304603F043FA00F0FDFC08B1237963B988
:1058200002F0EEF8314601F03AFD0D4B012202A8DC
:105830001A7001F08CFD3BB0F0BD0A4B0A491B7891
:1058400000228DF8002006A83246FEF791FC07A83A
:10585000FEF790FFE4E700BFB4E20320139B0D00C6
:10586000D1E10320ACE10320259B0D002DE9F0439D
:10587000494B4A4E4A4FDFF8709100241C60494B57
:1058800085B001251D7000F0D9FA474B186002F071
:1058900065F92346224642F6D51102F067F902F077
:1058A0005DF922462346162102F068F94FF6FF7390
:1058B00073813460B480B4713481022000F018FC2C
:1058C0003A463A49304602F08BFA394E214628468C
:1058D00000F026FC2946042000F048FA2146304614
:1058E00001F01EFA3046334E33493A464FF0200855
:1058F00002F076FA42462146304603F094F986F8E3
:1059000005802E4E4FF01008301D42462146306073
:1059100003F089F902233A462949F3803046357568
:10592000A6F8048002F05CFA2648DFF8C080264C16
:10593000264E00F0D4F802F0E7F92321024624486D
:1059400000F05AF8234B00936A462B4622490294F2
:105950004846CDF80C80FEF76DFC6846FEF71DFC4E
:105960003A463146484602F03BFA02941B4C1C4B27
:1059700000936A462B461B49CDF80C802046FEF763
:1059800059FC6846FEF709FC3A463146204602F0CB
:1059900027FA05B0BDE8F0834CE2032050E2032073
:1059A00090E10320ACE103205CE203208B410D0079
:1059B000B8E1032010E203203F6D0D0034E2032024
:1059C000F5400D0060E20320DD400D00B9420D00FE
:1059D000B0E10320B9400D00804F1200D4E1032054
:1059E000C5400D0040771B00F0E10320D9400D00B9
:1059F0000368C9B29B681847426011224170027067
:105A0000704710B50446406801F022FA10B960688A
:105A100001F0DCF9012010BD70B505464178406801
:105A200001F00BFA02226978686801F003FA6868ED
:105A300003685B6998470646686803685B6998472E
:105A4000044644EA06246868A4B201F0FEF907EEB1
:105A5000904AB8EE670ADFED027A80EE270A70BD41
:105A60009A99993F0378232B04D0132B0CBF18204D
:105A7000B42000E0182000F099BC38B504460D466B
:105A80004178406801F0D9F96068036829469B684D
:105A90009847606801F0D9F925702046BDE8384084
:105AA000FFF7E0BF10B50378A3F12002012A0446F6
:105AB00001D9232B10D16178606801F0BEF96068CC
:105AC000217803689B689847606801F0BEF920461A
:105AD000BDE81040FFF7C6BF10BD00F0AFB970477A
:105AE00038B505460C4602F00FF9297801F0A5F902
:105AF00002F00AF9210AFFF77BFF02F005F9E1B293
:105B0000FFF776FF02F000F9BDE8384001F09DB9DB
:105B100008B543F2A201FFF7E3FF0A20BDE8084001
:105B200000F044BC38B504460D4602F0EDF801F033
:105B30004DF920462570FFF7EBFF012038BD0A44E0
:105B4000FF2091420ED011F8013B5840082310F07D
:105B5000800F4FEA400018BF80F03100013BC0B217
:105B6000F5D1EEE77047000073B54FF410510446CD
:105B7000FFF7B6FF4FF4FA7000F018FC02F0C4F81B
:105B80000622217801F056F902F0BEF803681B697D
:105B9000984706284AD1002502F0B6F803685B69E9
:105BA00098470DF805000135062DF5D1022269460A
:105BB0002046FFF7C4FF9DF80250854236D10222ED
:105BC0000DF103012046FFF7BAFF9DF8055085420D
:105BD0002CD1BDF800009DF803609DF8045040BA38
:105BE00080B202F0ABFB18A3D3E9002302F01CFC47
:105BF00011A3D3E9002302F041FD0022104B02F073
:105C00005FFA02F0ABFEA06045EA062002F096FBC8
:105C100000220C4B02F008FC07A3D3E9002302F09A
:105C20002DFD02F09BFE6060012000E0002002B02C
:105C300070BD00BFAFF3008000000000E0FFEF4048
:105C400000804640000059400000000000E0654030
:105C500010B50446FFF788FF10B194ED020A10BD9D
:105C60009FED010A10BD00BF0000C07F10B50446C3
:105C7000FFF77AFF10B194ED010A10BD9FED010A04
:105C800010BD00BF0000C07F00F0D8B808B5024BBF
:105C90001B685B6C019308BD7402030008B5024BDE
:105CA0001B689B6C019308BD7402030008B5024B8E
:105CB0001B689B68019308BD4802030008B5024BAE
:105CC0001B68DB68019308BD4802030008B5024B5E
:105CD0001B681B69019308BD4802030008B5024B0D
:105CE0001B685B69019308BD4802030008B5024BBD
:105CF0001B68DB69019308BD4802030008B5024B2D
:105D00001B681B6A019308BD4802030008B5024BDB
:105D10001B685B6A019308BD4802030008B5024B8B
:105D20001B689B6A019308BD4802030008B5024B3B
:105D30001B68DB6A019308BD4802030008B5024BEB
:105D40001B685B6C019308BD4802030008B5024B59
:105D50001B689B6C019308BD4802030008B5024B09
:105D60001B681B6F019308BD4802030008B5024B76
:105D70001B685B6E019308BD3402030008B5024B3B
:105D80001B689B6E019308BD3402030008B5024BEB
:105D90001B68DB6E019308BD3402030008B5024B9B
:105DA0001B685B68019308BD1802030008B5024B2D
:105DB0001B68DB68019308BD1802030008B5024B9D
:105DC0001B685B69019308BD1802030008B5024B0C
:105DD0001B68DB69019308BD1802030008B5024B7C
:105DE0001B689B6A019308BD1802030008B5024BAB
:105DF0001B68DB6A019308BD1802030008B5024B5B
:105E00001B685B6C019308BD1802030008B5024BC8
:105E10001B689B6C019308BD1802030008B5024B78
:105E20001B689B6D019308BD1802030008B5024B67
:105E30001B68DB6D019308BD1802030008B5024B17
:105E40001B681B68019308BD2C02030008B5024BB8
:105E50001B685B68019308BD2C02030008B5024B68
:105E60001B689B68019308BD2C02030008B5024B18
:105E70001B68DB68019308BD2C02030008B5024BC8
:105E80001B681B69019308BD2C02030008B5024B77
:105E90001B685B69019308BD2C02030008B5024B27
:105EA0001B681B6B019308BD2C02030008B5024B55
:105EB0001B68DB68019308BD2802030008B5024B8C
:105EC0001B689B69019308BD2802030008B5024BBB
:105ED0001B68DB69019308BD2802030008B5024B6B
:105EE0001B681B6A019308BD2802030008B5024B1A
:105EF0001B685B6A019308BD2802030008B5024BCA
:105F00001B689B6A019308BD2802030008B5024B79
:105F10001B68DB6A019308BD2802030008B5024B29
:105F20001B681B6B019308BD2802030008B5024BD8
:105F30001B685B6B019308BD2802030008B5024B88
:105F40001B681B6C019308BD2802030008B5024BB7
:105F50001B689B6C019308BD2802030008B5024B27
:105F60001B68DB6C019308BD2802030008B5024BD7
:105F70001B681B6D019308BD2802030008B5024B86
:105F80001B685B69019308BD6402030008B5024BFE
:105F90001B689B68019308BD6802030008B5024BAB
:105FA0001B68DB68019308BD6802030008B5024B5B
:105FB0001B68DB69019308BD3002030008B5024B82
:105FC0001B681B6A019308BD3002030008B5024B31
:105FD0001B681B68019308BD3C02030008B5024B17
:105FE0001B68DB68019308BD3C02030008B5024B47
:105FF0001B681B69019308BD3C02030008B5024BF6
:106000001B685B69019308BD3C02030008B5024BA5
:106010001B689B69019308BD3C02030008B5024B55
:106020001B68DB69019308BD3C02030008B5024B05
:106030001B681B6A019308BD3C02030008B5024BB4
:106040001B689B6A019308BD3C02030008B5024B24
:106050001B681B68019308BD4C02030008B5024B86
:106060001B681B69019308BD4C02030008B5024B75
:106070001B685B69019308BD4C02030008B5024B25
:106080001B689B69019308BD4C02030008B5024BD5
:106090001B68DB69019308BD4C02030008B5024B85
:1060A0001B681B6A019308BD4C02030008B5024B34
:1060B0001B685B6B019308BD6002030008B5024BCF
:1060C0001B681B6D019308BD6002030008B5034BFC
:1060D0001B68D3F89830019308BD000060020300EC
:1060E00008B5024B1B681B68019308BD2002030022
:1060F00008B5024B1B685B68019308BD20020300D2
:1061000008B5024B1B685B69019308BD20020300C0
:1061100008B5024B1B689B69019308BD2002030070
:1061200008B5024B1B68DB6A019308BD200203001F
:1061300008B5024B1B68DB6C019308BD200203000D
:1061400008B5024B1B685B6D019308BD200203007C
:1061500008B5024B1B689B6D019308BD200203002C
:1061600008B5034B1B68D3F88830019308BD0000C5
:106170002002030008B5034B1B68D3F89430019349
:1061800008BD00002002030008B5034B1B68D3F8CC
:10619000A030019308BD00002002030008B5034BA6
:1061A0001B68D3F8A830019308BD0000200203004B
:1061B00008B5034B1B68D3F8AC30019308BD000051
:1061C0002002030008B5024B1B681B68019308BD41
:1061D0004402030008B5024B1B685B68019308BDCD
:1061E0004402030008B5024B1B689B68019308BD7D
:1061F0004402030008B5024B1B68DB68019308BD2D
:106200004402030008B5024B1B681B69019308BDDB
:106210004402030008B5024B1B685B69019308BD8B
:106220004402030008B5024B1B68DB69019308BDFB
:106230004402030008B5024B1B681B6A019308BDAA
:106240004402030008B5024B1B685B6A019308BD5A
:106250004402030008B5024B1B68DB6A019308BDCA
:106260004402030008B5024B1B681B6B019308BD79
:106270004402030008B5024B1B68DB6B019308BDA9
:106280004402030008B5024B1B685B68019308BD1C
:106290004002030008B5024B1B689B68019308BDD0
:1062A0004002030008B5024B1B68DB68019308BD80
:1062B0004002030008B5024B1B681B69019308BD2F
:1062C0004002030008B5024B1B685B69019308BDDF
:1062D0004002030008B5024B1B689B69019308BD8F
:1062E0004002030008B5024B1B68DB69019308BD3F
:1062F0004002030008B5024B1B681B6A019308BDEE
:106300004002030008B5024B1B681B6B019308BDDC
:106310004002030008B5024B1B685B6B019308BD8C
:106320004002030008B5024B1B681B68019308BDBF
:106330001C02030008B5024B1B685B68019308BD93
:106340001C02030008B5024B1B689B68019308BD43
:106350001C02030008B5024B1B689B69019308BD32
:106360001C02030008B5024B1B68DB69019308BDE2
:106370001C02030008B5024B1B68DB6A019308BDD1
:106380001C02030008B5024B1B681B6B019308BD80
:106390001C0203008A4230B507D0039D441AED1A4F
:1063A0006C43521A94FBF2F4E01830BD0021FFF761
:1063B000A7BE10B5836804460BB901F032FDC3686F
:1063C0009847A3681BB103222146204698472046E0
:1063D0001021BDE8104001F008BD10B5044600686A
:1063E00008B1FFF7B3FC204610BD0B68036013B182
:1063F0005A6801325A60704710B5064C0023204697
:106400002360FFF79BFC2046034A0449BDE8104087
:1064100001F0E6BC2CE3032090E10320DB630D00D8
:10642000002211464068FFF745BF00221146406830
:10643000FFF760BF002211464068FFF76BBF0022E4
:106440004068FFF75FBF002281F001014068FFF75D
:1064500049BF00231A4619464068FFF73BBF002397
:106460001A4619464068FFF72DBF002211464068C2
:10647000FFF710BF002202214068FFF713BF00237F
:106480001A464068FFF7FEBEF0B51B4B03600025BF
:106490000F462833182689B043608560C5603246B0
:1064A00029460446103002F0BEFB2A462946786889
:1064B000FFF700FF08B9A0601BE02946324602A89A
:1064C0000095019502F0AFFB02A96846ADF808609F
:1064D000FFF7DCFB10B10123A3600AE0009B019AE7
:1064E000A360E2600BB90223A36002A9204600F07A
:1064F00089F8204609B0F0BDE89B0D0038B5084C7E
:1065000028252A460021204602F08DFB4FF0FF335C
:106510006360044B258004225A60034A1A6038BD28
:1065200038E3032030E30320B49B0D007047007D67
:1065300070470000037D1BB18369B3F1004F02D1A6
:106540009FED050A704707EE903A9FED047AF8EE4A
:10655000E77A87EE870A7047000000000000C84213
:10656000037D1BB1036AB3F1004F02D19FED050A11
:10657000704707EE903A9FED047AF8EEE77A87EEDF
:10658000870A7047000000000000C84210B52821AB
:10659000044601F02AFC204610BD0000037D7BB1BB
:1065A000436A002B0CDB07EE903ADFED076A9FEDA4
:1065B000070AB8EEE77AC7EE267A27EE800A704718
:1065C000BFEE000A704700BF00FF7F470000C842CF
:1065D000037D7BB1C369002B0CDB07EE903ADFED46
:1065E000076A9FED070AB8EEE77AC7EE267A27EE2C
:1065F000800A7047BFEE000A704700BF00FF7F4768
:106600000000C84230B50D4600F110040FCD0FC494
:1066100095E8030084E80300012030BD2DE9F04136
:1066200007460C4615462AB90368C9B29B68BDE8FF
:10663000F0411847002907DA0A2A05D12D2100F078
:106640001FFE6142064601E021460026EAB23846B6
:1066500000F02FFE3044BDE8F08170B50D460646CF
:106660000A2281682846FFF7D9FF2C2104462846D4
:1066700000F006FE0A220444F1682846FFF7CEFF28
:10668000204470BDA0F10400FFF7E7BF7047002071
:10669000704710B51021044601F0A7FB204610BD3D
:1066A00008B508B1FFF7F5FF08BD0022026010B57C
:1066B0004FF69C728280B1F9044084808A8002681F
:1066C0000C6804600A6010BD10B504460068FFF74E
:1066D00031FE204610BD38B5C468F4B12378022BD2
:1066E00003D104F10C00FFF7EFFF656835B12846D0
:1066F000FDF753FD1021284601F077FBA56835B161
:106700002846FDF74AFD1021284601F06EFB204681
:106710001421BDE8384001F068BB38BD10B588B021
:106720000446684600F05AFE694604A800F078FE68
:1067300004A8A047044604A800F009FE684600F03B
:1067400006FE204608B010BDF0B5102485B00746FF
:106750000E46154600212246684602F064FA0022E1
:1067600069461046ADF80040029703960195FFF781
:1067700031FD05B0F0BD13B5044691E805000023D6
:106780004B600B602060626001A801930093FDF7ED
:10679000F1FF204602B010BDF7B50C4602AD54F82B
:1067A000043B45F8083D06460F4601A82146FFF781
:1067B0001CFE29463046FFF7DEFF01A8FDF7DAFF91
:1067C0002046FDF7D7FF3846082101F00EFB304682
:1067D00003B0F0BD13B50B46044603C88DE80300B3
:1067E00093E8030084E803009DE8030083E80300C6
:1067F00002B010BD38B500230446036010200D46DA
:10680000FDF74BFC28B1012343608360024B03601A
:10681000C5602060204638BD1C9C0D00826810B504
:106820000AB901F0FEFAC368BDE81040184708B580
:10683000006800F11001FFF7F1FF08BD826810B594
:106840000AB901F0EEFAC368BDE81040184708B570
:10685000006800F11001FFF7F1FF08BD38B5002313
:1068600083608B6804460D462BB102229847EB6883
:10687000E360AB68A360204638BD0000F0B589B086
:1068800004686846FFF711FF00238DF808304FF0C9
:106890000202D4E84F3F002B03D1C4E8412F002966
:1068A000F7D102D08DF8083063E014F10C0503D065
:1068B00069462846FFF7F9FEBFF35F8F0123637037
:1068C000002004F10803BFF35F8F53E8006F43E833
:1068D0000002002AF9D1BFF35F8F002E49D0FFF7E5
:1068E00027FC20B129463046FFF798FF3AE03146B1
:1068F00002A8FFF7B3FFE068B4F9105008B102F046
:10690000D5F906901020ADF81C50FDF7C6FB0546E2
:10691000E8B1002787601820FDF7BFFB044688B167
:106920000146876002A8FFF755FF049BA268A36099
:10693000059B049206A9E268E36004F11000059249
:10694000FFF7B3FE0D4BEB600D4B2C60AB6006A860
:10695000FFF7BAFE02A8FDF720FC002229460948ED
:10696000FFF7EEFB3046FDF718FC1021304601F032
:106970003CFA6846FFF7A8FE09B0F0BD2F680D008D
:10698000A56A0D00B3630D002DE9F04F8BB00646EC
:106990000F46904699469DF850A0FFF73BFC07AD87
:1069A000834630BB4FF62E73059005A92846ADF8F7
:1069B0001830FFF77AFE1420FDF76FFB044658B13C
:1069C0000223037001234370C0F804B0C0F808B07C
:1069D00029460C30FFF769FE3046214640F8044B4B
:1069E000FFF708FF2846FFF76FFE05A8FFF76CFECC
:1069F00052E000240C2314206C60AC600793FDF778
:106A00004CFB014618B1047044704460846004A8D3
:106A10000391FFF7EFFE224B08930820FDF73DFBA3
:106A2000044628B1039B40F8043B04A9FFF7DDFCB2
:106A300000955FFA8AF34A46414638460994FFF7C3
:106A4000F9FB20B9039B5B7803F0FF0283B1039B42
:106A5000059304A906A8FFF7C8FC05A93046FFF76F
:106A60008AFE06A8FDF786FE04A8FDF783FE13E064
:106A70004FF69C7305A903A80592ADF81830FFF7EF
:106A8000FDFE05A8FFF720FE05A80999FFF784FE83
:106A900006A8FDF76FFEDAE730460BB0BDE8F08FD1
:106AA000156C0D00022AF8B5044606D0032A17D04B
:106AB000012A22D10B6803601FE018200E68FDF741
:106AC000ECFA054650B13146FFF7C8FE3069B6F919
:106AD000147008B102F0EAF82861AF8225600CE07A
:106AE000046854B104F11000FFF7EEFD2046FDF7F5
:106AF00054FB1821204601F078F90020F8BD38B584
:106B0000002383608B6804460D462BB10222984710
:106B1000EB68E360AB68A360204638BD022A70B51D
:106B2000044606D0032A11D0012A18D10B6803604D
:106B300015E014200E68FDF7B0FA054620B1314685
:106B4000FFF7DDFF337C2B74256008E0046834B167
:106B50002046FDF722FB1421204601F046F90020D3
:106B600070BD0000F0B5002387B00C46BFF35F8F07
:106B700050E8006F40E80032002AF9D1BFF35F8F80
:106B8000002E3FD01846FFF7D3FA074620B1214622
:106B90003046FFF753FE2EE0314601A8FFF7AFFF66
:106BA00023788DF814301020FDF777FA0546D0B120
:106BB00087601420FDF771FA044678B187600146BA
:106BC00001A8FFF707FE039BA268A360049B039242
:106BD000E268E3609DF81430049223740A4BEB6082
:106BE0000A4B2C60AB6001A8FDF7D7FA00222946BA
:106BF0000748FFF7A5FA3046FDF7CFFA10213046D7
:106C000001F0F3F807B0F0BD4F680D001D6B0D00EB
:106C1000B3630D0030B585B004460D466846114695
:106C2000FFF7BAFD7CB124B228460DB102F03EF860
:106C3000029002A96846ADF80C40FFF71FFE02A8BB
:106C4000FFF742FD1DE000988DF808404FF001026B
:106C5000D0E84F3FA34203D1C0E8412F0029F7D12C
:106C600002D08DF808300CE010F10C014FF0010358
:106C700018BF0373BFF35F8F043000F8033CFFF7C6
:106C800071FF01A8FDF776FD05B030BD0022114669
:106C90004068FFF72FBB002211464068FFF73ABB60
:106CA00000224068FFF72EBB002281F001014068FE
:106CB000FFF718BB00231A4619464068FFF70ABBC6
:106CC00000231A4619464068FFF7FCBA0022114615
:106CD0004068FFF7EFBA002211464068FFF7DABAC2
:106CE000002202214068FFF7DDBA00231A464068FF
:106CF000FFF7C8BA024B03225A60024A1A60704773
:106D000060E30320389C0D00006800F0A5B810B5C2
:106D10000446016002710AB1FFF7F6FF204610BD7C
:106D200038B504460D4601F015F82A4601462046BE
:106D3000FFF7EDFF204638BD006800F096B810B5AB
:106D4000037904460BB1FFF7F7FF204610BD7047EB
:106D5000F8B5064615460C468F18BC4206D0336877
:106D600014F8011B9B6830469847F6E72846F8BDA3
:106D70000022007CFFF7B2B80021007CFFF7B6B814
:106D80000021007CFFF7BAB80021007CFFF7BEB8F5
:106D90000021007CFFF7C2B810B51421044601F0B1
:106DA00024F8204610BD000010B50446002363609F
:106DB0004FF47A73A360044B217408462360114694
:106DC000FFF7BCF8204610BD6C9C0D0000231A464E
:106DD0001946007CFFF76AB870B50C4686B01425DA
:106DE00006462A46002101A801F01DFF23788DF8F0
:106DF000083063680393E36804930022237A307CAD
:106E0000ADF8045001A90593FFF7B0F806B070BDC6
:106E10001FB500338DF800104FF06401039118BFC7
:106E20000123694601928DF80830FFF7D5FF05B0C0
:106E30005DF804FB0123FFF7EBBF0022007CFFF7A6
:106E40003DB80022007CFFF741B80121FFF7F9BFF0
:106E50000021007CFFF76AB808B50021007CFFF72D
:106E600075F8B0FA80F0400908BD08B50021007C33
:106E7000FFF774F8B0FA80F0400908BD704710B50C
:106E80001821044600F0B1FF204610BDF0B5037D87
:106E9000062B8DB00E4600F104074FF0000402D01F
:106EA00000F1080518E00CAD394605F8304D2F23E8
:106EB0002A460A20FFF762F8284601F012FF3368DD
:106EC0000246DB682946304698470FE024B12E2160
:106ED000304600F0D5F9044415F8011D0A22304669
:106EE00000F0E7F9BD420444F0D120460DB0F0BDFA
:106EF00010B5054B0446112240F8043B002101F077
:106F000092FE204610BD00BF949C0D000346074A28
:106F100010B543F8042B01F1100251F8044B43F86B
:106F2000044B9142F9D10A781A7010BD949C0D005F
:106F300010B59DF8084044EA032343EA024242EABE
:106F4000016104234160037510BD37B50D788B785E
:106F50004A78C97800912946FFF7EAFF03B030BDAF
:106F6000014B024A1A60704768E30320139D0D002D
:106F7000002211464068FFF7BDB900221146406863
:106F8000FFF7C8B900224068FFF7BCB9002281F0C2
:106F900001014068FFF7A6B900231A4601214068A5
:106FA000FFF798B900231A4619464068FFF78AB9D7
:106FB000002211464068FFF77DB900221146406863
:106FC000FFF768B9002202214068FFF76BB9002380
:106FD0001A464068FFF756B938B5054688B10468C7
:106FE0004CB1A3681BB103222146204698471021CB
:106FF000204600F0FAFE28461421BDE8384000F093
:10700000F4BE38BD10B103685B681847704710B50F
:1070100003680446BBB15868FEF748FE78B9236898
:107020005A7C12B95868FEF751FE23685868FEF77B
:1070300055FE20680023236028B1FFF7CDFF2068AC
:1070400008B1FFF7C9FF204610BD38B50446D0F897
:10705000C40108B1FDF725F8D4F8C00108B1FEF766
:1070600075FED4F8BC5135B12846FFF7D0FF042196
:10707000284600F0BAFE206808B1FFF7C3FF20469B
:1070800038BD000010B5044B044640F8083BFFF73C
:10709000DCFF204610BD00BF849D0D0038B50E4CAE
:1070A0000E4B23600025022304F5E4706360A560A5
:1070B000C4F8C451C4F8C851FEF740FE084BC4F8E8
:1070C000CC5184F8D05123602046064A0649BDE8D9
:1070D000384000F085BE00BF6CE30320B89D0D0072
:1070E000849D0D0090E1032085700D0000231A4659
:1070F0004068FFF7C7B8002202214068FFF7D2B806
:10710000002211464068FFF7C5B8002211464068CA
:10711000FFF7D0B800231A4619464068FFF7D2B8E7
:1071200000231A4619464068FFF7D4B8002281F0C0
:1071300001014068FFF7D6B800224068FFF7E2B8C7
:10714000002211464068FFF7E5B80022114640686A
:10715000FFF7D0B82DE9F043002495B016460D4650
:107160000746FFF7C5FE214620220CA8009401F037
:107170005AFD40230C9321466B460CAA3046FEF77D
:107180000DFF0446002844D1024601216868FFF73C
:1071900091F80221804622466868FFF78BF8009E2E
:1071A00081462146002E34D0002932D17368022B4B
:1071B00002D00A2B09D02AE0B8F1000F27D071695C
:1071C00038460431FFF7C1FE20E0B9F1000F1ED0B0
:1071D0007469112201A801F026FD06238DF81430F0
:1071E00001AD04F108031834186859682A4603C22F
:1071F0000833A3421546F7D101A906A807ADFFF74A
:1072000085FE0FCD3C1D0FC42B6823700121F6694C
:10721000C8E70098FEF7BAFE384615B0BDE8F0831F
:10722000024B034A1A6000225A60704740E503206F
:10723000B89D0D00F8B506460D468F180024BD42D6
:107240000CD0336815F8011B9B683046984700281E
:1072500001DB0444F3E7002C08BF04462046F8BDD8
:1072600070B505460C46084649B101F03AFD2B6859
:10727000024621462846DB68BDE87040184770BDCD
:1072800003689B68184738B50D210546FFF7F8FFDE
:107290000A2104462846FFF7F3FF204438BD38B5DD
:1072A0000546FFF7DDFF04462846FFF7ECFF2044C4
:1072B00038BD30B58BB00B4600218DF82410012A63
:1072C00098BF0A220DF12304B3FBF2F505FB12333C
:1072D00003F0FF03092B94BF30333733DBB2214671
:1072E00004F801392B46002DEED1FFF7B9FF0BB0A2
:1072F00030BD10B50446FCF750FF204610BD00001D
:107300000348044A04490023836000F069BD00BFBC
:1073100048E5032090E10320F3720D00704710B59B
:107320000C21044600F061FD204610BD10B5054B50
:107330000360044601710846FEF738FE0023A3608F
:10734000204610BDEC9D0D000079FEF737BE10B54C
:1073500004460068FEF7EEFF204610BD10B5044657
:10736000006808B1FEF7E6FF00232360A3606360B6
:1073700010BD38B504460D4600680131FEF7E2FF46
:1073800010B184E82100012038BD10B5036804461F
:1073900013B143688B4207D22046FFF7EAFF20B1C2
:1073A000A3680BB922681370012010BD70B50E469A
:1073B000114604461546FFF7E8FF18B92046FFF7C7
:1073C000CDFF09E02A463146A560206801F020FC87
:1073D0002268A3680021D154204670BD38B500232F
:1073E000044603604360836003730D4639B1084669
:1073F00001F077FC294602462046FFF7D7FF2046DA
:1074000038BD884210B50B46044607D0096819B14B
:107410009A68FFF7CBFF01E0FFF7A0FF204610BD01
:1074200010B5002304460360436083600373FFF7D5
:10743000E8FF204610BD08B582680B4612B919B99D
:10744000012008BD11B90368187802E0006801F056
:107450001BFCB0FA80F0400908BD70B50E469AB129
:1074600091B185689D4202D800230B7070BD541EF7
:10747000ED1A0168AC4228BF2C461944224630461A
:1074800001F04CFC0023335570BD10B50446006874
:1074900018B1FEF74FFF0023236010BD38B5B1F9D6
:1074A000043083800B460D4653F8062FC0F80620A3
:1074B0009B8843810446FFF7E8FF2B6813B12360E4
:1074C00000232B60204638BDB1F9043010B50BB94C
:1074D0000A689AB10C685CB1A288012A03D0042A18
:1074E00006D1022205E0A4894C818A710B8105E056
:1074F00004220B814FF6FF738A714B8151F8063FCE
:1075000003608B88838010BD38B50C460546FFF7B5
:10751000BCFF44B12088FEF705FF286028B122880F
:10752000214601F075FB002038BD014838BD00BF81
:10753000FCFEFFFF014600228C20FEF71FBC00204E
:10754000FFF7F8BFF0B5304D0B7D04468BB0084611
:10755000AF1D13B30B681B79FBB100224FF6FF730D
:1075600002A904300292ADF80C208DF80E20ADF87F
:107570001020ADF81230FEF71BFE0AAB00B253F834
:107580001A2DADF80C009B88A880C5F8062002993A
:10759000BB802846FFF7B8FF1CE02023002602939B
:1075A0001A4B00931A4903963346322002AAFEF77B
:1075B00085FD4FF6FF73ADF8123002A94FF6F26366
:1075C000114802968DF80E60ADF81060ADF80C30E1
:1075D000FFF764FF02A8FFF758FF00232360A38092
:1075E000A37123814FF6FF736381B5F90430A38043
:1075F0003B68C4F80630BB88638129682046FFF7E2
:1076000083FF20460BB0F0BD58E50320FB9D0D0025
:10761000F49D0D0030B5044685B0084611461A4663
:107620000023FEF775FD0D4DADF80C00002301A9F8
:107630000193ADF808308DF80A3028464FF6FF73F5
:10764000ADF80E30FFF72AFF01A8FFF71EFF204616
:107650002946FFF739FF204605B030BD58E5032025
:1076600010B500240470448000294FF6FF74848014
:1076700007DD0139994209D232F8113083800123A4
:1076800001E002D10223037010BD418010BD000053
:10769000F0B58BB017461A46129B01930E46002494
:1076A000119B0294054600933946109B3046FEF725
:1076B0006BFD3B463246014605A8FFF7D1FF079414
:1076C000ADF820400D4C9DF81410BDF91620BDF802
:1076D00018308DF82210204607A9ADF82420ADF807
:1076E0002630FFF7DBFE07A8FFF7CFFE284621462E
:1076F000FFF7EAFE28460BB0F0BD00BF58E50320B7
:1077000010B5094C00204FF6FF732060A080A071D7
:1077100020816381FEF7ECFC2046044A0449BDE861
:10772000104000F05DBB00BF58E5032090E103204E
:107730008B410D00F0B5144B144F1E68144B0644DA
:1077400018683B6806449E428BB01BD00AA801AD66
:1077500040F8286D01F064F9436903F26C734361EA
:1077600004460FCC0FC50FCC0FC5D4F800E0C5F808
:1077700000E001AD0FCD074C0FC40FCD0FC43E602C
:10778000C4F800E00BB0F0BD94E5032090E50320C1
:107790008CE5032064E5032008B50020FEF762FDB8
:1077A00028B1FEF737FD80F00100C0B208BD01200E
:1077B00008BD10B50020FEF731FB044668B9FEF79E
:1077C0008FFC01280BD12046FEF7C2FC38B9FFF729
:1077D000E3FF30B9FEF706FDF9E7012010BD0020F8
:1077E00010BDFFF7D9FF0020FEF718FB003018BFCF
:1077F000012010BD08B5FFF7DCFFBDE80840FEF72B
:10780000E5BA000008B5FFF7F5FFFFF793FF014B5E
:10781000986808BD64E5032008B5FFF7EBFFFFF7A4
:1078200089FF014B586808BD64E50320024B1A68C4
:10783000024B1A60704700BFD8E0032088E50320A0
:1078400070474174704708B5007CFEF7F7FB20EAEB
:10785000E07008BD08B5007CFEF7C8FB20EAE070C8
:1078600008BD08B5007CFEF7D1FB30EA200028BF38
:107870004FF0FF3008BD08B5007CFEF7BFFB30EAD3
:10788000200028BF4FF0FF3008BD007CFEF7C6BBCC
:1078900010B51421044600F0A8FA204610BD70B5BA
:1078A000457C04460E4625B9007CFEF7C7FB002840
:1078B00005DD3146207CBDE87040FEF78FBB2846D1
:1078C00070BD000010B504460846114600226260F3
:1078D0004FF47A72A260054A226001222074627419
:1078E0001A46FEF773FB204610BD00BF549E0D00E4
:1078F000007CFEF79BBB000038B50C4D296811F0E9
:10790000010411D12846FCF7CEFB68B1084A094BA7
:1079100009482146FFF7D6FF2846FCF7C9FB074A6E
:107920000749054800F05CFA034838BD30E60320FB
:1079300034E60320ACE5032098E5032090E1032022
:1079400041780D0041747047704708B50021007CF4
:10795000FEF794FB30EA200028BF4FF0FF3008BD4F
:1079600008B50121007CFEF789FB30EA200028BF22
:107970004FF0FF3008BD08B5007CFEF777FB20EA2A
:10798000E07008BD08B5007CFEF768FB20EAE070F7
:1079900008BD007CFEF782BB10B51421044600F040
:1079A00024FA204610BD38B50446007C0D46FEF78B
:1079B0005DFB002801DC607C28B12946207CFEF7B5
:1079C00065FB20EAE07038BD10B504460023636013
:1079D0004FF47A73A360054B23600123084621749A
:1079E00063741146FEF732FB204610BD849E0D00E5
:1079F00010B514220446002101F015F9204610BDEF
:107A000030B50E4D87B001A8FFF7F2FF296811F0DD
:107A1000010410D12846FCF746FB60B101AA2146BB
:107A20000748FFF7D1FF2846FCF742FB054A064905
:107A3000034800F0D5F9024807B030BDB8E603208E
:107A4000BCE6032090E1032049790D0008B50C4BFA
:107A500033B1FFF7D5FF03681B699847002809DC9D
:107A6000084B63B1FFF748FF03681B69984700287C
:107A700003DC08BDAFF30080F2E7AFF3008008BD80
:107A8000000000000000000008B5FFF7DFFFFEF770
:107A900095F9014B186008BDD8E603200248034A57
:107AA0000349121A01F0B4B800F4032004F40320CF
:107AB000F0A00D0007B5002300931A466FF0770180
:107AC000FEF758FB03B05DF804FB000007B54388E0
:107AD0000A2B08D0502B09D1094B1B683BB103B0CE
:107AE0005DF804EB1847FFF7E5FF06E0002300937D
:107AF0001A466FF07701FEF73DFB03B05DF804FB1B
:107B0000D0E6032038B5104C104D2368AB42104B23
:107B10000CBF012200221A7002D0FFF7BFFF2560C0
:107B2000FEF73CF9044601F087F80A4B13B12046F2
:107B3000AFF3008000210748FEF79CFB00210648B8
:107B4000BDE83840FEF70CBB00F403201E1C279A4A
:107B5000D4E6032000000000CD7A0D0008B5024BEA
:107B60001B681B68019308BD5C02030008B5024B4B
:107B70001B685B68019308BD5C02030008B5024BFB
:107B80001B689B68019308BD5C02030010B50446A6
:107B900000F006F9FFF7D8FB28B1A4F10B03022B84
:107BA00001D8002010BD00F0AFF8FFF751F908B17F
:107BB000012CF6D9FFF7A0FEFFF79AFE18B1A4F149
:107BC0000903012BEDD9232C8CBF0020012010BD0F
:107BD000232838B504460D460AD8FF2908D0FFF7F8
:107BE000D5FF28B129462046BDE83840FEF736B912
:107BF00038BD38B504460D46FEF738F9FF2810D0D9
:107C0000062804D84D2323FA00F0C30709D42046E0
:107C1000FFF7BCFF28B129462046BDE83840FEF7F3
:107C20002DB938BD10B50446FEF720F90438C0B2AE
:107C3000012808D92046FFF7A9FF20B12046BDE85A
:107C40001040FEF723B9002010BD0D2810B50446E2
:107C50009CBF0E34A4B22046FFF798FF50B1032119
:107C60002046FEF7F3F8032804D12046BDE8104073
:107C7000FEF714B9002010BD10B5074C2368DB07D0
:107C800008D42046FCF70FFA20B1FEF7A7F82046EB
:107C9000FCF70EFA014810BDDCE60320E0E6032005
:107CA00070B5044614252A46094E002100F0BBFF9A
:107CB000258020253146A5602561284600F0AFF8D3
:107CC00031466060284600F0AAF8E060204670BDAA
:107CD000AC9E0D0070B5044614252A46094E0021BD
:107CE00000F0A1FF258020253146A56025612846AA
:107CF00000F095F831466060284600F090F8E060AA
:107D0000204670BDAC9E0D0030B50E4D296811F0B7
:107D1000010487B013D12846FCF7C5F978B101A852
:107D2000FFF7BEFF01AA21460748FFF73DF82846A6
:107D3000FCF7BEF9054A0649034800F051F802482D
:107D400007B030BDE4E60320FCE6032090E1032009
:107D50004F6D0D0010B50E4C2368DB0786B013D4B1
:107D60002046FCF7A0F978B101A8FFF7B3FF01AAFC
:107D700001210848FFF718F82046FCF799F9064A50
:107D80000649044800F02CF8024806B010BD00BFB8
:107D900010E70320E8E6032090E103204F6D0D007B
:107DA00038B50B4D296811F001040FD12846FCF7B6
:107DB0007AF958B121460748FFF7B8FA2846FCF788
:107DC00077F9054A0549034800F00AF8014838BD2B
:107DD00020E7032014E7032090E103201D730D002A
:107DE0000B460146184600F00DBEFCF758B90000DE
:107DF000024B1868BFF35F8F704700BF24E7032072
:107E000010B5002814BF044601242046FEF78AFA64
:107E100020B9FFF7EDFF08B18047F6E710BDFFF787
:107E2000EFBF08B5FEF7A6FA244B1A68D0075CBF6F
:107E300001221A60224B1A68D1075CBF01221A6026
:107E4000204B1A68D2075CBF01221A601E4B1A68C9
:107E5000D0075CBF01221A601C4B1A68D1075CBFB7
:107E600001221A601A4B1A68D2075CBF01221A60FD
:107E7000184B1A68D0075CBF01221A60164B1A68AB
:107E8000D1075CBF01221A60144B1A68D2075CBF8D
:107E900001221A60124B1A68D0075CBF01221A60D7
:107EA000104B1A68D1075CBF01221A600E4B1A688A
:107EB000D2075CBF01221A60704700BF54E703205D
:107EC00050E703204CE7032048E7032044E7032062
:107ED00040E703203CE7032038E7032034E7032092
:107EE00030E703202CE7032028E70320184B1A680B
:107EF000D1075CBF01221A60164B1A68D2075CBF1B
:107F000001221A60144B1A68D0075CBF01221A6064
:107F1000124B1A68D1075CBF01221A60104B1A6815
:107F2000D2075CBF01221A600E4B1A68D0075CBFF3
:107F300001221A600C4B1A68D1075CBF01221A603B
:107F40000A4B1A68D2075CBF01221A60704700BF53
:107F500074E7032070E703206CE7032068E7032041
:107F600064E7032060E703205CE7032058E7032071
:107F7000184B1A68D1075CBF01221A60164B1A68A9
:107F8000D2075CBF01221A60144B1A68D0075CBF8D
:107F900001221A60124B1A68D1075CBF01221A60D5
:107FA000104B1A68D2075CBF01221A600E4B1A6888
:107FB000D0075CBF01221A600C4B1A68D1075CBF66
:107FC00001221A600A4B1A68D2075CBF01221A60AC
:107FD000704700BF94E7032090E703208CE703205D
:107FE00088E7032084E7032080E703207CE7032061
:107FF00078E70320244B1A68D0075CBF01221A607F
:10800000224B1A68D1075CBF01221A60204B1A6804
:10801000D2075CBF01221A601E4B1A68D0075CBFF2
:1080200001221A601C4B1A68D1075CBF01221A603A
:108030001A4B1A68D2075CBF01221A60184B1A68E3
:10804000D0075CBF01221A60164B1A68D1075CBFCB
:1080500001221A60144B1A68D2075CBF01221A6011
:10806000124B1A68D0075CBF01221A60104B1A68C5
:10807000D1075CBF01221A600E4B1A68D2075CBFA1
:1080800001221A60704700BFC4E70320C0E7032045
:10809000BCE70320B8E70320B4E70320B0E70320E0
:1080A000ACE70320A8E70320A4E70320A0E7032010
:1080B0009CE7032098E7032081F0004102E000BF25
:1080C00083F0004330B54FEA41044FEA430594EA98
:1080D000050F08BF90EA020F1FBF54EA000C55EAD3
:1080E000020C7FEA645C7FEA655C00F0E2804FEAA4
:1080F0005454D4EB5555B8BF6D420CDD2C4480EA86
:10810000020281EA030382EA000083EA010180EAB5
:10811000020281EA0303362D88BF30BD11F0004F03
:108120004FEA01314FF4801C4CEA113102D0404239
:1081300061EB410113F0004F4FEA03334CEA133374
:1081400002D0524263EB430394EA050F00F0A7808C
:10815000A4F10104D5F1200E0DDB02FA0EFC22FA87
:1081600005F2801841F1000103FA0EF2801843FA7B
:1081700005F359410EE0A5F120050EF1200E012A6C
:1081800003FA0EFC28BF4CF0020C43FA05F3C018AA
:1081900051EBE37101F0004507D54FF0000EDCF123
:1081A000000C7EEB00006EEB0101B1F5801F1BD3CC
:1081B000B1F5001F0CD349085FEA30004FEA3C0CD0
:1081C00004F101044FEA445212F5800F80F09A80C6
:1081D000BCF1004F08BF5FEA500C50F1000041EBCA
:1081E000045141EA050130BD5FEA4C0C404141EBCE
:1081F000010111F4801FA4F10104E9D191F0000FF5
:1082000004BF01460020B1FA81F308BF2033A3F177
:108210000B03B3F120020CDA0C3208DD02F1140C6E
:10822000C2F10C0201FA0CF021FA02F10CE002F1A9
:108230001402D8BFC2F1200C01FA02F120FA0CFCA2
:10824000DCBF41EA0C019040E41AA2BF01EB0451EB
:10825000294330BD6FEA04041F3C1CDA0C340EDCE9
:1082600004F11404C4F1200220FA04F001FA02F32C
:1082700040EA030021FA04F345EA030130BDC4F1EA
:108280000C04C4F1200220FA02F001FA04F340EADF
:108290000300294630BD21FA04F0294630BD94F090
:1082A000000F83F4801306BF81F480110134013D77
:1082B0004EE77FEA645C18BF7FEA655C29D094EAE8
:1082C000050F08BF90EA020F05D054EA000C04BF66
:1082D0001946104630BD91EA030F1EBF0021002051
:1082E00030BD5FEA545C05D14000494128BF41F0F0
:1082F000004130BD14F580043CBF01F5801130BD54
:1083000001F0004545F0FE4141F470014FF00000DE
:1083100030BD7FEA645C1ABF194610467FEA655C8F
:108320001CBF0B46024650EA013406BF52EA033531
:1083300091EA030F41F4002130BD00BF90F0000F1F
:1083400004BF0021704730B54FF4806404F132045B
:108350004FF000054FF0000150E700BF90F0000F14
:1083600004BF0021704730B54FF4806404F132043B
:1083700010F0004548BF40424FF000013EE700BF0B
:1083800042004FEAE2014FEA31014FEA02701FBF9B
:1083900012F07F4393F07F4F81F06051704792F06D
:1083A000000F14BF93F07F4F704730B54FF46074E7
:1083B00001F0004521F0004120E700BF50EA010232
:1083C00008BF704730B54FF000050AE050EA0102DF
:1083D00008BF704730B511F0004502D5404261EB4F
:1083E00041014FF4806404F132045FEA915C3FF490
:1083F000DCAE4FF003025FEADC0C18BF03325FEA29
:10840000DC0C18BF033202EBDC02C2F1200300FADD
:1084100003FC20FA02F001FA03FE40EA0E0021FA02
:1084200002F11444C1E600BF70B54FF0FF0C4CF4EC
:10843000E06C1CEA11541DBF1CEA135594EA0C0FA2
:1084400095EA0C0F00F0DEF82C4481EA030621EADD
:108450004C5123EA4C5350EA013518BF52EA033518
:1084600041F4801143F4801338D0A0FB02CE4FF0CA
:108470000005E1FB02E506F00042E0FB03E54FF0FA
:108480000006E1FB03569CF0000F18BF4EF0010EF2
:10849000A4F1FF04B6F5007F64F5407404D25FEAEE
:1084A0004E0E6D4146EB060642EAC62141EA5551A1
:1084B0004FEAC52040EA5E504FEACE2EB4F1FD0CE3
:1084C00088BFBCF5E06F1ED8BEF1004F08BF5FEA61
:1084D000500E50F1000041EB045170BD06F0004613
:1084E00046EA010140EA020081EA0301B4EB5C04C0
:1084F000C2BFD4EB0C0541EA045170BD41F48011B8
:108500004FF0000E013C00F3AB8014F1360FDEBFDC
:10851000002001F0004170BDC4F10004203C35DAB8
:108520000C341BDC04F11404C4F1200500FA05F33B
:1085300020FA04F001FA05F240EA020001F00042DC
:1085400021F0004110EBD37021FA04F642EB060152
:108550005EEA430E08BF20EAD37070BDC4F10C047C
:10856000C4F1200500FA04F320FA05F001FA04F240
:1085700040EA020001F0004110EBD37041F100012C
:108580005EEA430E08BF20EAD37070BDC4F1200537
:1085900000FA05F24EEA020E20FA04F301FA05F29F
:1085A00043EA020321FA04F001F0004121FA04F247
:1085B00020EA020000EBD3705EEA430E08BF20EA17
:1085C000D37070BD94F0000F0FD101F00046400051
:1085D00041EB010111F4801F08BF013CF7D041EAD3
:1085E000060195F0000F18BF704703F000465200D7
:1085F00043EB030313F4801F08BF013DF7D043EAA8
:108600000603704794EA0C0F0CEA135518BF95EA5D
:108610000C0F0CD050EA410618BF52EA4306D1D1E4
:1086200081EA030101F000414FF0000070BD50EA03
:10863000410606BF1046194652EA430619D094EA8D
:108640000C0F02D150EA013613D195EA0C0F05D177
:1086500052EA03361CBF104619460AD181EA0301CB
:1086600001F0004141F0FE4141F470014FF0000083
:1086700070BD41F0FE4141F4780170BD70B54FF01E
:10868000FF0C4CF4E06C1CEA11541DBF1CEA13559E
:1086900094EA0C0F95EA0C0F00F0A7F8A4EB050480
:1086A00081EA030E52EA03354FEA013100F0888077
:1086B0004FEA03334FF0805545EA131343EA126340
:1086C0004FEA022245EA111545EA10654FEA0026F5
:1086D0000EF000419D4208BF964244F1FD0404F5AE
:1086E000407402D25B084FEA3202B61A65EB03050A
:1086F0005B084FEA32024FF480104FF4002CB6EBC7
:10870000020E75EB030E22BFB61A754640EA0C0046
:108710005B084FEA3202B6EB020E75EB030E22BF86
:10872000B61A754640EA5C005B084FEA3202B6EBC7
:10873000020E75EB030E22BFB61A754640EA9C0086
:108740005B084FEA3202B6EB020E75EB030E22BF56
:10875000B61A754640EADC0055EA060E18D04FEA14
:10876000051545EA16754FEA06164FEAC30343EAB4
:1087700052734FEAC2025FEA1C1CC0D111F4801F81
:108780000BD141EA00014FF000004FF0004CB6E77A
:1087900011F4801F04BF01430020B4F1FD0C88BF19
:1087A000BCF5E06F3FF6AFAEB5EB030C04BFB6EB24
:1087B000020C5FEA500C50F1000041EB045170BD17
:1087C0000EF0004E4EEA113114EB5C04C2BFD4EB44
:1087D0000C0541EA045170BD41F480114FF0000EC8
:1087E000013C90E645EA060E8DE60CEA135594EA44
:1087F0000C0F08BF95EA0C0F3FF43BAF94EA0C0F47
:108800000AD150EA01347FF434AF95EA0C0F7FF4BB
:1088100025AF104619462CE795EA0C0F06D152EA0F
:1088200003353FF4FDAE1046194622E750EA4106F3
:1088300018BF52EA43067FF4C5AE50EA41047FF404
:108840000DAF52EA43057FF4EBAE12E74FF0FF3C69
:1088500006E000BF4FF0010C02E000BF4FF0010C3A
:108860004DF804CD4FEA410C7FEA6C5C4FEA430CB3
:1088700018BF7FEA6C5C1BD001B050EA410C0CBF02
:1088800052EA430C91EA030F02BF90EA020F002064
:10889000704710F1000F91EA030F58BF994208BFCB
:1088A00090422CBFD8176FEAE37040F00100704788
:1088B0004FEA410C7FEA6C5C02D150EA013C07D1DF
:1088C0004FEA430C7FEA6C5CD6D152EA033CD3D02A
:1088D0005DF8040B704700BF8446104662468C4624
:1088E0001946634600E000BF01B5FFF7B7FF002857
:1088F00048BF10F1000F01BD4DF808EDFFF7F4FF80
:108900000CBF012000205DF808FB00BF4DF808ED0A
:10891000FFF7EAFF34BF012000205DF808FB00BF2D
:108920004DF808EDFFF7E0FF94BF012000205DF84F
:1089300008FB00BF4DF808EDFFF7CEFF94BF012004
:1089400000205DF808FB00BF4DF808EDFFF7C4FFFD
:1089500034BF012000205DF808FB00BF4FEA410250
:10896000B2F1E04324BFB3F5001CDCF1FE5C0DD98D
:1089700001F0004C4FEAC0024CEA5070B2F1004FD7
:1089800040EB830008BF20F00100704711F0804FDA
:1089900021D113F13872BCBF01F00040704741F49F
:1089A00080114FEA5252C2F11802C2F1200C10FAA3
:1089B0000CF320FA02F018BF40F001004FEAC12387
:1089C0004FEAD32303FA0CFC40EA0C0023FA02F32B
:1089D0004FEA4303CCE77FEA625307D150EA013301
:1089E0001EBF4FF0FE4040F44000704701F00040D1
:1089F00040F0FE4040F40000704700BF0A22002112
:108A000000F026BA10B5054C13462CB10A460146B3
:108A10000220AFF3008010BD204610BD0000000012
:108A200038B5074B1C68E36B05461BB92420FDF7DE
:108A300079FCE063E16B2846BDE8384000F002B8FD
:108A400040E103202DE9F0410C46804600F006FD90
:108A500021460746404600F005FD466906F26C7661
:108A6000B307044605D1642296FBF2F302FB1363BD
:108A70004BB94FF4C87596FBF5F305FB1365B5FAD2
:108A800085F35B0900E001235F4A302505FB0325E0
:108A900000F018FB00F018FB5C4B1B68F3B17B681F
:108AA0009E4205D13968D8F80030FA6941B90AE028
:108AB000304600F05FFA0028F4D14FF0FF330DE0AC
:108AC000934208DB01E0934207DABA6B9342ACBFF2
:108AD0000023012302E0002300E001232362236A34
:108AE000012B0CBFF96B396A4FF461633C2091FB99
:108AF000F3F603FB1613616893FBF0F200FB1230F0
:108B00002368891AA26861601B1A921B3B2B2360A1
:108B1000A26003DD013161603C3B04E0002B03DA1D
:108B2000013961603C33236063683B2B03DD013214
:108B3000A2603C3B04E0002B03DA013AA2603C3324
:108B40006360A368172B22DDE2690132E261A2694A
:108B50000132062AC8BF0022A261E268183B013236
:108B6000A3602369E26055F823108A4246DD013391
:108B70000C2B0CBF63692361A2EB0102E26001BF11
:108B8000013300222261636108BFE26136E0002BFD
:108B900034DAE269013AE261A269013A48BF062289
:108BA000A261E2681833013AE260A36032BB236934
:108BB000013B01D423611DE00B23236163695A1E2D
:108BC00012F0030F626103F26B7305D1642193FB12
:108BD000F1F201FB12324AB94FF4C87193FBF1F282
:108BE00001FB1233B3FA83F35B0900E0012303F5C1
:108BF000B673E361236955F82330E36000F063FA4C
:108C00002046BDE8F08100BF10A00D00E4E703207E
:108C100010B5431E0A44914204D011F8014B03F8E9
:108C2000014FF8E710BD02440346934202D003F817
:108C3000011BFAE77047000038B5124B1C68A36BA4
:108C40000546D3B91820FDF76DFB43F20E33A06340
:108C500003804AF6CD33438041F2342383804EF2C1
:108C60006D63C3804DF6EC630381052343810B23C1
:108C7000838101220023C0E90423A36B00221D612C
:108C80005A6138BD40E1032010F8012B11F8013B77
:108C9000012A28BF9A42F7D0D01A7047034611F82C
:108CA000012B03F8012B002AF9D17047024B014632
:108CB000186800F003B800BF40E1032070B5064615
:108CC00008460C4600F00DF8451C29463046FDF7D5
:108CD00059FB064618B12A462146FFF799FF304650
:108CE00070BD034613F8012B002AFBD1181A013876
:108CF000704730B582B1451E013915F8013F11F8B2
:108D0000014FA34206D1EC431444E04201D0002BB2
:108D1000F3D11C46181B30BD104630BD10B50346BC
:108D200042B111F8014B03F8014B013A002CF7D185
:108D30001A4400E010BD934202D003F8014BFAE759
:108D400010BD00002DE9F04780464048D0F8009063
:108D50000F463D4615F8014B09EB0400407800F042
:108D6000080000F0FF0608B12F46F2E72D2C03D1D2
:108D7000BD1C7C78012603E02B2C04BF7C78BD1C35
:108D800013B1102B0AD15BE0302C57D1287800F0BA
:108D9000DF0058284DD16C7810230235002E14BF07
:108DA0004FF0004C6FF0004C0027BCFBF3FA384644
:108DB00003FB1ACC09EB040E9EF801E01EF0040F31
:108DC00001D0303C0BE01EF0030E1BD0BEF1010FB2
:108DD0000CBF4FF0370E4FF0570ECEEB0404A342FA
:108DE00010DDB7F1FF3F0AD0504506D801D16445E8
:108DF00003DC03FB0040012701E04FF0FF3715F8CB
:108E0000014BD7E77B1C0CD1002E4FF0220314BF7F
:108E10004FF000406FF00040C8F800302AB9BDE8BC
:108E2000F08706B1404272B107B1691E1160BDE81A
:108E3000F0873024002BB1D10823AFE70A23ADE738
:108E4000302CA3D0AAE7BDE8F08700BFDCE0032008
:108E500013460A46014602480068FFF773BF00BF89
:108E600040E103202DE9F04780463C48D0F80090CF
:108E70000E46354615F8014B09EB0400407800F02A
:108E8000080000F0FF0708B12E46F2E72D2C03D1B1
:108E9000B51C7478012703E02B2C04BF7478B51C33
:108EA00013B1102B0AD153E0302C4FD1287800F0A9
:108EB000DF00582845D16C78102302354FF0FF3C75
:108EC0000026BCFBF3FC03FB0CFA6FEA0A0A3046EF
:108ED00009EB040E9EF801E01EF0040F01D0303CB7
:108EE0000BE01EF0030E1AD0BEF1010F0CBF4FF0C5
:108EF000370E4FF0570ECEEB0404A3420FDD002EC9
:108F000008DB604506D801D1544503DC03FB004073
:108F1000012601E04FF0FF3615F8014BD8E7002E8F
:108F200007DA2223C8F800304FF0FF302AB9BDE835
:108F3000F08707B1404272B106B1691E1160BDE809
:108F4000F0873024002BB9D10823B7E70A23B5E70F
:108F5000302CABD0B2E7BDE8F08700BFDCE00320E7
:108F600013460A46014602480068FFF77BBF00BF70
:108F700040E103202DE9F74F044600F06FFA40F27C
:108F8000B1739C4240F396806FF4F663E318A4F249
:108F9000B2729B1040F26D1505FB0235A4F26D72A2
:108FA0006FF0630392FBF3F36FF4C8622B44A518D0
:108FB0004FF4C87295FBF2F51D44642394FBF2F75D
:108FC00094FBF3F602FB174703FB164600F1380348
:108FD000B7FA87FE019304F0030344604FEA5E1E74
:108FE000014600934FF0070C0B7A4A2B0ED14B69C8
:108FF000009AEC1802B906B927B93B2BD4BF00235D
:10900000012300E000232344013B3FE0442B02D135
:109010004B692B443AE0009B2BB9002E0CBFF04665
:109020004FF0010800E0F046244BCC68302202FBF0
:109030000838A8F1040AA9460123A34204DA5AF821
:1090400004BF0133D944F8E709F1040393FBFCFBA7
:10905000CBEBCB0A012CCAEB030A4B69B8BF012446
:1090600004F18044B3EB0A0A0B6904F1FF3403F105
:10907000FF3348BF0AF1070AC3EBC30358F8244083
:109080005344A34201DB073BFBE74B448C690C4A8A
:1090900002FB03430C6A234441F81C3F019B9942A5
:1090A000A2D1C369826B9342ACBF0023012303604A
:1090B000012000E0002003B0BDE8F08F10A00D00FB
:1090C0008051010070477047014B186800F002B8EA
:1090D00040E103202DE9F04F8DB0074600F0BEF9C6
:1090E000B049B14E0446384600F0B0F9054660B9C3
:1090F000AE4BAF4A1860AF4B1860AF4B30681A6088
:109100005A60FDF717F9356048E1316879B9306880
:10911000FDF710F92846FFF7E4FD411C3846FDF73E
:1091200031F9306048B12946FFF7B8FD05E0FFF797
:10913000ABFD002800F03281E9E72B789F4AA04977
:109140003A2B08BF01350AAE33462846FDF702F92F
:10915000002840F323810A9BEF18EB5C2D2B03D1F1
:1091600001374FF0FF3503E02B2B08BF01370125F6
:109170000DF1200A0DF11E0B4FF000080396CDF8FB
:1091800008A00196CDF800B0334607AA8D49ADF886
:109190001E803846ADF82080FDF7DCF8404540F3EE
:1091A000FD80BDF81E20BDF82030DFF824923C2160
:1091B00001FB0233BDF81C204FF4616101FB023357
:1091C0005D4325627C4D7D4B2B600A9B7C491F448F
:1091D0004A4633463846FDF7BDF8404508DC2B6863
:1091E0006B60724B226A1A60724BC3F80080D5E044
:1091F0000A9BC5F80490FD18FB5C2D2B03D10135AB
:109200004FF0FF3703E02B2B08BF01350127002368
:10921000ADF81C30ADF81E30ADF820300A9303963F
:10922000CDF808A00196CDF800B0334607AA6549ED
:109230002846FDF78FF8002804DC236AA3F5616354
:10924000E3630EE0BDF81E20BDF820303C2101FB99
:109250000233BDF81C204FF4616101FB02335F4310
:10926000E7630A9B27461D444FF000092B782C2BFF
:1092700008BF013595F80080B8F14D0F26D10DF1EA
:109280002603029309AB00930396019633460DF132
:1092900022024D492846FDF75DF803287ED1BDF82E
:1092A00022104B1E0B2B79D8BDF82420531E042B03
:1092B00074D8BDF82630062B70D887F80880F9607E
:1092C0003A617B610A9B05EB03082AE0B8F14A0F7B
:1092D00006BF0135434644230A220BA928460593BD
:1092E000FFF73EFEDDF82C80ADF826004545059BD6
:1092F00014D14D23B9F1000F07D123720323E3608A
:1093000002232361C4F814900BE084F824300B236B
:10931000A3620123E3620023236302E080B23B7275
:1093200078610223ADF81C300023ADF81E30ADF893
:1093300020300A9398F800302F2B0BD10396CDF8EC
:1093400008A00196CDF800B0334607AA1F49404651
:10935000FDF700F8BDF81E20BDF820303C2101FBD0
:109360000233BDF81C204FF4616101FB0233BB6185
:109370000A9D09F10109B9F1020F454407F11C07E3
:109380007FF474AF6068FFF7F5FD084B226A1A603E
:10939000E36B9B1A074A18BF012313600DB0BDE8A9
:1093A000F08F00BF70A00D00E0E70320E8E7032086
:1093B00073A00D00E4E7032044E10320D3E703207A
:1093C00077A00D009AA00D0086A00D0099A00D00B9
:1093D000C8E703202DE9F84F07468B46904600F07A
:1093E000D9F8194B1D689A463DB15C46234613F8DF
:1093F000012B42B13D2A1C46F8D1384600F0CBF88B
:109400000020BDE8F88FCBEB0404A94659F8040B03
:109410000028F2D022465946FFF76BFC88B959F86C
:10942000043C1E191B5D3D2B0BD1DAF80030ED1A00
:10943000AD103846C8F8005000F0ADF8701CBDE81B
:10944000F88F4D46E1E700BF8CE1032007B501AA84
:10945000FFF7C0FF03B05DF804FB00000048704751
:109460004CE103200268474BF0B592FBF3F403FB99
:109470001422002ABCBF02F5A83202F5C0724FF4D4
:10948000616004F52F2492FBF0F300FB13224FF0F0
:109490003C00ACBF04F66C2404F66B248B6092FB9A
:1094A000F0F300FB13224B600A600723E21C92FBDF
:1094B000F3F3C3EBC303D31A8B61334B334D94FBEC
:1094C000F5F503FB054448F6AC62B4FBF2F2224426
:1094D00040F2B457B4FBF7F3D21A2D48B4FBF0F0C6
:1094E00048F69466131AB3FBF6F6344440F26D1254
:1094F000B3FBF2F0B3FBF7F3E31A02FB103399244A
:1095000003EB83020232B2FBF4F20A2A04FB02F4F8
:1095100004F102064FF00504B6FBF4F434BF022652
:109520006FF0090616444FF4C87202FB05055F1C74
:10953000012E98BF0135B3F5997FA7EB040702D33D
:10954000A3F5997214E0820705D16424B0FBF4F20C
:1095500004FB12024AB94FF4C872B0FBF2F402FBEA
:109560001400B0FA80F2520900E001223B331A44A1
:10957000A5F26C750023CA614D610E61CF600B626C
:109580000846F0BD805101004FC5FDFFB13A020011
:10959000B03A02007047704721400D005D400D0059
:1095A00089400D008D400D0000000000000000000B
:1095B00000000000B9420D0001430D0029410D00DB
:1095C0002D9B0D00689B0D006D9B0D00729B0D0087
:1095D000769B0D007B9B0D00809B0D00849B0D00F6
:1095E0008F9B0D009A9B0D002D9B0D00359B0D0050
:1095F000399B0D00429B0D004A9B0D00569B0D00B0
:109600005C9B0D00537461727475702053756363B5
:1096100065737366756C00000000000000000000B8
:10962000000000000000000000000000000000003A
:10963000000000000000000000000000000000002A
:109640000000000002000000257320533A25322E4E
:10965000306625252C20513A25322E3066252520CE
:109660000025342E316620430025342E3166202516
:10967000250025342E3166206C757800256920255B
:10968000250041542B4346554E3D31360D0A007B93
:109690002254656D7065726174757265223A253465
:1096A0002E31662C202248756D6964697479223ADE
:1096B00025342E31662C20224C696768744C6576FF
:1096C000656C223A25342E31662C2022536F696C4A
:1096D0006D6F69737475726531223A25692C202289
:1096E000536F696C6D6F69737475726532223A25B8
:1096F000692C20227761746572507265737375727C
:1097000065223A25692C2022536F6C656E6F69645F
:10971000223A25692C202242617474657279223ABA
:1097200025692C2022526573657473223A25692CB1
:109730002022416C65727473223A25697D0052774C
:10974000616E64612D53656E73652D416E642D43AA
:109750006F6E74726F6C2D456C6173746963006118
:1097600067726963756C747572652D6177732D7797
:109770006562686F6F6B005277616E64612D53652F
:109780006E73652D416E642D436F6E74726F6C0045
:109790004E6F204461746100556269646F74732078
:1097A000486F6F6B00526573706F6E736520526502
:1097B00063656976656400556E6B6E6F776E2072B7
:1097C0006573706F6E736520726563657669656435
:1097D0002025690030004E6F20536F696C2053655F
:1097E0006E736F727300436F6E666967004F6E65CC
:1097F00020536F696C2053656E736F720054776FDE
:1098000020536F696C2053656E736F7273004E6FD7
:109810002050726573737572652053656E736F7235
:109820000050726573737572652053656E736F7245
:109830002050726573656E74004E6F204C696768C6
:10984000742053656E736F72004C6967687420539F
:10985000656E736F722050726573656E74004E6F23
:109860002054656D70202F2048756D696469747986
:109870002053656E736F722050726573656E74004D
:1098800053657420566572626F7365204D6F646511
:1098900000436C656172656420566572626F736522
:1098A000204D6F6465004C6F7720506F7765722094
:1098B0004D6F64650054727565004E6F726D616C1A
:1098C000204F7065726174696F6E730046616C73CE
:1098D00065004F6E004F6666004F70656E207468BD
:1098E000652056616C7665005761746572696E67B4
:1098F00000436C6F7365207468652076616C7665D3
:109900000059657300796573006E6F004E6F004EED
:109910006F20536F6C656E6F69642041747461636E
:109920006865640046726F6D20257320746F202572
:1099300073005374617465205472616E7369746945
:109940006F6E00737061726B2F6465766963652F4B
:1099500073657373696F6E2F656E640054616B6914
:109960006E672061204E6170005374617465004C15
:109970006F772042617474657279202D20536C6575
:109980006570696E67004572726F722053746174FE
:1099900065202D205265736574004572726F7220C8
:1099A0005374617465202D20506F77657220437960
:1099B000636C65004572726F722053746174652028
:1099C0002D2046756C6C204D6F64656D205265735B
:1099D0006574004572726F722074616B696E6720E6
:1099E0004D6561737572656D656E7473005369675B
:1099F0006E616C005265736574436F756E740052CE
:109A0000656C656173650053746174654F66436886
:109A1000670042617474657279436F6E746578741F
:109A2000004C6F77506F7765724D6F6465005465B9
:109A30006D70657261747572650048756D696469F1
:109A40007479004C756D696E6F7369747900536F2A
:109A5000696C4D6F6973747572653100536F696C11
:109A60004D6F6973747572653200507265737375EA
:109A70007265004D6561737572652D4E6F77005686
:109A80006572626F73652D4D6F6465005365745325
:109A90006F696C53656E736F7273005365745072A7
:109AA00065737375726553656E736F720053657479
:109AB0004C6967687453656E736F7200536F6C65A1
:109AC0006E6F696450726573656E7400536574548B
:109AD000656D7048756D696453656E736F7200547F
