:020000040808EA
:10000000000008083C5A0808000006000A00050124
:0800100004027E05000000005F
:040018000050080884
:1000200009480A4908B5884205D0094A824202D0E7
:10003000121A04F023FB0748074A0021121A04F0A1
:1000400028FB064808BD00BF00000020C45808086F
:100050004C0100204C0100206808002068080020A6
:1000600070B503F009F8074B074C1E46E41AA408C4
:100070000025A54204D056F8253098470135F8E709
:1000800070BD00BF84580808C058080800F05CBE66
:1000900008B500F067FCBDE8084002F0AFBF01F012
:1000A000A5BB01F0ABBB0078B0FA80F04009704707
:1000B000012303707047000008B5044902F0EBFC0F
:1000C00018B1034B03221A70012008BD6F530808B2
:1000D0008E01002001F03EB901F044B937B5054664
:1000E0009DF8184023438DF800303C2301F09CFE1E
:1000F000284603B030BD000030B58FB0104904A8C9
:1001000001F02EFC04A801F07EFC044604A801F0D6
:10011000D9FC054604A801F0BDFC03F0B9FBCDE90C
:100120000201284603F0B4FBCDE90001054B064A65
:1001300053F824304021054801F080FB0FB030BD5A
:10014000400200207400002054500808B001002034
:100150002DE9D0431A4800231A461946406801F099
:1001600015FB40F2E73601F0A9FA4FF49674002728
:10017000002001F00FF980464FF00009002001F047
:1001800009F9B0EB080061EB09018F4208BF864214
:1001900005D301F0A3FA10B901F088FAEEE701F0F7
:1001A0009DFA18B1BDE8D04301F098BA01F0BAF851
:1001B000044B186001F07AFA013CF3D0D8E700BF95
:1001C000400200202C07002008B501F087FA80F0DB
:1001D0000100C0B208BD0000F8B501F077FA0020B8
:1001E00001F0D8F843F697260446002500270020A2
:1001F00001F0D0F8001B61EB05018F4208BF864279
:1002000005D3FFF7E1FF10B901F050FAEFE7FFF770
:10021000DBFF064800231A461946406801F0BEFA83
:100220004FF4FA6001F02EFB0120F8BD40020020DF
:100230001FB51F4802F01EF91D4802F0DFFA1D4BE2
:100240001C781D4BBCB1142241F2E82118481A60F9
:1002500002F092F94FF46171154802F017FA00228A
:1002600011460292019200920123114802F06DFAA8
:1002700041F2700116E01E2241F270010C481A6032
:1002800002F07AF940F2DC51094802F0FFF901234B
:1002900021460294019400941A46054802F055FA4A
:1002A00041F21001024804B0BDE8104002F080BAEB
:1002B0008F0100202C0200206001002008B501F011
:1002C00031F8044B1B68C01AB0F57A7F34BF0020A8
:1002D000012008BD9401002008B5FFF7EFFF18B119
:1002E000BDE80840FFF7EABF01F0E0F9F5E70000DC
:1002F00037B501F0EBF901F015F843F69725044600
:1003000001F0ECF940B101F00DF8001BA84203D850
:10031000642001F0B7FAF3E70021094B47F23052AD
:10032000084600F0CFFF4FF47A7001F0ABFA054BAE
:100330000A221B680121684602F0E0FB03B030BDD1
:100340006D5008080402002038B5046805467CB1E9
:100350006368013B63605BB9236820469B689847EC
:10036000A368013BA3601BB923682046DB6898475C
:10037000284638BD00B51F4BCBB01B6807931E4BFA
:100380001B6806931D4B1B6805931D4B1B6804934C
:100390001C4B186803F07CFACDE902011A4B18686F
:1003A00003F076FA194ACDE900014FF480710AA8EA
:1003B00001F044FA164B002216491B7808A88DF864
:1003C00000200AAAFFF78AFE09A8FFF7BDFF02F086
:1003D0005FFC114B187002F06FFC104B012218707B
:1003E0000F4B1A7000F09EFF0E4B18604BB05DF87B
:1003F00004FB00BF98010020F0010020A8010020AC
:10040000F4010020AC010020140200207A500808FA
:1004100068010020DD500808FC0100209001002048
:100420007000002064010020F0B585B0084602AFDE
:100430000E4604F08CF900F1080323F007036D4623
:10044000ADEB030D02AC421C3146204604F09CF992
:100450009DF808604EB901F041F900283BD0204BCF
:10046000204A1B788DF800602EE0204603F0FCFF48
:10047000C83801281FD801F031F960B1184B0022AB
:100480001B7838468DF800201749184AFFF726FEDA
:10049000381DFFF759FF00F045FF154B186002F0BB
:1004A000A7FE02F0EEFBC1B20520FFF715FE114BCF
:1004B00000221A700FE001F011F960B1084B002220
:1004C0001B788DF80020224638460B49FFF706FEC0
:1004D000381DFFF739FFAD460C37BD46F0BD00BFF4
:1004E00068010020F0500808175108080551080855
:1004F0009401002070000020F85008081FB5334810
:1005000000F0B6FE324C206003F0C2F9314ACDE96A
:1005100000011021304801F091F92C4800F0B4FEA0
:100520002E4B186003F0B4F92D4ACDE900011021DB
:100530002C4801F083F90A2002F043FE6423009363
:100540000023194640F68A6201F090F9264B0022FA
:100550001860264B1146586801F010F908B1FFF7F2
:10056000CBFD234801F02EFE03F01CFF214A034679
:1005700010601021204A214801F060F92468002110
:10058000204603F0E7FE20B91D49204603F000FF96
:10059000C0B11C491C4804F0B7F81C4802F0BEF872
:1005A000FFF79AFE01F09AF860B1194B00221B7810
:1005B00002A88DF800201749174AFFF78FFD03A8FE
:1005C000FFF7C2FE012004B010BD00BF9C01002057
:1005D000140200201D51080850010020AC01002029
:1005E000255108081C020020F401002040020020D0
:1005F00084010020A80100202E5108082D020020AF
:100600000000344234510808690100208F010020A5
:1006100068010020645108084651080830B5244993
:1006200085B0054602F037FA0446D0B1214B0124CB
:100630001C7002F0DDFD0420FFF74CFD1E4D40F064
:100640000400287002F0D4FD29780420FFF744FD4F
:10065000FFF7EEFD194B00221B788DF80020184A99
:100660001CE01849284602F016FAF8B1114B124D59
:100670001C7002F0BDFD0420FFF72CFD20F00400EB
:10068000287002F0B5FD29780420FFF725FDFFF75B
:10069000CFFD0A4B0C4A1B788DF800400B4902A88D
:1006A000FFF71CFD03A8FFF74FFE012005B030BD8A
:1006B0006F5308082C0200203D0200206801002032
:1006C0006A5108088151080883510808995108089F
:1006D00030B5224985B0054602F0DDF90446C0B1C7
:1006E0001F4B01241C7002F083FD0420FFF7F2FC75
:1006F0001C4D40F00800287002F07AFD2978042093
:10070000FFF7EAFC184B00221B788DF80020174AEF
:100710001AE01749284602F0BEF9E8B1104B114D16
:100720001C7002F065FD0420FFF7D4FC20F00800E7
:10073000287002F05DFD29780420FFF7CDFC0A4BFC
:100740000C4A1B788DF800400B4902A8FFF7C6FC45
:1007500003A8FFF7F9FD012005B030BD6F5308086D
:100760000F0200203D020020680100209E51080871
:1007700081510808AF5108089951080870B5CCB0EC
:100780000A2205A9006804F099F8C5B205F10C0326
:10079000DBB2182B3DD844B2204603F0E9FB02F04F
:1007A00011FA02F025FD29460320FFF795FC02F01F
:1007B00068FA194E194D23463060194A4FF480717A
:1007C00000240CA801F03AF82B780CAA154908A8C7
:1007D0008DF80040FFF782FC09A8FFF7B5FD4FF444
:1007E0007A7001F04FF8316808A802F007FA089B08
:1007F0000C490393039A2B7806A88DF80040FFF765
:100800006DFC07A8FFF7A0FD08A802F0D0F80120B2
:1008100000E000204CB070BDF8010020680100200D
:10082000C4510808D85108087FB52649054602F08A
:1008300032F928B92449284602F02DF900283FD082
:1008400002F0D6FC0420FFF745FC204C1D49207027
:10085000284602F020F90646A0B11D4B00221B7865
:100860001C498DF8002002A81B4AFFF737FC03A89B
:10087000FFF76AFD2378012243F001032370174B31
:100880001A7016E01049284602F005F988B1104B9D
:10089000134A1B780F4902A88DF80060FFF71EFC71
:1008A00003A8FFF751FD237803F07E0323700B4B61
:1008B0001E7002F09DFC04202178FFF70DFC012042
:1008C00004B070BD6F530808815108083D02002034
:1008D0006801002099510808DD5108080E02002027
:1008E000E751080830B5184D18492A780E2303FB44
:1008F0000212174C8FB02078009203FB0013154AA8
:10090000282104A800F09AFF2B78237000F0E6FE5F
:1009100090B1FFF7E1FC104B00221B780F498DF8D6
:10092000002002A804AAFFF7D9FB03A8FFF70CFDDB
:1009300000F0F8FC0A4B186002F0C0FA04A901F0BC
:10094000A9FF0FB030BD00BF8E01002000000020C5
:100950008D010020F951080868010020075208089D
:10096000940100207FB5964C2378013B062B00F2C2
:10097000CD81DFE813F0570107002E005700720009
:10098000A500E9008F4B1B782BB18F4B1B78022BF6
:1009900001D0FFF7A7FF8D4B1B784BB100F0C2FCD5
:1009A0008B4B1B68C01A8B4B1B68984200F2AB81C3
:1009B00002F06EF9884B1B7898421CBF032323700A
:1009C000864B1A68864B1B689A4200F39F81072367
:1009D00026E07C4B1A781D462AB17B4B1B78032BF3
:1009E00001D0FFF77FFFFFF789FD0646B8B9012365
:1009F00023702B78002B00F08981FFF76DFC794B79
:100A0000794A1B78794902A88DF80060FFF766FBE8
:100A100003A8FFF799FC00F085FC754B31E0042337
:100A2000237073E1674B1B782BB1674B1B78042B4A
:100A300001D0FFF757FF00F051FE00283ED002F032
:100A400027F90C2805D100F049FE10B1002000F074
:100A500065FEFFF78FFC0523E2E75A4B1B782BB1AD
:100A6000594B1B78052B01D0FFF73CFF614B1B78DE
:100A70004BB902232370604A564B1A6000F052FCB7
:100A8000534B186042E100F04DFC5C4B1B68C01AF0
:100A90004AF6C873984240F2398100F043FC584B43
:100AA000002218604F4B02A81B7856498DF8002091
:100AB000554AFFF713FB03A8FFF746FC0123AFE7F6
:100AC000404B1A781C462AB13F4B1B78062B01D0AD
:100AD000FFF708FF4D4B1D781E465DBB00F0FEFD85
:100AE000C8B123788BB1FFF7F7FB3E4B484A1B7820
:100AF0003E4902A88DF80050FFF7F0FA03A8FFF76F
:100B000023FC00F00FFC3A4B18604FF47A7000F0B1
:100B1000B9FEFFF761FB02F06BFB3E4B0220197838
:100B2000FFF7DAFA3C4B00210720197002F01DFB99
:100B30000123337002F0B6F8384BC0F13C003C2280
:100B40001B684243022136E01E4B1A781C462AB12C
:100B50001D4B1B78072B01D0FFF7C4FE00F0BEFD34
:100B6000D0B1237893B1FFF7B7FB1E4B00221B785F
:100B70001E498DF8002002A8294AFFF7AFFA03A802
:100B8000FFF7E2FB00F0CEFB194B18604FF47A70D0
:100B900000F078FEFFF720FB1F4B002107201970A3
:100BA00002F0E3FA02F07EF83C22C0F13C001B4B5D
:100BB00042431B68012102A801F0A0FFA6E000BF8C
:100BC0008E0100200F0200208D0100200E02002067
:100BD0001002002000020020FC010020A8010020DB
:100BE0006001002068010020185208081751080809
:100BF0009401002070000020905F0100640100203B
:100C00001802002032520808795008083E020020DD
:100C10004B520808F00100208C0100200402002043
:100C20005A5208083A4B1B782BB13A4B1B78012BD0
:100C300001D0FFF757FE00F075FB374B1B6803F53B
:100C4000EA433033984261D9344B1B68032B14DCE0
:100C500000F044FD60B1324B00221B7802A88DF8F1
:100C600000203049304AFFF739FA03A8FFF76CFB40
:100C70004FF4FA6000F006FE25E002F002F80446A8
:100C800002F0B6FA0520FFF725FA201AB0F5E15F69
:100C90001CDD00F023FD60B1214B00221B7802A86F
:100CA0008DF800201F49214AFFF718FA03A8FFF723
:100CB0004BFB4FF4FA6000F0E5FD02F099FA0021D9
:100CC0000220FFF709FA01F015FF1FE000F006FD12
:100CD00060B1134B00221B7802A88DF80020114947
:100CE000134AFFF7FBF903A8FFF72EFB4FF4FA6056
:100CF00000F0C8FD02F07CFA00210220FFF7ECF9B9
:100D0000FFF7F6FA02E00623237051E604B070BD47
:100D10000F0200208D01002018020020F0010020A9
:100D20006801002017510808715208088552080808
:100D30009F5208080023042200F0A8BC0246014884
:100D400000F04BBFAF1B08082DE9F041B8B008AA6E
:100D50001646934B03F1100514461868596808337A
:100D600003C4AB422246F7D119889B782D22A37089
:100D700021800DF1330000218A4F03F08AFC022507
:100D8000012107203D7002F0DFF90021052002F06B
:100D9000DBF904A8002400F0A9FC00237D2218A997
:100DA00004A801F08AFE234622467F49019400945C
:100DB00018A800F0ABFC7D497D48FFF7BBFF234638
:100DC0002A467C497C4800F061FC7C497C48FFF75E
:100DD000B1FF7C497C48FFF7ADFF7C497C48FFF7B9
:100DE000A9FF234601227B497B4800F04FFC7B4949
:100DF0007B48FFF79FFF7B497B48FFF79BFF23461C
:100E00002A467A497A4800F041FC7A497A48FFF745
:100E100095FF7A497A48FFF791FF7A497A48FFF7B8
:100E20008DFF7A497A48FFF789FF7A497A48FFF7B8
:100E300085FF02F0DDF92046FFF74CF901280BD1C0
:100E40004421764800F07FF9D8B97549304603F05F
:100E50005BFC01233B7014E002F0CAF90125042277
:100E600002A92046029500F085FA02F0C1F9284651
:100E7000042202A90135029400F07CFA0A2DF4D173
:100E8000DEE702F0B5F90220FFF724F9494C002211
:100E90002060114602A8029200F034FA029B142B43
:100EA00008D123680133236002F0A2F921780220DF
:100EB000FFF712F92368052B07DD02F099F90421E9
:100EC0000220FFF709F9FFF713FA02F091F9032066
:100ED000FFF700F900F10C03DBB2182B03D840B286
:100EE00003F046F800E0002001F06CFE02F080F90B
:100EF0000420FFF7EFF8374C00F00103DFF84481DE
:100F00002370484D484BC0F3800288F80000C0F3BE
:100F1000C0001A702870FFF78BF9FFF7EFFA052071
:100F200002F03CF968B998F80030207023F0010312
:100F300088F8003002F05CF9042198F80000FFF70F
:100F4000CBF83A4B1A683A4B1B689A4202DC0723EB
:100F50003B7008E0FFF7FCF828B90123354930461B
:100F60003B7003F0D1FB00F0B9FB08B12B784BB913
:100F700000F0D8F9304B186004A801F018FD38B023
:100F8000BDE8F0812D4B00221B7802A88DF80020CF
:100F90002B493246FFF7A2F803A8FFF7D5F9E7E798
:100FA000145008088E01002029040808B001002010
:100FB000BE520808F0010020C5520808BA530808BC
:100FC000D05208082D020020D852080869010020DC
:100FD000E35208080E020020F052080850010020D9
:100FE000FD5208081C02002009530808F4010020E3
:100FF00012530808B90008081F53080829080808F0
:101000002B5308081D06080838530808D10608089D
:10101000435308087D070808505308089C01002026
:101020005C5308080F0200202C020020A8010020B9
:10103000600100207153080894010020680100201D
:10104000835308083D020020214B70B500241C602A
:10105000204B01251D7000F0A5F902F039F8234658
:10106000224642F6D51102F03BF802F031F829464B
:101070002346224602F03CF84FF6FF72164B022040
:101080001C705C809A8000F0B5FA2146284600F07A
:10109000C9FA2946114D042000F024F9104E2146CA
:1010A000284601F04FF828460E4D32460E4902F010
:1010B00039F92146284601F0F4F9324628460B4911
:1010C00002F030F9BDE87040094800F019B800BFDF
:1010D0000402002068010020080200208401002092
:1010E0004C0100208F01002063210808C12408085A
:1010F0009C01002000F056B90368C9B29B681847EC
:10110000704738B505460C4602F086F8297801F09C
:10111000D2F802F081F8210AFFF7EEFF02F07CF826
:10112000E1B2FFF7E9FF02F077F8BDE8384001F0DF
:10113000CDB808B543F2A201FFF7E3FFBDE80840D0
:101140000A2000F09FBB38B50D46044602F064F853
:1011500001F09AF820462570FFF7EBFF012038BD1B
:101160000A44FF2091420ED011F8013B5840082359
:1011700010F0800F4FEA400018BF80F03100013BB3
:10118000C0B2F5D1EEE7704773B504464FF4105185
:10119000FFF7B7FF4FF4FA7000F074FB02F03CF871
:1011A0000622217801F07FF802F036F803681B6907
:1011B000984706284AD1002502F02EF803685B699B
:1011C00098470DF805000135062DF5D10222694634
:1011D0002046FFF7C5FF9DF80250854236D1022216
:1011E0000DF103012046FFF7BBFF9DF80550854236
:1011F0002CD1BDF800009DF8036040BA80B202F027
:1012000025FB15A3D3E9002302F096FB14A3D3E931
:10121000002302F0BBFC0022134B02F0D9F902F0CC
:101220009DFD9DF80450A06045EA062002F00EFBEB
:1012300000220E4B02F080FB09A3D3E9002302F049
:10124000A5FC02F08BFD6060012000E0002002B0F0
:1012500070BD00BFAFF300800000000000E06540FB
:1012600000000000E0FFEF400080464000005940D1
:1012700010B50446FFF788FF08B1A06810BD01480B
:1012800010BD00BF0000C07F10B50446FFF77CFF13
:1012900008B1606810BD014810BD00BF0000C07FEC
:1012A00000F080B808B5024B1B68DB6B019308BDEA
:1012B0002000060808B5024B1B685B6C019308BD53
:1012C0002000060808B5024B1B689B6C019308BD03
:1012D0002000060808B5024B1B681B6B019308BD74
:1012E000D001040808B5024B1B685B6E019308BD72
:1012F000B801040808B5024B1B689B6E019308BD3A
:10130000B801040808B5024B1B68DB6E019308BDE9
:10131000B801040808B5024B1B685B68019308BD5F
:101320009C01040808B5024B1B685B69019308BD6A
:101330009C01040808B5024B1B68DB69019308BDDA
:101340009C01040808B5024B1B689B6A019308BD09
:101350009C01040808B5024B1B68DB6A019308BDB9
:101360009C01040808B5024B1B681B6B019308BD68
:101370009C01040808B5024B1B689B6C019308BDD7
:101380009C01040808B5024B1B689B6D019308BDC6
:101390009C01040808B5024B1B68DB6D019308BD76
:1013A0009C01040808B5024B1B681B68019308BD2B
:1013B000B001040808B5024B1B685B68019308BDC7
:1013C000B001040808B5024B1B689B68019308BD77
:1013D000B001040808B5024B1B68DB68019308BD27
:1013E000B001040808B5024B1B681B69019308BDD6
:1013F000B001040808B5024B1B685B69019308BD86
:10140000B001040808B5024B1B681B6B019308BDB3
:10141000B001040808B5024B1B68DB68019308BDE6
:10142000AC01040808B5024B1B685B69019308BD59
:10143000AC01040808B5024B1B689B69019308BD09
:10144000AC01040808B5024B1B68DB69019308BDB9
:10145000AC01040808B5024B1B681B6A019308BD68
:10146000AC01040808B5024B1B685B6A019308BD18
:10147000AC01040808B5024B1B689B6A019308BDC8
:10148000AC01040808B5024B1B68DB6A019308BD78
:10149000AC01040808B5024B1B681B6B019308BD27
:1014A000AC01040808B5024B1B685B6B019308BDD7
:1014B000AC01040808B5024B1B681B6C019308BD06
:1014C000AC01040808B5024B1B689B6C019308BD76
:1014D000AC01040808B5024B1B68DB6C019308BD26
:1014E000AC01040808B5024B1B68DB69019308BD19
:1014F000B401040808B5024B1B681B6A019308BDC0
:10150000B401040808B5024B1B689B69019308BD30
:10151000C401040808B5024B1B685B6A019308BD4F
:10152000C401040808B5024B1B689B6A019308BDFF
:10153000C401040808B5024B1B68DB6A019308BDAF
:10154000C401040808B5024B1B681B6B019308BD5E
:10155000C401040808B5024B1B685B6B019308BD0E
:10156000C401040808B5024B1B689B6B019308BDBE
:10157000C401040808B5024B1B681B6C019308BD2D
:10158000C401040808B5024B1B681B68019308BD21
:101590001C00060808B5024B1B681B69019308BDB7
:1015A0001C00060808B5024B1B685B69019308BD67
:1015B0001C00060808B5024B1B689B69019308BD17
:1015C0001C00060808B5024B1B68DB69019308BDC7
:1015D0001C00060808B5024B1B681B6A019308BD76
:1015E0001C00060808B5024B1B681B68019308BD68
:1015F000A401040808B5024B1B685B68019308BD91
:10160000A401040808B5024B1B685B69019308BD7F
:10161000A401040808B5024B1B689B69019308BD2F
:10162000A401040808B5024B1B68DB6A019308BDDE
:10163000A401040808B5024B1B68DB6C019308BDCC
:10164000A401040808B5024B1B685B6D019308BD3B
:10165000A401040808B5024B1B689B6D019308BDEB
:10166000A401040808B5034B1B68D3F8903001931C
:1016700008BD0000A401040808B5034B1B68D3F89B
:101680009C30019308BD0000A401040808B5024B7A
:101690001B681B68019308BDCC01040808B5024B08
:1016A0001B685B68019308BDCC01040808B5024BB8
:1016B0001B689B68019308BDCC01040808B5024B68
:1016C0001B68DB68019308BDCC01040808B5024B18
:1016D0001B681B69019308BDCC01040808B5024BC7
:1016E0001B685B69019308BDCC01040808B5024B77
:1016F0001B68DB69019308BDCC01040808B5024BE7
:101700001B681B6A019308BDCC01040808B5024B95
:101710001B685B6A019308BDCC01040808B5024B45
:101720001B68DB6A019308BDCC01040808B5024BB5
:101730001B681B6B019308BDCC01040808B5024B64
:101740001B68DB6B019308BDCC01040808B5024B94
:101750001B685B68019308BDC801040808B5024B0B
:101760001B689B68019308BDC801040808B5024BBB
:101770001B68DB68019308BDC801040808B5024B6B
:101780001B681B69019308BDC801040808B5024B1A
:101790001B685B69019308BDC801040808B5024BCA
:1017A0001B689B69019308BDC801040808B5024B7A
:1017B0001B68DB69019308BDC801040808B5024B2A
:1017C0001B681B6A019308BDC801040808B5024BD9
:1017D0001B681B6B019308BDC801040808B5024BC8
:1017E0001B685B6B019308BDC801040808B5024B78
:1017F0001B681B68019308BDA001040808B5024BD3
:101800001B685B68019308BDA001040808B5024B82
:101810001B689B68019308BDA001040808B5024B32
:101820001B681B69019308BDA001040808B5024BA1
:101830001B689B69019308BDA001040808B5024B11
:101840001B68DB69019308BDA001040808B5024BC1
:101850001B68DB6A019308BDA001040808B5024BB0
:101860001B681B6B019308BDA00104088A4230B5B8
:1018700007D0039D441AED1A6C43521A94FBF2F4FC
:10188000E01830BD0021FFF7BDBE10B583680446E7
:101890000BB901F04EFDC3689847A3681BB1032242
:1018A0002146204698472046BDE81040102101F00F
:1018B0003EBD002211464068FFF760BF2DE9FF41A1
:1018C000002604AC054610468846174644F8046DC9
:1018D00002F03DFF009681B2D8F804302246384627
:1018E000FFF7E0FC20B13146284600F039FD03E067
:1018F0002146284600F02CFD284604B0BDE8F081C2
:10190000002211464068FFF759BF00221146406887
:10191000FFF764BF00224068FFF758BF002281F044
:1019200001014068FFF742BF00231A46194640688C
:10193000FFF734BF00231A4619464068FFF726BF59
:10194000002211464068FFF709BF002202214068CB
:10195000FFF70CBF00231A464068FFF7F7BE0000F0
:10196000F0B50F461A4B002503601826283389B0BE
:1019700043608560C560324629460446103002F057
:1019800088FE2A4629467868FFF7F8FE08B9A06065
:101990001BE02946324602A80095019502F079FE27
:1019A00002A96846ADF80860FFF784FC10B1012376
:1019B000A3600AE0009B019AA360E2600BB90223D6
:1019C000A36002A9204600F095F8204609B0F0BDBA
:1019D000FC53080838B5084C28252A460021204623
:1019E00002F057FE4FF0FF336360044B04225A604D
:1019F000034A25801A6038BD4802002040020020BA
:101A0000C85308087047007D7047000008B5037D83
:101A10001BB18069B0F1004F01D1002008BD02F078
:101A2000A7FA024902F0ACFB08BD00BF0000C842A3
:101A300008B5037D1BB1006AB0F1004F01D1002051
:101A400008BD02F095FA024902F09AFB08BD00BFFA
:101A50000000C84270B50D4606460A228168284635
:101A600000F070FF2C210446284600F004FF0A22F3
:101A70000444F168284600F065FF204470BDA0F1E1
:101A80000400FFF7E7BF10B50446282101F04FFC22
:101A9000204610BD08B5037D5BB1406A002808DB15
:101AA00002F066FA044902F06BFB044902F0B4FA52
:101AB00008BD034808BD00BF00FF7F470000C842C3
:101AC000000080BF08B5037D5BB1C069002808DB5A
:101AD00002F04EFA044902F053FB044902F09CFA6A
:101AE00008BD034808BD00BF00FF7F470000C84293
:101AF000000080BF30B50D4600F110040FCD0FC4BB
:101B000095E8030084E80300012030BD7047002001
:101B1000704710B50446102101F009FC204610BDA5
:101B200008B508B1FFF7F5FF08BD10B58368044696
:101B300013B1032201469847204610BD00220260DF
:101B40004FF69C72828010B5B1F9044084808A807F
:101B500002680C6804600A6010BD10B50446006895
:101B6000FFF74CFE204610BD38B5C468F4B12378A9
:101B7000022B03D104F10C00FFF7EFFF656835B1CC
:101B80002846FFF7D2FF1021284601F0D0FBA568B8
:101B900035B12846FFF7C9FF1021284601F0C7FBE1
:101BA0002046BDE83840142101F0C1BB38BD10B556
:101BB00088B00446684600F041FF694604A800F07A
:101BC0005FFF04A8A047044604A800F0F0FE6846A2
:101BD00000F0EDFE204608B010BDF0B507460E46F9
:101BE000154685B0102422460021684602F051FDBA
:101BF000002269461046ADF8004002970396019511
:101C0000FFF74CFD05B0F0BD13B5044691E80500A3
:101C100000234B600B602060626001A80193009379
:101C2000FEF792FB204602B010BD0B68036013B1B3
:101C30005A6801325A607047F7B50C4606460F469F
:101C400054F8043B02AD45F8083D214601A8FFF7D2
:101C5000ECFF29463046FFF7D7FF01A8FEF774FBDB
:101C60002046FEF771FB3846082101F060FB304644
:101C700003B0F0BD13B50B46044603C88DE803005E
:101C800093E8030084E803009DE8030083E8030071
:101C900002B010BD38B500230446036010200D4685
:101CA000FEF7FDF928B1012343608360024BC56054
:101CB00003602060204638BD30540808826810B5A3
:101CC0000AB901F036FBC368BDE81040184708B5F3
:101CD000006800F11001FFF7F1FF08BD826810B540
:101CE0000AB901F026FBC368BDE81040184708B5E3
:101CF000006800F11001FFF7F1FF08BD38B50023BF
:101D000083608B6804460D462BB102229847EB682E
:101D1000E360AB68A360204638BD0000F0B589B031
:101D200004686846FFF70AFF4FF0020200238DF8AF
:101D30000830D4E84F3F002B03D1C4E8412F0029DD
:101D4000F7D102D08DF8083063E014F10C0503D010
:101D500069462846FFF7F2FEBFF35F8F01236370E9
:101D6000BFF35F8F04F10803002053E8006F43E8DE
:101D70000002002AF9D1BFF35F8F002E49D0FFF790
:101D800059FC20B129463046FFF798FF3AE031462A
:101D900002A8FFF7B3FFE068B4F9105008B102F0F1
:101DA000BBFC06901020ADF81C50FEF778F90546F4
:101DB000E8B1002787601820FEF771F9044688B162
:101DC0000146876002A8FFF755FF049BA268A36045
:101DD000059B0492E26806A9E36004F110000592F5
:101DE000FFF7ACFE0D4B2C60EB600D4BAB6006A813
:101DF000FFF7B3FE02A8FFF798FE00222946094824
:101E0000FFF720FC3046FFF790FE1021304601F02E
:101E10008EFA6846FFF7A1FE09B0F0BDCF1C080896
:101E2000451F08088B1808082DE9F04F8BB00646AF
:101E30000F46904699469DF850A0FFF74FFC07AD1E
:101E4000834630BB4FF62E73059005A92846ADF8A2
:101E50001830FFF773FE1420FEF721F9044658B13D
:101E60000223037001234370C0F804B0C0F808B027
:101E700029460C30FFF762FE3046214640F8044BFD
:101E8000FFF708FF2846FFF768FE05A8FFF765FE85
:101E900052E000240C2314206C60AC600793FEF722
:101EA000FEF8014618B1047044704460846004A8D0
:101EB0000391FFF7EFFE224B08200893FEF7EFF89F
:101EC000044628B1039B04A940F8043BFFF7ADFE8C
:101ED00000955FFA8AF34A46414638460994FFF76F
:101EE0000DFC20B9039B5B7803F0FF0283B1039BD9
:101EF00004A906A80593FFF798FE05A93046FFF749
:101F000083FE06A8FEF720FA04A8FEF71DFA13E0E8
:101F10004FF69C7305A903A80592ADF81830FFF79A
:101F2000FDFE05A8FFF719FE05A80999FFF784FE35
:101F300006A8FEF709FADAE730460BB0BDE8F08FE5
:101F4000B5200808022AF8B5044606D0032A17D09F
:101F5000012A22D10B6803601FE018200E68FEF7EB
:101F60009EF8054650B13146FFF7C8FE3069B6F914
:101F7000147008B102F0D0FB2861AF8225600CE03C
:101F8000046854B104F11000FFF7E7FD2046FFF7A5
:101F9000CCFD1821204601F0CAF90020F8BD38B563
:101FA000002383608B6804460D462BB102229847BC
:101FB000EB68E360AB68A360204638BD022A70B5C9
:101FC000044606D0032A11D0012A18D10B680360F9
:101FD00015E014200E68FEF762F8054620B1314680
:101FE000FFF7DDFF337C2B74256008E0046834B113
:101FF0002046FFF79AFD1421204601F098F90020B1
:1020000070BD0000F0B50C46BFF35F8F87B00023B2
:1020100050E8006F40E80032002AF9D1BFF35F8F2B
:10202000002E3FD01846FFF705FB074620B121469A
:102030003046FFF753FE2EE0314601A8FFF7AFFF11
:10204000237810208DF81430FEF729F80546D0B11A
:1020500087601420FEF723F8044678B187600146B4
:1020600001A8FFF707FE039BA268A360049B0392ED
:10207000E268E3609DF81430049223740A4B2C60EC
:10208000EB600A4BAB6001A8FFF74FFD0022294629
:102090000748FFF7D7FA3046FFF747FD10213046D3
:1020A00001F045F907B0F0BDEF1C0808BD1F080896
:1020B0008B18080830B5044685B00D4668461146B1
:1020C000FFF7BAFD7CB124B228460DB102F024FB23
:1020D000029002A96846ADF80C40FFF71FFE02A867
:1020E000FFF73BFD1DE04FF0010200988DF808401E
:1020F000D0E84F3FA34203D1C0E8412F0029F7D1D8
:1021000002D08DF808300CE010F10C014FF0010303
:1021100018BF0373BFF35F8F043000F8033CFFF771
:1021200071FF01A8FEF710F905B030BD006800F09E
:10213000D4B810B50446016002710AB1FFF7F6FF8A
:10214000204610BD38B504460D4601F085F82A46F4
:1021500001462046FFF7EDFF204638BD006800F03D
:10216000C5B810B5037904460BB1FFF7F7FF204659
:1021700010BDF8B504460F4616461D46FFF7D6FFBC
:102180002068362100F09BF82068394603689B6878
:1021900098470121206800F095F80222362101239A
:1021A000206800F083F8206803685B699847307006
:1021B000206803685B69984728702046BDE8F840AE
:1021C000FFF7CCBF13B5002202AB03F8012D8DF849
:1021D000062004210DF10602FFF7CBFF9DF8070052
:1021E00001F044FB0022084B01F0A6FB01F0B6FD14
:1021F00004469DF8060001F0BBFE0146204601F0B2
:1022000003FE02B010BD00BF0000703F7047F8B57C
:10221000064615460C468F18BC4206D0336814F8A3
:10222000011B9B6830469847F6E72846F8BD002218
:10223000007CFFF70FB90021007CFFF713B90021E4
:10224000007CFFF717B90021007CFFF71BB90021C4
:10225000007CFFF71FB910B50446142101F067F8A0
:10226000204610BD10B5044608464FF47A73A360AB
:10227000044B0021207461602360FFF71BF92046A6
:1022800010BD00BF4C54080800231A461946007CB4
:10229000FFF7C0B813B50024007C0094FFF7C2F824
:1022A000C0B202B010BD0123FFF7F4BFDBB2D2B25F
:1022B000C9B2FFF7EFBF0022007CFFF7BBB8C9B27D
:1022C000FFF7F9BF0022007CFFF7BCB80121FFF740
:1022D000F9BF0021007CFFF7E5B808B50021007CBC
:1022E000FFF7F0F8B0FA80F0400908BD08B500210A
:1022F000007CFFF7EFF8B0FA80F0400908BD7047A6
:1023000010B50446082101F012F8204610BDF8B5BA
:102310000F4600F10806051D002416F8011D0A22CB
:10232000384600F0EBFAAE42044407D0002CF4D05B
:102330002E21384600F09FFA0444EEE72046F8BD0F
:10234000024A026000224260704700BF74540808CD
:10235000024A02600A684260704700BF745408086D
:10236000014A4160026070477454080810B59DF836
:10237000084044EA032343EA024242EA0161416021
:1023800010BD000037B5044D05609DF8185000954C
:10239000FFF7ECFF03B030BD74540808014A024B4C
:1023A0001A607047F65408087002002000231A468D
:1023B0004068FFF7CBB9002202214068FFF7D6B989
:1023C000002211464068FFF7C9B900221146406853
:1023D000FFF7D4B900231A4619464068FFF7D6B96B
:1023E00000231A4619464068FFF7D8B9002281F049
:1023F00001014068FFF7DAB900224068FFF7E6B94B
:10240000002211464068FFF7E9B9002211464068F2
:10241000FFF7D4B9F0B5174687B0054604A8FFF713
:102420008FFF002606AC384644F80C6D02F08FF999
:102430000A4B009681B25B6822463846FEF732FFAF
:1024400020B131462846FFF78BFF03E0214628469E
:10245000FFF77EFF284607B0F0BD00BF4002002016
:10246000024B034A1A6000225A607047740200202F
:102470006855080808B500F0EFFEFFF72AFF18B905
:1024800000F0EAFEFFF700FF00F0E6FEBDE80840BE
:10249000FFF71FBF08B500F0DFFEBDE80840FFF7FB
:1024A0001CBF10B50446017009B1FFF7F3FF2046C9
:1024B00010BD08B500F0D0FEBDE80840FFF716BF1C
:1024C00010B5037804460BB1FFF7F3FF204610BDAB
:1024D00010B504460068FFF7ECFF204610BD37B585
:1024E00002AC0D4644F8040DFFF7D4FF00F0B4FE33
:1024F0006B21FFF7E4FE00F0AFFE036829469B68FE
:10250000984700F0A9FE0121FFF7DCFE00F0A4FED1
:1025100001231A466B21FFF7C9FE00F09DFE0368F8
:102520005B69984705462046FFF7D2FFE8B203B043
:1025300030BD73B502AC15460E4644F8040DFFF7E6
:10254000A9FF00F089FE6B21FFF7B9FE00F084FEC1
:10255000036831469B68984700F07EFE0368294671
:102560009B68984700F078FE0121FFF7ABFE2046FC
:10257000FFF7AEFF02B070BD37B504460D460190BF
:10258000FFF788FF00212046FFF7A9FF41F258130B
:102590009D4200F087025BD020D841F218039D4293
:1025A0004DD00CD840F678739D4242D040F6C873A7
:1025B0009D4241D040F628739D4260D159E041F2DE
:1025C000B8039D423ED041F208139D423DD041F2F6
:1025D00068039D4253D142F020024AE041F2982321
:1025E0009D423ED00ED841F2F8139D4233D041F2C5
:1025F00048239D4232D041F2A8139D423FD142F080
:10260000400236E041F238339D422DD006D841F2E7
:10261000E8239D4233D142F060022AE041F2883340
:102620009D4224D041F2D8339D4228D142F0780215
:102630001FE042F008021CE042F0100219E042F0F4
:10264000180216E042F0280213E042F0300210E0D7
:1026500042F038020DE042F048020AE042F0500237
:1026600007E042F0580204E042F0680201E042F064
:10267000700220460021FFF75CFF012400E00024E7
:1026800001A8FFF725FF204603B030BD37B504464B
:102690000D460190FFF7FEFE00212046FFF71FFFC9
:1026A000B5F5617F00F0F80223D007D8962D1AD037
:1026B000B5F5FA7F1AD0642D29D122E040F2DC531F
:1026C0009D4219D005D8B5F5966F20D142F004028D
:1026D00017E0B5F5FA6F12D040F6B8339D4216D127
:1026E00042F007020DE042F001020AE042F002026D
:1026F00007E042F0030204E042F0050201E042F08C
:10270000060220460021FFF714FF012400E0002408
:1027100001A8FFF7DDFE204603B030BD37B5054602
:1027200002AC44F8040DFFF7B5FE01212846FFF77F
:10273000D6FE012100F0CF022846FFF7FAFE204620
:10274000FFF7C6FE012003B030BDF7B50C461746B3
:1027500005461E460190FFF79DFE002C0CBF00248D
:10276000802417B144F04004E4B20EB144F02004D8
:102770009DF820300BB144F010049DF824300BB1CB
:1027800044F008049DF828300BB144F00404022101
:102790002846FFF7A4FE00F001022243022128464A
:1027A000FFF7C7FE01A8FFF793FE012003B0F0BDBD
:1027B00037B504460D460190FFF76CFE0421204614
:1027C000FFF78DFE41F210039D4200F0030206D098
:1027D00041F270039D420AD142F0B00201E042F0A2
:1027E000980220460421FFF7A4FE012400E0002403
:1027F00001A8FFF76DFE204603B030BD37B5054692
:1028000002AC44F8040DFFF745FE05212846FFF70A
:1028100066FE052100F0CE022846FFF78AFE20461C
:10282000FFF756FE012003B030BDF8B506460D4651
:102830008F180024BD420CD0336815F8011B9B682B
:1028400030469847002801DB0444F3E7002C08BF1A
:1028500004462046F8BD70B505460C46084649B109
:1028600001F075FF2B68024621462846BDE87040FE
:10287000DB68184770BD03689B68184738B50D21A1
:102880000546FFF7F8FF0A2104462846FFF7F3FF45
:10289000204438BD38B50546FFF7DDFF044628461D
:1028A000FFF7ECFF204438BD012A98BF0A2230B55B
:1028B0000B468BB000218DF824100DF12304B3FBDF
:1028C000F2F505FB1233DBB2092B94BF30333733FB
:1028D000DBB2214604F801392B46002DEFD1FFF77A
:1028E000BAFF0BB030BD10B422B90368C9B29B68FF
:1028F00010BC1847D2B210BCFFF7D6BFFFF7F3BF2A
:102900002DE9F04107460E4615462AB9BDE8F041CB
:102910000368C9B29B6818470A2A02D1002901DA64
:1029200004E0D2B2BDE8F041FFF7BEBF2D21FFF7B2
:10293000A2FF2A46044671423846FFF7B5FF2044FD
:10294000BDE8F081FFF7DCBF10B50446FFF7EDF8F6
:10295000204610BD034800238360034A034900F06A
:10296000E1BC00BF7C0200204C010020492908087E
:10297000704710B50446102100F0D9FC204610BD68
:1029800070B504460E46074B0025036040F80C5F07
:10299000FEF7A0FC30462671FEF7A4FDA560204698
:1029A00070BD00BF9C5508080079FEF7A3BD10B5A7
:1029B00004460068FEF722FF204610BD10B504460D
:1029C000006808B1FEF71AFF00232360A36063606C
:1029D00010BD38B504460D4600680131FEF716FFFC
:1029E00010B184E82100012038BD10B50368044609
:1029F00013B143688B4207D22046FFF7EAFF20B1AC
:102A0000A3680BB922681370012010BD70B50E4683
:102A1000114604461546FFF7E8FF18B92046FFF7B0
:102A2000CDFF09E02A463146A560206801F026FE68
:102A30002268A3680021D154204670BD38B5002318
:102A4000044603604360836003730D4639B1084652
:102A500001F07DFE294602462046FFF7D7FF2046BB
:102A600038BD884210B50B46044607D0096819B135
:102A70009A68FFF7CBFF01E0FFF7A0FF204610BDEB
:102A800010B5044600230360436083600373FFF7BF
:102A9000E8FF204610BD08B582680B4612B919B987
:102AA000012008BD11B90368187802E0006801F040
:102AB00021FEB0FA80F0400908BD70B50E469AB10B
:102AC00091B185689D4202D800230B7070BD541EE1
:102AD000ED1AAC4228BF2C46016822461944304604
:102AE00001F052FE0023335570BD014600228C20B8
:102AF000FEF700BC0020FFF7F8BF000010B5044649
:102B0000084611461A460023FEF784FD064B0022B4
:102B10001A704FF6FF7258809A801A689B8822605C
:102B2000A380204610BD00BF8C0200204FF6FF722C
:102B3000034B0020187058809A80FEF75BBD00BFE1
:102B40008C020020F0B5144B144F1E68144B064441
:102B500018683B6806449E428BB01BD00AA840F818
:102B6000286D01F093FC0446436901AD03F26C73D8
:102B700043610FCC0FC50FCC0FC5D4F800E0094C52
:102B8000C5F800E001AD0FCD0FC40FCD0FC43E60FE
:102B9000C4F800E00BB0F0BDC4020020C002002069
:102BA000BC0200209402002008B50020FEF7BEFD04
:102BB00028B1FEF793FD80F00100C0B208BD0120EE
:102BC00008BD000010B50949044601F0C3FB60B917
:102BD0000749204601F0DCFB38B90649204601F0E0
:102BE0001BFA01F0DFFB044B186010BD000040C170
:102BF0000000604100006145C402002037B50E4B63
:102C000004461B6802A819440C4B1B68194440F881
:102C1000041D01F03BFC01F0EBFB054601F097FDC4
:102C20000023284400F8013C29462046FFF706FF10
:102C3000204603B030BD00BFC4020020BC0200200B
:102C400010B50020FEF79EFB044668B9FEF7CAFCEB
:102C500001280BD12046FEF7FDFC38B9FFF7A4FF91
:102C600030B9FEF723FDF9E7012010BD002010BDAB
:102C7000FFF79AFF0020FEF785FB003018BF012008
:102C800010BD08B5FFF7DCFFBDE80840FEF752BBFA
:102C900008B5FFF7F6FFFFF755FF014B986808BD31
:102CA0009402002008B5FFF7ECFFFFF74BFF014B44
:102CB000586808BD9402002008B5FFF7E2FFFFF74F
:102CC00041FF014BD86808BD94020020024B1A68EE
:102CD000024B1A60704700BF94000020B802002029
:102CE00070474174704708B5007CFEF743FC20EA4A
:102CF000E07008BD08B5007CFEF714FC20EAE07027
:102D000008BD08B5007CFEF71DFC30EA200028BF96
:102D10004FF0FF3008BD08B5007CFEF70BFC30EA31
:102D2000200028BF4FF0FF3008BD007CFEF712BC2A
:102D300010B50446142100F0FAFA204610BD70B513
:102D4000457C04460E4625B9007CFEF713FC00289E
:102D500005DD3146207CBDE87040FEF7DBBB284630
:102D600070BD000010B5044608461146002262609E
:102D70004FF47A72A260054A2074226001226274C4
:102D80001A46FEF7BFFB204610BD00BFD455080809
:102D9000007CFEF7E7BB000038B50C4D296811F048
:102DA000010411D12846FDF77EF968B1084A214691
:102DB000084B0948FFF7D6FF2846FDF779F9074A7F
:102DC0000749054800F0AEFA034838BD600300200B
:102DD00064030020DC020020C80200204C01002017
:102DE000E12C080841747047704708B50021007C49
:102DF000FEF7E0FB30EA200028BF4FF0FF3008BDAF
:102E000008B50121007CFEF7D5FB30EA200028BF81
:102E10004FF0FF3008BD08B5007CFEF7C3FB20EA89
:102E2000E07008BD08B5007CFEF7B4FB20EAE07056
:102E300008BD007CFEF7CEBB10B50446142100F09F
:102E400076FA204610BD38B50446007C0D46FEF7E4
:102E5000A9FB002801DC607C28B12946207CFEF714
:102E6000B1FB20EAE07038BD10B504460023636072
:102E70004FF47A73A360054B084623600123217445
:102E800063741146FEF77EFB204610BD0456080809
:102E900010B504461422002101F0FBFB054B20462F
:102EA0006360054BE36040F2011323818123238299
:102EB00010BD00BF6D040020EC03002030B50E4DA6
:102EC00087B001A8FFF7E4FF296811F0010410D1D1
:102ED0002846FDF7E8F860B101AA21460748FFF748
:102EE000C3FF2846FDF7E4F8054A0649034800F009
:102EF00019FA024807B030BDE80300207005002031
:102F00004C010020E92D080810B5044614220021C8
:102F100001F0BFFB054B20466360054BE36040F2C8
:102F2000011323818123238210BD00BF20060020CE
:102F30008805002010B50E4C86B001A8FFF7E4FF0D
:102F40002368DB0710D42046FDF7ADF860B101AA75
:102F500001210848FFF788FF2046FDF7A9F8064A37
:102F60000649044800F0DEF9024806B010BD00BF73
:102F7000840500200C0600204C010020E92D0808E3
:102F800008B5184B33B1FFF799FF03681B699847E1
:102F900000281EDC144B33B1FFF7FEFE03681B69EB
:102FA0009847002818DC114B0BB1AFF30080104B91
:102FB0000BB1AFF300800F4B0BB1AFF300800E4BA2
:102FC0007BB1FFF7B7FF03681B699847002806DC51
:102FD00008BDAFF30080DDE7AFF30080E3E7AFF3B8
:102FE000008008BD0000000000000000000000009C
:102FF00000000000000000000000000008B5FFF71E
:10300000BFFFFEF78FF9014B186008BD2C070020A9
:103010000248034A0349121A01F030BB0040024043
:1030200004400240C058080807B5002300931A4620
:103030006FF07701FEF720FB03B05DF804FB0000A2
:1030400007B543880A2B08D0502B09D1094B1B68C0
:103050003BB103B05DF804EB1847FFF7E5FF06E06E
:10306000002300931A466FF07701FEF705FB03B0CB
:103070005DF804FB2407002038B5104C104D236880
:10308000AB42104B0CBF012200221A7002D0FFF796
:10309000BFFF2560FEF73EF9044601F003FB0A4B33
:1030A00013B12046AFF3008000210748FEF746FB2E
:1030B000BDE8384000210548FEF7D4BA0040024080
:1030C0001E1C279A28070020000000004130080835
:1030D00008B5024B1B681B68019308BD9C010208E0
:1030E00008B5024B1B685B68019308BD9C01020890
:1030F00008B5024B1B689B68019308BD9C01020840
:1031000010B504460F48FFF74FFC28B1A4F10D039A
:10311000022B01D8002010BD00F07EF8FFF7D9F88F
:1031200008B1012CF6D9FFF737FEFFF731FE18B1D1
:10313000A4F11203012BEDD92E2C8CBF002001200D
:1031400010BD00BF700700202E2838B504460D467C
:103150000AD8FF2908D0FFF7D3FF28B12946204617
:10316000BDE83840FEF72EB938BD38B504460D46E7
:10317000FEF730F9FF2810D0062804D84D2323FA93
:1031800000F0C30709D42046FFF7BAFF28B129464B
:103190002046BDE83840FEF725B938BD10B50446D5
:1031A000FEF718F90438C0B2012808D92046FFF705
:1031B000A7FF20B12046BDE81040FEF71BB9002054
:1031C00010BD10B5044609289CBF0A34A4B220469D
:1031D000FFF796FF50B103212046FEF7EBF80328D6
:1031E00004D12046BDE81040FEF70CB9002010BD08
:1031F00010B5074C2368DB0708D42046FCF753FFC3
:1032000020B1FEF79FF82046FCF752FF014810BDA1
:10321000300700203407002038B50B4D296811F025
:1032200001040FD12846FCF73EFF58B1214607485C
:10323000FFF718F82846FCF73BFF054A0549034805
:1032400000F070F8014838BD380700205007002012
:103250004C0100200D22080810B50B4C2368DB0739
:103260000FD42046FCF71FFF58B102210748FEF794
:10327000F9FF2046FCF71CFF054A0649034800F009
:1032800051F8024810BD00BF640700203C07002031
:103290004C0100200D22080813B5084C00231A46E3
:1032A000194600932046FFF76DF82046044A054969
:1032B00002B0BDE8104000F035B800BF680700203C
:1032C0004C010020FF22080870B5114E114D124C20
:1032D00000213046FFF754FB3046104E2A46214667
:1032E00000F020F801213046FFF74AFB30460C4E33
:1032F0002A46214600F016F802213046FFF740FB2F
:103300002A4621463046BDE8704000F00BB800BFA9
:10331000700700204C010020712908088007002058
:10332000900700200B460146184601F0A1B8FCF7B3
:10333000B8BE08B5FEF78AFA244B1A68D0075CBFFE
:1033400001221A60224B1A68D1075CBF01221A6061
:10335000204B1A68D2075CBF01221A601E4B1A6804
:10336000D0075CBF01221A601C4B1A68D1075CBFF2
:1033700001221A601A4B1A68D2075CBF01221A6038
:10338000184B1A68D0075CBF01221A60164B1A68E6
:10339000D1075CBF01221A60144B1A68D2075CBFC8
:1033A00001221A60124B1A68D0075CBF01221A6012
:1033B000104B1A68D1075CBF01221A600E4B1A68C5
:1033C000D2075CBF01221A60704700BFCC07002003
:1033D000C8070020C4070020C0070020BC07002049
:1033E000B8070020B4070020B0070020AC07002079
:1033F000A8070020A4070020A0070020184B1A6887
:10340000D1075CBF01221A60164B1A68D2075CBF55
:1034100001221A60144B1A68D0075CBF01221A609F
:10342000124B1A68D1075CBF01221A60104B1A6850
:10343000D2075CBF01221A600E4B1A68D0075CBF2E
:1034400001221A600C4B1A68D1075CBF01221A6076
:103450000A4B1A68D2075CBF01221A60704700BF8E
:10346000EC070020E8070020E4070020E007002028
:10347000DC070020D8070020D4070020D007002058
:10348000184B1A68D1075CBF01221A60164B1A68E4
:10349000D2075CBF01221A60144B1A68D0075CBFC8
:1034A00001221A60124B1A68D1075CBF01221A6010
:1034B000104B1A68D2075CBF01221A600E4B1A68C3
:1034C000D0075CBF01221A600C4B1A68D1075CBFA1
:1034D00001221A600A4B1A68D2075CBF01221A60E7
:1034E000704700BF0C0800200808002004080020D6
:1034F00000080020FC070020F8070020F407002047
:10350000F0070020244B1A68D0075CBF01221A6024
:10351000224B1A68D1075CBF01221A60204B1A683F
:10352000D2075CBF01221A601E4B1A68D0075CBF2D
:1035300001221A601C4B1A68D1075CBF01221A6075
:103540001A4B1A68D2075CBF01221A60184B1A681E
:10355000D0075CBF01221A60164B1A68D1075CBF06
:1035600001221A60144B1A68D2075CBF01221A604C
:10357000124B1A68D0075CBF01221A60104B1A6800
:10358000D1075CBF01221A600E4B1A68D2075CBFDC
:1035900001221A60704700BF3C0800203808002054
:1035A00034080020300800202C08002028080020C3
:1035B00024080020200800201C08002018080020F3
:1035C000140800201008002081F0004102E000BF34
:1035D00083F0004330B54FEA41044FEA430594EAD3
:1035E000050F08BF90EA020F1FBF54EA000C55EA0E
:1035F000020C7FEA645C7FEA655C00F0E2804FEADF
:103600005454D4EB5555B8BF6D420CDD2C4480EAC0
:10361000020281EA030382EA000083EA010180EAF0
:10362000020281EA0303362D88BF30BD11F0004F3E
:103630004FEA01314FF4801C4CEA113102D0404274
:1036400061EB410113F0004F4FEA03334CEA1333AF
:1036500002D0524263EB430394EA050F00F0A780C7
:10366000A4F10104D5F1200E0DDB02FA0EFC22FAC2
:1036700005F2801841F1000103FA0EF2801843FAB6
:1036800005F359410EE0A5F120050EF1200E012AA7
:1036900003FA0EFC28BF4CF0020C43FA05F3C018E5
:1036A00051EBE37101F0004507D54FF0000EDCF15E
:1036B000000C7EEB00006EEB0101B1F5801F1BD307
:1036C000B1F5001F0CD349085FEA30004FEA3C0C0B
:1036D00004F101044FEA445212F5800F80F09A8001
:1036E000BCF1004F08BF5FEA500C50F1000041EB05
:1036F000045141EA050130BD5FEA4C0C404141EB09
:10370000010111F4801FA4F10104E9D191F0000F2F
:1037100004BF01460020B1FA81F308BF2033A3F1B2
:103720000B03B3F120020CDA0C3208DD02F1140CA9
:10373000C2F10C0201FA0CF021FA02F10CE002F1E4
:103740001402D8BFC2F1200C01FA02F120FA0CFCDD
:10375000DCBF41EA0C019040E41AA2BF01EB045126
:10376000294330BD6FEA04041F3C1CDA0C340EDC24
:1037700004F11404C4F1200220FA04F001FA02F367
:1037800040EA030021FA04F345EA030130BDC4F125
:103790000C04C4F1200220FA02F001FA04F340EA1A
:1037A0000300294630BD21FA04F0294630BD94F0CB
:1037B000000F83F4801306BF81F480110134013DB2
:1037C0004EE77FEA645C18BF7FEA655C29D094EA23
:1037D000050F08BF90EA020F05D054EA000C04BFA1
:1037E0001946104630BD91EA030F1EBF002100208C
:1037F00030BD5FEA545C05D14000494128BF41F02B
:10380000004130BD14F580043CBF01F5801130BD8E
:1038100001F0004545F0FE4141F470014FF0000019
:1038200030BD7FEA645C1ABF194610467FEA655CCA
:103830001CBF0B46024650EA013406BF52EA03356C
:1038400091EA030F41F4002130BD00BF90F0000F5A
:1038500004BF0021704730B54FF4806404F1320496
:103860004FF000054FF0000150E700BF90F0000F4F
:1038700004BF0021704730B54FF4806404F1320476
:1038800010F0004548BF40424FF000013EE700BF46
:1038900042004FEAE2014FEA31014FEA02701FBFD6
:1038A00012F07F4393F07F4F81F06051704792F0A8
:1038B000000F14BF93F07F4F704730B54FF4607422
:1038C00001F0004521F0004120E700BF50EA01026D
:1038D00008BF704730B54FF000050AE050EA01021A
:1038E00008BF704730B511F0004502D5404261EB8A
:1038F00041014FF4806404F132045FEA915C3FF4CB
:10390000DCAE4FF003025FEADC0C18BF03325FEA63
:10391000DC0C18BF033202EBDC02C2F1200300FA18
:1039200003FC20FA02F001FA03FE40EA0E0021FA3D
:1039300002F11444C1E600BF70B54FF0FF0C4CF427
:10394000E06C1CEA11541DBF1CEA135594EA0C0FDD
:1039500095EA0C0F00F0DEF82C4481EA030621EA18
:103960004C5123EA4C5350EA013518BF52EA033553
:1039700041F4801143F4801338D0A0FB02CE4FF005
:103980000005E1FB02E506F00042E0FB03E54FF035
:103990000006E1FB03569CF0000F18BF4EF0010E2D
:1039A000A4F1FF04B6F5007F64F5407404D25FEA29
:1039B0004E0E6D4146EB060642EAC62141EA5551DC
:1039C0004FEAC52040EA5E504FEACE2EB4F1FD0C1E
:1039D00088BFBCF5E06F1ED8BEF1004F08BF5FEA9C
:1039E000500E50F1000041EB045170BD06F000464E
:1039F00046EA010140EA020081EA0301B4EB5C04FB
:103A0000C2BFD4EB0C0541EA045170BD41F48011F2
:103A10004FF0000E013C00F3AB8014F1360FDEBF17
:103A2000002001F0004170BDC4F10004203C35DAF3
:103A30000C341BDC04F11404C4F1200500FA05F376
:103A400020FA04F001FA05F240EA020001F0004217
:103A500021F0004110EBD37021FA04F642EB06018D
:103A60005EEA430E08BF20EAD37070BDC4F10C04B7
:103A7000C4F1200500FA04F320FA05F001FA04F27B
:103A800040EA020001F0004110EBD37041F1000167
:103A90005EEA430E08BF20EAD37070BDC4F1200572
:103AA00000FA05F24EEA020E20FA04F301FA05F2DA
:103AB00043EA020321FA04F001F0004121FA04F282
:103AC00020EA020000EBD3705EEA430E08BF20EA52
:103AD000D37070BD94F0000F0FD101F0004640008C
:103AE00041EB010111F4801F08BF013CF7D041EA0E
:103AF000060195F0000F18BF704703F00046520012
:103B000043EB030313F4801F08BF013DF7D043EAE2
:103B10000603704794EA0C0F0CEA135518BF95EA98
:103B20000C0F0CD050EA410618BF52EA4306D1D11F
:103B300081EA030101F000414FF0000070BD50EA3E
:103B4000410606BF1046194652EA430619D094EAC8
:103B50000C0F02D150EA013613D195EA0C0F05D1B2
:103B600052EA03361CBF104619460AD181EA030106
:103B700001F0004141F0FE4141F470014FF00000BE
:103B800070BD41F0FE4141F4780170BD70B54FF059
:103B9000FF0C4CF4E06C1CEA11541DBF1CEA1355D9
:103BA00094EA0C0F95EA0C0F00F0A7F8A4EB0504BB
:103BB00081EA030E52EA03354FEA013100F08880B2
:103BC0004FEA03334FF0805545EA131343EA12637B
:103BD0004FEA022245EA111545EA10654FEA002630
:103BE0000EF000419D4208BF964244F1FD0404F5E9
:103BF000407402D25B084FEA3202B61A65EB030545
:103C00005B084FEA32024FF480104FF4002CB6EB01
:103C1000020E75EB030E22BFB61A754640EA0C0081
:103C20005B084FEA3202B6EB020E75EB030E22BFC1
:103C3000B61A754640EA5C005B084FEA3202B6EB02
:103C4000020E75EB030E22BFB61A754640EA9C00C1
:103C50005B084FEA3202B6EB020E75EB030E22BF91
:103C6000B61A754640EADC0055EA060E18D04FEA4F
:103C7000051545EA16754FEA06164FEAC30343EAEF
:103C800052734FEAC2025FEA1C1CC0D111F4801FBC
:103C90000BD141EA00014FF000004FF0004CB6E7B5
:103CA00011F4801F04BF01430020B4F1FD0C88BF54
:103CB000BCF5E06F3FF6AFAEB5EB030C04BFB6EB5F
:103CC000020C5FEA500C50F1000041EB045170BD52
:103CD0000EF0004E4EEA113114EB5C04C2BFD4EB7F
:103CE0000C0541EA045170BD41F480114FF0000E03
:103CF000013C90E645EA060E8DE60CEA135594EA7F
:103D00000C0F08BF95EA0C0F3FF43BAF94EA0C0F81
:103D10000AD150EA01347FF434AF95EA0C0F7FF4F6
:103D200025AF104619462CE795EA0C0F06D152EA4A
:103D300003353FF4FDAE1046194622E750EA41062E
:103D400018BF52EA43067FF4C5AE50EA41047FF43F
:103D50000DAF52EA43057FF4EBAE12E74FEA4102A2
:103D6000B2F1E04324BFB3F5001CDCF1FE5C0DD9D9
:103D700001F0004C4FEAC0024CEA5070B2F1004F23
:103D800040EB830008BF20F00100704711F0804F26
:103D900021D113F13872BCBF01F00040704741F4EB
:103DA00080114FEA5252C2F11802C2F1200C10FAEF
:103DB0000CF320FA02F018BF40F001004FEAC123D3
:103DC0004FEAD32303FA0CFC40EA0C0023FA02F377
:103DD0004FEA4303CCE77FEA625307D150EA01334D
:103DE0001EBF4FF0FE4040F44000704701F000401D
:103DF00040F0FE4040F40000704700BF80F00040FB
:103E000002E000BF81F0004142001FBF5FEA4103B2
:103E100092EA030F7FEA226C7FEA236C6AD04FEAB2
:103E20001262D2EB1363C1BFD218414048404140F7
:103E3000B8BF5B42192B88BF704710F0004F40F4A9
:103E4000000020F07F4018BF404211F0004F41F4C5
:103E5000000121F07F4118BF494292EA030F3FD091
:103E6000A2F1010241FA03FC10EB0C00C3F12003A4
:103E700001FA03F100F0004302D5494260EB400033
:103E8000B0F5000F13D3B0F1807F06D340084FEA9E
:103E9000310102F10102FE2A51D2B1F1004F40EB93
:103EA000C25008BF20F0010040EA030070474900FB
:103EB00040EB000010F4000FA2F10102EDD1B0FAC6
:103EC00080FCACF1080CB2EB0C0200FA0CF0AABFBB
:103ED00000EBC25052421843BCBFD0401843704759
:103EE00092F0000F81F4000106BF80F4000001325F
:103EF000013BB5E74FEA41037FEA226C18BF7FEA36
:103F0000236C21D092EA030F04D092F0000F08BF77
:103F10000846704790EA010F1CBF0020704712F05E
:103F20007F4F04D1400028BF40F00040704712F19D
:103F300000723CBF00F50000704700F0004343F002
:103F4000FE4040F4000070477FEA226216BF084638
:103F50007FEA23630146420206BF5FEA412390EAFB
:103F6000010F40F4800070474FF0000304E000BFF1
:103F700010F0004348BF40425FEA000C08BF7047A2
:103F800043F0964301464FF000001CE050EA010266
:103F900008BF70474FF000030AE000BF50EA01027B
:103FA00008BF704711F0004302D5404261EB410168
:103FB0005FEA010C02BF84460146002043F0B6438D
:103FC00008BFA3F18053A3F50003BCFA8CF2083AB2
:103FD000A3EBC25310DB01FA02FC634400FA02FCBB
:103FE000C2F12002BCF1004F20FA02F243EB0200C2
:103FF00008BF20F00100704702F1200201FA02FC24
:10400000C2F1200250EA4C0021FA02F243EB020016
:1040100008BF20EADC7070474FF0FF0C1CEAD0525A
:104020001EBF1CEAD15392EA0C0F93EA0C0F6FD01B
:104030001A4480EA010C400218BF5FEA41211ED0F9
:104040004FF0006343EA501043EA5111A0FB0131E5
:104050000CF00040B1F5000F3EBF490041EAD371BA
:104060005B0040EA010062F17F02FD2A1DD8B3F136
:10407000004F40EBC25008BF20F00100704790F0A5
:10408000000F0CF0004C08BF49024CEA502040EAF7
:1040900051207F3AC2BFD2F1FF0340EAC2507047BD
:1040A00040F400004FF00003013A5DDC12F1190FFB
:1040B000DCBF00F000407047C2F10002410021FA6D
:1040C00002F1C2F1200200FA02FC5FEA310040F185
:1040D000000053EA4C0308BF20EADC70704792F0FE
:1040E000000F00F0004C02BF400010F4000F013A36
:1040F000F9D040EA0C0093F0000F01F0004C02BF31
:10410000490011F4000F013BF9D041EA0C018FE79F
:104110000CEAD15392EA0C0F18BF93EA0C0F0AD0A5
:1041200030F0004C18BF31F0004CD8D180EA0100CB
:1041300000F00040704790F0000F17BF90F0004F64
:10414000084691F0000F91F0004F14D092EA0C0F46
:1041500001D142020FD193EA0C0F03D14B0218BFD9
:10416000084608D180EA010000F0004040F0FE401F
:1041700040F40000704740F0FE4040F440007047BB
:104180004FF0FF0C1CEAD0521EBF1CEAD15392EA3A
:104190000C0F93EA0C0F69D0A2EB030280EA010C2A
:1041A00049024FEA402037D04FF0805343EA1111C3
:1041B00043EA10130CF000408B4238BF5B0042F121
:1041C0007D024FF4000C8B4224BF5B1A40EA0C00C6
:1041D000B3EB510F24BFA3EB510340EA5C00B3EBF8
:1041E000910F24BFA3EB910340EA9C00B3EBD10FE6
:1041F00024BFA3EBD10340EADC001B0118BF5FEA38
:104200001C1CE0D1FD2A3FF650AF8B4240EBC25060
:1042100008BF20F0010070470CF0004C4CEA502021
:104220007F32C2BFD2F1FF0340EAC250704740F470
:1042300000004FF00003013A37E792F0000F00F062
:10424000004C02BF400010F4000F013AF9D040EAE0
:104250000C0093F0000F01F0004C02BF490011F474
:10426000000F013BF9D041EA0C0195E70CEAD1536C
:1042700092EA0C0F08D142027FF47DAF93EA0C0F53
:104280007FF470AF084676E793EA0C0F04D14B0237
:104290003FF44CAF08466EE730F0004C18BF31F0E9
:1042A000004CCAD130F000427FF45CAF31F00043E3
:1042B0007FF43CAF5FE700BF4FF0FF3C06E000BF7C
:1042C0004FF0010C02E000BF4FF0010C4DF804CD9F
:1042D0004FEA40024FEA41037FEA226C18BF7FEAAF
:1042E000236C11D001B052EA530C18BF90EA010FB1
:1042F00058BFB2EB030088BFC81738BF6FEAE17040
:1043000018BF40F0010070477FEA226C02D15FEADB
:10431000402C05D17FEA236CE4D15FEA412CE1D047
:104320005DF8040B704700BF844608466146FFE70E
:104330000FB5FFF7C9FF002848BF10F1000F0FBDF0
:104340004DF808EDFFF7F4FF0CBF012000205DF8E9
:1043500008FB00BF4DF808EDFFF7EAFF34BF01206E
:1043600000205DF808FB00BF4DF808EDFFF7E0FF07
:1043700094BF012000205DF808FB00BF4DF808ED58
:10438000FFF7D2FF94BF012000205DF808FB00BFBB
:104390004DF808EDFFF7C8FF34BF012000205DF89D
:1043A00008FB00BF4FEA4002B2F1FE4F0FD34FF0BF
:1043B0009E03B3EB12620DD94FEA002343F0004392
:1043C00010F0004F23FA02F018BF404270474FF040
:1043D0000000704712F1610F01D1420205D110F0C7
:1043E000004008BF6FF0004070474FF0000070477A
:1043F000094B70B51C680646256C3DB91A20FDF7BF
:10440000F5F91A222064294600F043F9216C304660
:10441000BDE8704000F002B8FC00002010B50C466A
:10442000416986B001F26C71036982690491016887
:1044300003EB43030391416802EB4202029181685E
:104440000191C1682046009104490B4404490A4483
:104450000449FDF7E3F9204606B010BD41560808AF
:104460002C560808655608080A22002100F026BAD2
:1044700010B5054C13462CB10A4601460220AFF395
:10448000008010BD204610BD0000000038B5074B6D
:1044900005461C68E36B1BB92420FDF7A7F9E06310
:1044A000E16B2846BDE8384000F002B8FC0000206F
:1044B0002DE9F0410C46804600F006FD21460746F6
:1044C000404600F005FD4669044606F26C76B307E7
:1044D00005D1642296FBF2F302FB13634BB94FF450
:1044E000C87596FBF5F305FB1365B5FA85F35B0913
:1044F00000E001235F4A302505FB032500F018FB8F
:1045000000F018FB5C4B1B68F3B17B689E4205D141
:104510003968D8F80030FA6941B90AE0304600F04D
:104520005FFA0028F4D14FF0FF330DE0934208DB2F
:1045300001E0934207DABA6B9342ACBF0023012338
:1045400002E0002300E001232362236A3C20012BC8
:104550000CBFF96B396A4FF4616391FBF3F603FB0F
:10456000161393FBF0F200FB123061682368891A7E
:10457000A2681B1A921B3B2B23606160A26003DDC3
:10458000013161603C3B04E0002B03DA01396160DA
:104590003C33236063683B2B03DD0132A2603C3B6C
:1045A00004E0002B03DA013AA2603C336360A368A5
:1045B000172B22DDE269183B0132E261A269A36098
:1045C0000132062AC8BF0022A261E26823690132D3
:1045D000E26055F823108A4246DD01330C2B08BFF8
:1045E0006369A2EB0102E26005BF0133002223618F
:1045F000226104BF6361E26136E0002B34DAE269D4
:104600001833013AE261A269A360013A48BF062269
:10461000A261E268013AE26032BB2369013B01D446
:1046200023611DE00B23236163695A1E12F0030FFF
:10463000626103F26B7305D1642193FBF1F201FB1C
:1046400012324AB94FF4C87193FBF1F201FB1233F5
:10465000B3FA83F35B0900E0012303F5B673E3616A
:10466000236955F82330E36000F063FA2046BDE883
:10467000F08100BFE85708085C08002010B5431E11
:104680000A44914204D011F8014B03F8014FF8E7B6
:1046900010BD03460244934202D003F8011BFAE71F
:1046A0007047000038B5124B05461C68A36BD3B9A0
:1046B0001820FDF79BF843F20E33A06303804AF6FF
:1046C000CD33438041F2342383804EF26D63C38047
:1046D0004DF6EC630381052343810B238381012283
:1046E0000023C0E90423A36B00221D615A6138BD79
:1046F000FC00002010F8012B11F8013B012A28BF13
:104700009A42F7D0D01A7047034611F8012B03F8EC
:10471000012B002AF9D17047024B0146186800F0BE
:1047200003B800BFFC00002070B5064608460C46E2
:1047300000F00DF8451C29463046FDF78FF8064677
:1047400018B12A462146FFF799FF304670BD03464F
:1047500013F8012B002AFBD1181A0138704730B525
:1047600082B1451E013915F8013F11F8014FA342EE
:1047700006D1EC431444E04201D0002BF3D11C4697
:10478000181B30BD104630BD034610B542B111F8BC
:10479000014B013A03F8014B002CF7D11A4400E019
:1047A00010BD934202D003F8014BFAE710BD0000A0
:1047B0002DE9F0470F4680463F48D0F800903D462F
:1047C00015F8014B09EB0400407800F0080000F0F8
:1047D000FF0608B12F46F2E72D2C03D1BD1C7C78D3
:1047E000012603E02B2C04BF7C78BD1C13B1102BD9
:1047F0000AD15BE0302C57D1287800F0DF00582830
:104800004DD16C7810230235002E14BF4FF0004CB0
:104810006FF0004CBCFBF3FA0027384603FB1ACCC0
:1048200009EB040E9EF801E01EF0040F01D0303CAD
:104830000BE01EF0030E1BD0BEF1010F0CBF4FF0BA
:10484000370E4FF0570ECEEB0404A34210DDB7F144
:10485000FF3F0AD0504506D801D1644503DC03FB75
:104860000040012701E04FF0FF3715F8014BD7E773
:104870007B1C0CD1002E4FF0220314BF4FF00040E0
:104880006FF00040C8F800302AB9BDE8F08706B1E3
:10489000404272B107B1691E1160BDE8F087302453
:1048A000002BB1D10823AFE70A23ADE7302CA3D00A
:1048B000AAE7BDE8F08700BF9800002013460A462B
:1048C000014602480068FFF773BF00BFFC000020EC
:1048D0002DE9F0470E4680463B48D0F8009035461B
:1048E00015F8014B09EB0400407800F0080000F0D7
:1048F000FF0708B12E46F2E72D2C03D1B51C7478C2
:10490000012703E02B2C04BF7478B51C13B1102BC6
:104910000AD153E0302C4FD1287800F0DF0058281E
:1049200045D16C78102302354FF0FF3CBCFBF3FC03
:1049300003FB0CFA00266FEA0A0A304609EB040E64
:104940009EF801E01EF0040F01D0303C0BE01EF099
:10495000030E1AD0BEF1010F0CBF4FF0370E4FF00F
:10496000570ECEEB0404A3420FDD002E08DB60459A
:1049700006D801D1544503DC03FB0040012601E0C9
:104980004FF0FF3615F8014BD8E7002E07DA222347
:10499000C8F800304FF0FF302AB9BDE8F08707B102
:1049A000404272B106B1691E1160BDE8F087302443
:1049B000002BB9D10823B7E70A23B5E7302CABD0D9
:1049C000B2E7BDE8F08700BF9800002013460A4612
:1049D000014602480068FFF77BBF00BFFC000020D3
:1049E0002DE9F74F044600F06FFA40F2B1739C4294
:1049F00040F3968040F26D156FF4F663E318A4F26D
:104A0000B2729B1005FB0235A4F26D726FF0630366
:104A100092FBF3F36FF4C8622B44A5184FF4C872ED
:104A200094FBF2F795FBF2F502FB17471D44642354
:104A300094FBF3F6B7FA87FE014603FB164600F136
:104A40003803019304F0030344604FEA5E1E0093B1
:104A50004FF0070C0B7A4A2B0ED14B69009AEC18D9
:104A600002B906B927B93B2BD4BF0023012300E0CC
:104A700000232344013B3FE0442B02D14B692B44EC
:104A80003AE0009B2BB9002E0CBFF0464FF0010816
:104A900000E0F046A946244B302202FB0838CC68DF
:104AA000A8F1040A0123A34204DA5AF804BF01332F
:104AB000D944F8E709F1040393FBFCFBCBEBCB0AE9
:104AC000CAEB030A4B69012CB8BF0124B3EB0A0AF5
:104AD0000B6904F1804403F1FF3304F1FF3448BF54
:104AE0000AF1070AC3EBC30358F824405344A34216
:104AF00001DB073BFBE74B448C690C4A02FB034399
:104B00000C6A234441F81C3F019B9942A2D1C3691E
:104B1000826B9342ACBF002301230360012000E0BD
:104B2000002003B0BDE8F08FE8570808805101006D
:104B300070477047014B186800F002B8FC00002075
:104B40002DE9F04F8DB0074600F0BEF9B04904469C
:104B5000384600F0B1F9AF4E054660B9AE4BAF4AEA
:104B60001860AF4B1860AF4B30681A605A60FCF7A2
:104B700045FE356048E1316879B93068FCF73EFEA2
:104B80002846FFF7E4FD411C3846FCF767FE30601D
:104B900048B12946FFF7B8FD05E0FFF7ABFD002857
:104BA00000F03281E9E72B780AAE3A2B08BF0135D5
:104BB00033469D4A9D492846FCF738FE002840F3BD
:104BC00023810A9BEF18EB5C2D2B03D101374FF0AB
:104BD000FF3503E02B2B08BF013701250DF1200A1B
:104BE0000DF11E0B4FF000080396CDF808A00196BA
:104BF000CDF800B0334607AA8D493846ADF81E807F
:104C0000ADF82080FCF712FE404540F3FD80BDF872
:104C10001E20BDF820303C2101FB0233BDF81C20D2
:104C20004FF4616101FB02335D437F4B25627D4D93
:104C3000DFF808922B600A9B4A461F447B493346A3
:104C40003846FCF7F3FD404508DC2B68226A6B60B0
:104C5000714B1A60724BC3F80080D5E00A9BC5F80F
:104C60000490FD18FB5C2D2B03D101354FF0FF376D
:104C700003E02B2B08BF013501270023ADF81C30C2
:104C8000ADF81E30ADF820300A930396CDF808A099
:104C90000196CDF800B0334607AA65492846FCF7CF
:104CA000C5FD002804DC236AA3F56163E3630EE01D
:104CB000BDF81E20BDF820303C2101FB0233BDF8B9
:104CC0001C204FF4616101FB02335F43E763274619
:104CD0000A9B4FF000091D442B782C2B08BF01358F
:104CE00095F80080B8F14D0F26D10DF126030293FF
:104CF00009AB00930396019633460DF122024D490C
:104D00002846FCF793FD03287ED1BDF822104B1EE8
:104D10000B2B79D8BDF82420531E042B74D8BDF872
:104D20002630062B70D887F80880F9603A617B61DD
:104D30000A9B05EB03082AE0B8F14A0F06BF434679
:104D4000013544230A220BA928460593FFF73EFEAE
:104D5000DDF82C80ADF826004545059B14D14D2388
:104D6000B9F1000F07D123720323E360022323610B
:104D7000C4F814900BE084F824300B23A3620123C1
:104D8000E3620023236302E080B23B727861022376
:104D9000ADF81C300023ADF81E30ADF820300A937A
:104DA00098F800302F2B0BD10396CDF808A0019670
:104DB000CDF800B0334607AA1F494046FCF736FD40
:104DC000BDF81E20BDF820303C2101FB0233BDF8A8
:104DD0001C204FF4616101FB0233BB610A9D09F1A4
:104DE0000109B9F1020F454407F11C077FF474AFC4
:104DF0006068FFF7F5FD226A074B1A60E36B9B1AA8
:104E0000074A18BF012313600DB0BDE8F08F00BF43
:104E10004858080858080020600800204B58080827
:104E20005C080020000100204B0800204F580808B3
:104E3000725808085E580808715808084008002091
:104E40002DE9F84F07468B46904600F0D7F8194BEE
:104E50001D689A463DB15C46234613F8012B42B1CA
:104E60003D2A1C46F8D1384600F0C9F80020BDE8BC
:104E7000F88FCBEB0404A94659F8040B0028F2D0B4
:104E800022465946FFF76BFC88B959F8043C1E19B5
:104E90001B5D3D2B0BD1DAF800303846ED1AAD1012
:104EA000C8F8005000F0ABF8701CBDE8F88F4D4614
:104EB000E1E700BF4801002007B501AAFFF7C0FFE6
:104EC00003B05DF804FB00000048704708010020B3
:104ED0000268464BF0B592FBF3F403FB1422002A60
:104EE000BCBF02F5A83202F5C0724FF4616092FBBC
:104EF000F0F300FB13224FF03C008B6092FBF0F3C9
:104F000000FB132204F52F24ACBF04F66C2404F636
:104F10006B244B600A600723E21C92FBF3F3344DD1
:104F2000C3EBC30394FBF5F5D31A48F6AC6240F229
:104F3000B4578B612F4B304803FB0544B4FBF2F2AE
:104F4000B4FBF7F3B4FBF0F02244D21A48F69466AF
:104F5000131A40F26D12B3FBF6F6B3FBF2F0B3FB9B
:104F6000F7F33444E31A02FB103303EB8302992472
:104F70000232B2FBF4F25443A61C0524B6FBF4F44F
:104F80000A2A34BF02266FF0090616444FF4C8728D
:104F900002FB05055F1C012E98BF0135B3F5997F13
:104FA000A7EB040702D3A3F5997214E0820705D199
:104FB0006424B0FBF4F204FB12024AB94FF4C87245
:104FC000B0FBF2F402FB1400B0FA80F2520900E0E8
:104FD00001223B331A44A5F26C750023CA614D616E
:104FE0000E61CF600B620846F0BD00BF805101002A
:104FF000B13A02004FC5FDFFB03A0200704770475A
:1050000021000808610008088D00080891000808C0
:1050100000000000537461727475702053756363EF
:1050200065737366756C00000000000000000000EE
:105030000000000000000000000000000000000070
:105040000000000000000000000000000000000060
:1050500000000000257320533A25322E30662525A6
:105060002C20513A25322E30662525200041542B24
:105070004346554E3D31360D0A007B2254656D7016
:1050800065726174757265223A25342E31662C2062
:105090002248756D6964697479223A25342E316627
:1050A0002C2022536F696C6D6F6973747572652261
:1050B0003A25692C202242617474657279223A255E
:1050C000692C2022526573657473223A25692C205D
:1050D00022416C65727473223A25697D0043656CC8
:1050E0006C756C61725F536F696C5F486F6F6B00BA
:1050F0004E6F204461746100556269646F7473205F
:10510000486F6F6B00526573706F6E7365205265E8
:105110006365697665640053746174650025342E97
:10512000316620430025342E31662025250025696F
:10513000202525004368672044697361626C6564BB
:105140002054656D70004368617267696E67206402
:10515000697361626C65642054656D706572617419
:1051600075726500416C6572740053657420536FED
:105170006C617220506F7765726564204D6F646555
:10518000003000436C656172656420536F6C61721E
:1051900020506F7765726564204D6F6465005365BC
:1051A0007420566572626F7365204D6F64650043AD
:1051B0006C656172656420566572626F7365204D1F
:1051C0006F64650054696D65207A6F6E65206F6647
:1051D000667365742025690054696D65004C6F77AE
:1051E00020506F776572004E6F726D616C204F704A
:1051F00065726174696F6E730046726F6D202573FE
:1052000020746F202573005374617465205472619B
:105210006E736974696F6E004572726F722074618B
:105220006B696E67204D6561737572656D656E742F
:105230007300737061726B2F6465766963652F7399
:10524000657373696F6E2F656E6400476F696E6773
:1052500020746F20536C656570004C6F772042613D
:105260007474657279202D20536C656570696E6762
:10527000004572726F72205374617465202D205244
:1052800065736574004572726F7220537461746542
:10529000202D20506F776572204379636C6500453F
:1052A00072726F72205374617465202D2046756C84
:1052B0006C204D6F64656D20526573657400536991
:1052C000676E616C005265736574436F756E740030
:1052D00052656C656173650073746174654F6643F4
:1052E000686700506F776572436F6E7465787400FD
:1052F0006C6F77506F7765724D6F64650074656D84
:1053000070657261747572650068756D6964697441
:105310007900536F696C4D6F697374757265004DD8
:105320006561737572652D4E6F77004C6F77506FA6
:105330007765724D6F646500536F6C61722D4D6FB0
:10534000646500566572626F73652D4D6F6465000C
:1053500053657454696D655A6F6E6500436F756C63
:1053600064206E6F742066696E6420534854333134
:10537000004661696C656420746F20636F6E6E65B2
:105380006374005374617274757000556E6B6E6F48
:10539000776E004E6F6E6500576946690047534D42
:1053A00000554D54530043444D41004C5445004971
:1053B00045454538303231353400310000000000B9
:1053C0000000000000000000551908084B190808EB
:1053D00041190808B31808083519080829190808D8
:1053E0001D190808151908080B19080801190808DB
:1053F000BD1808080000000000000000051A080899
:10540000871A0808071A0808C51A08080D1A080894
:10541000951A0808311A0808551A0808FCFFFFFFFA
:10542000000000007F1A08080000000000000000D3
:105430000D1B0808131B0808691B0808211B080816
:105440000F1B080800000000000000000D220808E3
:10545000572208082F2208080F22080837220808B8
:105460003F220808472208084F22080800000000D1
:10547000000000000F230808FF2208080123080885
:10548000626175640053657269616C0055534253E3
:10549000657269616C310074797065007061726168
:1054A0006D00636D6400696400686E6400737472FB
:1054B0006D0066696C74006C766C006164644861B0
:1054C0006E646C65720072656D6F766548616E64BE
:1054D0006C657200656E756D48616E646C657273A3
:1054E000004A534F4E53747265616D4C6F6748614B
:1054F0006E646C657200617070002530313075200B
:10550000005D20002564002C200028293A2000207E
:105510005B00636F6465203D200064657461696CA5
:1055200073203D200066006C6E00666E00636F6441
:10553000650064657461696C006E6F6E65007472FD
:1055400061636500696E666F007761726E006572F7
:10555000726F720070616E696300616C6C000000B4
:105560000000000000000000AD230808B723080871
:10557000C1230808CB230808D5230808E12308081D
:10558000ED230808F9230808012408080B2408085B
:105590001524080800000000000000007129080818
:1055A00073290808252B3033643A253032750025DD
:1055B000592D256D2D25645425483A254D3A2553FE
:1055C000257A0061736374696D6500000000000056
:1055D00000000000E12C0808312D08083F2D0808C4
:1055E0002B280808F52C0808172D0808032D080893
:1055F0002B2D0808E32C0808E72C08080000000001
:1056000000000000E92D0808392E0808472E080878
:105610002B280808252E0808EB2D0808012E08085D
:10562000332E0808172E0808E52D080853756E4D0F
:105630006F6E547565576564546875467269536139
:10564000744A616E4665624D61724170724D617956
:105650004A756E4A756C4175675365704F63744E39
:105660006F76446563252E337320252E33732533DF
:105670006420252E32643A252E32643A252E326477
:105680002025640A0000202020202020202020281F
:1056900028282828202020202020202020202020EA
:1056A0002020202020208810101010101010101022
:1056B0001010101010100404040404040404040462
:1056C00010101010101010414141414141010101E1
:1056D00001010101010101010101010101010101BA
:1056E00001101010101010424242424242020202C7
:1056F000020202020202020202020202020202028A
:105700000210101010200000000000000000000037
:105710000000000000000000000000000000000089
:105720000000000000000000000000000000000079
:105730000000000000000000000000000000000069
:105740000000000000000000000000000000000059
:105750000000000000000000000000000000000049
:105760000000000000000000000000000000000039
:105770000000000000000000000000000000000029
:105780000000000000000000000000000000000019
:105790000000000000000000000000000000000009
:1057A00000000000000000000000000000000000F9
:1057B00000000000000000000000000000000000E9
:1057C00000000000000000000000000000000000D9
:1057D00000000000000000000000000000000000C9
:1057E00000000000000000001F0000001C0000007E
:1057F0001F0000001E0000001F0000001E0000002F
:105800001F0000001F0000001E0000001F0000001D
:105810001E0000001F0000001F0000001D0000000F
:105820001F0000001E0000001F0000001E000000FE
:105830001F0000001F0000001E0000001F000000ED
:105840001E0000001F000000545A00474D54002560
:1058500031305B5E302D392C2B2D5D256E004D25B2
:105860006875256E2E256875256E2E256875256E42
:10587000002F256875256E3A256875256E3A2568CE
:1058800075256E0049100808F5100808A1120808CF
:10589000D51908089D230808612408085529080817
:1058A0002D2B0808CD2C080899320808C9320808A1
:1058B00039330808FD33080881340808053508081D
:0458C00000000000E4
:1058C400496E697469616C697A650000000045720B
:1058D400726F7200000000000000000049646C65F3
:1058E400000000000000000000004D656173757247
:1058F400696E6700000000005265706F7274696E13
:10590400670000000000526573706F6E7365205766
:1059140061697400536C656570696E67000000000E
:1059240000004C6F77204261747465727900000046
:10593400010000008B530808935308089853080883
:105944009D530808A1530808A6530808AB53080838
:10595400AF530808C355080885560808000000001E
:1059640088570808A8570808C85708080000000006
:10597400000000000000000000000000235108089F
:105984000000000000000000000000000000000013
:105994000000000000000000000000000000000003
:1059A40000000000000000000000000000000000F3
:1059B4000000000000000000000000009C00002027
:1059C4004B5808084B58080801000000000000006C
:1059D4004A00000000000000000000000000000079
:1059E4000000000000000000000000004A00000069
:1059F40000000000000000000000000000000000A3
:0C5A04000000000000000000640800200A
:105A1000FFFFFFFFD5290100000001020304050676
:105A20000708090A0B0C0D0E0F101112131415168E
:0C5A30001718191A1B1C1D1E1F2028002F
:045A3C007856341252
:0400000508080020C7
:00000001FF
