:02000002D0002C
:1040000000400D0010680D00000006000C000501C6
:0840100004017E050000000020
:0440180094630D00A0
:1040200009480A49884208B505D0094A824202D0A7
:10403000121A02F04FF90748074A0021121A02F03B
:1040400054F9014808BD00BF0CE3032080670D0050
:1040500074E3032074E30320F0E7032070B501F05C
:1040600063FB074C074BE41AA40800251E46A54233
:1040700004D056F8253098470135F8E770BD00BFE9
:104080007C670D003C670D0000F03CB808B500F0FF
:104090005DF8BDE8084001F015BB00F083BB00F0FF
:1040A00089BB00F087BB0078B0FA80F04009704708
:1040B000012303707047000013B513438DF80030DF
:1040C0000A463C230349044600F014FD204602B092
:1040D00010BD00BFA8630D0038B5046805467CB16B
:1040E0006368013B63605BB9236820469B6898471F
:1040F000A368013BA3601BB923682046DB6898478F
:10410000284638BD13B50D4C0D4922784FF00003F9
:104110006846FFF7D1FF01A8FFF7DEFF44210948F9
:1041200000F0D7F840B90346227807496846FFF700
:10413000C3FF01A8FFF7D0FF02B010BD84E3032046
:10414000AF630D0078E30320BA630D0010B52DEDC9
:10415000048B3B489FED3B9A3B4C84B000F050F9F8
:104160003748B0EE408A00F059F9B2EE027A28EEF4
:10417000077AF1EE046AC7EE267AB4EE488AF1EEC9
:1041800010FAF0EE408A37EE899A24D618EE100A1B
:1041900001F0DCFD2D4ACDE9000140212C4800F062
:1041A00011FB4FF000032278294902A8FFF784FF92
:1041B00003A8FFF791FF19EE100A01F0C7FD254A89
:1041C000CDE900014021224800F0FCFA4FF0000345
:1041D00022781F4903E022781F494FF0000302A80C
:1041E000FFF76AFF03A8FFF777FF4FF47A7000F03C
:1041F00001FBF4EE688AF1EE10FA0FD618EE900A81
:1042000001F0A4FD154ACDE900014021104800F05D
:10421000D9FA4FF0000322780D4903E022781049C3
:104220004FF0000302A8FFF747FF03A8FFF754FF72
:104230004FF47A7000F0DEFA04B0BDEC048B10BDD0
:1042400078E303200000004284E30320CE630D00E6
:1042500085E30320DE630D00EE630D0009640D00AD
:1042600019640D0008B5054B01221A7000F01EF903
:104270000348BDE8084000F009B800BF84E303200C
:1042800078E303200368C9B29B681847704738B5C4
:1042900005460C4601F062FA297800F03BFE01F079
:1042A0005DFA210AFFF7EEFF01F058FAE1B2FFF7DD
:1042B000E9FF01F053FABDE8384000F033BE08B51D
:1042C00043F2A201FFF7E3FF0A20BDE8084000F037
:1042D00091BA38B504460D4601F040FA00F008FEE8
:1042E00020462570FFF7EBFF012038BD0A44FF2070
:1042F00091420ED011F8013B5840082310F0800F76
:104300004FEA400018BF80F03100013BC0B2F5D148
:10431000EEE770470000000073B54FF410510446FB
:10432000FFF7B5FF4FF4FA7000F064FA01F016FAE7
:104330000622217800F0EBFD01F010FA03681B69FA
:10434000984706284AD1002501F008FA03685B69FE
:1043500098470DF805000135062DF5D10222694672
:104360002046FFF7C3FF9DF80250854236D1022256
:104370000DF103012046FFF7B9FF9DF80550854276
:104380002CD1BDF800009DF803609DF8045040BAA0
:1043900080B201F0B9FC18A3D3E9002301F02AFD93
:1043A00011A3D3E9002301F04FFE0022104B01F0CE
:1043B0006DFB01F031FFA06045EA062001F0A4FC8E
:1043C00000220C4B01F016FD07A3D3E9002301F0F6
:1043D0003BFE01F021FF6060012000E0002002B000
:1043E00070BD00BFAFF3008000000000E0FFEF40B1
:1043F00000804640000059400000000000E0654099
:1044000010B50446FFF788FF10B194ED020A10BD05
:104410009FED010A10BD00BF0000C07F10B504462B
:10442000FFF77AFF10B194ED010A10BD9FED010A6C
:1044300010BD00BF0000C07F00F038B808B5024BC7
:104440001B689B68019308BD4802030008B5024B36
:104450001B681B69019308BD4802030008B5024BA5
:104460001B685B69019308BD4802030008B5024B55
:104470001B681B6B019308BD4802030008B5024B83
:104480001B685B6C019308BD4802030008B5024B32
:104490001B685B68019308BD1802030008B5024B56
:1044A0001B685B69019308BD1802030008B5024B45
:1044B0001B681B68019308BD2C02030008B5024B62
:1044C0001B68DB68019308BD2802030008B5024B96
:1044D0001B685B69019308BD2802030008B5024B05
:1044E0001B689B69019308BD2802030008B5024BB5
:1044F0001B68DB69019308BD2802030008B5024B65
:104500001B681B6A019308BD2802030008B5024B13
:104510001B685B6A019308BD2802030008B5024BC3
:104520001B689B6A019308BD2802030008B5024B73
:104530001B68DB6A019308BD2802030008B5024B23
:104540001B681B6B019308BD2802030008B5024BD2
:104550001B681B6C019308BD2802030008B5024BC1
:104560001B685B69019308BD6402030008B5024B38
:104570001B689B68019308BD6802030008B5024BE5
:104580001B68DB68019308BD6802030008B5024B95
:104590001B68DB69019308BD3002030008B5024BBC
:1045A0001B681B68019308BD3C02030008B5024B61
:1045B0001B68DB68019308BD3C02030008B5024B91
:1045C0001B681B69019308BD3C02030008B5024B40
:1045D0001B685B69019308BD3C02030008B5024BF0
:1045E0001B689B69019308BD3C02030008B5024BA0
:1045F0001B68DB69019308BD3C02030008B5024B50
:104600001B689B6A019308BD3C02030008B5024B7E
:104610001B681B68019308BD4C02030008B5024BE0
:104620001B681B69019308BD4C02030008B5024BCF
:104630001B685B69019308BD4C02030008B5024B7F
:104640001B689B69019308BD4C02030008B5024B2F
:104650001B68DB69019308BD4C02030008B5024BDF
:104660001B681B6A019308BD4C02030008B5024B8E
:104670001B685B68019308BD2002030008B5024B6C
:104680001B685B69019308BD2002030008B5024B5B
:104690001B68DB6C019308BD2002030008B5024BC8
:1046A0001B685B6D019308BD2002030008B5034B36
:1046B0001B68D3F88830019308BD00002002030076
:1046C00008B5034B1B68D3F89430019308BD000074
:1046D0002002030008B5024B1B685B69019308BD0B
:1046E0004402030008B5024B1B681B6A019308BD16
:1046F0004402030008B5024B1B68DB6B019308BD45
:104700004402030008B5024B1B685B68019308BDB7
:104710004002030008B5024B1B689B68019308BD6B
:104720004002030008B5024B1B68DB68019308BD1B
:104730004002030008B5024B1B681B69019308BDCA
:104740004002030008B5024B1B685B69019308BD7A
:104750004002030008B5024B1B689B69019308BD2A
:104760004002030008B5024B1B68DB69019308BDDA
:104770004002030008B5024B1B681B6A019308BD89
:104780004002030008B5024B1B681B6B019308BD78
:104790004002030008B5024B1B685B6B019308BD28
:1047A0004002030008B5024B1B681B68019308BD5B
:1047B0001C02030008B5024B1B685B68019308BD2F
:1047C0001C02030008B5024B1B68DB69019308BD9E
:1047D0001C02030008B5024B1B68DB6A019308BD8D
:1047E0001C02030008B5024B1B681B6B019308BD3C
:1047F0001C0203000021FFF741BF10B58368044687
:104800000BB900F0F4FFC3689847A3681BB10322FB
:1048100021462046984720461021BDE8104000F070
:10482000E4BF0B68036013B15A6801325A607047E5
:10483000024800230360FFF721BE00BFC8E3032046
:1048400070470020704710B51021044600F0CDFFDE
:10485000204610BD08B508B1FFF7F5FF08BD10B53B
:104860008368044613B1032201469847204610BDD1
:104870000022026010B54FF69C728280B1F90440AC
:1048800084808A8002680C6804600A6010BD10B5DC
:1048900004460068FFF78EFF204610BD38B5C46897
:1048A000F4B12378022B03D104F10C00FFF7EFFFE2
:1048B000656835B12846FFF7D2FF1021284600F081
:1048C00094FFA56835B12846FFF7C9FF1021284697
:1048D00000F08BFF20461421BDE8384000F085BF72
:1048E00038BD13B5044691E8050000234B600B600A
:1048F0002060626001A801930093FFF7EDFB204662
:1049000002B010BDF7B50C4602AD54F8043B45F8B3
:10491000083D06460F4601A82146FFF782FF2946BB
:104920003046FFF7DEFF01A8FFF7D6FB2046FFF772
:10493000D3FB3846082100F058FF304603B0F0BDE5
:1049400013B50B46044603C88DE8030093E8030043
:1049500084E803009DE8030083E8030002B010BD73
:1049600038B500230446036010200D46FFF795FB81
:1049700028B1012343608360024B0360C56020605F
:10498000204638BD3C640D00826810B50AB900F0BD
:104990002EFFC368BDE81040184708B5006800F155
:1049A0001001FFF7F1FF08BD826810B50AB900F0E9
:1049B0001EFFC368BDE81040184708B5006800F145
:1049C0001001FFF7F1FF08BD38B5002383608B6845
:1049D00004460D462BB102229847EB68E360AB68B2
:1049E000A360204638BD0000F0B589B00468684671
:1049F000FFF73EFF00238DF808304FF00202D4E8A5
:104A00004F3F002B03D1C4E8412F0029F7D102D03A
:104A10008DF8083063E014F10C0503D06946284690
:104A2000FFF726FFBFF35F8F01236370002004F1BF
:104A30000803BFF35F8F53E8006F43E80002002ACA
:104A4000F9D1BFF35F8F002E49D0FFF71FFE20B1D1
:104A500029463046FFF798FF3AE0314602A8FFF7B3
:104A6000B3FFE068B4F9105008B101F06FFC069094
:104A70001020ADF81C50FFF710FB0546E8B10027E9
:104A800087601820FFF709FB044688B1014687605C
:104A900002A8FFF755FF049BA268A360059B049240
:104AA00006A9E268E36004F110000592FFF7E0FE5A
:104AB0000D4BEB600D4B2C60AB6006A8FFF7E7FEDB
:104AC00002A8FFF7CCFE002229460948FFF7E6FDC1
:104AD0003046FFF7C4FE1021304600F086FE6846DF
:104AE000FFF7D5FE09B0F0BD9B490D00114C0D003C
:104AF000FB470D002DE9F04F8BB006460F46904660
:104B000099469DF850A0FFF7E5FD07AD834630BB01
:104B10004FF62E73059005A92846ADF81830FFF71B
:104B2000A7FE1420FFF7B9FA044658B10223037018
:104B300001234370C0F804B0C0F808B029460C3017
:104B4000FFF796FE3046214640F8044BFFF708FF7A
:104B50002846FFF79CFE05A8FFF799FE52E00024C7
:104B60000C2314206C60AC600793FFF796FA0146A3
:104B700018B1047044704460846004A80391FFF786
:104B8000EFFE224B08930820FFF787FA044628B16E
:104B9000039B40F8043B04A9FFF743FE00955FFA2E
:104BA0008AF34A46414638460994FFF79BFD20B9EF
:104BB000039B5B7803F0FF0283B1039B059304A979
:104BC00006A8FFF72EFE05A93046FFF78AFE06A8C5
:104BD000FFF782FA04A8FFF77FFA13E04FF69C7301
:104BE00005A903A80592ADF81830FFF7FDFE05A84A
:104BF000FFF74DFE05A80999FFF784FE06A8FFF709
:104C00006BFADAE730460BB0BDE8F08F814D0D004E
:104C1000022AF8B5044606D0032A17D0012A22D169
:104C20000B6803601FE018200E68FFF736FA054690
:104C300050B13146FFF7C8FE3069B6F9147008B1BB
:104C400001F084FB2861AF8225600CE0046854B158
:104C500004F11000FFF71BFE2046FFF700FE1821AD
:104C6000204600F0C2FD0020F8BD38B50023836067
:104C70008B6804460D462BB102229847EB68E3602F
:104C8000AB68A360204638BD022A70B5044606D042
:104C9000032A11D0012A18D10B68036015E01420F3
:104CA0000E68FFF7FAF9054620B13146FFF7DDFF40
:104CB000337C2B74256008E0046834B12046FFF78C
:104CC000CEFD1421204600F090FD002070BD0000B4
:104CD000F0B5002387B00C46BFF35F8F50E8006F3C
:104CE00040E80032002AF9D1BFF35F8F002E3FD099
:104CF0001846FFF7CBFC074620B121463046FFF7A8
:104D000053FE2EE0314601A8FFF7AFFF23788DF860
:104D100014301020FFF7C1F90546D0B18760142088
:104D2000FFF7BBF9044678B18760014601A8FFF799
:104D300007FE039BA268A360049B0392E268E36002
:104D40009DF81430049223740A4BEB600A4B2C60DC
:104D5000AB6001A8FFF783FD002229460748FFF753
:104D60009DFC3046FFF77BFD1021304600F03DFDF5
:104D700007B0F0BDBB490D00894C0D00FB470D008D
:104D800030B585B004460D4668461146FFF7BAFDBA
:104D90007CB124B228460DB101F0D8FA029002A9E4
:104DA0006846ADF80C40FFF71FFE02A8FFF76FFD45
:104DB0001DE000988DF808404FF00102D0E84F3F09
:104DC000A34203D1C0E8412F0029F7D102D08DF8CA
:104DD00008300CE010F10C014FF0010318BF037311
:104DE000BFF35F8F043000F8033CFFF771FF01A8A9
:104DF000FFF772F905B030BD002211464068FFF799
:104E0000B9BC002211464068FFF7C4BC00224068CC
:104E1000FFF7B8BC002281F001014068FFF7A2BC97
:104E200000231A4619464068FFF794BC00231A462F
:104E300019464068FFF786BC002211464068FFF71C
:104E400079BC002211464068FFF764BC00220221B1
:104E50004068FFF767BC00231A464068FFF752BC62
:104E6000024B03225A60024A1A607047CCE30320C7
:104E700058640D007047F8B5064615460C468F1865
:104E8000BC4206D0336814F8011B9B683046984733
:104E9000F6E72846F8BD0022007CFFF72FBB002173
:104EA000007CFFF733BB0021007CFFF737BB0021FC
:104EB000007CFFF73BBB0021007CFFF73FBB10B538
:104EC0001421044600F091FC204610BD10B50446A4
:104ED0004FF47A730846A3600021044B207461608C
:104EE0002360FFF733FB204610BD00BF8C640D002C
:104EF00000231A461946007CFFF7E0BA13B50024D8
:104F0000007C0094FFF7E2FAC0B202B010BD0123AA
:104F1000FFF7F4BF0022007CFFF7E0BA0022007C1C
:104F2000FFF7E4BA0121FFF7F9BF704710B5182168
:104F3000044600F05AFC204610BDF0B5037D062B58
:104F40008DB00E4600F104074FF0000402D000F1CE
:104F5000080518E00CAD394605F8304D2F232A46D8
:104F60000A20FFF7FBFA284601F00BFA33680246E5
:104F7000DB682946304698470FE024B12E213046A1
:104F800000F0CAF9044415F8011D0A22304600F069
:104F9000F3F9BD420444F0D120460DB0F0BD00004D
:104FA00010B5054B0446112240F8043B002101F0E6
:104FB0009CF9204610BD00BFB4640D000346074AAB
:104FC00010B543F8042B01F1100251F8044B43F8DB
:104FD000044B9142F9D10A781A7010BDB4640D00E7
:104FE00010B59DF8084044EA032343EA024242EA2E
:104FF000016104234160037510BD37B50D788B78CE
:105000004A78C97800912946FFF7EAFF03B030BD1E
:10501000014B024A1A607047D4E3032033650D0048
:10502000002211464068FFF7A5BB002211464068E8
:10503000FFF7B0BB00224068FFF7A4BB002281F05D
:1050400001014068FFF78EBB00231A46012140682A
:10505000FFF780BB00231A4619464068FFF772BB72
:10506000002211464068FFF765BB002211464068E8
:10507000FFF750BB002202214068FFF753BB00231B
:105080001A464068FFF73EBB38B5054688B104684C
:105090004CB1A3681BB1032221462046984710213A
:1050A000204600F0A2FB28461421BDE8384000F05D
:1050B0009CBB38BD10B103685B681847704710B5DA
:1050C00003680446BBB15868FFF7B8F978B923689C
:1050D0005A7C12B95868FFF7B9F923685868FFF786
:1050E000BDF920680023236028B1FFF7CDFF2068B9
:1050F00008B1FFF7C9FF204610BD000038B50C4BC2
:1051000003600446D0F8CC0108B1FEF7CAFFD4F81A
:10511000C45135B12846FFF7D2FF0421284600F0DC
:1051200064FBA06808B1FFF7C5FF204638BD00BF8B
:10513000A8650D0038B50E4C0E4B236000250223E8
:1051400004F5E4706360A560C4F8C451C4F8C851A4
:10515000FFF794F9084BC4F8CC5184F8D051236080
:105160002046064A0649BDE8384000F039BB00BF7A
:10517000D8E30320DC650D00A8650D0074E303206F
:10518000FD500D0000231A464068FFF7BBBA00220D
:1051900002214068FFF7C6BA002211464068FFF7B7
:1051A000B9BA002211464068FFF7C4BA00231A4674
:1051B00019464068FFF7C6BA00231A4619464068E8
:1051C000FFF7C8BA002281F001014068FFF7CABAB0
:1051D00000224068FFF7D6BA002211464068FFF768
:1051E000D9BA002211464068FFF7C4BA2DE9F0434E
:1051F000002495B016460D460746FFF7D1FE21461E
:1052000020220CA8009401F070F840230C93214652
:105210006B460CAA3046FFF7B1F90446002844D18A
:10522000024601216868FFF785FA0221804622467E
:105230006868FFF77FFA009E81462146002E34D031
:10524000002932D17368022B02D00A2B09D02AE040
:10525000B8F1000F27D0716938460431FFF7CDFE51
:1052600020E0B9F1000F1ED07469112201A801F0ED
:105270003CF806238DF8143001AD04F1080318340E
:10528000186859682A4603C20833A3421546F7D165
:1052900001A906A807ADFFF791FE0FCD3C1D0FC475
:1052A0002B6823700121F669C8E70098FFF75EF9C3
:1052B000384615B0BDE8F083024B034A1A6000225D
:1052C0005A607047ACE50320DC650D00F8B5064672
:1052D0000D468F180024BD420CD0336815F8011B11
:1052E0009B6830469847002801DB0444F3E7002C14
:1052F00008BF04462046F8BD70B505460C46084672
:1053000049B101F03EF82B68024621462846DB6889
:10531000BDE87040184770BD03689B68184730B5FA
:105320008BB00B4600218DF82410012A98BF0A2269
:105330000DF12304B3FBF2F505FB123303F0FF0379
:10534000092B94BF30333733DBB2214604F80139DF
:105350002B46002DEED1FFF7CFFF0BB030BD10B4C0
:105360002AB903685DF8044B9B68C9B21847D2B2EA
:105370005DF8044BFFF7D3BFFFF7F1BF10B504464C
:10538000FFF76DFA204610BD0348044A0449002384
:10539000836000F025BA00BFB4E5032074E3032066
:1053A0007D530D00704710B51021044600F01DFA22
:1053B000204610BD70B5084B0360044600250E461C
:1053C00040F80C5FFFF752F830462671FFF7DEF821
:1053D000A560204670BD00BF10660D00044B002084
:1053E0004FF6FF72187058809A80FFF73FB900BFE0
:1053F000C4E50320024B1A68024B1A60704700BFD5
:105400000CE30320CCE5032070474174704708B5D6
:10541000007CFFF7F3F820EAE07008BD08B5007CD7
:10542000FFF7CCF820EAE07008BD08B5007CFFF774
:10543000D5F830EA200028BF4FF0FF3008BD08B58E
:10544000007CFFF7C3F830EA200028BF4FF0FF30A0
:1054500008BD007CFFF7CAB810B51421044600F05F
:10546000C4F9204610BD70B5457C04460E4625B9EA
:10547000007CFFF7C3F8002805DD3146207CBDE83D
:105480007040FFF793B8284670BD000010B5044681
:1054900008461146002262604FF47A72A260054A03
:1054A00022600122207462741A46FFF777F82046C2
:1054B00010BD00BF4C660D0038B50C4D296811F0C9
:1054C000010411D12846FEF7EEFD68B1084A094BE8
:1054D00009482146FFF7DAFF2846FEF7E9FD074AAB
:1054E0000749054800F07CF9034838BD68E6032009
:1054F0006CE60320E4E50320D0E5032074E30320F9
:1055000009540D0041747047704708B50021007CB4
:10551000FFF794F830EA200028BF4FF0FF3008BDB5
:1055200008B50121007CFFF789F830EA200028BF88
:105530004FF0FF3008BD08B5007CFFF777F820EA90
:10554000E07008BD08B5007CFFF768F820EAE0705D
:1055500008BD007CFFF782B810B51421044600F0A6
:1055600044F9204610BD38B50446007C0D46FFF7CF
:105570005DF8002801DC607C28B12946207CFFF71B
:1055800065F820EAE07038BD10B50446002363607A
:105590004FF47A73A360054B2360012308462174FE
:1055A00063741146FFF732F8204610BD7C660D008B
:1055B00010B514220446002100F097FE204610BDCD
:1055C00030B50E4D87B001A8FFF7F2FF296811F042
:1055D000010410D12846FEF766FD60B101AA2146FC
:1055E0000748FFF7D1FF2846FEF762FD054A064946
:1055F000034800F0F5F8024807B030BDF0E603209C
:10560000F4E6032074E3032009550D00002211463F
:105610004068FFF78FB8002211464068FFF7AAB82C
:10562000002211464068FFF7B5B800224068FFF736
:10563000A9B8002281F001014068FFF793B8002368
:105640001A4619464068FFF785B800231A461946DE
:105650004068FFF777B8002211464068FFF75AB854
:10566000002202214068FFF75DB800231A46406817
:10567000FFF748B8024B04225A60024A1A6070478A
:1056800008E70320AC660D0008B50C4B33B1FFF7FB
:1056900097FF03681B699847002809DC084B63B132
:1056A000FFF70AFF03681B699847002803DC08BD61
:1056B000AFF30080F2E7AFF3008008BD0000000008
:1056C0000000000008B5FFF7DFFFFEF7E7FE014B23
:1056D000186008BD14E7032007B5002300931A469D
:1056E0006FF07701FEF7ECFF03B05DF804FB0000FC
:1056F00007B543880A2B08D0502B09D1094B1B68EA
:105700003BB103B05DF804EB1847FFF7E5FF06E097
:10571000002300931A466FF07701FEF7D1FF03B024
:105720005DF804FB10E7032010B5FEF7AFFE04465A
:1057300000F0E4FD074B13B12046AFF300800021D9
:105740000448FEF7D7FF00210348BDE81040FEF7EC
:10575000ADBF00BF00000000F1560D0038B50B4D85
:10576000296811F001040FD12846FEF79CFC58B1BE
:1057700021460748FFF7AAFB2846FEF799FC054A91
:105780000549034800F02CF8014838BD18E703200C
:105790001CE7032074E30320754E0D0070B50C4C1C
:1057A0000C4E0D4D00212046FFF704FE20460B4C09
:1057B0003246294600F014F801212046FFF7FAFD91
:1057C000324629462046BDE8704000F009B800BFC7
:1057D00030E7032074E30320A5530D0040E70320C6
:1057E0000B460146184600F067BDFEF758BC08B5E9
:1057F000FEF7F0FF244B1A68D0075CBF01221A6045
:10580000224B1A68D1075CBF01221A60204B1A682C
:10581000D2075CBF01221A601E4B1A68D0075CBF1A
:1058200001221A601C4B1A68D1075CBF01221A6062
:105830001A4B1A68D2075CBF01221A60184B1A680B
:10584000D0075CBF01221A60164B1A68D1075CBFF3
:1058500001221A60144B1A68D2075CBF01221A6039
:10586000124B1A68D0075CBF01221A60104B1A68ED
:10587000D1075CBF01221A600E4B1A68D2075CBFC9
:1058800001221A60704700BF7CE7032078E70320FD
:1058900074E7032070E703206CE7032068E7032028
:1058A00064E7032060E703205CE7032058E7032058
:1058B00054E7032050E70320184B1A68D1075CBF58
:1058C00001221A60164B1A68D2075CBF01221A60C7
:1058D000144B1A68D0075CBF01221A60124B1A6879
:1058E000D1075CBF01221A60104B1A68D2075CBF57
:1058F00001221A600E4B1A68D0075CBF01221A60A1
:105900000C4B1A68D1075CBF01221A600A4B1A6857
:10591000D2075CBF01221A60704700BF9CE70320DA
:1059200098E7032094E7032090E703208CE7032007
:1059300088E7032084E7032080E70320184B1A68D8
:10594000D1075CBF01221A60164B1A68D2075CBFF0
:1059500001221A60144B1A68D0075CBF01221A603A
:10596000124B1A68D1075CBF01221A60104B1A68EB
:10597000D2075CBF01221A600E4B1A68D0075CBFC9
:1059800001221A600C4B1A68D1075CBF01221A6011
:105990000A4B1A68D2075CBF01221A60704700BF29
:1059A000BCE70320B8E70320B4E70320B0E70320F7
:1059B000ACE70320A8E70320A4E70320A0E7032027
:1059C000244B1A68D0075CBF01221A60224B1A6868
:1059D000D1075CBF01221A60204B1A68D2075CBF56
:1059E00001221A601E4B1A68D0075CBF01221A60A0
:1059F0001C4B1A68D1075CBF01221A601A4B1A6847
:105A0000D2075CBF01221A60184B1A68D0075CBF2E
:105A100001221A60164B1A68D1075CBF01221A6076
:105A2000144B1A68D2075CBF01221A60124B1A6825
:105A3000D0075CBF01221A60104B1A68D1075CBF07
:105A400001221A600E4B1A68D2075CBF01221A604D
:105A5000704700BFECE70320E8E70320E4E70320FA
:105A6000E0E70320DCE70320D8E70320D4E70320A6
:105A7000D0E70320CCE70320C8E70320C4E70320D6
:105A8000C0E7032081F0004102E000BF83F0004343
:105A900030B54FEA41044FEA430594EA050F08BFC9
:105AA00090EA020F1FBF54EA000C55EA020C7FEA8D
:105AB000645C7FEA655C00F0E2804FEA5454D4EB0A
:105AC0005555B8BF6D420CDD2C4480EA020281EAD4
:105AD000030382EA000083EA010180EA020281EA0C
:105AE0000303362D88BF30BD11F0004F4FEA01315E
:105AF0004FF4801C4CEA113102D0404261EB41016D
:105B000013F0004F4FEA03334CEA133302D05242F2
:105B100063EB430394EA050F00F0A780A4F10104AE
:105B2000D5F1200E0DDB02FA0EFC22FA05F28018E8
:105B300041F1000103FA0EF2801843FA05F35941CE
:105B40000EE0A5F120050EF1200E012A03FA0EFC4D
:105B500028BF4CF0020C43FA05F3C01851EBE37177
:105B600001F0004507D54FF0000EDCF1000C7EEB94
:105B700000006EEB0101B1F5801F1BD3B1F5001FD2
:105B80000CD349085FEA30004FEA3C0C04F10104F1
:105B90004FEA445212F5800F80F09A80BCF1004F1A
:105BA00008BF5FEA500C50F1000041EB045141EA9C
:105BB000050130BD5FEA4C0C404141EB010111F49D
:105BC000801FA4F10104E9D191F0000F04BF014648
:105BD0000020B1FA81F308BF2033A3F10B03B3F126
:105BE00020020CDA0C3208DD02F1140CC2F10C02B6
:105BF00001FA0CF021FA02F10CE002F11402D8BF14
:105C0000C2F1200C01FA02F120FA0CFCDCBF41EADF
:105C10000C019040E41AA2BF01EB0451294330BDAE
:105C20006FEA04041F3C1CDA0C340EDC04F114048B
:105C3000C4F1200220FA04F001FA02F340EA030062
:105C400021FA04F345EA030130BDC4F10C04C4F1A8
:105C5000200220FA02F001FA04F340EA0300294688
:105C600030BD21FA04F0294630BD94F0000F83F4D2
:105C7000801306BF81F480110134013D4EE77FEAB5
:105C8000645C18BF7FEA655C29D094EA050F08BF01
:105C900090EA020F05D054EA000C04BF19461046E2
:105CA00030BD91EA030F1EBF0021002030BD5FEA26
:105CB000545C05D14000494128BF41F0004130BD4E
:105CC00014F580043CBF01F5801130BD01F00045A2
:105CD00045F0FE4141F470014FF0000030BD7FEA15
:105CE000645C1ABF194610467FEA655C1CBF0B4610
:105CF000024650EA013406BF52EA033591EA030F27
:105D000041F4002130BD00BF90F0000F04BF00211E
:105D1000704730B54FF4806404F132044FF0000551
:105D20004FF0000150E700BF90F0000F04BF0021CA
:105D3000704730B54FF4806404F1320410F0004530
:105D400048BF40424FF000013EE700BF42004FEA2B
:105D5000E2014FEA31014FEA02701FBF12F07F43A8
:105D600093F07F4F81F06051704792F0000F14BFA5
:105D700093F07F4F704730B54FF4607401F00045E9
:105D800021F0004120E700BF50EA010208BF704740
:105D900030B54FF000050AE050EA010208BF704735
:105DA00030B511F0004502D5404261EB41014FF49E
:105DB000806404F132045FEA915C3FF4DCAE4FF0A2
:105DC00003025FEADC0C18BF03325FEADC0C18BF89
:105DD000033202EBDC02C2F1200300FA03FC20FADA
:105DE00002F001FA03FE40EA0E0021FA02F1144427
:105DF000C1E600BF70B54FF0FF0C4CF4E06C1CEA3C
:105E000011541DBF1CEA135594EA0C0F95EA0C0FB0
:105E100000F0DEF82C4481EA030621EA4C5123EA23
:105E20004C5350EA013518BF52EA033541F4801152
:105E300043F4801338D0A0FB02CE4FF00005E1FB05
:105E400002E506F00042E0FB03E54FF00006E1FB4F
:105E500003569CF0000F18BF4EF0010EA4F1FF0492
:105E6000B6F5007F64F5407404D25FEA4E0E6D41D2
:105E700046EB060642EAC62141EA55514FEAC520E3
:105E800040EA5E504FEACE2EB4F1FD0C88BFBCF55F
:105E9000E06F1ED8BEF1004F08BF5FEA500E50F110
:105EA000000041EB045170BD06F0004646EA0101D6
:105EB00040EA020081EA0301B4EB5C04C2BFD4EB08
:105EC0000C0541EA045170BD41F480114FF0000E01
:105ED000013C00F3AB8014F1360FDEBF002001F06F
:105EE000004170BDC4F10004203C35DA0C341BDCE9
:105EF00004F11404C4F1200500FA05F320FA04F0BB
:105F000001FA05F240EA020001F0004221F00041EE
:105F100010EBD37021FA04F642EB06015EEA430E61
:105F200008BF20EAD37070BDC4F10C04C4F1200591
:105F300000FA04F320FA05F001FA04F240EA020044
:105F400001F0004110EBD37041F100015EEA430E15
:105F500008BF20EAD37070BDC4F1200500FA05F235
:105F60004EEA020E20FA04F301FA05F243EA0203B4
:105F700021FA04F001F0004121FA04F220EA0200C3
:105F800000EBD3705EEA430E08BF20EAD37070BD09
:105F900094F0000F0FD101F00046400041EB0101E9
:105FA00011F4801F08BF013CF7D041EA060195F0CB
:105FB000000F18BF704703F00046520043EB030385
:105FC00013F4801F08BF013DF7D043EA0603704772
:105FD00094EA0C0F0CEA135518BF95EA0C0F0CD07D
:105FE00050EA410618BF52EA4306D1D181EA0301C3
:105FF00001F000414FF0000070BD50EA410606BFBD
:106000001046194652EA430619D094EA0C0F02D101
:1060100050EA013613D195EA0C0F05D152EA033646
:106020001CBF104619460AD181EA030101F0004164
:1060300041F0FE4141F470014FF0000070BD41F0AD
:10604000FE4141F4780170BD70B54FF0FF0C4CF487
:10605000E06C1CEA11541DBF1CEA135594EA0C0FA6
:1060600095EA0C0F00F0A7F8A4EB050481EA030EF3
:1060700052EA03354FEA013100F088804FEA0333DA
:106080004FF0805545EA131343EA12634FEA0222A8
:1060900045EA111545EA10654FEA00260EF0004169
:1060A0009D4208BF964244F1FD0404F5407402D2BB
:1060B0005B084FEA3202B61A65EB03055B084FEA4C
:1060C00032024FF480104FF4002CB6EB020E75EB49
:1060D000030E22BFB61A754640EA0C005B084FEA71
:1060E0003202B6EB020E75EB030E22BFB61A7546EE
:1060F00040EA5C005B084FEA3202B6EB020E75EB39
:10610000030E22BFB61A754640EA9C005B084FEAB0
:106110003202B6EB020E75EB030E22BFB61A7546BD
:1061200040EADC0055EA060E18D04FEA051545EAAC
:1061300016754FEA06164FEAC30343EA52734FEA55
:10614000C2025FEA1C1CC0D111F4801F0BD141EACE
:1061500000014FF000004FF0004CB6E711F4801F33
:1061600004BF01430020B4F1FD0C88BFBCF5E06F13
:106170003FF6AFAEB5EB030C04BFB6EB020C5FEA23
:10618000500C50F1000041EB045170BD0EF0004E78
:106190004EEA113114EB5C04C2BFD4EB0C0541EAAA
:1061A000045170BD41F480114FF0000E013C90E6A7
:1061B00045EA060E8DE60CEA135594EA0C0F08BF6B
:1061C00095EA0C0F3FF43BAF94EA0C0F0AD150EA6A
:1061D00001347FF434AF95EA0C0F7FF425AF1046FD
:1061E00019462CE795EA0C0F06D152EA03353FF425
:1061F000FDAE1046194622E750EA410618BF52EAA2
:1062000043067FF4C5AE50EA41047FF40DAF52EA75
:1062100043057FF4EBAE12E74FEA4102B2F1E043EF
:1062200024BFB3F5001CDCF1FE5C0DD901F0004C7D
:106230004FEAC0024CEA5070B2F1004F40EB8300CD
:1062400008BF20F00100704711F0804F21D113F1F9
:106250003872BCBF01F00040704741F480114FEA32
:106260005252C2F11802C2F1200C10FA0CF320FABB
:1062700002F018BF40F001004FEAC1234FEAD323D8
:1062800003FA0CFC40EA0C0023FA02F34FEA430342
:10629000CCE77FEA625307D150EA01331EBF4FF0CB
:1062A000FE4040F44000704701F0004040F0FE40E6
:1062B00040F40000704700BF10B5054C13462CB1E8
:1062C0000A4601460220AFF3008010BD204610BDF3
:1062D0000000000010B5431E0A44914204D011F89A
:1062E000014B03F8014FF8E710BD02440346934207
:1062F00002D003F8011BFAE77047000038B5124BD3
:106300001C68A36B0546D3B91820FEF74BFA43F27D
:106310000E33A06303804AF6CD33438041F2342329
:1063200083804EF26D63C3804DF6EC6303810523D9
:1063300043810B23838101220023C0E90423A36B43
:1063400000221D615A6138BD70E30320024B0146F3
:10635000186800F003B800BF70E3032070B506466C
:1063600008460C4600F00DF8451C29463046FEF75D
:1063700039FA064618B12A462146FFF7ABFF3046E8
:1063800070BD034613F8012B002AFBD1181A0138FF
:106390007047000021400D005D400D0089400D0058
:1063A0008D400D000000000053746174757300533C
:1063B00048543331207465737400436F756C646E98
:1063C00027742066696E6420534854333100546545
:1063D0006D70202A43203D2025342E3266005465FE
:1063E0006D70202A46203D2025342E3266004661FD
:1063F000696C656420746F20726561642074656DDA
:1064000070657261747572650048756D2E20252562
:10641000203D2025342E3266004661696C6564207B
:10642000746F20726561642068756D696469747940
:1064300000000000000000000000000041480D00C6
:1064400047480D009D480D0055480D0043480D007C
:106450000000000000000000574E0D004D4E0D00E2
:10646000434E0D00394E0D002D4E0D00214E0D00F6
:10647000154E0D000D4E0D00034E0D00F94D0D0093
:10648000ED510D000000000000000000754E0D00F1
:10649000BF4E0D00974E0D00774E0D009F4E0D0024
:1064A000A74E0D00AF4E0D00B74E0D0000000000CE
:1064B000000000003B4F0D002B4F0D002D4F0D0035
:1064C000626175640053657269616C00536572693D
:1064D000616C31007479706500706172616D006388
:1064E0006D6400696400686E64007374726D0066A8
:1064F000696C74006C766C0061646448616E646CF5
:1065000065720072656D6F766548616E646C657268
:1065100000656E756D48616E646C657273004A53F8
:106520004F4E53747265616D4C6F6748616E646C59
:1065300065720061707000253031307520005D207B
:10654000002564002C200028293A2000205B0063ED
:106550006F6465203D200025690064657461696C85
:1065600073203D20000D0A006C6E00666E00636FA4
:1065700064650064657461696C006E6F6E650074BB
:106580007261636500696E666F007761726E0065A7
:1065900072726F720070616E696300616C6C0000F2
:1065A00000000000000000007F500D0075500D003D
:1065B0006B500D0061500D0055500D0049500D00FD
:1065C0003D500D0035500D002B500D0021500D0099
:1065D000ED510D00000000000000000085510D008D
:1065E0008F510D0099510D00A3510D00AD510D00BB
:1065F000B9510D00C5510D00D1510D00D9510D00FB
:10660000E3510D00ED510D000000000000000000FE
:10661000A5530D00A7530D005A00252B3033643AC3
:10662000253032750025592D256D2D2564542548BA
:106630003A254D3A2553257A0061736374696D6577
:1066400000000000000000000000000009540D00E0
:1066500059540D0067540D00CD520D001D540D000E
:106660003F540D002B540D0053540D000B540D00DE
:106670000F540D00000000000000000009550D003F
:1066800059550D0067550D00CD520D0045550D00B3
:106690000B550D0021550D0053550D0037550D00BC
:1066A00005550D0000000000000000006B560D00B5
:1066B00061560D0057560D000D560D004B560D003E
:1066C0003F560D0033560D002B560D0021560D0080
:1066D00017560D00ED510D000000000000000000F5
:1066E00000000000000000000000000000000000AA
:1066F000000000000000000000000000000000009A
:106700000000000000000000000000000000000089
:106710000000000000000000000000000000000079
:106720000000000000000000000000000000000069
:1067300000000000000000004300000065420D0062
:1067400039440D0031480D00614E0D0011500D000F
:1067500035510D00B9520D0089530D00DD530D0068
:10676000F5530D0075560D009D570D00F5570D00A2
:10677000B9580D003D590D00C1590D000000000031
:1067800039660D0000000000D8660D00F8660D00A7
:1067900018670D000000000000000000000000006D
:1067A0000000000038670D0000000000000000003D
:1067B00000000000000000000000000000000000D9
:1067C00000000000000000000000000000000000C9
:1067D00000000000000000000000000000000000B9
:0867E0000000000010E303209B
:1067E800FFFFFFFF00000102030405060708090A6E
:1067F8000B0C0D0E0F101112131415161718191A69
:086808001B1C1D1E1F202800AF
:046810007856341270
:04000003D0004020C9
:00000001FF
