:02000002D0002C
:1040000000400D009C990D00000006000D00050108
:084010000401DD0500000000C1
:04401800DC8D0D002E
:1040200009480A49884208B505D0094A824202D0A7
:10403000121A04F00FFA0748074A0021121A04F076
:1040400014FA014808BD00BF7CE0032024980D004D
:10405000C8E10320C8E10320F0E7032070B503F0B6
:10406000FBF9074C074BE41AA40800251E46A5429D
:1040700004D056F8253098470135F8E770BD00BFE9
:1040800018980D00D8970D0000F0B0BF08B500F0EB
:1040900087FDBDE8084003F0A1B901F02BBE01F097
:1040A00031BE01F02FBE0078B0FA80F040097047B1
:1040B000012303707047000008B5044902F0E3FED5
:1040C00018B1034B03221A70012008BDB8920D00ED
:1040D00011E2032010B50446006808B101F012FE99
:1040E000204610BD37B59DF8184023438DF80030A9
:1040F0003C23054602F026F9284603B030BD0000F7
:1041000030B58FB0124904A801F092FE04A801F066
:10411000E2FE044604A801F02FFF04A810EE105A96
:1041200001F010FF10EE100A03F0D4FDCDE90201FA
:10413000284603F0CFFDCDE90001064B064A53F8AF
:1041400024300648402101F0F5FD0FB030BD00BF1E
:1041500030E30320F0E00320348E0D006CE20320F6
:1041600073B5494D494C2B7B53B1494801F05CFA7A
:10417000474884ED050A01F065FA84ED060A02E07D
:104180000023A36163616069404E03F0A3FD414ACF
:10419000CDE900011021404801F0CCFDA06903F0F9
:1041A00099FD3E4ACDE9000110213D4801F0C2FDD4
:1041B0002B7C2BB13B4801F065FA86ED070A01E044
:1041C0000023F361E069314E03F084FD364ACDE906
:1041D00000011021354801F0ADFDAB7B012B0CD166
:1041E000132003F0DCF964230093002340F68A6275
:1041F000194601F0B7FD306001E000233360AB7B6E
:10420000022B0CD1122003F0CAF96423009300237F
:1042100040F68A62194601F0A5FD606001E00023C6
:104220006360EB7B012B0DD1112003F0B8F91E2345
:1042300000934FF4306200234FF4D67101F092FDE9
:10424000A06002E0104B0022DA73194B00221146E5
:10425000586801F017FD08B1FFF752FF154802F04A
:104260007DFAFDEEC07A144A1448C5ED027A17EEC5
:10427000903A102101F05EFD114B01201870114B96
:10428000187002B070BD00BF0CE30320B4E203203D
:104290005CE203204D8E0D00CCE10320558E0D0015
:1042A000D8E20320E8E103205E8E0D00F8E203204F
:1042B00030E3032008E20320688E0D00E8E20320CB
:1042C00022E2032008E303202DE9D0431A4800230B
:1042D0001A461946406801F0DDFC01F073FC4FF40A
:1042E000967440F2E7360027002001F0A3FA4FF061
:1042F00000098046002001F09DFAB0EB080061EB58
:1043000009018F4208BF864205D301F06BFC10B94A
:1043100001F050FCEEE701F065FC18B1BDE8D043B8
:1043200001F060BC01F04EFA044B186001F042FC51
:10433000013CF3D0D8E700BF30E30320D8E60320E8
:1043400008B501F04FFC80F00100C0B208BD0000CC
:10435000F8B501F03FFC002001F06CFA002504469E
:1043600043F697260027002001F064FA001B61EB5A
:1043700005018F4208BF864205D3FFF7E1FF10B960
:1043800001F018FCEFE7FFF7DBFF064800231A46B1
:104390001946406801F086FC4FF4FA6001F0EEFC2B
:1043A0000120F8BD30E30320154B1648597999B127
:1043B0004FF46173038141F2D833C3804FF48063BB
:1043C000438141F270038381036843F4007343F037
:1043D00001030360002111E040F2DC53038141F24C
:1043E0007003C3804FF48063438141F210038381E3
:1043F000036843F4007343F00103036001F0C0BBA2
:104400000CE3032024E2032010B5074C01F0DAF995
:104410002368C01AB0F57A7F04D301F0D3F9206085
:10442000012010BD002010BDACE2032008B5FFF74D
:10443000EBFF18B1BDE80840FFF7E6BF01F0BAFB9B
:10444000F5E7000037B501F0C5FB01F0BBF943F615
:104450009725044601F0C6FB40B101F0B3F9001BFB
:10446000A84203D8642001F089FCF3E70021094B3E
:1044700047F23052084601F055F94FF47A7001F0D6
:104480007DFC054B0A221B680121684602F06CFD89
:1044900003B030BD6E8E0D0048E2032038B50468CD
:1044A00005467CB16368013B63605BB923682046C5
:1044B0009B689847A368013BA3601BB9236820460B
:1044C000DB689847284638BD10B5204CD0B0236A29
:1044D0000C931F4BE0699A690B929B680A93E368FF
:1044E0000993A3680893636807932368069303F00E
:1044F000F1FBCDE90401A06903F0ECFBCDE9020179
:10450000606903F0E7FB134ACDE900014FF48071C5
:1045100010A801F00FFC104B10491B7800228DF8F9
:1045200000200EA810AAFFF7DDFD0FA8FFF7B6FFC9
:1045300002F012FE0A4B18700A4B01221A7001F0A9
:1045400041F9094B186050B010BD00BFB4E2032020
:104550000CE303207B8E0D00E4E103202A8F0D0085
:1045600044E20320ECE00320E0E1032010B50B78E7
:1045700094B00C4623B91C4904A803F0B1FF17E01E
:10458000084603F05DFEC82804D0204603F058FE1C
:10459000C9281ED1154904A803F0A2FF02F0D4FDDA
:1045A000134BD861134B01221A70134B00221A705F
:1045B000FFF73CFF114B12491B7800228DF80020B9
:1045C00002A804AAFFF78EFD03A8FFF767FF14B047
:1045D00010BD204603F034FE0A4A0346402104A8D9
:1045E00001F0A8FBE4E700BF458F0D005A8F0D00D6
:1045F0000CE3032008E30320ECE00320E4E10320C4
:104600004D8F0D006C8F0D0030B5184985B00446F4
:1046100002F039FC054668B1154B01245C71154B5D
:104620001C70FFF7C1FE144B00221B788DF8002090
:10463000124A10E01249204602F025FC98B10C4BBA
:104640005D710C4B01241C70FFF7AEFE0A4B0D4A46
:104650001B788DF800500C4902A8FFF743FD03A812
:10466000FFF71CFF204605B030BD00BFB8920D001B
:104670000CE3032008E30320E4E10320898F0D000D
:10468000A08F0D00A28F0D00B88F0D007FB51E49C1
:10469000044602F0F8FB064658B11C4B00229A7300
:1046A0001B4B01241C701B4B1B788DF800201A4AF1
:1046B00020E01A49204602F0E6FB054650B1134BB4
:1046C000174A01249C73124B1C70124B1B788DF8F7
:1046D00000600FE01349204602F0D5FB90B10B4B70
:1046E00002229A730A4B104A01241C70094B1B7852
:1046F0008DF800500D4902A8FFF7F4FC03A8FFF75E
:10470000CDFE204604B070BDA08F0D000CE3032049
:1047100008E30320E4E10320BD8F0D00B8920D00F3
:10472000CD8F0D00438F0D00DD8F0D00B88F0D0074
:1047300030B5164985B0044602F0A5FB054660B1C8
:10474000134B14490022DA73134B01241C70134BD2
:104750001B788DF80020124A0FE01249204602F023
:1047600092FB88B10A4B10490124DC730A4B1C7080
:104770000A4B2A461B788DF8005002A8FFF7B2FCBE
:1047800003A8FFF78BFE204605B030BDA08F0D00BB
:104790000CE30320B88F0D0008E30320E4E10320BD
:1047A000EE8F0D00B8920D0001900D0030B5194943
:1047B00085B0044602F067FB054658B1164B00224F
:1047C0001A74164B01241C70154B1B788DF80020B1
:1047D000144A15E01449204602F055FBC0B10E4BB7
:1047E000124801241C740D4B1C7000F040FF202166
:1047F0000E4800F078FF0A4B0D4A1B788DF80050E8
:104800000C4902A8FFF76EFC03A8FFF747FE2046FD
:1048100005B030BDA08F0D000CE3032008E303209A
:10482000E4E1032019900D00B8920D00E8E10320A7
:1048300029900D00B88F0D001FB51B49044602F0EA
:1048400022FB78B91949204602F01DFB50B91849DE
:10485000204602F018FB88B91649204602F013FBE7
:1048600060B91EE0144B01245C74144B1C70144B93
:1048700000221B788DF80020124A0AE00E4B00221D
:104880005A740E4B01241C700D4B1B788DF80020C0
:104890000D4A0E4902A8FFF725FC03A8FFF7FEFD0D
:1048A000204604B010BD00BF3E900D0042900D00A8
:1048B00049900D0046900D000CE3032008E303200F
:1048C000E4E103204F900D004C900D00B88F0D00D7
:1048D00030B5164985B0044602F0D5FA054658B100
:1048E000134B01241C71134B1C70134B00221B78BB
:1048F0008DF80020114A0EE01149204602F0C3FA5B
:1049000088B10B4B0F4A1D710A4B01241C700A4BD6
:104910001B788DF800500C4902A8FFF7E3FB03A8B1
:10492000FFF7BCFD204605B030BD00BFB8920D00BA
:104930000CE3032008E30320E4E1032061900D0071
:10494000A08F0D0072900D00B88F0D0030B5274973
:1049500085B0044602F097FA28B92549204602F0AE
:1049600092FA00283FD02149204602F08CFA0546F1
:1049700040B1204B1A791C4612B101F033F998B9B5
:1049800001230CE01A49204602F07DFA40B1194B90
:104990001A791C4612B101F025F9A8B90023A371B8
:1049A000154B012018701EE0FFF740FD134B144912
:1049B0001B7800228DF8002002A8124AFFF792FB14
:1049C00003A8FFF76BFDDBE7FFF730FD0B4B0E4A4B
:1049D0001B780B498DF8005002A8FFF783FB03A852
:1049E000FFF75CFDDAE705B030BD00BFB8920D00FF
:1049F000A08F0D000CE3032008E30320E4E1032073
:104A0000B88F0D0087900D0091900D0030B52149B1
:104A100085B0054602F037FA0446B0B10121022004
:104A200002F091FD0021032002F08DFD1A4B586920
:104A300001F0A4F90121032002F085FD174B0022AB
:104A40001B788DF80020164A19E01649284602F016
:104A50001AFAE0B12146022002F075FD214603203A
:104A600002F071FD0C4B586901F088F90121032017
:104A700002F069FD094B0C4A1B788DF800400B4988
:104A800002A8FFF72FFB03A8FFF708FD012005B0E0
:104A900030BD00BFA3900D000CE30320E4E1032030
:104AA000A6900D00BE900D00C2900D00B5900D00B7
:104AB00030B587B00A2203A9006803F0EBFD41F28C
:104AC0008832904203461FD8124D134A6861012470
:104AD00014701021114A124801F02CF92B79ABB156
:104AE00001F080F890B1FFF7A1FC0E4B0E491B7846
:104AF00000228DF8002004A8094AFFF7F3FA05A860
:104B0000FFF7CCFC204602E0002000E0012007B0C7
:104B100030BD00BF0CE3032008E30320D2900D005A
:104B200012E20320E4E103205C920D0030B5164D43
:104B3000164C17492A7820788FB00E2303FB0212F7
:104B4000009203FB0013134A282104A801F0F2F895
:104B50002B78237001F046F870B1FFF767FC0E4B1D
:104B60000E491B7800228DF8002002A804AAFFF746
:104B7000B9FA03A8FFF792FC02F0ECFB04A902F0DB
:104B8000B6F80FB030BD00BF11E2032010E20320E1
:104B90007CE00320DA900D00E4E10320E8900D00B2
:104BA00070B5904C2378013B88B0072B00F2F98157
:104BB000DFE813F0820108004400740076009700DB
:104BC000C8004001884D2B792BB1884B1B78022BF4
:104BD00001D0FFF7ABFF864E337843B102F0F6FC0D
:104BE00020228149012000F015FE00233370814E00
:104BF000337843B102F0EAFC24227F49502000F0D0
:104C000009FE00233370AB7943B100F0DBFD7B4B31
:104C10001B68C01A7A4B984200F2C08102F09CFADD
:104C2000784BAA681B7898421CBF03232370764BED
:104C30001B689A4200F3B58108232DE06A4D2B7959
:104C40002BB16A4B1B78032B01D0FFF76FFFFFF7E7
:104C500087FA0646E8B90123237000F0B3FD6B4BD9
:104C600018602B79002B00F09C8100F0BBFF00281E
:104C700000F09781FFF7DAFB654B664A1B786649BF
:104C80008DF8006006A8FFF72DFA07A8FFF706FCCD
:104C900087E16B7C13B10423237082E10523FBE7DA
:104CA000514B1B792BB1514B1B78052B01D0FFF7D2
:104CB0003DFF00F097FF68B102F04EFA0C2805D1D5
:104CC00000F090FF10B1002000F0ACFFFFF7FCFBFC
:104CD0000623E1E7FFF7F8FA002840F0628101239C
:104CE000DAE7414B1B792BB1404B1B78062B01D0E7
:104CF000FFF71CFF494B1B7823B900F063FD3F4BC6
:104D000018606DE000F05EFD454B1B68C01A4AF666
:104D1000C873984240F2458100F054FD3B4B186047
:104D200000F060FF0028DAD0394B3E491B780022A2
:104D30008DF8002006A83C4AFFF7D4F907A8FFF732
:104D4000ADFBCCE7284B1A791D462AB1274B1B78BF
:104D5000072B01D0FFF7EAFE00F044FFB0B12B793A
:104D600073B1FFF763FB2A4B2B491B7800228DF8A8
:104D7000002006A82D4AFFF7B5F907A8FFF78EFB1C
:104D80004FF47A7000F0FAFFFFF7E2FA00210720F3
:104D900002F0D9FB00210E2002F0D5FB02F0E6F96B
:104DA000234B1A680423ADF8143008AB002103F834
:104DB0000E1DC0F13C0002923C220125504301909F
:104DC0002A4605A906A8009502F00CF929460720F5
:104DD00002F0B9FB29460E2002F0B5FBFFF774FA8A
:104DE000022359E711E203200CE3032010E2032021
:104DF00008E3032022E20320B4E2032068E2032058
:104E0000905F010044E20320DCE10320B0E20320D4
:104E1000E4E103208B910D0021910D00ECE00320D3
:104E2000E0E10320F9900D007A8E0D0012910D0043
:104E300048E203205C4B1A791D462AB15B4B1B7874
:104E4000082B01D0FFF772FE00F0CCFEB0B12B7939
:104E500073B1FFF7EBFA564B56491B7800228DF8D9
:104E6000002006A8544AFFF73DF907A8FFF716FBF4
:104E70004FF47A7000F082FFFFF76AFA00210720F2
:104E800002F061FB02F072F94C4B1A680423ADF892
:104E9000163008AB022503F80D5DC0F13C0002920C
:104EA0003C2250430122019000920DF1160106A808
:104EB00002F098F8257074E03B4C23792BB13B4B02
:104EC0001B78012B01D0FFF731FE00F07BFC3C4B3F
:104ED0001B6803F5EA433033984262D9A369032B78
:104EE00014DC00F07FFE60B1314B32491B780022A8
:104EF0008DF8002006A8334AFFF7F4F807A8FFF75B
:104F0000CDFA4FF4FA6000F039FF24E002F01CF90A
:104F1000254BDB69C01AB0F5E15F1FD900F062FED6
:104F200060B1234B23491B7800228DF8002006A88E
:104F3000254AFFF7D7F807A8FFF7B0FA4FF4FA6051
:104F400000F01CFF0023A36102F040FB2022164961
:104F5000012000F05FFC02F004F822E000F042FEC5
:104F600060B1134B13491B7800228DF8002006A86E
:104F7000164AFFF7B7F807A8FFF790FA4FF4FA6060
:104F800000F0FCFE0023A36102F020FB2022064972
:104F9000012000F03FFCFFF755FA02E007232370E1
:104FA0003CE608B070BD00BF0CE3032010E2032014
:104FB000E4E1032021910D0027910D0048E2032038
:104FC000B0E203203E910D0052910D006C910D0056
:104FD0000023042200F0DEBD0023022200F0DABD2F
:104FE0000246014801F08DB8D7600D002DE9F0436D
:104FF000B74BB9B008AA03F11005164618685968EE
:10500000144603C40833AB422246F7D119889B7873
:105010002180A3702D2200210DF1330003F025FA29
:10502000AC4A02231370AC4B1B6893F8305093F8D2
:10503000313003F01F0343EA45152F2D904605DD5F
:10504000A64A00210A2000F035FD01E01F2D03DDF6
:1050500005F01F05A24B01E04FF0A043012404FA24
:1050600005F5C3F808552146072002F05BFA002138
:10507000042002F057FA0021132002F053FA002115
:10508000122002F04FFA0021112002F04BFA2146C3
:105090000E2002F047FA21460E2002F054FA214673
:1050A000032002F03FFA2146022002F03BFA21469B
:1050B000032002F048FA0021022002F044FA04A87A
:1050C00000F098FD002700237D2218A904A801F014
:1050D000ECFE844D844901973B463A46009718A858
:1050E00000F098FD81498248FFF772FF05F1180131
:1050F0008048FFF771FF80498048FFF769FF8049CA
:105100008048FFF765FF80498048FFF761FFAB7972
:105110007F48DB1B0DF1E00918BF012309F8D83DDA
:1051200022463B46494600F035FD7A497A48FFF76A
:105130004FFF7A497A48FFF74BFF7A497A48FFF7E1
:1051400047FF7A497A48FFF747FF7A497A48FFF7DD
:1051500043FF7A497A48FFF73FFF7A497A48FFF7D9
:1051600037FF7A497A48FFF73BFF7A496848FFF7EB
:1051700037FF79497948FFF733FF79497948FFF7D5
:105180002FFF79497948FFF72BFF79497948FFF7D5
:1051900027FF79497948FFF723FF79497948FFF7D5
:1051A0001FFF79497948FFF71BFF79497948FFF7D5
:1051B00017FF02F00BFA384600F01CFB022813D14F
:1051C000484C02F003FA20222146012000F01AFB8D
:1051D0004421714800F093F90746C0B96F49304641
:1051E00003F07EF9277314E002F0F0F904226C4911
:1051F000384600F00FFB02F0E9F920460422494648
:105200000134029700F006FBF02CF4D1D8E701231B
:1052100023732B7C33B1634800F029FA20216148C5
:1052200000F061FA002211464846029200F0B2FAFC
:10523000029B142B02BFAB690133AB61AB69052B39
:1052400004DD284B04229A61FFF7FCF86B693D48A6
:10525000642B82BF234B14225A616B69524A10217E
:1052600000F068FDFFF7A0F8042002F085F908B906
:105270001C4B9871FEF774FF4C4BAA681B689A424E
:1052800003DC082388F800300DE0FFF71DF850B963
:10529000012388F8003000F095FA454B4549186025
:1052A000304603F01DF900F09DFC18B12B79002B5E
:1052B00040F0848002F04EF8314601F018FD3E4B7C
:1052C000012204A81A7001F06AFD39B0BDE8F0832C
:1052D000F08D0D0011E2032058E20320B5570D00B8
:1052E000000300500CE303206D450D006CE2032029
:1052F000A5910D00AC910D0003930D00B7910D0029
:10530000E8E20320BF910D00F0E10320CA910D00F7
:10531000D7910D00CCE10320E4910D00D8E20320E9
:10532000F0910D00F8E20320F9910D00B4E20320A2
:1053300004920D00B8E2032012920D00BCE203209B
:1053400020920D0012E203205C920D00B9400D0086
:1053500029920D004D490D0009460D0035920D00B2
:10536000D1480D0040920D000D4A0D004D920D00E8
:10537000B14A0D0059920D008D460D0065920D0049
:1053800031470D0074920D00AD470D0086920D005F
:1053900039480D0095920D005CE20320A5920D00A6
:1053A000308E0D00E8E10320D2900D00DCE10320F7
:1053B000B0E20320BA920D0008E30320064B074930
:1053C0001B7800228DF8002048463246FEF78AFE00
:1053D00003A8FFF763F86DE7E4E10320CC920D002A
:1053E000F8B5284B284D294F00241C60284B012676
:1053F0001E7000F027FA274B186002F059F8234678
:10540000224642F6D51102F05BF802F051F822462E
:1054100023460F2102F05CF84FF6FF736B812C607E
:10542000AC80AC712C81022000F054FB3A461A4942
:10543000284602F07FF9194D2146304600F062FB04
:105440003146042000F096F92146284601F046F93D
:105450002846134D13493A46202602F06BF932468E
:105460002146284603F001F80F486E7100F024F839
:1054700002F0F4F823210246BDE8F8400B4800F0A2
:10548000F1B800BF48E203204CE20320C8E103204A
:10549000E4E1032058E20320D5400D0008E2032098
:1054A00024E20320FB660D005CE20320E8E1032018
:1054B0000368C9B29B681847704738B505460C4663
:1054C00002F0CCF8297801F0E9F902F0C7F8210AD6
:1054D000FFF7EEFF02F0C2F8E1B2FFF7E9FF02F0DA
:1054E000BDF8BDE8384001F0E4B908B543F2A201C7
:1054F000FFF7E3FF0A20BDE8084000F03FBC38B5E5
:1055000004460D4602F0AAF801F08CF920462570F9
:10551000FFF7EBFF012038BD0A44FF2091420ED077
:1055200011F8013B5840082310F0800F4FEA40006B
:1055300018BF80F03100013BC0B2F5D1EEE77047F3
:1055400073B54FF410510446FFF7B7FF4FF4FA70EC
:1055500000F014FC02F082F80622217801F096F99E
:1055600002F07CF803681B69984706284AD1002599
:1055700002F074F803685B6998470DF8050001357F
:10558000062DF5D1022269462046FFF7C5FF9DF89A
:105590000250854236D102220DF103012046FFF769
:1055A000BBFF9DF8055085422CD1BDF800009DF849
:1055B00003609DF8045040BA80B202F069FB18A362
:1055C000D3E9002302F0DAFB11A3D3E9002302F0B0
:1055D000FFFC0022104B02F01DFA02F0E1FDA0607A
:1055E00045EA062002F054FB00220C4B02F0C6FBF9
:1055F00007A3D3E9002302F0EBFC02F0D1FD6060C9
:10560000012000E0002002B070BD00BFAFF30080B9
:1056100000000000E0FFEF400080464000005940DD
:105620000000000000E0654010B50446FFF788FF69
:1056300010B194ED020A10BD9FED010A10BD00BF2C
:105640000000C07F10B50446FFF77AFF10B194ED5B
:10565000010A10BD9FED010A10BD00BF0000C07F10
:1056600000F0F0B84260112241700270704710B52E
:105670000446406801F020F910B9606801F0D2F8E2
:10568000012010BD70B505464178406801F006F96B
:1056900002226978686801F0F9F8686803685B6954
:1056A00098470646686803685B699847044644EA79
:1056B00006246868A4B201F0FCF807EE904AB8EE40
:1056C000670ADFED027A80EE270A70BD9A99993F4A
:1056D0000378232B04D0132B0CBF1820B42000E038
:1056E000182000F04BBB38B504460D4641784068A1
:1056F00001F0D4F86068036829469B6898476068A1
:1057000001F0D7F825702046BDE83840FFF7E0BF2C
:1057100000F098B808B5024B1B685B6C019308BD9C
:105720007402030008B5024B1B689B6C019308BD13
:105730007402030008B5024B1B689B68019308BD07
:105740004802030008B5024B1B681B69019308BDA2
:105750004802030008B5024B1B685B69019308BD52
:105760004802030008B5024B1B685B6C019308BD3F
:105770004802030008B5024B1B685B6E019308BD2D
:105780003402030008B5024B1B689B6E019308BDF1
:105790003402030008B5024B1B68DB6E019308BDA1
:1057A0003402030008B5024B1B685B68019308BD17
:1057B0001802030008B5024B1B68DB68019308BDA3
:1057C0001802030008B5024B1B685B69019308BD12
:1057D0001802030008B5024B1B68DB69019308BD82
:1057E0001802030008B5024B1B689B6A019308BDB1
:1057F0001802030008B5024B1B68DB6A019308BD61
:105800001802030008B5024B1B685B6C019308BDCE
:105810001802030008B5024B1B689B6C019308BD7E
:105820001802030008B5024B1B689B6D019308BD6D
:105830001802030008B5024B1B68DB6D019308BD1D
:105840001802030008B5024B1B681B68019308BDD2
:105850002C02030008B5024B1B685B68019308BD6E
:105860002C02030008B5024B1B689B68019308BD1E
:105870002C02030008B5024B1B68DB68019308BDCE
:105880002C02030008B5024B1B681B69019308BD7D
:105890002C02030008B5024B1B685B69019308BD2D
:1058A0002C02030008B5024B1B681B6B019308BD5B
:1058B0002C02030008B5024B1B68DB68019308BD8E
:1058C0002802030008B5024B1B689B69019308BDC1
:1058D0002802030008B5024B1B68DB69019308BD71
:1058E0002802030008B5024B1B681B6A019308BD20
:1058F0002802030008B5024B1B685B6A019308BDD0
:105900002802030008B5024B1B689B6A019308BD7F
:105910002802030008B5024B1B68DB6A019308BD2F
:105920002802030008B5024B1B681B6B019308BDDE
:105930002802030008B5024B1B685B6B019308BD8E
:105940002802030008B5024B1B681B6C019308BDBD
:105950002802030008B5024B1B689B6C019308BD2D
:105960002802030008B5024B1B68DB6C019308BDDD
:105970002802030008B5024B1B681B6D019308BD8C
:105980002802030008B5024B1B685B69019308BD40
:105990006402030008B5024B1B689B68019308BDB5
:1059A0006802030008B5024B1B68DB68019308BD61
:1059B0006802030008B5024B1B68DB69019308BD50
:1059C0003002030008B5024B1B681B6A019308BD37
:1059D0003002030008B5024B1B681B68019308BD29
:1059E0003C02030008B5024B1B68DB68019308BD4D
:1059F0003C02030008B5024B1B681B69019308BDFC
:105A00003C02030008B5024B1B685B69019308BDAB
:105A10003C02030008B5024B1B689B69019308BD5B
:105A20003C02030008B5024B1B68DB69019308BD0B
:105A30003C02030008B5024B1B681B6A019308BDBA
:105A40003C02030008B5024B1B689B6A019308BD2A
:105A50003C02030008B5024B1B681B68019308BD9C
:105A60004C02030008B5024B1B681B69019308BD7B
:105A70004C02030008B5024B1B685B69019308BD2B
:105A80004C02030008B5024B1B689B69019308BDDB
:105A90004C02030008B5024B1B68DB69019308BD8B
:105AA0004C02030008B5024B1B681B6A019308BD3A
:105AB0004C02030008B5024B1B685B6B019308BDE9
:105AC0006002030008B5024B1B681B68019308BD08
:105AD0002002030008B5024B1B685B68019308BDF8
:105AE0002002030008B5024B1B685B69019308BDE7
:105AF0002002030008B5024B1B689B69019308BD97
:105B00002002030008B5024B1B68DB6A019308BD45
:105B10002002030008B5024B1B68DB6C019308BD33
:105B20002002030008B5024B1B685B6D019308BDA2
:105B30002002030008B5024B1B689B6D019308BD52
:105B40002002030008B5034B1B68D3F8883001938B
:105B500008BD00002002030008B5034B1B68D3F802
:105B60009430019308BD00002002030008B5034BE8
:105B70001B68D3F8A030019308BD00002002030089
:105B800008B5034B1B68D3F8A830019308BD00008B
:105B90002002030008B5024B1B681B68019308BD77
:105BA0004402030008B5024B1B685B68019308BD03
:105BB0004402030008B5024B1B689B68019308BDB3
:105BC0004402030008B5024B1B68DB68019308BD63
:105BD0004402030008B5024B1B681B69019308BD12
:105BE0004402030008B5024B1B685B69019308BDC2
:105BF0004402030008B5024B1B68DB69019308BD32
:105C00004402030008B5024B1B681B6A019308BDE0
:105C10004402030008B5024B1B685B6A019308BD90
:105C20004402030008B5024B1B68DB6A019308BD00
:105C30004402030008B5024B1B681B6B019308BDAF
:105C40004402030008B5024B1B68DB6B019308BDDF
:105C50004402030008B5024B1B685B68019308BD52
:105C60004002030008B5024B1B689B68019308BD06
:105C70004002030008B5024B1B68DB68019308BDB6
:105C80004002030008B5024B1B681B69019308BD65
:105C90004002030008B5024B1B685B69019308BD15
:105CA0004002030008B5024B1B689B69019308BDC5
:105CB0004002030008B5024B1B68DB69019308BD75
:105CC0004002030008B5024B1B681B6A019308BD24
:105CD0004002030008B5024B1B681B6B019308BD13
:105CE0004002030008B5024B1B685B6B019308BDC3
:105CF0004002030008B5024B1B681B68019308BDF6
:105D00001C02030008B5024B1B685B68019308BDC9
:105D10001C02030008B5024B1B689B68019308BD79
:105D20001C02030008B5024B1B689B69019308BD68
:105D30001C02030008B5024B1B68DB69019308BD18
:105D40001C02030008B5024B1B68DB6A019308BD07
:105D50001C02030008B5024B1B681B6B019308BDB6
:105D60001C0203008A4230B507D0039D441AED1A85
:105D70006C43521A94FBF2F4E01830BD0021FFF797
:105D8000B1BE10B5836804460BB901F0F4FCC368DA
:105D90009847A3681BB10322214620469847204616
:105DA0001021BDE8104001F0CABC0B68036013B1BC
:105DB0005A6801325A607047024800230360FFF7B7
:105DC000D1BC00BF2CE30320002211464068FFF73E
:105DD00059BF002211464068FFF774BF00221146E8
:105DE0004068FFF77FBF00224068FFF773BF0022C3
:105DF00081F001014068FFF75DBF00231A46194694
:105E00004068FFF74FBF00231A4619464068FFF766
:105E100041BF002211464068FFF724BF0022022143
:105E20004068FFF727BF00231A464068FFF712BFFC
:105E3000F0B51B4B036000250F462833182689B0A8
:105E400043608560C560324629460446103002F042
:105E50000CFB2A4629467868FFF714FF08B9A060B2
:105E60001BE02946324602A80095019502F0FDFA92
:105E700002A96846ADF80860FFF74CFC10B1012399
:105E8000A3600AE0009B019AA360E2600BB90223C1
:105E9000A36002A9204600F089F8204609B0F0BDB1
:105EA00048930D0038B5084C28252A460021204685
:105EB00002F0DBFA4FF0FF336360044B25800422CD
:105EC0005A60034A1A6038BD38E3032030E30320E8
:105ED00014930D007047007D70470000037D1BB1D7
:105EE0008369B3F1004F02D19FED050A704707EEB9
:105EF000903A9FED047AF8EEE77A87EE870A7047CA
:105F0000000000000000C842037D1BB1036AB3F12A
:105F1000004F02D19FED050A704707EE903A9FEDC2
:105F2000047AF8EEE77A87EE870A704700000000EF
:105F30000000C84210B52821044601F000FC2046AC
:105F400010BD0000037D7BB1436A002B0CDB07EE24
:105F5000903ADFED076A9FED070AB8EEE77AC7EEE1
:105F6000267A27EE800A7047BFEE000A704700BF0E
:105F700000FF7F470000C842037D7BB1C369002B4F
:105F80000CDB07EE903ADFED076A9FED070AB8EEEB
:105F9000E77AC7EE267A27EE800A7047BFEE000A3E
:105FA000704700BF00FF7F470000C84230B50D4674
:105FB00000F110040FCD0FC495E8030084E803003E
:105FC000012030BD2DE9F04107460C4615462AB99F
:105FD0000368C9B29B68BDE8F0411847002907DA99
:105FE0000A2A05D12D2100F073FE6142064601E028
:105FF00021460026EAB2384600F083FE3044BDE870
:10600000F08170B50D4606460A2281682846FFF7E2
:10601000D9FF2C210446284600F05AFE0A220444E7
:10602000F1682846FFF7CEFF204470BDA0F10400C0
:10603000FFF7E7BF70470020704710B510210446F6
:1060400001F07DFB204610BD08B508B1FFF7F5FF54
:1060500008BD10B58368044613B103220146984772
:10606000204610BD0022026010B54FF69C7282805F
:10607000B1F9044084808A8002680C6804600A6078
:1060800010BD10B504460068FFF73CFE204610BD69
:1060900038B5C468F4B12378022B03D104F10C00A5
:1060A000FFF7EFFF656835B12846FFF7D2FF1021F3
:1060B000284601F044FBA56835B12846FFF7C9FF23
:1060C0001021284601F03BFB20461421BDE8384052
:1060D00001F035BB38BD10B588B00446684600F005
:1060E000A5FE694604A800F0C3FE04A8A047044624
:1060F00004A800F054FE684600F051FE204608B0A7
:1061000010BDF0B5102485B007460E461546002197
:106110002246684602F0A9F9002269461046ADF809
:106120000040029703960195FFF73CFD05B0F0BDD6
:1061300013B5044691E8050000234B600B60206016
:10614000626001A801930093FEF7A8F9204602B00F
:1061500010BDF7B50C4602AD54F8043B45F8083DB8
:1061600006460F4601A82146FFF71FFE2946304686
:10617000FFF7DEFF01A8FEF791F92046FEF78EF942
:106180003846082101F0DBFA304603B0F0BD13B504
:106190000B46044603C88DE8030093E8030084E837
:1061A00003009DE8030083E8030002B010BD000077
:1061B00038B500230446036010200D46FDF76DFF3F
:1061C00028B1012343608360024B0360C5602060F7
:1061D000204638BD7C930D00826810B50AB901F0E5
:1061E000CAFAC368BDE81040184708B5006800F156
:1061F0001001FFF7F1FF08BD826810B50AB901F080
:10620000BAFAC368BDE81040184708B5006800F145
:106210001001FFF7F1FF08BD38B5002383608B68DC
:1062200004460D462BB102229847EB68E360AB6849
:10623000A360204638BD0000F0B589B00468684608
:10624000FFF710FF00238DF808304FF00202D4E86A
:106250004F3F002B03D1C4E8412F0029F7D102D0D2
:106260008DF8083063E014F10C0503D06946284628
:10627000FFF7F8FEBFF35F8F01236370002004F186
:106280000803BFF35F8F53E8006F43E80002002A62
:10629000F9D1BFF35F8F002E49D0FFF73BFC20B14F
:1062A00029463046FFF798FF3AE0314602A8FFF74B
:1062B000B3FFE068B4F9105008B102F019F9069084
:1062C0001020ADF81C50FDF7E8FE0546E8B10027A8
:1062D00087601820FDF7E1FE044688B1014687601B
:1062E00002A8FFF754FF049BA268A360059B0492D9
:1062F00006A9E268E36004F110000592FFF7B2FE20
:106300000D4BEB600D4B2C60AB6006A8FFF7B9FEA0
:1063100002A8FFF79EFE002229460948FFF702FC6B
:106320003046FFF796FE1021304601F008FA684625
:10633000FFF7A7FE09B0F0BDEB610D0061640D0031
:10634000835D0D002DE9F04F8BB006460F46904659
:1063500099469DF850A0FFF745FC07AD834630BB3A
:106360004FF62E73059005A92846ADF81830FFF7B3
:1063700079FE1420FDF791FE044658B10223037004
:1063800001234370C0F804B0C0F808B029460C30AF
:10639000FFF768FE3046214640F8044BFFF708FF40
:1063A0002846FFF76EFE05A8FFF76BFE52E00024BB
:1063B0000C2314206C60AC600793FDF76EFE014661
:1063C00018B1047044704460846004A80391FFF71E
:1063D000EFFE224B08930820FDF75FFE044628B12C
:1063E000039B40F8043B04A9FFF7DFFC00955FFA2C
:1063F0008AF34A46414638460994FFF703FC20B920
:10640000039B5B7803F0FF0283B1039B059304A910
:1064100006A8FFF7CAFC05A93046FFF789FE06A8C3
:10642000FEF73CF804A8FEF739F813E04FF69C732A
:1064300005A903A80592ADF81830FFF7FDFE05A8E1
:10644000FFF71FFE05A80999FFF783FE06A8FEF7D0
:1064500025F8DAE730460BB0BDE8F08FD1650D00C6
:10646000022AF8B5044606D0032A17D0012A22D101
:106470000B6803601FE018200E68FDF70EFE05464E
:1064800050B13146FFF7C8FE3069B6F9147008B153
:1064900002F02EF82861AF8225600CE0046854B148
:1064A00004F11000FFF7EDFD2046FFF7D2FD1821A3
:1064B000204601F044F90020F8BD38B50023836080
:1064C0008B6804460D462BB102229847EB68E360C7
:1064D000AB68A360204638BD022A70B5044606D0DA
:1064E000032A11D0012A18D10B68036015E014208B
:1064F0000E68FDF7D2FD054620B13146FFF7DDFFFE
:10650000337C2B74256008E0046834B12046FFF723
:10651000A0FD1421204601F012F9002070BD0000FA
:10652000F0B5002387B00C46BFF35F8F50E8006FD3
:1065300040E80032002AF9D1BFF35F8F002E3FD030
:106540001846FFF7E7FA074620B121463046FFF725
:1065500053FE2EE0314601A8FFF7AFFF23788DF8F8
:1065600014301020FDF799FD0546D0B18760142046
:10657000FDF793FD044678B18760014601A8FFF757
:1065800006FE039BA268A360049B0392E268E3609B
:106590009DF81430049223740A4BEB600A4B2C6074
:1065A000AB6001A8FFF755FD002229460748FFF719
:1065B000B9FA3046FFF74DFD1021304601F0BFF823
:1065C00007B0F0BD0B620D00D9640D00835D0D00B6
:1065D00030B585B004460D4668461146FFF7B9FD53
:1065E0007CB124B228460DB101F082FF029002A9CD
:1065F0006846ADF80C40FFF71FFE02A8FFF741FD0B
:106600001DE000988DF808404FF00102D0E84F3FA0
:10661000A34203D1C0E8412F0029F7D102D08DF861
:1066200008300CE010F10C014FF0010318BF0373A8
:10663000BFF35F8F043000F8033CFFF771FF01A840
:10664000FDF72CFF05B030BD002211464068FFF772
:1066500039BB002211464068FFF744BB0022406866
:10666000FFF738BB002281F001014068FFF722BB31
:1066700000231A4619464068FFF714BB00231A4648
:1066800019464068FFF706BB002211464068FFF735
:10669000F9BA002211464068FFF7E4BA002202214D
:1066A0004068FFF7E7BA00231A464068FFF7D2BAFE
:1066B000024B03225A60024A1A60704760E30320CB
:1066C00098930D00006800F0FBB810B50446016017
:1066D00002710AB1FFF7F6FF204610BD38B5044637
:1066E0000D4600F0E1FF2A4601462046FFF7EDFF88
:1066F000204638BD006800F0ECB810B503790446B8
:106700000BB1FFF7F7FF204610BDF8B5044616465B
:106710001D460F46FFF7D6FF2068362100F0C2F86D
:106720002068036839469B6898470121206800F07B
:10673000BCF8022236210123206800F0ABF8206863
:1067400003685B6998473070206803685B69984705
:1067500028702046BDE8F840FFF7CCBF07B502AB74
:10676000002203F8012D8DF8062004210DF1060208
:10677000FFF7CBFF9DF8070001F09AFA0022094BC2
:1067800001F0FCFA01F00CFD9DF8063000EE103A25
:1067900007EE900AB8EEC00A37EE800A03B05DF843
:1067A00004FB00BF0000703F7047F8B50646154671
:1067B0000C468F18BC4206D0336814F8011B9B6846
:1067C00030469847F6E72846F8BD0022007CFFF7E0
:1067D00089B80021007CFFF78DB80021007CFFF70D
:1067E00091B80021007CFFF795B80021007CFFF7ED
:1067F00099B810B51421044600F0A1FF204610BD41
:1068000010B50446002363604FF47A73A360044B11
:106810002174084623601146FFF794F8204610BD06
:10682000CC930D0000231A461946007CFFF742B8AE
:1068300070B50C4686B0142506462A46002101A8EC
:1068400001F013FE23788DF8083063680393E36842
:1068500004930022237A307CADF8045001A90593FB
:10686000FFF788F806B070BD1FB500338DF8001033
:106870004FF06401039118BF0123694601928DF81E
:106880000830FFF7D5FF05B05DF804FB0123C9B25E
:10689000FFF7EABFDBB2C9B2FFF7E6BF0022007C18
:1068A000FFF710B8C9B2FFF7F9BF0022007CFFF76D
:1068B00011B80121FFF7F9BF0021007CFFF73AB8BA
:1068C00008B50021007CFFF745F8B0FA80F04009D8
:1068D00008BD08B50021007CFFF744F8B0FA80F04D
:1068E000400908BD704710B51821044600F027FF85
:1068F000204610BDF0B5037D062B8DB00E4600F18D
:1069000004074FF0000402D000F1080518E00CADB8
:10691000394605F8304D2F232A460A20FFF732F872
:10692000284601F000FE33680246DB6829463046FF
:1069300098470FE024B12E21304600F0C9F90444F5
:1069400015F8011D0A22304600F0DBF9BD4204446F
:10695000F0D120460DB0F0BD10B5054B0446112214
:1069600040F8043B002101F080FD204610BD00BF2F
:10697000F4930D000346074A10B543F8042B01F1C8
:10698000100251F8044B43F8044B9142F9D10A78B4
:106990001A7010BDF4930D0010B59DF8084044EA3C
:1069A000032343EA024242EA016104234160037582
:1069B00010BD37B50D788B784A78C9780091294693
:1069C000FFF7EAFF03B030BD014B024A1A6070477F
:1069D00068E3032070940D00002211464068FFF721
:1069E00071B9002211464068FFF77CB90022406867
:1069F000FFF770B9002281F001014068FFF75AB932
:106A000000231A4601214068FFF74CB900231A46BB
:106A100019464068FFF73EB9002211464068FFF76B
:106A200031B9002211464068FFF71CB9002202214B
:106A30004068FFF71FB900231A464068FFF70AB9FC
:106A400038B5054688B104684CB1A3681BB1032270
:106A50002146204698471021204600F070FE284627
:106A60001421BDE8384000F06ABE38BD10B103689B
:106A70005B681847704710B503680446BBB1586897
:106A8000FEF758FE78B923685A7C12B95868FEF7A9
:106A900059FE23685868FEF75DFE206800232360D6
:106AA00028B1FFF7CDFF206808B1FFF7C9FF2046E6
:106AB00010BD000038B50C4B03600446D0F8CC0183
:106AC00008B1FDF7EEFAD4F8C45135B12846FFF706
:106AD000D2FF0421284600F032FEA06808B1FFF77B
:106AE000C5FF204638BD00BFE0940D0038B50E4C00
:106AF0000E4B23600025022304F5E4706360A5605B
:106B0000C4F8C451C4F8C851FEF72CFE084BC4F8B1
:106B1000CC5184F8D05123602046064A0649BDE88E
:106B2000384000F007BE00BF6CE3032014950D0051
:106B3000E0940D00C8E10320B56A0D0000231A4659
:106B40004068FFF787B8002202214068FFF792B83B
:106B5000002211464068FFF785B8002211464068C0
:106B6000FFF790B800231A4619464068FFF792B81D
:106B700000231A4619464068FFF794B8002281F0B6
:106B800001014068FFF796B800224068FFF7A2B8FD
:106B9000002211464068FFF7A5B800221146406860
:106BA000FFF790B82DE9F043002495B016460D4646
:106BB0000746FFF7D1FE214620220CA8009401F0E1
:106BC00054FC40230C9321466B460CAA3046FEF73A
:106BD000E9FE0446002844D1024601216868FFF717
:106BE00051F80221804622466868FFF74BF8009E64
:106BF00081462146002E34D0002932D17368022B01
:106C000002D00A2B09D02AE0B8F1000F27D0716911
:106C100038460431FFF7CDFE20E0B9F1000F1ED059
:106C20007469112201A801F020FC06238DF81430AC
:106C300001AD04F108031834186859682A4603C2E4
:106C40000833A3421546F7D101A906A807ADFFF7FF
:106C500091FE0FCD3C1D0FC42B6823700121F669F6
:106C6000C8E70098FEF796FE384615B0BDE8F083F9
:106C7000024B034A1A6000225A60704740E5032025
:106C800014950D00F8B506460D468F180024BD4238
:106C90000CD0336815F8011B9B68304698470028D4
:106CA00001DB0444F3E7002C08BF04462046F8BD8E
:106CB00070B505460C46084649B101F034FC2B6816
:106CC000024621462846DB68BDE87040184770BD83
:106CD00003689B68184738B50D210546FFF7F8FF94
:106CE0000A2104462846FFF7F3FF204438BD38B593
:106CF0000546FFF7DDFF04462846FFF7ECFF20447A
:106D000038BD30B58BB00B4600218DF82410012A18
:106D100098BF0A220DF12304B3FBF2F505FB1233F1
:106D200003F0FF03092B94BF30333733DBB2214626
:106D300004F801392B46002DEED1FFF7B9FF0BB057
:106D400030BD10B50446FFF784F9204610BD0000A1
:106D50000348044A04490023836000F0EBBC00BFF1
:106D600048E50320C8E10320436D0D00704710B5CE
:106D70000C21044600F0E3FC204610BD10B5054B85
:106D80000360044601710846FEF714FE0023A36069
:106D9000204610BD48950D000079FEF713BE10B5D2
:106DA00004460068FEF7AEFF204610BD10B504464D
:106DB000006808B1FEF7A6FF00232360A3606360AC
:106DC00010BD38B504460D4600680131FEF7A2FF3C
:106DD00010B184E82100012038BD10B503680446D5
:106DE00013B143688B4207D22046FFF7EAFF20B178
:106DF000A3680BB922681370012010BD70B50E4650
:106E0000114604461546FFF7E8FF18B92046FFF77C
:106E1000CDFF09E02A463146A560206801F01AFB43
:106E20002268A3680021D154204670BD38B50023E4
:106E3000044603604360836003730D4639B108461E
:106E400001F071FB294602462046FFF7D7FF204696
:106E500038BD884210B50B46044607D0096819B101
:106E60009A68FFF7CBFF01E0FFF7A0FF204610BDB7
:106E700010B5002304460360436083600373FFF78B
:106E8000E8FF204610BD08B582680B4612B919B953
:106E9000012008BD11B90368187802E0006801F00C
:106EA00015FBB0FA80F0400908BD70B50E469AB1E6
:106EB00091B185689D4202D800230B7070BD541EAD
:106EC000ED1A0168AC4228BF2C46194422463046D0
:106ED00001F046FB0023335570BD10B50446006831
:106EE00018B1FEF70FFF0023236010BD38B5B1F9CC
:106EF000043083800B460D4653F8062FC0F8062059
:106F00009B8843810446FFF7E8FF2B6813B1236099
:106F100000232B60204638BDB1F9043010B50BB901
:106F20000A689AB10C685CB1A288012A03D0042ACD
:106F300006D1022205E0A4894C818A710B8105E00B
:106F400004220B814FF6FF738A714B8151F8063F83
:106F500003608B88838010BD014600228C20FEF7E1
:106F600011BC0020FFF7F8BF30B5044685B00846D5
:106F700011461A460023FEF7BDFD0D4DADF80C007D
:106F8000002301A90193ADF808308DF80A30284696
:106F90004FF6FF73ADF80E30FFF7A8FF01A8FFF71B
:106FA0009CFF20462946FFF7B7FF204605B030BDBD
:106FB00058E5032010B500240470448000294FF6E2
:106FC000FF74848007DD0139994209D232F811300B
:106FD0008380012301E002D10223037010BD4180B0
:106FE00010BD0000F0B58BB017461A46129B0193F6
:106FF0000E460024119B0294054600933946109BCF
:107000003046FEF7B3FD3B463246014605A8FFF782
:10701000D1FF0794ADF820400D4C9DF81410BDF938
:107020001620BDF818308DF82210204607A9ADF8BB
:107030002420ADF82630FFF759FF07A8FFF74DFFD2
:1070400028462146FFF768FF28460BB0F0BD00BF79
:1070500058E5032010B5094C00204FF6FF7320605F
:10706000A080A07120816381FEF734FD2046044A90
:107070000449BDE8104000F05DBB00BF58E50320A7
:10708000C8E10320D5400D00F0B5144B144F1E6825
:10709000144B064418683B6806449E428BB01BD0D4
:1070A0000AA801AD40F8286D01F0DCF8436903F24D
:1070B0006C73436104460FCC0FC50FCC0FC5D4F8D9
:1070C00000E0C5F800E001AD0FCD074C0FC40FCDB7
:1070D0000FC43E60C4F800E00BB0F0BD94E503209F
:1070E00090E503208CE5032064E5032008B500202B
:1070F000FEF7A0FD28B1FEF775FD80F00100C0B2DB
:1071000008BD012008BD10B50020FEF78BFB04462A
:1071100068B9FEF7D7FC01280BD12046FEF70AFD1F
:1071200038B9FFF7E3FF30B9FEF744FDF9E7012076
:1071300010BD002010BDFFF7D9FF0020FEF772FB45
:10714000003018BF012010BD08B5FFF7DCFFBDE817
:107150000840FEF73FBB000008B5FFF7F5FFFFF75B
:1071600093FF014B986808BD64E5032008B5FFF75D
:10717000EBFFFFF789FF014B586808BD64E503206A
:10718000024B1A68024B1A60704700BF10E10320DF
:1071900088E5032070474174704708B5007CFEF70E
:1071A00051FC20EAE07008BD08B5007CFEF722FC27
:1071B00020EAE07008BD08B5007CFEF72BFC30EA41
:1071C000200028BF4FF0FF3008BD08B5007CFEF757
:1071D00019FC30EA200028BF4FF0FF3008BD007CCA
:1071E000FEF720BC10B51421044600F0A8FA204692
:1071F00010BD70B5457C04460E4625B9007CFEF7EF
:1072000021FC002805DD3146207CBDE87040FEF7FA
:10721000E9BB284670BD000010B50446084611467B
:10722000002262604FF47A72A260054A2260012255
:10723000207462741A46FEF7CDFB204610BD00BFD5
:1072400080950D00007CFEF7F5BB000038B50C4DB5
:10725000296811F0010411D12846FCF724FF68B118
:10726000084A094B09482146FFF7D6FF2846FCF794
:107270001FFF074A0749054800F05CFA034838BD7C
:1072800030E6032034E60320ACE5032098E5032034
:10729000C8E1032095710D0041747047704708B52F
:1072A0000021007CFEF7EEFB30EA200028BF4FF003
:1072B000FF3008BD08B50121007CFEF7E3FB30EA92
:1072C000200028BF4FF0FF3008BD08B5007CFEF756
:1072D000D1FB20EAE07008BD08B5007CFEF7C2FBD8
:1072E00020EAE07008BD007CFEF7DCBB10B514217D
:1072F000044600F024FA204610BD38B50446007C50
:107300000D46FEF7B7FB002801DC607C28B129465A
:10731000207CFEF7BFFB20EAE07038BD10B50446C4
:10732000002363604FF47A73A360054B236001234D
:107330000846217463741146FEF78CFB204610BD8D
:10734000B0950D0010B514220446002101F08DF80F
:10735000204610BD30B50E4D87B001A8FFF7F2FFF3
:10736000296811F0010410D12846FCF79CFE60B199
:1073700001AA21460748FFF7D1FF2846FCF798FEEF
:10738000054A0649034800F0D5F9024807B030BD68
:10739000B8E60320BCE60320C8E103209D720D007F
:1073A00008B50C4B33B1FFF7D5FF03681B6998474D
:1073B000002809DC084B63B1FFF748FF03681B692D
:1073C0009847002803DC08BDAFF30080F2E7AFF375
:1073D000008008BD000000000000000008B5FFF7B5
:1073E000DFFFFEF7EFF9014B186008BDD8E6032078
:1073F0000248034A0349121A01F02CB800F4032092
:1074000004F4032020980D0007B5002300931A46CA
:107410006FF07701FEF7A0FB03B05DF804FB0000FE
:1074200007B543880A2B08D0502B09D1094B1B689C
:107430003BB103B05DF804EB1847FFF7E5FF06E04A
:10744000002300931A466FF07701FEF785FB03B027
:107450005DF804FBD0E6032038B5104C104D2368CE
:10746000AB42104B0CBF012200221A7002D0FFF772
:10747000BFFF2560FEF796F9044600F0FFFF0A4BB8
:1074800013B12046AFF3008000210748FEF7DAFB76
:1074900000210648BDE83840FEF754BB00F4032045
:1074A0001E1C279AD4E603200000000021740D0062
:1074B00008B5024B1B681B68019308BD5C02030002
:1074C00008B5024B1B685B68019308BD5C020300B2
:1074D00008B5024B1B689B68019308BD5C02030062
:1074E00010B5044600F006F9FFF756FC28B1A4F1E8
:1074F0000B03022B01D8002010BD00F0AFF8FFF7FE
:10750000DBF908B1012CF6D9FFF7A0FEFFF79AFED0
:1075100018B1A4F10903012BEDD9232C8CBF002055
:10752000012010BD232838B504460D460AD8FF298E
:1075300008D0FFF7D5FF28B129462046BDE83840DE
:10754000FEF790B938BD38B504460D46FEF792F9FE
:10755000FF2810D0062804D84D2323FA00F0C307D3
:1075600009D42046FFF7BCFF28B129462046BDE8D4
:107570003840FEF787B938BD10B50446FEF77AF9F2
:107580000438C0B2012808D92046FFF7A9FF20B16E
:107590002046BDE81040FEF77DB9002010BD0D2843
:1075A00010B504469CBF0E34A4B22046FFF798FFE6
:1075B00050B103212046FEF74DF9032804D120469F
:1075C000BDE81040FEF76EB9002010BD10B5074CA5
:1075D0002368DB0708D42046FCF765FD20B1FEF7E1
:1075E00001F92046FCF764FD014810BDDCE60320EC
:1075F000E0E6032070B5044614252A46094E002112
:1076000000F033FF258020253146A56025612846FE
:1076100000F0AFF831466060284600F0AAF8E0605C
:10762000204670BDD8950D0070B5044614252A4635
:10763000094E002100F019FF258020253146A56064
:107640002561284600F095F831466060284600F034
:1076500090F8E060204670BDD8950D0030B50E4D15
:10766000296811F0010487B013D12846FCF71BFDEF
:1076700078B101A8FFF7BEFF01AA21460748FFF72E
:10768000BFF82846FCF714FD054A0649034800F0F8
:1076900051F8024807B030BDE4E60320FCE60320C1
:1076A000C8E10320A9670D0010B50E4C2368DB0765
:1076B00086B013D42046FCF7F6FC78B101A8FFF79A
:1076C000B3FF01AA01210848FFF79AF82046FCF70A
:1076D000EFFC064A0649044800F02CF8024806B0C0
:1076E00010BD00BF10E70320E8E60320C8E1032037
:1076F000A9670D0038B50B4D296811F001040FD1B1
:107700002846FCF7D0FC58B121460748FFF736FB66
:107710002846FCF7CDFC054A0549034800F00AF865
:10772000014838BD20E7032014E70320C8E1032007
:107730006D6D0D000B460146184600F085BDFCF747
:10774000AEBC0000024B1868BFF35F8F704700BFEC
:1077500024E7032010B5002814BF04460124204666
:10776000FEF7C8FA20B9FFF7EDFF08B18047F6E74A
:1077700010BDFFF7EFBF08B5FEF7E4FA244B1A6817
:10778000D0075CBF01221A60224B1A68D1075CBF88
:1077900001221A60204B1A68D2075CBF01221A60CE
:1077A0001E4B1A68D0075CBF01221A601C4B1A6876
:1077B000D1075CBF01221A601A4B1A68D2075CBF5E
:1077C00001221A60184B1A68D0075CBF01221A60A8
:1077D000164B1A68D1075CBF01221A60144B1A6855
:1077E000D2075CBF01221A60124B1A68D0075CBF37
:1077F00001221A60104B1A68D1075CBF01221A607F
:107800000E4B1A68D2075CBF01221A60704700BF96
:1078100054E7032050E703204CE7032048E7032008
:1078200044E7032040E703203CE7032038E7032038
:1078300034E7032030E703202CE7032028E7032068
:10784000184B1A68D1075CBF01221A60164B1A68E0
:10785000D2075CBF01221A60144B1A68D0075CBFC4
:1078600001221A60124B1A68D1075CBF01221A600C
:10787000104B1A68D2075CBF01221A600E4B1A68BF
:10788000D0075CBF01221A600C4B1A68D1075CBF9D
:1078900001221A600A4B1A68D2075CBF01221A60E3
:1078A000704700BF74E7032070E703206CE70320F4
:1078B00068E7032064E7032060E703205CE7032018
:1078C00058E70320184B1A68D1075CBF01221A60E1
:1078D000164B1A68D2075CBF01221A60144B1A6853
:1078E000D0075CBF01221A60124B1A68D1075CBF37
:1078F00001221A60104B1A68D2075CBF01221A607D
:107900000E4B1A68D0075CBF01221A600C4B1A6834
:10791000D1075CBF01221A600A4B1A68D2075CBF0C
:1079200001221A60704700BF94E7032090E703200C
:107930008CE7032088E7032084E7032080E7032007
:107940007CE7032078E70320244B1A68D0075CBF4C
:1079500001221A60224B1A68D1075CBF01221A600B
:10796000204B1A68D2075CBF01221A601E4B1A68AE
:10797000D0075CBF01221A601C4B1A68D1075CBF9C
:1079800001221A601A4B1A68D2075CBF01221A60E2
:10799000184B1A68D0075CBF01221A60164B1A6890
:1079A000D1075CBF01221A60144B1A68D2075CBF72
:1079B00001221A60124B1A68D0075CBF01221A60BC
:1079C000104B1A68D1075CBF01221A600E4B1A686F
:1079D000D2075CBF01221A60704700BFC4E70320D2
:1079E000C0E70320BCE70320B8E70320B4E7032087
:1079F000B0E70320ACE70320A8E70320A4E70320B7
:107A0000A0E703209CE7032098E7032081F00041D2
:107A100002E000BF83F0004330B54FEA41044FEA73
:107A2000430594EA050F08BF90EA020F1FBF54EA0E
:107A3000000C55EA020C7FEA645C7FEA655C00F0AA
:107A4000E2804FEA5454D4EB5555B8BF6D420CDD7B
:107A50002C4480EA020281EA030382EA000083EAFE
:107A6000010180EA020281EA0303362D88BF30BD9E
:107A700011F0004F4FEA01314FF4801C4CEA1131F4
:107A800002D0404261EB410113F0004F4FEA033353
:107A90004CEA133302D0524263EB430394EA050FDE
:107AA00000F0A780A4F10104D5F1200E0DDB02FA4D
:107AB0000EFC22FA05F2801841F1000103FA0EF2E1
:107AC000801843FA05F359410EE0A5F120050EF1A7
:107AD000200E012A03FA0EFC28BF4CF0020C43FAD8
:107AE00005F3C01851EBE37101F0004507D54FF0E5
:107AF000000EDCF1000C7EEB00006EEB0101B1F535
:107B0000801F1BD3B1F5001F0CD349085FEA30007A
:107B10004FEA3C0C04F101044FEA445212F5800F85
:107B200080F09A80BCF1004F08BF5FEA500C50F122
:107B3000000041EB045141EA050130BD5FEA4C0C05
:107B4000404141EB010111F4801FA4F10104E9D18E
:107B500091F0000F04BF01460020B1FA81F308BF85
:107B60002033A3F10B03B3F120020CDA0C3208DD51
:107B700002F1140CC2F10C0201FA0CF021FA02F12C
:107B80000CE002F11402D8BFC2F1200C01FA02F19C
:107B900020FA0CFCDCBF41EA0C019040E41AA2BFC1
:107BA00001EB0451294330BD6FEA04041F3C1CDA89
:107BB0000C340EDC04F11404C4F1200220FA04F0A9
:107BC00001FA02F340EA030021FA04F345EA030153
:107BD00030BDC4F10C04C4F1200220FA02F001FA15
:107BE00004F340EA0300294630BD21FA04F0294697
:107BF00030BD94F0000F83F4801306BF81F4801130
:107C00000134013D4EE77FEA645C18BF7FEA655CA2
:107C100029D094EA050F08BF90EA020F05D054EA74
:107C2000000C04BF1946104630BD91EA030F1EBF79
:107C30000021002030BD5FEA545C05D1400049417D
:107C400028BF41F0004130BD14F580043CBF01F570
:107C5000801130BD01F0004545F0FE4141F4700156
:107C60004FF0000030BD7FEA645C1ABF1946104631
:107C70007FEA655C1CBF0B46024650EA013406BF32
:107C800052EA033591EA030F41F4002130BD00BFF1
:107C900090F0000F04BF0021704730B54FF48064AE
:107CA00004F132044FF000054FF0000150E700BF2F
:107CB00090F0000F04BF0021704730B54FF480648E
:107CC00004F1320410F0004548BF40424FF000017B
:107CD0003EE700BF42004FEAE2014FEA31014FEABE
:107CE00002701FBF12F07F4393F07F4F81F060510D
:107CF000704792F0000F14BF93F07F4F704730B57C
:107D00004FF4607401F0004521F0004120E700BF0E
:107D100050EA010208BF704730B54FF000050AE095
:107D200050EA010208BF704730B511F0004502D596
:107D3000404261EB41014FF4806404F132045FEA98
:107D4000915C3FF4DCAE4FF003025FEADC0C18BF3D
:107D500003325FEADC0C18BF033202EBDC02C2F133
:107D6000200300FA03FC20FA02F001FA03FE40EAC5
:107D70000E0021FA02F11444C1E600BF70B54FF0C5
:107D8000FF0C4CF4E06C1CEA11541DBF1CEA1355A7
:107D900094EA0C0F95EA0C0F00F0DEF82C4481EA0F
:107DA000030621EA4C5123EA4C5350EA013518BF2F
:107DB00052EA033541F4801143F4801338D0A0FB1C
:107DC00002CE4FF00005E1FB02E506F00042E0FBC9
:107DD00003E54FF00006E1FB03569CF0000F18BFCF
:107DE0004EF0010EA4F1FF04B6F5007F64F5407477
:107DF00004D25FEA4E0E6D4146EB060642EAC6210A
:107E000041EA55514FEAC52040EA5E504FEACE2E76
:107E1000B4F1FD0C88BFBCF5E06F1ED8BEF1004F79
:107E200008BF5FEA500E50F1000041EB045170BDF5
:107E300006F0004646EA010140EA020081EA030139
:107E4000B4EB5C04C2BFD4EB0C0541EA045170BD35
:107E500041F480114FF0000E013C00F3AB8014F1AF
:107E6000360FDEBF002001F0004170BDC4F10004F8
:107E7000203C35DA0C341BDC04F11404C4F1200579
:107E800000FA05F320FA04F001FA05F240EA0200D4
:107E900001F0004221F0004110EBD37021FA04F60A
:107EA00042EB06015EEA430E08BF20EAD37070BDC4
:107EB000C4F10C04C4F1200500FA04F320FA05F023
:107EC00001FA04F240EA020001F0004110EBD37025
:107ED00041F100015EEA430E08BF20EAD37070BD95
:107EE000C4F1200500FA05F24EEA020E20FA04F36E
:107EF00001FA05F243EA020321FA04F001F000411D
:107F000021FA04F220EA020000EBD3705EEA430E8D
:107F100008BF20EAD37070BD94F0000F0FD101F0BC
:107F20000046400041EB010111F4801F08BF013CF5
:107F3000F7D041EA060195F0000F18BF704703F033
:107F40000046520043EB030313F4801F08BF013DBA
:107F5000F7D043EA0603704794EA0C0F0CEA135576
:107F600018BF95EA0C0F0CD050EA410618BF52EA30
:107F70004306D1D181EA030101F000414FF0000036
:107F800070BD50EA410606BF1046194652EA430644
:107F900019D094EA0C0F02D150EA013613D195EAB8
:107FA0000C0F05D152EA03361CBF104619460AD100
:107FB00081EA030101F0004141F0FE4141F470010A
:107FC0004FF0000070BD41F0FE4141F4780170BDFA
:107FD00070B54FF0FF0C4CF4E06C1CEA11541DBF5F
:107FE0001CEA135594EA0C0F95EA0C0F00F0A7F861
:107FF000A4EB050481EA030E52EA03354FEA01318E
:1080000000F088804FEA03334FF0805545EA1313A0
:1080100043EA12634FEA022245EA111545EA106568
:108020004FEA00260EF000419D4208BF964244F1FF
:10803000FD0404F5407402D25B084FEA3202B61A1E
:1080400065EB03055B084FEA32024FF480104FF4F2
:10805000002CB6EB020E75EB030E22BFB61A754666
:1080600040EA0C005B084FEA3202B6EB020E75EBF9
:10807000030E22BFB61A754640EA5C005B084FEA61
:108080003202B6EB020E75EB030E22BFB61A75462E
:1080900040EA9C005B084FEA3202B6EB020E75EB39
:1080A000030E22BFB61A754640EADC0055EA060EFA
:1080B00018D04FEA051545EA16754FEA06164FEA3D
:1080C000C30343EA52734FEAC2025FEA1C1CC0D1E9
:1080D00011F4801F0BD141EA00014FF000004FF076
:1080E000004CB6E711F4801F04BF01430020B4F137
:1080F000FD0C88BFBCF5E06F3FF6AFAEB5EB030CEF
:1081000004BFB6EB020C5FEA500C50F1000041EBEB
:10811000045170BD0EF0004E4EEA113114EB5C04B8
:10812000C2BFD4EB0C0541EA045170BD41F480118B
:108130004FF0000E013C90E645EA060E8DE60CEA93
:10814000135594EA0C0F08BF95EA0C0F3FF43BAFB0
:1081500094EA0C0F0AD150EA01347FF434AF95EA67
:108160000C0F7FF425AF104619462CE795EA0C0F4B
:1081700006D152EA03353FF4FDAE1046194622E718
:1081800050EA410618BF52EA43067FF4C5AE50EAF2
:1081900041047FF40DAF52EA43057FF4EBAE12E7E2
:1081A0004FEA4102B2F1E04324BFB3F5001CDCF119
:1081B000FE5C0DD901F0004C4FEAC0024CEA507051
:1081C000B2F1004F40EB830008BF20F00100704780
:1081D00011F0804F21D113F13872BCBF01F0004083
:1081E000704741F480114FEA5252C2F11802C2F1B5
:1081F000200C10FA0CF320FA02F018BF40F0010036
:108200004FEAC1234FEAD32303FA0CFC40EA0C00E7
:1082100023FA02F34FEA4303CCE77FEA625307D124
:1082200050EA01331EBF4FF0FE4040F4400070475B
:1082300001F0004040F0FE4040F40000704700BFF5
:108240000A22002100F026BA10B5054C13462CB1C5
:108250000A4601460220AFF3008010BD204610BD43
:108260000000000038B5074B1C68E36B05461BB9DE
:108270002420FDF73FFDE063E16B2846BDE8384070
:1082800000F002B878E103202DE9F0410C46804669
:1082900000F006FD21460746404600F005FD466910
:1082A00006F26C76B307044605D1642296FBF2F31E
:1082B00002FB13634BB94FF4C87596FBF5F305FB4E
:1082C0001365B5FA85F35B0900E001235F4A3025A9
:1082D00005FB032500F018FB00F018FB5C4B1B6846
:1082E000F3B17B689E4205D13968D8F80030FA694D
:1082F00041B90AE0304600F05FFA0028F4D14FF0AF
:10830000FF330DE0934208DB01E0934207DABA6BDA
:108310009342ACBF0023012302E0002300E00123CD
:108320002362236A012B0CBFF96B396A4FF4616336
:108330003C2091FBF3F603FB1613616893FBF0F20C
:1083400000FB12302368891AA26861601B1A921B15
:108350003B2B2360A26003DD013161603C3B04E004
:10836000002B03DA013961603C33236063683B2BE7
:1083700003DD0132A2603C3B04E0002B03DA013A4A
:10838000A2603C336360A368172B22DDE2690132EF
:10839000E261A2690132062AC8BF0022A261E26836
:1083A000183B0132A3602369E26055F823108A422A
:1083B00046DD01330C2B0CBF63692361A2EB010284
:1083C000E26001BF013300222261636108BFE26104
:1083D00036E0002B34DAE269013AE261A269013A3F
:1083E00048BF0622A261E2681833013AE260A36046
:1083F00032BB2369013B01D423611DE00B232361C0
:1084000063695A1E12F0030F626103F26B7305D1A8
:10841000642193FBF1F201FB12324AB94FF4C871A7
:1084200093FBF1F201FB1233B3FA83F35B0900E033
:10843000012303F5B673E361236955F82330E36044
:1084400000F063FA2046BDE8F08100BF3C970D00C4
:10845000E4E7032010B5431E0A44914204D011F80A
:10846000014B03F8014FF8E710BD02440346934265
:1084700002D003F8011BFAE77047000038B5124B31
:108480001C68A36B0546D3B91820FDF733FC43F2F3
:108490000E33A06303804AF6CD33438041F2342388
:1084A00083804EF26D63C3804DF6EC630381052338
:1084B00043810B23838101220023C0E90423A36BA2
:1084C00000221D615A6138BD78E1032010F8012BAC
:1084D00011F8013B012A28BF9A42F7D0D01A704701
:1084E000034611F8012B03F8012B002AF9D170473C
:1084F000024B0146186800F003B800BF78E1032082
:1085000070B5064608460C4600F00DF8451C294695
:108510003046FDF71FFC064618B12A462146FFF7F4
:1085200099FF304670BD034613F8012B002AFBD19A
:10853000181A0138704730B582B1451E013915F857
:10854000013F11F8014FA34206D1EC431444E0422D
:1085500001D0002BF3D11C46181B30BD104630BD96
:1085600010B5034642B111F8014B03F8014B013A33
:10857000002CF7D11A4400E010BD934202D003F85A
:10858000014BFAE710BD00002DE9F0478046404856
:10859000D0F800900F463D4615F8014B09EB04005A
:1085A000407800F0080000F0FF0608B12F46F2E71F
:1085B0002D2C03D1BD1C7C78012603E02B2C04BF9D
:1085C0007C78BD1C13B1102B0AD15BE0302C57D145
:1085D000287800F0DF0058284DD16C781023023540
:1085E000002E14BF4FF0004C6FF0004C0027BCFB76
:1085F000F3FA384603FB1ACC09EB040E9EF801E0AF
:108600001EF0040F01D0303C0BE01EF0030E1BD017
:10861000BEF1010F0CBF4FF0370E4FF0570ECEEBEF
:108620000404A34210DDB7F1FF3F0AD0504506D83D
:1086300001D1644503DC03FB0040012701E04FF05A
:10864000FF3715F8014BD7E77B1C0CD1002E4FF0FC
:10865000220314BF4FF000406FF00040C8F8003014
:108660002AB9BDE8F08706B1404272B107B1691E70
:108670001160BDE8F0873024002BB1D10823AFE7AB
:108680000A23ADE7302CA3D0AAE7BDE8F08700BFEE
:1086900014E1032013460A46014602480068FFF72A
:1086A00073BF00BF78E103202DE9F04780463C48C6
:1086B000D0F800900E46354615F8014B09EB040042
:1086C000407800F0080000F0FF0708B12E46F2E7FE
:1086D0002D2C03D1B51C7478012703E02B2C04BF8B
:1086E0007478B51C13B1102B0AD153E0302C4FD144
:1086F000287800F0DF00582845D16C781023023527
:108700004FF0FF3C0026BCFBF3FC03FB0CFA6FEAC6
:108710000A0A304609EB040E9EF801E01EF0040F31
:1087200001D0303C0BE01EF0030E1AD0BEF1010F59
:108730000CBF4FF0370E4FF0570ECEEB0404A342A0
:108740000FDD002E08DB604506D801D1544503DC5F
:1087500003FB0040012601E04FF0FF3615F8014B06
:10876000D8E7002E07DA2223C8F800304FF0FF3098
:108770002AB9BDE8F08707B1404272B106B1691E5F
:108780001160BDE8F0873024002BB9D10823B7E78A
:108790000A23B5E7302CABD0B2E7BDE8F08700BFC5
:1087A00014E1032013460A46014602480068FFF719
:1087B0007BBF00BF78E103202DE9F74F044600F0AE
:1087C0006FFA40F2B1739C4240F396806FF4F66307
:1087D000E318A4F2B2729B1040F26D1505FB02354E
:1087E000A4F26D726FF0630392FBF3F36FF4C8624F
:1087F0002B44A5184FF4C87295FBF2F51D44642371
:1088000094FBF2F794FBF3F602FB174703FB1646C3
:1088100000F13803B7FA87FE019304F003034460C4
:108820004FEA5E1E014600934FF0070C0B7A4A2B6D
:108830000ED14B69009AEC1802B906B927B93B2B47
:10884000D4BF0023012300E000232344013B3FE089
:10885000442B02D14B692B443AE0009B2BB9002EEC
:108860000CBFF0464FF0010800E0F046244BCC6806
:10887000302202FB0838A8F1040AA9460123A342CA
:1088800004DA5AF804BF0133D944F8E709F10403C4
:1088900093FBFCFBCBEBCB0A012CCAEB030A4B6925
:1088A000B8BF012404F18044B3EB0A0A0B6904F158
:1088B000FF3403F1FF3348BF0AF1070AC3EBC303D8
:1088C00058F824405344A34201DB073BFBE74B44E9
:1088D0008C690C4A02FB03430C6A234441F81C3F99
:1088E000019B9942A2D1C369826B9342ACBF002322
:1088F00001230360012000E0002003B0BDE8F08FF9
:108900003C970D008051010070477047014B18687B
:1089100000F002B878E103202DE9F04F8DB0074652
:1089200000F0BEF9B049B14E0446384600F0B0F947
:10893000054660B9AE4BAF4A1860AF4B1860AF4BFD
:1089400030681A605A60FDF7DDF9356048E131683A
:1089500079B93068FDF7D6F92846FFF7E4FD411CE8
:108960003846FDF7F7F9306048B12946FFF7B8FD02
:1089700005E0FFF7ABFD002800F03281E9E72B7836
:108980009F4AA0493A2B08BF01350AAE3346284614
:10899000FDF7C8F9002840F323810A9BEF18EB5C30
:1089A0002D2B03D101374FF0FF3503E02B2B08BFF0
:1089B000013701250DF1200A0DF11E0B4FF00008C3
:1089C0000396CDF808A00196CDF800B0334607AA6B
:1089D0008D49ADF81E803846ADF82080FDF7A2F92C
:1089E000404540F3FD80BDF81E20BDF82030DFF883
:1089F00024923C2101FB0233BDF81C204FF461613D
:108A000001FB02335D4325627C4D7D4B2B600A9B4D
:108A10007C491F444A4633463846FDF783F94045B2
:108A200008DC2B686B60724B226A1A60724BC3F8C9
:108A30000080D5E00A9BC5F80490FD18FB5C2D2B47
:108A400003D101354FF0FF3703E02B2B08BF013571
:108A500001270023ADF81C30ADF81E30ADF82030F2
:108A60000A930396CDF808A00196CDF800B03346DE
:108A700007AA65492846FDF755F9002804DC236A52
:108A8000A3F56163E3630EE0BDF81E20BDF820305E
:108A90003C2101FB0233BDF81C204FF4616101FB56
:108AA00002335F43E7630A9B27461D444FF00009EA
:108AB0002B782C2B08BF013595F80080B8F14D0FAD
:108AC00026D10DF12603029309AB0093039601967C
:108AD00033460DF122024D492846FDF723F90328BC
:108AE0007ED1BDF822104B1E0B2B79D8BDF8242067
:108AF000531E042B74D8BDF82630062B70D887F887
:108B00000880F9603A617B610A9B05EB03082AE063
:108B1000B8F14A0F06BF0135434644230A220BA988
:108B200028460593FFF73EFEDDF82C80ADF82600C1
:108B30004545059B14D14D23B9F1000F07D1237290
:108B40000323E36002232361C4F814900BE084F84C
:108B500024300B23A3620123E3620023236302E09A
:108B600080B23B7278610223ADF81C300023ADF86F
:108B70001E30ADF820300A9398F800302F2B0BD11F
:108B80000396CDF808A00196CDF800B0334607AAA9
:108B90001F494046FDF7C6F8BDF81E20BDF820303D
:108BA0003C2101FB0233BDF81C204FF4616101FB45
:108BB0000233BB610A9D09F10109B9F1020F454475
:108BC00007F11C077FF474AF6068FFF7F5FD084BF1
:108BD000226A1A60E36B9B1A074A18BF01231360CD
:108BE0000DB0BDE8F08F00BF9C970D00E0E70320BB
:108BF000E8E703209F970D00E4E703207CE10320D2
:108C0000D3E70320A3970D00C6970D00B2970D0080
:108C1000C5970D00C8E703202DE9F84F07468B469E
:108C2000904600F0D9F8194B1D689A463DB15C4654
:108C3000234613F8012B42B13D2A1C46F8D1384691
:108C400000F0CBF80020BDE8F88FCBEB0404A94678
:108C500059F8040B0028F2D022465946FFF76BFC66
:108C600088B959F8043C1E191B5D3D2B0BD1DAF86D
:108C70000030ED1AAD103846C8F8005000F0ADF8DD
:108C8000701CBDE8F88F4D46E1E700BFC4E103204A
:108C900007B501AAFFF7C0FF03B05DF804FB0000B1
:108CA0000048704784E103200268474BF0B592FB0F
:108CB000F3F403FB1422002ABCBF02F5A83202F52C
:108CC000C0724FF4616004F52F2492FBF0F300FBB7
:108CD00013224FF03C00ACBF04F66C2404F66B2466
:108CE0008B6092FBF0F300FB13224B600A600723BA
:108CF000E21C92FBF3F3C3EBC303D31A8B61334B38
:108D0000334D94FBF5F503FB054448F6AC62B4FB28
:108D1000F2F2224440F2B457B4FBF7F3D21A2D48D2
:108D2000B4FBF0F048F69466131AB3FBF6F634443D
:108D300040F26D12B3FBF2F0B3FBF7F3E31A02FB60
:108D40001033992403EB83020232B2FBF4F20A2AB5
:108D500004FB02F404F102064FF00504B6FBF4F440
:108D600034BF02266FF0090616444FF4C87202FBA6
:108D700005055F1C012E98BF0135B3F5997FA7EB60
:108D8000040702D3A3F5997214E0820705D1642485
:108D9000B0FBF4F204FB12024AB94FF4C872B0FB04
:108DA000F2F402FB1400B0FA80F2520900E0012252
:108DB0003B331A44A5F26C750023CA614D610E6104
:108DC000CF600B620846F0BD805101004FC5FDFF2A
:108DD000B13A0200B03A02007047704721400D00DE
:108DE0005D400D0089400D008D400D000000000029
:108DF0005374617274757020537563636573736621
:108E0000756C000000000000000000000000000081
:108E10000000000000000000000000000000000052
:108E20000000000000000000000000000000000042
:108E300002000000257320533A25322E3066252586
:108E40002C20513A25322E30662525200025342E3F
:108E5000316620430025342E316620252500253437
:108E60002E3166206C757800256920252500415437
:108E70002B4346554E3D31360D0A007B2254656D1D
:108E80007065726174757265223A25342E31662CD4
:108E9000202248756D6964697479223A25342E312F
:108EA000662C20224C696768744C6576656C223AA2
:108EB00025342E31662C2022536F696C6D6F6973D7
:108EC0007475726531223A25692C2022536F696CC2
:108ED0006D6F69737475726532223A25692C202290
:108EE00077617465725072657373757265223A2585
:108EF000692C2022536F6C656E6F6964223A256974
:108F00002C202242617474657279223A25692C20E2
:108F100022526573657473223A25692C2022416CB4
:108F200065727473223A25697D005277616E6461BF
:108F30002D53656E73652D416E642D436F6E747293
:108F40006F6C2D32004E6F20446174610055626970
:108F5000646F747320486F6F6B00526573706F6E2F
:108F6000736520526563656976656400556E6B6E46
:108F70006F776E20726573706F6E736520726563B4
:108F800065766965642025690053657420536F6CAC
:108F9000617220506F7765726564204D6F64650063
:108FA0003000436C656172656420536F6C617220A0
:108FB000506F7765726564204D6F6465004E6F2059
:108FC000536F696C2053656E736F7273004F6E65DB
:108FD00020536F696C2053656E736F720054776F06
:108FE00020536F696C2053656E736F7273004E6F00
:108FF0002050726573737572652053656E736F725E
:109000000050726573737572652053656E736F726D
:109010002050726573656E74004E6F204C696768EE
:10902000742053656E736F72004C696768742053C7
:10903000656E736F722050726573656E740059654A
:109040007300796573006E6F004E6F004E6F205392
:109050006F6C656E6F6964204174746163686564E8
:109060000053657420566572626F7365204D6F649E
:109070006500436C656172656420566572626F734A
:1090800065204D6F6465004C6F7720506F77657277
:10909000004E6F726D616C204F7065726174696F04
:1090A0006E73004F6E004F70656E207468652056B9
:1090B000616C766500536F6C656E6F6964004F6616
:1090C0006600436C6F7365207468652076616C760A
:1090D00065002569206D5365630046726F6D20251C
:1090E0007320746F2025730053746174652054726B
:1090F000616E736974696F6E00737061726B2F6457
:1091000065766963652F73657373696F6E2F656E1E
:109110006400476F696E6720746F20536C656570DB
:10912000005374617465004C6F77204261747465FC
:109130007279202D20536C656570696E67004572E9
:10914000726F72205374617465202D2052657365AF
:1091500074004572726F72205374617465202D2003
:10916000506F776572204379636C65004572726F4A
:1091700072205374617465202D2046756C6C204DEF
:109180006F64656D205265736574004572726F720D
:109190002074616B696E67204D6561737572656DD2
:1091A000656E7473005369676E616C005265736518
:1091B00074436F756E740052656C6561736500531E
:1091C000746174654F6643686700506F77657243DA
:1091D0006F6E74657874004C6F77506F7765724D61
:1091E0006F64650054656D706572617475726500B9
:1091F00048756D6964697479004C756D696E6F733B
:1092000069747900536F696C4D6F69737475726519
:109210003100536F696C4D6F6973747572653200FC
:109220005072657373757265004D65617375726513
:109230002D4E6F7700536F6C61722D4D6F6465001A
:10924000566572626F73652D4D6F646500436F6E76
:10925000746F6C56616C766500536574486F6C640E
:1092600054696D6500536574536F696C53656E7313
:109270006F727300536574507265737375726553C2
:10928000656E736F72005365744C696768745365DB
:109290006E736F7200536F6C656E6F6964507265A8
:1092A00073656E7400436F756C64206E6F74206616
:1092B000696E64205348543331004661696C6564BB
:1092C00020746F20636F6E6E6563740053746172F7
:1092D00074757000556E6B6E6F776E004E6F6E65B5
:1092E00000576946690047534D00554D545300439C
:1092F000444D41004C5445004945454538303231D4
:10930000353400313500000000000000000000008E
:1093100000000000275E0D001D5E0D00135E0D00B5
:10932000C95D0D00075E0D00FB5D0D00EF5D0D00DA
:10933000E75D0D00DD5D0D00D35D0D00A56B0D003B
:109340000000000000000000D55E0D00355F0D003C
:10935000D75E0D00795F0D00DD5E0D00455F0D00ED
:10936000095F0D0003600D00FCFFFFFF000000001F
:109370002D600D00000000000000000035600D00B1
:109380003B600D0091600D0049600D0037600D00DD
:109390000000000000000000A7660D009D660D00A3
:1093A00093660D0089660D007D660D0071660D00E7
:1093B00065660D005D660D0053660D0049660D0083
:1093C000A56B0D000000000000000000A9670D0063
:1093D000F3670D00CB670D00AB670D00D3670D0081
:1093E000DB670D00E3670D00EB670D000000000078
:1093F00000000000F5680D00E5680D00E7680D004D
:10940000626175640053657269616C0053657269CD
:10941000616C31007479706500706172616D006318
:109420006D6400686E64007374726D0066696C74BC
:10943000006C766C0061646448616E646C657200F7
:1094400072656D6F766548616E646C657200656EFD
:10945000756D48616E646C657273004A534F4E536C
:10946000747265616D4C6F6748616E646C65720003
:1094700061707000253031307520005D200025645A
:10948000002C200028293A2000205B00636F6465CF
:10949000203D200064657461696C73203D20006C80
:1094A0006E00666E00636F64650064657461696C6C
:1094B000006E6F6E6500747261636500696E666F41
:1094C000007761726E006572726F720070616E6912
:1094D0006300616C6C0000000000000000000000F0
:1094E000376A0D002D6A0D00236A0D00196A0D0000
:1094F0000D6A0D00016A0D00F5690D00ED690D00A2
:10950000E3690D00D9690D00A56B0D000000000096
:10951000000000003D6B0D00476B0D00516B0D000E
:109520005B6B0D00656B0D00716B0D007D6B0D00AD
:10953000896B0D00916B0D009B6B0D00A56B0D00F1
:1095400000000000000000006D6D0D006F6D0D004B
:10955000252B3033643A253032750025592D256D81
:109560002D25645425483A254D3A2553257A006126
:10957000736374696D650000000000000000000066
:1095800095710D00E5710D00F3710D00856C0D00F6
:10959000A9710D00CB710D00B7710D00DF710D00C9
:1095A00097710D009B710D0000000000000000008D
:1095B0009D720D00ED720D00FB720D00856C0D00AB
:1095C000D9720D009F720D00B5720D00E7720D008B
:1095D000CB720D0099720D00000020202020202069
:1095E0002020202828282828202020202020202053
:1095F0002020202020202020202088101010101053
:1096000010101010101010101010040404040404A2
:109610000404040410101010101010414141414185
:1096200041010101010101010101010101010101EA
:10963000010101010110101010101042424242427B
:1096400042020202020202020202020202020202BA
:1096500002020202021010101020000000000000A0
:1096600000000000000000000000000000000000FA
:1096700000000000000000000000000000000000EA
:1096800000000000000000000000000000000000DA
:1096900000000000000000000000000000000000CA
:1096A00000000000000000000000000000000000BA
:1096B00000000000000000000000000000000000AA
:1096C000000000000000000000000000000000009A
:1096D000000000000000000000000000000000008A
:1096E000000000000000000000000000000000007A
:1096F000000000000000000000000000000000006A
:109700000000000000000000000000000000000059
:109710000000000000000000000000000000000049
:109720000000000000000000000000000000000039
:109730000000000000000000000000001F0000000A
:109740001C0000001F0000001E0000001F000000A1
:109750001E0000001F0000001F0000001E0000008F
:109760001F0000001E0000001F0000001F0000007E
:109770001D0000001F0000001E0000001F00000070
:109780001E0000001F0000001F0000001E0000005F
:109790001F0000001E0000001F000000545A004778
:1097A0004D54002531305B5E302D392C2B2D5D253D
:1097B0006E004D256875256E2E256875256E2E2543
:1097C0006875256E002F256875256E3A2568752504
:1097D0006E3A256875256E00E1530D0061560D0047
:1097E00011570D00B95D0D00A55E0D00B1660D00AD
:1097F000C9690D00ED6A0D00716C0D00516D0D0011
:1098000055700D0081710D007D770D0041780D00C0
:10981000C5780D0049790D0000000000000000002F
:049820000000000044
:10982400496E697469616C697A650000000045726B
:10983400726F7200000000000000000049646C6553
:10984400000000000000000000004D6561737572A7
:10985400696E6700000000005265706F7274696E73
:10986400670000000000526573706F6E73652057C7
:1098740061697400536C656570696E67000000006F
:1098840000004C6F772042617474657279000000A7
:1098940001000000D4920D00DC920D00E1920D0055
:1098A400E6920D00EA920D00EF920D00F4920D0085
:1098B400F8920D006F950D00D9950D000000000081
:1098C400DC960D00FC960D001C970D0000000000B6
:1098D400000000000000000000000000538E0D0096
:1098E4000000000000000000000000000000000074
:1098F4000000000000000000000000000000000064
:109904000000000000000000000000000000000053
:1099140000000000000000000000000018E1032027
:109924009F970D009F970D000100000000000000AC
:109934004A000000000000000000000000000000D9
:109944000000000000000000000000004A000000C9
:109954000000000000000000000000000000000003
:0C9964000000000000000000ECE7032001
:10997000FFFFFFFFD5290F000000010203040506C9
:109980000708090A0B0C0D0E0F10111213141516EF
:0C9990001718191A1B1C1D1E1F20280090
:04999C0078563412B3
:04000003D0004020C9
:00000001FF
