:02000002D0002C
:1040000000400D00F4C70D00000006000D00050182
:084010000401E70500000000B7
:04401800B8B70D0028
:1040200009480A49884208B505D0094A824202D0A7
:10403000121A05F09DF90748074A0021121A05F0E7
:10404000A2F9014808BD00BF38E0032054C60D00A6
:10405000ACE10320ACE10320F0E7032070B504F0ED
:104060006FF8074C074BE41AA40800251E46A5422A
:1040700004D056F8253098470135F8E770BD00BFE9
:1040800044C60D0004C60D0001F01ABC08B501F0CD
:10409000DBF8BDE8084004F015B802F0DDBB02F023
:1040A000E3BB02F0E1BB0078B0FA80F04009704752
:1040B0000123037070470000014B01221A70704702
:1040C0001DE20320024A01239371024A13707047D4
:1040D000FCE20320E2E1032003681847012A02D032
:1040E000022A02D004E0016002E00B6800B1036024
:1040F0000020704738B50446006928B185680C2156
:1041000004F085F92846F8E7204638BD08B504498B
:1041100003F0C1FC18B1034B03221A70012008BD43
:1041200050BF0D00E3E10320436913B183690C30F4
:104130001847704713B500210446084602F072F88C
:1041400002A90023204641F8043D02F083F8019CB7
:104150000CB1012323710021012002F063F82CB17E
:10416000236820469B6898470023237102B010BD46
:1041700037B59DF8184023438DF800303C230546A1
:1041800002F0A4FE284603B030BD10B50446006816
:1041900008B102F069FB204610BD10B583680446E3
:1041A00013B1032201469847204610BD0368D86822
:1041B00020B183888B4201D08068F9E77047000006
:1041C0002DE9F041037D05460F4616463BB301211C
:1041D000FFF7ECFF50B18389BB4204D186731EE028
:1041E0008388012BF6D080680028F9D10D49102072
:1041F00004F018F9044688B14FF010084246002137
:1042000005F0C1F8022363800123A4F80080A38095
:104210002B69A360A781A6732C6100E0287528464E
:10422000BDE8F08148C20D002DE9F041037D05464F
:104230000F46F3B10421FFF7B9FF064608B1C76086
:1042400017E00D49102004F0EDF8044680B14FF05E
:1042500010084246314605F096F802236380042395
:10426000A4F80080A3802B69A360E7602C6100E0C4
:1042700028752846BDE8F08148C20D0008B52DED2F
:10428000028BB0EE408A28B10138FFF7F7FF28EE25
:10429000000A01E0B7EE000ABDEC028B08BD000089
:1042A000F0B500258E4615490571856045610160B0
:1042B000044692E8030085B002AF04F10C0687E8DB
:1042C000030096E8030082E8030097E8030086E80D
:1042D00003009168606990606161D168A069D060F5
:1042E000A1618DE82800064A2346714604F10800C2
:1042F00001F0A0FF204605B0F0BD00BFD4B70D000F
:1043000035410D0007B580680B461146002238B1D3
:104310008DE80600032101F0A5FFB0FA80F0400906
:1043200003B05DF804FB08B5806828B1002101F0F6
:10433000B1FF003018BF012008BD07B58068002319
:1043400038B18DE80A00022101F08CFFB0FA80F04C
:10435000400903B05DF804FB38B5104B0360836877
:104360000446A3B16FF000410022FFF7E6FF0021F1
:10437000A06801F097FF237903F0FF0513B101F066
:1043800039FFF8E72946A06801F05CFFA56004F159
:104390000C00FFF702FF204638BD00BFD4B70D0068
:1043A00010B50446FFF7D8FF20461C2104F02FF873
:1043B000204610BD37B5054600220C461146FFF7D2
:1043C000BCFFA868002340B1019300941A46194627
:1043D00001F048FFB0FA80F0400903B030BD0000A2
:1043E00030B5194D0FCD99B004AC0FC40FCD0FC42B
:1043F00095E8030084E8030014490EA802F0E6FAE9
:104400000EA802F036FB04460EA802F083FB0EA8AD
:1044100010EE105A02F064FB18AB10EE100A03EB1A
:10442000840404F0BFFACDE90201284604F0BAFA88
:10443000CDE90001064A54F8503C0648402102F0FC
:1044400033FA19B030BD00BFE0B70D0034E30320EC
:1044500068B80D0064E203202DE9D0431A48002318
:104460001A461946406802F0C7F902F05DF94FF4A8
:10447000967440F2E7360027002001F07BFF4FF0F2
:1044800000098046002001F075FFB0EB080061EBE9
:1044900009018F4208BF864205D302F055F910B9D1
:1044A00002F03AF9EEE702F04FF918B1BDE8D04357
:1044B00002F04AB901F026FF044B186002F02CF913
:1044C000013CF3D0D8E700BF34E30320E8E6032043
:1044D00008B502F039F980F00100C0B208BD000053
:1044E000F8B502F029F9002001F044FF0025044648
:1044F00043F697260027002001F03CFF001B61EBEC
:1045000005018F4208BF864205D3FFF7E1FF10B9CE
:1045100002F002F9EFE7FFF7DBFF064800231A4637
:104520001946406802F070F94FF4FA6002F0E0F9C1
:104530000120F8BD34E3032008B503F081FC122804
:1045400006DC03F07DFC0528D4BF0020012008BD57
:10455000002008BD13B50446012101A803F0F3F8BB
:1045600001A81CB103F0A1F9012401E003F06DF9E9
:1045700001A803F0F7F8204602B010BD10B52024C2
:1045800090B022460021684604F0FDFE224600213C
:104590000DEB04008DF8054004F0F5FE00210DEB55
:1045A00004008DF8254002F093F8184B5979009BD0
:1045B0004FF46172ADF8082081B141F2D832ADF804
:1045C00006204FF48062ADF80A2043F4007341F2F4
:1045D0007002ADF80C20009300210CE041F2700055
:1045E000ADF80A2043F4007341F21002ADF8060062
:1045F000ADF80C200093684602F06AF804460120EA
:10460000FFF7A8FF204610B010BD00BFFCE203205A
:1046100010B5074C01F076FE2368C01AB0F57A7F1A
:1046200004D301F06FFE2060012010BD002010BDFA
:10463000A4E2032008B5FFF7EBFF18B1BDE808407E
:10464000FFF7E6BF02F068F8F5E7000037B502F0C3
:1046500073F801F057FE43F69725044602F074F80C
:1046600040B101F04FFE001BA84203D8642002F0C5
:104670003FF9F3E70021094B47F23052084601F0B9
:10468000A9FD4FF47A7002F033F9054B0A221B683A
:104690000121684603F0EEFA03B030BD81B80D0089
:1046A00038E2032030B585B00D4604A9002241F858
:1046B000102D01F0AFFFA8B9009C0CB1236923B9FC
:1046C000094A00210A2001F095FF002301930C23E1
:1046D000ADF80430042303930295236901AA012154
:1046E0002046984705B030BDF5620D0030B50E4D3F
:1046F0000FCD89B001AC0FC495E8070084E807002E
:1047000069460720FFF7CEFF0028A8BF0098074A98
:1047100008AB03EB8000102150F81C3C044802F069
:10472000C3F809B030BD00BF08B80D00DCBB0D00F8
:10473000D2E103207FB5594D594C2B7B3BB15948F1
:1047400001F022FDB4EE400AF1EE10FA03D7002387
:10475000A361636109E0534801F016FD514884EDFF
:10476000050A01F01FFD84ED060A60694C4E04F055
:1047700019F94D4ACDE9000110214C4802F094F896
:10478000A06904F00FF94A4ACDE900011021494817
:1047900002F08AF82B7C43B1474801F01FFC4648E1
:1047A00001F0D6FB86ED070A01E00023F361E06922
:1047B0003B4E04F0F7F8414ACDE900011021404892
:1047C00002F072F8AB7B63B1132003F070FD642339
:1047D0000093002340F68A62194602F07DF83060AB
:1047E00000E03360AB7B022B0CD1122003F05FFDA5
:1047F00064230093002340F68A62194602F06CF8A5
:10480000606001E000236360EB7B012B0DD1112080
:1048100003F04DFD1E2300934FF4306200234FF44C
:10482000D67102F059F8A06002E01C4B0022DA7346
:10483000244B00221146586801F0D6FF08B1FFF75B
:10484000CFFD03A90320FFF72DFF88B90620B0EEA6
:10485000000AFFF713FDBDF80C3030EE000A07EE3A
:10486000103A30EE000AB8EE477AC7EE007A01E05F
:10487000FFEE007AFDEEE77A134A1448C5ED027A9E
:1048800017EE903A082102F00FF8FFF72FFF104BB8
:10489000012018700F4B187004B070BDFCE20320AB
:1048A000B0E203204CE203208EB80D00B0E10320FB
:1048B00096B80D00D4E20320C8E103209FB80D0094
:1048C000ECE2032034E30320A9B80D00E4E2032066
:1048D0001CE20320E2E1032038B5046805467CB100
:1048E0006368013B63605BB9236820469B68984717
:1048F000A368013BA3601BB923682046DB68984787
:10490000284638BD30B52F4C2F4D236AD1B00D93BA
:104910002E4B9A690C922E4A0B929B680A93E3687D
:104920000993A36808936368079323680693E06973
:1049300004F038F8CDE90401A06904F033F8CDE9BA
:104940000201606904F02EF80024CDE90001214A3B
:104950004FF4807110A801F0A7FFFFF76BFE2B78D2
:104960001D498DF8004010AA0EA8FFF701FC0FA802
:10497000FFF7B2FFFFF75EFE2B7818498DF8004075
:1049800010AA0EA8FFF7F4FB0FA8FFF7A5FFFFF78B
:1049900051FE2B7812498DF8004010AA0EA8FFF79F
:1049A000E7FB0FA8FFF798FF03F04AFA0D4B1870CA
:1049B0000D4B01221A7001F0A5FC0C4B186051B090
:1049C00030BD00BFB0E20320C4E10320FCE20320BD
:1049D000D2E10320AFB80D006BB90D008CB90D000A
:1049E000A4B90D001EE20320B6E00320C0E10320BD
:1049F00010B50B7894B00C4623B91C4904A804F0F8
:104A0000FDFC17E0084604F0A5FBC82804D02046AA
:104A100004F0A0FBC9281ED1154904A804F0EEFC3F
:104A200003F007FA134BD861134B01221A70134B92
:104A300000221A70FFF7FEFD114B12491B7800226D
:104A40008DF8002002A804AAFFF792FB03A8FFF745
:104A500043FF14B010BD204604F07CFB0A4A034615
:104A6000402104A801F020FFE4E700BFBDB90D001C
:104A7000D2B90D00FCE20320E2E10320B6E00320FE
:104A8000C4E10320C5B90D00E4B90D007FB51E498E
:104A9000044603F000F8064658B11C4B00229A73F6
:104AA0001B4B01241C701B4B1B788DF800201A4AED
:104AB00020E01A49204602F0EEFF054650B1134BA4
:104AC000174A01249C73124B1C70124B1B788DF8F3
:104AD00000600FE01349204602F0DDFF90B10B4B60
:104AE00002229A730A4B104A01241C70094B1B784E
:104AF0008DF800500D4902A8FFF73AFB03A8FFF715
:104B0000EBFE204604B070BD01BA0D00FCE20320AC
:104B1000E2E10320C4E1032003BA0D0050BF0D0001
:104B20001ABA0D00A7BD0D002ABA0D0013BA0D0068
:104B300030B5164985B0044602F0ADFF054658B1C0
:104B4000134B0022DA73134B01241C70124B1B7899
:104B50008DF80020114A0EE01149204602F09BFF1B
:104B600088B10B4B0F4A0124DC730A4B1C700A4BB3
:104B70001B788DF800500C4902A8FFF7F9FA03A83A
:104B8000FFF7AAFE204605B030BD00BF01BA0D00F8
:104B9000FCE20320E2E10320C4E103203BBA0D0064
:104BA00050BF0D004EBA0D0013BA0D0030B51949B3
:104BB00085B0044602F06FFF054658B1164B00223F
:104BC0001A74164B01241C70154B1B788DF80020AD
:104BD000144A15E01449204602F05DFFC0B10E4BA7
:104BE000124801241C740D4B1C7001F0A6F9202101
:104BF0000E4801F0DEF90A4B0D4A1B788DF8005083
:104C00000C4902A8FFF7B4FA03A8FFF765FE204697
:104C100005B030BD01BA0D00FCE20320E2E1032043
:104C2000C4E1032066BA0D0050BF0D00C8E10320A7
:104C300076BA0D0013BA0D0030B5184985B0044698
:104C400002F029FF054658B1154B00221A73154B87
:104C500001241C70144B1B788DF80020134A12E0BD
:104C60001349204602F017FFA8B10D4B114801244B
:104C70001C730C4B44211C7001F0F0F90A4B0E4AD6
:104C80001B788DF800500D4902A8FFF771FA03A8B0
:104C9000FFF722FE204605B030BD00BF01BA0D006F
:104CA000FCE20320E2E10320C4E103208BBA0D0003
:104CB00050BF0D004CE203208EBA0D0013BA0D0058
:104CC00010B5C6B00A2203A9006805F0AFFA421E6B
:104CD000362A03462AD8184A184C0121117020623E
:104CE000174A4FF4807106A801F0DEFD1548FFF762
:104CF0001AFB40B1236A13484EF660216FF0004260
:104D00005943FFF7FFFAFFF795FC01F01DFD78B15D
:104D10000D4B0E491B7800228DF8002004A806AA2E
:104D2000FFF726FA05A8FFF7D7FD01E0002000E015
:104D3000012046B010BD00BFE2E10320FCE20320E9
:104D4000ADBA0D0000E20320C4E10320D1BA0D008A
:104D500010B5C6B00A2203A9006805F067FA421E22
:104D6000362A03462AD8184A184C0121117060626D
:104D7000174A4FF4807106A801F096FD1548FFF719
:104D8000D2FA40B1636A13484EF660216FF00042D8
:104D90005943FFF7B7FAFFF74DFC01F0D5FC78B1A6
:104DA0000D4B0E491B7800228DF8002004A806AA9E
:104DB000FFF7DEF905A8FFF78FFD01E0002000E016
:104DC000012046B010BD00BFE2E10320FCE2032059
:104DD000DABA0D0000E20320C4E10320D1BA0D00CD
:104DE00010B5C6B00A2203A9006805F01FFA421EDA
:104DF000362A03462AD8184A184C01211170A0629D
:104E0000174A4FF4807106A801F04EFD1548FFF7D0
:104E10008AFA40B1A36A13484EF660216FF000424F
:104E20005943FFF76FFAFFF705FC01F08DFC78B1ED
:104E30000D4B0E491B7800228DF8002004A806AA0D
:104E4000FFF796F905A8FFF747FD01E0002000E015
:104E5000012046B010BD00BFE2E10320FCE20320C8
:104E6000FCBA0D0000E20320C4E10320D1BA0D001A
:104E700070B586B003A9006805F032F9B5EEC00A36
:104E8000F1EE10FA2FD4DFED1A7AB4EEE70AF1EE64
:104E900010FACCBF012500252DBB164B164E012460
:104EA0001C7010EE100A86ED0B0A03F07BFD134A0E
:104EB000CDE900010821124801F0F6FC3379A3B1D5
:104EC00001F042FC88B1FFF7B5FB0E4B0C4A1B7892
:104ED0000D498DF8005004A8FFF74AF905A8FFF71F
:104EE000FBFC204602E0002000E0012006B070BD7F
:104EF0000000C842E2E10320FCE2032044BB0D00B5
:104F000058E20320C4E1032063BD0D0030B516490B
:104F100085B0044602F0BFFD054658B1134B01248D
:104F20001C71134B1C70134B00221B788DF8002052
:104F3000114A0EE01149204602F0ADFD88B10B4B3D
:104F40000F4A1D710A4B01241C700A4B1B788DF807
:104F500000500C4902A8FFF70BF903A8FFF7BCFCAF
:104F6000204605B030BD00BF50BF0D00FCE203205D
:104F7000E2E10320C4E103204DBB0D0001BA0D00A6
:104F80005EBB0D006EBB0D0030B5294985B00446EF
:104F900002F081FD28B92749204602F07CFD002857
:104FA00043D02349204602F076FDA8B101F0CCFBA6
:104FB00070B1FFF73FFB204B20491B7800228DF892
:104FC000002002A81E4AFFF7D3F803A8FFF784FCCD
:104FD0001C4B01229A7125E01649204602F05BFD28
:104FE00000B301F0B1FB174C18B9FFF735FA0123F4
:104FF000E370FFF71FFB104B134A1B780F49002586
:1050000002A88DF80050FFF7B3F803A8FFF764FC7F
:105010004FF47A7001F06CFC6FF000410B48FFF721
:10502000C9F9A5710A4B0120187005B030BD00BF49
:1050300050BF0D0001BA0D00C4E103206EBB0D008E
:1050400073BB0D00FCE2032082BB0D00E4E10320F2
:10505000E2E10320F0B5354985B0044602F01BFDBE
:1050600028B93349204602F016FD00285BD02046BF
:105070002E49304E304D314F02F00DFD044628B31D
:10508000012421460220F46003F0E5F8002103200A
:1050900003F0E1F8686901F02BFC2146032003F0DE
:1050A000DAF84FF47A7001F023FC0021032003F0BA
:1050B000D2F8686901F01CFC2146032003F0CBF80C
:1050C00000223B788DF800201D4A22E02146022074
:1050D00003F0C1F82146032003F0BDF8686901F030
:1050E00007FC0121032003F0B6F84FF47A7001F0B9
:1050F000FFFB2146032003F0AEF8686901F0F8FBDE
:105100000121032003F0A7F80E4A3B78F4608DF8E4
:1051100000400D4902A8FFF72BF803A8FFF7DCFBBE
:105120000A4B0120187005B0F0BD00BF50BF0D0044
:1051300001BA0D00B0E20320FCE20320C4E1032029
:1051400094BB0D00ACBB0D00A3BB0D001CE2032003
:1051500030B587B01A49044602A802F06FFC02A8D5
:10516000FFF778FF02A802F022FC1649204602F061
:1051700092FC054658B1144B01245C74134B1C700F
:10518000134B00221B788DF80020124A0EE00C49C8
:10519000204602F080FC88B10B4B0F4A5D740B4B2C
:1051A00001241C700A4B1B788DF800500B4902A893
:1051B000FEF7DEFF03A8FFF78FFB204607B030BDE8
:1051C00001BA0D0050BF0D00FCE20320E2E1032014
:1051D000C4E10320BFBB0D00BCBB0D0013BA0D0022
:1051E00030B5134D134C14492A7820788FB00E2314
:1051F00003FB0212009203FB0013104A282104A8AB
:1052000001F052FB2B78237001F09EFA70B1FFF78A
:1052100011FA0B4B0B491B7800228DF8002002A8D5
:1052200004AAFEF7A5FF03A8FFF756FB0FB030BD99
:10523000E3E10320D1E1032038E00320D1BB0D00DE
:10524000C4E10320DFBB0D002DE9F041934C23782E
:10525000013B8AB0072B00F21283DFE813F0110242
:1052600008004E007F00B100D7000901B8018C4D45
:105270002B792BB18B4B1B78022B01D0FFF7B0FFA2
:10528000894E337843B103F029F834228449012050
:1052900001F060F800233370844E337843B103F09B
:1052A0001DF824228249502001F054F80023337065
:1052B000AB7963B101F026F87E4B1B68C01A7E4BB8
:1052C000984204D97A4BDB68002B00F04C8202F044
:1052D000B7FD7A4BAA681B7898421CBF0323237042
:1052E000774B1B689A42DCBF08232370754B1B78F1
:1052F000002B00F0C48204232EE0694D2B792BB1E2
:10530000684B1B78032B01D0FFF76AFFFFF712FAF7
:105310000646E8B90123237000F0F4FF6A4B1860D9
:105320002B79002B00F0AB8201F00EFA002800F080
:10533000A682FFF77FF9654B654A1B7865498DF8B2
:10534000006006A8FEF714FF07A8FFF7C5FA96E26B
:105350006B7C002BCFD10523237090E2594D5B4E1F
:105360002B7803F0FF07CBB1FFF764F933785A4A83
:105370005A49002606A88DF80060FEF7F9FE07A836
:10538000FFF7AAFA564906A802F058FB06A8FFF74D
:1053900061FE06A802F00BFB2E70DCE702F050FD68
:1053A0000828DFF80C8100F0E18102F049FD0C28AB
:1053B00000F0DC8102F044FD112840F05982D5E173
:1053C000374D2B792BB1374B1B78052B01D0FFF7CD
:1053D00007FF01F0B9F990B102F032FD064650B96D
:1053E000287101F0B1F910B1304601F0CDF9304A21
:1053F0000023AB611362FFF785FA0623ACE701F0E7
:10540000A3F9002840F03B820123A5E7244B1B7938
:105410002BB1244B1B78062B01D0FFF7E1FE314B5B
:105420001B782BB900F06EFF224B1860022393E724
:1054300000F068FF2C4B1B68C01A4AF6C8739842EC
:1054400040F21D8200F05EFF1F4B186001F07CF9F6
:105450000028D9D01D4B25491B7800228DF800204B
:1054600006A8234AFEF784FE07A8FFF735FACBE724
:105470000B4B1A791D462AB10A4B1B78072B01D01A
:10548000FFF7AEFE0A4B1B4E9B68012B34DD3378D1
:1054900093BB0123337003235EE700BFE3E10320E6
:1054A000FCE20320D1E10320E2E103201CE203201F
:1054B000B0E2032060E20320905F01001EE20320BF
:1054C000B8E003201DE20320A8E20320C4E103208A
:1054D000FBBC0D0091BC0D00F0BB0D00A3BB0D008B
:1054E00001BA0D00B6E00320C0E103206BBC0D0043
:1054F0008DB80D00D0E1032001F026F9B0B12B7971
:1055000073B1FFF797F89F4B9F491B7800228DF8E6
:10551000002006A89D4AFEF72BFE07A8FFF7DCF93E
:105520004FF47A7001F0E4F9FEF7DAFF002107206A
:1055300002F091FE00210E2002F08DFE0023337058
:1055400002F088FC3C23C0F13C0003FB00F5904BCB
:105550001A7D0AB101221A72002204218C48FEF73A
:105560002FFE4FF47A716943FEF75EFE884903A867
:1055700002F018FB039B7BB19A88012A0CD19B890E
:10558000042B09D1834906A802F058FA06A8FFF7B0
:10559000FBFC06A802F00BFA0121072002F05BFEDB
:1055A00001210E2002F057FEFEF7C6FF38B902F0C7
:1055B00047FCC30703D4FEF74FFF022304E0FEF7C6
:1055C000BBFF0028F7D107232370039852E0724BEA
:1055D0001A791D462AB1714B1B78082B01D0FFF7B1
:1055E000FFFD01F0B1F8A0B1FFF724F8654B664963
:1055F0001B7800228DF8002006A8694AFEF7B8FD46
:1056000007A8FFF769F94FF4FA6001F071F9FEF7A6
:1056100067FF0021072002F01EFE6B7C4BB15D4945
:1056200006A802F00BFA06A8FFF714FD06A802F080
:10563000BEF941F2883001F05BF902F00BFC3C232B
:10564000C0F13C0003FB00F5514B1A7D0AB1012269
:105650001A72002204214E48FEF7B2FD4FF47A710F
:105660006943FEF7E1FD06A8494902F09BFA0223CF
:1056700006982370002800F0028101F0F5F8FEE0A2
:10568000454C23792BB1454B1B78012B01D0FFF7FB
:10569000A7FD00F037FE434B1B6803F5EA433033A8
:1056A000984240F2EC80A369032B14DC01F04CF823
:1056B00060B1344B34491B7800228DF8002006A8D5
:1056C000394AFEF755FD07A8FFF706F94FF4FA60CF
:1056D00001F00EF924E002F0ACFB2F4BDB69C01A9D
:1056E000B0F5E15F1FD901F02FF860B1254B2649D5
:1056F0001B7800228DF8002006A82C4AFEF738FD02
:1057000007A8FFF7E9F84FF4FA6001F0F1F8002379
:10571000A36102F0E3FD34221F49012000F01AFECC
:1057200002F03DFAABE001F00FF860B1154B1649FD
:105730001B7800228DF8002006A81D4AFEF718FDF0
:1057400007A8FFF7C9F84FF4FA6001F0D1F8002379
:10575000A36102F0C3FD34220F49012000F0FAFDDD
:10576000FEF774FF8BE007232370B0E50A4DAB68AA
:10577000312B21DCFEF75EFF002233788DF800200C
:105780000C4A5EE0C4E1032091BC0D0084BC0D0016
:1057900020E2032001BA0D00FCE20320D1E1032046
:1057A00097BC0D00A8E20320AEBC0D00C2BC0D00EA
:1057B000DCBC0D0009BC0D00D8ED007A95ED0B7A2C
:1057C000F8EEE77AF4EEC77AF1EE10FA32D52D4B07
:1057D000DF687FBBFEF72EFF33782B4A2B498DF80D
:1057E000007006A8FEF7C4FC07A8FFF775F8284963
:1057F00006A802F023F906A8FFF72CFC06A802F081
:10580000D6F802F01DFB082805D12B6A6FF0004284
:105810004EF6602109E002F013FB0C280CBF696A08
:10582000A96A4EF660236FF0004259431948FEF70B
:1058300069FD90E5FEF7FEFE002233788DF800202A
:10584000154A124906A8FEF793FC07A8FFF744F88B
:10585000D8F80C30002B3FF47EAD104906A802F0BA
:10586000EDF806A8FFF7F6FB06A802F0A0F872E52F
:10587000FEF7E0FE33780A4A8DF80070E1E70AB0DF
:10588000BDE8F081B0E203202DBC0D00A3BB0D00EC
:1058900050BF0D0000E2032057BC0D0001BA0D00FF
:1058A00015BD0D000023042200F026BF00230222B4
:1058B00000F022BF0246014801F0E8B9616C0D001A
:1058C000F0B5914BBDB00CAA03F11005164618684F
:1058D0005968144603C40833AB422246F7D11988ED
:1058E0009B782180A3702D2200210DF14300874F6A
:1058F00003F049FD02233B70854B1B6893F8305041
:1059000093F8313003F01F0343EA45152F2D05DDD1
:10591000804A00210A2000F06DFE01E01F2D03DD0A
:1059200005F01F057C4B01E04FF0A043012404FA71
:1059300005F5C3F808552146072002F07BFC00213D
:10594000042002F077FC0021132002F073FC0021F8
:10595000122002F06FFC0021112002F06BFC2146A6
:105960000E2002F067FC21460E2002F074FC214656
:10597000032002F05FFC2146022002F05BFC21467E
:10598000032002F068FC0021022002F064FC04A85D
:1059900000F0E2FE002500237D221CA904A802F0ED
:1059A0008CF82B462A465D49019500951CA800F00D
:1059B000E3FE5B495B48FFF775FF5B495B48FFF718
:1059C00075FF5B495B48FFF76DFF5B495B48FFF77D
:1059D00069FF5B495B48FFF765FF5B495B48FFF781
:1059E00065FF5B495B48FFF761FF5B495B48FFF779
:1059F0005DFF5B495B48FFF755FF5B495B48FFF77D
:105A000051FF5B495B48FFF74DFF5B495B48FFF780
:105A100049FF5B495B48FFF749FF5B495B48FFF77C
:105A200045FF5B495B48FFF741FF5B495B48FFF778
:105A30003DFF5B495B48FFF73DFF5B495B48FFF774
:105A400039FF5B495B48FFF735FF5B495B48FFF770
:105A500031FF5B495B48FFF72DFF5B495B48FFF770
:105A600029FF5B495B48FFF725FF5B495B48FFF770
:105A700021FF5B495B48FFF71DFF5B495B48FFF770
:105A800019FF5B495B48FFF715FF5B495B48FFF770
:105A900011FF5B495B48FFF70DFF5B4801F0BEFE5D
:105AA00002F01CFC284600F045FC022818D1574C97
:105AB00002F014FC34222146012000F043FC02F0E5
:105AC0000DFC24222E49502000F03CFCA379002B31
:105AD00040F0A2806FF000414D48FEF76BFC9BE068
:105AE00002F0FCFB04224B49284600F033FC02F094
:105AF000F5FB2046042208A90134089500F02AFC91
:105B0000F02CF4D1D3E700BF24B80D00E3E103206B
:105B100048E20320F5620D0000030050F1490D003A
:105B200064E2032027BD0D0014E303202EBD0D0009
:105B300052BF0D0039BD0D00E4E2032041BD0D0050
:105B4000D2E103204CBD0D001CE303203ABE0D0042
:105B500020E303204DBE0D0024E303205EBE0D00B4
:105B600058E203205BBD0D00B0E103206DBD0D00C8
:105B7000D4E2032079BD0D00ECE2032082BD0D00CC
:105B8000B0E203208DBD0D00B4E203209BBD0D00EB
:105B9000B8E20320A9BD0D002CE30320B2BD0D0027
:105BA0000D410D00BEBD0D00894F0D00CABD0D0099
:105BB0000D4F0D00D7BD0D0055500D00A3BB0D00BE
:105BC0008D4A0D00E4BD0D00314B0D00F3BD0D00FD
:105BD000AD4B0D0005BE0D0051510D0014BE0D0062
:105BE000394C0D0024BE0D00C14C0D0037BE0D0018
:105BF000514D0D004ABE0D00E14D0D005BBE0D0084
:105C0000714E0D006EBE0D00ACE20320FCE20320DD
:105C1000E4E1032064B80D00237B53B144215848CC
:105C200000F01CFA28B9574B57491873304603F057
:105C3000E5FB237C33B1554800F07FF92021534820
:105C400000F0B7F90022114608A8089200F042FBC4
:105C5000089B142B02BFA3690133A361A369052B21
:105C600004DD484B04229A61FEF7F0FC637C53B1DB
:105C7000444BD86A02F096FE454ACDE9000108215E
:105C8000444800F011FE06236361637C63B1424B1C
:105C9000DB684BB1414908A801F0D0FE08A8FFF726
:105CA000D9F908A801F083FE01236371FEF766FCB1
:105CB000042002F0E9FA48B9384908A801F0BEFE0C
:105CC00008A8FFF761F908A801F071FEFEF732FDA0
:105CD000334BA2681B689A4202DC08233B700CE03D
:105CE000FEF7BAFB48B901233B7000F00BFB2D4BCC
:105CF0002D491860304603F081FB00F025FD08B106
:105D00002379BBB902F09AF9314601F005FEB0EEF5
:105D1000000A02F02FF8FEF78DFC00F015FD08B127
:105D20002379ABB9214B012204A81A7001F03FFE80
:105D30003DB0F0BD1E4B1F491B7800228DF800209E
:105D400008A83246FEF714FA09A8FEF7C5FDD9E700
:105D500002F06FF8014608A802F028F8144B164923
:105D60001B7800228DF8002002A8089AFEF700FA9E
:105D700003A8FEF7B1FD08A801F019FED2E700BFA5
:105D80004CE20320FCE2032080BE0D00C8E10320AA
:105D900044BB0D0058E20320B0E2032001BA0D001D
:105DA000B8E00320A8E20320B4BE0D00E2E1032026
:105DB000C4E10320C6BE0D00CEBE0D002DE9F043A8
:105DC000444B454E454FDFF8589100241C60444B2E
:105DD00085B001251D7000F0D5FA424B186002F025
:105DE000DBF92346224642F6D51102F0DDF902F036
:105DF000D3F922462346242102F0DEF94FF6FF7341
:105E000073813460B480B4713481022000F014FCDA
:105E10003A463549304602F0F5FA344E21462846D6
:105E200000F022FC2946042000F044FA4FF010084C
:105E3000301D42462146306003F0A5FA02233A465F
:105E40002B49F38030463575A6F8048002F0DAFA63
:105E50002848294EDFF8CC8000F0DDF802F086FA01
:105E600023210246254800F063F82146304601F020
:105E70006AFC3A462249234C304602F0C3FA224BD0
:105E800000936A462B462149214E02944846CDF89C
:105E90000C80FEF705FA6846FEF77FF93A46314670
:105EA000484602F0AFFA02941A4C1B4B00936A4624
:105EB0002B461A49CDF80C802046FEF7F1F96846CA
:105EC000FEF76BF93A463146204602F09BFA05B0E0
:105ED000BDE8F08338E203203CE20320ACE103207C
:105EE000C4E1032048E203208B410D0020E203209F
:105EF000F5400D004CE20320ACE20320C8E1032092
:105F000065770D00DD400D00B9400D00804F120097
:105F100059430D00E4E10320C5400D0040771B000C
:105F200000E20320D9400D000368C9B29B681847FE
:105F30004260112241700270704710B504464068FB
:105F400001F007FA10B9606801F0BEF9012010BD38
:105F500070B505464178406801F0EDF90222697894
:105F6000686801F0E5F9686803685B699847064668
:105F7000686803685B699847044644EA06246868D1
:105F8000A4B201F0E3F907EE904AB8EE670ADFED3C
:105F9000027A80EE270A70BD9A99993F0378232BE5
:105FA00004D0132B0CBF1820B42000E0182000F000
:105FB0009FBC38B504460D464178406801F0BBF9F6
:105FC0006068036829469B689847606801F0BEF9DD
:105FD00025702046BDE83840FFF7E0BF10B50378D4
:105FE000A3F12002012A044601D9232B10D16178A4
:105FF000606801F0A0F96068217803689B689847A1
:10600000606801F0A3F92046BDE81040FFF7C6BF65
:1060100010BD00F0B7B9704738B505460C4602F020
:10602000A5F9297801F087F902F0A0F9210AFFF714
:106030007BFF02F09BF9E1B2FFF776FF02F096F9E1
:10604000BDE8384001F082B908B543F2A201FFF77C
:10605000E3FF0A20BDE8084000F04ABC38B504461A
:106060000D4602F083F901F02FF920462570FFF765
:10607000EBFF012038BD0A44FF2091420ED011F8F9
:10608000013B5840082310F0800F4FEA400018BF32
:1060900080F03100013BC0B2F5D1EEE7704700005F
:1060A00073B54FF410510446FFF7B6FF4FF4FA7082
:1060B00000F01EFC02F05AF90622217801F038F9AE
:1060C00002F054F903681B69984706284AD1002555
:1060D00002F04CF903685B6998470DF8050001353B
:1060E000062DF5D1022269462046FFF7C4FF9DF830
:1060F0000250854236D102220DF103012046FFF7FE
:10610000BAFF9DF8055085422CD1BDF800009DF8DE
:1061100003609DF8045040BA80B202F021FC18A33D
:10612000D3E9002302F092FC11A3D3E9002302F08B
:10613000B7FD0022104B02F0D5FA02F07FFFA060FD
:1061400045EA062002F00CFC00220C4B02F07EFC1B
:1061500007A3D3E9002302F0A3FD02F06FFF606004
:10616000012000E0002002B070BD00BFAFF300804E
:1061700000000000E0FFEF40008046400000594072
:106180000000000000E0654010B50446FFF788FFFE
:1061900010B194ED020A10BD9FED010A10BD00BFC1
:1061A0000000C07F10B50446FFF77AFF10B194EDF0
:1061B000010A10BD9FED010A10BD00BF0000C07FA5
:1061C00000F0E0B808B5024B1B685B6C019308BD9A
:1061D0007402030008B5024B1B689B6C019308BD59
:1061E0007402030008B5024B1B689B68019308BD4D
:1061F0004802030008B5024B1B68DB68019308BD29
:106200004802030008B5024B1B681B69019308BDD7
:106210004802030008B5024B1B685B69019308BD87
:106220004802030008B5024B1B68DB69019308BDF7
:106230004802030008B5024B1B681B6A019308BDA6
:106240004802030008B5024B1B685B6A019308BD56
:106250004802030008B5024B1B689B6A019308BD06
:106260004802030008B5024B1B68DB6A019308BDB6
:106270004802030008B5024B1B685B6C019308BD24
:106280004802030008B5024B1B689B6C019308BDD4
:106290004802030008B5024B1B689B6D019308BDC3
:1062A0004802030008B5024B1B681B6F019308BD31
:1062B0004802030008B5024B1B685B6E019308BDE2
:1062C0003402030008B5024B1B689B6E019308BDA6
:1062D0003402030008B5024B1B68DB6E019308BD56
:1062E0003402030008B5024B1B685B68019308BDCC
:1062F0001802030008B5024B1B68DB68019308BD58
:106300001802030008B5024B1B685B69019308BDC6
:106310001802030008B5024B1B68DB69019308BD36
:106320001802030008B5024B1B689B6A019308BD65
:106330001802030008B5024B1B68DB6A019308BD15
:106340001802030008B5024B1B685B6C019308BD83
:106350001802030008B5024B1B689B6C019308BD33
:106360001802030008B5024B1B689B6D019308BD22
:106370001802030008B5024B1B68DB6D019308BDD2
:106380001802030008B5024B1B681B68019308BD87
:106390002C02030008B5024B1B685B68019308BD23
:1063A0002C02030008B5024B1B689B68019308BDD3
:1063B0002C02030008B5024B1B68DB68019308BD83
:1063C0002C02030008B5024B1B681B69019308BD32
:1063D0002C02030008B5024B1B685B69019308BDE2
:1063E0002C02030008B5024B1B681B6B019308BD10
:1063F0002C02030008B5024B1B68DB68019308BD43
:106400002802030008B5024B1B689B69019308BD75
:106410002802030008B5024B1B68DB69019308BD25
:106420002802030008B5024B1B681B6A019308BDD4
:106430002802030008B5024B1B685B6A019308BD84
:106440002802030008B5024B1B689B6A019308BD34
:106450002802030008B5024B1B68DB6A019308BDE4
:106460002802030008B5024B1B681B6B019308BD93
:106470002802030008B5024B1B685B6B019308BD43
:106480002802030008B5024B1B681B6C019308BD72
:106490002802030008B5024B1B689B6C019308BDE2
:1064A0002802030008B5024B1B68DB6C019308BD92
:1064B0002802030008B5024B1B681B6D019308BD41
:1064C0002802030008B5024B1B685B69019308BDF5
:1064D0006402030008B5024B1B689B68019308BD6A
:1064E0006802030008B5024B1B68DB68019308BD16
:1064F0006802030008B5024B1B68DB69019308BD05
:106500003002030008B5024B1B681B6A019308BDEB
:106510003002030008B5024B1B681B68019308BDDD
:106520003C02030008B5024B1B68DB68019308BD01
:106530003C02030008B5024B1B681B69019308BDB0
:106540003C02030008B5024B1B685B69019308BD60
:106550003C02030008B5024B1B689B69019308BD10
:106560003C02030008B5024B1B68DB69019308BDC0
:106570003C02030008B5024B1B681B6A019308BD6F
:106580003C02030008B5024B1B689B6A019308BDDF
:106590003C02030008B5024B1B681B68019308BD51
:1065A0004C02030008B5024B1B681B69019308BD30
:1065B0004C02030008B5024B1B685B69019308BDE0
:1065C0004C02030008B5024B1B689B69019308BD90
:1065D0004C02030008B5024B1B68DB69019308BD40
:1065E0004C02030008B5024B1B681B6A019308BDEF
:1065F0004C02030008B5024B1B685B6B019308BD9E
:106600006002030008B5024B1B681B6D019308BDB7
:106610006002030008B5034B1B68D3F89830019360
:1066200008BD00006002030008B5024B1B681B6830
:10663000019308BD2002030008B5024B1B685B688C
:10664000019308BD2002030008B5024B1B685B697B
:10665000019308BD2002030008B5024B1B689B692B
:10666000019308BD2002030008B5024B1B68DB6ADA
:10667000019308BD2002030008B5024B1B68DB6CC8
:10668000019308BD2002030008B5024B1B685B6D37
:10669000019308BD2002030008B5024B1B689B6DE7
:1066A000019308BD2002030008B5034B1B68D3F813
:1066B0008830019308BD00002002030008B5034B99
:1066C0001B68D3F89430019308BD0000200203003A
:1066D00008B5034B1B68D3F8A830019308BD000030
:1066E0002002030008B5034B1B68D3F8AC300193BC
:1066F00008BD00002002030008B5024B1B681B68A0
:10670000019308BD4402030008B5024B1B685B6897
:10671000019308BD4402030008B5024B1B689B6847
:10672000019308BD4402030008B5024B1B68DB68F7
:10673000019308BD4402030008B5024B1B681B69A6
:10674000019308BD4402030008B5024B1B685B6956
:10675000019308BD4402030008B5024B1B68DB69C6
:10676000019308BD4402030008B5024B1B681B6A75
:10677000019308BD4402030008B5024B1B685B6A25
:10678000019308BD4402030008B5024B1B68DB6A95
:10679000019308BD4402030008B5024B1B681B6B44
:1067A000019308BD4402030008B5024B1B68DB6B74
:1067B000019308BD4402030008B5024B1B685B68E7
:1067C000019308BD4002030008B5024B1B689B689B
:1067D000019308BD4002030008B5024B1B68DB684B
:1067E000019308BD4002030008B5024B1B681B69FA
:1067F000019308BD4002030008B5024B1B685B69AA
:10680000019308BD4002030008B5024B1B689B6959
:10681000019308BD4002030008B5024B1B68DB6909
:10682000019308BD4002030008B5024B1B681B6AB8
:10683000019308BD4002030008B5024B1B681B6BA7
:10684000019308BD4002030008B5024B1B685B6B57
:10685000019308BD4002030008B5024B1B681B688A
:10686000019308BD1C02030008B5024B1B685B685E
:10687000019308BD1C02030008B5024B1B689B680E
:10688000019308BD1C02030008B5024B1B681B697D
:10689000019308BD1C02030008B5024B1B689B69ED
:1068A000019308BD1C02030008B5024B1B68DB699D
:1068B000019308BD1C02030008B5024B1B68DB6A8C
:1068C000019308BD1C02030008B5024B1B681B6B3B
:1068D000019308BD1C0203008A4230B507D0039D16
:1068E000441AED1A6C43521A94FBF2F4E01830BDCE
:1068F0000021FFF7A9BE10B5836804460BB901F06B
:10690000A2FDC3689847A3681BB103222146204615
:10691000984720461021BDE8104001F078BD10B521
:106920000446006808B1FFF7ADFC204610BD0B68B7
:10693000036013B15A6801325A60704710B5064CB3
:10694000002320462360FFF795FC2046034A0449B4
:10695000BDE8104001F056BD30E30320ACE1032058
:106960001F690D00002211464068FFF73DBF00225D
:1069700011464068FFF758BF002211464068FFF7F4
:1069800063BF00224068FFF757BF002281F001017A
:106990004068FFF741BF00231A4619464068FFF7D9
:1069A00033BF00231A4619464068FFF725BF00226F
:1069B00011464068FFF708BF002202214068FFF738
:1069C0000BBF00231A464068FFF7F6BEF0B51B4B1D
:1069D000036000250F462833182689B04360856080
:1069E000C560324629460446103002F0CCFC2A46E7
:1069F00029467868FFF7F8FE08B9A0601BE0294631
:106A0000324602A80095019502F0BDFC02A9684635
:106A1000ADF80860FFF7D6FB10B10123A3600AE0D0
:106A2000009B019AA360E2600BB90223A36002A954
:106A3000204600F089F8204609B0F0BD94BF0D0053
:106A400038B5084C28252A460021204602F09BFC38
:106A50004FF0FF336360044B258004225A60034AE1
:106A60001A6038BD3CE3032034E3032060BF0D000F
:106A70007047007D70470000037D1BB18369B3F14F
:106A8000004F02D19FED050A704707EE903A9FED47
:106A9000047AF8EEE77A87EE870A70470000000074
:106AA0000000C842037D1BB1036AB3F1004F02D15D
:106AB0009FED050A704707EE903A9FED047AF8EED5
:106AC000E77A87EE870A7047000000000000C8429E
:106AD00010B52821044601F09AFC204610BD0000A4
:106AE000037D7BB1436A002B0CDB07EE903ADFEDB0
:106AF000076A9FED070AB8EEE77AC7EE267A27EE17
:106B0000800A7047BFEE000A704700BF00FF7F4752
:106B10000000C842037D7BB1C369002B0CDB07EE8C
:106B2000903ADFED076A9FED070AB8EEE77AC7EE05
:106B3000267A27EE800A7047BFEE000A704700BF32
:106B400000FF7F470000C84230B50D4600F1100439
:106B50000FCD0FC495E8030084E80300012030BD89
:106B60002DE9F04107460C4615462AB90368C9B21B
:106B70009B68BDE8F0411847002907DA0A2A05D1C9
:106B80002D2100F0BAFE6142064601E021460026B2
:106B9000EAB2384600F0CAFE3044BDE8F08170B574
:106BA0000D4606460A2281682846FFF7D9FF2C21A8
:106BB0000446284600F0A1FE0A220444F168284653
:106BC000FFF7CEFF204470BDA0F10400FFF7E7BF40
:106BD00070470020704710B51021044601F017FCE3
:106BE000204610BD08B508B1FFF7F5FF08BD00222B
:106BF000026010B54FF69C728280B1F90440848027
:106C00008A8002680C6804600A6010BD10B50446F2
:106C10000068FFF729FE204610BD38B5C468F4B1FE
:106C20002378022B03D104F10C00FFF7EFFF656816
:106C300035B12846FDF7B1FA1021284601F0E7FBEF
:106C4000A56835B12846FDF7A8FA1021284601F0BD
:106C5000DEFB20461421BDE8384001F0D8BB38BD2A
:106C600010B588B00446684600F0E8FE694604A8FE
:106C700000F006FF04A8A047044604A800F097FE11
:106C8000684600F094FE204608B010BDF0B5102410
:106C900085B007460E46154600212246684602F09A
:106CA00072FB002269461046ADF800400297039639
:106CB0000195FFF729FD05B0F0BD13B5044691E835
:106CC000050000234B600B602060626001A8019307
:106CD0000093FDF701FE204602B010BDF7B50C464B
:106CE00002AD54F8043B45F8083D06460F4601A89E
:106CF0002146FFF71CFE29463046FFF7DEFF01A8BC
:106D0000FDF7EAFD2046FDF7E7FD3846082101F0D2
:106D10007EFB304603B0F0BD13B50B46044603C8F6
:106D20008DE8030093E8030084E803009DE8030076
:106D300083E8030002B010BD38B5002304460360A9
:106D400010200D46FDF7A9F928B1012343608360A7
:106D5000024B0360C5602060204638BDC8BF0D00EF
:106D6000826810B50AB901F06EFBC368BDE8104037
:106D7000184708B5006800F11001FFF7F1FF08BDE2
:106D8000826810B50AB901F05EFBC368BDE8104027
:106D9000184708B5006800F11001FFF7F1FF08BDC2
:106DA00038B5002383608B6804460D462BB1022260
:106DB0009847EB68E360AB68A360204638BD0000ED
:106DC000F0B589B004686846FFF711FF00238DF81D
:106DD00008304FF00202D4E84F3F002B03D1C4E843
:106DE000412F0029F7D102D08DF8083063E014F16B
:106DF0000C0503D069462846FFF7F9FEBFF35F8F05
:106E000001236370002004F10803BFF35F8F53E890
:106E1000006F43E80002002AF9D1BFF35F8F002E14
:106E200049D0FFF729FC20B129463046FFF798FFEB
:106E30003AE0314602A8FFF7B3FFE068B4F910501A
:106E400008B102F0E3FA06901020ADF81C50FDF7EF
:106E500024F90546E8B1002787601820FDF71DF9E1
:106E6000044688B10146876002A8FFF755FF049BDE
:106E7000A268A360059B049206A9E268E36004F19E
:106E800010000592FFF7B3FE0D4BEB600D4B2C602D
:106E9000AB6006A8FFF7BAFE02A8FDF77EF9002254
:106EA00029460948FFF7F0FB3046FDF776F9102137
:106EB000304601F0ACFA6846FFF7A8FE09B0F0BD15
:106EC000736D0D00E96F0D00F7680D002DE9F04FAF
:106ED0008BB006460F46904699469DF850A0FFF7A6
:106EE00033FC07AD834630BB4FF62E73059005A9E2
:106EF0002846ADF81830FFF77AFE1420FDF7CDF8DC
:106F0000044658B10223037001234370C0F804B053
:106F1000C0F808B029460C30FFF769FE304621461C
:106F200040F8044BFFF708FF2846FFF76FFE05A85F
:106F3000FFF76CFE52E000240C2314206C60AC6060
:106F40000793FDF7AAF8014618B104704470446035
:106F5000846004A80391FFF7EFFE224B08930820FA
:106F6000FDF79BF8044628B1039B40F8043B04A9B5
:106F7000FFF7DDFC00955FFA8AF34A464146384642
:106F80000994FFF7F1FB20B9039B5B7803F0FF0244
:106F900083B1039B059304A906A8FFF7C8FC05A9C4
:106FA0003046FFF78AFE06A8FDF796FC04A8FDF719
:106FB00093FC13E04FF69C7305A903A80592ADF866
:106FC0001830FFF7FDFE05A8FFF720FE05A8099978
:106FD000FFF784FE06A8FDF77FFCDAE730460BB02A
:106FE000BDE8F08F59710D00022AF8B5044606D0AD
:106FF000032A17D0012A22D10B6803601FE0182052
:107000000E68FDF74AF8054650B13146FFF7C8FE55
:107010003069B6F9147008B102F0F8F92861AF824E
:1070200025600CE0046854B104F11000FFF7EEFD98
:107030002046FDF7B2F81821204601F0E8F90020BB
:10704000F8BD38B5002383608B6804460D462BB12C
:1070500002229847EB68E360AB68A360204638BD26
:10706000022A70B5044606D0032A11D0012A18D18D
:107070000B68036015E014200E68FDF70EF8054656
:1070800020B13146FFF7DDFF337C2B74256008E02B
:10709000046834B12046FDF780F81421204601F041
:1070A000B6F9002070BD0000F0B5002387B00C4693
:1070B000BFF35F8F50E8006F40E80032002AF9D13B
:1070C000BFF35F8F002E3FD01846FFF7D5FA074673
:1070D00020B121463046FFF753FE2EE0314601A88D
:1070E000FFF7AFFF23788DF814301020FCF7D5FFA1
:1070F0000546D0B187601420FCF7CFFF044678B175
:107100008760014601A8FFF707FE039BA268A36002
:10711000049B0392E268E3609DF8143004922374A8
:107120000A4BEB600A4B2C60AB6001A8FDF735F809
:10713000002229460748FFF7A7FA3046FDF72DF849
:107140001021304601F063F907B0F0BD936D0D00DA
:1071500061700D00F7680D0030B585B004460D462E
:1071600068461146FFF7BAFD7CB124B228460DB13E
:1071700002F04CF9029002A96846ADF80C40FFF706
:107180001FFE02A8FFF742FD1DE000988DF80840A1
:107190004FF00102D0E84F3FA34203D1C0E8412F96
:1071A0000029F7D102D08DF808300CE010F10C0165
:1071B0004FF0010318BF0373BFF35F8F043000F873
:1071C000033CFFF771FF01A8FDF786FB05B030BD5A
:1071D000002211464068FFF727BB00221146406895
:1071E000FFF732BB00224068FFF726BB002281F088
:1071F00001014068FFF710BB00231A46194640689A
:10720000FFF702BB00231A4619464068FFF7F4BA9D
:10721000002211464068FFF7E7BA00221146406895
:10722000FFF7D2BA002202214068FFF7D5BA002347
:107230001A464068FFF7C0BA024B03225A60024A5E
:107240001A60704764E30320E4BF0D007047F8B58F
:10725000064615460C468F18BC4206D0336814F813
:10726000011B9B6830469847F6E72846F8BD002288
:10727000007CFFF7D7B80021007CFFF7DBB80021C6
:10728000007CFFF7DFB80021007CFFF7E3B80021A6
:10729000007CFFF7E7B810B51421044601F0B7F8F9
:1072A000204610BD10B50446002363604FF47A7386
:1072B000A360044B2174084623601146FFF7E2F8EF
:1072C000204610BD18C00D0000231A461946007C48
:1072D000FFF790B870B50C4686B0142506462A46CE
:1072E000002101A802F04FF823788DF80830636878
:1072F0000393E36804930022237A307CADF80450B2
:1073000001A90593FFF7D6F806B070BD1FB500338D
:107310008DF800104FF06401039118BF01236946F6
:1073200001928DF80830FFF7D5FF05B05DF804FB3A
:107330000123FFF7EBBF0022007CFFF763B8C9B25F
:10734000FFF7F9BF0022007CFFF764B80121FFF7C7
:10735000F9BF0021007CFFF78DB808B50021007C43
:10736000FFF798F8B0FA80F0400908BD08B5002191
:10737000007CFFF797F8B0FA80F0400908BD70472D
:1073800010B51821044601F042F8204610BDF0B5B2
:10739000037D062B8DB00E4600F104074FF000046C
:1073A00002D000F1080518E00CAD394605F8304D63
:1073B0002F232A460A20FFF785F8284602F041F8D5
:1073C00033680246DB682946304698470FE024B10F
:1073D0002E21304600F091FA044415F8011D0A22CE
:1073E000304600F0A3FABD420444F0D120460DB06F
:1073F000F0BD000010B5054B0446112240F8043BD7
:10740000002101F0C0FF204610BD00BF40C00D00AC
:107410000346074A10B543F8042B01F1100251F856
:10742000044B43F8044B9142F9D10A781A7010BD0D
:1074300040C00D0010B59DF8084044EA032343EA1C
:10744000024242EA016104234160037510BD37B571
:107450000D788B784A78C97800912946FFF7EAFFC2
:1074600003B030BD014B024A1A6070476CE3032041
:10747000BFC00D00002211464068FFF7D5B90022B9
:1074800011464068FFF7E0B900224068FFF7D4B921
:10749000002281F001014068FFF7BEB900231A46BF
:1074A00001214068FFF7B0B900231A461946406829
:1074B000FFF7A2B9002211464068FFF795B90022F4
:1074C00011464068FFF780B9002202214068FFF7AB
:1074D00083B900231A464068FFF76EB938B50546F0
:1074E00088B104684CB1A3681BB103222146204631
:1074F00098471021204600F08AFF28461421BDE855
:10750000384000F084BF38BD10B103685B6818478D
:10751000704710B503680446BBB15868FEF762FEB9
:1075200078B923685A7C12B95868FEF76BFE236855
:107530005868FEF76FFE20680023236028B1FFF72C
:10754000CDFF206808B1FFF7C9FF204610BD38B550
:107550000446D0F8C40108B1FCF7A3FDD4F8C0017B
:1075600008B1FEF78FFED4F8BC5135B12846FFF7BD
:10757000D0FF0421284600F04AFF206808B1FFF739
:10758000C3FF204638BD000010B5044B044640F848
:10759000083BFFF7DCFF204610BD00BF30C10D00E7
:1075A00038B50E4C0E4B23600025022304F5E47021
:1075B0006360A560C4F8C451C4F8C851FEF75AFE10
:1075C000084BC4F8CC5184F8D05123602046064AB9
:1075D0000649BDE8384000F015BF00BF70E3032046
:1075E00064C10D0030C10D00ACE1032089750D00B0
:1075F00000231A464068FFF7DFB8002202214068E6
:10760000FFF7EAB8002211464068FFF7DDB8002214
:1076100011464068FFF7E8B800231A46194640684B
:10762000FFF7EAB800231A4619464068FFF7ECB89E
:10763000002281F001014068FFF7EEB800224068A7
:10764000FFF7FAB8002211464068FFF7FDB80022A4
:1076500011464068FFF7E8B82DE9F043002495B0E3
:1076600016460D460746FFF7C5FE214620220CA808
:10767000009401F088FE40230C9321466B460CAA2F
:107680003046FEF72FFF0446002844D10246012170
:107690006868FFF7A9F80221804622466868FFF76C
:1076A000A3F8009E81462146002E34D0002932D115
:1076B0007368022B02D00A2B09D02AE0B8F1000F20
:1076C00027D0716938460431FFF7C1FE20E0B9F1D7
:1076D000000F1ED07469112201A801F054FE062388
:1076E0008DF8143001AD04F1080318341868596896
:1076F0002A4603C20833A3421546F7D101A906A8BA
:1077000007ADFFF785FE0FCD3C1D0FC42B6823701E
:107710000121F669C8E70098FEF7DCFE384615B08F
:10772000BDE8F083024B034A1A6000225A6070479A
:1077300044E5032064C10D0008B500F03DFEBDE83E
:107740000840FFF70ABE10B50446017009B1FFF703
:10775000F3FF204610BD08B500F02EFEBDE808403E
:10776000FFF704BE10B5037804460BB1FFF7F3FF33
:10777000204610BD10B504460068FFF7ECFF204618
:1077800010BD37B502AC0D4644F8040DFFF7D4FF29
:1077900000F012FE6B21FFF7D2FD00F00DFE036832
:1077A00029469B68984700F007FE0121FFF7CAFDB4
:1077B00000F002FE01231A466B21FFF7A7FD00F03F
:1077C000FBFD03685B69984705462046FFF7D2FF3B
:1077D000E8B203B030BD73B502AC15460E4644F8AE
:1077E000040DFFF7A9FF00F0E7FD6B21FFF7A7FDF0
:1077F00000F0E2FD036831469B68984700F0DCFD2D
:10780000036829469B68984700F0D6FD0121FFF7E1
:1078100099FD2046FFF7AEFF02B070BD37B502AC50
:10782000054644F8040DFFF787FF00212846FFF7BF
:10783000A8FF002100F07F022846FFF7CCFF20467A
:10784000FFF798FF012003B030BD37B502AC054605
:1078500044F8040DFFF770FF01212846FFF791FF60
:10786000012100F0CF022846FFF7B5FF2046FFF7C1
:1078700081FF012003B030BD37B502AC054644F8A6
:10788000040DFFF759FF01212846FFF77AFF00F0AA
:10789000CF0242F0100201212846FFF79CFF20464C
:1078A000FFF768FF012003B030BDFFF7E5BFF8B573
:1078B00006460D468F180024BD420CD0336815F8DB
:1078C000011B9B6830469847002801DB0444F3E71E
:1078D000002C08BF04462046F8BD70B505460C468E
:1078E000084649B101F0ADFD2B6802462146284605
:1078F000DB68BDE87040184770BD03689B68184797
:1079000038B50D210546FFF7F8FF0A210446284641
:10791000FFF7F3FF204438BD38B50546FFF7DDFF1C
:1079200004462846FFF7ECFF204438BD30B58BB045
:107930000B4600218DF82410012A98BF0A220DF170
:107940002304B3FBF2F505FB123303F0FF03092B0D
:1079500094BF30333733DBB2214604F801392B466C
:10796000002DEED1FFF7B9FF0BB030BD10B50446C6
:10797000FCF713FC204610BD0348044A04490023C9
:10798000836000F03FBD00BF4CE50320ACE1032065
:107990006D790D0010B5044601700846FEF7AAFD8A
:1079A00000236360204610BD0078FEF7ABBD10B524
:1079B00004460068FEF758FF204610BD10B5044687
:1079C000006808B1FEF750FF00232360A3606360E6
:1079D00010BD38B504460D4600680131FEF74CFF76
:1079E00010B184E82100012038BD10B503680446B9
:1079F00013B143688B4207D22046FFF7EAFF20B15C
:107A0000A3680BB922681370012010BD70B50E4633
:107A1000114604461546FFF7E8FF18B92046FFF760
:107A2000CDFF09E02A463146A560206801F0A0FCA0
:107A30002268A3680021D154204670BD38B50023C8
:107A4000044603604360836003730D4639B1084602
:107A500001F0F7FC294602462046FFF7D7FF2046F3
:107A600038BD884210B50B46044607D0096819B1E5
:107A70009A68FFF7CBFF01E0FFF7A0FF204610BD9B
:107A800010B5002304460360436083600373FFF76F
:107A9000E8FF204610BD08B582680B4612B919B937
:107AA000012008BD11B90368187802E0006801F0F0
:107AB0009BFCB0FA80F0400908BD70B50E469AB143
:107AC00091B185689D4202D800230B7070BD541E91
:107AD000ED1A0168AC4228BF2C46194422463046B4
:107AE00001F0CCFC0023335570BD10B5044600688E
:107AF00018B1FEF7B9FE0023236010BD38B5B1F907
:107B0000043083800B460D4653F8062FC0F806203C
:107B10009B8843810446FFF7E8FF2B6813B123607D
:107B200000232B60204638BDB1F9043010B50BB9E5
:107B30000A689AB10C685CB1A288012A03D0042AB1
:107B400006D1022205E0A4894C818A710B8105E0EF
:107B500004220B814FF6FF738A714B8151F8063F67
:107B600003608B88838010BD38B50C460546FFF74F
:107B7000BCFF44B12088FEF76FFE286028B1228840
:107B8000214601F0F5FB002038BD014838BD00BF9B
:107B9000FCFEFFFF014600228C20FEF793BB002075
:107BA000FFF7F8BFF0B5304D0B7D04468BB00846AB
:107BB000AF1D13B30B681B79FBB100224FF6FF73A7
:107BC00002A904300292ADF80C208DF80E20ADF819
:107BD0001020ADF81230FEF785FD0AAB00B253F865
:107BE0001A2DADF80C009B88A880C5F806200299D4
:107BF000BB802846FFF7B8FF1CE020230026029335
:107C00001A4B00931A4903963346322002AAFEF714
:107C1000F9FC4FF6FF73ADF8123002A94FF6F2638C
:107C2000114802968DF80E60ADF81060ADF80C307A
:107C3000FFF764FF02A8FFF758FF00232360A3802B
:107C4000A37123814FF6FF736381B5F90430A380DC
:107C50003B68C4F80630BB88638129682046FFF77B
:107C600083FF20460BB0F0BD5CE5032097C10D00FB
:107C700090C10D0030B5044685B0084611461A463D
:107C80000023FEF7E9FC0D4DADF80C00002301A91F
:107C90000193ADF808308DF80A3028464FF6FF738F
:107CA000ADF80E30FFF72AFF01A8FFF71EFF2046B0
:107CB0002946FFF739FF204605B030BD5CE50320BB
:107CC00010B5094C00204FF6FF732060A080A07112
:107CD00020816381FEF7B0FC2046044A0449BDE8D8
:107CE000104000F08FBB00BF5CE50320ACE1032037
:107CF0008B410D00F0B5144B144F1E68144B064415
:107D000018683B6806449E428BB01BD00AA801ADA0
:107D100040F8286D01F030FA436903F26C73436157
:107D200004460FCC0FC50FCC0FC5D4F800E0C5F842
:107D300000E001AD0FCD074C0FC40FCD0FC43E6066
:107D4000C4F800E00BB0F0BD98E5032094E50320F3
:107D500090E5032068E5032008B50020FEF71CFD30
:107D600028B1FEF7F1FC80F00100C0B208BD01208F
:107D700008BD0000FAEE087AB4EEE70AF1EE10FA58
:107D80000FD4F2EE0C7AB4EEE70AF1EE10FA08DC4A
:107D9000DFED047A044B20EE270ABDEEC00A83ED26
:107DA000000A70470000614598E5032037B50E4B87
:107DB0001B6819440D4B1B68044602A8194440F87F
:107DC000041D01F0D9F901F089F9054601F039FBEC
:107DD0002844002300F8013C29462046FFF72EFEE8
:107DE000204603B030BD00BF98E5032090E5032096
:107DF00010B50020FEF7B6FA044668B9FEF714FC89
:107E000001280BD12046FEF747FC38B9FFF7A4FF45
:107E100030B9FEF781FCF9E7012010BD002010BD4C
:107E2000FFF79AFF0020FEF79DFA003018BF0120EF
:107E300010BD08B5FFF7DCFFBDE80840FEF76ABAE1
:107E400008B5FFF7F6FFFFF755FF014B986808BD2F
:107E500068E5032008B5FFF7ECFFFFF74BFF014B88
:107E6000586808BD68E50320024B1A68024B1A6087
:107E7000704700BFBCE003208CE5032070474174CD
:107E8000704708B5007CFEF77DFB20EAE07008BD76
:107E900008B5007CFEF74EFB20EAE07008BD08B58F
:107EA000007CFEF757FB30EA200028BF4FF0FF3080
:107EB00008BD08B5007CFEF745FB30EA200028BF6E
:107EC0004FF0FF3008BD007CFEF74CBB10B514210D
:107ED000044600F09CFA204610BD70B5457C04466F
:107EE0000E4625B9007CFEF74DFB002805DD314626
:107EF000207CBDE87040FEF715BB284670BD000031
:107F000010B5044608461146002262604FF47A72AA
:107F1000A260054A22600122207462741A46FEF7AC
:107F2000F9FA204610BD00BFF0C10D00007CFEF73D
:107F300021BB000038B50C4D296811F0010411D1A6
:107F40002846FCF7B0F868B1084A094B09482146B1
:107F5000FFF7D6FF2846FCF7ABF8074A0749054864
:107F600000F050FA034838BD34E6032038E6032019
:107F7000B0E503209CE50320ACE103207D7E0D00ED
:107F800041747047704708B50021007CFEF71AFB6A
:107F900030EA200028BF4FF0FF3008BD08B50121AE
:107FA000007CFEF70FFB30EA200028BF4FF0FF30C7
:107FB00008BD08B5007CFEF7FDFA20EAE07008BDB8
:107FC00008B5007CFEF7EEFA20EAE07008BD007C00
:107FD000FEF708BB10B51421044600F018FA20463D
:107FE00010BD38B50446007C0D46FEF7E3FA0028C4
:107FF00001DC607C28B12946207CFEF7EBFA20EA00
:10800000E07038BD10B50446002363604FF47A7306
:10801000A360054B23600123084621746374114655
:10802000FEF7B8FA204610BD20C20D0010B514228C
:108030000446002101F0A7F9204610BD30B50E4DD1
:1080400087B001A8FFF7F2FF296811F0010410D1F1
:108050002846FCF728F860B101AA21460748FFF737
:10806000D1FF2846FCF724F8054A0649034800F0EA
:10807000C9F9024807B030BDBCE60320C0E60320C2
:10808000ACE10320857F0D0008B50C4B33B1FFF741
:10809000D5FF03681B699847002809DC084B63B1CA
:1080A000FFF748FF03681B699847002803DC08BDF9
:1080B000AFF30080F2E7AFF3008008BD00000000DE
:1080C0000000000008B5FFF7DFFFFEF71BF9014BCA
:1080D000186008BDE8E603200248034A0349121A63
:1080E00001F046B900F4032004F4032050C60D004B
:1080F00007B5002300931A466FF07701FEF7DEFA0A
:1081000003B05DF804FB000007B543880A2B08D0D4
:10811000502B09D1094B1B683BB103B05DF804EB50
:108120001847FFF7E5FF06E0002300931A466FF0BB
:108130007701FEF7C3FA03B05DF804FBD4E6032031
:1081400038B5104C104D2368AB42104B0CBF0122C8
:1081500000221A7002D0FFF7BFFF2560FEF7C2F8B9
:10816000044601F019F90A4B13B12046AFF3008021
:1081700000210748FEF718FB00210648BDE83840FB
:10818000FEF792BA00F403201E1C279AD8E60320BB
:108190000000000009810D0008B5024B1B681B6838
:1081A000019308BD5C02030008B5024B1B685B68C5
:1081B000019308BD5C02030008B5024B1B689B6875
:1081C000019308BD5C02030070B5184E316811F0D0
:1081D000010504460AD13046FBF765FF30B1294658
:1081E0001348FFF7D7FB3046FBF762FF1048FFF755
:1081F000DBFB28B1A4F10B03022B01D8002070BDDA
:1082000000F0B4F8FFF7A5F808B1012CF6D9FFF794
:1082100091FEFFF78BFE18B1A4F10903012BEDD9F4
:10822000232C8CBF0020012070BD00BFDCE60320A2
:10823000E0E60320232838B504460D460AD8FF2976
:1082400008D0FFF7C1FF28B129462046BDE83840D5
:10825000FEF7A8B838BD38B504460D46FEF7AAF8B3
:10826000FF2810D0062804D84D2323FA00F0C307B6
:1082700009D42046FFF7A8FF28B129462046BDE8CB
:108280003840FEF79FB838BD10B50446FEF792F8A7
:108290000438C0B2012808D92046FFF795FF20B165
:1082A0002046BDE81040FEF795B8002010BD0D280F
:1082B00010B504469CBF0E34A4B22046FFF784FFDD
:1082C00050B103212046FEF765F8032804D120466B
:1082D000BDE81040FEF786B8002010BD10B5074C71
:1082E0002368DB0708D42046FBF7DDFE20B1FEF74C
:1082F00019F82046FBF7DCFE014810BDECE6032030
:10830000F0E6032070B5044614252A46094E0021E4
:1083100001F039F8258020253146A56025612846E1
:1083200000F08FF831466060284600F08AF8E0607F
:10833000204670BD48C20D0070B5044614252A467B
:10834000094E002101F01FF8258020253146A56047
:108350002561284600F075F831466060284600F037
:1083600070F8E060204670BD48C20D0030B50E4D7B
:10837000296811F0010487B013D12846FBF793FE5A
:1083800078B101A8FFF7BEFF01AA21460748FEF712
:1083900089FF2846FBF78CFE054A0649034800F092
:1083A00031F8024807B030BDF4E603200CE70320A3
:1083B000ACE103204D720D0010B50E4C2368DB07B5
:1083C00086B013D42046FBF76EFE78B101A8FFF704
:1083D000B3FF01AA01210848FEF764FF2046FBF71E
:1083E00067FE064A0649044800F00CF8024806B049
:1083F00010BD00BF20E70320F8E60320ACE1032016
:108400004D720D000B460146184600F0A7BEFBF763
:1084100046BE0000024B1868BFF35F8F704700BF75
:1084200024E7032010B5002814BF04460124204689
:10843000FEF712FA20B9FFF7EDFF08B18047F6E723
:1084400010BDFFF7EFBF08B5FEF736FA244B1A68E8
:10845000D0075CBF01221A60224B1A68D1075CBFAB
:1084600001221A60204B1A68D2075CBF01221A60F1
:108470001E4B1A68D0075CBF01221A601C4B1A6899
:10848000D1075CBF01221A601A4B1A68D2075CBF81
:1084900001221A60184B1A68D0075CBF01221A60CB
:1084A000164B1A68D1075CBF01221A60144B1A6878
:1084B000D2075CBF01221A60124B1A68D0075CBF5A
:1084C00001221A60104B1A68D1075CBF01221A60A2
:1084D0000E4B1A68D2075CBF01221A60704700BFBA
:1084E00054E7032050E703204CE7032048E703202C
:1084F00044E7032040E703203CE7032038E703205C
:1085000034E7032030E703202CE7032028E703208B
:10851000184B1A68D1075CBF01221A60164B1A6803
:10852000D2075CBF01221A60144B1A68D0075CBFE7
:1085300001221A60124B1A68D1075CBF01221A602F
:10854000104B1A68D2075CBF01221A600E4B1A68E2
:10855000D0075CBF01221A600C4B1A68D1075CBFC0
:1085600001221A600A4B1A68D2075CBF01221A6006
:10857000704700BF74E7032070E703206CE7032017
:1085800068E7032064E7032060E703205CE703203B
:1085900058E70320184B1A68D1075CBF01221A6004
:1085A000164B1A68D2075CBF01221A60144B1A6876
:1085B000D0075CBF01221A60124B1A68D1075CBF5A
:1085C00001221A60104B1A68D2075CBF01221A60A0
:1085D0000E4B1A68D0075CBF01221A600C4B1A6858
:1085E000D1075CBF01221A600A4B1A68D2075CBF30
:1085F00001221A60704700BF94E7032090E7032030
:108600008CE7032088E7032084E7032080E703202A
:108610007CE7032078E70320244B1A68D0075CBF6F
:1086200001221A60224B1A68D1075CBF01221A602E
:10863000204B1A68D2075CBF01221A601E4B1A68D1
:10864000D0075CBF01221A601C4B1A68D1075CBFBF
:1086500001221A601A4B1A68D2075CBF01221A6005
:10866000184B1A68D0075CBF01221A60164B1A68B3
:10867000D1075CBF01221A60144B1A68D2075CBF95
:1086800001221A60124B1A68D0075CBF01221A60DF
:10869000104B1A68D1075CBF01221A600E4B1A6892
:1086A000D2075CBF01221A60704700BFC4E70320F5
:1086B000C0E70320BCE70320B8E70320B4E70320AA
:1086C000B0E70320ACE70320A8E70320A4E70320DA
:1086D000A0E703209CE7032098E7032081F00041F6
:1086E00002E000BF83F0004330B54FEA41044FEA97
:1086F000430594EA050F08BF90EA020F1FBF54EA32
:10870000000C55EA020C7FEA645C7FEA655C00F0CD
:10871000E2804FEA5454D4EB5555B8BF6D420CDD9E
:108720002C4480EA020281EA030382EA000083EA21
:10873000010180EA020281EA0303362D88BF30BDC1
:1087400011F0004F4FEA01314FF4801C4CEA113117
:1087500002D0404261EB410113F0004F4FEA033376
:108760004CEA133302D0524263EB430394EA050F01
:1087700000F0A780A4F10104D5F1200E0DDB02FA70
:108780000EFC22FA05F2801841F1000103FA0EF204
:10879000801843FA05F359410EE0A5F120050EF1CA
:1087A000200E012A03FA0EFC28BF4CF0020C43FAFB
:1087B00005F3C01851EBE37101F0004507D54FF008
:1087C000000EDCF1000C7EEB00006EEB0101B1F558
:1087D000801F1BD3B1F5001F0CD349085FEA30009E
:1087E0004FEA3C0C04F101044FEA445212F5800FA9
:1087F00080F09A80BCF1004F08BF5FEA500C50F146
:10880000000041EB045141EA050130BD5FEA4C0C28
:10881000404141EB010111F4801FA4F10104E9D1B1
:1088200091F0000F04BF01460020B1FA81F308BFA8
:108830002033A3F10B03B3F120020CDA0C3208DD74
:1088400002F1140CC2F10C0201FA0CF021FA02F14F
:108850000CE002F11402D8BFC2F1200C01FA02F1BF
:1088600020FA0CFCDCBF41EA0C019040E41AA2BFE4
:1088700001EB0451294330BD6FEA04041F3C1CDAAC
:108880000C340EDC04F11404C4F1200220FA04F0CC
:1088900001FA02F340EA030021FA04F345EA030176
:1088A00030BDC4F10C04C4F1200220FA02F001FA38
:1088B00004F340EA0300294630BD21FA04F02946BA
:1088C00030BD94F0000F83F4801306BF81F4801153
:1088D0000134013D4EE77FEA645C18BF7FEA655CC6
:1088E00029D094EA050F08BF90EA020F05D054EA98
:1088F000000C04BF1946104630BD91EA030F1EBF9D
:108900000021002030BD5FEA545C05D140004941A0
:1089100028BF41F0004130BD14F580043CBF01F593
:10892000801130BD01F0004545F0FE4141F4700179
:108930004FF0000030BD7FEA645C1ABF1946104654
:108940007FEA655C1CBF0B46024650EA013406BF55
:1089500052EA033591EA030F41F4002130BD00BF14
:1089600090F0000F04BF0021704730B54FF48064D1
:1089700004F132044FF000054FF0000150E700BF52
:1089800090F0000F04BF0021704730B54FF48064B1
:1089900004F1320410F0004548BF40424FF000019E
:1089A0003EE700BF42004FEAE2014FEA31014FEAE1
:1089B00002701FBF12F07F4393F07F4F81F0605130
:1089C000704792F0000F14BF93F07F4F704730B59F
:1089D0004FF4607401F0004521F0004120E700BF32
:1089E00050EA010208BF704730B54FF000050AE0B9
:1089F00050EA010208BF704730B511F0004502D5BA
:108A0000404261EB41014FF4806404F132045FEABB
:108A1000915C3FF4DCAE4FF003025FEADC0C18BF60
:108A200003325FEADC0C18BF033202EBDC02C2F156
:108A3000200300FA03FC20FA02F001FA03FE40EAE8
:108A40000E0021FA02F11444C1E600BF70B54FF0E8
:108A5000FF0C4CF4E06C1CEA11541DBF1CEA1355CA
:108A600094EA0C0F95EA0C0F00F0DEF82C4481EA32
:108A7000030621EA4C5123EA4C5350EA013518BF52
:108A800052EA033541F4801143F4801338D0A0FB3F
:108A900002CE4FF00005E1FB02E506F00042E0FBEC
:108AA00003E54FF00006E1FB03569CF0000F18BFF2
:108AB0004EF0010EA4F1FF04B6F5007F64F540749A
:108AC00004D25FEA4E0E6D4146EB060642EAC6212D
:108AD00041EA55514FEAC52040EA5E504FEACE2E9A
:108AE000B4F1FD0C88BFBCF5E06F1ED8BEF1004F9D
:108AF00008BF5FEA500E50F1000041EB045170BD19
:108B000006F0004646EA010140EA020081EA03015C
:108B1000B4EB5C04C2BFD4EB0C0541EA045170BD58
:108B200041F480114FF0000E013C00F3AB8014F1D2
:108B3000360FDEBF002001F0004170BDC4F100041B
:108B4000203C35DA0C341BDC04F11404C4F120059C
:108B500000FA05F320FA04F001FA05F240EA0200F7
:108B600001F0004221F0004110EBD37021FA04F62D
:108B700042EB06015EEA430E08BF20EAD37070BDE7
:108B8000C4F10C04C4F1200500FA04F320FA05F046
:108B900001FA04F240EA020001F0004110EBD37048
:108BA00041F100015EEA430E08BF20EAD37070BDB8
:108BB000C4F1200500FA05F24EEA020E20FA04F391
:108BC00001FA05F243EA020321FA04F001F0004140
:108BD00021FA04F220EA020000EBD3705EEA430EB1
:108BE00008BF20EAD37070BD94F0000F0FD101F0E0
:108BF0000046400041EB010111F4801F08BF013C19
:108C0000F7D041EA060195F0000F18BF704703F056
:108C10000046520043EB030313F4801F08BF013DDD
:108C2000F7D043EA0603704794EA0C0F0CEA135599
:108C300018BF95EA0C0F0CD050EA410618BF52EA53
:108C40004306D1D181EA030101F000414FF0000059
:108C500070BD50EA410606BF1046194652EA430667
:108C600019D094EA0C0F02D150EA013613D195EADB
:108C70000C0F05D152EA03361CBF104619460AD123
:108C800081EA030101F0004141F0FE4141F470012D
:108C90004FF0000070BD41F0FE4141F4780170BD1D
:108CA00070B54FF0FF0C4CF4E06C1CEA11541DBF82
:108CB0001CEA135594EA0C0F95EA0C0F00F0A7F884
:108CC000A4EB050481EA030E52EA03354FEA0131B1
:108CD00000F088804FEA03334FF0805545EA1313C4
:108CE00043EA12634FEA022245EA111545EA10658C
:108CF0004FEA00260EF000419D4208BF964244F123
:108D0000FD0404F5407402D25B084FEA3202B61A41
:108D100065EB03055B084FEA32024FF480104FF415
:108D2000002CB6EB020E75EB030E22BFB61A754689
:108D300040EA0C005B084FEA3202B6EB020E75EB1C
:108D4000030E22BFB61A754640EA5C005B084FEA84
:108D50003202B6EB020E75EB030E22BFB61A754651
:108D600040EA9C005B084FEA3202B6EB020E75EB5C
:108D7000030E22BFB61A754640EADC0055EA060E1D
:108D800018D04FEA051545EA16754FEA06164FEA60
:108D9000C30343EA52734FEAC2025FEA1C1CC0D10C
:108DA00011F4801F0BD141EA00014FF000004FF099
:108DB000004CB6E711F4801F04BF01430020B4F15A
:108DC000FD0C88BFBCF5E06F3FF6AFAEB5EB030C12
:108DD00004BFB6EB020C5FEA500C50F1000041EB0F
:108DE000045170BD0EF0004E4EEA113114EB5C04DC
:108DF000C2BFD4EB0C0541EA045170BD41F48011AF
:108E00004FF0000E013C90E645EA060E8DE60CEAB6
:108E1000135594EA0C0F08BF95EA0C0F3FF43BAFD3
:108E200094EA0C0F0AD150EA01347FF434AF95EA8A
:108E30000C0F7FF425AF104619462CE795EA0C0F6E
:108E400006D152EA03353FF4FDAE1046194622E73B
:108E500050EA410618BF52EA43067FF4C5AE50EA15
:108E600041047FF40DAF52EA43057FF4EBAE12E705
:108E70004FF0FF3C06E000BF4FF0010C02E000BFE6
:108E80004FF0010C4DF804CD4FEA410C7FEA6C5CC9
:108E90004FEA430C18BF7FEA6C5C1BD001B050EA6C
:108EA000410C0CBF52EA430C91EA030F02BF90EA57
:108EB000020F0020704710F1000F91EA030F58BF16
:108EC000994208BF90422CBFD8176FEAE37040F078
:108ED000010070474FEA410C7FEA6C5C02D150EA16
:108EE000013C07D14FEA430C7FEA6C5CD6D152EAD1
:108EF000033CD3D05DF8040B704700BF8446104696
:108F000062468C461946634600E000BF01B5FFF794
:108F1000B7FF002848BF10F1000F01BD4DF808ED64
:108F2000FFF7F4FF0CBF012000205DF808FB00BF35
:108F30004DF808EDFFF7EAFF34BF012000205DF88F
:108F400008FB00BF4DF808EDFFF7E0FF94BF0120DC
:108F500000205DF808FB00BF4DF808EDFFF7CEFFDD
:108F600094BF012000205DF808FB00BF4DF808ED1C
:108F7000FFF7C4FF34BF012000205DF808FB00BFED
:108F80004FEA410C7FEA6C5C02D150EA013C0AD105
:108F90004FEA430C7FEA6C5C02D152EA033C02D1F7
:108FA0004FF0000070474FF0010070474FEA410258
:108FB00012F5001215D211D56FF47873B3EB62522B
:108FC00012D94FEAC12343F0004343EA505311F052
:108FD000004F23FA02F018BF404270474FF00000E4
:108FE000704750EA013005D111F0004008BF6FF022
:108FF000004070474FF00000704700BF4A0011D298
:1090000012F5001211D20DD56FF47873B3EB6252E2
:109010000ED44FEAC12343F0004343EA505323FAEE
:1090200002F070474FF00000704750EA013002D163
:109030004FF0FF3070474FF0000070474FEA410299
:10904000B2F1E04324BFB3F5001CDCF1FE5C0DD9A6
:1090500001F0004C4FEAC0024CEA5070B2F1004FF0
:1090600040EB830008BF20F00100704711F0804FF3
:1090700021D113F13872BCBF01F00040704741F4B8
:1090800080114FEA5252C2F11802C2F1200C10FABC
:109090000CF320FA02F018BF40F001004FEAC123A0
:1090A0004FEAD32303FA0CFC40EA0C0023FA02F344
:1090B0004FEA4303CCE77FEA625307D150EA01331A
:1090C0001EBF4FF0FE4040F44000704701F00040EA
:1090D00040F0FE4040F40000704700BF094B70B5FF
:1090E0001C68256C06463DB91A20FDF7B5FB1A220F
:1090F0002064294600F047F9216C3046BDE87040F5
:1091000000F002B824E1032010B50C464169036960
:10911000826986B001F26C71049101680391416823
:10912000029181680191C1680091074903EB4303F3
:109130000B44064902EB42020A4420460449FDF76B
:10914000A3FB204606B010BD5EC20D0049C20D0053
:1091500082C20D000A22002101F068B810B5054C4A
:1091600013462CB10A4601460220AFF3008010BD21
:10917000204610BD0000000038B5074B1C68E36BAB
:1091800005461BB92420FDF767FBE063E16B284629
:10919000BDE8384000F002B824E103202DE9F04199
:1091A0000C46804601F066FE21460746404601F027
:1091B00065FE466906F26C76B307044605D1642263
:1091C00096FBF2F302FB13634BB94FF4C87596FBA1
:1091D000F5F305FB1365B5FA85F35B0900E00123A0
:1091E0005F4A302505FB032501F05AF901F05AF9D1
:1091F0005C4B1B68F3B17B689E4205D13968D8F897
:109200000030FA6941B90AE0304601F0A1F80028BF
:10921000F4D14FF0FF330DE0934208DB01E09342BD
:1092200007DABA6B9342ACBF0023012302E00023AC
:1092300000E001232362236A012B0CBFF96B396A1A
:109240004FF461633C2091FBF3F603FB1613616856
:1092500093FBF0F200FB12302368891AA268616068
:109260001B1A921B3B2B2360A26003DD013161605E
:109270003C3B04E0002B03DA013961603C3323609E
:1092800063683B2B03DD0132A2603C3B04E0002B12
:1092900003DA013AA2603C336360A368172B22DD36
:1092A000E2690132E261A2690132062AC8BF0022E6
:1092B000A261E268183B0132A3602369E26055F8BD
:1092C00023108A4246DD01330C2B0CBF63692361F6
:1092D000A2EB0102E26001BF01330022226163615F
:1092E00008BFE26136E0002B34DAE269013AE2615C
:1092F000A269013A48BF0622A261E2681833013A26
:10930000E260A36032BB2369013B01D423611DE00D
:109310000B23236163695A1E12F0030F626103F28B
:109320006B7305D1642193FBF1F201FB12324AB950
:109330004FF4C87193FBF1F201FB1233B3FA83F3DC
:109340005B0900E0012303F5B673E361236955F877
:109350002330E36001F0A5F82046BDE8F08100BFAE
:109360000CC40D00E4E703200048704728E1032007
:1093700010B5431E0A44914204D011F8014B03F882
:10938000014FF8E710BD02440346934202D003F8B0
:10939000011BFAE77047000038B5124B1C68A36B3D
:1093A0000546D3B91820FDF757FA43F20E33A063F0
:1093B00003804AF6CD33438041F2342383804EF25A
:1093C0006D63C3804DF6EC630381052343810B235A
:1093D000838101220023C0E90423A36B00221D61C5
:1093E0005A6138BD24E1032010F8012B11F8013B2C
:1093F000012A28BF9A42F7D0D01A7047034611F8C5
:10940000012B03F8012B002AF9D17047024B0146CA
:10941000186800F003B800BF24E1032070B50646C9
:1094200008460C4600F00DF8451C29463046FDF76D
:109430004BFA064618B12A462146FFF799FF3046F7
:1094400070BD034613F8012B002AFBD1181A01380E
:10945000704730B582B1451E013915F8013F11F84A
:10946000014FA34206D1EC431444E04201D0002B4B
:10947000F3D11C46181B30BD104630BD10B5034655
:1094800042B111F8014B03F8014B013A002CF7D11E
:109490001A4400E010BD934202D003F8014BFAE7F2
:1094A00010BD70B504460D4645EC104B164602F053
:1094B00043F851EC100B7EB1C5F30A53C3F16B03B3
:1094C000002B09DD1B0503F17F55002405F5401530
:1094D00022462B46FFF7BAFA70BD000000000000DC
:1094E0002DE9F04F9DB0002302900C461392189383
:1094F0004FF0000A4FF0000B1791179B1A780D2AB6
:1095000005D8092A13D2002A00F0AC8112E02B2AD8
:1095100004D02D2A04D0202A0CD108E0002200E03B
:1095200001220C925A1C17925B782BB99AE10133F5
:109530001793E2E700230C93179D2B78302B5CD117
:109540006B78582B01D0782B4CD10C9B019318AB26
:109550000093A94A029819AB17A901F074F910F009
:109560000706044600F08785062E05D10135002345
:1095700017950C9300F07FBD189A3AB135211AA8BF
:1095800002F0C7F81899029801F045FD062E22D87E
:10959000DFE806F0040D08181D0D04004FF0000B65
:1095A000DA4618E0DDF868A0DDF86CB013E01B9B2C
:1095B000199ADDF868A023F4801302F2334243EADB
:1095C000025B08E0DFF834B24FF0000A03E06FF00E
:1095D000004B4FF0FF3A210740F14D854BF0004B17
:1095E00000F049BD179B5A1C17925B78302BF9D0BD
:1095F000002B00F04085012300E000234FF000081D
:109600000693179B0793CDF81480CDF810800A229B
:10961000179D2E78A6F13003D9B209290ED80499E6
:109620000829DDBF059902FB0133059302FB0838C9
:10963000049B0135013304931795E9E70298FFF77E
:1096400093FE07680298FFF78FFE0068FFF7F9FEA8
:10965000394602462846FFF7FCFE074628B100209F
:109660003346049D0246014657E00298FFF77CFE10
:109670000068FFF7E6FE179B1A181792049A1B5C06
:10968000002A42D11046302B05D1179B5A1C179245
:1096900001305B78F7E7A3F13102082A43D8179A23
:1096A0000792024600200546303B00F1010126D01A
:1096B0000A4405EB000C29460A2661450ED001310B
:1096C00001F1FF3EBEF1080F03DC059F77430597CC
:1096D000F3E71029D8BF06FB08F8EEE7284408286E
:1096E00000F1010505DC05980A2101FB0033059313
:1096F00004E0102DDCBF0A2101FB08380021179B74
:10970000581C17905B78084602E0049D38463A469C
:10971000A3F130010929C7D90121652B01D0452BBF
:1097200051D16DB904E0652B40F0B38400220121D2
:1097300028B9069B002B00F09580054600E0002527
:10974000179C631C179363782B2B06D02D2B02D00C
:109750000026039606E0012300E000230393A31CE8
:109760001793A378A3F13006092E2BD8302B04D100
:10977000179B5E1C17965B78F8E7A3F13106082E5D
:1097800021D8A3F1300E179B4FF00A0C1F46179BF0
:109790005E1C17965B78A3F13009B9F1090F04D864
:1097A0000CFB0E3EAEF1300EF1E7F61B082E44F630
:1097B0001F6902DCF145A8BFF146039E2EB1C9F135
:1097C000000902E017944FF00009002D53D1002842
:1097D00040F05184069A002A40F04D84002941D17E
:1097E0004E2B20D002DC492B0AD03BE0692B07D05E
:1097F0006E2B18D036E000BF6CC40D000000F07F67
:10980000A84917A801F050FA60B3179BA649013B7D
:1098100017A8179301F048FA10B9179B0133179353
:10982000DFF8A0B21AE0A14917A801F03DFAC8B1CB
:10983000179B1B78282B0FD11AAA9D4917A801F056
:1098400046FA052808D11B9BDDF868A043F0FF4BC2
:109850004BF4E00B00F00FBCDFF86CB24FF0000AE5
:1098600000F009BC139B1794002B00F00F84002319
:109870000C9300F002BC049B0598002B08BF2B46FC
:10988000102D2C46C2EB0909A8BF10240493FFF742
:1098900067F8092C82468B4613DD864B03EBC40325
:1098A00053E91223FFF7D2F8064640460F46FFF76A
:1098B00057F802460B4630463946FEF715FF8246FA
:1098C0008B460F2D36DCB9F1000F00F0D48324DD78
:1098D000B9F1160F07DC774D05EBC90952465B4617
:1098E000D9E9000114E0C5F12503994522DC714C4A
:1098F000C5F10F0504EBC501C5EB090552465B46F2
:10990000D1E9000104EBC504FFF7A0F8D4E9002376
:10991000FFF79CF882468B46ADE319F1160F09DB81
:10992000644DA5EBC909D9E9002350465946FFF714
:10993000B7F9EFE72C1B4C44002C57DD14F00F0156
:109940000AD05C4B03EBC10152465B46D1E90001F2
:10995000FFF77CF882468B4634F00F0400F0B880A5
:10996000B4F59A7F0BDD0024254605940494029AF1
:10997000DFF850B1222313604FF0000A87E14E4E0A
:10998000002324115046594698463746012C0BDDDA
:10999000E20704D5D6E90023FFF758F8012308F1C0
:1099A000010864100836F1E70BB182468B46ABF133
:1099B000547B07EBC80752465B46D7E90001FFF727
:1099C00045F821F000438B460A461B0D3B491B0519
:1099D0008B428246C7D8A1F580118B4286BFDFF843
:1099E000ECB04FF0FF3A02F1547B71E070D064426A
:1099F00014F00F020AD02F4B03EBC2035046594616
:109A0000D3E90023FFF74CF982468B4624115FD03F
:109A10001F2C04DD002425460594049430E114F045
:109A2000100F0CBF00236A23254E0393504659465E
:109A30000023002C09DDE20704D5D6E90023FFF757
:109A400005F8012364100836F3E70BB182468B4614
:109A5000039BEBB1CBF30A53C3F16B03002B5946C5
:109A600016DD1F2B0EDD342BDEBF203B4FF0FF3207
:109A700002FA03F34FF0000ACCBF4FF05C7B03EA1D
:109A8000010B05E04FF0FF3202FA03F303EA0A0A82
:109A90000022002350465946FFF740FA0028B9D16A
:109AA00018E000BF94C40D0097C40D009DC40D00C4
:109AB00080C40D0008C50D00D0C50D000000A07CBD
:109AC000A0C40D000000F07F0000F8FFFFFFEF7F53
:109AD00000230393059B0093049A079902982B4651
