:02000002D0002C
:1040000000400D00D0C20D00000006000D000501AB
:084010000401E70500000000B7
:04401800E0B30D0004
:1040200009480A49884208B505D0094A824202D0A7
:10403000121A04F0B1FF0748074A0021121A04F0CF
:10404000B6FF014808BD00BF48E0032034C10D00A1
:10405000B8E10320B8E10320F0E7032070B503F0D6
:10406000BFFE074C074BE41AA40800251E46A542D4
:1040700004D056F8253098470135F8E770BD00BFE9
:104080002CC10D00ECC00D0001F020BB08B501F003
:1040900043F8BDE8084003F065BE02F089BA02F0BB
:1040A0008FBA02F08DBA0078B0FA80F040097047FC
:1040B0000123037070470000014B01221A70704702
:1040C0002DE20320024A01239371024A13707047C4
:1040D00008E30320F2E1032003681847012A02D015
:1040E000022A02D004E0016002E00B6800B1036024
:1040F0000020704738B50446006928B185680C2156
:1041000003F0D5FF2846F8E7204638BD08B5044936
:1041100003F04FFB18B1034B03221A70012008BDB6
:104120008DBA0D00F3E10320436913B183690C30AC
:104130001847704713B500210446084601F01EFFDA
:1041400002A90023204641F8043D01F02FFF019C05
:104150000CB1012323710021012001F00FFF2CB1CC
:10416000236820469B6898470023237102B010BD46
:1041700037B59DF8184023438DF800303C230546A1
:1041800002F048FD284603B030BD10B50446006873
:1041900008B102F015FA204610BD10B58368044638
:1041A00013B1032201469847204610BD0368D86822
:1041B00020B183888B4201D08068F9E77047000006
:1041C0002DE9F041037D05460F4616463BB301211C
:1041D000FFF7ECFF50B18389BB4204D186731EE028
:1041E0008388012BF6D080680028F9D10D49102072
:1041F00003F068FF044688B14FF0100842460021E2
:1042000004F0D5FE022363800123A4F80080A3807C
:104210002B69A360A781A6732C6100E0287528464E
:10422000BDE8F08188BD0D002DE9F041037D054614
:104230000F46F3B10421FFF7B9FF064608B1C76086
:1042400017E00D49102003F03DFF044680B14FF008
:1042500010084246314604F0AAFE0223638004237C
:10426000A4F80080A3802B69A360E7602C6100E0C4
:1042700028752846BDE8F08188BD0D0008B52DEDF4
:10428000028BB0EE408A28B10138FFF7F7FF28EE25
:10429000000A01E0B7EE000ABDEC028B08BD000089
:1042A000F0B500258E4615490571856045610160B0
:1042B000044692E8030085B002AF04F10C0687E8DB
:1042C000030096E8030082E8030097E8030086E80D
:1042D00003009168606990606161D168A069D060F5
:1042E000A1618DE82800064A2346714604F10800C2
:1042F00001F04CFE204605B0F0BD00BFFCB30D0040
:1043000035410D0007B58068002340B18DE80A00F3
:104310001A46012101F052FEB0FA80F0400903B0C4
:104320005DF804FB07B580680B461146002238B1E2
:104330008DE80600032101F041FEB0FA80F040094B
:1043400003B05DF804FB07B58068002338B18DE841
:104350000A00022101F032FEB0FA80F0400903B0F9
:104360005DF804FB38B5104B036083680446A3B1C5
:104370006FF000410022FFF7E6FF0021A06801F086
:104380003DFE237903F0FF0513B101F0DFFDF8E7EF
:104390002946A06801F002FEA56004F10C00FFF7B9
:1043A000FCFE204638BD00BFFCB30D0010B504462E
:1043B000FFF7D8FF20461C2103F079FE204610BDF0
:1043C00037B5054600220C461146FFF7BCFFA8682A
:1043D000002340B1019300941A46194601F0EEFD06
:1043E000B0FA80F0400903B030BD000030B5194D7F
:1043F0000FCD99B004AC0FC40FCD0FC495E80300E6
:1044000084E8030014490EA802F084F90EA802F013
:10441000D4F904460EA802F021FA0EA810EE105AA4
:1044200002F002FA18AB10EE100A03EB840404F059
:1044300009F9CDE90201284604F004F9CDE90001AB
:10444000064A54F8503C0648402102F0D1F819B011
:1044500030BD00BF08B40D0034E3032090B40D005C
:1044600074E203202DE9D0431A4800231A46194666
:10447000406802F06DF802F003F84FF4967440F2D1
:10448000E7360027002001F021FE4FF000098046AA
:10449000002001F01BFEB0EB080061EB09018F4228
:1044A00008BF864205D301F0FBFF10B901F0E0FF21
:1044B000EEE701F0F5FF18B1BDE8D04301F0F0BF21
:1044C00001F0CCFD044B186001F0D2FF013CF3D0A9
:1044D000D8E700BF34E30320E8E6032008B501F085
:1044E000DFFF80F00100C0B208BD0000F8B501F0A8
:1044F000CFFF002001F0EAFD0025044643F6972691
:104500000027002001F0E2FD001B61EB05018F4256
:1045100008BF864205D3FFF7E1FF10B901F0A8FFFD
:10452000EFE7FFF7DBFF064800231A46194640680D
:1045300002F016F84FF4FA6002F07EF80120F8BDA0
:1045400034E3032013B50446012101A802F09FFFC4
:1045500001A81CB103F036F8012401E003F002F8D1
:1045600001A802F0A3FF204602B010BD10B5202420
:1045700090B022460021684604F019FD2246002131
:104580000DEB04008DF8054004F011FD00210DEB4A
:1045900004008DF8254001F047FF1A4B5979009B24
:1045A000A1B140F22622ADF8082041F2E822ADF890
:1045B00006204FF40072ADF80A2043F4007341F274
:1045C0007202ADF80C200093002110E04FF46172EC
:1045D000ADF8082041F27000ADF80A2043F40073F2
:1045E00041F21002ADF80600ADF80C2000936846C9
:1045F00001F01AFF04460120FFF7A4FF204610B087
:1046000010BD00BF08E3032010B5074C01F026FDE4
:104610002368C01AB0F57A7F04D301F01FFD206033
:10462000012010BD002010BDB4E2032008B5FFF743
:10463000EBFF18B1BDE80840FFF7E6BF01F018FF37
:10464000F5E7000037B501F023FF01F007FD43F661
:104650009725044601F024FF40B101F0FFFC001B48
:10466000A84203D8642001F0E7FFF3E70021094BDB
:1046700047F23052084601F059FC4FF47A7001F0CD
:10468000DBFF054B0A221B680121684603F080F915
:1046900003B030BDA9B40D0048E2032030B585B0A9
:1046A0000D4604A9002241F8102D01F05FFEA8B9C3
:1046B000009C0CB1236923B9094A00210A2001F0AA
:1046C00045FE002301930C23ADF80430042303932B
:1046D0000295236901AA01212046984705B030BD03
:1046E0004D600D0030B50E4D0FCD89B001AC0FC43B
:1046F00095E8070084E8070069460720FFF7CEFF2A
:104700000028A8BF0098074A08AB03EB80001021DF
:1047100050F81C3C044801F06BFF09B030BD00BFED
:1047200030B40D008EB70D00E2E103207FB5594D86
:10473000594C2B7B3BB1594801F0D2FBB4EE400AF7
:10474000F1EE10FA03D70023A361636109E0534837
:1047500001F0C6FB514884ED050A01F0CFFB84ED62
:10476000060A60694C4E03F06DFF4D4ACDE9000129
:1047700010214C4801F03CFFA06903F063FF4A4A56
:10478000CDE900011021494801F032FF2B7C43B1F3
:10479000474801F0CFFA464801F086FA86ED070A4D
:1047A00001E00023F361E0693B4E03F04BFF414A17
:1047B000CDE900011021404801F01AFFAB7B63B145
:1047C000132003F0C4FB64230093002340F68A62A5
:1047D000194601F025FF306000E03360AB7B022B0F
:1047E0000CD1122003F0B3FB64230093002340F6A6
:1047F0008A62194601F014FF606001E000236360E3
:10480000EB7B012B0DD1112003F0A1FB1E230093A4
:104810004FF4306200234FF4D67101F001FFA06025
:1048200002E01C4B0022DA73244B00221146586828
:1048300001F086FE08B1FFF7D9FD03A90320FFF7B9
:104840002DFF88B90620B0EE000AFFF717FDBDF86E
:104850000C3030EE000A07EE103A30EE000AB8EEE7
:10486000477AC7EE007A01E0FFEE007AFDEEE77AC4
:10487000134A1448C5ED027A17EE903A082101F068
:10488000B7FEFFF72FFF104B012018700F4B187069
:1048900004B070BD08E30320BCE203205CE2032007
:1048A000B6B40D00BCE10320BEB40D00E0E203206D
:1048B000D8E10320C7B40D00F8E2032034E303205D
:1048C000D1B40D00F0E203202CE20320F2E103203A
:1048D00038B5046805467CB16368013B63605BB929
:1048E000236820469B689847A368013BA3601BB9D7
:1048F00023682046DB689847284638BD30B52F4CE2
:104900002F4D236AD1B00D932E4B9A690C922E4AEB
:104910000B929B680A93E3680993A3680893636802
:10492000079323680693E06903F08CFECDE9040148
:10493000A06903F087FECDE90201606903F082FE01
:104940000024CDE90001214A4FF4807110A801F044
:104950004FFEFFF76BFE2B781D498DF8004010AA23
:104960000EA8FFF705FC0FA8FFF7B2FFFFF75EFEEA
:104970002B7818498DF8004010AA0EA8FFF7F8FB15
:104980000FA8FFF7A5FFFFF751FE2B7812498DF80E
:10499000004010AA0EA8FFF7EBFB0FA8FFF798FF47
:1049A00003F09EF80D4B18700D4B01221A7001F0A8
:1049B00055FB0C4B186051B030BD00BFBCE203206A
:1049C000D4E1032008E30320E2E10320D7B40D0083
:1049D00093B50D00B4B50D00CCB50D002EE203204B
:1049E000C6E00320D0E1032010B50B7894B00C464C
:1049F00023B91C4904A804F015FB17E0084604F08D
:104A0000BDF9C82804D0204604F0B8F9C9281ED141
:104A1000154904A804F006FB03F05AF8134BD861BB
:104A2000134B01221A70134B00221A70FFF7FEFD80
:104A3000114B12491B7800228DF8002002A804AA0D
:104A4000FFF796FB03A8FFF743FF14B010BD204605
:104A500004F094F90A4A0346402104A801F0C8FD75
:104A6000E4E700BFE5B50D00FAB50D0008E303204B
:104A7000F2E10320C6E00320D4E10320EDB50D00F0
:104A80000CB60D007FB51E49044602F092FE0646A4
:104A900058B11C4B00229A731B4B01241C701B4BFA
:104AA0001B788DF800201A4A20E01A49204602F0AF
:104AB00080FE054650B1134B174A01249C73124BDC
:104AC0001C70124B1B788DF800600FE013492046D4
:104AD00002F06FFE90B10B4B02229A730A4B104A00
:104AE00001241C70094B1B788DF800500D4902A859
:104AF000FFF73EFB03A8FFF7EBFE204604B070BDB6
:104B000029B60D0008E30320F2E10320D4E10320DD
:104B10002BB60D008DBA0D0042B60D0021B90D0067
:104B200052B60D003BB60D0030B5164985B00446AF
:104B300002F03FFE054658B1134B0022DA73134BC7
:104B400001241C70124B1B788DF80020114A0EE0D6
:104B50001149204602F02DFE88B10B4B0F4A01246B
:104B6000DC730A4B1C700A4B1B788DF800500C4903
:104B700002A8FFF7FDFA03A8FFF7AAFE204605B03A
:104B800030BD00BF29B60D0008E30320F2E1032089
:104B9000D4E1032063B60D008DBA0D0076B60D008A
:104BA0003BB60D0030B5194985B0044602F001FE50
:104BB000054658B1164B00221A74164B01241C707E
:104BC000154B1B788DF80020144A15E01449204637
:104BD00002F0EFFDC0B10E4B124801241C740D4BC6
:104BE0001C7001F056F820210E4801F08EF80A4B97
:104BF0000D4A1B788DF800500C4902A8FFF7B8FA4F
:104C000003A8FFF765FE204605B030BD29B60D00AC
:104C100008E30320F2E10320D4E103208EB60D0067
:104C20008DBA0D00D8E103209EB60D003BB60D00F5
:104C300030B5184985B0044602F0BBFD054658B1B1
:104C4000154B00221A73154B01241C70144B1B7852
:104C50008DF80020134A12E01349204602F0A9FD06
:104C6000A8B10D4B114801241C730C4B44211C703E
:104C700001F0A0F80A4B0E4A1B788DF800500D4940
:104C800002A8FFF775FA03A8FFF722FE204605B039
:104C900030BD00BF29B60D0008E30320F2E1032078
:104CA000D4E10320B3B60D008DBA0D005CE2032001
:104CB000B6B60D003BB60D0070B5C6B00A2203A90A
:104CC000006805F0C7F8421E362A03462ED8224C4B
:104CD000224A234D20620121117006A8214A4FF477
:104CE000807101F085FCA868264618B3002101F008
:104CF0007DF9F8B1236A4EF660216FF00042594306
:104D00002846FFF70FFBFFF791FC01F0C9FB78B1D4
:104D1000154B16491B7800228DF8002004A806AA1E
:104D2000FFF726FA05A8FFF7D3FD01E0002010E009
:104D300001200EE0336A0A484EF6602159436FF0B5
:104D40000042FFF7EFFA6FF000410548FFF7DAFA8B
:104D5000D9E746B070BD00BF08E30320F2E10320AD
:104D600010E20320D5B60D00D4E10320F1B60D000A
:104D700070B586B003A9006804F0C6FFB5EEC00A9E
:104D8000F1EE10FA2FD4DFED1A7AB4EEE70AF1EE65
:104D900010FACCBF012500252DBB164B164E012461
:104DA0001C7010EE100A86ED090A03F04BFC134A42
:104DB000CDE900010821124801F01AFC3379A3B1B2
:104DC00001F06EFB88B1FFF731FC0E4B0C4A1B78EB
:104DD0000D498DF8005004A8FFF7CAF905A8FFF7A0
:104DE00077FD204602E0002000E0012006B070BD03
:104DF0000000C842F2E1032008E30320F6B60D00EC
:104E000068E20320D4E10320DDB80D0030B5164977
:104E100085B0044602F0CDFC054658B1134B012481
:104E20001C71134B1C70134B00221B788DF8002053
:104E3000114A0EE01149204602F0BBFC88B10B4B31
:104E40000F4A1D710A4B01241C700A4B1B788DF808
:104E500000500C4902A8FFF78BF903A8FFF738FDB3
:104E6000204605B030BD00BF8DBA0D0008E3032019
:104E7000F2E10320D4E10320FFB60D0029B60D00B6
:104E800010B70D0020B70D0030B5294985B0044694
:104E900002F08FFC28B92749204602F08AFC00283E
:104EA00043D02349204602F084FCA8B101F0F8FA6F
:104EB00070B1FFF7BBFB204B20491B7800228DF817
:104EC000002002A81E4AFFF753F903A8FFF700FDD0
:104ED0001C4B01229A7125E01649204602F069FC1C
:104EE00000B301F0DDFA174C18B9FFF7BBFA012344
:104EF000E370FFF79BFB104B134A1B780F4900250B
:104F000002A88DF80050FFF733F903A8FFF7E0FC83
:104F10004FF47A7001F090FB6FF000410B48FFF7FF
:104F20004FFAA5710A4B0120187005B030BD00BFC3
:104F30008DBA0D0029B60D00D4E1032020B70D0075
:104F400025B70D0008E3032034B70D00F4E103207A
:104F5000F2E10320F0B5264985B0044602F029FCB1
:104F600028B92449204602F024FC00283DD02046E0
:104F70001F49214D214E224F02F01BFC0446B0B1C7
:104F8000012421460220EC6002F0B5FF002103203D
:104F900002F0B1FF706901F04FFB2146032002F0DF
:104FA000AAFF00223B788DF80020164A13E0214624
:104FB000022002F0A0FF2146032002F09CFF70694E
:104FC00001F03AFB0121032002F095FF0E4A3B78E5
:104FD000EC608DF800400D4902A8FFF7C9F803A85E
:104FE000FFF776FC0A4B0120187005B0F0BD00BF3A
:104FF0008DBA0D0029B60D00BCE2032008E30320A2
:10500000D4E1032046B70D005EB70D0055B70D0083
:105010002CE2032030B587B01A49044602A802F0FA
:105020009BFB02A8FFF796FF02A802F04EFB164971
:10503000204602F0BEFB054658B1144B01245C74B7
:10504000134B1C70134B00221B788DF80020124A62
:105050000EE00C49204602F0ACFB88B10B4B0F4A26
:105060005D740B4B01241C700A4B1B788DF80050AB
:105070000B4902A8FFF77CF803A8FFF729FC20469C
:1050800007B030BD29B60D008DBA0D0008E303202E
:10509000F2E10320D4E1032071B70D006EB70D00DB
:1050A0003BB60D0030B5164D164C17492A782078BE
:1050B0008FB00E2303FB0212009203FB0013134A6E
:1050C000282104A801F094FA2B78237001F0E8F964
:1050D00070B1FFF7ABFA0E4B0E491B7800228DF82A
:1050E000002002A804AAFFF743F803A8FFF7F0FB8B
:1050F00002F0F4FD04A902F09CFA0FB030BD00BF2D
:10510000F3E10320E1E1032048E0032083B70D0031
:10511000D4E1032091B70D0070B59C4C2378013B7E
:105120008AB0072B00F2A682DFE813F02F020800F6
:105130004E007F00D800FE006401D701944D2B790A
:105140002BB1944B1B78022B01D0FFF7ABFF924E93
:10515000337843B102F012FF28228D49012000F07C
:10516000A5FF002333708D4E337843B102F006FF64
:1051700024228B49502000F099FF00233370AB7933
:1051800063B100F06BFF874B1B68C01A864B9842D7
:1051900004D9834BDB68002B00F0698202F0A0FC8D
:1051A000824BAA681B7898421CBF03232370804B54
:1051B0001B689A42DCBF082323707E4B1B78002BB0
:1051C00000F0588204232EE0714D2B792BB1714BE6
:1051D0001B78032B01D0FFF765FFFFF7A7FA064600
:1051E000E8B90123237000F039FF734B18602B7965
:1051F000002B00F03F8201F053F9002800F03A82C2
:10520000FFF714FA6D4B6E4A1B786E498DF80060FB
:1052100006A8FEF7ADFF07A8FFF75AFB2AE26B7C52
:10522000002BCFD10523237024E2624E634D3378E7
:10523000CBB1FFF7FBF92B78634A6449002506A838
:105240008DF80050FEF794FF07A8FFF741FB604977
:1052500006A802F081FA06A8FFF77CFE06A802F075
:1052600034FA3570DEE74E4B494AD3ED007A92EDC1
:10527000097AF8EEE77AF4EEC77AF1EE10FA1ED565
:10528000DE68E6B9FFF7D2F92B78524A4F498DF81C
:10529000006006A8FEF76CFF07A8FFF719FB4E4950
:1052A00006A802F059FA06A8FFF754FE06A802F075
:1052B0000CFA6FF000414948FFF782F8B2E7FFF7B8
:1052C000B5F900222B7841498DF8002006A8444A00
:1052D000FEF74EFF07A8FFF7FBFAA3E72C4D2B794B
:1052E0002BB12C4B1B78052B01D0FFF7DBFE01F017
:1052F000D7F890B102F0F4FB064650B9287101F0DE
:10530000CFF810B1304601F0EBF8254A0023AB612D
:105310001362FFF7F3FA062385E7FFF7A3F80028E7
:1053200040F0A88101237EE7194B1B792BB1194B63
:105330001B78062B01D0FFF7B5FE2A4B1B782BB943
:1053400000F08CFE174B186002236CE700F086FE1D
:10535000254B1B68C01A4AF6C873984240F28A81EE
:1053600000F07CFE144B186001F09AF80028D9D0A8
:10537000124B1E491B7800228DF8002006A81C4AFB
:10538000FEF7F6FE07A8FFF7A3FACBE7F3E1032049
:1053900008E30320E1E10320F2E103202CE20320F3
:1053A000BCE2032070E20320905F01002EE20320A4
:1053B000CCE103202DE20320B8E20320D4E1032056
:1053C00087B80D001DB80D00A2B70D0055B70D0030
:1053D00029B60D00BBB70D008DBA0D0010E20320F9
:1053E000E3B70D00C6E00320D0E10320F7B70D00BE
:1053F000B5B40D00A04B1A791D462AB19F4B1B78FE
:10540000072B01D0FFF74EFE9D4B9E4E9B68012B54
:1054100005DD33781BB901233370032303E701F063
:105420003FF8B0B12B7973B1FFF700F9964B97496C
:105430001B7800228DF8002006A8954AFEF798FEFA
:1054400007A8FFF745FA4FF47A7001F0F5F8FFF777
:105450004DF80021072002F04EFD00210E2002F041
:105460004AFD0023337002F045FB3C23C0F13C00B1
:1054700003FB00F5874B1A7D0AB101221A72002244
:1054800004218448FEF79CFE4FF47A716943FEF7CD
:10549000CBFE804903A802F013FA039B7BB19A88E4
:1054A000012A0CD19B89042B09D17B4906A802F063
:1054B00053F906A8FFF7E8FC06A802F006F9012157
:1054C000072002F018FD01210E2002F014FDFEF766
:1054D000C9FF02232370039852E0674B1A791D46D7
:1054E0002AB1664B1B78082B01D0FFF7DBFD00F0DB
:1054F000D7FFA0B1FFF79AF8634B64491B780022ED
:105500008DF8002006A8654AFEF732FE07A8FFF7CF
:10551000DFF94FF4FA6001F08FF8FEF7E7FF0021A2
:10552000072002F0E8FC6B7C4BB15B4906A802F057
:1055300013F906A8FFF70EFD06A802F0C6F841F21F
:10554000883001F079F802F0D5FA3C23C0F13C0034
:1055500003FB00F54F4B1A7D0AB101221A7200229B
:1055600004214C48FEF72CFE4FF47A716943FEF794
:105570005BFE06A8474902F0A3F9022306982370B0
:10558000002877D001F01CF874E03B4C23792BB154
:105590003A4B1B78012B01D0FFF784FD00F05EFD34
:1055A0003F4B1B6803F5EA433033984262D9A36945
:1055B000032B14DC00F074FF60B1334B33491B78CC
:1055C00000228DF8002006A8364AFEF7D1FD07A874
:1055D000FFF77EF94FF4FA6001F02EF824E002F0B4
:1055E00077FA254BDB69C01AB0F5E15F1FD900F0EF
:1055F00057FF60B1244B25491B7800228DF800200D
:1056000006A8294AFEF7B4FD07A8FFF761F94FF491
:10561000FA6001F011F80023A36102F0AFFC282228
:105620001549012000F042FD02F047F922E000F0A8
:1056300037FF60B1144B15491B7800228DF800200C
:1056400006A81A4AFEF794FD07A8FFF741F94FF4A0
:10565000FA6000F0F1FF0023A36102F08FFC282222
:105660000549012000F022FDFEF7ECFF02E00723D0
:10567000237093E50AB070BD08E30320E1E1032045
:10568000BCE20320E0E10320D4E103201DB80D00BB
:1056900010B80D0030E2032029B60D0023B80D002C
:1056A000B8E203203AB80D004EB80D0068B80D00FE
:1056B0000023042200F0CCBE0023022200F0C8BE6A
:1056C0000246014801F086B9A9690D00F0B58A4B80
:1056D000BBB00AAA03F110051646186859681446AB
:1056E00003C40833AB422246F7D119889B78218046
:1056F000A3702D2200210DF13B00804F03F057FCD9
:1057000002233B707E4B1B6893F8305093F8313086
:1057100003F01F0343EA45152F2D05DD794A0021CB
:105720000A2000F013FE01E01F2D03DD05F01F0528
:10573000754B01E04FF0A043012404FA05F5C3F8CE
:1057400008552146072002F0C5FB0021042002F085
:10575000C1FB0021132002F0BDFB0021122002F04A
:10576000B9FB0021112002F0B5FB21460E2002F00A
:10577000B1FB21460E2002F0BEFB2146032002F0C1
:10578000A9FB2146022002F0A5FB2146032002F0DE
:10579000B2FB0021022002F0AEFB02A800F088FE5E
:1057A000002500237D221AA902A802F014F82B4636
:1057B0002A465649019500951AA800F089FE5449D9
:1057C0005448FFF775FF54495448FFF775FF544993
:1057D0005448FFF76DFF54495448FFF769FF544997
:1057E0005448FFF765FF54495448FFF765FF544993
:1057F0005448FFF75DFF54495448FFF759FF544997
:105800005448FFF755FF54495448FFF751FF544996
:105810005448FFF751FF54495448FFF74DFF54498E
:105820005448FFF749FF54495448FFF749FF54498A
:105830005448FFF745FF54495448FFF741FF544986
:105840005448FFF73DFF54495448FFF739FF544986
:105850005448FFF735FF54495448FFF731FF544986
:105860005448FFF72DFF54495448FFF729FF544986
:105870005448FFF725FF54495448FFF721FF02F031
:105880007DFB284600F002FC022821D1504C02F09A
:1058900075FB28222146012000F000FC02F06EFB7F
:1058A00024222F49502000F0F9FB236A49484EF684
:1058B000602159436FF00042FEF734FD6FF0004164
:1058C0004448FEF71FFD237B002B00F0918085E00C
:1058D00002F054FB04224049284600F0E7FB02F0A6
:1058E0004DFB2046042206A90134069500F0DEFB9C
:1058F000F02CF4D1CAE700BF4CB40D00F3E1032053
:1059000058E203204D600D0000030050E9490D00EE
:1059100074E20320A1B80D0020E30320A8B80D0015
:105920008FBA0D00B3B80D00F0E20320BBB80D0034
:10593000E2E10320C6B80D0028E30320A8B90D005A
:1059400068E20320D5B80D00BCE10320E7B80D00E4
:10595000E0E20320F3B80D00F8E20320FCB80D00EC
:10596000BCE2032007B90D00C0E2032015B90D0009
:10597000C4E2032023B90D000D410D002CB90D0028
:10598000894E0D0038B90D000D4E0D0045B90D00C2
:10599000554F0D0055B70D00854A0D0052B90D0049
:1059A000294B0D0061B90D00A54B0D0073B90D0019
:1059B00015500D0082B90D00314C0D0092B90D004B
:1059C000B94C0D00A5B90D00714D0D00B6B90D0013
:1059D00008E3032010E203208CB40D004421464864
:1059E00000F0E8F920B920734449304603F01AFB6F
:1059F000237C33B1424800F04CF92021404800F0AC
:105A000084F90022114606A8069200F00FFB069BBF
:105A1000142B02BFA3690133A361A369052B04DD25
:105A2000384B04229A61FEF70DFE637C53B1354B6F
:105A3000586A02F007FE344ACDE9000108213348D4
:105A400000F0D6FD06236361637C63B1304BDB68F5
:105A50004BB1304906A801F07FFE06A8FFF77AFA9D
:105A600006A801F032FE01236371FEF77FFD0420DA
:105A700002F05AFA48B9274906A801F06DFE06A8B7
:105A8000FFF702FA06A801F020FEFEF74FFE224BB8
:105A9000A2681B689A4202DC08233B700CE0FEF708
:105AA000E1FC48B901233B7000F0D8FA1B4B1C49BC
:105AB0001860304603F0B6FA00F0F2FC08B1237922
:105AC00063B902F00BF9314601F0B3FD154B012229
:105AD00002A81A7001F0F9FD3BB0F0BD124B13495A
:105AE0001B7800228DF8002006A83246FEF740FB06
:105AF00007A8FEF7EDFEE4E75CE20320C8B90D005D
:105B0000D8E1032008E30320F6B60D0068E2032085
:105B1000BCE2032029B60D00CCE10320B8E203204B
:105B2000FCB90D00F2E10320D4E103200EBA0D0010
:105B30002DE9F0433F4B404E404FDFF83C910024AD
:105B40001C603F4B85B001251D7000F0C7FA3D4B2E
:105B5000186002F071F92346224642F6D51102F090
:105B600073F902F069F9224623461C2102F074F908
:105B70004FF6FF7373813460B480B47134810220B6
:105B800000F006FC3A463049304602F08BFA2F4EC0
:105B90002146284600F014FC2946042000F036FA7D
:105BA0004FF01008301D42462146306003F0FFF9E7
:105BB00002233A462649F38030463575A6F804801C
:105BC00002F070FA2348DFF8B480234C234E00F033
:105BD000CEF802F01BFA23210246214800F054F8C7
:105BE000204B00936A462B461F4902944846CDF845
:105BF0000C80FEF755FB6846FEF7CFFA3A46314671
:105C0000484602F04FFA0294184C194B00936A462A
:105C10002B461849CDF80C802046FEF741FB68461C
:105C2000FEF7BBFA3A463146204602F03BFA05B091
:105C3000BDE8F08348E203204CE20320B8E10320F2
:105C4000D4E1032058E203208B410D0030E2032011
:105C5000F5400D005CE20320DD400D0065430D00C2
:105C6000D8E10320B9400D00804F1200F4E1032079
:105C7000C5400D0040771B0010E20320D9400D0005
:105C80000368C9B29B6818474260112241700270D4
:105C9000704710B50446406801F0FFF910B960681C
:105CA00001F0B6F9012010BD70B505464178406895
:105CB00001F0E5F902226978686801F0DDF96868A9
:105CC00003685B6998470646686803685B6998479C
:105CD000044644EA06246868A4B201F0DBF907EE42
:105CE000904AB8EE670ADFED027A80EE270A70BDAF
:105CF0009A99993F0378232B04D0132B0CBF1820BB
:105D0000B42000E0182000F097BC38B504460D46DA
:105D10004178406801F0B3F96068036829469B68E0
:105D20009847606801F0B6F925702046BDE8384014
:105D3000FFF7E0BF10B50378A3F12002012A044663
:105D400001D9232B10D16178606801F098F960685F
:105D5000217803689B689847606801F09BF92046AA
:105D6000BDE81040FFF7C6BF10BD00F0B7B97047DF
:105D700038B505460C4602F049F9297801F07FF95B
:105D800002F044F9210AFFF77BFF02F03FF9E1B28C
:105D9000FFF776FF02F03AF9BDE8384001F07AB932
:105DA00008B543F2A201FFF7E3FF0A20BDE808406F
:105DB00000F042BC38B504460D4602F027F901F068
:105DC00027F920462570FFF7EBFF012038BD0A4474
:105DD000FF2091420ED011F8013B5840082310F0EB
:105DE000800F4FEA400018BF80F03100013BC0B285
:105DF000F5D1EEE77047000073B54FF4105104463B
:105E0000FFF7B6FF4FF4FA7000F016FC02F0FEF850
:105E10000622217801F030F902F0F8F803681B69D6
:105E2000984706284AD1002502F0F0F803685B691C
:105E300098470DF805000135062DF5D10222694677
:105E40002046FFF7C4FF9DF80250854236D102225A
:105E50000DF103012046FFF7BAFF9DF8055085427A
:105E60002CD1BDF800009DF803609DF8045040BAA5
:105E700080B202F0C5FB18A3D3E9002302F036FC80
:105E800011A3D3E9002302F05BFD0022104B02F0C6
:105E900079FA02F023FFA06045EA062002F0B0FB89
:105EA00000220C4B02F022FC07A3D3E9002302F0EE
:105EB00047FD02F013FF6060012000E0002002B007
:105EC00070BD00BFAFF3008000000000E0FFEF40B6
:105ED00000804640000059400000000000E065409E
:105EE00010B50446FFF788FF10B194ED020A10BD0B
:105EF0009FED010A10BD00BF0000C07F10B5044631
:105F0000FFF77AFF10B194ED010A10BD9FED010A71
:105F100010BD00BF0000C07F00F0E0B808B5024B24
:105F20001B685B6C019308BD7402030008B5024B4B
:105F30001B689B6C019308BD7402030008B5024BFB
:105F40001B689B68019308BD4802030008B5024B1B
:105F50001B68DB68019308BD4802030008B5024BCB
:105F60001B681B69019308BD4802030008B5024B7A
:105F70001B685B69019308BD4802030008B5024B2A
:105F80001B68DB69019308BD4802030008B5024B9A
:105F90001B681B6A019308BD4802030008B5024B49
:105FA0001B685B6A019308BD4802030008B5024BF9
:105FB0001B689B6A019308BD4802030008B5024BA9
:105FC0001B68DB6A019308BD4802030008B5024B59
:105FD0001B685B6C019308BD4802030008B5024BC7
:105FE0001B689B6C019308BD4802030008B5024B77
:105FF0001B689B6D019308BD4802030008B5024B66
:106000001B681B6F019308BD4802030008B5024BD3
:106010001B685B6E019308BD3402030008B5024B98
:106020001B689B6E019308BD3402030008B5024B48
:106030001B68DB6E019308BD3402030008B5024BF8
:106040001B685B68019308BD1802030008B5024B8A
:106050001B68DB68019308BD1802030008B5024BFA
:106060001B685B69019308BD1802030008B5024B69
:106070001B68DB69019308BD1802030008B5024BD9
:106080001B689B6A019308BD1802030008B5024B08
:106090001B68DB6A019308BD1802030008B5024BB8
:1060A0001B685B6C019308BD1802030008B5024B26
:1060B0001B689B6C019308BD1802030008B5024BD6
:1060C0001B689B6D019308BD1802030008B5024BC5
:1060D0001B68DB6D019308BD1802030008B5024B75
:1060E0001B681B68019308BD2C02030008B5024B16
:1060F0001B685B68019308BD2C02030008B5024BC6
:106100001B689B68019308BD2C02030008B5024B75
:106110001B68DB68019308BD2C02030008B5024B25
:106120001B681B69019308BD2C02030008B5024BD4
:106130001B685B69019308BD2C02030008B5024B84
:106140001B681B6B019308BD2C02030008B5024BB2
:106150001B68DB68019308BD2802030008B5024BE9
:106160001B689B69019308BD2802030008B5024B18
:106170001B68DB69019308BD2802030008B5024BC8
:106180001B681B6A019308BD2802030008B5024B77
:106190001B685B6A019308BD2802030008B5024B27
:1061A0001B689B6A019308BD2802030008B5024BD7
:1061B0001B68DB6A019308BD2802030008B5024B87
:1061C0001B681B6B019308BD2802030008B5024B36
:1061D0001B685B6B019308BD2802030008B5024BE6
:1061E0001B681B6C019308BD2802030008B5024B15
:1061F0001B689B6C019308BD2802030008B5024B85
:106200001B68DB6C019308BD2802030008B5024B34
:106210001B681B6D019308BD2802030008B5024BE3
:106220001B685B69019308BD6402030008B5024B5B
:106230001B689B68019308BD6802030008B5024B08
:106240001B68DB68019308BD6802030008B5024BB8
:106250001B68DB69019308BD3002030008B5024BDF
:106260001B681B6A019308BD3002030008B5024B8E
:106270001B681B68019308BD3C02030008B5024B74
:106280001B68DB68019308BD3C02030008B5024BA4
:106290001B681B69019308BD3C02030008B5024B53
:1062A0001B685B69019308BD3C02030008B5024B03
:1062B0001B689B69019308BD3C02030008B5024BB3
:1062C0001B68DB69019308BD3C02030008B5024B63
:1062D0001B681B6A019308BD3C02030008B5024B12
:1062E0001B689B6A019308BD3C02030008B5024B82
:1062F0001B681B68019308BD4C02030008B5024BE4
:106300001B681B69019308BD4C02030008B5024BD2
:106310001B685B69019308BD4C02030008B5024B82
:106320001B689B69019308BD4C02030008B5024B32
:106330001B68DB69019308BD4C02030008B5024BE2
:106340001B681B6A019308BD4C02030008B5024B91
:106350001B685B6B019308BD6002030008B5024B2C
:106360001B681B6D019308BD6002030008B5034B59
:106370001B68D3F89830019308BD00006002030049
:1063800008B5024B1B681B68019308BD200203007F
:1063900008B5024B1B685B68019308BD200203002F
:1063A00008B5024B1B685B69019308BD200203001E
:1063B00008B5024B1B689B69019308BD20020300CE
:1063C00008B5024B1B68DB6A019308BD200203007D
:1063D00008B5024B1B68DB6C019308BD200203006B
:1063E00008B5024B1B685B6D019308BD20020300DA
:1063F00008B5024B1B689B6D019308BD200203008A
:1064000008B5034B1B68D3F88830019308BD000022
:106410002002030008B5034B1B68D3F894300193A6
:1064200008BD00002002030008B5034B1B68D3F829
:10643000A830019308BD00002002030008B5034BFB
:106440001B68D3F8AC30019308BD000020020300A4
:1064500008B5024B1B681B68019308BD440203008A
:1064600008B5024B1B685B68019308BD440203003A
:1064700008B5024B1B689B68019308BD44020300EA
:1064800008B5024B1B68DB68019308BD440203009A
:1064900008B5024B1B681B69019308BD4402030049
:1064A00008B5024B1B685B69019308BD44020300F9
:1064B00008B5024B1B68DB69019308BD4402030069
:1064C00008B5024B1B681B6A019308BD4402030018
:1064D00008B5024B1B685B6A019308BD44020300C8
:1064E00008B5024B1B68DB6A019308BD4402030038
:1064F00008B5024B1B681B6B019308BD44020300E7
:1065000008B5024B1B68DB6B019308BD4402030016
:1065100008B5024B1B685B68019308BD400203008D
:1065200008B5024B1B689B68019308BD400203003D
:1065300008B5024B1B68DB68019308BD40020300ED
:1065400008B5024B1B681B69019308BD400203009C
:1065500008B5024B1B685B69019308BD400203004C
:1065600008B5024B1B689B69019308BD40020300FC
:1065700008B5024B1B68DB69019308BD40020300AC
:1065800008B5024B1B681B6A019308BD400203005B
:1065900008B5024B1B681B6B019308BD400203004A
:1065A00008B5024B1B685B6B019308BD40020300FA
:1065B00008B5024B1B681B68019308BD1C02030051
:1065C00008B5024B1B685B68019308BD1C02030001
:1065D00008B5024B1B689B68019308BD1C020300B1
:1065E00008B5024B1B689B69019308BD1C020300A0
:1065F00008B5024B1B68DB69019308BD1C02030050
:1066000008B5024B1B68DB6A019308BD1C0203003E
:1066100008B5024B1B681B6B019308BD1C020300ED
:106620008A4230B507D0039D441AED1A6C43521AC2
:1066300094FBF2F4E01830BD0021FFF7B1BE10B5B5
:10664000836804460BB901F04EFDC3689847A36800
:106650001BB1032221462046984720461021BDE861
:10666000104001F024BD10B50446006808B1FFF7E2
:10667000B5FC204610BD0B68036013B15A680132A7
:106680005A60704710B5064C002320462360FFF780
:106690009DFC2046034A0449BDE8104001F002BDBC
:1066A00030E30320B8E1032067660D0000221146A5
:1066B0004068FFF745BF002211464068FFF760BF02
:1066C000002211464068FFF76BBF00224068FFF7C9
:1066D0005FBF002281F001014068FFF749BF00233E
:1066E0001A4619464068FFF73BBF00231A46194671
:1066F0004068FFF72DBF002211464068FFF710BF2A
:10670000002202214068FFF713BF00231A464068A9
:10671000FFF7FEBEF0B51B4B036000250F46283384
:10672000182689B043608560C56032462946044614
:10673000103002F03CFC2A4629467868FFF700FF3B
:1067400008B9A0601BE02946324602A800950195D1
:1067500002F02DFC02A96846ADF80860FFF7DEFBE9
:1067600010B10123A3600AE0009B019AA360E260DC
:106770000BB90223A36002A9204600F089F8204645
:1067800009B0F0BDD4BA0D0038B5084C28252A460A
:106790000021204602F00BFC4FF0FF336360044BF6
:1067A000258004225A60034A1A6038BD3CE3032066
:1067B00034E30320A0BA0D007047007D704700004D
:1067C000037D1BB18369B3F1004F02D19FED050A30
:1067D000704707EE903A9FED047AF8EEE77A87EE7D
:1067E000870A7047000000000000C842037D1BB10B
:1067F000036AB3F1004F02D19FED050A704707EE1F
:10680000903A9FED047AF8EEE77A87EE870A7047B0
:10681000000000000000C84210B52821044601F025
:1068200046FC204610BD0000037D7BB1436A002B6F
:106830000CDB07EE903ADFED076A9FED070AB8EE32
:10684000E77AC7EE267A27EE800A7047BFEE000A85
:10685000704700BF00FF7F470000C842037D7BB147
:10686000C369002B0CDB07EE903ADFED076A9FED62
:10687000070AB8EEE77AC7EE267A27EE800A704755
:10688000BFEE000A704700BF00FF7F470000C8420C
:1068900030B50D4600F110040FCD0FC495E803008C
:1068A00084E80300012030BD2DE9F04107460C4685
:1068B00015462AB90368C9B29B68BDE8F04118477C
:1068C000002907DA0A2A05D12D2100F0A3FE614232
:1068D000064601E021460026EAB2384600F0B3FE43
:1068E0003044BDE8F08170B50D4606460A22816845
:1068F0002846FFF7D9FF2C210446284600F08AFEDF
:106900000A220444F1682846FFF7CEFF204470BDF8
:10691000A0F10400FFF7E7BF70470020704710B5F3
:106920001021044601F0C3FB204610BD08B508B194
:10693000FFF7F5FF08BD0022026010B54FF69C720C
:106940008280B1F9044084808A8002680C68046007
:106950000A6010BD10B504460068FFF731FE2046FE
:1069600010BD38B5C468F4B12378022B03D104F10B
:106970000C00FFF7EFFF656835B12846FDF70DFC09
:106980001021284601F093FBA56835B12846FDF794
:1069900004FC1021284601F08AFB20461421BDE8A2
:1069A000384001F084BB38BD10B588B00446684655
:1069B00000F0D2FE694604A800F0F0FE04A8A0474B
:1069C000044604A800F081FE684600F07EFE2046E2
:1069D00008B010BDF0B5102485B007460E46154628
:1069E00000212246684602F0E2FA0022694610467B
:1069F000ADF80040029703960195FFF731FD05B011
:106A0000F0BD13B5044691E8050000234B600B6010
:106A10002060626001A801930093FDF759FF2046B2
:106A200002B010BDF7B50C4602AD54F8043B45F872
:106A3000083D06460F4601A82146FFF71CFE2946E1
:106A40003046FFF7DEFF01A8FDF742FF2046FDF7C5
:106A50003FFF3846082101F02AFB304603B0F0BD65
:106A600013B50B46044603C88DE8030093E8030002
:106A700084E803009DE8030083E8030002B010BD32
:106A800038B500230446036010200D46FDF705FBD2
:106A900028B1012343608360024B0360C56020601E
:106AA000204638BD08BB0D00826810B50AB901F058
:106AB0001AFBC368BDE81040184708B5006800F12C
:106AC0001001FFF7F1FF08BD826810B50AB901F0A7
:106AD0000AFBC368BDE81040184708B5006800F11C
:106AE0001001FFF7F1FF08BD38B5002383608B6804
:106AF00004460D462BB102229847EB68E360AB6871
:106B0000A360204638BD0000F0B589B0046868462F
:106B1000FFF711FF00238DF808304FF00202D4E890
:106B20004F3F002B03D1C4E8412F0029F7D102D0F9
:106B30008DF8083063E014F10C0503D0694628464F
:106B4000FFF7F9FEBFF35F8F01236370002004F1AC
:106B50000803BFF35F8F53E8006F43E80002002A89
:106B6000F9D1BFF35F8F002E49D0FFF731FC20B180
:106B700029463046FFF798FF3AE0314602A8FFF772
:106B8000B3FFE068B4F9105008B102F053FA069070
:106B90001020ADF81C50FDF780FA0546E8B100273B
:106BA00087601820FDF779FA044688B101468760AE
:106BB00002A8FFF755FF049BA268A360059B0492FF
:106BC00006A9E268E36004F110000592FFF7B3FE46
:106BD0000D4BEB600D4B2C60AB6006A8FFF7BAFEC7
:106BE00002A8FDF7DAFA002229460948FFF7F8FB68
:106BF0003046FDF7D2FA1021304601F058FA6846C7
:106C0000FFF7A8FE09B0F0BDBB6A0D00316D0D00A5
:106C10003F660D002DE9F04F8BB006460F469046BB
:106C200099469DF850A0FFF73BFC07AD834630BB6B
:106C30004FF62E73059005A92846ADF81830FFF7DA
:106C40007AFE1420FDF729FA044658B10223037096
:106C500001234370C0F804B0C0F808B029460C30D6
:106C6000FFF769FE3046214640F8044BFFF708FF66
:106C70002846FFF76FFE05A8FFF76CFE52E00024E0
:106C80000C2314206C60AC600793FDF706FA0146F4
:106C900018B1047044704460846004A80391FFF745
:106CA000EFFE224B08930820FDF7F7F9044628B1C0
:106CB000039B40F8043B04A9FFF7DDFC00955FFA55
:106CC0008AF34A46414638460994FFF7F9FB20B952
:106CD000039B5B7803F0FF0283B1039B059304A938
:106CE00006A8FFF7C8FC05A93046FFF78AFE06A8EC
:106CF000FDF7EEFD04A8FDF7EBFD13E04FF69C73E6
:106D000005A903A80592ADF81830FFF7FDFE05A808
:106D1000FFF720FE05A80999FFF784FE06A8FDF7F6
:106D2000D7FDDAE730460BB0BDE8F08FA16E0D005D
:106D3000022AF8B5044606D0032A17D0012A22D128
:106D40000B6803601FE018200E68FDF7A6F90546E2
:106D500050B13146FFF7C8FE3069B6F9147008B17A
:106D600002F068F92861AF8225600CE0046854B134
:106D700004F11000FFF7EEFD2046FDF70EFA182192
:106D8000204601F094F90020F8BD38B50023836057
:106D90008B6804460D462BB102229847EB68E360EE
:106DA000AB68A360204638BD022A70B5044606D001
:106DB000032A11D0012A18D10B68036015E01420B2
:106DC0000E68FDF76AF9054620B13146FFF7DDFF91
:106DD000337C2B74256008E0046834B12046FDF74D
:106DE000DCF91421204601F062F9002070BD00009A
:106DF000F0B5002387B00C46BFF35F8F50E8006FFB
:106E000040E80032002AF9D1BFF35F8F002E3FD057
:106E10001846FFF7DDFA074620B121463046FFF756
:106E200053FE2EE0314601A8FFF7AFFF23788DF81F
:106E300014301020FDF731F90546D0B187601420D9
:106E4000FDF72BF9044678B18760014601A8FFF7EA
:106E500007FE039BA268A360049B0392E268E360C1
:106E60009DF81430049223740A4BEB600A4B2C609B
:106E7000AB6001A8FDF791F9002229460748FFF70A
:106E8000AFFA3046FDF789F91021304601F00FF9CD
:106E900007B0F0BDDB6A0D00A96D0D003F660D0067
:106EA00030B585B004460D4668461146FFF7BAFD79
:106EB0007CB124B228460DB102F0BCF8029002A9C0
:106EC0006846ADF80C40FFF71FFE02A8FFF742FD31
:106ED0001DE000988DF808404FF00102D0E84F3FC8
:106EE000A34203D1C0E8412F0029F7D102D08DF889
:106EF00008300CE010F10C014FF0010318BF0373D0
:106F0000BFF35F8F043000F8033CFFF771FF01A867
:106F1000FDF7DEFC05B030BD002211464068FFF7EA
:106F20002FBB002211464068FFF73ABB00224068A1
:106F3000FFF72EBB002281F001014068FFF718BB6C
:106F400000231A4619464068FFF70ABB00231A4679
:106F500019464068FFF7FCBA002211464068FFF767
:106F6000EFBA002211464068FFF7DABA0022022188
:106F70004068FFF7DDBA00231A464068FFF7C8BA39
:106F8000024B03225A60024A1A60704764E30320EE
:106F900024BB0D007047F8B5064615460C468F1801
:106FA000BC4206D0336814F8011B9B6830469847F2
:106FB000F6E72846F8BD0022007CFFF7DFB8002185
:106FC000007CFFF7E3B80021007CFFF7E7B8002161
:106FD000007CFFF7EBB80021007CFFF7EFB810B59D
:106FE0001421044601F063F8204610BD10B5044694
:106FF000002363604FF47A73A360044B2174084646
:1070000023601146FFF7EAF8204610BD58BB0D007B
:1070100000231A461946007CFFF798B870B50C4655
:1070200086B0142506462A46002101A801F0BFFFBC
:1070300023788DF8083063680393E3680493002293
:10704000237A307CADF8045001A90593FFF7DEF8F0
:1070500006B070BD1FB500338DF800104FF064010D
:10706000039118BF0123694601928DF80830FFF79C
:10707000D5FF05B05DF804FB0123FFF7EBBF00224D
:10708000007CFFF76BB8C9B2FFF7F9BF0022007CA4
:10709000FFF76CB80121FFF7F9BF0021007CFFF773
:1070A00095B808B50021007CFFF7A0F8B0FA80F091
:1070B000400908BD08B50021007CFFF79FF8B0FA31
:1070C00080F0400908BD704710B51821044600F053
:1070D000EEFF204610BDF0B5037D062B8DB00E46A9
:1070E00000F104074FF0000402D000F1080518E099
:1070F0000CAD394605F8304D2F232A460A20FFF7FC
:107100008DF8284601F0B1FF33680246DB68294656
:10711000304698470FE024B12E21304600F07AFA2D
:10712000044415F8011D0A22304600F08CFABD42D5
:107130000444F0D120460DB0F0BD000010B5054B61
:107140000446112240F8043B002101F030FF2046A4
:1071500010BD00BF80BB0D000346074A10B543F8C1
:10716000042B01F1100251F8044B43F8044B9142F7
:10717000F9D10A781A7010BD80BB0D0010B59DF8CA
:10718000084044EA032343EA024242EA016104233D
:107190004160037510BD37B50D788B784A78C97892
:1071A00000912946FFF7EAFF03B030BD014B024AC8
:1071B0001A6070476CE30320FFBB0D0000221146EC
:1071C0004068FFF7DDB9002211464068FFF7E8B9D3
:1071D00000224068FFF7DCB9002281F0010140681D
:1071E000FFF7C6B900231A4601214068FFF7B8B976
:1071F00000231A4619464068FFF7AAB90022114633
:107200004068FFF79DB9002211464068FFF788B932
:10721000002202214068FFF78BB900231A4640681C
:10722000FFF776B938B5054688B104684CB1A36854
:107230001BB103222146204698471021204600F02A
:1072400036FF28461421BDE8384000F030BF38BD75
:1072500010B103685B681847704710B503680446AF
:10726000BBB15868FEF76AFE78B923685A7C12B938
:107270005868FEF773FE23685868FEF777FE2068AB
:107280000023236028B1FFF7CDFF206808B1FFF786
:10729000C9FF204610BD38B50446D0F8C40108B176
:1072A000FCF7FFFED4F8C00108B1FEF797FED4F852
:1072B000BC5135B12846FFF7D0FF0421284600F025
:1072C000F6FE206808B1FFF7C3FF204638BD000076
:1072D00010B5044B044640F8083BFFF7DCFF20469E
:1072E00010BD00BF70BC0D0038B50E4C0E4B2360B6
:1072F0000025022304F5E4706360A560C4F8C4515E
:10730000C4F8C851FEF762FE084BC4F8CC5184F8AB
:10731000D05123602046064A0649BDE8384000F0B7
:10732000C1BE00BF70E30320A4BC0D0070BC0D0003
:10733000B8E10320D1720D0000231A464068FFF720
:10734000E7B8002202214068FFF7F2B80022114698
:107350004068FFF7E5B8002211464068FFF7F0B833
:1073600000231A4619464068FFF7F2B800231A4670
:1073700019464068FFF7F4B8002281F00101406827
:10738000FFF7F6B800224068FFF702B90022114665
:107390004068FFF705B9002211464068FFF7F0B8D2
:1073A0002DE9F043002495B016460D460746FFF739
:1073B000C5FE214620220CA8009401F0F8FD4023D0
:1073C0000C9321466B460CAA3046FEF737FF044665
:1073D000002844D1024601216868FFF7B1F8022174
:1073E000804622466868FFF7ABF8009E814621463A
:1073F000002E34D0002932D17368022B02D00A2B20
:1074000009D02AE0B8F1000F27D07169384604315D
:10741000FFF7C1FE20E0B9F1000F1ED07469112200
:1074200001A801F0C4FD06238DF8143001AD04F16C
:1074300008031834186859682A4603C20833A3425F
:107440001546F7D101A906A807ADFFF785FE0FCDB8
:107450003C1D0FC42B6823700121F669C8E7009812
:10746000FEF7E4FE384615B0BDE8F083024B034A50
:107470001A6000225A60704744E50320A4BC0D0046
:1074800008B500F0E9FDBDE80840FFF70ABE10B5F9
:107490000446017009B1FFF7F3FF204610BD08B59F
:1074A00000F0DAFDBDE80840FFF704BE10B5037830
:1074B00004460BB1FFF7F3FF204610BD10B504469C
:1074C0000068FFF7ECFF204610BD37B502AC0D4653
:1074D00044F8040DFFF7D4FF00F0BEFD6B21FFF769
:1074E000D2FD00F0B9FD036829469B68984700F07B
:1074F000B3FD0121FFF7CAFD00F0AEFD01231A46DE
:107500006B21FFF7A7FD00F0A7FD03685B699847B3
:1075100005462046FFF7D2FFE8B203B030BD73B591
:1075200002AC15460E4644F8040DFFF7A9FF00F023
:1075300093FD6B21FFF7A7FD00F08EFD0368314638
:107540009B68984700F088FD036829469B68984728
:1075500000F082FD0121FFF799FD2046FFF7AEFF05
:1075600002B070BD37B502AC054644F8040DFFF714
:1075700087FF01212846FFF7A8FF012100F0CF0275
:107580002846FFF7CCFF2046FFF798FF012003B005
:1075900030BD37B502AC054644F8040DFFF770FF67
:1075A00001212846FFF791FF00F0CF0242F01002C0
:1075B00001212846FFF7B3FF2046FFF77FFF012098
:1075C00003B030BDFFF7E5BFF8B506460D468F188E
:1075D0000024BD420CD0336815F8011B9B6830466F
:1075E0009847002801DB0444F3E7002C08BF044659
:1075F0002046F8BD70B505460C46084649B101F075
:1076000034FD2B68024621462846DB68BDE8704001
:10761000184770BD03689B68184738B50D210546AB
:10762000FFF7F8FF0A2104462846FFF7F3FF20443E
:1076300038BD38B50546FFF7DDFF04462846FFF79D
:10764000ECFF204438BD30B58BB00B4600218DF8DF
:107650002410012A98BF0A220DF12304B3FBF2F58E
:1076600005FB123303F0FF03092B94BF303337338C
:10767000DBB2214604F801392B46002DEED1FFF78D
:10768000B9FF0BB030BD10B50446FCF786FD2046AF
:1076900010BD00000348044A04490023836000F041
:1076A00001BD00BF4CE50320B8E1032087760D0043
:1076B00010B5044601700846FEF7C8FD002363605C
:1076C000204610BD0078FEF7C9BD10B5044600681D
:1076D000FEF776FF204610BD10B50446006808B1DD
:1076E000FEF76EFF00232360A360636010BD38B512
:1076F00004460D4600680131FEF76AFF10B184E8C8
:107700002100012038BD10B50368044613B1436859
:107710008B4207D22046FFF7EAFF20B1A3680BB9DE
:1077200022681370012010BD70B50E461146044644
:107730001546FFF7E8FF18B92046FFF7CDFF09E02F
:107740002A463146A560206801F026FC2268A3681D
:107750000021D154204670BD38B500230446036093
:107760004360836003730D4639B1084601F07DFC28
:10777000294602462046FFF7D7FF204638BD8842FB
:1077800010B50B46044607D0096819B19A68FFF78F
:10779000CBFF01E0FFF7A0FF204610BD10B500238E
:1077A00004460360436083600373FFF7E8FF2046ED
:1077B00010BD08B582680B4612B919B9012008BD81
:1077C00011B90368187802E0006801F021FCB0FAF2
:1077D00080F0400908BD70B50E469AB191B1856838
:1077E0009D4202D800230B7070BD541EED1A016833
:1077F000AC4228BF2C4619442246304601F052FCC8
:107800000023335570BD10B50446006818B1FEF76B
:10781000D7FE0023236010BD38B5B1F90430838052
:107820000B460D4653F8062FC0F806209B8843816F
:107830000446FFF7E8FF2B6813B1236000232B6099
:10784000204638BDB1F9043010B50BB90A689AB1B9
:107850000C685CB1A288012A03D0042A06D1022256
:1078600005E0A4894C818A710B8105E004220B811B
:107870004FF6FF738A714B8151F8063F03608B8886
:10788000838010BD38B50C460546FFF7BCFF44B1F8
:107890002088FEF78DFE286028B12288214601F05D
:1078A0007BFB002038BD014838BD00BFFCFEFFFF58
:1078B000014600228C20FEF7B1BB0020FFF7F8BF85
:1078C000F0B5304D0B7D04468BB00846AF1D13B3A9
:1078D0000B681B79FBB100224FF6FF7302A904303D
:1078E0000292ADF80C208DF80E20ADF81020ADF806
:1078F0001230FEF7A3FD0AAB00B253F81A2DADF813
:107900000C009B88A880C5F806200299BB802846F9
:10791000FFF7B8FF1CE02023002602931A4B0093C8
:107920001A4903963346322002AAFEF717FD4FF696
:10793000FF73ADF8123002A94FF6F26311480296B8
:107940008DF80E60ADF81060ADF80C30FFF764FFF5
:1079500002A8FFF758FF00232360A380A3712381AF
:107960004FF6FF736381B5F90430A3803B68C4F818
:107970000630BB88638129682046FFF783FF2046D5
:107980000BB0F0BD5CE50320D7BC0D00D0BC0D00F2
:1079900030B5044685B0084611461A460023FEF766
:1079A00007FD0D4DADF80C00002301A90193ADF8C2
:1079B00008308DF80A3028464FF6FF73ADF80E30C8
:1079C000FFF72AFF01A8FFF71EFF20462946FFF711
:1079D00039FF204605B030BD5CE5032010B5094CE9
:1079E00000204FF6FF732060A080A071208163818A
:1079F000FEF7CEFC2046044A0449BDE8104000F0E2
:107A000051BB00BF5CE50320B8E103208B410D00B2
:107A1000F0B5144B144F1E68144B064418683B68AD
:107A200006449E428BB01BD00AA801AD40F8286DD9
:107A300001F0B6F9436903F26C73436104460FCC5D
:107A40000FC50FCC0FC5D4F800E0C5F800E001ADBC
:107A50000FCD074C0FC40FCD0FC43E60C4F800E03B
:107A60000BB0F0BD98E5032094E5032090E50320DA
:107A700068E5032008B50020FEF73AFD28B1FEF7BF
:107A80000FFD80F00100C0B208BD012008BD10B597
:107A90000020FEF713FB044668B9FEF771FC0128CD
:107AA0000BD12046FEF7A4FC38B9FFF7E3FF30B94D
:107AB000FEF7DEFCF9E7012010BD002010BDFFF746
:107AC000D9FF0020FEF7FAFA003018BF012010BDE0
:107AD00008B5FFF7DCFFBDE80840FEF7C7BA0000B5
:107AE00008B5FFF7F5FFFFF793FF014B986808BD56
:107AF00068E5032008B5FFF7EBFFFFF789FF014BAF
:107B0000586808BD68E50320024B1A68024B1A60EA
:107B1000704700BFC8E003208CE503207047417424
:107B2000704708B5007CFEF7D9FB20EAE07008BD7D
:107B300008B5007CFEF7AAFB20EAE07008BD08B596
:107B4000007CFEF7B3FB30EA200028BF4FF0FF3087
:107B500008BD08B5007CFEF7A1FB30EA200028BF75
:107B60004FF0FF3008BD007CFEF7A8BB10B5142114
:107B7000044600F09CFA204610BD70B5457C0446D2
:107B80000E4625B9007CFEF7A9FB002805DD31462D
:107B9000207CBDE87040FEF771BB284670BD000038
:107BA00010B5044608461146002262604FF47A720E
:107BB000A260054A22600122207462741A46FEF710
:107BC00055FB204610BD00BF30BD0D00007CFEF708
:107BD0007DBB000038B50C4D296811F0010411D1AE
:107BE0002846FCF760FA68B1084A094B0948214663
:107BF000FFF7D6FF2846FCF75BFA074A0749054816
:107C000000F050FA034838BD34E6032038E603207C
:107C1000B0E503209CE50320B8E103201D7B0D00A7
:107C200041747047704708B50021007CFEF776FB71
:107C300030EA200028BF4FF0FF3008BD08B5012111
:107C4000007CFEF76BFB30EA200028BF4FF0FF30CE
:107C500008BD08B5007CFEF759FB20EAE07008BDBE
:107C600008B5007CFEF74AFB20EAE07008BD007C06
:107C7000FEF764BB10B51421044600F018FA204644
:107C800010BD38B50446007C0D46FEF73FFB0028CA
:107C900001DC607C28B12946207CFEF747FB20EA06
:107CA000E07038BD10B50446002363604FF47A736A
:107CB000A360054B236001230846217463741146B9
:107CC000FEF714FB204610BD60BD0D0010B5142258
:107CD0000446002101F06BF9204610BD30B50E4D71
:107CE00087B001A8FFF7F2FF296811F0010410D155
:107CF0002846FCF7D8F960B101AA21460748FFF7EA
:107D0000D1FF2846FCF7D4F9054A0649034800F09C
:107D1000C9F9024807B030BDBCE60320C0E6032025
:107D2000B8E10320257C0D0008B50C4B33B1FFF7FB
:107D3000D5FF03681B699847002809DC084B63B12D
:107D4000FFF748FF03681B699847002803DC08BD5C
:107D5000AFF30080F2E7AFF3008008BD0000000041
:107D60000000000008B5FFF7DFFFFEF777F9014BD1
:107D7000186008BDE8E603200248034A0349121AC6
:107D800001F00AB900F4032004F4032030C10D000F
:107D900007B5002300931A466FF07701FEF73AFB10
:107DA00003B05DF804FB000007B543880A2B08D038
:107DB000502B09D1094B1B683BB103B05DF804EBB4
:107DC0001847FFF7E5FF06E0002300931A466FF01F
:107DD0007701FEF71FFB03B05DF804FBD4E6032038
:107DE00038B5104C104D2368AB42104B0CBF01222C
:107DF00000221A7002D0FFF7BFFF2560FEF71EF9C0
:107E0000044601F0DDF80A4B13B12046AFF30080C1
:107E100000210748FEF774FB00210648BDE8384002
:107E2000FEF7EEBA00F403201E1C279AD8E60320C2
:107E300000000000A97D0D0008B5024B1B681B68FF
:107E4000019308BD5C02030008B5024B1B685B6828
:107E5000019308BD5C02030008B5024B1B689B68D8
:107E6000019308BD5C02030070B5184E316811F033
:107E7000010504460AD13046FCF715F930B1294610
:107E80001348FFF715FC3046FCF712F91048FFF7CE
:107E900019FC28B1A4F10B03022B01D8002070BDFE
:107EA00000F0B4F8FFF7F9F808B1012CF6D9FFF7A4
:107EB00091FEFFF78BFE18B1A4F10903012BEDD958
:107EC000232C8CBF0020012070BD00BFDCE6032006
:107ED000E0E60320232838B504460D460AD8FF29DA
:107EE00008D0FFF7C1FF28B129462046BDE8384039
:107EF000FEF704B938BD38B504460D46FEF706F95D
:107F0000FF2810D0062804D84D2323FA00F0C30719
:107F100009D42046FFF7A8FF28B129462046BDE82E
:107F20003840FEF7FBB838BD10B50446FEF7EEF852
:107F30000438C0B2012808D92046FFF795FF20B1C8
:107F40002046BDE81040FEF7F1B8002010BD0D2816
:107F500010B504469CBF0E34A4B22046FFF784FF40
:107F600050B103212046FEF7C1F8032804D1204672
:107F7000BDE81040FEF7E2B8002010BD10B5074C78
:107F80002368DB0708D42046FCF78DF820B1FEF704
:107F900075F82046FCF78CF8014810BDECE603208C
:107FA000F0E6032070B5044614252A46094E002148
:107FB00000F0FDFF258020253146A560256128467B
:107FC00000F08FF831466060284600F08AF8E060E3
:107FD000204670BD88BD0D0070B5044614252A46A4
:107FE000094E002100F0E3FF258020253146A560E1
:107FF0002561284600F075F831466060284600F09B
:1080000070F8E060204670BD88BD0D0030B50E4DA3
:10801000296811F0010487B013D12846FCF743F812
:1080200078B101A8FFF7BEFF01AA21460748FEF775
:10803000DDFF2846FCF73CF8054A0649034800F0F6
:1080400031F8024807B030BDF4E603200CE7032006
:10805000B8E10320956F0D0010B50E4C2368DB07C7
:1080600086B013D42046FCF71EF878B101A8FFF7BC
:10807000B3FF01AA01210848FEF7B8FF2046FCF72C
:1080800017F8064A0649044800F00CF8024806B002
:1080900010BD00BF20E70320F8E60320B8E103206D
:1080A000956F0D000B460146184600F06BBEFBF7BE
:1080B000F6BF0000024B1868BFF35F8F704700BF28
:1080C00024E7032010B5002814BF044601242046ED
:1080D000FEF76EFA20B9FFF7EDFF08B18047F6E72B
:1080E00010BDFFF7EFBF08B5FEF78AFA244B1A68F8
:1080F000D0075CBF01221A60224B1A68D1075CBF0F
:1081000001221A60204B1A68D2075CBF01221A6054
:108110001E4B1A68D0075CBF01221A601C4B1A68FC
:10812000D1075CBF01221A601A4B1A68D2075CBFE4
:1081300001221A60184B1A68D0075CBF01221A602E
:10814000164B1A68D1075CBF01221A60144B1A68DB
:10815000D2075CBF01221A60124B1A68D0075CBFBD
:1081600001221A60104B1A68D1075CBF01221A6005
:108170000E4B1A68D2075CBF01221A60704700BF1D
:1081800054E7032050E703204CE7032048E703208F
:1081900044E7032040E703203CE7032038E70320BF
:1081A00034E7032030E703202CE7032028E70320EF
:1081B000184B1A68D1075CBF01221A60164B1A6867
:1081C000D2075CBF01221A60144B1A68D0075CBF4B
:1081D00001221A60124B1A68D1075CBF01221A6093
:1081E000104B1A68D2075CBF01221A600E4B1A6846
:1081F000D0075CBF01221A600C4B1A68D1075CBF24
:1082000001221A600A4B1A68D2075CBF01221A6069
:10821000704700BF74E7032070E703206CE703207A
:1082200068E7032064E7032060E703205CE703209E
:1082300058E70320184B1A68D1075CBF01221A6067
:10824000164B1A68D2075CBF01221A60144B1A68D9
:10825000D0075CBF01221A60124B1A68D1075CBFBD
:1082600001221A60104B1A68D2075CBF01221A6003
:108270000E4B1A68D0075CBF01221A600C4B1A68BB
:10828000D1075CBF01221A600A4B1A68D2075CBF93
:1082900001221A60704700BF94E7032090E7032093
:1082A0008CE7032088E7032084E7032080E703208E
:1082B0007CE7032078E70320244B1A68D0075CBFD3
:1082C00001221A60224B1A68D1075CBF01221A6092
:1082D000204B1A68D2075CBF01221A601E4B1A6835
:1082E000D0075CBF01221A601C4B1A68D1075CBF23
:1082F00001221A601A4B1A68D2075CBF01221A6069
:10830000184B1A68D0075CBF01221A60164B1A6816
:10831000D1075CBF01221A60144B1A68D2075CBFF8
:1083200001221A60124B1A68D0075CBF01221A6042
:10833000104B1A68D1075CBF01221A600E4B1A68F5
:10834000D2075CBF01221A60704700BFC4E7032058
:10835000C0E70320BCE70320B8E70320B4E703200D
:10836000B0E70320ACE70320A8E70320A4E703203D
:10837000A0E703209CE7032098E7032081F0004159
:1083800002E000BF83F0004330B54FEA41044FEAFA
:10839000430594EA050F08BF90EA020F1FBF54EA95
:1083A000000C55EA020C7FEA645C7FEA655C00F031
:1083B000E2804FEA5454D4EB5555B8BF6D420CDD02
:1083C0002C4480EA020281EA030382EA000083EA85
:1083D000010180EA020281EA0303362D88BF30BD25
:1083E00011F0004F4FEA01314FF4801C4CEA11317B
:1083F00002D0404261EB410113F0004F4FEA0333DA
:108400004CEA133302D0524263EB430394EA050F64
:1084100000F0A780A4F10104D5F1200E0DDB02FAD3
:108420000EFC22FA05F2801841F1000103FA0EF267
:10843000801843FA05F359410EE0A5F120050EF12D
:10844000200E012A03FA0EFC28BF4CF0020C43FA5E
:1084500005F3C01851EBE37101F0004507D54FF06B
:10846000000EDCF1000C7EEB00006EEB0101B1F5BB
:10847000801F1BD3B1F5001F0CD349085FEA300001
:108480004FEA3C0C04F101044FEA445212F5800F0C
:1084900080F09A80BCF1004F08BF5FEA500C50F1A9
:1084A000000041EB045141EA050130BD5FEA4C0C8C
:1084B000404141EB010111F4801FA4F10104E9D115
:1084C00091F0000F04BF01460020B1FA81F308BF0C
:1084D0002033A3F10B03B3F120020CDA0C3208DDD8
:1084E00002F1140CC2F10C0201FA0CF021FA02F1B3
:1084F0000CE002F11402D8BFC2F1200C01FA02F123
:1085000020FA0CFCDCBF41EA0C019040E41AA2BF47
:1085100001EB0451294330BD6FEA04041F3C1CDA0F
:108520000C340EDC04F11404C4F1200220FA04F02F
:1085300001FA02F340EA030021FA04F345EA0301D9
:1085400030BDC4F10C04C4F1200220FA02F001FA9B
:1085500004F340EA0300294630BD21FA04F029461D
:1085600030BD94F0000F83F4801306BF81F48011B6
:108570000134013D4EE77FEA645C18BF7FEA655C29
:1085800029D094EA050F08BF90EA020F05D054EAFB
:10859000000C04BF1946104630BD91EA030F1EBF00
:1085A0000021002030BD5FEA545C05D14000494104
:1085B00028BF41F0004130BD14F580043CBF01F5F7
:1085C000801130BD01F0004545F0FE4141F47001DD
:1085D0004FF0000030BD7FEA645C1ABF19461046B8
:1085E0007FEA655C1CBF0B46024650EA013406BFB9
:1085F00052EA033591EA030F41F4002130BD00BF78
:1086000090F0000F04BF0021704730B54FF4806434
:1086100004F132044FF000054FF0000150E700BFB5
:1086200090F0000F04BF0021704730B54FF4806414
:1086300004F1320410F0004548BF40424FF0000101
:108640003EE700BF42004FEAE2014FEA31014FEA44
:1086500002701FBF12F07F4393F07F4F81F0605193
:10866000704792F0000F14BF93F07F4F704730B502
:108670004FF4607401F0004521F0004120E700BF95
:1086800050EA010208BF704730B54FF000050AE01C
:1086900050EA010208BF704730B511F0004502D51D
:1086A000404261EB41014FF4806404F132045FEA1F
:1086B000915C3FF4DCAE4FF003025FEADC0C18BFC4
:1086C00003325FEADC0C18BF033202EBDC02C2F1BA
:1086D000200300FA03FC20FA02F001FA03FE40EA4C
:1086E0000E0021FA02F11444C1E600BF70B54FF04C
:1086F000FF0C4CF4E06C1CEA11541DBF1CEA13552E
:1087000094EA0C0F95EA0C0F00F0DEF82C4481EA95
:10871000030621EA4C5123EA4C5350EA013518BFB5
:1087200052EA033541F4801143F4801338D0A0FBA2
:1087300002CE4FF00005E1FB02E506F00042E0FB4F
:1087400003E54FF00006E1FB03569CF0000F18BF55
:108750004EF0010EA4F1FF04B6F5007F64F54074FD
:1087600004D25FEA4E0E6D4146EB060642EAC62190
:1087700041EA55514FEAC52040EA5E504FEACE2EFD
:10878000B4F1FD0C88BFBCF5E06F1ED8BEF1004F00
:1087900008BF5FEA500E50F1000041EB045170BD7C
:1087A00006F0004646EA010140EA020081EA0301C0
:1087B000B4EB5C04C2BFD4EB0C0541EA045170BDBC
:1087C00041F480114FF0000E013C00F3AB8014F136
:1087D000360FDEBF002001F0004170BDC4F100047F
:1087E000203C35DA0C341BDC04F11404C4F1200500
:1087F00000FA05F320FA04F001FA05F240EA02005B
:1088000001F0004221F0004110EBD37021FA04F690
:1088100042EB06015EEA430E08BF20EAD37070BD4A
:10882000C4F10C04C4F1200500FA04F320FA05F0A9
:1088300001FA04F240EA020001F0004110EBD370AB
:1088400041F100015EEA430E08BF20EAD37070BD1B
:10885000C4F1200500FA05F24EEA020E20FA04F3F4
:1088600001FA05F243EA020321FA04F001F00041A3
:1088700021FA04F220EA020000EBD3705EEA430E14
:1088800008BF20EAD37070BD94F0000F0FD101F043
:108890000046400041EB010111F4801F08BF013C7C
:1088A000F7D041EA060195F0000F18BF704703F0BA
:1088B0000046520043EB030313F4801F08BF013D41
:1088C000F7D043EA0603704794EA0C0F0CEA1355FD
:1088D00018BF95EA0C0F0CD050EA410618BF52EAB7
:1088E0004306D1D181EA030101F000414FF00000BD
:1088F00070BD50EA410606BF1046194652EA4306CB
:1089000019D094EA0C0F02D150EA013613D195EA3E
:108910000C0F05D152EA03361CBF104619460AD186
:1089200081EA030101F0004141F0FE4141F4700190
:108930004FF0000070BD41F0FE4141F4780170BD80
:1089400070B54FF0FF0C4CF4E06C1CEA11541DBFE5
:108950001CEA135594EA0C0F95EA0C0F00F0A7F8E7
:10896000A4EB050481EA030E52EA03354FEA013114
:1089700000F088804FEA03334FF0805545EA131327
:1089800043EA12634FEA022245EA111545EA1065EF
:108990004FEA00260EF000419D4208BF964244F186
:1089A000FD0404F5407402D25B084FEA3202B61AA5
:1089B00065EB03055B084FEA32024FF480104FF479
:1089C000002CB6EB020E75EB030E22BFB61A7546ED
:1089D00040EA0C005B084FEA3202B6EB020E75EB80
:1089E000030E22BFB61A754640EA5C005B084FEAE8
:1089F0003202B6EB020E75EB030E22BFB61A7546B5
:108A000040EA9C005B084FEA3202B6EB020E75EBBF
:108A1000030E22BFB61A754640EADC0055EA060E80
:108A200018D04FEA051545EA16754FEA06164FEAC3
:108A3000C30343EA52734FEAC2025FEA1C1CC0D16F
:108A400011F4801F0BD141EA00014FF000004FF0FC
:108A5000004CB6E711F4801F04BF01430020B4F1BD
:108A6000FD0C88BFBCF5E06F3FF6AFAEB5EB030C75
:108A700004BFB6EB020C5FEA500C50F1000041EB72
:108A8000045170BD0EF0004E4EEA113114EB5C043F
:108A9000C2BFD4EB0C0541EA045170BD41F4801112
:108AA0004FF0000E013C90E645EA060E8DE60CEA1A
:108AB000135594EA0C0F08BF95EA0C0F3FF43BAF37
:108AC00094EA0C0F0AD150EA01347FF434AF95EAEE
:108AD0000C0F7FF425AF104619462CE795EA0C0FD2
:108AE00006D152EA03353FF4FDAE1046194622E79F
:108AF00050EA410618BF52EA43067FF4C5AE50EA79
:108B000041047FF40DAF52EA43057FF4EBAE12E768
:108B10004FF0FF3C06E000BF4FF0010C02E000BF49
:108B20004FF0010C4DF804CD4FEA410C7FEA6C5C2C
:108B30004FEA430C18BF7FEA6C5C1BD001B050EACF
:108B4000410C0CBF52EA430C91EA030F02BF90EABA
:108B5000020F0020704710F1000F91EA030F58BF79
:108B6000994208BF90422CBFD8176FEAE37040F0DB
:108B7000010070474FEA410C7FEA6C5C02D150EA79
:108B8000013C07D14FEA430C7FEA6C5CD6D152EA34
:108B9000033CD3D05DF8040B704700BF84461046F9
:108BA00062468C461946634600E000BF01B5FFF7F8
:108BB000B7FF002848BF10F1000F01BD4DF808EDC8
:108BC000FFF7F4FF0CBF012000205DF808FB00BF99
:108BD0004DF808EDFFF7EAFF34BF012000205DF8F3
:108BE00008FB00BF4DF808EDFFF7E0FF94BF012040
:108BF00000205DF808FB00BF4DF808EDFFF7CEFF41
:108C000094BF012000205DF808FB00BF4DF808ED7F
:108C1000FFF7C4FF34BF012000205DF808FB00BF50
:108C20004FEA410C7FEA6C5C02D150EA013C0AD168
:108C30004FEA430C7FEA6C5C02D152EA033C02D15A
:108C40004FF0000070474FF0010070474FEA4102BB
:108C500012F5001215D211D56FF47873B3EB62528E
:108C600012D94FEAC12343F0004343EA505311F0B5
:108C7000004F23FA02F018BF404270474FF0000047
:108C8000704750EA013005D111F0004008BF6FF085
:108C9000004070474FF00000704700BF4A0011D2FB
:108CA00012F5001211D20DD56FF47873B3EB625246
:108CB0000ED44FEAC12343F0004343EA505323FA52
:108CC00002F070474FF00000704750EA013002D1C7
:108CD0004FF0FF3070474FF0000070474FEA4102FD
:108CE000B2F1E04324BFB3F5001CDCF1FE5C0DD90A
:108CF00001F0004C4FEAC0024CEA5070B2F1004F54
:108D000040EB830008BF20F00100704711F0804F56
:108D100021D113F13872BCBF01F00040704741F41B
:108D200080114FEA5252C2F11802C2F1200C10FA1F
:108D30000CF320FA02F018BF40F001004FEAC12303
:108D40004FEAD32303FA0CFC40EA0C0023FA02F3A7
:108D50004FEA4303CCE77FEA625307D150EA01337D
:108D60001EBF4FF0FE4040F44000704701F000404D
:108D700040F0FE4040F40000704700BF0A2200218E
:108D800001F068B810B5054C13462CB10A460146EF
:108D90000220AFF3008010BD204610BD000000008F
:108DA00038B5074B1C68E36B05461BB92420FDF75B
:108DB000FFFBE063E16B2846BDE8384000F002B8F5
:108DC00030E103202DE9F0410C46804601F066FEBB
:108DD00021460746404601F065FE466906F26C767C
:108DE000B307044605D1642296FBF2F302FB13633A
:108DF0004BB94FF4C87596FBF5F305FB1365B5FA4F
:108E000085F35B0900E001235F4A302505FB03255C
:108E100001F05AF901F05AF95C4B1B68F3B17B6819
:108E20009E4205D13968D8F80030FA6941B90AE0A4
:108E3000304601F0A1F80028F4D14FF0FF330DE0E7
:108E4000934208DB01E0934207DABA6B9342ACBF6E
:108E50000023012302E0002300E001232362236AB0
:108E6000012B0CBFF96B396A4FF461633C2091FB15
:108E7000F3F603FB1613616893FBF0F200FB12306C
:108E80002368891AA26861601B1A921B3B2B23601E
:108E9000A26003DD013161603C3B04E0002B03DA9A
:108EA000013961603C33236063683B2B03DD013291
:108EB000A2603C3B04E0002B03DA013AA2603C33A1
:108EC0006360A368172B22DDE2690132E261A269C7
:108ED0000132062AC8BF0022A261E268183B0132B3
:108EE000A3602369E26055F823108A4246DD01330E
:108EF0000C2B0CBF63692361A2EB0102E26001BF8E
:108F0000013300222261636108BFE26136E0002B79
:108F100034DAE269013AE261A269013A48BF062205
:108F2000A261E2681833013AE260A36032BB2369B0
:108F3000013B01D423611DE00B23236163695A1EA9
:108F400012F0030F626103F26B7305D1642193FB8E
:108F5000F1F201FB12324AB94FF4C87193FBF1F2FE
:108F600001FB1233B3FA83F35B0900E0012303F53D
:108F7000B673E361236955F82330E36001F0A5F887
:108F80002046BDE8F08100BFF4BE0D00E4E70320F9
:108F90000048704734E1032010B5431E0A44914253
:108FA00004D011F8014B03F8014FF8E710BD02445B
:108FB0000346934202D003F8011BFAE77047000012
:108FC00038B5124B1C68A36B0546D3B91820FDF7C2
:108FD000EFFA43F20E33A06303804AF6CD334380A9
:108FE00041F2342383804EF26D63C3804DF6EC630F
:108FF0000381052343810B23838101220023C0E9E0
:109000000423A36B00221D615A6138BD30E10320A7
:1090100010F8012B11F8013B012A28BF9A42F7D022
:10902000D01A7047034611F8012B03F8012B002AD0
:10903000F9D17047024B0146186800F003B800BF31
:1090400030E1032070B5064608460C4600F00DF8E6
:10905000451C29463046FDF7DBFA064618B12A467C
:109060002146FFF799FF304670BD034613F8012BE8
:10907000002AFBD1181A0138704730B582B1451E5D
:10908000013915F8013F11F8014FA34206D1EC4315
:109090001444E04201D0002BF3D11C46181B30BD14
:1090A000104630BD10B5034642B111F8014B03F82C
:1090B000014B013A002CF7D11A4400E010BD934255
:1090C00002D003F8014BFAE710BD70B504460D4617
:1090D00045EC104B164602F043F851EC100B7EB1F4
:1090E000C5F30A53C3F16B03002B09DD1B0503F124
:1090F0007F55002405F5401522462B46FFF7F6FA6A
:1091000070BD0000000000002DE9F04F9DB000236D
:1091100002900C46139218934FF0000A4FF0000B88
:109120001791179B1A780D2A05D8092A13D2002AFD
:1091300000F0AC8112E02B2A04D02D2A04D0202A82
:109140000CD108E0002200E001220C925A1C179278
:109150005B782BB99AE101331793E2E700230C9374
:10916000179D2B78302B5CD16B78582B01D0782B46
:109170004CD10C9B019318AB0093A94A029819ABF0
:1091800017A901F074F910F00706044600F087856E
:10919000062E05D10135002317950C9300F07FBDF5
:1091A000189A3AB135211AA802F0C7F8189902980E
:1091B00001F045FD062E22D8DFE806F0040D081860
:1091C0001D0D04004FF0000BDA4618E0DDF868A032
:1091D000DDF86CB013E01B9B199ADDF868A023F44E
:1091E000801302F2334243EA025B08E0DFF834B254
:1091F0004FF0000A03E06FF0004B4FF0FF3A2107F9
:1092000040F14D854BF0004B00F049BD179B5A1CB7
:1092100017925B78302BF9D0002B00F040850123AA
:1092200000E000234FF000080693179B0793CDF84A
:109230001480CDF810800A22179D2E78A6F13003F5
:10924000D9B209290ED804990829DDBF059902FB76
:109250000133059302FB0838049B01350133049365
:109260001795E9E70298FFF793FE07680298FFF762
:109270008FFE0068FFF7F9FE394602462846FFF7E1
:10928000FCFE074628B100203346049D02460146F5
:1092900057E00298FFF77CFE0068FFF7E6FE179B99
:1092A0001A181792049A1B5C002A42D11046302BE0
:1092B00005D1179B5A1C179201305B78F7E7A3F191
:1092C0003102082A43D8179A079202460020054621
:1092D000303B00F1010126D00A4405EB000C294681
:1092E0000A2661450ED0013101F1FF3EBEF1080FA3
:1092F00003DC059F77430597F3E71029D8BF06FBEA
:1093000008F8EEE72844082800F1010505DC059877
:109310000A2101FB0033059304E0102DDCBF0A2174
:1093200001FB08380021179B581C17905B780846F2
:1093300002E0049D38463A46A3F130010929C7D915
:109340000121652B01D0452B51D16DB904E0652B6E
:1093500040F0B3840022012128B9069B002B00F0C5
:109360009580054600E00025179C631C17936378E1
:109370002B2B06D02D2B02D00026039606E00123CE
:1093800000E000230393A31C1793A378A3F13006F6
:10939000092E2BD8302B04D1179B5E1C17965B78B7
:1093A000F8E7A3F13106082E21D8A3F1300E179B60
:1093B0004FF00A0C1F46179B5E1C17965B78A3F1B3
:1093C0003009B9F1090F04D80CFB0E3EAEF1300E96
:1093D000F1E7F61B082E44F61F6902DCF145A8BF31
:1093E000F146039E2EB1C9F1000902E017944FF037
:1093F0000009002D53D1002840F05184069A002A1C
:1094000040F04D84002941D14E2B20D002DC492B65
:109410000AD03BE0692B07D06E2B18D036E000BF96
:1094200054BF0D000000F07FA84917A801F050FAC2
:1094300060B3179BA649013B17A8179301F048FAA0
:1094400010B9179B01331793DFF8A0B21AE0A149B6
:1094500017A801F03DFAC8B1179B1B78282B0FD134
:109460001AAA9D4917A801F046FA052808D11B9BA6
:10947000DDF868A043F0FF4B4BF4E00B00F00FBCAD
:10948000DFF86CB24FF0000A00F009BC139B179490
:10949000002B00F00F8400230C9300F002BC049B0F
:1094A0000598002B08BF2B46102D2C46C2EB09094E
:1094B000A8BF10240493FFF7A3F8092C82468B461B
:1094C00013DD864B03EBC40353E91223FFF70EF9B8
:1094D000064640460F46FFF793F802460B463046D5
:1094E0003946FEF751FF82468B460F2D36DCB9F127
:1094F000000F00F0D48324DDB9F1160F07DC774D9F
:1095000005EBC90952465B46D9E9000114E0C5F1F3
:109510002503994522DC714CC5F10F0504EBC5010B
:10952000C5EB090552465B46D1E9000104EBC504D1
:10953000FFF7DCF8D4E90023FFF7D8F882468B4622
:10954000ADE319F1160F09DB644DA5EBC909D9E9A3
:10955000002350465946FFF7F3F9EFE72C1B4C4424
:10956000002C57DD14F00F010AD05C4B03EBC10156
:1095700052465B46D1E90001FFF7B8F882468B46B8
:1095800034F00F0400F0B880B4F59A7F0BDD0024AE
:10959000254605940494029ADFF850B12223136003
:1095A0004FF0000A87E14E4E0023241150465946E1
:1095B00098463746012C0BDDE20704D5D6E9002397
:1095C000FFF794F8012308F1010864100836F1E769
:1095D0000BB182468B46ABF1547B07EBC807524672
:1095E0005B46D7E90001FFF781F821F000438B4685
:1095F0000A461B0D3B491B058B428246C7D8A1F585
:1096000080118B4286BFDFF8ECB04FF0FF3A02F1D9
:10961000547B71E070D0644214F00F020AD02F4BDB
:1096200003EBC20350465946D3E90023FFF788F9FC
:1096300082468B4624115FD01F2C04DD0024254672
:109640000594049430E114F0100F0CBF00236A233A
:10965000254E0393504659460023002C09DDE207AE
:1096600004D5D6E90023FFF741F80123641008363A
:10967000F3E70BB182468B46039BEBB1CBF30A5366
:10968000C3F16B03002B594616DD1F2B0EDD342B67
:10969000DEBF203B4FF0FF3202FA03F34FF0000A27
:1096A000CCBF4FF05C7B03EA010B05E04FF0FF32CB
:1096B00002FA03F303EA0A0A00220023504659463D
:1096C000FFF77CFA0028B9D118E000BF7CBF0D007D
:1096D0007FBF0D0085BF0D0068BF0D00F0BF0D00FE
:1096E000B8C00D000000A07C88BF0D000000F07F16
:1096F0000000F8FFFFFFEF7F00230393059B00931B
:10970000049A079902982B4601F0EBFA059000287D
:109710003FF43DAFB9F1000FC9F10003A8BF00232A
:109720000D93002429EAE97312932546059B0298BC
:10973000596801F04FFA049000283FF42CAF059BC4
:109740001A69023203F10C0192000C30FFF724FC7D
:109750001AAA19A94BEC10AB0298CDE908AB01F09D
:1097600074FD189000283FF416AF0121029801F013
:1097700043FB054600283FF40EAF199B03991A9E40
:10978000002BADBF0D9A129ADDF8348002EB03086E
:10979000B8BFD21AA3EB01033344B549A8BF129A4C
:1097A000013B8B42C6F1360680F28A80C91A1F2916
:1097B000C8BFB04F4FF00109D4BF09FA01F3FF1A37
:1097C000A6EB0106D9BF0693002709FA07F7CDF8E3
:1097D000189008EB0609039BC84516441E444346EF
:1097E000A8BF4B46B342A8BF3346002BC2BFC3EB52
:1097F0000909F61AC3EB08080D9B002B64D1B9F1D7
:10980000000F7ADC129B002B40F08180002E00F3C9
:109810008880B8F1000F00F38E80049A189902989E
:1098200001F03FFC044600283FF4B5AEC36807933F
:109830000023C360294601F018FC002880F28980CB
:10984000079B002B40F00482BAF1000F40F0008229
:10985000CBF31303002B40F0FB812BF000431B0DD7
:109860001B05B3F1D66F40F2F3816369002B6CD016
:1098700021460122029801F0A7FB2946044601F087
:10988000F4FB002840F3E4812BF00043039A1B0D06
:109890001B05002A00F08C80B3F1D66F00F388809E
:1098A000B3F15C7F00F3D681029A22234FF0000AC5
:1098B0004FF0000B1360059B002B40F0DC81EEE1C4
:1098C00001230027069384E729461A46029801F0EF
:1098D0002DFB054600283FF45EAE0146189A02981B
:1098E00001F093FA079000283FF455AE18990298BA
:1098F00001F0A5F9079B189381E74A461899029849
:1099000001F062FB189000287FF47CAF43E6129AC6
:109910000499029801F00AFB049000287FF476AFC6
:1099200039E632460499029801F04EFB0490002873
:109930007FF46FAF2FE629464246029801F044FBC0
:10994000054600287FF469AF25E62369012B8FDCEB
:109950007EE161D1079ACBF3130322B346498B42D0
:109960005A462ED1039B514663B1444B1340B3F189
:10997000D46F07D81B0DC3F16B034FF0FF3000FA13
:1099800003F301E04FF0FF338B421AD13C498A4286
:1099900002D101333FF4FFAD384B134003F5801B78
:1099A0004FF0000A54E163B9BAF1000F09D16BE737
:1099B000A3F580136FEA135B6FEA0B5B4FF0FF3A7E
:1099C00046E117B117EA0B0F02E0069B13EA0A0FF4
:1099D00000F03E81079B039A5046594653B1FFF76A
:1099E00074FB02460B46DDE90801FEF7CDFC82461A
:1099F0008B462DE1FFF769FB02460B46DDE90801C6
:109A0000FEF7C0FC0022002382468B46FFF7D6F803
:109A100000287FF449AF1BE12946204601F063FC92
:109A200057EC106B00224FF0804310EE100A3946BD
:109A3000FFF7D8F8002842D0079B23B14FF0000869
:109A4000DFF8409011E0BAF1000F03D1CBF313031C
:109A50003BB91BE0BAF1010F03D1BBF1000F3FF49A
:109A600023AFDFF824904FF000080026054F39E0BF
:109A700002FCFFFFE2FBFFFFFFFF0F000000F07F93
:109A8000FFFFEF7F0000F03F0000F0BF0022984B87
:109A900030463946FFF79CF840B930463946002237
:109AA000944BFEF723FE06460F4601E0914F002639
:109AB00007F1004314961593DDE9148912E08D4BEC
:109AC000304639460022FEF711FE079B06460F4638
:109AD00023B901F100430E900F9301E0CDE90E6729
