:02000002D0002C
:1040000000400D0098A20D00000006000D00050103
:084010000401E70500000000B7
:04401800F4950D000E
:1040200009480A49884208B505D0094A824202D0A7
:10403000121A04F01BFE0748074A0021121A04F066
:1040400020FE014808BD00BF88E0032034A10D0018
:10405000C0E10320C0E10320F0E7032070B503F0C6
:104060008BFD074C074BE41AA40800251E46A54209
:1040700004D056F8253098470135F8E770BD00BFE9
:1040800030A10D00F0A00D0001F01EBA08B500F03F
:1040900083FFBDE8084003F031BD02F055B902F0DE
:1040A0005BB902F059B90078B0FA80F04009704766
:1040B0000123037070470000014B01221A70704702
:1040C00035E20320024A01239371024A13707047BC
:1040D00010E30320F9E1032003681847012A02D006
:1040E000022A02D004E0016002E00B6800B1036024
:1040F0000020704738B50446006928B185680C2156
:1041000003F0A1FE2846F8E7204638BD08B504496B
:1041100003F01BFA18B1034B03221A70012008BDEB
:10412000F89B0D00FAE10320436913B183690C3059
:104130001847704713B500210446084601F0F2FD08
:1041400002A90023204641F8043D01F003FE019C32
:104150000CB1012323710021012001F0E3FD2CB1FA
:10416000236820469B6898470023237102B010BD46
:1041700037B59DF8184023438DF800303C230546A1
:1041800002F014FC284603B030BD10B504460068A8
:1041900008B102F0E1F8204610BD10B5836804466E
:1041A00013B1032201469847204610BD0368D86822
:1041B00020B183888B4201D08068F9E77047000006
:1041C0002DE9F041037D05460F4616463BB301211C
:1041D000FFF7ECFF50B18389BB4204D186731EE028
:1041E0008388012BF6D080680028F9D10D49102072
:1041F00003F034FE044688B14FF010084246002117
:1042000004F03FFD022363800123A4F80080A38013
:104210002B69A360A781A6732C6100E0287528464E
:10422000BDE8F081F09E0D002DE9F041037D0546CB
:104230000F46F3B10421FFF7B9FF064608B1C76086
:1042400017E00D49102003F009FE044680B14FF03D
:1042500010084246314604F014FD02236380042313
:10426000A4F80080A3802B69A360E7602C6100E0C4
:1042700028752846BDE8F081F09E0D0008B52DEDAB
:10428000028BB0EE408A28B10138FFF7F7FF28EE25
:10429000000A01E0B7EE000ABDEC028B08BD000089
:1042A000F0B500258E4615490571856045610160B0
:1042B000044692E8030085B002AF04F10C0687E8DB
:1042C000030096E8030082E8030097E8030086E80D
:1042D00003009168606990606161D168A069D060F5
:1042E000A1618DE82800064A2346714604F10800C2
:1042F00001F020FD204605B0F0BD00BF10960D0076
:1043000035410D0007B58068002338B18DE80A00FB
:10431000022101F027FDB0FA80F0400903B05DF8FA
:1043200004FB000038B5104B036083680446A3B15A
:104330006FF000410022FFF7E5FF0021A06801F0C7
:1043400029FD237903F0FF0513B101F0D3FCF8E751
:104350002946A06801F0F6FCA56004F10C00FFF707
:104360001CFF204638BD00BF10960D0010B5044656
:10437000FFF7D8FF20461C2103F065FD204610BD45
:1043800037B5054600220C461146FFF7BBFFA8686B
:10439000002340B1019300941A46194601F0E2FC53
:1043A000B0FA80F0400903B030BD000030B5194DBF
:1043B0000FCD99B004AC0FC40FCD0FC495E8030026
:1043C00084E8030014490EA802F070F80EA802F069
:1043D000C0F804460EA802F00DF90EA810EE105A0F
:1043E00002F0EEF818AB10EE100A03EB840403F0B1
:1043F000F5FFCDE90201284603F0F0FFCDE9000109
:10440000064A54F8503C0648402101F0BDFF19B05F
:1044100030BD00BF1C960D0034E30320A4960D00B0
:1044200074E203202DE9D0431A4800231A461946A6
:10443000406801F059FF01F0EFFE4FF4967440F22E
:10444000E7360027002001F00DFD4FF000098046FF
:10445000002001F007FDB0EB080061EB09018F427D
:1044600008BF864205D301F0E7FE10B901F0CCFE8B
:10447000EEE701F0E1FE18B1BDE8D04301F0DCBE8B
:1044800001F0B8FC044B186001F0BEFE013CF3D013
:10449000D8E700BF34E30320E8E6032008B501F0C5
:1044A000CBFE80F00100C0B208BD0000F8B501F0FD
:1044B000BBFE002001F0D6FC0025044643F69726FB
:1044C0000027002001F0CEFC001B61EB05018F42AC
:1044D00008BF864205D3FFF7E1FF10B901F094FE53
:1044E000EFE7FFF7DBFF064800231A46194640684E
:1044F00001F002FF4FF4FA6001F06AFF0120F8BDFD
:1045000034E3032013B50446012101A802F08BFE19
:1045100001A81CB102F022FF012401E002F0EEFE2E
:1045200001A802F08FFE204602B010BD10B5202475
:1045300090B022460021684604F0A3FB22460021E9
:104540000DEB04008DF8054004F09BFB00210DEB02
:1045500004008DF8254001F033FE1A4B5979009B79
:10456000A1B140F22622ADF8082041F2E822ADF8D0
:1045700006204FF40072ADF80A2043F4007341F2B4
:104580007202ADF80C200093002110E04FF461722C
:10459000ADF8082041F27000ADF80A2043F4007332
:1045A00041F21002ADF80600ADF80C200093684609
:1045B00001F006FE04460120FFF7A4FF204610B0DC
:1045C00010BD00BF10E3032010B5074C01F012FC32
:1045D0002368C01AB0F57A7F04D301F00BFC206089
:1045E000012010BD002010BDB4E2032008B5FFF784
:1045F000EBFF18B1BDE80840FFF7E6BF01F004FE8D
:10460000F5E7000037B501F00FFE01F0F3FB43F6CC
:104610009725044601F010FE40B101F0EBFB001BB2
:10462000A84203D8642001F0D3FEF3E70021094B30
:1046300047F23052084601F04DFB4FF47A7001F01A
:10464000C7FE054B0A221B680121684603F06CF87F
:1046500003B030BDBD960D0050E2032030B585B0EB
:104660000D4604A9002241F8102D01F04BFDA8B918
:10467000009C0CB1236923B9094A00210A2001F0EA
:1046800031FD002301930C23ADF804300423039380
:104690000295236901AA01212046984705B030BD43
:1046A000E55D0D0030B50E4D0FCD89B001AC0FC4E6
:1046B00095E8070084E8070069460720FFF7CEFF6A
:1046C0000028A8BF0098074A08AB03EB8000102120
:1046D00050F81C3C044801F057FE09B030BD00BF43
:1046E00044960D0083990D00E9E103207FB5594DF3
:1046F000594C2B7B3BB1594801F0C6FAB4EE400A45
:10470000F1EE10FA03D70023A361636109E0534877
:1047100001F0BAFA514884ED050A01F0C3FA84EDBC
:10472000060A60694C4E03F059FE4D4ACDE900017E
:1047300010214C4801F028FEA06903F04FFE4A4AC0
:10474000CDE900011021494801F01EFE2B7C43B148
:10475000474801F0C3F9464801F07AF986ED070AA7
:1047600001E00023F361E0693B4E03F037FE414A6C
:10477000CDE900011021404801F006FEAB7B63B19A
:10478000132003F0B0FA64230093002340F68A62FA
:10479000194601F011FE306000E03360AB7B022B64
:1047A0000CD1122003F09FFA64230093002340F6FB
:1047B0008A62194601F000FE606001E00023636038
:1047C000EB7B012B0DD1112003F08DFA1E230093FA
:1047D0004FF4306200234FF4D67101F0EDFDA0607C
:1047E00002E01C4B0022DA73244B00221146586869
:1047F00001F072FD08B1FFF7D9FD03A90320FFF70F
:104800002DFF88B90620B0EE000AFFF737FDBDF88E
:104810000C3030EE000A07EE103A30EE000AB8EE27
:10482000477AC7EE007A01E0FFEE007AFDEEE77A04
:10483000134A1448C5ED027A17EE903A082101F0A8
:10484000A3FDFFF72FFF104B012018700F4B1870BE
:1048500004B070BD10E30320C4E2032064E203202F
:10486000CA960D00C4E10320D2960D00E8E20320B1
:10487000E0E10320DB960D0000E3032034E3032096
:10488000E5960D00F8E2032034E20320F9E103206D
:1048900038B5046805467CB16368013B63605BB969
:1048A000236820469B689847A368013BA3601BB917
:1048B00023682046DB689847284638BD30B52F4C22
:1048C0002F4D236AD1B00D932E4B9A690C922E4A2C
:1048D0000B929B680A93E3680993A3680893636843
:1048E000079323680693E06903F078FDCDE904019E
:1048F000A06903F073FDCDE90201606903F06EFD6C
:104900000024CDE90001214A4FF4807110A801F084
:104910003BFDFFF76BFE2B781D498DF8004010AA78
:104920000EA8FFF725FC0FA8FFF7B2FFFFF75EFE0A
:104930002B7818498DF8004010AA0EA8FFF718FC34
:104940000FA8FFF7A5FFFFF751FE2B7812498DF84E
:10495000004010AA0EA8FFF70BFC0FA8FFF798FF66
:1049600002F08AFF0D4B18700D4B01221A7001F0F6
:1049700041FA0C4B186051B030BD00BFC4E20320B7
:10498000DCE1032010E30320E9E10320EB960D00B6
:10499000A7970D00C8970D00E0970D0036E20320A1
:1049A00006E10320D8E1032010B50B7894B00C4643
:1049B00023B91C4904A804F09FF917E0084604F045
:1049C0004BF8C82804D0204604F046F8C9281ED168
:1049D000154904A804F090F902F046FF134BD86182
:1049E000134B01221A70134B00221A70FFF7FEFDC1
:1049F000114B12491B7800228DF8002002A804AA4E
:104A0000FFF7B6FB03A8FFF743FF14B010BD204625
:104A100004F022F80A4A0346402104A801F0B4FC3D
:104A2000E4E700BFF9970D000E980D0010E3032096
:104A3000F9E1032006E10320DCE1032001980D00E9
:104A400020980D007FB51E49044602F07EFD064603
:104A500058B11C4B00229A731B4B01241C701B4B3A
:104A60001B788DF800201A4A20E01A49204602F0EF
:104A70006CFD054650B1134B174A01249C73124B31
:104A80001C70124B1B788DF800600FE01349204614
:104A900002F05BFD90B10B4B02229A730A4B104A55
:104AA00001241C70094B1B788DF800500D4902A899
:104AB000FFF75EFB03A8FFF7EBFE204604B070BDD6
:104AC0003D980D0010E30320F9E10320DCE1032011
:104AD0003F980D00F89B0D0056980D00BC9A0D00F4
:104AE00066980D004F980D0030B5164985B0044604
:104AF00002F02BFD054658B1134B0022DA73134B1D
:104B000001241C70124B1B788DF80020114A0EE016
:104B10001149204602F019FD88B10B4B0F4A0124C0
:104B2000DC730A4B1C700A4B1B788DF800500C4943
:104B300002A8FFF71DFB03A8FFF7AAFE204605B059
:104B400030BD00BF3D980D0010E30320F9E10320C4
:104B5000DCE1032077980D00F89B0D008A980D008A
:104B60004F980D0030B5194985B0044602F0EDFCB0
:104B7000054658B1164B00221A74164B01241C70BE
:104B8000154B1B788DF80020144A15E01449204677
:104B900002F0DBFCC0B10E4B124801241C740D4B1B
:104BA0001C7000F04AFF20210E4800F082FF0A4BE3
:104BB0000D4A1B788DF800500C4902A8FFF7D8FA6F
:104BC00003A8FFF765FE204605B030BD3D980D00F7
:104BD00010E30320F9E10320DCE10320A2980D009B
:104BE000F89B0D00E0E10320B2980D004F980D00F6
:104BF00030B5184985B0044602F0A7FC054658B107
:104C0000154B00221A73154B01241C70144B1B7892
:104C10008DF80020134A12E01349204602F095FC5B
:104C2000A8B10D4B114801241C730C4B44211C707E
:104C300000F094FF0A4B0E4A1B788DF800500D4986
:104C400002A8FFF795FA03A8FFF722FE204605B059
:104C500030BD00BF3D980D0010E30320F9E10320B3
:104C6000DCE10320C7980D00F89B0D0064E20320EF
:104C7000CA980D004F980D0030B5164985B004460E
:104C800002F063FC054658B1134B01241C71134B11
:104C90001C70134B00221B788DF80020114A0EE087
:104CA0001149204602F051FC88B10B4B0F4A1D718F
:104CB0000A4B01241C700A4B1B788DF800500C49DC
:104CC00002A8FFF755FA03A8FFF7E2FD204605B05A
:104CD00030BD00BFF89B0D0010E30320F9E1032075
:104CE000DCE10320E9980D003D980D00FA980D00D5
:104CF0000A990D0030B52B4985B0044602F025FC19
:104D000028B92949204602F020FC002848D025492E
:104D1000204602F01AFCB0B101F08EFA70B1FFF734
:104D200065FC224B22491B7800228DF8002002A846
:104D3000204AFFF71DFA03A8FFF7AAFD1E4B1F49E3
:104D400001229A7126E01849204602F0FEFB20B3AA
:104D500001F072FA184C18B9FFF764FB0123E370F5
:104D6000FFF744FC114B164A1B781149002502A895
:104D70008DF80050FFF7FCF903A8FFF789FD4FF409
:104D80007A7001F025FB6FF000410E48FFF7F8FA4A
:104D90000D49A5710D4803F0AFFF0D4B01201870B0
:104DA00005B030BDF89B0D003D980D00DCE10320FF
:104DB0000A990D000F990D0010E303201E990D00B4
:104DC00023990D00FCE1032035990D00BCE203207E
:104DD000F9E10320F0B5264985B0044602F0B5FBA1
:104DE00028B92449204602F0B0FB00283DD02046D7
:104DF0001F49214D214E224F02F0A7FB0446B0B1BE
:104E0000012421460220EC6002F041FF0021032032
:104E100002F03DFF706901F0DBFA2146032002F049
:104E200036FF00223B788DF80020164A13E0214619
:104E3000022002F02CFF2146032002F028FF7069B7
:104E400001F0C6FA0121032002F021FF0E4A3B784F
:104E5000EC608DF800400D4902A8FFF789F903A81E
:104E6000FFF716FD0A4B0120187005B0F0BD00BF1A
:104E7000F89B0D003D980D00C4E2032010E30320D1
:104E8000DCE103203B990D0053990D004A990D0078
:104E900034E2032030B587B01A49044602A802F074
:104EA00027FB02A8FFF796FF02A802F0DAFA1649DC
:104EB000204602F04AFB054658B1144B01245C74AD
:104EC000134B1C70134B00221B788DF80020124AE4
:104ED0000EE00C49204602F038FB88B10B4B0F4A1C
:104EE0005D740B4B01241C700A4B1B788DF800502D
:104EF0000B4902A8FFF73CF903A8FFF7C9FC2046BD
:104F000007B030BD3D980D00F89B0D0010E3032065
:104F1000F9E10320DCE1032066990D0063990D009F
:104F20004F980D0030B5164D164C17492A78207849
:104F30008FB00E2303FB0212009203FB0013134AEF
:104F4000282104A801F020FA2B78237001F074F9CD
:104F500070B1FFF74BFB0E4B0E491B7800228DF80A
:104F6000002002A804AAFFF703F903A8FFF790FCAA
:104F700002F080FD04A902F028FA0FB030BD00BF96
:104F8000FAE10320E8E1032088E0032078990D008E
:104F9000DCE1032086990D0070B5864C2378013B37
:104FA0008AB0072B00F26782DFE813F0F0010800F7
:104FB0004E007F00AC00D200320198017E4D2B796B
:104FC0002BB17E4B1B78022B01D0FFF7ABFF7C4E41
:104FD000337843B102F09EFE20227749012000F091
:104FE00031FF00233370774E337843B102F092FEE5
:104FF00024227549502000F025FF00233370AB793F
:1050000063B100F0F7FE714B1B68C01A704B9842F9
:1050100004D96D4BDB68002B00F02A8202F02CFCD7
:105020006C4BAA681B7898421CBF032323706A4B01
:105030001B689A42DCBF08232370684B1B78002B47
:1050400000F0198204232EE05B4D2B792BB15B4BD2
:105050001B78032B01D0FFF765FFFFF747FB0646E0
:10506000E8B90123237000F0C5FE5D4B18602B7971
:10507000002B00F0008201F0DFF8002800F0FB8137
:10508000FFF7B4FA574B584A1B7858498DF800601F
:1050900006A8FFF76DF807A8FFF7FAFBEBE16B7CBA
:1050A000002BCFD105232370E5E14C4D2B7863B164
:1050B0004F4906A802F01CFA06A8FFF78BFE06A8C7
:1050C00002F0CFF900232B70ECE73F4D286803F086
:1050D00073F90022474B03F047FC0028E2D0EB684D
:1050E000002BDFD1444906A802F002FA06A8FFF718
:1050F00071FE06A802F0B5F96FF000413F48FFF7D6
:105100003FF9CFE72C4D2B792BB12C4B1B78052B7E
:1051100001D0FFF707FF01F08FF890B102F0ACFB70
:10512000064650B9287101F087F810B1304601F0F9
:10513000A3F8254A0023AB611362FFF7BFFB0623E8
:10514000B1E7FFF76FF9002840F095810123AAE746
:10515000194B1B792BB1194B1B78062B01D0FFF78C
:10516000E1FE274B1B782BB900F044FE174B18606B
:10517000022398E700F03EFE224B1B68C01A4AF655
:10518000C873984240F2778100F034FE144B1860E7
:1051900001F052F80028D9D0124B1B491B7800228D
:1051A0008DF8002006A8194AFEF7E2FF07A8FFF7CE
:1051B0006FFBCBE7FAE1032010E30320E8E10320D3
:1051C000F9E1032034E20320C4E2032070E203206B
:1051D000905F010036E20320D4E1032035E2032092
:1051E000B8E20320DCE10320279A0D00BD990D00F1
:1051F0003D980D0000003E40F89B0D0018E2032092
:1052000006E10320D8E1032097990D00C9960D000F
:105210009A4B1A791D462AB1994B1B78072B01D05E
:10522000FFF780FE01F008F8B0B12B7973B1FFF7FA
:10523000DDF9944B94491B7800228DF8002006A8D4
:10524000924AFEF795FF07A8FFF722FB4FF47A700A
:1052500001F0BEF8FFF72AF90021072002F017FD40
:1052600000210E2002F013FD02F010FB3C23C0F1E0
:105270003C0003FB00F5864B1A7D0AB101221A722D
:10528000002204218248FEF79BFF4FF47A716943A4
:10529000FEF7CAFF7E4903A802F0DEF9039B7BB14B
:1052A0009A88012A0CD19B89042B09D1794906A837
:1052B00002F01EF906A8FFF71DFD06A802F0D1F8BE
:1052C0000121072002F0E3FC01210E2002F0DFFCA7
:1052D000FFF7A8F802232370039852E0674B1A796E
:1052E0001D462AB1664B1B78082B01D0FFF71AFE2A
:1052F00000F0A2FFA0B1FFF779F9624B62491B7879
:1053000000228DF8002006A8634AFEF731FF07A8A7
:10531000FFF7BEFA4FF4FA6001F05AF8FFF7C6F84B
:105320000021072002F0B3FC6B7C4BB1594906A861
:1053300002F0DEF806A8FFF74DFD06A802F091F88E
:1053400041F2883001F044F802F0A0FA3C23C0F1A9
:105350003C0003FB00F54E4B1A7D0AB101221A7284
:10536000002204214A48FEF72BFF4FF47A7169436B
:10537000FEF75AFF06A8464902F06EF90223069886
:105380002370002877D000F0E7FF74E03B4C2379CE
:105390002BB13B4B1B78012B01D0FFF7C3FD00F075
:1053A00029FD3E4B1B6803F5EA433033984262D92E
:1053B000A369032B14DC00F03FFF60B1314B32498D
:1053C0001B7800228DF8002006A8354AFEF7D0FE93
:1053D00007A8FFF75DFA4FF4FA6000F0F9FF24E048
:1053E00002F042FA254BDB69C01AB0F5E15F1FD924
:1053F00000F022FF60B1234B23491B7800228DF877
:10540000002006A8274AFEF7B3FE07A8FFF740FAD8
:105410004FF4FA6000F0DCFF0023A36102F07AFC95
:1054200020221649012000F00DFD02F012F922E0C1
:1054300000F002FF60B1134B13491B7800228DF876
:10544000002006A8184AFEF793FE07A8FFF720FAE7
:105450004FF4FA6000F0BCFF0023A36102F05AFC95
:1054600020220649012000F0EDFCFFF7CBF802E016
:1054700007232370D2E50AB070BD00BF10E30320FC
:10548000E8E10320DCE10320BD990D00B0990D0097
:1054900038E203203D980D00C3990D00B8E20320C7
:1054A000DA990D00EE990D00089A0D0000230422F0
:1054B00000F09ABE0023022200F096BE0246014888
:1054C00001F054B941670D00F0B5AE4BBBB00AAA6C
:1054D00003F11005164618685968144603C40833CA
:1054E000AB422246F7D119889B782180A3702D22E8
:1054F00000210DF13B00A44F03F0C3FB02233B70DE
:10550000A24B1B6893F8305093F8313003F01F031F
:1055100043EA45152F2D05DD9D4A00210A2000F0A4
:10552000E1FD01E01F2D03DD05F01F05994B01E0B2
:105530004FF0A043012404FA05F5C3F808552146AD
:10554000072002F093FB0021042002F08FFB0021D2
:10555000132002F08BFB0021122002F087FB0021B8
:10556000112002F083FB21460E2002F07FFB214632
:105570000E2002F08CFB2146032002F077FB21462F
:10558000022002F073FB2146032002F080FB002181
:10559000022002F07CFB02A800F056FE002500234A
:1055A0007D221AA902A801F0E2FF2B462A467A4979
:1055B000019500951AA800F057FE78497848FFF742
:1055C00075FF78497848FFF775FF78497848FFF705
:1055D0006DFF78497848FFF769FF78497848FFF709
:1055E00065FF78497848FFF761FF78497848FFF709
:1055F0005DFF78497848FFF759FF78497848FFF709
:1056000055FF78497848FFF755FF78497848FFF704
:1056100051FF78497848FFF74DFF78497848FFF700
:105620004DFF78496848FFF749FF77497748FFF70A
:1056300045FF77497748FFF741FF77497748FFF7FC
:105640003DFF77497748FFF739FF77497748FFF7FC
:1056500035FF77497748FFF731FF77497748FFF7FC
:105660002DFF02F057FB284600F0DCFB022811D189
:10567000734C02F04FFB20222146012000F0DAFBA0
:1056800002F048FB24225749502000F0D3FB237B33
:10569000EBB112E002F03EFB04226A49284600F01A
:1056A000D1FB02F037FB2046042206A901340695FF
:1056B00000F0C8FBF02CF4D1DAE74421624800F096
:1056C0004DFA20B920736149304603F015FB237C65
:1056D00033B15F4800F0B1F920215D4800F0E9F9ED
:1056E0000022114606A8069200F06CFB069B142BC4
:1056F00002BFA3690133A361A369052B04DD504BED
:1057000004229A61FEF77EFFA3794BB951492D48D7
:1057100003F0F2FA6FF000414F48FEF731FE03E06C
:105720004E49284803F0E8FA05236361637C63B1BE
:105730002C4BDB684BB14A4906A801F0D9FE06A8FC
:10574000FFF748FB06A801F08CFE01236371FEF70A
:10575000EDFE042002F0B4FA48B9414906A801F070
:10576000C7FE06A8FFF7C6FA06A801F07AFEFEF704
:10577000BDFF3C4BA2681B689A4275DC08233B7056
:105780007FE000BF60960D00FAE1032060E2032095
:10579000E55D0D0000030050A9490D0074E20320EF
:1057A000419A0D0028E30320489A0D00FA9B0D0052
:1057B000539A0D00F8E203205B9A0D00E9E1032003
:1057C000669A0D00BCE20320759A0D00C4E1032027
:1057D000829A0D00E8E203208E9A0D0000E3032078
:1057E000979A0D00C4E20320A29A0D00C8E203209C
:1057F000B09A0D00CCE20320BE9A0D000D410D00C1
:10580000C79A0D00F54C0D00794C0D00D39A0D0090
:10581000D54D0D004A990D00454A0D00E09A0D0046
:10582000E94A0D00EF9A0D00654B0D00019B0D003C
:10583000954E0D00109B0D00F14B0D00209B0D00AF
:1058400010E30320A0960D0064E20320339B0D00BB
:10585000E0E1032035990D00FCE103201E990D00C5
:105860003D980D00D4E10320FEF7DCFD48B901238B
:105870003B7000F0BFFA134B13491860304603F039
:105880003BFA00F0D9FC08B1237963B902F0F2F8D1
:10589000314601F09AFD0D4B012202A81A7001F069
:1058A000E0FD3BB0F0BD0A4B0A491B7800228DF8A1
:1058B000002006A83246FEF75BFC07A8FEF7E8FFCB
:1058C000E4E700BFB8E20320679B0D00F9E1032085
:1058D000DCE10320799B0D002DE9F0433F4B404E66
:1058E000404FDFF83C9100241C603F4B85B0012500
:1058F0001D7000F0BFFA3D4B186002F069F92346B5
:10590000224642F6D51102F06BF902F061F9224607
:1059100023461A2102F06CF94FF6FF73738134604D
:10592000B480B4713481022000F0FEFB3A46304965
:10593000304602F083FA2F4E2146284600F00CFC38
:105940002946042000F02EFA4FF01008301D424680
:105950002146306003F095F902233A462649F38048
:1059600030463575A6F8048002F068FA2348DFF85F
:10597000B480234C234E00F0CEF802F013FA23211A
:105980000246214800F054F8204B00936A462B460B
:105990001F4902944846CDF80C80FEF781FC68460A
:1059A000FEF7FBFB3A463146484602F047FA0294BE
:1059B000184C194B00936A462B461849CDF80C80B9
:1059C0002046FEF76DFC6846FEF7E7FB3A46314697
:1059D000204602F033FA05B0BDE8F08350E2032020
:1059E00054E20320C0E10320DCE1032060E2032055
:1059F0008B410D0038E20320F5400D0064E20320E6
:105A0000DD400D0025430D00E0E10320B9400D000D
:105A1000804F1200FCE10320C5400D0040771B00C1
:105A200018E20320D9400D000368C9B29B681847EB
:105A30004260112241700270704710B50446406800
:105A400001F0F7F910B9606801F0AEF9012010BD5E
:105A500070B505464178406801F0DDF902226978A9
:105A6000686801F0D5F9686803685B69984706467D
:105A7000686803685B699847044644EA06246868D6
:105A8000A4B201F0D3F907EE904AB8EE670ADFED51
:105A9000027A80EE270A70BD9A99993F0378232BEA
:105AA00004D0132B0CBF1820B42000E0182000F005
:105AB0008FBC38B504460D464178406801F0ABF91B
:105AC0006068036829469B689847606801F0AEF9F2
:105AD00025702046BDE83840FFF7E0BF10B50378D9
:105AE000A3F12002012A044601D9232B10D16178A9
:105AF000606801F090F96068217803689B689847B6
:105B0000606801F093F92046BDE81040FFF7C6BF7A
:105B100010BD00F0AFB9704738B505460C4602F02D
:105B200041F9297801F077F902F03CF9210AFFF7F1
:105B30007BFF02F037F9E1B2FFF776FF02F032F9AE
:105B4000BDE8384001F072B908B543F2A201FFF791
:105B5000E3FF0A20BDE8084000F03ABC38B504462F
:105B60000D4602F01FF901F01FF920462570FFF7DE
:105B7000EBFF012038BD0A44FF2091420ED011F8FE
:105B8000013B5840082310F0800F4FEA400018BF37
:105B900080F03100013BC0B2F5D1EEE77047000064
:105BA00073B54FF410510446FFF7B6FF4FF4FA7087
:105BB00000F00EFC02F0F6F80622217801F028F938
:105BC00002F0F0F803681B69984706284AD10025BF
:105BD00002F0E8F803685B6998470DF805000135A5
:105BE000062DF5D1022269462046FFF7C4FF9DF835
:105BF0000250854236D102220DF103012046FFF703
:105C0000BAFF9DF8055085422CD1BDF800009DF8E3
:105C100003609DF8045040BA80B202F0BDFB18A3A7
:105C2000D3E9002302F02EFC11A3D3E9002302F0F4
:105C300053FD0022104B02F071FA02F0BDFEA0608D
:105C400045EA062002F0A8FB00220C4B02F01AFCE9
:105C500007A3D3E9002302F03FFD02F0ADFE606030
:105C6000012000E0002002B070BD00BFAFF3008053
:105C700000000000E0FFEF40008046400000594077
:105C80000000000000E0654010B50446FFF788FF03
:105C900010B194ED020A10BD9FED010A10BD00BFC6
:105CA0000000C07F10B50446FFF77AFF10B194EDF5
:105CB000010A10BD9FED010A10BD00BF0000C07FAA
:105CC00000F0D8B808B5024B1B685B6C019308BDA7
:105CD0007402030008B5024B1B689B6C019308BD5E
:105CE0007402030008B5024B1B689B68019308BD52
:105CF0004802030008B5024B1B68DB68019308BD2E
:105D00004802030008B5024B1B681B69019308BDDC
:105D10004802030008B5024B1B685B69019308BD8C
:105D20004802030008B5024B1B68DB69019308BDFC
:105D30004802030008B5024B1B681B6A019308BDAB
:105D40004802030008B5024B1B685B6A019308BD5B
:105D50004802030008B5024B1B689B6A019308BD0B
:105D60004802030008B5024B1B68DB6A019308BDBB
:105D70004802030008B5024B1B685B6C019308BD29
:105D80004802030008B5024B1B689B6C019308BDD9
:105D90004802030008B5024B1B681B6F019308BD46
:105DA0004802030008B5024B1B685B6E019308BDF7
:105DB0003402030008B5024B1B689B6E019308BDBB
:105DC0003402030008B5024B1B68DB6E019308BD6B
:105DD0003402030008B5024B1B685B68019308BDE1
:105DE0001802030008B5024B1B68DB68019308BD6D
:105DF0001802030008B5024B1B685B69019308BDDC
:105E00001802030008B5024B1B68DB69019308BD4B
:105E10001802030008B5024B1B689B6A019308BD7A
:105E20001802030008B5024B1B68DB6A019308BD2A
:105E30001802030008B5024B1B685B6C019308BD98
:105E40001802030008B5024B1B689B6C019308BD48
:105E50001802030008B5024B1B689B6D019308BD37
:105E60001802030008B5024B1B68DB6D019308BDE7
:105E70001802030008B5024B1B681B68019308BD9C
:105E80002C02030008B5024B1B685B68019308BD38
:105E90002C02030008B5024B1B689B68019308BDE8
:105EA0002C02030008B5024B1B68DB68019308BD98
:105EB0002C02030008B5024B1B681B69019308BD47
:105EC0002C02030008B5024B1B685B69019308BDF7
:105ED0002C02030008B5024B1B681B6B019308BD25
:105EE0002C02030008B5024B1B68DB68019308BD58
:105EF0002802030008B5024B1B689B69019308BD8B
:105F00002802030008B5024B1B68DB69019308BD3A
:105F10002802030008B5024B1B681B6A019308BDE9
:105F20002802030008B5024B1B685B6A019308BD99
:105F30002802030008B5024B1B689B6A019308BD49
:105F40002802030008B5024B1B68DB6A019308BDF9
:105F50002802030008B5024B1B681B6B019308BDA8
:105F60002802030008B5024B1B685B6B019308BD58
:105F70002802030008B5024B1B681B6C019308BD87
:105F80002802030008B5024B1B689B6C019308BDF7
:105F90002802030008B5024B1B68DB6C019308BDA7
:105FA0002802030008B5024B1B681B6D019308BD56
:105FB0002802030008B5024B1B685B69019308BD0A
:105FC0006402030008B5024B1B689B68019308BD7F
:105FD0006802030008B5024B1B68DB68019308BD2B
:105FE0006802030008B5024B1B68DB69019308BD1A
:105FF0003002030008B5024B1B681B6A019308BD01
:106000003002030008B5024B1B681B68019308BDF2
:106010003C02030008B5024B1B68DB68019308BD16
:106020003C02030008B5024B1B681B69019308BDC5
:106030003C02030008B5024B1B685B69019308BD75
:106040003C02030008B5024B1B689B69019308BD25
:106050003C02030008B5024B1B68DB69019308BDD5
:106060003C02030008B5024B1B681B6A019308BD84
:106070003C02030008B5024B1B689B6A019308BDF4
:106080003C02030008B5024B1B681B68019308BD66
:106090004C02030008B5024B1B681B69019308BD45
:1060A0004C02030008B5024B1B685B69019308BDF5
:1060B0004C02030008B5024B1B689B69019308BDA5
:1060C0004C02030008B5024B1B68DB69019308BD55
:1060D0004C02030008B5024B1B681B6A019308BD04
:1060E0004C02030008B5024B1B685B6B019308BDB3
:1060F0006002030008B5024B1B681B6D019308BDCD
:106100006002030008B5034B1B68D3F89830019375
:1061100008BD00006002030008B5024B1B681B6845
:10612000019308BD2002030008B5024B1B685B68A1
:10613000019308BD2002030008B5024B1B685B6990
:10614000019308BD2002030008B5024B1B689B6940
:10615000019308BD2002030008B5024B1B68DB6AEF
:10616000019308BD2002030008B5024B1B68DB6CDD
:10617000019308BD2002030008B5024B1B685B6D4C
:10618000019308BD2002030008B5024B1B689B6DFC
:10619000019308BD2002030008B5034B1B68D3F828
:1061A0008830019308BD00002002030008B5034BAE
:1061B0001B68D3F89430019308BD0000200203004F
:1061C00008B5034B1B68D3F8A830019308BD000045
:1061D0002002030008B5034B1B68D3F8AC300193D1
:1061E00008BD00002002030008B5024B1B681B68B5
:1061F000019308BD4402030008B5024B1B685B68AD
:10620000019308BD4402030008B5024B1B689B685C
:10621000019308BD4402030008B5024B1B68DB680C
:10622000019308BD4402030008B5024B1B681B69BB
:10623000019308BD4402030008B5024B1B685B696B
:10624000019308BD4402030008B5024B1B68DB69DB
:10625000019308BD4402030008B5024B1B681B6A8A
:10626000019308BD4402030008B5024B1B685B6A3A
:10627000019308BD4402030008B5024B1B68DB6AAA
:10628000019308BD4402030008B5024B1B681B6B59
:10629000019308BD4402030008B5024B1B68DB6B89
:1062A000019308BD4402030008B5024B1B685B68FC
:1062B000019308BD4002030008B5024B1B689B68B0
:1062C000019308BD4002030008B5024B1B68DB6860
:1062D000019308BD4002030008B5024B1B681B690F
:1062E000019308BD4002030008B5024B1B685B69BF
:1062F000019308BD4002030008B5024B1B689B696F
:10630000019308BD4002030008B5024B1B68DB691E
:10631000019308BD4002030008B5024B1B681B6ACD
:10632000019308BD4002030008B5024B1B681B6BBC
:10633000019308BD4002030008B5024B1B685B6B6C
:10634000019308BD4002030008B5024B1B681B689F
:10635000019308BD1C02030008B5024B1B685B6873
:10636000019308BD1C02030008B5024B1B689B6823
:10637000019308BD1C02030008B5024B1B689B6912
:10638000019308BD1C02030008B5024B1B68DB69C2
:10639000019308BD1C02030008B5024B1B68DB6AB1
:1063A000019308BD1C02030008B5024B1B681B6B60
:1063B000019308BD1C0203008A4230B507D0039D3B
:1063C000441AED1A6C43521A94FBF2F4E01830BDF3
:1063D0000021FFF7B1BE10B5836804460BB901F088
:1063E0004EFDC3689847A3681BB10322214620468F
:1063F000984720461021BDE8104001F024BD10B59B
:106400000446006808B1FFF7BDFC204610BD0B68CC
:10641000036013B15A6801325A60704710B5064CD8
:10642000002320462360FFF7A5FC2046034A0449C9
:10643000BDE8104001F002BD30E30320C0E10320BD
:10644000FF630D00002211464068FFF745BF0022A0
:1064500011464068FFF760BF002211464068FFF711
:106460006BBF00224068FFF75FBF002281F001018F
:106470004068FFF749BF00231A4619464068FFF7F6
:106480003BBF00231A4619464068FFF72DBF002284
:1064900011464068FFF710BF002202214068FFF755
:1064A00013BF00231A464068FFF7FEBEF0B51B4B32
:1064B000036000250F462833182689B043608560A5
:1064C000C560324629460446103002F0DAFB2A46FF
:1064D00029467868FFF700FF08B9A0601BE029464D
:1064E000324602A80095019502F0CBFB02A968464E
:1064F000ADF80860FFF7E6FB10B10123A3600AE0E6
:10650000009B019AA360E2600BB90223A36002A979
:10651000204600F089F8204609B0F0BD3C9C0D00F3
:1065200038B5084C28252A460021204602F0A9FB50
:106530004FF0FF336360044B258004225A60034A06
:106540001A6038BD3CE3032034E30320089C0D00AF
:106550007047007D70470000037D1BB18369B3F174
:10656000004F02D19FED050A704707EE903A9FED6C
:10657000047AF8EEE77A87EE870A70470000000099
:106580000000C842037D1BB1036AB3F1004F02D182
:106590009FED050A704707EE903A9FED047AF8EEFA
:1065A000E77A87EE870A7047000000000000C842C3
:1065B00010B52821044601F046FC204610BD00001D
:1065C000037D7BB1436A002B0CDB07EE903ADFEDD5
:1065D000076A9FED070AB8EEE77AC7EE267A27EE3C
:1065E000800A7047BFEE000A704700BF00FF7F4778
:1065F0000000C842037D7BB1C369002B0CDB07EEB2
:10660000903ADFED076A9FED070AB8EEE77AC7EE2A
:10661000267A27EE800A7047BFEE000A704700BF57
:1066200000FF7F470000C84230B50D4600F110045E
:106630000FCD0FC495E8030084E80300012030BDAE
:106640002DE9F04107460C4615462AB90368C9B240
:106650009B68BDE8F0411847002907DA0A2A05D1EE
:106660002D2100F0A3FE6142064601E021460026EE
:10667000EAB2384600F0B3FE3044BDE8F08170B5B0
:106680000D4606460A2281682846FFF7D9FF2C21CD
:106690000446284600F08AFE0A220444F16828468F
:1066A000FFF7CEFF204470BDA0F10400FFF7E7BF65
:1066B00070470020704710B51021044601F0C3FB5D
:1066C000204610BD08B508B1FFF7F5FF08BD002250
:1066D000026010B54FF69C728280B1F9044084804C
:1066E0008A8002680C6804600A6010BD10B5044618
:1066F0000068FFF731FE204610BD38B5C468F4B11C
:106700002378022B03D104F10C00FFF7EFFF65683B
:1067100035B12846FDF741FD1021284601F093FBD5
:10672000A56835B12846FDF738FD1021284601F04F
:106730008AFB20461421BDE8384001F084BB38BDF7
:1067400010B588B00446684600F0D2FE694604A839
:1067500000F0F0FE04A8A047044604A800F081FE63
:10676000684600F07EFE204608B010BDF0B510244B
:1067700085B007460E46154600212246684602F0BF
:1067800080FA002269461046ADF800400297039651
:106790000195FFF731FD05B0F0BD13B5044691E852
:1067A000050000234B600B602060626001A801932C
:1067B0000093FEF76DF8204602B010BDF7B50C4609
:1067C00002AD54F8043B45F8083D06460F4601A8C3
:1067D0002146FFF71CFE29463046FFF7DEFF01A8E1
:1067E000FEF756F82046FEF753F83846082101F028
:1067F0002AFB304603B0F0BD13B50B46044603C870
:106800008DE8030093E8030084E803009DE803009B
:1068100083E8030002B010BD38B5002304460360CE
:1068200010200D46FDF739FC28B101234360836039
:10683000024B0360C5602060204638BD709C0D008F
:10684000826810B50AB901F01AFBC368BDE81040B0
:10685000184708B5006800F11001FFF7F1FF08BD07
:10686000826810B50AB901F00AFBC368BDE81040A0
:10687000184708B5006800F11001FFF7F1FF08BDE7
:1068800038B5002383608B6804460D462BB1022285
:106890009847EB68E360AB68A360204638BD000012
:1068A000F0B589B004686846FFF711FF00238DF842
:1068B00008304FF00202D4E84F3F002B03D1C4E868
:1068C000412F0029F7D102D08DF8083063E014F190
:1068D0000C0503D069462846FFF7F9FEBFF35F8F2A
:1068E00001236370002004F10803BFF35F8F53E8B6
:1068F000006F43E80002002AF9D1BFF35F8F002E3A
:1069000049D0FFF731FC20B129463046FFF798FF08
:106910003AE0314602A8FFF7B3FFE068B4F910503F
:1069200008B102F0F1F906901020ADF81C50FDF707
:10693000B4FB0546E8B1002787601820FDF7ADFBE2
:10694000044688B10146876002A8FFF755FF049B03
:10695000A268A360059B049206A9E268E36004F1C3
:1069600010000592FFF7B3FE0D4BEB600D4B2C6052
:10697000AB6006A8FFF7BAFE02A8FDF70EFC0022E6
:1069800029460948FFF7F8FB3046FDF706FC1021C1
:10699000304601F058FA6846FFF7A8FE09B0F0BD8E
:1069A00053680D00C96A0D00D7630D002DE9F04F43
:1069B0008BB006460F46904699469DF850A0FFF7CB
:1069C0003BFC07AD834630BB4FF62E73059005A9FF
:1069D0002846ADF81830FFF77AFE1420FDF75DFB6E
:1069E000044658B10223037001234370C0F804B079
:1069F000C0F808B029460C30FFF769FE3046214642
:106A000040F8044BFFF708FF2846FFF76FFE05A884
:106A1000FFF76CFE52E000240C2314206C60AC6085
:106A20000793FDF73AFB014618B1047044704460C7
:106A3000846004A80391FFF7EFFE224B089308201F
:106A4000FDF72BFB044628B1039B40F8043B04A947
:106A5000FFF7DDFC00955FFA8AF34A464146384667
:106A60000994FFF7F9FB20B9039B5B7803F0FF0261
:106A700083B1039B059304A906A8FFF7C8FC05A9E9
:106A80003046FFF78AFE06A8FDF702FF04A8FDF7CF
:106A9000FFFE13E04FF69C7305A903A80592ADF81D
:106AA0001830FFF7FDFE05A8FFF720FE05A809999D
:106AB000FFF784FE06A8FDF7EBFEDAE730460BB0E1
:106AC000BDE8F08F396C0D00022AF8B5044606D0F7
:106AD000032A17D0012A22D10B6803601FE0182077
:106AE0000E68FDF7DAFA054650B13146FFF7C8FEE9
:106AF0003069B6F9147008B102F006F92861AF8266
:106B000025600CE0046854B104F11000FFF7EEFDBD
:106B10002046FDF742FB1821204601F094F90020A1
:106B2000F8BD38B5002383608B6804460D462BB151
:106B300002229847EB68E360AB68A360204638BD4B
:106B4000022A70B5044606D0032A11D0012A18D1B2
:106B50000B68036015E014200E68FDF79EFA0546E9
:106B600020B13146FFF7DDFF337C2B74256008E050
:106B7000046834B12046FDF710FB1421204601F0D3
:106B800062F9002070BD0000F0B5002387B00C460C
:106B9000BFF35F8F50E8006F40E80032002AF9D160
:106BA000BFF35F8F002E3FD01846FFF7DDFA074690
:106BB00020B121463046FFF753FE2EE0314601A8B2
:106BC000FFF7AFFF23788DF814301020FDF765FA3A
:106BD0000546D0B187601420FDF75FFA044678B10E
:106BE0008760014601A8FFF707FE039BA268A36028
:106BF000049B0392E268E3609DF8143004922374CE
:106C00000A4BEB600A4B2C60AB6001A8FDF7C5FA9C
:106C1000002229460748FFF7AFFA3046FDF7BDFAD4
:106C20001021304601F00FF907B0F0BD73680D0078
:106C3000416B0D00D7630D0030B585B004460D469D
:106C400068461146FFF7BAFD7CB124B228460DB163
:106C500002F05AF8029002A96846ADF80C40FFF71E
:106C60001FFE02A8FFF742FD1DE000988DF80840C6
:106C70004FF00102D0E84F3FA34203D1C0E8412FBB
:106C80000029F7D102D08DF808300CE010F10C018A
:106C90004FF0010318BF0373BFF35F8F043000F898
:106CA000033CFFF771FF01A8FDF7F2FD05B030BD11
:106CB000002211464068FFF72FBB002211464068B2
:106CC000FFF73ABB00224068FFF72EBB002281F09D
:106CD00001014068FFF718BB00231A4619464068B7
:106CE000FFF70ABB00231A4619464068FFF7FCBAB3
:106CF000002211464068FFF7EFBA002211464068B3
:106D0000FFF7DABA002202214068FFF7DDBA00235C
:106D10001A464068FFF7C8BA024B03225A60024A7B
:106D20001A60704764E303208C9C0D007047F8B52F
:106D3000064615460C468F18BC4206D0336814F838
:106D4000011B9B6830469847F6E72846F8BD0022AD
:106D5000007CFFF7DFB80021007CFFF7E3B80021DB
:106D6000007CFFF7E7B80021007CFFF7EBB80021BB
:106D7000007CFFF7EFB810B51421044601F063F86A
:106D8000204610BD10B50446002363604FF47A73AB
:106D9000A360044B2174084623601146FFF7EAF80C
:106DA000204610BDC09C0D0000231A461946007CE9
:106DB000FFF798B870B50C4686B0142506462A46EB
:106DC000002101A801F05DFF23788DF80830636889
:106DD0000393E36804930022237A307CADF80450D7
:106DE00001A90593FFF7DEF806B070BD1FB50033AB
:106DF0008DF800104FF06401039118BF012369461C
:106E000001928DF80830FFF7D5FF05B05DF804FB5F
:106E10000123FFF7EBBF0022007CFFF76BB8C9B27C
:106E2000FFF7F9BF0022007CFFF76CB80121FFF7E4
:106E3000F9BF0021007CFFF795B808B50021007C60
:106E4000FFF7A0F8B0FA80F0400908BD08B50021AE
:106E5000007CFFF79FF8B0FA80F0400908BD70474A
:106E600010B51821044600F0EEFF204610BDF0B525
:106E7000037D062B8DB00E4600F104074FF0000491
:106E800002D000F1080518E00CAD394605F8304D88
:106E90002F232A460A20FFF78DF8284601F04FFFDE
:106EA00033680246DB682946304698470FE024B134
:106EB0002E21304600F07AFA044415F8011D0A220A
:106EC000304600F08CFABD420444F0D120460DB0AB
:106ED000F0BD000010B5054B0446112240F8043BFC
:106EE000002101F0CEFE204610BD00BFE89C0D0041
:106EF0000346074A10B543F8042B01F1100251F87C
:106F0000044B43F8044B9142F9D10A781A7010BD32
:106F1000E89C0D0010B59DF8084044EA032343EABD
:106F2000024242EA016104234160037510BD37B596
:106F30000D788B784A78C97800912946FFF7EAFFE7
:106F400003B030BD014B024A1A6070476CE3032066
:106F5000679D0D00002211464068FFF7DDB9002251
:106F600011464068FFF7E8B900224068FFF7DCB936
:106F7000002281F001014068FFF7C6B900231A46DC
:106F800001214068FFF7B8B900231A461946406846
:106F9000FFF7AAB9002211464068FFF79DB9002209
:106FA00011464068FFF788B9002202214068FFF7C8
:106FB0008BB900231A464068FFF776B938B5054605
:106FC00088B104684CB1A3681BB103222146204656
:106FD00098471021204600F036FF28461421BDE8CE
:106FE000384000F030BF38BD10B103685B68184707
:106FF000704710B503680446BBB15868FEF772FECF
:1070000078B923685A7C12B95868FEF77BFE23686A
:107010005868FEF77FFE20680023236028B1FFF741
:10702000CDFF206808B1FFF7C9FF204610BD38B575
:107030000446D0F8C40108B1FDF733F8D4F8C00114
:1070400008B1FEF79FFED4F8BC5135B12846FFF7D2
:10705000D0FF0421284600F0F6FE206808B1FFF7B3
:10706000C3FF204638BD000010B5044B044640F86D
:10707000083BFFF7DCFF204610BD00BFD89D0D0088
:1070800038B50E4C0E4B23600025022304F5E47046
:107090006360A560C4F8C451C4F8C851FEF76AFE25
:1070A000084BC4F8CC5184F8D05123602046064ADE
:1070B0000649BDE8384000F0C1BE00BF70E30320C0
:1070C0000C9E0D00D89D0D00C0E1032069700D00DD
:1070D00000231A464068FFF7E7B800220221406803
:1070E000FFF7F2B8002211464068FFF7E5B800222A
:1070F00011464068FFF7F0B800231A461946406869
:10710000FFF7F2B800231A4619464068FFF7F4B8B3
:10711000002281F001014068FFF7F6B800224068C4
:10712000FFF702B9002211464068FFF705B90022B7
:1071300011464068FFF7F0B82DE9F043002495B000
:1071400016460D460746FFF7C5FE214620220CA82D
:10715000009401F096FD40230C9321466B460CAA47
:107160003046FEF737FF0446002844D1024601218D
:107170006868FFF7B1F80221804622466868FFF789
:10718000ABF8009E81462146002E34D0002932D132
:107190007368022B02D00A2B09D02AE0B8F1000F45
:1071A00027D0716938460431FFF7C1FE20E0B9F1FC
:1071B000000F1ED07469112201A801F062FD0623A0
:1071C0008DF8143001AD04F10803183418685968BB
:1071D0002A4603C20833A3421546F7D101A906A8DF
:1071E00007ADFFF785FE0FCD3C1D0FC42B68237044
:1071F0000121F669C8E70098FEF7E4FE384615B0AD
:10720000BDE8F083024B034A1A6000225A607047BF
:1072100044E503200C9E0D0008B500F0E9FDBDE833
:107220000840FFF70ABE10B50446017009B1FFF728
:10723000F3FF204610BD08B500F0DAFDBDE80840B8
:10724000FFF704BE10B5037804460BB1FFF7F3FF58
:10725000204610BD10B504460068FFF7ECFF20463D
:1072600010BD37B502AC0D4644F8040DFFF7D4FF4E
:1072700000F0BEFD6B21FFF7D2FD00F0B9FD036801
:1072800029469B68984700F0B3FD0121FFF7CAFD2E
:1072900000F0AEFD01231A466B21FFF7A7FD00F0B9
:1072A000A7FD03685B69984705462046FFF7D2FFB4
:1072B000E8B203B030BD73B502AC15460E4644F8D3
:1072C000040DFFF7A9FF00F093FD6B21FFF7A7FD69
:1072D00000F08EFD036831469B68984700F088FDFA
:1072E000036829469B68984700F082FD0121FFF75B
:1072F00099FD2046FFF7AEFF02B070BD37B502AC76
:10730000054644F8040DFFF787FF01212846FFF7E3
:10731000A8FF012100F0CF022846FFF7CCFF20464E
:10732000FFF798FF012003B030BD37B502AC05462A
:1073300044F8040DFFF770FF01212846FFF791FF85
:1073400000F0CF0242F0100201212846FFF7B3FF00
:107350002046FFF77FFF012003B030BDFFF7E5BFF8
:10736000F8B506460D468F180024BD420CD0336890
:1073700015F8011B9B6830469847002801DB044440
:10738000F3E7002C08BF04462046F8BD70B505465B
:107390000C46084649B101F0D2FC2B680246214652
:1073A0002846DB68BDE87040184770BD03689B68DD
:1073B000184738B50D210546FFF7F8FF0A210446A6
:1073C0002846FFF7F3FF204438BD38B50546FFF7E0
:1073D000DDFF04462846FFF7ECFF204438BD30B5FA
:1073E0008BB00B4600218DF82410012A98BF0A2289
:1073F0000DF12304B3FBF2F505FB123303F0FF0399
:10740000092B94BF30333733DBB2214604F80139FE
:107410002B46002DEED1FFF7B9FF0BB030BD10B5F4
:107420000446FCF7BAFE204610BD00000348044A9B
:1074300004490023836000F001BD00BF4CE5032038
:10744000C0E103201F740D0010B50446017008460A
:10745000FEF7C8FD00236360204610BD0078FEF7EC
:10746000C9BD10B504460068FEF776FF204610BD82
:1074700010B50446006808B1FEF76EFF00232360D4
:10748000A360636010BD38B504460D460068013145
:10749000FEF76AFF10B184E82100012038BD10B565
:1074A0000368044613B143688B4207D22046FFF7B6
:1074B000EAFF20B1A3680BB922681370012010BD48
:1074C00070B50E46114604461546FFF7E8FF18B999
:1074D0002046FFF7CDFF09E02A463146A560206827
:1074E00001F0C4FB2268A3680021D154204670BD7E
:1074F00038B50023044603604360836003730D4680
:1075000039B1084601F01BFC294602462046FFF728
:10751000D7FF204638BD884210B50B46044607D039
:10752000096819B19A68FFF7CBFF01E0FFF7A0FFE8
:10753000204610BD10B500230446036043608360FD
:107540000373FFF7E8FF204610BD08B582680B46BD
:1075500012B919B9012008BD11B90368187802E001
:10756000006801F0BFFBB0FA80F0400908BD70B5BB
:107570000E469AB191B185689D4202D800230B70E6
:1075800070BD541EED1A0168AC4228BF2C46194448
:107590002246304601F0F0FB0023335570BD10B594
:1075A0000446006818B1FEF7D7FE0023236010BD23
:1075B00038B5B1F9043083800B460D4653F8062FD9
:1075C000C0F806209B8843810446FFF7E8FF2B683C
:1075D00013B1236000232B60204638BDB1F904307D
:1075E00010B50BB90A689AB10C685CB1A288012A7F
:1075F00003D0042A06D1022205E0A4894C818A71B5
:107600000B8105E004220B814FF6FF738A714B81D9
:1076100051F8063F03608B88838010BD38B50C4657
:107620000546FFF7BCFF44B12088FEF78DFE2860B9
:1076300028B12288214601F019FB002038BD0148FD
:1076400038BD00BFFCFEFFFF014600228C20FEF784
:10765000B1BB0020FFF7F8BFF0B5304D0B7D0446FD
:107660008BB00846AF1D13B30B681B79FBB100222A
:107670004FF6FF7302A904300292ADF80C208DF88A
:107680000E20ADF81020ADF81230FEF7A3FD0AABC6
:1076900000B253F81A2DADF80C009B88A880C5F8ED
:1076A00006200299BB802846FFF7B8FF1CE0202384
:1076B000002602931A4B00931A4903963346322050
:1076C00002AAFEF717FD4FF6FF73ADF8123002A9BC
:1076D0004FF6F263114802968DF80E60ADF8106017
:1076E000ADF80C30FFF764FF02A8FFF758FF002346
:1076F0002360A380A37123814FF6FF736381B5F9E3
:107700000430A3803B68C4F80630BB8863812968D5
:107710002046FFF783FF20460BB0F0BD5CE5032059
:107720003F9E0D00389E0D0030B5044685B00846DA
:1077300011461A460023FEF707FD0D4DADF80C006B
:10774000002301A90193ADF808308DF80A302846CE
:107750004FF6FF73ADF80E30FFF72AFF01A8FFF7D1
:107760001EFF20462946FFF739FF204605B030BDF1
:107770005CE5032010B5094C00204FF6FF73206034
:10778000A080A07120816381FEF7CEFC2046044AD0
:107790000449BDE8104000F051BB00BF5CE5032088
:1077A000C0E103208B410D00F0B5144B144F1E684F
:1077B000144B064418683B6806449E428BB01BD0AD
:1077C0000AA801AD40F8286D01F058F9436903F2A9
:1077D0006C73436104460FCC0FC50FCC0FC5D4F8B2
:1077E00000E0C5F800E001AD0FCD074C0FC40FCD90
:1077F0000FC43E60C4F800E00BB0F0BD98E5032074
:1078000094E5032090E5032068E5032008B50020F7
:10781000FEF73AFD28B1FEF70FFD80F00100C0B27F
:1078200008BD012008BD10B50020FEF713FB04467B
:1078300068B9FEF771FC01280BD12046FEF7A4FCC5
:1078400038B9FFF7E3FF30B9FEF7DEFCF9E70120B6
:1078500010BD002010BDFFF7D9FF0020FEF7FAFA97
:10786000003018BF012010BD08B5FFF7DCFFBDE8F0
:107870000840FEF7C7BA000008B5FFF7F5FFFFF7AD
:1078800093FF014B986808BD68E5032008B5FFF732
:10789000EBFFFFF789FF014B586808BD68E503203F
:1078A000024B1A68024B1A60704700BF08E10320C0
:1078B0008CE5032070474174704708B5007CFEF7E3
:1078C000D9FB20EAE07008BD08B5007CFEF7AAFBF2
:1078D00020EAE07008BD08B5007CFEF7B3FB30EA93
:1078E000200028BF4FF0FF3008BD08B5007CFEF730
:1078F000A1FB30EA200028BF4FF0FF3008BD007C1C
:10790000FEF7A8BB10B51421044600F09CFA2046EF
:1079100010BD70B5457C04460E4625B9007CFEF7C7
:10792000A9FB002805DD3146207CBDE87040FEF74C
:1079300071BB284670BD000010B5044608461146CC
:10794000002262604FF47A72A260054A226001222E
:10795000207462741A46FEF755FB204610BD00BF26
:10796000989E0D00007CFEF77DBB000038B50C4DE5
:10797000296811F0010411D12846FCF794FB68B185
:10798000084A094B09482146FFF7D6FF2846FCF76D
:107990008FFB074A0749054800F050FA034838BDF5
:1079A00034E6032038E60320B0E503209CE50320FD
:1079B000C0E10320B5780D0041747047704708B5E9
:1079C0000021007CFEF776FB30EA200028BF4FF054
:1079D000FF3008BD08B50121007CFEF76BFB30EAE3
:1079E000200028BF4FF0FF3008BD08B5007CFEF72F
:1079F00059FB20EAE07008BD08B5007CFEF74AFBA1
:107A000020EAE07008BD007CFEF764BB10B51421CD
:107A1000044600F018FA204610BD38B50446007C34
:107A20000D46FEF73FFB002801DC607C28B12946AB
:107A3000207CFEF747FB20EAE07038BD10B5044615
:107A4000002363604FF47A73A360054B2360012326
:107A50000846217463741146FEF714FB204610BDDE
:107A6000C89E0D0010B514220446002101F009F94A
:107A7000204610BD30B50E4D87B001A8FFF7F2FFCC
:107A8000296811F0010410D12846FCF70CFB60B105
:107A900001AA21460748FFF7D1FF2846FCF708FB5B
:107AA000054A0649034800F0C9F9024807B030BD4D
:107AB000BCE60320C0E60320C0E10320BD790D0031
:107AC00008B50C4B33B1FFF7D5FF03681B69984726
:107AD000002809DC084B63B1FFF748FF03681B6906
:107AE0009847002803DC08BDAFF30080F2E7AFF34E
:107AF000008008BD000000000000000008B5FFF78E
:107B0000DFFFFEF777F9014B186008BDE8E60320B8
:107B10000248034A0349121A01F0A8B800F40320EE
:107B200004F4032030A10D0007B5002300931A468A
:107B30006FF07701FEF73AFB03B05DF804FB00003D
:107B400007B543880A2B08D0502B09D1094B1B6875
:107B50003BB103B05DF804EB1847FFF7E5FF06E023
:107B6000002300931A466FF07701FEF71FFB03B066
:107B70005DF804FBD4E6032038B5104C104D2368A3
:107B8000AB42104B0CBF012200221A7002D0FFF74B
:107B9000BFFF2560FEF71EF9044601F07BF80A4B93
:107BA00013B12046AFF3008000210748FEF774FBB5
:107BB00000210648BDE83840FEF7EEBA00F4032085
:107BC0001E1C279AD8E6032000000000417B0D0010
:107BD00008B5024B1B681B68019308BD5C020300DB
:107BE00008B5024B1B685B68019308BD5C0203008B
:107BF00008B5024B1B689B68019308BD5C0203003B
:107C000070B5184E316811F0010504460AD13046AE
:107C1000FCF749FA30B129461348FFF715FC304606
:107C2000FCF746FA1048FFF719FC28B1A4F10B0342
:107C3000022B01D8002070BD00F0B4F8FFF7F9F86E
:107C400008B1012CF6D9FFF791FEFFF78BFE18B1B2
:107C5000A4F10903012BEDD9232C8CBF00200120B6
:107C600070BD00BFDCE60320E0E60320232838B522
:107C700004460D460AD8FF2908D0FFF7C1FF28B1F6
:107C800029462046BDE83840FEF704B938BD38B56E
:107C900004460D46FEF706F9FF2810D0062804D842
:107CA0004D2323FA00F0C30709D42046FFF7A8FFAD
:107CB00028B129462046BDE83840FEF7FBB838BD5C
:107CC00010B50446FEF7EEF80438C0B2012808D912
:107CD0002046FFF795FF20B12046BDE81040FEF793
:107CE000F1B8002010BD0D2810B504469CBF0E341D
:107CF000A4B22046FFF784FF50B103212046FEF7CF
:107D0000C1F8032804D12046BDE81040FEF7E2B8D0
:107D1000002010BD10B5074C2368DB0708D42046AF
:107D2000FCF7C1F920B1FEF775F82046FCF7C0F961
:107D3000014810BDECE60320F0E6032070B50446D0
:107D400014252A46094E002100F09BFF258020259E
:107D50003146A5602561284600F08FF83146606005
:107D6000284600F08AF8E060204670BDF09E0D00C5
:107D700070B5044614252A46094E002100F081FF03
:107D8000258020253146A5602561284600F075F83C
:107D900031466060284600F070F8E060204670BD13
:107DA000F09E0D0030B50E4D296811F0010487B02A
:107DB00013D12846FCF777F978B101A8FFF7BEFF89
:107DC00001AA21460748FEF7DDFF2846FCF770F9B7
:107DD000054A0649034800F031F8024807B030BDB3
:107DE000F4E603200CE70320C0E103202D6D0D0015
:107DF00010B50E4C2368DB0786B013D42046FCF781
:107E000052F978B101A8FFF7B3FF01AA0121084890
:107E1000FEF7B8FF2046FCF74BF9064A064904482E
:107E200000F00CF8024806B010BD00BF20E70320A8
:107E3000F8E60320C0E103202D6D0D000B4601463E
:107E4000184600F00DBEFCF72AB90000024B186876
:107E5000BFF35F8F704700BF24E7032010B50028F1
:107E600014BF044601242046FEF76EFA20B9FFF73E
:107E7000EDFF08B18047F6E710BDFFF7EFBF08B58B
:107E8000FEF78AFA244B1A68D0075CBF01221A60F9
:107E9000224B1A68D1075CBF01221A60204B1A6876
:107EA000D2075CBF01221A601E4B1A68D0075CBF64
:107EB00001221A601C4B1A68D1075CBF01221A60AC
:107EC0001A4B1A68D2075CBF01221A60184B1A6855
:107ED000D0075CBF01221A60164B1A68D1075CBF3D
:107EE00001221A60144B1A68D2075CBF01221A6083
:107EF000124B1A68D0075CBF01221A60104B1A6837
:107F0000D1075CBF01221A600E4B1A68D2075CBF12
:107F100001221A60704700BF54E7032050E7032096
:107F20004CE7032048E7032044E7032040E7032011
:107F30003CE7032038E7032034E7032030E7032041
:107F40002CE7032028E70320184B1A68D1075CBFF1
:107F500001221A60164B1A68D2075CBF01221A6010
:107F6000144B1A68D0075CBF01221A60124B1A68C2
:107F7000D1075CBF01221A60104B1A68D2075CBFA0
:107F800001221A600E4B1A68D0075CBF01221A60EA
:107F90000C4B1A68D1075CBF01221A600A4B1A68A1
:107FA000D2075CBF01221A60704700BF74E703204C
:107FB00070E703206CE7032068E7032064E70320F1
:107FC00060E703205CE7032058E70320184B1A689A
:107FD000D1075CBF01221A60164B1A68D2075CBF3A
:107FE00001221A60144B1A68D0075CBF01221A6084
:107FF000124B1A68D1075CBF01221A60104B1A6835
:10800000D2075CBF01221A600E4B1A68D0075CBF12
:1080100001221A600C4B1A68D1075CBF01221A605A
:108020000A4B1A68D2075CBF01221A60704700BF72
:1080300094E7032090E703208CE7032088E70320E0
:1080400084E7032080E703207CE7032078E7032010
:10805000244B1A68D0075CBF01221A60224B1A68B1
:10806000D1075CBF01221A60204B1A68D2075CBF9F
:1080700001221A601E4B1A68D0075CBF01221A60E9
:108080001C4B1A68D1075CBF01221A601A4B1A6890
:10809000D2075CBF01221A60184B1A68D0075CBF78
:1080A00001221A60164B1A68D1075CBF01221A60C0
:1080B000144B1A68D2075CBF01221A60124B1A686F
:1080C000D0075CBF01221A60104B1A68D1075CBF51
:1080D00001221A600E4B1A68D2075CBF01221A6097
:1080E000704700BFC4E70320C0E70320BCE70320BC
:1080F000B8E70320B4E70320B0E70320ACE7032090
:10810000A8E70320A4E70320A0E703209CE70320BF
:1081100098E7032081F0004102E000BF83F00043B4
:1081200030B54FEA41044FEA430594EA050F08BF12
:1081300090EA020F1FBF54EA000C55EA020C7FEAD6
:10814000645C7FEA655C00F0E2804FEA5454D4EB53
:108150005555B8BF6D420CDD2C4480EA020281EA1D
:10816000030382EA000083EA010180EA020281EA55
:108170000303362D88BF30BD11F0004F4FEA0131A7
:108180004FF4801C4CEA113102D0404261EB4101B6
:1081900013F0004F4FEA03334CEA133302D052423C
:1081A00063EB430394EA050F00F0A780A4F10104F8
:1081B000D5F1200E0DDB02FA0EFC22FA05F2801832
:1081C00041F1000103FA0EF2801843FA05F3594118
:1081D0000EE0A5F120050EF1200E012A03FA0EFC97
:1081E00028BF4CF0020C43FA05F3C01851EBE371C1
:1081F00001F0004507D54FF0000EDCF1000C7EEBDE
:1082000000006EEB0101B1F5801F1BD3B1F5001F1B
:108210000CD349085FEA30004FEA3C0C04F101043A
:108220004FEA445212F5800F80F09A80BCF1004F63
:1082300008BF5FEA500C50F1000041EB045141EAE5
:10824000050130BD5FEA4C0C404141EB010111F4E6
:10825000801FA4F10104E9D191F0000F04BF014691
:108260000020B1FA81F308BF2033A3F10B03B3F16F
:1082700020020CDA0C3208DD02F1140CC2F10C02FF
:1082800001FA0CF021FA02F10CE002F11402D8BF5D
:10829000C2F1200C01FA02F120FA0CFCDCBF41EA29
:1082A0000C019040E41AA2BF01EB0451294330BDF8
:1082B0006FEA04041F3C1CDA0C340EDC04F11404D5
:1082C000C4F1200220FA04F001FA02F340EA0300AC
:1082D00021FA04F345EA030130BDC4F10C04C4F1F2
:1082E000200220FA02F001FA04F340EA03002946D2
:1082F00030BD21FA04F0294630BD94F0000F83F41C
:10830000801306BF81F480110134013D4EE77FEAFE
:10831000645C18BF7FEA655C29D094EA050F08BF4A
:1083200090EA020F05D054EA000C04BF194610462B
:1083300030BD91EA030F1EBF0021002030BD5FEA6F
:10834000545C05D14000494128BF41F0004130BD97
:1083500014F580043CBF01F5801130BD01F00045EB
:1083600045F0FE4141F470014FF0000030BD7FEA5E
:10837000645C1ABF194610467FEA655C1CBF0B4659
:10838000024650EA013406BF52EA033591EA030F70
:1083900041F4002130BD00BF90F0000F04BF002168
:1083A000704730B54FF4806404F132044FF000059B
:1083B0004FF0000150E700BF90F0000F04BF002114
:1083C000704730B54FF4806404F1320410F000457A
:1083D00048BF40424FF000013EE700BF42004FEA75
:1083E000E2014FEA31014FEA02701FBF12F07F43F2
:1083F00093F07F4F81F06051704792F0000F14BFEF
:1084000093F07F4F704730B54FF4607401F0004532
:1084100021F0004120E700BF50EA010208BF704789
:1084200030B54FF000050AE050EA010208BF70477E
:1084300030B511F0004502D5404261EB41014FF4E7
:10844000806404F132045FEA915C3FF4DCAE4FF0EB
:1084500003025FEADC0C18BF03325FEADC0C18BFD2
:10846000033202EBDC02C2F1200300FA03FC20FA23
:1084700002F001FA03FE40EA0E0021FA02F1144470
:10848000C1E600BF70B54FF0FF0C4CF4E06C1CEA85
:1084900011541DBF1CEA135594EA0C0F95EA0C0FFA
:1084A00000F0DEF82C4481EA030621EA4C5123EA6D
:1084B0004C5350EA013518BF52EA033541F480119C
:1084C00043F4801338D0A0FB02CE4FF00005E1FB4F
:1084D00002E506F00042E0FB03E54FF00006E1FB99
:1084E00003569CF0000F18BF4EF0010EA4F1FF04DC
:1084F000B6F5007F64F5407404D25FEA4E0E6D411C
:1085000046EB060642EAC62141EA55514FEAC5202C
:1085100040EA5E504FEACE2EB4F1FD0C88BFBCF5A8
:10852000E06F1ED8BEF1004F08BF5FEA500E50F159
:10853000000041EB045170BD06F0004646EA01011F
:1085400040EA020081EA0301B4EB5C04C2BFD4EB51
:108550000C0541EA045170BD41F480114FF0000E4A
:10856000013C00F3AB8014F1360FDEBF002001F0B8
:10857000004170BDC4F10004203C35DA0C341BDC32
:1085800004F11404C4F1200500FA05F320FA04F004
:1085900001FA05F240EA020001F0004221F0004138
:1085A00010EBD37021FA04F642EB06015EEA430EAB
:1085B00008BF20EAD37070BDC4F10C04C4F12005DB
:1085C00000FA04F320FA05F001FA04F240EA02008E
:1085D00001F0004110EBD37041F100015EEA430E5F
:1085E00008BF20EAD37070BDC4F1200500FA05F27F
:1085F0004EEA020E20FA04F301FA05F243EA0203FE
:1086000021FA04F001F0004121FA04F220EA02000C
:1086100000EBD3705EEA430E08BF20EAD37070BD52
:1086200094F0000F0FD101F00046400041EB010132
:1086300011F4801F08BF013CF7D041EA060195F014
:10864000000F18BF704703F00046520043EB0303CE
:1086500013F4801F08BF013DF7D043EA06037047BB
:1086600094EA0C0F0CEA135518BF95EA0C0F0CD0C6
:1086700050EA410618BF52EA4306D1D181EA03010C
:1086800001F000414FF0000070BD50EA410606BF06
:108690001046194652EA430619D094EA0C0F02D14B
:1086A00050EA013613D195EA0C0F05D152EA033690
:1086B0001CBF104619460AD181EA030101F00041AE
:1086C00041F0FE4141F470014FF0000070BD41F0F7
:1086D000FE4141F4780170BD70B54FF0FF0C4CF4D1
:1086E000E06C1CEA11541DBF1CEA135594EA0C0FF0
:1086F00095EA0C0F00F0A7F8A4EB050481EA030E3D
:1087000052EA03354FEA013100F088804FEA033323
:108710004FF0805545EA131343EA12634FEA0222F1
:1087200045EA111545EA10654FEA00260EF00041B2
:108730009D4208BF964244F1FD0404F5407402D204
:108740005B084FEA3202B61A65EB03055B084FEA95
:1087500032024FF480104FF4002CB6EB020E75EB92
:10876000030E22BFB61A754640EA0C005B084FEABA
:108770003202B6EB020E75EB030E22BFB61A754637
:1087800040EA5C005B084FEA3202B6EB020E75EB82
:10879000030E22BFB61A754640EA9C005B084FEAFA
:1087A0003202B6EB020E75EB030E22BFB61A754607
:1087B00040EADC0055EA060E18D04FEA051545EAF6
:1087C00016754FEA06164FEAC30343EA52734FEA9F
:1087D000C2025FEA1C1CC0D111F4801F0BD141EA18
:1087E00000014FF000004FF0004CB6E711F4801F7D
:1087F00004BF01430020B4F1FD0C88BFBCF5E06F5D
:108800003FF6AFAEB5EB030C04BFB6EB020C5FEA6C
:10881000500C50F1000041EB045170BD0EF0004EC1
:108820004EEA113114EB5C04C2BFD4EB0C0541EAF3
:10883000045170BD41F480114FF0000E013C90E6F0
:1088400045EA060E8DE60CEA135594EA0C0F08BFB4
:1088500095EA0C0F3FF43BAF94EA0C0F0AD150EAB3
:1088600001347FF434AF95EA0C0F7FF425AF104646
:1088700019462CE795EA0C0F06D152EA03353FF46E
:10888000FDAE1046194622E750EA410618BF52EAEB
:1088900043067FF4C5AE50EA41047FF40DAF52EABF
:1088A00043057FF4EBAE12E74FF0FF3C06E000BF5C
:1088B0004FF0010C02E000BF4FF0010C4DF804CD69
:1088C0004FEA410C7FEA6C5C4FEA430C18BF7FEA29
:1088D0006C5C1BD001B050EA410C0CBF52EA430C57
:1088E00091EA030F02BF90EA020F0020704710F1D7
:1088F000000F91EA030F58BF994208BF90422CBF66
:10890000D8176FEAE37040F0010070474FEA410C5E
:108910007FEA6C5C02D150EA013C07D14FEA430C7C
:108920007FEA6C5CD6D152EA033CD3D05DF8040BED
:10893000704700BF8446104662468C46194663461F
:1089400000E000BF01B5FFF7B7FF002848BF10F1F6
:10895000000F01BD4DF808EDFFF7F4FF0CBF01203B
:1089600000205DF808FB00BF4DF808EDFFF7EAFFB7
:1089700034BF012000205DF808FB00BF4DF808ED72
:10898000FFF7E0FF94BF012000205DF808FB00BF67
:108990004DF808EDFFF7CEFF94BF012000205DF8F1
:1089A00008FB00BF4DF808EDFFF7C4FF34BF0120FE
:1089B00000205DF808FB00BF4FEA4102B2F1E0433E
:1089C00024BFB3F5001CDCF1FE5C0DD901F0004CB6
:1089D0004FEAC0024CEA5070B2F1004F40EB830006
:1089E00008BF20F00100704711F0804F21D113F132
:1089F0003872BCBF01F00040704741F480114FEA6B
:108A00005252C2F11802C2F1200C10FA0CF320FAF3
:108A100002F018BF40F001004FEAC1234FEAD32310
:108A200003FA0CFC40EA0C0023FA02F34FEA43037A
:108A3000CCE77FEA625307D150EA01331EBF4FF003
:108A4000FE4040F44000704701F0004040F0FE401E
:108A500040F40000704700BF0A22002100F026BA4F
:108A600010B5054C13462CB10A4601460220AFF35F
:108A7000008010BD204610BD0000000038B5074B37
:108A80001C68E36B05461BB92420FDF75DFCE06321
:108A9000E16B2846BDE8384000F002B870E10320E1
:108AA0002DE9F0410C46804600F006FD21460746C0
:108AB000404600F005FD466906F26C76B3070446B1
:108AC00005D1642296FBF2F302FB13634BB94FF41A
:108AD000C87596FBF5F305FB1365B5FA85F35B09DD
:108AE00000E001235F4A302505FB032500F018FB59
:108AF00000F018FB5C4B1B68F3B17B689E4205D10C
:108B00003968D8F80030FA6941B90AE0304600F017
:108B10005FFA0028F4D14FF0FF330DE0934208DBF9
:108B200001E0934207DABA6B9342ACBF0023012302
:108B300002E0002300E001232362236A012B0CBF23
:108B4000F96B396A4FF461633C2091FBF3F603FB48
:108B50001613616893FBF0F200FB12302368891A48
:108B6000A26861601B1A921B3B2B2360A26003DD8D
:108B7000013161603C3B04E0002B03DA01396160A4
:108B80003C33236063683B2B03DD0132A2603C3B36
:108B900004E0002B03DA013AA2603C336360A3686F
:108BA000172B22DDE2690132E261A2690132062A55
:108BB000C8BF0022A261E268183B0132A3602369AA
:108BC000E26055F823108A4246DD01330C2B0CBFBE
:108BD00063692361A2EB0102E26001BF013300225D
:108BE0002261636108BFE26136E0002B34DAE2699A
:108BF000013AE261A269013A48BF0622A261E26835
:108C00001833013AE260A36032BB2369013B01D40F
:108C100023611DE00B23236163695A1E12F0030FC9
:108C2000626103F26B7305D1642193FBF1F201FBE6
:108C300012324AB94FF4C87193FBF1F201FB1233BF
:108C4000B3FA83F35B0900E0012303F5B673E36134
:108C5000236955F82330E36000F063FA2046BDE84D
:108C6000F08100BF54A00D00E4E7032010B5431EBF
:108C70000A44914204D011F8014B03F8014FF8E780
:108C800010BD02440346934202D003F8011BFAE7E9
:108C90007047000038B5124B1C68A36B0546D3B96A
:108CA0001820FDF751FB43F20E33A06303804AF610
:108CB000CD33438041F2342383804EF26D63C38011
:108CC0004DF6EC630381052343810B23838101224D
:108CD0000023C0E90423A36B00221D615A6138BD43
:108CE00070E1032010F8012B11F8013B012A28BF85
:108CF0009A42F7D0D01A7047034611F8012B03F8B7
:108D0000012B002AF9D17047024B0146186800F088
:108D100003B800BF70E1032070B5064608460C4654
:108D200000F00DF8451C29463046FDF73DFB064690
:108D300018B12A462146FFF799FF304670BD034619
:108D400013F8012B002AFBD1181A0138704730B5EF
:108D500082B1451E013915F8013F11F8014FA342B8
:108D600006D1EC431444E04201D0002BF3D11C4661
:108D7000181B30BD104630BD10B5034642B111F886
:108D8000014B03F8014B013A002CF7D11A4400E0E3
:108D900010BD934202D003F8014BFAE710BD00006A
:108DA0002DE9F04780464048D0F800900F463D46F8
:108DB00015F8014B09EB0400407800F0080000F0C2
:108DC000FF0608B12F46F2E72D2C03D1BD1C7C789D
:108DD000012603E02B2C04BF7C78BD1C13B1102BA3
:108DE0000AD15BE0302C57D1287800F0DF005828FA
:108DF0004DD16C7810230235002E14BF4FF0004C7B
:108E00006FF0004C0027BCFBF3FA384603FB1ACC8A
:108E100009EB040E9EF801E01EF0040F01D0303C77
:108E20000BE01EF0030E1BD0BEF1010F0CBF4FF084
:108E3000370E4FF0570ECEEB0404A34210DDB7F10E
:108E4000FF3F0AD0504506D801D1644503DC03FB3F
:108E50000040012701E04FF0FF3715F8014BD7E73D
:108E60007B1C0CD1002E4FF0220314BF4FF00040AA
:108E70006FF00040C8F800302AB9BDE8F08706B1AD
:108E8000404272B107B1691E1160BDE8F08730241D
:108E9000002BB1D10823AFE70A23ADE7302CA3D0D4
:108EA000AAE7BDE8F08700BF0CE1032013460A469D
:108EB000014602480068FFF773BF00BF70E103205E
:108EC0002DE9F04780463C48D0F800900E463546E4
:108ED00015F8014B09EB0400407800F0080000F0A1
:108EE000FF0708B12E46F2E72D2C03D1B51C74788C
:108EF000012703E02B2C04BF7478B51C13B1102B91
:108F00000AD153E0302C4FD1287800F0DF005828E8
:108F100045D16C78102302354FF0FF3C0026BCFB96
:108F2000F3FC03FB0CFA6FEA0A0A304609EB040E65
:108F30009EF801E01EF0040F01D0303C0BE01EF063
:108F4000030E1AD0BEF1010F0CBF4FF0370E4FF0D9
:108F5000570ECEEB0404A3420FDD002E08DB604564
:108F600006D801D1544503DC03FB0040012601E093
:108F70004FF0FF3615F8014BD8E7002E07DA222311
:108F8000C8F800304FF0FF302AB9BDE8F08707B1CC
:108F9000404272B106B1691E1160BDE8F08730240D
:108FA000002BB9D10823B7E70A23B5E7302CABD0A3
:108FB000B2E7BDE8F08700BF0CE1032013460A4684
:108FC000014602480068FFF77BBF00BF70E1032045
:108FD0002DE9F74F044600F06FFA40F2B1739C425E
:108FE00040F396806FF4F663E318A4F2B2729B101C
:108FF00040F26D1505FB0235A4F26D726FF063034C
:1090000092FBF3F36FF4C8622B44A5184FF4C872B7
:1090100095FBF2F51D44642394FBF2F794FBF3F601
:1090200002FB174703FB164600F13803B7FA87FE29
:10903000019304F0030344604FEA5E1E014600936F
:109040004FF0070C0B7A4A2B0ED14B69009AEC18A3
:1090500002B906B927B93B2BD4BF0023012300E096
:1090600000232344013B3FE0442B02D14B692B44B6
:109070003AE0009B2BB9002E0CBFF0464FF00108E0
:1090800000E0F046244BCC68302202FB0838A8F1FF
:10909000040AA9460123A34204DA5AF804BF0133A3
:1090A000D944F8E709F1040393FBFCFBCBEBCB0AB3
:1090B000012CCAEB030A4B69B8BF012404F18044B8
:1090C000B3EB0A0A0B6904F1FF3403F1FF3348BF25
:1090D0000AF1070AC3EBC30358F824405344A342E0
:1090E00001DB073BFBE74B448C690C4A02FB034363
:1090F0000C6A234441F81C3F019B9942A2D1C369E9
:10910000826B9342ACBF002301230360012000E087
:10911000002003B0BDE8F08F54A00D008051010085
:1091200070477047014B186800F002B870E10320E7
:109130002DE9F04F8DB0074600F0BEF9B049B14EB1
:109140000446384600F0B0F9054660B9AE4BAF4A68
:109150001860AF4B1860AF4B30681A605A60FDF76B
:10916000FBF8356048E1316879B93068FDF7F4F80B
:109170002846FFF7E4FD411C3846FDF715F930603D
:1091800048B12946FFF7B8FD05E0FFF7ABFD002821
:1091900000F03281E9E72B789F4AA0493A2B08BFBB
:1091A00001350AAE33462846FDF7E6F8002840F3BD
:1091B00023810A9BEF18EB5C2D2B03D101374FF075
:1091C000FF3503E02B2B08BF013701250DF1200AE5
:1091D0000DF11E0B4FF000080396CDF808A0019684
:1091E000CDF800B0334607AA8D49ADF81E80384649
:1091F000ADF82080FDF7C0F8404540F3FD80BDF894
:109200001E20BDF82030DFF824923C2101FB023300
:10921000BDF81C204FF4616101FB02335D43256200
:109220007C4D7D4B2B600A9B7C491F444A4633464C
:109230003846FDF7A1F8404508DC2B686B60724B9F
:10924000226A1A60724BC3F80080D5E00A9BC5F809
:109250000490FD18FB5C2D2B03D101354FF0FF3737
:1092600003E02B2B08BF013501270023ADF81C308C
:10927000ADF81E30ADF820300A930396CDF808A063
:109280000196CDF800B0334607AA65492846FDF798
:1092900073F8002804DC236AA3F56163E3630EE03E
:1092A000BDF81E20BDF820303C2101FB0233BDF883
:1092B0001C204FF4616101FB02335F43E7630A9BAB
:1092C00027461D444FF000092B782C2B08BF013591
:1092D00095F80080B8F14D0F26D10DF126030293C9
:1092E00009AB00930396019633460DF122024D49D6
:1092F0002846FDF741F803287ED1BDF822104B1E09
:109300000B2B79D8BDF82420531E042B74D8BDF83C
:109310002630062B70D887F80880F9603A617B61A7
:109320000A9B05EB03082AE0B8F14A0F06BF013596
:10933000434644230A220BA928460593FFF73EFE25
:10934000DDF82C80ADF826004545059B14D14D2352
:10935000B9F1000F07D123720323E36002232361D5
:10936000C4F814900BE084F824300B23A36201238B
:10937000E3620023236302E080B23B727861022340
:10938000ADF81C300023ADF81E30ADF820300A9344
:1093900098F800302F2B0BD10396CDF808A001963A
:1093A000CDF800B0334607AA1F494046FCF7E4FF5A
:1093B000BDF81E20BDF820303C2101FB0233BDF872
:1093C0001C204FF4616101FB0233BB610A9D09F16E
:1093D0000109B9F1020F454407F11C077FF474AF8E
:1093E0006068FFF7F5FD084B226A1A60E36B9B1A71
:1093F000074A18BF012313600DB0BDE8F08F00BF0E
:10940000B4A00D00E0E70320E8E70320B7A00D00BB
:10941000E4E7032074E10320D3E70320BBA00D00A1
:10942000DEA00D00CAA00D00DDA00D00C8E70320DE
:109430002DE9F84F07468B46904600F0D9F8194BB6
:109440001D689A463DB15C46234613F8012B42B194
:109450003D2A1C46F8D1384600F0CBF80020BDE884
:10946000F88FCBEB0404A94659F8040B0028F2D07E
:1094700022465946FFF76BFC88B959F8043C1E197F
:109480001B5D3D2B0BD1DAF80030ED1AAD103846DC
:10949000C8F8005000F0ADF8701CBDE8F88F4D46DC
:1094A000E1E700BFBCE1032007B501AAFFF7C0FF59
:1094B00003B05DF804FB0000004870477CE1032026
:1094C0000268474BF0B592FBF3F403FB1422002A29
:1094D000BCBF02F5A83202F5C0724FF4616004F51A
:1094E0002F2492FBF0F300FB13224FF03C00ACBFA3
:1094F00004F66C2404F66B248B6092FBF0F300FB03
:1095000013224B600A600723E21C92FBF3F3C3EBC8
:10951000C303D31A8B61334B334D94FBF5F503FB37
:10952000054448F6AC62B4FBF2F2224440F2B45770
:10953000B4FBF7F3D21A2D48B4FBF0F048F694666A
:10954000131AB3FBF6F6344440F26D12B3FBF2F09B
:10955000B3FBF7F3E31A02FB1033992403EB830206
:109560000232B2FBF4F20A2A04FB02F404F102060E
:109570004FF00504B6FBF4F434BF02266FF0090681
:1095800016444FF4C87202FB05055F1C012E98BFFC
:109590000135B3F5997FA7EB040702D3A3F59972C0
:1095A00014E0820705D16424B0FBF4F204FB12023C
:1095B0004AB94FF4C872B0FBF2F402FB1400B0FADF
:1095C00080F2520900E001223B331A44A5F26C7587
:1095D0000023CA614D610E61CF600B620846F0BD89
:1095E000805101004FC5FDFFB13A0200B03A0200C0
:1095F0007047704721400D005D400D0089400D000F
:109600008D400D0000000000000000000000000080
:1096100025430D006D430D0029410D00819B0D0078
:10962000BC9B0D00C19B0D00C69B0D00CA9B0D008D
:10963000CF9B0D00D49B0D00D89B0D00E39B0D002C
:10964000EE9B0D00819B0D00899B0D008D9B0D00F5
:10965000969B0D009E9B0D00AA9B0D00B09B0D00DC
:1096600053746172747570205375636365737366A8
:10967000756C000000000000000000000000000009
:1096800000000000000000000000000000000000DA
:1096900000000000000000000000000000000000CA
:1096A00002000000257320533A25322E306625250E
:1096B0002C20513A25322E30662525200041542B8E
:1096C0004346554E3D31360D0A0025342E31662075
:1096D000430025342E31662025250025342E3166A1
:1096E000206C7578002569202525007B2254656D46
:1096F0007065726174757265223A25342E31662C5C
:10970000202248756D6964697479223A25342E31B6
:10971000662C20224C696768744C6576656C223A29
:1097200025342E31662C2022536F696C6D6F69735E
:109730007475726531223A25692C2022536F696C49
:109740006D6F69737475726532223A25692C202217
:1097500077617465725072657373757265223A250C
:10976000692C2022536F6C656E6F6964223A2569FB
:109770002C202262617474657279223A25692C204A
:10978000226B657931223A222573222C20225265E0
:1097900073657473223A25692C2022416C657274BA
:1097A00073223A25697D005277616E64612D53659D
:1097B0006E73652D416E642D436F6E74726F6C2DE8
:1097C000456C6173746963006167726963756C7479
:1097D0007572652D6177732D776562686F6F6B00A9
:1097E0005277616E64612D53656E73652D416E64B1
:1097F0002D436F6E74726F6C004E6F204461746104
:1098000000556269646F747320486F6F6B00526516
:1098100073706F6E73652052656365697665640069
:10982000556E6B6E6F776E20726573706F6E7365B9
:109830002072656365766965642025690030004E95
:109840006F20536F696C2053656E736F72730043A2
:109850006F6E666967004F6E6520536F696C2053A9
:10986000656E736F720054776F20536F696C20536D
:10987000656E736F7273004E6F20507265737375EF
:1098800072652053656E736F7200507265737375E5
:1098900072652053656E736F722050726573656ECA
:1098A00074004E6F204C696768742053656E736F47
:1098B00072004C696768742053656E736F72205034
:1098C000726573656E74004E6F2054656D70202F45
:1098D0002048756D69646974792053656E736F7281
:1098E0002050726573656E740053657420566572FE
:1098F000626F7365204D6F646500436C65617265CE
:109900006420566572626F7365204D6F6465004C0C
:109910006F7720506F776572204D6F6465005472C9
:109920007565004E6F726D616C204F706572617469
:10993000696F6E730046616C7365004F70656E20D1
:109940007468652056616C7665005761746572694C
:109950006E6700436C6F7365207468652076616C78
:109960007665004E6F20536F6C656E6F69642041A1
:10997000747461636865640046726F6D202573209E
:10998000746F202573005374617465205472616E86
:10999000736974696F6E00737061726B2F646576A2
:1099A0006963652F73657373696F6E2F656E6400ED
:1099B00054616B696E672061204E61700053746161
:1099C0007465004C6F772042617474657279202D44
:1099D00020536C656570696E67004572726F722006
:1099E0005374617465202D2052657365740045724F
:1099F000726F72205374617465202D20506F7765EB
:109A000072204379636C65004572726F72205374E3
:109A1000617465202D2046756C6C204D6F64656DFA
:109A2000205265736574004572726F722074616BA9
:109A3000696E67204D6561737572656D656E7473CF
:109A4000005369676E616C005265736574436F758E
:109A50006E740052656C6561736500537461746562
:109A60004F664368670042617474657279436F6E34
:109A700074657874004C6F77506F7765724D6F64C2
:109A8000650054656D706572617475726500487526
:109A90006D6964697479004C756D696E6F73697472
:109AA0007900536F696C4D6F69737475726531001D
:109AB000536F696C4D6F69737475726532005072C3
:109AC000657373757265004D6561737572652D4EB2
:109AD0006F7700566572626F73652D4D6F64650018
