:02000002D0002C
:1040000000400D0054C70D00000006000D00050122
:084010000401E70500000000B7
:0440180038B70D00A8
:1040200009480A49884208B505D0094A824202D0A7
:10403000121A05F05FF90748074A0021121A05F025
:1040400064F9014808BD00BF3CE00320B4C50D0081
:10405000B0E10320B0E10320F0E7032070B504F0E5
:1040600031F8074C074BE41AA40800251E46A54268
:1040700004D056F8253098470135F8E770BD00BFE9
:10408000A4C50D0064C50D0001F004BC08B501F025
:10409000B3F8BDE8084003F0D7BF02F0B5BB02F0AB
:1040A000BBBB02F0B9BB0078B0FA80F040097047A2
:1040B0000123037070470000014B01221A70704702
:1040C00021E20320024A01239371024A13707047D0
:1040D000FCE20320E6E1032003681847012A02D02E
:1040E000022A02D004E0016002E00B6800B1036024
:1040F0000020704738B50446006928B185680C2156
:1041000004F047F92846F8E7204638BD08B50449C9
:1041100003F083FC18B1034B03221A70012008BD81
:10412000ACBE0D00E7E10320436913B183690C3095
:104130001847704713B500210446084602F04AF8B4
:1041400002A90023204641F8043D02F05BF8019CDF
:104150000CB1012323710021012002F03BF82CB1A6
:10416000236820469B6898470023237102B010BD46
:1041700037B59DF8184023438DF800303C230546A1
:1041800002F07CFE284603B030BD10B5044600683E
:1041900008B102F041FB204610BD10B5836804460B
:1041A00013B1032201469847204610BD0368D86822
:1041B00020B183888B4201D08068F9E77047000006
:1041C0002DE9F041037D05460F4616463BB301211C
:1041D000FFF7ECFF50B18389BB4204D186731EE028
:1041E0008388012BF6D080680028F9D10D49102072
:1041F00004F0DAF8044688B14FF010084246002176
:1042000005F083F8022363800123A4F80080A380D3
:104210002B69A360A781A6732C6100E0287528464E
:10422000BDE8F081A4C10D002DE9F041037D0546F4
:104230000F46F3B10421FFF7B9FF064608B1C76086
:1042400017E00D49102004F0AFF8044680B14FF09C
:1042500010084246314605F058F8022363800423D3
:10426000A4F80080A3802B69A360E7602C6100E0C4
:1042700028752846BDE8F081A4C10D0008B52DEDD4
:10428000028BB0EE408A28B10138FFF7F7FF28EE25
:10429000000A01E0B7EE000ABDEC028B08BD000089
:1042A000F0B500258E4615490571856045610160B0
:1042B000044692E8030085B002AF04F10C0687E8DB
:1042C000030096E8030082E8030097E8030086E80D
:1042D00003009168606990606161D168A069D060F5
:1042E000A1618DE82800064A2346714604F10800C2
:1042F00001F078FF204605B0F0BD00BF54B70D00B7
:1043000035410D0007B580680B461146002238B1D3
:104310008DE80600032101F07DFFB0FA80F040092E
:1043200003B05DF804FB08B5806828B1002101F0F6
:1043300089FF003018BF012008BD07B58068002341
:1043400038B18DE80A00022101F064FFB0FA80F074
:10435000400903B05DF804FB38B5104B0360836877
:104360000446A3B16FF000410022FFF7E6FF0021F1
:10437000A06801F06FFF237903F0FF0513B101F08E
:1043800011FFF8E72946A06801F034FFA56004F1A9
:104390000C00FFF702FF204638BD00BF54B70D00E8
:1043A00010B50446FFF7D8FF20461C2103F0F1FFAB
:1043B000204610BD37B5054600220C461146FFF7D2
:1043C000BCFFA868002340B1019300941A46194627
:1043D00001F020FFB0FA80F0400903B030BD0000CA
:1043E00030B5194D0FCD99B004AC0FC40FCD0FC42B
:1043F00095E8030084E8030014490EA802F0BEFA11
:104400000EA802F00EFB04460EA802F05BFB0EA8FD
:1044100010EE105A02F03CFB18AB10EE100A03EB42
:10442000840404F081FACDE90201284604F07CFA04
:10443000CDE90001064A54F8503C0648402102F0FC
:104440000BFA19B030BD00BF60B70D0034E3032094
:10445000E8B70D0068E203202DE9D0431A48002395
:104460001A461946406802F09FF902F035F94FF4F8
:10447000967440F2E7360027002001F053FF4FF01A
:1044800000098046002001F04DFFB0EB080061EB11
:1044900009018F4208BF864205D302F02DF910B9F9
:1044A00002F012F9EEE702F027F918B1BDE8D043A7
:1044B00002F022B901F0FEFE044B186002F004F98C
:1044C000013CF3D0D8E700BF34E30320E8E6032043
:1044D00008B502F011F980F00100C0B208BD00007B
:1044E000F8B502F001F9002001F01CFF0025044698
:1044F00043F697260027002001F014FF001B61EB14
:1045000005018F4208BF864205D3FFF7E1FF10B9CE
:1045100002F0DAF8EFE7FFF7DBFF064800231A4660
:104520001946406802F048F94FF4FA6002F0B8F911
:104530000120F8BD34E3032013B50446012101A88E
:1045400003F0D9F801A81CB103F070F9012401E0CF
:1045500003F03CF901A803F0DDF8204602B010BDDD
:1045600010B5202490B022460021684604F0CDFE0C
:10457000224600210DEB04008DF8054004F0C5FE35
:1045800000210DEB04008DF8254002F079F81A4B5C
:104590005979009BA1B140F22622ADF8082041F2E2
:1045A000E822ADF806204FF40072ADF80A2043F47B
:1045B000007341F27202ADF80C200093002110E06C
:1045C0004FF46172ADF8082041F27000ADF80A2096
:1045D00043F4007341F21002ADF80600ADF80C2070
:1045E0000093684602F04CF804460120FFF7A4FF50
:1045F000204610B010BD00BFFCE2032010B5074CF0
:1046000001F058FE2368C01AB0F57A7F04D301F098
:1046100051FE2060012010BD002010BDA8E2032043
:1046200008B5FFF7EBFF18B1BDE80840FFF7E6BF9C
:1046300002F04AF8F5E7000037B502F055F801F04E
:1046400039FE43F69725044602F056F840B101F0D2
:1046500031FE001BA84203D8642002F021F9F3E7E1
:104660000021094B47F23052084601F08BFD4FF410
:104670007A7002F015F9054B0A221B680121684681
:1046800003F0BAFA03B030BD01B80D003CE20320DC
:1046900030B585B00D4604A9002241F8102D01F077
:1046A00091FFA8B9009C0CB1236923B9094A0021E4
:1046B0000A2001F077FF002301930C23ADF80430AA
:1046C000042303930295236901AA012120469847F8
:1046D00005B030BDA5620D0030B50E4D0FCD89B0CF
:1046E00001AC0FC495E8070084E80700694607207D
:1046F000FFF7CEFF0028A8BF0098074A08AB03EBDE
:104700008000102150F81C3C044802F0A5F809B0C4
:1047100030BD00BF88B70D0038BB0D00D6E10320C7
:104720007FB5594D594C2B7B3BB1594801F004FDE5
:10473000B4EE400AF1EE10FA03D70023A3616361DF
:1047400009E0534801F0F8FC514884ED050A01F0F6
:1047500001FD84ED060A60694C4E04F0E5F84D4A0F
:10476000CDE9000110214C4802F076F8A06904F070
:10477000DBF84A4ACDE900011021494802F06CF803
:104780002B7C43B1474801F0FFFB464801F0B6FBE4
:1047900086ED070A01E00023F361E0693B4E04F077
:1047A000C3F8414ACDE900011021404802F054F815
:1047B000AB7B63B1132003F03CFD64230093002323
:1047C00040F68A62194602F05FF8306000E033601C
:1047D000AB7B022B0CD1122003F02BFD6423009342
:1047E000002340F68A62194602F04EF8606001E04C
:1047F00000236360EB7B012B0DD1112003F019FD29
:104800001E2300934FF4306200234FF4D67102F060
:104810003BF8A06002E01C4B0022DA73244B00221C
:104820001146586801F0B8FF08B1FFF7D9FD03A998
:104830000320FFF72DFF88B90620B0EE000AFFF72E
:104840001DFDBDF80C3030EE000A07EE103A30EED8
:10485000000AB8EE477AC7EE007A01E0FFEE007A70
:10486000FDEEE77A134A1448C5ED027A17EE903A46
:10487000082101F0F1FFFFF72FFF104B0120187006
:104880000F4B187004B070BDFCE20320B0E20320AF
:1048900050E203200EB80D00B4E1032016B80D005D
:1048A000D4E20320CCE103201FB80D00ECE203208A
:1048B00034E3032029B80D00E4E2032020E20320C2
:1048C000E6E1032038B5046805467CB16368013B26
:1048D00063605BB9236820469B689847A368013BE7
:1048E000A3601BB923682046DB689847284638BD7B
:1048F00030B52F4C2F4D236AD1B00D932E4B9A69B2
:104900000C922E4A0B929B680A93E3680993A36862
:1049100008936368079323680693E06904F004F83A
:10492000CDE90401A06903F0FFFFCDE90201606950
:1049300003F0FAFF0024CDE90001214A4FF4807111
:1049400010A801F089FFFFF76BFE2B781D498DF849
:10495000004010AA0EA8FFF70BFC0FA8FFF7B2FF4C
:10496000FFF75EFE2B7818498DF8004010AA0EA8BC
:10497000FFF7FEFB0FA8FFF7A5FFFFF751FE2B780F
:1049800012498DF8004010AA0EA8FFF7F1FB0FA8FE
:10499000FFF798FF03F016FA0D4B18700D4B01222C
:1049A0001A7001F087FC0C4B186051B030BD00BF8D
:1049B000B0E20320C8E10320FCE20320D6E103209B
:1049C0002FB80D00EBB80D000CB90D0024B90D0087
:1049D00022E20320BAE00320C4E1032010B50B78E3
:1049E00094B00C4623B91C4904A804F0C9FC17E094
:1049F000084604F071FBC82804D0204604F06CFB84
:104A0000C9281ED1154904A804F0BAFC03F0D3F953
:104A1000134BD861134B01221A70134B00221A70EA
:104A2000FFF7FEFD114B12491B7800228DF8002084
:104A300002A804AAFFF79CFB03A8FFF743FF14B0EA
:104A400010BD204604F048FB0A4A0346402104A852
:104A500001F002FFE4E700BF3DB90D0052B90D00BF
:104A6000FCE20320E6E10320BAE00320C8E10320D2
:104A700045B90D0064B90D007FB51E49044602F02A
:104A8000CCFF064658B11C4B00229A731B4B0124E5
:104A90001C701B4B1B788DF800201A4A20E01A4925
:104AA000204602F0BAFF054650B1134B174A0124C5
:104AB0009C73124B1C70124B1B788DF800600FE03A
:104AC0001349204602F0A9FF90B10B4B02229A73C2
:104AD0000A4B104A01241C70094B1B788DF80050BA
:104AE0000D4902A8FFF744FB03A8FFF7EBFE2046A1
:104AF00004B070BD81B90D00FCE20320E6E10320A3
:104B0000C8E1032083B90D00ACBE0D009AB90D00B9
:104B100003BD0D00AAB90D0093B90D0030B51649BB
:104B200085B0044602F079FF054658B1134B0022C8
:104B3000DA73134B01241C70124B1B788DF8002084
:104B4000114A0EE01149204602F067FF88B10B4B75
:104B50000F4A0124DC730A4B1C700A4B1B788DF83A
:104B600000500C4902A8FFF703FB03A8FFF7AAFEB9
:104B7000204605B030BD00BF81B90D00FCE2032026
:104B8000E6E10320C8E10320BBB90D00ACBE0D0077
:104B9000CEB90D0093B90D0030B5194985B0044662
:104BA00002F03BFF054658B1164B00221A74164B13
:104BB00001241C70154B1B788DF80020144A15E059
:104BC0001449204602F029FFC0B10E4B12480124BF
:104BD0001C740D4B1C7001F086F920210E4801F069
:104BE000BEF90A4B0D4A1B788DF800500C4902A8FB
:104BF000FFF7BEFA03A8FFF765FE204605B030BDFB
:104C000081B90D00FCE20320E6E10320C8E10320A6
:104C1000E6B90D00ACBE0D00CCE10320F6B90D00E5
:104C200093B90D0030B5184985B0044602F0F5FE81
:104C3000054658B1154B00221A73154B01241C7000
:104C4000144B1B788DF80020134A12E013492046BC
:104C500002F0E3FEA8B10D4B114801241C730C4B6C
:104C600044211C7001F0D0F90A4B0E4A1B788DF8D4
:104C700000500D4902A8FFF77BFA03A8FFF722FEB8
:104C8000204605B030BD00BF81B90D00FCE2032015
:104C9000E6E10320C8E103200BBA0D00ACBE0D0015
:104CA00050E203200EBA0D0093B90D0010B5C6B046
:104CB0000A2203A9006805F079FA421E362A034643
:104CC0002AD8184A184C012111702062174A4FF453
:104CD000807106A801F0C0FD1548FFF724FB40B124
:104CE000236A13484EF660216FF000425943FFF7E4
:104CF00009FBFFF795FC01F0FFFC78B10D4B0E4965
:104D00001B7800228DF8002004A806AAFFF730FACD
:104D100005A8FFF7D7FD01E0002000E0012046B024
:104D200010BD00BFE6E10320FCE203202DBA0D0018
:104D300004E20320C8E1032051BA0D0010B5C6B04B
:104D40000A2203A9006805F031FA421E362A0346FA
:104D50002AD8184A184C012111706062174A4FF482
:104D6000807106A801F078FD1548FFF7DCFA40B124
:104D7000636A13484EF660216FF000425943FFF713
:104D8000C1FAFFF74DFC01F0B7FC78B10D4B0E49AD
:104D90001B7800228DF8002004A806AAFFF7E8F986
:104DA00005A8FFF78FFD01E0002000E0012046B0DC
:104DB00010BD00BFE6E10320FCE203205ABA0D005B
:104DC00004E20320C8E1032051BA0D0010B5C6B0BB
:104DD0000A2203A9006805F0E9F9421E362A0346B3
:104DE0002AD8184A184C01211170A062174A4FF4B2
:104DF000807106A801F030FD1548FFF794FA40B124
:104E0000A36A13484EF660216FF000425943FFF742
:104E100079FAFFF705FC01F06FFC78B10D4B0E49F4
:104E20001B7800228DF8002004A806AAFFF7A0F93D
:104E300005A8FFF747FD01E0002000E0012046B093
:104E400010BD00BFE6E10320FCE203202DBA0D00F7
:104E500004E20320C8E1032051BA0D0070B586B00A
:104E600003A9006805F0FCF8B5EEC00AF1EE10FAEF
:104E70002FD4DFED1A7AB4EEE70AF1EE10FACCBFC8
:104E8000012500252DBB164B164E01241C7010EE7B
:104E9000100A86ED0B0A03F047FD134ACDE9000125
:104EA0000821124801F0D8FC3379A3B101F024FCA9
:104EB00088B1FFF7B5FB0E4B0C4A1B780D498DF8F6
:104EC000005004A8FFF754F905A8FFF7FBFC2046A3
:104ED00002E0002000E0012006B070BD0000C842E2
:104EE000E6E10320FCE20320A0BA0D005CE203200F
:104EF000C8E10320BFBC0D0030B5164985B004469B
:104F000002F08BFD054658B1134B01241C71134B65
:104F10001C70134B00221B788DF80020114A0EE004
:104F20001149204602F079FD88B10B4B0F4A1D71E3
:104F30000A4B01241C700A4B1B788DF800500C4959
:104F400002A8FFF715F903A8FFF7BCFC204605B03F
:104F500030BD00BFACBE0D00FCE20320E6E1032043
:104F6000C8E10320A9BA0D0081B90D00BABA0D003D
:104F7000CABA0D0030B5294985B0044602F04DFD8E
:104F800028B92749204602F048FD002843D023498C
:104F9000204602F042FDA8B101F0AEFB70B1FFF770
:104FA0003FFB204B20491B7800228DF8002002A8EF
:104FB0001E4AFFF7DDF803A8FFF784FC1C4B012213
:104FC0009A7125E01649204602F027FD00B301F052
:104FD00093FB174C18B9FFF73FFA0123E370FFF773
:104FE0001FFB104B134A1B780F49002502A88DF8B0
:104FF0000050FFF7BDF803A8FFF764FC4FF47A7088
:1050000001F04EFC6FF000410B48FFF7D3F9A5719A
:105010000A4B0120187005B030BD00BFACBE0D00BA
:1050200081B90D00C8E10320CABA0D00CFBA0D0046
:10503000FCE20320DEBA0D00E8E10320E6E10320F4
:10504000F0B5264985B0044602F0E7FC28B92449AA
:10505000204602F0E2FC00283DD020461F49214DA9
:10506000214E224F02F0D9FC0446B0B10124214662
:105070000220EC6003F0B1F80021032003F0ADF84A
:10508000706901F00DFC2146032003F0A6F8002210
:105090003B788DF80020164A13E02146022003F0E9
:1050A0009CF82146032003F098F8706901F0F8FBA2
:1050B0000121032003F091F80E4A3B78EC608DF853
:1050C00000400D4902A8FFF753F803A8FFF7FAFBC9
:1050D0000A4B0120187005B0F0BD00BFACBE0D003A
:1050E00081B90D00B0E20320FCE20320C8E10320F7
:1050F000F0BA0D0008BB0D00FFBA0D0020E203203E
:1051000030B587B01A49044602A802F059FC02A83B
:10511000FFF796FF02A802F00CFC1649204602F0A9
:105120007CFC054658B1144B01245C74134B1C7075
:10513000134B00221B788DF80020124A0EE00C4918
:10514000204602F06AFC88B10B4B0F4A5D740B4B92
:1051500001241C700A4B1B788DF800500B4902A8E3
:10516000FFF706F803A8FFF7ADFB204607B030BDF8
:1051700081B90D00ACBE0D00FCE20320E6E1032086
:10518000C8E103201BBB0D0018BB0D0093B90D0037
:1051900030B5134D134C14492A7820788FB00E2364
:1051A00003FB0212009203FB0013104A282104A8FB
:1051B00001F052FB2B78237001F09EFA70B1FFF7DB
:1051C0002FFA0B4B0B491B7800228DF8002002A808
:1051D00004AAFEF7CDFF03A8FFF774FB0FB030BDA4
:1051E000E7E10320D5E103203CE003202DBB0D00C7
:1051F000C8E103203BBB0D002DE9F041934C23781F
:10520000013B8AB0072B00F22983DFE813F00E027E
:1052100008004E007F00B100D7000901B5018C4D98
:105220002B792BB18B4B1B78022B01D0FFF7B0FFF2
:10523000894E337843B103F013F8342284490120B6
:1052400001F060F800233370844E337843B103F0EB
:1052500007F824228249502001F054F800233370CB
:10526000AB7963B101F026F87E4B1B68C01A7E4B08
:10527000984204D97A4BDB68002B00F0498202F097
:10528000A1FD7A4BAA681B7898421CBF03232370A8
:10529000774B1B689A42DCBF08232370754B1B7841
:1052A000002B00F0DB8204232EE0694D2B792BB11B
:1052B000684B1B78032B01D0FFF76AFFFFF730FA2A
:1052C0000646E8B90123237000F0F4FF6A4B18602A
:1052D0002B79002B00F0C28201F00EFA002800F0BA
:1052E000BD82FFF79DF9654B654A1B7865498DF8CE
:1052F000006006A8FEF73CFF07A8FFF7E3FAADE25F
:105300006B7C002BCFD105232370A7E2594D5B4E58
:105310002B7803F0FF07CBB1FFF782F933785A4AB5
:105320005A49002606A88DF80060FEF721FF07A85D
:10533000FFF7C8FA564906A802F042FB06A8FFF795
:105340007FFE06A802F0F5FA2E70DCE702F03AFDC7
:105350000828DFF80C8100F0DE8102F033FD0C2814
:1053600000F0D98102F02EFD112840F06082D2E1D8
:10537000374D2B792BB1374B1B78052B01D0FFF71D
:1053800007FF01F0B9F990B102F01CFD064650B9D3
:10539000287101F0B1F910B1304601F0CDF9304A71
:1053A0000023AB611362FFF7A3FA0623ACE701F019
:1053B000A3F9002840F052820123A5E7244B1B7972
:1053C0002BB1244B1B78062B01D0FFF7E1FE314BAC
:1053D0001B782BB900F06EFF224B1860022393E775
:1053E00000F068FF2C4B1B68C01A4AF6C87398423D
:1053F00040F2348200F05EFF1F4B186001F07CF930
:105400000028D9D01D4B25491B7800228DF800209B
:1054100006A8234AFEF7ACFE07A8FFF753FACBE72E
:105420000B4B1A791D462AB10A4B1B78072B01D06A
:10543000FFF7AEFE0A4B1B4E9B68012B34DD337821
:1054400093BB0123337003235EE700BFE7E1032032
:10545000FCE20320D5E10320E6E1032020E2032063
:10546000B0E2032064E20320905F010022E2032007
:10547000BCE0032021E20320ACE20320C8E10320CA
:1054800057BC0D00EDBB0D004CBB0D00FFBA0D006D
:1054900081B90D00BAE00320C4E10320C7BB0D00B1
:1054A0000DB80D00D4E1032001F026F9B0B12B793D
:1054B00073B1FFF7B5F8B64BB6491B7800228DF8EB
:1054C000002006A8B44AFEF753FE07A8FFF7FAF932
:1054D0004FF47A7001F0E4F9FFF702F80021072099
:1054E00002F07BFE00210E2002F077FE00233370D5
:1054F00002F072FC3C23C0F13C0003FB00F5A74B1B
:105500001A7D0AB101221A7200220421A348FEF773
:1055100057FE4FF47A716943FEF786FE9F4903A850
:1055200002F002FB039B7BB19A88012A0CD19B8974
:10553000042B09D19A4906A802F042FA06A8FFF7FF
:1055400019FD06A802F0F5F90121072002F045FE39
:1055500001210E2002F041FE02F034FC132840F33A
:105560006D8102F02FFC042800F3688102F02AFC10
:10557000C30740F16B8161E18A4B1A791D462AB15C
:10558000894B1B78082B01D0FFF702FE01F0B4F81D
:10559000A0B1FFF745F87E4B7E491B7800228DF8BD
:1055A000002006A8814AFEF7E3FD07A8FFF78AF965
:1055B0004FF4FA6001F074F9FEF792FF0021072022
:1055C00002F00BFE6B7C4BB1754906A802F0F8F9AE
:1055D00006A8FFF735FD06A802F0ABF941F28830C6
:1055E00001F05EF902F0F8FB3C23C0F13C0003FB44
:1055F00000F56A4B1A7D0AB101221A7200220421B9
:105600006648FEF7DDFD4FF47A716943FEF70CFE44
:1056100006A8624902F088FA02230698237000283F
:1056200000F01C8101F0F8F818E15E4C23792BB1F1
:105630005D4B1B78012B01D0FFF7AAFD00F03AFE6D
:105640005B4B1B6803F5EA433033984240F2068116
:10565000A369032B14DC01F04FF860B14C4B4D49AA
:105660001B7800228DF8002006A8524AFEF780FD24
:1056700007A8FFF727F94FF4FA6001F011F924E0C9
:1056800002F099FB474BDB69C01AB0F5E15F1FD907
:1056900001F032F860B13E4B3E491B7800228DF894
:1056A000002006A8444AFEF763FD07A8FFF70AF9A1
:1056B0004FF4FA6001F0F4F80023A36102F0D0FD8A
:1056C00034223849012000F01DFE02F02AFAC5E01C
:1056D00001F012F860B12E4B2E491B7800228DF894
:1056E000002006A8354AFEF743FD07A8FFF7EAF8B1
:1056F0004FF4FA6001F0D4F80023A36102F0B0FD8A
:1057000034222849012000F0FDFDFEF795FFA5E0B9
:1057100007232370B3E5234DAB68312B07DCFEF77D
:105720007FFF002233788DF80020254A68E0D8ED0D
:10573000007A95ED0B7AF8EEE77AF4EEC77AF1EE9F
:1057400010FA56D51F4BDF68002F52D1FEF768FFC5
:1057500033781D4A1D498DF8007006A8FEF708FD34
:1057600007A8FFF7AFF81A4906A802F029F906A81A
:10577000FFF766FC06A802F0DCF802F023FB08281D
:1057800028D12B6A6FF000424EF660212CE000BF5A
:10579000C8E10320EDBB0D00E0BB0D0024E20320B7
:1057A00081B90D00FCE20320D5E10320F3BB0D001D
:1057B000ACE203200ABC0D001EBC0D0038BC0D007D
:1057C00065BB0D00B0E2032089BB0D00FFBA0D00E0
:1057D000ACBE0D0002F0F6FA0C280CBF696AA96A8B
:1057E0004EF660236FF0004259431E48FEF78AFDD3
:1057F00089E5FEF715FF002233788DF800201A4A5C
:105800001A4906A8FEF7B4FC07A8FFF75BF8D8F81A
:105810000C30002B3FF477AD154906A802F0D0F804
:1058200006A8FFF70DFC06A802F083F86BE5FEF76B
:10583000F7FE33780F4A8DF80070E1E702F0C2FA04
:10584000132809DC02F0BEFA042805DDFEF704FE89
:10585000022323700398E2E60723FAE70AB0BDE8C3
:10586000F08100BF04E20320B3BB0D00FFBA0D00BE
:1058700081B90D0071BC0D000023042200F014BF9B
:105880000023022200F010BF0246014801F0D6B901
:10589000116C0D00F0B58F4BBDB00CAA03F11005D3
:1058A000164618685968144603C40833AB422246AA
:1058B000F7D119889B782180A3702D2200210DF14A
:1058C0004300854F03F021FD02233B70834B1B688F
:1058D00093F8305093F8313003F01F0343EA451535
:1058E0002F2D05DD7E4A00210A2000F05BFE01E03D
:1058F0001F2D03DD05F01F057A4B01E04FF0A0439B
:10590000012404FA05F5C3F808552146072002F0E2
:1059100053FC0021042002F04FFC0021132002F070
:105920004BFC0021122002F047FC0021112002F064
:1059300043FC21460E2002F03FFC21460E2002F0DF
:105940004CFC2146032002F037FC2146022002F0E5
:1059500033FC2146032002F040FC0021022002F02B
:105960003CFC04A800F0D0FE002500237D221CA9E9
:1059700004A802F064F82B462A465B49019500957D
:105980001CA800F0D1FE59495948FFF775FF594945
:105990005948FFF775FF59495948FFF76DFF5949B5
:1059A0005948FFF769FF59495948FFF765FF5949B9
:1059B0005948FFF765FF59495948FFF761FF5949B1
:1059C0005948FFF75DFF59495948FFF755FF5949B5
:1059D0005948FFF751FF59495948FFF74DFF5949B9
:1059E0005948FFF749FF59495948FFF749FF5949B5
:1059F0005948FFF745FF59495948FFF741FF5949B1
:105A00005948FFF73DFF59495948FFF73DFF5949AC
:105A10005948FFF739FF59495948FFF735FF5949A8
:105A20005948FFF731FF59495948FFF72DFF5949A8
:105A30005948FFF729FF59495948FFF725FF5949A8
:105A40005948FFF721FF59495948FFF71DFF5949A8
:105A50005948FFF719FF59495948FFF715FF5949A8
:105A60005948FFF711FF59495948FFF70DFF02F058
:105A7000F7FB284600F036FC022818D1554C02F0FE
:105A8000EFFB34222146012000F034FC02F0E8FB59
:105A900024222E49502000F02DFCA379002B40F049
:105AA0009F806FF000414C48FEF784FC98E002F0C4
:105AB000D7FB04224949284600F024FC02F0D0FB21
:105AC0002046042208A90134089500F01BFCF02CA4
:105AD000F4D1D3E7A4B70D00E7E103204CE20320A3
:105AE000A5620D0000030050DD490D0068E20320AF
:105AF00083BC0D0014E303208ABC0D00AEBE0D0074
:105B000095BC0D00E4E203209DBC0D00D6E103200E
:105B1000A8BC0D001CE3032096BD0D0020E303206C
:105B2000A9BD0D0024E30320BABD0D005CE20320F3
:105B3000B7BC0D00B4E10320C9BC0D00D4E20320C2
:105B4000D5BC0D00ECE20320DEBC0D00B0E203206A
:105B5000E9BC0D00B4E20320F7BC0D00B8E203205D
:105B600005BD0D002CE303200EBD0D000D410D0001
:105B70001ABD0D00754F0D0026BD0D00F94E0D002C
:105B800033BD0D0041500D00FFBA0D00794A0D00E4
:105B900040BD0D001D4B0D004FBD0D00994B0D007C
:105BA00061BD0D0001510D0070BD0D00254C0D00B3
:105BB00080BD0D00AD4C0D0093BD0D003D4D0D00A1
:105BC000A6BD0D00CD4D0D00B7BD0D005D4E0D0005
:105BD000CABD0D00FCE20320E8E10320E4B70D009C
:105BE000237B53B14421584800F00EFA28B9574B93
:105BF00057491873304603F0C3FB237C33B1554833
:105C000000F071F92021534800F0A9F90022114653
:105C100008A8089200F036FB089B142B02BFA3696A
:105C20000133A361A369052B04DD484B04229A616B
:105C3000FEF702FD637C53B1444BD86A02F074FE58
:105C4000454ACDE900010821444800F005FE06233D
:105C50006361637C63B1424BDB684BB1414908A887
:105C600001F0AEFE08A8FFF7EBF908A801F061FE0D
:105C700001236371FEF774FC042002F0C7FA48B9EF
:105C8000384908A801F09CFE08A8FFF773F908A896
:105C900001F04FFEFEF744FD334BA2681B689A42A9
:105CA00002DC08233B700CE0FEF7D6FB48B9012369
:105CB0003B7000F0FFFA2D4B2D491860304603F081
:105CC0005FFB00F019FD08B12379BBB902F078F948
:105CD000314601F0E2FDB0EE000A02F00DF8FEF7E9
:105CE0009FFC00F009FD08B12379ABB9214B0122DB
:105CF00004A81A7001F01DFE3DB0F0BD1E4B1F49F7
:105D00001B7800228DF8002008A83246FEF730FAF2
:105D100009A8FEF7D7FDD9E702F04DF8014608A81B
:105D200002F006F8144B16491B7800228DF800206B
:105D300002A8089AFEF71CFA03A8FEF7C3FD08A8FC
:105D400001F0F7FDD2E700BF50E20320FCE20320A0
:105D5000DCBD0D00CCE10320A0BA0D005CE2032005
:105D6000B0E2032081B90D00BCE00320ACE20320C7
:105D700010BE0D00E6E10320C8E1032022BE0D00A5
:105D80002ABE0D002DE9F0433F4B404E404FDFF857
:105D90003C9100241C603F4B85B001251D7000F034
:105DA000C9FA3D4B186002F0B9F92346224642F683
:105DB000D51102F0BBF902F0B1F9224623462021A9
:105DC00002F0BCF94FF6FF7373813460B480B47194
:105DD0003481022000F008FC3A463049304602F097
:105DE000D3FA2F4E2146284600F016FC29460420FF
:105DF00000F038FA4FF01008301D4246214630605E
:105E000003F083FA02233A462649F380304635757B
:105E1000A6F8048002F0B8FA2348DFF8B480234CD7
:105E2000234E00F0CEF802F063FA23210246214807
:105E300000F054F8204B00936A462B461F49029409
:105E40004846CDF80C80FEF72BFA6846FEF7A5F918
:105E50003A463146484602F097FA0294184C194BDC
:105E600000936A462B461849CDF80C802046FEF771
:105E700017FA6846FEF791F93A463146204602F095
:105E800083FA05B0BDE8F0833CE2032040E2032042
:105E9000B0E10320C8E103204CE203208B410D0058
:105EA00024E20320F5400D0050E20320DD400D0008
:105EB00059430D00CCE10320B9400D00804F120082
:105EC000E8E10320C5400D0040771B0004E20320F9
:105ED000D9400D000368C9B29B681847426011227F
:105EE00041700270704710B50446406801F009FA2D
:105EF00010B9606801F0C0F9012010BD70B5054609
:105F00004178406801F0EFF902226978686801F091
:105F1000E7F9686803685B6998470646686803683C
:105F20005B699847044644EA06246868A4B201F015
:105F3000E5F907EE904AB8EE670ADFED027A80EEE7
:105F4000270A70BD9A99993F0378232B04D0132B0D
:105F50000CBF1820B42000E0182000F0A1BC38B518
:105F600004460D464178406801F0BDF96068036859
:105F700029469B689847606801F0C0F92570204663
:105F8000BDE83840FFF7E0BF10B50378A3F1200269
:105F9000012A044601D9232B10D16178606801F0F1
:105FA000A2F96068217803689B689847606801F0EF
:105FB000A5F92046BDE81040FFF7C6BF10BD00F0B0
:105FC000B9B9704738B505460C4602F091F9297801
:105FD00001F089F902F08CF9210AFFF77BFF02F04A
:105FE00087F9E1B2FFF776FF02F082F9BDE83840A9
:105FF00001F084B908B543F2A201FFF7E3FF0A20DC
:10600000BDE8084000F04CBC38B504460D4602F02F
:106010006FF901F031F920462570FFF7EBFF012001
:1060200038BD0A44FF2091420ED011F8013B584080
:10603000082310F0800F4FEA400018BF80F03100B5
:10604000013BC0B2F5D1EEE7704700000000000050
:1060500073B54FF410510446FFF7B4FF4FF4FA70D4
:1060600000F01EFC02F044F90622217801F038F914
:1060700002F03EF903681B69984706284AD10025BB
:1060800002F036F903685B6998470DF805000135A1
:10609000062DF5D1022269462046FFF7C2FF9DF882
:1060A0000250854236D102220DF103012046FFF74E
:1060B000B8FF9DF8055085422CD1BDF800009DF831
:1060C00003609DF8045040BA80B202F00BFC18A3A4
:1060D000D3E9002302F07CFC11A3D3E9002302F0F2
:1060E000A1FD0022104B02F0BFFA02F069FFA06090
:1060F00045EA062002F0F6FB00220C4B02F068FC99
:1061000007A3D3E9002302F08DFD02F059FF606080
:10611000012000E0002002B070BD00BFAFF300809E
:1061200000000000E0FFEF400080464000005940C2
:106130000000000000E0654010B50446FFF788FF4E
:1061400010B194ED020A10BD9FED010A10BD00BF11
:106150000000C07F10B50446FFF77AFF10B194ED40
:10616000010A10BD9FED010A10BD00BF0000C07FF5
:1061700000F0E0B808B5024B1B685B6C019308BDEA
:106180007402030008B5024B1B689B6C019308BDA9
:106190007402030008B5024B1B689B68019308BD9D
:1061A0004802030008B5024B1B68DB68019308BD79
:1061B0004802030008B5024B1B681B69019308BD28
:1061C0004802030008B5024B1B685B69019308BDD8
:1061D0004802030008B5024B1B68DB69019308BD48
:1061E0004802030008B5024B1B681B6A019308BDF7
:1061F0004802030008B5024B1B685B6A019308BDA7
:106200004802030008B5024B1B689B6A019308BD56
:106210004802030008B5024B1B68DB6A019308BD06
:106220004802030008B5024B1B685B6C019308BD74
:106230004802030008B5024B1B689B6C019308BD24
:106240004802030008B5024B1B689B6D019308BD13
:106250004802030008B5024B1B681B6F019308BD81
:106260004802030008B5024B1B685B6E019308BD32
:106270003402030008B5024B1B689B6E019308BDF6
:106280003402030008B5024B1B68DB6E019308BDA6
:106290003402030008B5024B1B685B68019308BD1C
:1062A0001802030008B5024B1B68DB68019308BDA8
:1062B0001802030008B5024B1B685B69019308BD17
:1062C0001802030008B5024B1B68DB69019308BD87
:1062D0001802030008B5024B1B689B6A019308BDB6
:1062E0001802030008B5024B1B68DB6A019308BD66
:1062F0001802030008B5024B1B685B6C019308BDD4
:106300001802030008B5024B1B689B6C019308BD83
:106310001802030008B5024B1B689B6D019308BD72
:106320001802030008B5024B1B68DB6D019308BD22
:106330001802030008B5024B1B681B68019308BDD7
:106340002C02030008B5024B1B685B68019308BD73
:106350002C02030008B5024B1B689B68019308BD23
:106360002C02030008B5024B1B68DB68019308BDD3
:106370002C02030008B5024B1B681B69019308BD82
:106380002C02030008B5024B1B685B69019308BD32
:106390002C02030008B5024B1B681B6B019308BD60
:1063A0002C02030008B5024B1B68DB68019308BD93
:1063B0002802030008B5024B1B689B69019308BDC6
:1063C0002802030008B5024B1B68DB69019308BD76
:1063D0002802030008B5024B1B681B6A019308BD25
:1063E0002802030008B5024B1B685B6A019308BDD5
:1063F0002802030008B5024B1B689B6A019308BD85
:106400002802030008B5024B1B68DB6A019308BD34
:106410002802030008B5024B1B681B6B019308BDE3
:106420002802030008B5024B1B685B6B019308BD93
:106430002802030008B5024B1B681B6C019308BDC2
:106440002802030008B5024B1B689B6C019308BD32
:106450002802030008B5024B1B68DB6C019308BDE2
:106460002802030008B5024B1B681B6D019308BD91
:106470002802030008B5024B1B685B69019308BD45
:106480006402030008B5024B1B689B68019308BDBA
:106490006802030008B5024B1B68DB68019308BD66
:1064A0006802030008B5024B1B68DB69019308BD55
:1064B0003002030008B5024B1B681B6A019308BD3C
:1064C0003002030008B5024B1B681B68019308BD2E
:1064D0003C02030008B5024B1B68DB68019308BD52
:1064E0003C02030008B5024B1B681B69019308BD01
:1064F0003C02030008B5024B1B685B69019308BDB1
:106500003C02030008B5024B1B689B69019308BD60
:106510003C02030008B5024B1B68DB69019308BD10
:106520003C02030008B5024B1B681B6A019308BDBF
:106530003C02030008B5024B1B689B6A019308BD2F
:106540003C02030008B5024B1B681B68019308BDA1
:106550004C02030008B5024B1B681B69019308BD80
:106560004C02030008B5024B1B685B69019308BD30
:106570004C02030008B5024B1B689B69019308BDE0
:106580004C02030008B5024B1B68DB69019308BD90
:106590004C02030008B5024B1B681B6A019308BD3F
:1065A0004C02030008B5024B1B685B6B019308BDEE
:1065B0006002030008B5024B1B681B6D019308BD08
:1065C0006002030008B5034B1B68D3F898300193B1
:1065D00008BD00006002030008B5024B1B681B6881
:1065E000019308BD2002030008B5024B1B685B68DD
:1065F000019308BD2002030008B5024B1B685B69CC
:10660000019308BD2002030008B5024B1B689B697B
:10661000019308BD2002030008B5024B1B68DB6A2A
:10662000019308BD2002030008B5024B1B68DB6C18
:10663000019308BD2002030008B5024B1B685B6D87
:10664000019308BD2002030008B5024B1B689B6D37
:10665000019308BD2002030008B5034B1B68D3F863
:106660008830019308BD00002002030008B5034BE9
:106670001B68D3F89430019308BD0000200203008A
:1066800008B5034B1B68D3F8A830019308BD000080
:106690002002030008B5034B1B68D3F8AC3001930C
:1066A00008BD00002002030008B5024B1B681B68F0
:1066B000019308BD4402030008B5024B1B685B68E8
:1066C000019308BD4402030008B5024B1B689B6898
:1066D000019308BD4402030008B5024B1B68DB6848
:1066E000019308BD4402030008B5024B1B681B69F7
:1066F000019308BD4402030008B5024B1B685B69A7
:10670000019308BD4402030008B5024B1B68DB6916
:10671000019308BD4402030008B5024B1B681B6AC5
:10672000019308BD4402030008B5024B1B685B6A75
:10673000019308BD4402030008B5024B1B68DB6AE5
:10674000019308BD4402030008B5024B1B681B6B94
:10675000019308BD4402030008B5024B1B68DB6BC4
:10676000019308BD4402030008B5024B1B685B6837
:10677000019308BD4002030008B5024B1B689B68EB
:10678000019308BD4002030008B5024B1B68DB689B
:10679000019308BD4002030008B5024B1B681B694A
:1067A000019308BD4002030008B5024B1B685B69FA
:1067B000019308BD4002030008B5024B1B689B69AA
:1067C000019308BD4002030008B5024B1B68DB695A
:1067D000019308BD4002030008B5024B1B681B6A09
:1067E000019308BD4002030008B5024B1B681B6BF8
:1067F000019308BD4002030008B5024B1B685B6BA8
:10680000019308BD4002030008B5024B1B681B68DA
:10681000019308BD1C02030008B5024B1B685B68AE
:10682000019308BD1C02030008B5024B1B689B685E
:10683000019308BD1C02030008B5024B1B681B69CD
:10684000019308BD1C02030008B5024B1B689B693D
:10685000019308BD1C02030008B5024B1B68DB69ED
:10686000019308BD1C02030008B5024B1B68DB6ADC
:10687000019308BD1C02030008B5024B1B681B6B8B
:10688000019308BD1C0203008A4230B507D0039D66
:10689000441AED1A6C43521A94FBF2F4E01830BD1E
:1068A0000021FFF7A9BE10B5836804460BB901F0BB
:1068B0008CFDC3689847A3681BB10322214620467C
:1068C000984720461021BDE8104001F062BD10B588
:1068D0000446006808B1FFF7ADFC204610BD0B6808
:1068E000036013B15A6801325A60704710B5064C04
:1068F000002320462360FFF795FC2046034A044905
:10690000BDE8104001F040BD30E30320B0E10320BA
:10691000CF680D00002211464068FFF73DBF0022FE
:1069200011464068FFF758BF002211464068FFF744
:1069300063BF00224068FFF757BF002281F00101CA
:106940004068FFF741BF00231A4619464068FFF729
:1069500033BF00231A4619464068FFF725BF0022BF
:1069600011464068FFF708BF002202214068FFF788
:106970000BBF00231A464068FFF7F6BEF0B51B4B6D
:10698000036000250F462833182689B043608560D0
:10699000C560324629460446103002F0B6FC2A464D
:1069A00029467868FFF7F8FE08B9A0601BE0294681
:1069B000324602A80095019502F0A7FC02A968469C
:1069C000ADF80860FFF7D6FB10B10123A3600AE021
:1069D000009B019AA360E2600BB90223A36002A9A5
:1069E000204600F089F8204609B0F0BDF0BE0D0049
:1069F00038B5084C28252A460021204602F085FC9F
:106A00004FF0FF336360044B258004225A60034A31
:106A10001A6038BD3CE3032034E30320BCBE0D0004
:106A20007047007D70470000037D1BB18369B3F19F
:106A3000004F02D19FED050A704707EE903A9FED97
:106A4000047AF8EEE77A87EE870A704700000000C4
:106A50000000C842037D1BB1036AB3F1004F02D1AD
:106A60009FED050A704707EE903A9FED047AF8EE25
:106A7000E77A87EE870A7047000000000000C842EE
:106A800010B52821044601F084FC204610BD00000A
:106A9000037D7BB1436A002B0CDB07EE903ADFED00
:106AA000076A9FED070AB8EEE77AC7EE267A27EE67
:106AB000800A7047BFEE000A704700BF00FF7F47A3
:106AC0000000C842037D7BB1C369002B0CDB07EEDD
:106AD000903ADFED076A9FED070AB8EEE77AC7EE56
:106AE000267A27EE800A7047BFEE000A704700BF83
:106AF00000FF7F470000C84230B50D4600F110048A
:106B00000FCD0FC495E8030084E80300012030BDD9
:106B10002DE9F04107460C4615462AB90368C9B26B
:106B20009B68BDE8F0411847002907DA0A2A05D119
:106B30002D2100F0A3FE6142064601E02146002619
:106B4000EAB2384600F0B3FE3044BDE8F08170B5DB
:106B50000D4606460A2281682846FFF7D9FF2C21F8
:106B60000446284600F08AFE0A220444F1682846BA
:106B7000FFF7CEFF204470BDA0F10400FFF7E7BF90
:106B800070470020704710B51021044601F001FC49
:106B9000204610BD08B508B1FFF7F5FF08BD00227B
:106BA000026010B54FF69C728280B1F90440848077
:106BB0008A8002680C6804600A6010BD10B5044643
:106BC0000068FFF729FE204610BD38B5C468F4B14F
:106BD0002378022B03D104F10C00FFF7EFFF656867
:106BE00035B12846FDF7D9FA1021284601F0D1FB2E
:106BF000A56835B12846FDF7D0FA1021284601F0E6
:106C0000C8FB20461421BDE8384001F0C2BB38BDA6
:106C100010B588B00446684600F0D2FE694604A864
:106C200000F0F0FE04A8A047044604A800F081FE8E
:106C3000684600F07EFE204608B010BDF0B5102476
:106C400085B007460E46154600212246684602F0EA
:106C50005CFB002269461046ADF80040029703969F
:106C60000195FFF729FD05B0F0BD13B5044691E885
:106C7000050000234B600B602060626001A8019357
:106C80000093FDF71FFE204602B010BDF7B50C467D
:106C900002AD54F8043B45F8083D06460F4601A8EE
:106CA0002146FFF71CFE29463046FFF7DEFF01A80C
:106CB000FDF708FE2046FDF705FE3846082101F0E5
:106CC00068FB304603B0F0BD13B50B46044603C85D
:106CD0008DE8030093E8030084E803009DE80300C7
:106CE00083E8030002B010BD38B5002304460360FA
:106CF00010200D46FDF7D1F928B1012343608360D0
:106D0000024B0360C5602060204638BD24BF0D00E3
:106D1000826810B50AB901F058FBC368BDE810409D
:106D2000184708B5006800F11001FFF7F1FF08BD32
:106D3000826810B50AB901F048FBC368BDE810408D
:106D4000184708B5006800F11001FFF7F1FF08BD12
:106D500038B5002383608B6804460D462BB10222B0
:106D60009847EB68E360AB68A360204638BD00003D
:106D7000F0B589B004686846FFF711FF00238DF86D
:106D800008304FF00202D4E84F3F002B03D1C4E893
:106D9000412F0029F7D102D08DF8083063E014F1BB
:106DA0000C0503D069462846FFF7F9FEBFF35F8F55
:106DB00001236370002004F10803BFF35F8F53E8E1
:106DC000006F43E80002002AF9D1BFF35F8F002E65
:106DD00049D0FFF729FC20B129463046FFF798FF3C
:106DE0003AE0314602A8FFF7B3FFE068B4F910506B
:106DF00008B102F0CDFA06901020ADF81C50FDF756
:106E00004CF90546E8B1002787601820FDF745F9E1
:106E1000044688B10146876002A8FFF755FF049B2E
:106E2000A268A360059B049206A9E268E36004F1EE
:106E300010000592FFF7B3FE0D4BEB600D4B2C607D
:106E4000AB6006A8FFF7BAFE02A8FDF7A6F900227C
:106E500029460948FFF7F0FB3046FDF79EF910215F
:106E6000304601F096FA6846FFF7A8FE09B0F0BD7B
:106E7000236D0D00996F0D00A7680D002DE9F04FEF
:106E80008BB006460F46904699469DF850A0FFF7F6
:106E900033FC07AD834630BB4FF62E73059005A932
:106EA0002846ADF81830FFF77AFE1420FDF7F5F804
:106EB000044658B10223037001234370C0F804B0A4
:106EC000C0F808B029460C30FFF769FE304621466D
:106ED00040F8044BFFF708FF2846FFF76FFE05A8B0
:106EE000FFF76CFE52E000240C2314206C60AC60B1
:106EF0000793FDF7D2F8014618B10470447044605E
:106F0000846004A80391FFF7EFFE224B089308204A
:106F1000FDF7C3F8044628B1039B40F8043B04A9DD
:106F2000FFF7DDFC00955FFA8AF34A464146384692
:106F30000994FFF7F1FB20B9039B5B7803F0FF0294
:106F400083B1039B059304A906A8FFF7C8FC05A914
:106F50003046FFF78AFE06A8FDF7B4FC04A8FDF74B
:106F6000B1FC13E04FF69C7305A903A80592ADF898
:106F70001830FFF7FDFE05A8FFF720FE05A80999C8
:106F8000FFF784FE06A8FDF79DFCDAE730460BB05C
:106F9000BDE8F08F09710D00022AF8B5044606D04D
:106FA000032A17D0012A22D10B6803601FE01820A2
:106FB0000E68FDF772F8054650B13146FFF7C8FE7E
:106FC0003069B6F9147008B102F0E2F92861AF82B5
:106FD00025600CE0046854B104F11000FFF7EEFDE9
:106FE0002046FDF7DAF81821204601F0D2F90020FA
:106FF000F8BD38B5002383608B6804460D462BB17D
:1070000002229847EB68E360AB68A360204638BD76
:10701000022A70B5044606D0032A11D0012A18D1DD
:107020000B68036015E014200E68FDF736F805467E
:1070300020B13146FFF7DDFF337C2B74256008E07B
:10704000046834B12046FDF7A8F81421204601F069
:10705000A0F9002070BD0000F0B5002387B00C46F9
:10706000BFF35F8F50E8006F40E80032002AF9D18B
:10707000BFF35F8F002E3FD01846FFF7D5FA0746C3
:1070800020B121463046FFF753FE2EE0314601A8DD
:10709000FFF7AFFF23788DF814301020FCF7FDFFC9
:1070A0000546D0B187601420FCF7F7FF044678B19D
:1070B0008760014601A8FFF707FE039BA268A36053
:1070C000049B0392E268E3609DF8143004922374F9
:1070D0000A4BEB600A4B2C60AB6001A8FDF75DF832
:1070E000002229460748FFF7A7FA3046FDF755F872
:1070F0001021304601F04DF907B0F0BD436D0D0091
:1071000011700D00A7680D0030B585B004460D461E
:1071100068461146FFF7BAFD7CB124B228460DB18E
:1071200002F036F9029002A96846ADF80C40FFF76C
:107130001FFE02A8FFF742FD1DE000988DF80840F1
:107140004FF00102D0E84F3FA34203D1C0E8412FE6
:107150000029F7D102D08DF808300CE010F10C01B5
:107160004FF0010318BF0373BFF35F8F043000F8C3
:10717000033CFFF771FF01A8FDF7A4FB05B030BD8C
:10718000002211464068FFF727BB002211464068E5
:10719000FFF732BB00224068FFF726BB002281F0D8
:1071A00001014068FFF710BB00231A4619464068EA
:1071B000FFF702BB00231A4619464068FFF7F4BAEE
:1071C000002211464068FFF7E7BA002211464068E6
:1071D000FFF7D2BA002202214068FFF7D5BA002398
:1071E0001A464068FFF7C0BA024B03225A60024AAF
:1071F0001A60704764E3032040BF0D007047F8B584
:10720000064615460C468F18BC4206D0336814F863
:10721000011B9B6830469847F6E72846F8BD0022D8
:10722000007CFFF7D7B80021007CFFF7DBB8002116
:10723000007CFFF7DFB80021007CFFF7E3B80021F6
:10724000007CFFF7E7B810B51421044601F0A1F85F
:10725000204610BD10B50446002363604FF47A73D6
:10726000A360044B2174084623601146FFF7E2F83F
:10727000204610BD74BF0D0000231A461946007C3D
:10728000FFF790B870B50C4686B0142506462A461E
:10729000002101A802F039F823788DF808306368DE
:1072A0000393E36804930022237A307CADF8045002
:1072B00001A90593FFF7D6F806B070BD1FB50033DE
:1072C0008DF800104FF06401039118BF0123694647
:1072D00001928DF80830FFF7D5FF05B05DF804FB8B
:1072E0000123FFF7EBBF0022007CFFF763B8C9B2B0
:1072F000FFF7F9BF0022007CFFF764B80121FFF718
:10730000F9BF0021007CFFF78DB808B50021007C93
:10731000FFF798F8B0FA80F0400908BD08B50021E1
:10732000007CFFF797F8B0FA80F0400908BD70477D
:1073300010B51821044601F02CF8204610BDF0B518
:10734000037D062B8DB00E4600F104074FF00004BC
:1073500002D000F1080518E00CAD394605F8304DB3
:107360002F232A460A20FFF785F8284602F02BF83B
:1073700033680246DB682946304698470FE024B15F
:107380002E21304600F07AFA044415F8011D0A2235
:10739000304600F08CFABD420444F0D120460DB0D6
:1073A000F0BD000010B5054B0446112240F8043B27
:1073B000002101F0AAFF204610BD00BF9CBF0D00B8
:1073C0000346074A10B543F8042B01F1100251F8A7
:1073D000044B43F8044B9142F9D10A781A7010BD5E
:1073E0009CBF0D0010B59DF8084044EA032343EA12
:1073F000024242EA016104234160037510BD37B5C2
:107400000D788B784A78C97800912946FFF7EAFF12
:1074100003B030BD014B024A1A6070476CE3032091
:107420001BC00D00002211464068FFF7D5B90022AD
:1074300011464068FFF7E0B900224068FFF7D4B971
:10744000002281F001014068FFF7BEB900231A460F
:1074500001214068FFF7B0B900231A461946406879
:10746000FFF7A2B9002211464068FFF795B9002244
:1074700011464068FFF780B9002202214068FFF7FB
:1074800083B900231A464068FFF76EB938B5054640
:1074900088B104684CB1A3681BB103222146204681
:1074A00098471021204600F074FF28461421BDE8BB
:1074B000384000F06EBF38BD10B103685B681847F4
:1074C000704710B503680446BBB15868FEF762FE0A
:1074D00078B923685A7C12B95868FEF76BFE2368A6
:1074E0005868FEF76FFE20680023236028B1FFF77D
:1074F000CDFF206808B1FFF7C9FF204610BD38B5A1
:107500000446D0F8C40108B1FCF7CBFDD4F8C001A3
:1075100008B1FEF78FFED4F8BC5135B12846FFF70D
:10752000D0FF0421284600F034FF206808B1FFF79F
:10753000C3FF204638BD000010B5044B044640F898
:10754000083BFFF7DCFF204610BD00BF8CC00D00DC
:1075500038B50E4C0E4B23600025022304F5E47071
:107560006360A560C4F8C451C4F8C851FEF75AFE60
:10757000084BC4F8CC5184F8D05123602046064A09
:107580000649BDE8384000F0FFBE00BF70E30320AD
:10759000C0C00D008CC00D00B0E1032039750D0096
:1075A00000231A464068FFF7DFB800220221406836
:1075B000FFF7EAB8002211464068FFF7DDB8002265
:1075C00011464068FFF7E8B800231A46194640689C
:1075D000FFF7EAB800231A4619464068FFF7ECB8EF
:1075E000002281F001014068FFF7EEB800224068F8
:1075F000FFF7FAB8002211464068FFF7FDB80022F5
:1076000011464068FFF7E8B82DE9F043002495B033
:1076100016460D460746FFF7C5FE214620220CA858
:10762000009401F072FE40230C9321466B460CAA95
:107630003046FEF72FFF0446002844D102460121C0
:107640006868FFF7A9F80221804622466868FFF7BC
:10765000A3F8009E81462146002E34D0002932D165
:107660007368022B02D00A2B09D02AE0B8F1000F70
:1076700027D0716938460431FFF7C1FE20E0B9F127
:10768000000F1ED07469112201A801F03EFE0623EE
:107690008DF8143001AD04F10803183418685968E6
:1076A0002A4603C20833A3421546F7D101A906A80A
:1076B00007ADFFF785FE0FCD3C1D0FC42B6823706F
:1076C0000121F669C8E70098FEF7DCFE384615B0E0
:1076D000BDE8F083024B034A1A6000225A607047EB
:1076E00044E50320C0C00D0008B500F027FEBDE84A
:1076F0000840FFF70ABE10B50446017009B1FFF754
:10770000F3FF204610BD08B500F018FEBDE80840A4
:10771000FFF704BE10B5037804460BB1FFF7F3FF83
:10772000204610BD10B504460068FFF7ECFF204668
:1077300010BD37B502AC0D4644F8040DFFF7D4FF79
:1077400000F0FCFD6B21FFF7D2FD00F0F7FD0368B0
:1077500029469B68984700F0F1FD0121FFF7CAFD1B
:1077600000F0ECFD01231A466B21FFF7A7FD00F0A6
:10777000E5FD03685B69984705462046FFF7D2FFA1
:10778000E8B203B030BD73B502AC15460E4644F8FE
:10779000040DFFF7A9FF00F0D1FD6B21FFF7A7FD56
:1077A00000F0CCFD036831469B68984700F0C6FDA9
:1077B000036829469B68984700F0C0FD0121FFF748
:1077C00099FD2046FFF7AEFF02B070BD37B502ACA1
:1077D000054644F8040DFFF787FF01212846FFF70F
:1077E000A8FF012100F0CF022846FFF7CCFF20467A
:1077F000FFF798FF012003B030BD37B502AC054656
:1078000044F8040DFFF770FF01212846FFF791FFB0
:1078100000F0CF0242F0100201212846FFF7B3FF2B
:107820002046FFF77FFF012003B030BDFFF7E5BF23
:10783000F8B506460D468F180024BD420CD03368BB
:1078400015F8011B9B6830469847002801DB04446B
:10785000F3E7002C08BF04462046F8BD70B5054686
:107860000C46084649B101F0AEFD2B6802462146A0
:107870002846DB68BDE87040184770BD03689B6808
:10788000184738B50D210546FFF7F8FF0A210446D1
:107890002846FFF7F3FF204438BD38B50546FFF70B
:1078A000DDFF04462846FFF7ECFF204438BD30B525
:1078B0008BB00B4600218DF82410012A98BF0A22B4
:1078C0000DF12304B3FBF2F505FB123303F0FF03C4
:1078D000092B94BF30333733DBB2214604F801392A
:1078E0002B46002DEED1FFF7B9FF0BB030BD10B520
:1078F0000446FCF752FC204610BD00000348044A31
:1079000004490023836000F03FBD00BF4CE5032025
:10791000B0E10320EF780D0010B504460170084671
:10792000FEF7C0FD00236360204610BD0078FEF71F
:10793000C1BD10B504460068FEF76EFF204610BDBD
:1079400010B50446006808B1FEF766FF0023236007
:10795000A360636010BD38B504460D460068013170
:10796000FEF762FF10B184E82100012038BD10B598
:107970000368044613B143688B4207D22046FFF7E1
:10798000EAFF20B1A3680BB922681370012010BD73
:1079900070B50E46114604461546FFF7E8FF18B9C4
:1079A0002046FFF7CDFF09E02A463146A560206852
:1079B00001F0A0FC2268A3680021D154204670BDCC
:1079C00038B50023044603604360836003730D46AB
:1079D00039B1084601F0F7FC294602462046FFF778
:1079E000D7FF204638BD884210B50B46044607D065
:1079F000096819B19A68FFF7CBFF01E0FFF7A0FF14
:107A0000204610BD10B50023044603604360836028
:107A10000373FFF7E8FF204610BD08B582680B46E8
:107A200012B919B9012008BD11B90368187802E02C
:107A3000006801F09BFCB0FA80F0400908BD70B509
:107A40000E469AB191B185689D4202D800230B7011
:107A500070BD541EED1A0168AC4228BF2C46194473
:107A60002246304601F0CCFC0023335570BD10B5E2
:107A70000446006818B1FEF7CFFE0023236010BD56
:107A800038B5B1F9043083800B460D4653F8062F04
:107A9000C0F806209B8843810446FFF7E8FF2B6867
:107AA00013B1236000232B60204638BDB1F90430A8
:107AB00010B50BB90A689AB10C685CB1A288012AAA
:107AC00003D0042A06D1022205E0A4894C818A71E0
:107AD0000B8105E004220B814FF6FF738A714B8105
:107AE00051F8063F03608B88838010BD38B50C4683
:107AF0000546FFF7BCFF44B12088FEF785FE2860ED
:107B000028B12288214601F0F5FB002038BD01484C
:107B100038BD00BFFCFEFFFF014600228C20FEF7AF
:107B2000A9BB0020FFF7F8BFF0B5304D0B7D044630
:107B30008BB00846AF1D13B30B681B79FBB1002255
:107B40004FF6FF7302A904300292ADF80C208DF8B5
:107B50000E20ADF81020ADF81230FEF79BFD0AABF9
:107B600000B253F81A2DADF80C009B88A880C5F818
:107B700006200299BB802846FFF7B8FF1CE02023AF
:107B8000002602931A4B00931A490396334632207B
:107B900002AAFEF70FFD4FF6FF73ADF8123002A9EF
:107BA0004FF6F263114802968DF80E60ADF8106042
:107BB000ADF80C30FFF764FF02A8FFF758FF002371
:107BC0002360A380A37123814FF6FF736381B5F90E
:107BD0000430A3803B68C4F80630BB886381296801
:107BE0002046FFF783FF20460BB0F0BD5CE5032085
:107BF000F3C00D00ECC00D0030B5044685B008465A
:107C000011461A460023FEF7FFFC0D4DADF80C009F
:107C1000002301A90193ADF808308DF80A302846F9
:107C20004FF6FF73ADF80E30FFF72AFF01A8FFF7FC
:107C30001EFF20462946FFF739FF204605B030BD1C
:107C40005CE5032010B5094C00204FF6FF7320605F
:107C5000A080A07120816381FEF7C6FC2046044A03
:107C60000449BDE8104000F08FBB00BF5CE5032075
:107C7000B0E103208B410D00F0B5144B144F1E688A
:107C8000144B064418683B6806449E428BB01BD0D8
:107C90000AA801AD40F8286D01F030FA436903F2FB
:107CA0006C73436104460FCC0FC50FCC0FC5D4F8DD
:107CB00000E0C5F800E001AD0FCD074C0FC40FCDBB
:107CC0000FC43E60C4F800E00BB0F0BD98E503209F
:107CD00094E5032090E5032068E5032008B5002023
:107CE000FEF732FD28B1FEF707FD80F00100C0B2BB
:107CF00008BD012008BD0000FAEE087AB4EEE70ADC
:107D0000F1EE10FA0FD4F2EE0C7AB4EEE70AF1EECF
:107D100010FA08DCDFED047A044B20EE270ABDEEF2
:107D2000C00A83ED000A70470000614598E5032012
:107D300037B50E4B1B6819440D4B1B68044602A84F
:107D4000194440F8041D01F0D9F901F089F90546FC
:107D500001F039FB2844002300F8013C2946204665
:107D6000FFF72EFE204603B030BD00BF98E503208C
:107D700090E5032010B50020FEF7CCFA044668B960
:107D8000FEF72AFC01280BD12046FEF75DFC38B92E
:107D9000FFF7A4FF30B9FEF797FCF9E7012010BD0B
:107DA000002010BDFFF79AFF0020FEF7B3FA003065
:107DB00018BF012010BD08B5FFF7DCFFBDE8084083
:107DC000FEF780BA08B5FFF7F6FFFFF755FF014B46
:107DD000986808BD68E5032008B5FFF7ECFFFFF7DA
:107DE0004BFF014B586808BD68E50320024B1A6839
:107DF000024B1A60704700BFC0E003208CE50320EF
:107E000070474174704708B5007CFEF793FB20EA89
:107E1000E07008BD08B5007CFEF764FB20EAE07066
:107E200008BD08B5007CFEF76DFB30EA200028BFD6
:107E30004FF0FF3008BD08B5007CFEF75BFB30EA71
:107E4000200028BF4FF0FF3008BD007CFEF762BB6A
:107E500010B51421044600F09CFA204610BD70B500
:107E6000457C04460E4625B9007CFEF763FB0028DE
:107E700005DD3146207CBDE87040FEF72BBB28466F
:107E800070BD000010B5044608461146002262602D
:107E90004FF47A72A260054A226001222074627453
:107EA0001A46FEF70FFB204610BD00BF4CC10D0067
:107EB000007CFEF737BB000038B50C4D296811F087
:107EC000010411D12846FCF7EEF868B1084A094BC5
:107ED00009482146FFF7D6FF2846FCF7E9F8074A8C
:107EE0000749054800F050FA034838BD34E603203E
:107EF00038E60320B0E503209CE50320B0E1032031
:107F0000017E0D0041747047704708B50021007C68
:107F1000FEF730FB30EA200028BF4FF0FF3008BDED
:107F200008B50121007CFEF725FB30EA200028BFC0
:107F30004FF0FF3008BD08B5007CFEF713FB20EAC8
:107F4000E07008BD08B5007CFEF704FB20EAE07095
:107F500008BD007CFEF71EBB10B51421044600F0DE
:107F600018FA204610BD38B50446007C0D46FEF7D1
:107F7000F9FA002801DC607C28B12946207CFEF754
:107F800001FB20EAE07038BD10B5044600236360B1
:107F90004FF47A73A360054B2360012308462174D4
:107FA00063741146FEF7CEFA204610BD7CC10D0069
:107FB00010B514220446002101F0A7F9204610BD97
:107FC00030B50E4D87B001A8FFF7F2FF296811F018
:107FD000010410D12846FCF766F860B101AA2146D9
:107FE0000748FFF7D1FF2846FCF762F8054A064923
:107FF000034800F0C9F9024807B030BDBCE60320D1
:10800000C0E60320B0E10320097F0D0008B50C4B4A
:1080100033B1FFF7D5FF03681B699847002809DCD7
:10802000084B63B1FFF748FF03681B6998470028B6
:1080300003DC08BDAFF30080F2E7AFF3008008BDBA
:10804000000000000000000008B5FFF7DFFFFEF7AA
:1080500031F9014B186008BDE8E603200248034AE5
:108060000349121A01F046B900F4032004F4032076
:10807000B0C50D0007B5002300931A466FF07701D5
:10808000FEF7F4FA03B05DF804FB000007B543887F
:108090000A2B08D0502B09D1094B1B683BB103B008
:1080A0005DF804EB1847FFF7E5FF06E000230093B7
:1080B0001A466FF07701FEF7D9FA03B05DF804FBBA
:1080C000D4E6032038B5104C104D2368AB42104B5A
:1080D0000CBF012200221A7002D0FFF7BFFF2560FB
:1080E000FEF7D8F8044601F019F90A4B13B12046FF
:1080F000AFF3008000210748FEF72EFB0021064861
:10810000BDE83840FEF7A8BA00F403201E1C279AE9
:10811000D8E60320000000008D800D0008B5024B5A
:108120001B681B68019308BD5C02030008B5024B85
:108130001B685B68019308BD5C02030008B5024B35
:108140001B689B68019308BD5C02030070B5184E64
:10815000316811F0010504460AD13046FBF7A3FF50
:1081600030B129461348FFF7D7FB3046FBF7A0FF95
:108170001048FFF7DBFB28B1A4F10B03022B01D859
:10818000002070BD00F0B4F8FFF7BBF808B1012C77
:10819000F6D9FFF791FEFFF78BFE18B1A4F10903A2
:1081A000012BEDD9232C8CBF0020012070BD00BF16
:1081B000DCE60320E0E60320232838B504460D461C
:1081C0000AD8FF2908D0FFF7C1FF28B12946204669
:1081D000BDE83840FEF7BEB838BD38B504460D4698
:1081E000FEF7C0F8FF2810D0062804D84D2323FA44
:1081F00000F0C30709D42046FFF7A8FF28B129469D
:108200002046BDE83840FEF7B5B838BD10B5044685
:10821000FEF7A8F80438C0B2012808D92046FFF7B5
:1082200095FF20B12046BDE81040FEF7ABB8002016
:1082300010BD0D2810B504469CBF0E34A4B22046D4
:10824000FFF784FF50B103212046FEF77BF8032897
:1082500004D12046BDE81040FEF79CB8002010BDB8
:1082600010B5074C2368DB0708D42046FBF71BFF3B
:1082700020B1FEF72FF82046FBF71AFF014810BD8A
:10828000ECE60320F0E6032070B5044614252A46E8
:10829000094E002101F039F8258020253146A560DE
:1082A0002561284600F08FF831466060284600F0CE
:1082B0008AF8E060204670BDA4C10D0070B5044688
:1082C00014252A46094E002101F01FF8258020259B
:1082D0003146A5602561284600F075F8314660609A
:1082E000284600F070F8E060204670BDA4C10D0083
:1082F00030B50E4D296811F0010487B013D128461E
:10830000FBF7D1FE78B101A8FFF7BEFF01AA214615
:108310000748FEF79FFF2846FBF7CAFE054A0649B5
:10832000034800F031F8024807B030BDF4E60320FE
:108330000CE70320B0E10320FD710D0010B50E4CD9
:108340002368DB0786B013D42046FBF7ACFE78B178
:1083500001A8FFF7B3FF01AA01210848FEF77AFF41
:108360002046FBF7A5FE064A0649044800F00CF833
:10837000024806B010BD00BF20E70320F8E6032046
:10838000B0E10320FD710D000B460146184600F0D8
:10839000A7BEFBF784BE0000024B1868BFF35F8FD7
:1083A000704700BF24E7032010B5002814BF04461F
:1083B00001242046FEF728FA20B9FFF7EDFF08B1A7
:1083C0008047F6E710BDFFF7EFBF08B5FEF74CFAA0
:1083D000244B1A68D0075CBF01221A60224B1A682E
:1083E000D1075CBF01221A60204B1A68D2075CBF1C
:1083F00001221A601E4B1A68D0075CBF01221A6066
:108400001C4B1A68D1075CBF01221A601A4B1A680C
:10841000D2075CBF01221A60184B1A68D0075CBFF4
:1084200001221A60164B1A68D1075CBF01221A603C
:10843000144B1A68D2075CBF01221A60124B1A68EB
:10844000D0075CBF01221A60104B1A68D1075CBFCD
:1084500001221A600E4B1A68D2075CBF01221A6013
:10846000704700BF54E7032050E703204CE7032088
:1084700048E7032044E7032040E703203CE70320CC
:1084800038E7032034E7032030E703202CE70320FC
:1084900028E70320184B1A68D1075CBF01221A6035
:1084A000164B1A68D2075CBF01221A60144B1A6877
:1084B000D0075CBF01221A60124B1A68D1075CBF5B
:1084C00001221A60104B1A68D2075CBF01221A60A1
:1084D0000E4B1A68D0075CBF01221A600C4B1A6859
:1084E000D1075CBF01221A600A4B1A68D2075CBF31
:1084F00001221A60704700BF74E7032070E7032071
:108500006CE7032068E7032064E7032060E70320AB
:108510005CE7032058E70320184B1A68D1075CBFBB
:1085200001221A60164B1A68D2075CBF01221A603A
:10853000144B1A68D0075CBF01221A60124B1A68EC
:10854000D1075CBF01221A60104B1A68D2075CBFCA
:1085500001221A600E4B1A68D0075CBF01221A6014
:108560000C4B1A68D1075CBF01221A600A4B1A68CB
:10857000D2075CBF01221A60704700BF94E7032056
:1085800090E703208CE7032088E7032084E703209B
:1085900080E703207CE7032078E70320244B1A6858
:1085A000D0075CBF01221A60224B1A68D1075CBF5A
:1085B00001221A60204B1A68D2075CBF01221A60A0
:1085C0001E4B1A68D0075CBF01221A601C4B1A6848
:1085D000D1075CBF01221A601A4B1A68D2075CBF30
:1085E00001221A60184B1A68D0075CBF01221A607A
:1085F000164B1A68D1075CBF01221A60144B1A6827
:10860000D2075CBF01221A60124B1A68D0075CBF08
:1086100001221A60104B1A68D1075CBF01221A6050
:108620000E4B1A68D2075CBF01221A60704700BF68
:10863000C4E70320C0E70320BCE70320B8E703201A
:10864000B4E70320B0E70320ACE70320A8E703204A
:10865000A4E70320A0E703209CE7032098E703207A
:1086600081F0004102E000BF83F0004330B54FEAE3
:1086700041044FEA430594EA050F08BF90EA020F50
:108680001FBF54EA000C55EA020C7FEA645C7FEAE3
:10869000655C00F0E2804FEA5454D4EB5555B8BF06
:1086A0006D420CDD2C4480EA020281EA030382EA77
:1086B000000083EA010180EA020281EA0303362D09
:1086C00088BF30BD11F0004F4FEA01314FF4801CDC
:1086D0004CEA113102D0404261EB410113F0004FEE
:1086E0004FEA03334CEA133302D0524263EB4303A5
:1086F00094EA050F00F0A780A4F10104D5F1200E43
:108700000DDB02FA0EFC22FA05F2801841F100019D
:1087100003FA0EF2801843FA05F359410EE0A5F171
:1087200020050EF1200E012A03FA0EFC28BF4CF0A2
:10873000020C43FA05F3C01851EBE37101F0004558
:1087400007D54FF0000EDCF1000C7EEB00006EEB65
:108750000101B1F5801F1BD3B1F5001F0CD34908EF
:108760005FEA30004FEA3C0C04F101044FEA445246
:1087700012F5800F80F09A80BCF1004F08BF5FEACD
:10878000500C50F1000041EB045141EA050130BDAD
:108790005FEA4C0C404141EB010111F4801FA4F150
:1087A0000104E9D191F0000F04BF01460020B1FAA5
:1087B00081F308BF2033A3F10B03B3F120020CDADD
:1087C0000C3208DD02F1140CC2F10C0201FA0CF0BB
:1087D00021FA02F10CE002F11402D8BFC2F1200C20
:1087E00001FA02F120FA0CFCDCBF41EA0C019040D6
:1087F000E41AA2BF01EB0451294330BD6FEA04041F
:108800001F3C1CDA0C340EDC04F11404C4F1200209
:1088100020FA04F001FA02F340EA030021FA04F31B
:1088200045EA030130BDC4F10C04C4F1200220FA72
:1088300002F001FA04F340EA0300294630BD21FAB0
:1088400004F0294630BD94F0000F83F4801306BF76
:1088500081F480110134013D4EE77FEA645C18BF6A
:108860007FEA655C29D094EA050F08BF90EA020F01
:1088700005D054EA000C04BF1946104630BD91EAF9
:10888000030F1EBF0021002030BD5FEA545C05D1FC
:108890004000494128BF41F0004130BD14F580043B
:1088A0003CBF01F5801130BD01F0004545F0FE41AF
:1088B00041F470014FF0000030BD7FEA645C1ABFE4
:1088C000194610467FEA655C1CBF0B46024650EA1B
:1088D000013406BF52EA033591EA030F41F4002147
:1088E00030BD00BF90F0000F04BF0021704730B5CD
:1088F0004FF4806404F132044FF000054FF00001A2
:1089000050E700BF90F0000F04BF0021704730B562
:108910004FF4806404F1320410F0004548BF404237
:108920004FF000013EE700BF42004FEAE2014FEA8C
:1089300031014FEA02701FBF12F07F4393F07F4F67
:1089400081F06051704792F0000F14BF93F07F4F99
:10895000704730B54FF4607401F0004521F00041DC
:1089600020E700BF50EA010208BF704730B54FF062
:1089700000050AE050EA010208BF704730B511F067
:10898000004502D5404261EB41014FF4806404F19F
:1089900032045FEA915C3FF4DCAE4FF003025FEA21
:1089A000DC0C18BF03325FEADC0C18BF033202EBA9
:1089B000DC02C2F1200300FA03FC20FA02F001FA03
:1089C00003FE40EA0E0021FA02F11444C1E600BFA2
:1089D00070B54FF0FF0C4CF4E06C1CEA11541DBF55
:1089E0001CEA135594EA0C0F95EA0C0F00F0DEF820
:1089F0002C4481EA030621EA4C5123EA4C5350EA05
:108A0000013518BF52EA033541F4801143F4801355
:108A100038D0A0FB02CE4FF00005E1FB02E506F0E6
:108A20000042E0FB03E54FF00006E1FB03569CF03B
:108A3000000F18BF4EF0010EA4F1FF04B6F5007F41
:108A400064F5407404D25FEA4E0E6D4146EB0606B3
:108A500042EAC62141EA55514FEAC52040EA5E503C
:108A60004FEACE2EB4F1FD0C88BFBCF5E06F1ED8E6
:108A7000BEF1004F08BF5FEA500E50F1000041EB1D
:108A8000045170BD06F0004646EA010140EA0200CA
:108A900081EA0301B4EB5C04C2BFD4EB0C0541EAEC
:108AA000045170BD41F480114FF0000E013C00F301
:108AB000AB8014F1360FDEBF002001F0004170BD25
:108AC000C4F10004203C35DA0C341BDC04F114043E
:108AD000C4F1200500FA05F320FA04F001FA05F2CA
:108AE00040EA020001F0004221F0004110EBD37097
:108AF00021FA04F642EB06015EEA430E08BF20EAC3
:108B0000D37070BDC4F10C04C4F1200500FA04F365
:108B100020FA05F001FA04F240EA020001F00041F7
:108B200010EBD37041F100015EEA430E08BF20EA6A
:108B3000D37070BDC4F1200500FA05F24EEA020EB2
:108B400020FA04F301FA05F243EA020321FA04F0E1
:108B500001F0004121FA04F220EA020000EBD37098
:108B60005EEA430E08BF20EAD37070BD94F0000F98
:108B70000FD101F00046400041EB010111F4801FCC
:108B800008BF013CF7D041EA060195F0000F18BF7D
:108B9000704703F00046520043EB030313F4801FB9
:108BA00008BF013DF7D043EA0603704794EA0C0F73
:108BB0000CEA135518BF95EA0C0F0CD050EA410689
:108BC00018BF52EA4306D1D181EA030101F0004106
:108BD0004FF0000070BD50EA410606BF104619462E
:108BE00052EA430619D094EA0C0F02D150EA01363A
:108BF00013D195EA0C0F05D152EA03361CBF10467B
:108C000019460AD181EA030101F0004141F0FE4119
:108C100041F470014FF0000070BD41F0FE4141F49D
:108C2000780170BD70B54FF0FF0C4CF4E06C1CEA9D
:108C300011541DBF1CEA135594EA0C0F95EA0C0F52
:108C400000F0A7F8A4EB050481EA030E52EA03350D
:108C50004FEA013100F088804FEA03334FF080552E
:108C600045EA131343EA12634FEA022245EA11155B
:108C700045EA10654FEA00260EF000419D4208BF0C
:108C8000964244F1FD0404F5407402D25B084FEAB9
:108C90003202B61A65EB03055B084FEA32024FF465
:108CA00080104FF4002CB6EB020E75EB030E22BFC2
:108CB000B61A754640EA0C005B084FEA3202B6EB82
:108CC000020E75EB030E22BFB61A754640EA5C0031
:108CD0005B084FEA3202B6EB020E75EB030E22BFC1
:108CE000B61A754640EA9C005B084FEA3202B6EBC2
:108CF000020E75EB030E22BFB61A754640EADC0081
:108D000055EA060E18D04FEA051545EA16754FEAE2
:108D100006164FEAC30343EA52734FEAC2025FEA00
:108D20001C1CC0D111F4801F0BD141EA00014FF08F
:108D300000004FF0004CB6E711F4801F04BF014360
:108D40000020B4F1FD0C88BFBCF5E06F3FF6AFAE7C
:108D5000B5EB030C04BFB6EB020C5FEA500C50F10C
:108D6000000041EB045170BD0EF0004E4EEA11318F
:108D700014EB5C04C2BFD4EB0C0541EA045170BD96
:108D800041F480114FF0000E013C90E645EA060EDA
:108D90008DE60CEA135594EA0C0F08BF95EA0C0F08
:108DA0003FF43BAF94EA0C0F0AD150EA01347FF450
:108DB00034AF95EA0C0F7FF425AF104619462CE727
:108DC00095EA0C0F06D152EA03353FF4FDAE10468A
:108DD000194622E750EA410618BF52EA43067FF4DB
:108DE000C5AE50EA41047FF40DAF52EA43057FF46B
:108DF000EBAE12E74FF0FF3C06E000BF4FF0010C76
:108E000002E000BF4FF0010C4DF804CD4FEA410CD9
:108E10007FEA6C5C4FEA430C18BF7FEA6C5C1BD0A6
:108E200001B050EA410C0CBF52EA430C91EA030F27
:108E300002BF90EA020F0020704710F1000F91EA84
:108E4000030F58BF994208BF90422CBFD8176FEA52
:108E5000E37040F0010070474FEA410C7FEA6C5C20
:108E600002D150EA013C07D14FEA430C7FEA6C5C27
:108E7000D6D152EA033CD3D05DF8040B704700BF53
:108E80008446104662468C461946634600E000BFA1
:108E900001B5FFF7B7FF002848BF10F1000F01BD73
:108EA0004DF808EDFFF7F4FF0CBF012000205DF83E
:108EB00008FB00BF4DF808EDFFF7EAFF34BF0120C3
:108EC00000205DF808FB00BF4DF808EDFFF7E0FF5C
:108ED00094BF012000205DF808FB00BF4DF808EDAD
:108EE000FFF7CEFF94BF012000205DF808FB00BF14
:108EF0004DF808EDFFF7C4FF34BF012000205DF8F6
:108F000008FB00BF4FEA410C7FEA6C5C02D150EADB
:108F1000013C0AD14FEA430C7FEA6C5C02D152EA71
:108F2000033C02D14FF0000070474FF00100704742
:108F30004FEA410212F5001215D211D56FF4787381
:108F4000B3EB625212D94FEAC12343F0004343EA24
:108F5000505311F0004F23FA02F018BF40427047FF
:108F60004FF00000704750EA013005D111F0004089
:108F700008BF6FF0004070474FF00000704700BF1F
:108F80004A0011D212F5001211D20DD56FF4787388
:108F9000B3EB62520ED44FEAC12343F0004343EADD
:108FA000505323FA02F070474FF00000704750EA28
:108FB000013002D14FF0FF3070474FF00000704792
:108FC0004FEA4102B2F1E04324BFB3F5001CDCF1EB
:108FD000FE5C0DD901F0004C4FEAC0024CEA507023
:108FE000B2F1004F40EB830008BF20F00100704752
:108FF00011F0804F21D113F13872BCBF01F0004055
:10900000704741F480114FEA5252C2F11802C2F186
:10901000200C10FA0CF320FA02F018BF40F0010007
:109020004FEAC1234FEAD32303FA0CFC40EA0C00B9
:1090300023FA02F34FEA4303CCE77FEA625307D1F6
:1090400050EA01331EBF4FF0FE4040F4400070472D
:1090500001F0004040F0FE4040F40000704700BFC7
:10906000094B70B51C68256C06463DB91A20FDF702
:10907000CBFB1A222064294600F047F9216C3046C8
:10908000BDE8704000F002B828E1032010B50C469E
:1090900041690369826986B001F26C7104910168CB
:1090A00003914168029181680191C168009107496B
:1090B00003EB43030B44064902EB42020A442046F9
:1090C0000449FDF7B9FB204606B010BDBAC10D003A
:1090D000A5C10D00DEC10D000A22002101F066B815
:1090E00010B5054C13462CB10A4601460220AFF3D9
:1090F000008010BD204610BD0000000038B5074BB1
:109100001C68E36B05461BB92420FDF77DFBE0637B
:10911000E16B2846BDE8384000F002B828E10320A2
:109120002DE9F0410C46804601F064FE21460746D9
:10913000404601F063FE466906F26C76B3070446CA
:1091400005D1642296FBF2F302FB13634BB94FF493
:10915000C87596FBF5F305FB1365B5FA85F35B0956
:1091600000E001235F4A302505FB032501F058F993
:1091700001F058F95C4B1B68F3B17B689E4205D146
:109180003968D8F80030FA6941B90AE0304601F090
:109190009FF80028F4D14FF0FF330DE0934208DB35
:1091A00001E0934207DABA6B9342ACBF002301237C
:1091B00002E0002300E001232362236A012B0CBF9D
:1091C000F96B396A4FF461633C2091FBF3F603FBC2
:1091D0001613616893FBF0F200FB12302368891AC2
:1091E000A26861601B1A921B3B2B2360A26003DD07
:1091F000013161603C3B04E0002B03DA013961601E
:109200003C33236063683B2B03DD0132A2603C3BAF
:1092100004E0002B03DA013AA2603C336360A368E8
:10922000172B22DDE2690132E261A2690132062ACE
:10923000C8BF0022A261E268183B0132A360236923
:10924000E26055F823108A4246DD01330C2B0CBF37
:1092500063692361A2EB0102E26001BF01330022D6
:109260002261636108BFE26136E0002B34DAE26913
:10927000013AE261A269013A48BF0622A261E268AE
:109280001833013AE260A36032BB2369013B01D489
:1092900023611DE00B23236163695A1E12F0030F43
:1092A000626103F26B7305D1642193FBF1F201FB60
:1092B00012324AB94FF4C87193FBF1F201FB123339
:1092C000B3FA83F35B0900E0012303F5B673E361AE
:1092D000236955F82330E36001F0A3F82046BDE888
:1092E000F08100BF68C30D00E4E703200048704729
:1092F0002CE1032010B5431E0A44914204D011F81A
:10930000014B03F8014FF8E710BD024403469342B6
:1093100002D003F8011BFAE77047000038B5124B82
:109320001C68A36B0546D3B91820FDF76DFA43F20C
:109330000E33A06303804AF6CD33438041F23423D9
:1093400083804EF26D63C3804DF6EC630381052389
:1093500043810B23838101220023C0E90423A36BF3
:1093600000221D615A6138BD28E1032010F8012B4D
:1093700011F8013B012A28BF9A42F7D0D01A704752
:10938000034611F8012B03F8012B002AF9D170478D
:10939000024B0146186800F003B800BF28E1032023
:1093A00070B5064608460C4600F00DF8451C2946E7
:1093B0003046FDF761FA064618B12A462146FFF706
:1093C00099FF304670BD034613F8012B002AFBD1EC
:1093D000181A0138704730B582B1451E013915F8A9
:1093E000013F11F8014FA34206D1EC431444E0427F
:1093F00001D0002BF3D11C46181B30BD104630BDE8
:1094000010B5034642B111F8014B03F8014B013A84
:10941000002CF7D11A4400E010BD934202D003F8AB
:10942000014BFAE710BD70B504460D4645EC104BF4
:10943000164602F041F851EC100B7EB1C5F30A5309
:10944000C3F16B03002B09DD1B0503F17F550024DD
:1094500005F5401522462B46FFF7BAFA70BD00000D
:109460002DE9F04F9DB0002302900C461392189303
:109470004FF0000A4FF0000B1791179B1A780D2A36
:1094800005D8092A13D2002A00F0AC8112E02B2A59
:1094900004D02D2A04D0202A0CD108E0002200E0BC
:1094A00001220C925A1C17925B782BB99AE1013376
:1094B0001793E2E700230C93179D2B78302B5CD198
:1094C0006B78582B01D0782B4CD10C9B019318ABA7
:1094D0000093A94A029819AB17A901F074F910F08A
:1094E0000706044600F08785062E05D101350023C6
:1094F00017950C9300F07FBD189A3AB135211AA840
:1095000002F0C7F81899029801F045FD062E22D8FE
:10951000DFE806F0040D08181D0D04004FF0000BE5
:10952000DA4618E0DDF868A0DDF86CB013E01B9BAC
:10953000199ADDF868A023F4801302F2334243EA5B
:10954000025B08E0DFF834B24FF0000A03E06FF08E
:10955000004B4FF0FF3A210740F14D854BF0004B97
:1095600000F049BD179B5A1C17925B78302BF9D03D
:10957000002B00F04085012300E000234FF000089D
:109580000693179B0793CDF81480CDF810800A221C
:10959000179D2E78A6F13003D9B209290ED8049967
:1095A0000829DDBF059902FB0133059302FB08384A
:1095B000049B0135013304931795E9E70298FFF7FF
:1095C00095FE07680298FFF791FE0068FFF7FBFE23
:1095D000394602462846FFF7FEFE074628B100201E
:1095E0003346049D0246014657E00298FFF77EFE8F
:1095F0000068FFF7E8FE179B1A181792049A1B5C85
:10960000002A42D11046302B05D1179B5A1C1792C5
:1096100001305B78F7E7A3F13102082A43D8179AA3
:109620000792024600200546303B00F1010126D09A
:109630000A4405EB000C29460A2661450ED001318B
:1096400001F1FF3EBEF1080F03DC059F774305974C
:10965000F3E71029D8BF06FB08F8EEE728440828EE
:1096600000F1010505DC05980A2101FB0033059393
:1096700004E0102DDCBF0A2101FB08380021179BF4
:10968000581C17905B78084602E0049D38463A461D
:10969000A3F130010929C7D90121652B01D0452B40
:1096A00051D16DB904E0652B40F0B3840022012153
:1096B00028B9069B002B00F09580054600E00025A8
:1096C000179C631C179363782B2B06D02D2B02D08D
:1096D0000026039606E0012300E000230393A31C69
:1096E0001793A378A3F13006092E2BD8302B04D181
:1096F000179B5E1C17965B78F8E7A3F13106082EDE
:1097000021D8A3F1300E179B4FF00A0C1F46179B70
:109710005E1C17965B78A3F13009B9F1090F04D8E4
:109720000CFB0E3EAEF1300EF1E7F61B082E44F6B0
:109730001F6902DCF145A8BFF146039E2EB1C9F1B5
:10974000000902E017944FF00009002D53D10028C2
:1097500040F05184069A002A40F04D84002941D1FE
:109760004E2B20D002DC492B0AD03BE0692B07D0DE
:109770006E2B18D036E000BFC8C30D000000F07F8C
:10978000A84917A801F050FA60B3179BA649013BFE
:1097900017A8179301F048FA10B9179B01331793D4
:1097A000DFF8A0B21AE0A14917A801F03DFAC8B14C
:1097B000179B1B78282B0FD11AAA9D4917A801F0D7
:1097C00046FA052808D11B9BDDF868A043F0FF4B43
:1097D0004BF4E00B00F00FBCDFF86CB24FF0000A66
:1097E00000F009BC139B1794002B00F00F8400239A
:1097F0000C9300F002BC049B0598002B08BF2B467D
:10980000102D2C46C2EB0909A8BF10240493FFF7C2
:1098100069F8092C82468B4613DD864B03EBC403A3
:1098200053E91223FFF7D4F8064640460F46FFF7E8
:1098300059F802460B4630463946FEF717FF824676
:109840008B460F2D36DCB9F1000F00F0D48324DDF8
:10985000B9F1160F07DC774D05EBC90952465B4697
:10986000D9E9000114E0C5F12503994522DC714CCA
:10987000C5F10F0504EBC501C5EB090552465B4672
:10988000D1E9000104EBC504FFF7A2F8D4E90023F5
:10989000FFF79EF882468B46ADE319F1160F09DB00
:1098A000644DA5EBC909D9E9002350465946FFF795
:1098B000B9F9EFE72C1B4C44002C57DD14F00F01D5
:1098C0000AD05C4B03EBC10152465B46D1E9000173
:1098D000FFF77EF882468B4634F00F0400F0B88024
:1098E000B4F59A7F0BDD0024254605940494029A72
:1098F000DFF850B1222313604FF0000A87E14E4E8B
:10990000002324115046594698463746012C0BDD5A
:10991000E20704D5D6E90023FFF75AF8012308F13E
:10992000010864100836F1E70BB182468B46ABF1B3
:10993000547B07EBC80752465B46D7E90001FFF7A7
:1099400047F821F000438B460A461B0D3B491B0597
:109950008B428246C7D8A1F580118B4286BFDFF8C3
:10996000ECB04FF0FF3A02F1547B71E070D06442EA
:1099700014F00F020AD02F4B03EBC2035046594696
:10998000D3E90023FFF74EF982468B4624115FD0BE
:109990001F2C04DD002425460594049430E114F0C6
:1099A000100F0CBF00236A23254E039350465946DF
:1099B0000023002C09DDE20704D5D6E90023FFF7D8
:1099C00007F8012364100836F3E70BB182468B4693
:1099D000039BEBB1CBF30A53C3F16B03002B594646
:1099E00016DD1F2B0EDD342BDEBF203B4FF0FF3288
:1099F00002FA03F34FF0000ACCBF4FF05C7B03EA9E
:109A0000010B05E04FF0FF3202FA03F303EA0A0A02
:109A10000022002350465946FFF742FA0028B9D1E8
:109A200018E000BFF0C30D00F3C30D00F9C30D0033
:109A3000DCC30D0068C40D0030C50D000000A07C23
:109A400000C40D000000F07F0000F8FFFFFFEF7F73
:109A500000230393059B0093049A079902982B46D1
:109A600001F0EBFA059000283FF43DAFB9F1000F8B
:109A7000C9F10003A8BF00230D93002429EAE9736C
:109A800012932546059B0298596801F04FFA0490FD
:109A900000283FF42CAF059B1A69023203F10C0138
:109AA00092000C30FFF726FC1AAA19A94BEC10AB58
:109AB0000298CDE908AB01F074FD189000283FF43E
:109AC00016AF0121029801F043FB054600283FF440
:109AD0000EAF199B03991A9E002BADBF0D9A129AD7
