:02000002D0002C
:1040000000400D000CC90D00000006000D00050168
:084010000401D50700000000C7
:0440180020B90D00BE
:1040200009480A49884208B505D0094A824202D0A7
:10403000121A05F0D5F80748074A0021121A05F0B0
:10404000DDF8014808BD00BF30E103201CC60D00AB
:10405000F4E30320F8E30320F1E7032070B5074EF3
:10406000074C03F07DFFA41BA4080025A54200D146
:1040700070BD56F8043B98470135F7E7E4C50D00DD
:1040800008C60D0001F070B808B501F05BFBBDE893
:10409000084003F027BF02F08FBB02F08DBB02F097
:1040A00093BB0078B0FA80F0400970470123037099
:1040B00070470000014B01221A70704784E503200D
:1040C000024A01239371024A137070470CE50320E2
:1040D00040E5032003681847012A03D0022A03D0D1
:1040E000002070470160FBE70B680360F8E738B514
:1040F0000446006928B185680C2104F0A8F8284618
:10410000F8E7204638BD000008B5044903F09FFBDE
:1041100018B1034B03221A70012008BD78B90D00B5
:1041200004E50320436913B183690C3018477047D5
:1041300013B500210446084602F022F80023204669
:1041400001A9019302F034F8019C0CB10123237101
:104150000021012002F014F82CB1236820469B684E
:1041600098470023237102B010BD0023022202F001
:1041700073BA0023042202F06FBA37B59DF81850C5
:104180001D438DF800503C23044602F03BFE2046C0
:1041900003B030BD10B50446006808B102F014FB4E
:1041A000204610BD10B58368044613B103220146B2
:1041B0009847204610BD0000F8B5037D05460F4620
:1041C00016468BB10368DB6883B19A88012A06D052
:1041D0009B68F9E79B684BB19A88012AFAD12BB109
:1041E0009A89BA42F6D19E732846F8BD0A49102032
:1041F00004F02FF8044668B11022002104F0FEFFFD
:10420000064B23600123A3802B69A360A781A673BB
:104210002C61E9E72875E7E778C20D00100003007C
:1042200070B5037D05460E46CBB10368DB6823B14C
:104230009A88042A17D09B68F9E70C49102004F0EB
:1042400008F8044668B11022002104F0D7FF084B9B
:1042500023600423A3802B692C61C4E9023628461D
:1042600070BD2875FBE7DE60F9E700BF78C20D007E
:10427000100003000246014802F0ACBCA96B0D001F
:10428000F0B58C460025144905710446856001602F
:1042900092E8030085B002AF04F10C0687E8030042
:1042A00096E8030082E8030097E8030086E803002D
:1042B0009168A0696161D1689560D060A161CDE924
:1042C0000035064A2346614604F1080001F060FF0C
:1042D000204605B0F0BD00BF04C00D0031410D0007
:1042E00007B580680B46002140B1CDE900210A46A0
:1042F000032101F065FFB0FA80F0400903B05DF8DA
:1043000004FB08B5806828B1002101F071FF003876
:1043100018BF012008BD07B58068002338B1CDE97A
:104320000013022101F04CFFB0FA80F0400903B005
:104330005DF804FB38B5104B036083680446A3B1F5
:104340006FF000410022FFF7E6FFA068002101F0B6
:1043500057FF237903F0FF0513B101F009FFF8E7D8
:10436000A068294601F01CFFA56004F10C00FFF7CE
:1043700019FF204638BD00BF04C00D0010B504462B
:10438000FFF7D8FF20461C2103F061FF204610BD37
:1043900037B5054600220C461146FFF7BCFFA8685A
:1043A000002340B1CDE900431A46194601F008FF49
:1043B000B0FA80F0400903B030BD000038B50A4CB7
:1043C0000A4D2378BFF35B8F13F0010F09D120460C
:1043D000FFF767FE28B101F07BFF28602046FFF75A
:1043E00065FE286838BD00BFFCE3032000E403201D
:1043F00030B5194D0FCD99B004AC0FC40FCD0FC41B
:1044000095E8030084E8030014490EA802F096FA28
:104410000EA802F0E6FA04460EA802F0EBFA0EA887
:1044200010EE105A02F016FB18AB10EE100A03EB58
:10443000840404F079F8CDE90201284604F074F808
:10444000CDE90001064A54F8503C0648402102F0EC
:10445000DBF919B030BD00BF10C00D0090E503209E
:10446000ADB90D0004E403202DE9F84F1B48DFF837
:1044700070A0406800231A46194602F06DF902F058
:1044800003F94FF496744FF0000B40F2E7384FF009
:104490000009002001F00CFF0546002001F008FF94
:1044A000461B61EB0B07B94508BFB04505D302F0C9
:1044B000F3F810B902F0E0F8EFE702F0EDF818B108
:1044C000BDE8F84F02F0E8B801F0C2FECAF80000FB
:1044D00002F0D2F8013CDCD1F2E700BF90E5032006
:1044E00084E7032008B502F0D7F880F00100C0B2DD
:1044F00008BD00002DE9F04385B0002401A8CDE9F6
:1045000001448DF80C4002F076FB204601F0D0FE0D
:1045100043F6972805464FF00009002001F0C8FE39
:10452000461B61EB0407B94508BFB04505D3FFF74B
:10453000D9FF10B902F0A0F8EFE7FFF7D3FF074863
:1045400000231A461946406802F00EF94FF4FA604B
:1045500002F086F9012005B0BDE8F08390E5032064
:1045600008B503F079FB122806DC03F075FB05287B
:10457000D4BF0020012008BD0020FCE713B504468D
:10458000012101A802F0C5FF01A83CB103F03DF8EC
:1045900001A802F0CDFF204602B010BD03F04CF898
:1045A000F6E7000010B5202490B0224600216846AE
:1045B00004F024FE224600210DEB04008DF8054096
:1045C00004F01CFE00210DEB04008DF8254002F0E4
:1045D00025F8154B5979C1B141F2D833ADF8063001
:1045E000124B029341F27003ADF80C30009B43F480
:1045F000007300930021684602F010F80446012081
:10460000FFF7BCFF204610B010BD41F27003ADF8BB
:104610000630074B029341F21003ADF80C30009BBB
:1046200043F400730093E6E70CE5032084030004E1
:104630008403840310B5074C01F00AFE2368C01AF6
:10464000B0F57A7F04D301F003FE2060012010BD95
:104650000020FCE758E4032008B5FFF7EBFF10B992
:1046600002F00AF8F9E7BDE80840FFF7E3BF0000F1
:1046700030B585B0002301A8CDE901338DF80C30A9
:1046800002F0B9FA01F0E4FD43F69725044602F082
:1046900003F840B101F0DCFD001BA84203D8642000
:1046A00002F0DEF8F3E70021094B47F230520846EA
:1046B00001F056FD4FF47A7002F0D2F8054B0A2251
:1046C0001B68012101A803F0B9F905B030BD00BF96
:1046D000C6B90D0050E4032030B585B00D46002268
:1046E0006946009201F03CFFB0B9009C0CB123690F
:1046F00023B90A4A00210A2001F022FF0023ADF865
:1047000006300C23ADF8043004230393029523698B
:1047100001AA01212046984705B030BD41620D0035
:1047200030B50E4D0FCD89B001AC0FC495E8070030
:1047300084E8070069460720FFF7CEFF0028A8BFDE
:104740000098074A08AB03EB8000102150F81C3C8E
:10475000044802F059F809B030BD00BF38C00D0060
:10476000AFBE0D007CE403207FB5524D524C2B7B35
:104770003BB1524801F0D0FCB4EE400AF1EE10FA21
:104780003ED70023A3616361606903F0CDFE4C4A0C
:10479000CDE9000110214B4802F036F8A06903F082
:1047A000C3FE494ACDE900014848102102F02CF827
:1047B0002B7C83B3464801F0DBFB454801F092FBBC
:1047C00084ED070AE06903F0AFFE424ACDE900013B
:1047D0004148102102F018F8AB7BFBB1132003F025
:1047E00084FC642600231946009640F68A6202F093
:1047F0002BF8AB7B2060022B12D0002363601AE001
:104800002E4801F089FC2D4884ED050A01F092FC48
:1048100084ED060AB8E70023E361D3E72360ECE701
:10482000122003F062FC0023009640F68A621946CB
:1048300002F00AF86060EB7B012B34D1112003F009
:1048400054FC1E2300934FF4306200234FF4D671C2
:1048500001F0FAFFA060214B00225868114601F0D8
:1048600073FF08B1FFF7C4FD03A90320FFF734FF6E
:10487000E0B9BDF80C3007EE903AFBEECC7AFDEED5
:10488000E77A174A1748C5ED027A17EE903A0821E1
:1048900001F0BAFFFFF744FF134B01201870134BD0
:1048A000187004B070BD0023EB73D4E7FFEE007AFC
:1048B000E5E700BF0CE50320ACE4032044E503205A
:1048C000D3B90D0050E50320DBB90D00D2E403207D
:1048D000F4E40320E4B90D00E2E4032090E50320B2
:1048E000EEB90D008CE40320D1E4032040E5032061
:1048F00038B5046805467CB16368013B63605BB909
:10490000236820469B689847A368013BA3601BB9B6
:1049100023682046DB689847284638BD30B52F4CC1
:10492000D1B0236A0D932E4B9A690C922D4A0B92AB
:104930009B680A93E3680993A368089363680793E5
:1049400023680693E06903F0EFFDCDE90401A06957
:1049500003F0EAFDCDE902016069234C03F0E4FDB8
:104960000025CDE90001214A4FF4807110A801F023
:104970004BFFFFF771FE8DF8005023781C4910AAF9
:104980000EA8FFF7FAFB0FA8FFF7B2FFFFF764FED0
:104990008DF800502378174910AA0EA8FFF7EDFBF9
:1049A0000FA8FFF7A5FFFFF757FE8DF800502378FB
:1049B000114910AA0EA8FFF7E0FB0FA8FFF798FF18
:1049C00003F04AF90D4B18700D4B01221A7001F0DB
:1049D0003FFC0C4B186051B030BD00BFACE403206D
:1049E0000CE503207CE4032054E40320F4B90D001B
:1049F000B0BA0D00D1BA0D00E9BA0D00D0E4032021
:104A000030E1032088E5032010B50B7894B00C4604
:104A1000A3B91C4904A804F027FCFFF71DFE0023DE
:104A20008DF80030184B19491B7804AA02A8FFF72B
:104A3000A4FB03A8FFF75CFF14B010BD084604F008
:104A4000C7FAC8280ED1124904A804F00DFC03F0DF
:104A5000F2F8104BD861104B01221A700F4B002254
:104A60001A70DAE7204604F0B3FAC928EBD02046E2
:104A700004F0AEFA0A4A0346402104A801F0C4FE3D
:104A8000CBE700BF02BB0D0054E4032039BB0D008F
:104A90000ABB0D000CE5032040E5032030E10320B4
:104AA0001CBB0D007FB51F49044602F0D0FE064630
:104AB000A0B11D4A002393731C4A012414708DF881
:104AC00000301B4B1B4A1B781B4902A8FFF755FB04
:104AD00003A8FFF70DFF204604B070BD174920461C
:104AE00002F0B5FE054650B10F4B154A01249C73E8
:104AF0000E4B1C700E4B8DF800601B78E4E71149DB
:104B0000204602F0A4FE0028E6D0074B02229A734A
:104B1000064B0D4A01241C70054B8DF800501B7884
:104B2000D2E700BF46BB0D000CE5032040E50320A3
:104B300054E4032048BB0D0058BB0D0078B90D00AC
:104B40005FBB0D005DBD0D006FBB0D0030B516499C
:104B500085B0044602F07BFE0546A0B1134A00234F
:104B6000D373134A012414708DF80030114B124A8C
:104B70001B78124902A8FFF700FB03A8FFF7B8FE55
:104B8000204605B030BD0E49204602F060FE0028E8
:104B9000F7D0064B0B4A0124DC73054B1C70054B08
:104BA0008DF800501B78E4E746BB0D000CE50320B0
:104BB00040E5032054E4032080BB0D0058BB0D00EA
:104BC00078B90D0093BB0D0030B51A4985B0044685
:104BD00002F03DFE0546A0B1174A00231374174AA0
:104BE000012414708DF80030154B164A1B781649B5
:104BF00002A8FFF7C2FA03A8FFF77AFE204605B025
:104C000030BD1249204602F022FE0028F7D00A4BA0
:104C10000F4801241C74094B1C7001F058F90C4812
:104C2000202101F090F9064B8DF800501B78094ABD
:104C3000DDE700BF46BB0D000CE5032040E5032087
:104C400054E40320ABBB0D0058BB0D0078B90D0038
:104C5000F4E40320BBBB0D0030B5184985B0044611
:104C600002F0F5FD0546A0B1154A00231373154A5D
:104C7000012414708DF80030134B144A1B7814492A
:104C800002A8FFF77AFA03A8FFF732FE204605B024
:104C900030BD1049204602F0DAFD0028F7D0084B5D
:104CA0000D4801241C73074B44211C7001F09EF930
:104CB000054B8DF800501B78084AE0E746BB0D0015
:104CC0000CE5032040E5032054E40320D0BB0D0095
:104CD00058BB0D0078B90D0044E50320D3BB0D008F
:104CE00010B5C6B000680A2203A905F00BFA431EEE
:104CF000362B2CD8174B184C01221A702062034611
:104D0000164A4FF4807106A801F07EFD1448FFF7A3
:104D1000F8FA40B1236A12484EF660216FF0004263
:104D20005943FFF7DDFAFFF797FC01F0B5FC60B1DE
:104D300000238DF800300B4B0B491B7804A806AA02
:104D4000FFF71BFA05A8FFF7D3FD012000E00020C4
:104D500046B010BD40E503200CE50320F2BB0D007A
:104D600068E5032054E4032016BC0D0010B5C6B05E
:104D700000680A2203A905F0C5F9431E362B2CD87A
:104D8000174B184C01221A7060620346164A4FF402
:104D9000807106A801F038FD1448FFF7B2FA40B15F
:104DA000636A12484EF660216FF000425943FFF7E4
:104DB00097FAFFF751FC01F06FFC60B100238DF80A
:104DC00000300B4B0B491B7804A806AAFFF7D5F956
:104DD00005A8FFF78DFD012000E0002046B010BDC2
:104DE00040E503200CE503201FBC0D0068E503200F
:104DF00054E4032016BC0D0010B5C6B000680A22AA
:104E000003A905F07FF9431E362B2CD8174B184CFD
:104E100001221A70A0620346164A4FF4807106A858
:104E200001F0F2FC1448FFF76CFA40B1A36A124893
:104E30004EF660216FF000425943FFF751FAFFF739
:104E40000BFC01F029FC60B100238DF800300B4B06
:104E50000B491B7804A806AAFFF78FF905A8FFF7EE
:104E600047FD012000E0002046B010BD40E50320D2
:104E70000CE5032041BC0D0068E5032054E4032049
:104E800016BC0D0070B586B0006803A905F066F881
:104E9000B5EEC00AF1EE10FA32D4DFED1A7AB4EEB4
:104EA000E70AF1EE10FACCBF0126002628DC164BEB
:104EB000164D01241C7010EE100A85ED0B0A03F04C
:104EC00033FB134ACDE900011248082101F09CFC94
:104ED0002B7913B9012006B070BD01F0DDFB00286D
:104EE000F8D0FFF7B9FB0C4B8DF8006004A81B78D5
:104EF000084A0A49FFF741F905A8FFF7F9FCE9E775
:104F00000020E8E70000C84240E503200CE503204C
:104F100065BC0D0060E5032054E4032019BD0D00BD
:104F200030B5164985B0044602F091FC0546A0B1A3
:104F3000134B144A01241C71134B1C7000238DF871
:104F40000030124B1B78124902A8FFF716F903A88C
:104F5000FFF7CEFC204605B030BD0E49204602F0DA
:104F600076FC0028F7D0064B0B4A1D71064B012436
:104F70001C70064B8DF800501B78E4E778B90D00E3
:104F80000CE503206EBC0D0040E5032054E4032033
:104F90008FBC0D0046BB0D007FBC0D0030B52A490B
:104FA00085B0044602F053FC60B32749204602F066
:104FB0004EFC78BB2549204602F049FC00283ED033
:104FC00001F06AFB224C18B9FFF74EFA0123E37097
:104FD000FFF742FB00251F4B8DF800501B781E4A3F
:104FE0001E4902A8FFF7C9F803A8FFF781FC4FF498
:104FF0007A7001F035FC1A486FF00041FFF7C8F9EC
:10500000A5711CE01149204602F021FC0028CCD1FA
:1050100005B030BD01F040FB70B1FFF71DFB002370
:105020008DF800300B4B0F4A1B780C4902A8FFF794
:10503000A4F803A8FFF75CFC054B01229A710A4B08
:1050400001201870E4E700BF78B90D0046BB0D00E1
:105050000CE5032054E40320A3BC0D008FBC0D001D
:1050600060E4032094BC0D0040E50320F0B5354911
:1050700085B0044602F0EBFB60B320463149324F65
:10508000324D334E02F0E3FB044658BB014602208A
:1050900002F0FFFF2146032002F0FBFF686901F0E8
:1050A000DFFB0121032002F0F4FF4FF47A7001F0DE
:1050B000D7FB2146032002F0ECFF686901F0D0FB2A
:1050C0000121032002F0E5FF3378224AFC608DF8CD
:1050D00000402CE02049204602F0B9FB0028CCD14A
:1050E00005B0F0BD012421460220FC6002F0D1FF92
:1050F0000021032002F0CDFF686901F0B1FB2146D9
:10510000032002F0C6FF4FF47A7001F0A9FB0021E2
:10511000032002F0BEFF686901F0A2FB21460320D4
:1051200002F0B7FF00238DF800300C4A33780C49A9
:1051300002A8FFF722F803A8FFF7DAFB094B0120CA
:105140001870CDE778B90D00ACE403200CE503201E
:1051500054E40320CDBC0D0046BB0D00B5BC0D00D2
:10516000C4BC0D00D1E40320F0B5B94BBDB00CAA0E
:1051700003F11005164618685968144603C408332D
:10518000AB422246F7D119889B782180A3702D224B
:105190000021B04F0DF1430004F030F802233B70C2
:1051A000FFF70CF990F83050FFF708F96C0190F810
:1051B000315005F01F0525432F2D40F32182A64ACB
:1051C00000210A2001F0BCF9A44B05F01F050124C1
:1051D00004FA05F5C3F808552146072002F048FFF8
:1051E0000021042002F044FF0021132002F040FFC0
:1051F0000021122002F03CFF0021112002F038FFB4
:1052000021460E2002F034FF21460E2002F041FF1D
:105210002146032002F02CFF2146022002F028FF45
:105220002146032002F035FF0021022002F031FF69
:1052300004A801F039FA002500237D221CA904A846
:1052400002F017FB2B462A468549CDE900551CA8DC
:1052500001F03AFA83498448FEF78BFF834984487A
:10526000FEF783FF83498448FEF783FF8349844820
:10527000FEF77FFF83498448FEF77BFF834984481C
:10528000FEF773FF83498448FEF76FFF8349844824
:10529000FEF76BFF83498448FEF76BFF8349844820
:1052A000FEF767FF83498448FEF763FF834984481C
:1052B000FEF75FFF83498448FEF757FF8349844820
:1052C000FEF753FF83498448FEF74FFF8349844824
:1052D000FEF74BFF83498448FEF7CCFF834984489F
:1052E000FEF7C8FF83498448FEF7C4FF834984481A
:1052F000FEF7C0FF83498448FEF7BCFF834984481A
:10530000FEF7B8FF83498448FEF7B4FF8349844819
:10531000FEF7B0FF83498448FEF7ACFF8349844819
:10532000FEF7A8FF83498448FEF7A4FF8349844819
:10533000FEF7A0FF83498448FEF79CFF02F0ECFED5
:10534000284600F095FF022811D002F0E5FE7F49C3
:105350000422284600F09CFF02F0DEFE20460422D4
:1053600008A90134089500F093FFF02CF4D1784C93
:1053700002F0D2FE34222146012000F081FF02F02B
:10538000CBFE50492422502000F07AFFA37923B9A4
:1053900070486FF00041FEF7FBFF237B4BB16E4876
:1053A000442100F023FE20B920736C49304603F0FD
:1053B0005BFF237C33B16A4800F089FD68482021F7
:1053C00000F0C1FD0022114608A8089200F028FF55
:1053D000089B142B02BFA3690133A361A369052BAA
:1053E00003DD0423A361FFF743F9637C4BB1E06A5B
:1053F00003F09AF85B4ACDE900012A48082101F040
:1054000003FA06236361637C63B12E4BDB684BB107
:10541000554908A802F0EDF908A8FFF727FE08A8EB
:1054200002F09CF901236371FFF7BCF8042002F03D
:1054300049FE002840F09A804B4908A802F0D9F9AB
:1054400008A8FFF7ABFD08A802F088F98EE000BFBE
:1054500054C00D0004E5032041620D00000300501C
:10546000094A0D0004E40320DDBC0D0024E50320FF
:10547000E4BC0D0094C00D00EFBC0D008CE40320D3
:10548000F7BC0D007CE4032002BD0D002CE50320D9
:10549000F0BD0D0030E5032003BE0D0034E5032010
:1054A00014BE0D0060E5032011BD0D0050E5032082
:1054B00023BD0D00D2E403202FBD0D00E2E4032044
:1054C00038BD0D00ACE4032043BD0D00B0E4032063
:1054D00051BD0D00B4E403205FBD0D003CE5032089
:1054E00068BD0D0009410D0074BD0D009D4F0D00FC
:1054F00080BD0D00214F0D008DBD0D006D500D00C4
:10550000C4BC0D00A54A0D009ABD0D004D4B0D0009
:10551000A9BD0D00C94B0D00BBBD0D0049560D00C6
:10552000CABD0D00594C0D00DABD0D00E14C0D0057
:10553000EDBD0D006D4D0D0000BE0D00F94D0D00CF
:1055400011BE0D00854E0D0024BE0D009CC00D0047
:105550000CE5032060E4032044E5032036BE0D0083
:10556000F4E4032065BC0D0046BB0D00FFF7FCF81A
:105570002E4BA2681B689A4248DC08233B7001F05E
:105580008BF870B1237963B100238DF80030284B7C
:1055900028491B7808A83246FEF7EFFD09A8FFF757
:1055A000A7F902F053FC314602F092F8B0EE000A7F
:1055B00002F0CCFAFFF750F801F06EF8C0B1237991
:1055C000B3B102F038FB0246C31708A802F0DEFAB6
:1055D00000238DF80030164B089A1B78164902A854
:1055E000FEF7CBFD03A8FFF783F908A802F0B6F891
:1055F000124B012204A81A7002F0B0F83DB0F0BDC1
:105600001F2D3FF7E1AD4FF0A043E0E5FEF72CFF83
:105610000028B4D101233B7000F01AFE084B094961
:105620001860304603F020FEA9E700BF34E10320F4
:1056300054E403207CBE0D0084BE0D0040E5032031
:1056400000E503206ABE0D0030B587B01B49044653
:1056500002A802F0CEF802A8FFF708FD02A802F0A7
:105660007DF81749204602F0F2F80546A0B1154B27
:10567000154A01245C74154B1C7000238DF8003012
:10568000134B1B78134902A8FEF777FD03A8FFF719
:105690002FF9204607B030BD0849204602F0D7F860
:1056A0000028F7D0074B0C4A5D74084B01241C708E
:1056B000074B8DF800501B78E4E700BF46BB0D0098
:1056C00078B90D000CE5032092BE0D0040E50320E3
:1056D00054E4032058BB0D008FBE0D0030B5134DB0
:1056E000134C14492A7820788FB00E2303FB021242
:1056F000009203FB0013104A282104A801F084F84B
:105700002B78237000F0C8FF70B1FEF7A5FF0023CF
:105710008DF80030094B0A491B7802A804AAFEF74D
:105720002CFD03A8FFF7E4F80FB030BD04E503201B
:10573000FCE4032038E10320A4BE0D0054E4032060
:10574000B2BE0D002DE9F041A24C2378013B8AB096
:10575000072B74D8DFE813F0710208004D007B00BE
:1057600017016E01A00121029B4D2B792BB19B4BA0
:105770001B78022B01D0FFF7B1FF994E337843B16C
:1057800002F0CAFC94493422012000F081FD00237C
:105790003370944E337843B102F0BEFC9249242218
:1057A000502000F075FD00233370AB7963B100F039
:1057B0004FFD8E4B1B68C01A8D4B984204D98A4B03
:1057C000DB680BB90723237002F046FA894BAA68FD
:1057D0001B7898421CBF03232370874B1B689A4297
:1057E000DCBF08232370854B1B7843B3042323704D
:1057F00025E0794D2B792BB1784B1B78032B01D009
:10580000FFF76CFFFEF7B0FF0646D8B901232370FF
:1058100000F01EFD7A4B18602B7983B100F03CFF3D
:1058200068B1FEF719FF774B8DF8006006A81B786A
:10583000754A7649FEF7A1FC07A8FFF759F80AB0A8
:10584000BDE8F0816B7C002BD0D10523CFE76B4DF9
:105850006C4E2B7803F0FF07CBB10027FEF7FCFE60
:105860008DF8007033786A4A6A4906A8FEF785FC0D
:1058700007A8FFF73DF8684906A801F0BAFF06A897
:10588000FFF7F4FB06A801F069FF2F70DDE702F0D7
:10589000E3F90828544D0BD14F4FBB68312B2ADC5C
:1058A000FEF7DAFE00238DF8003033785B4A0DE016
:1058B00002F0D2F90C28EFD002F0CEF91128EBD08B
:1058C000FEF7CAFE8DF800703378554A514906A894
:1058D000FEF753FC07A8FFF70BF8EB68002BB4D0DA
:1058E0004D4906A801F085FF06A8FFF7BFFB06A8F3
:1058F00001F034FFA9E7D5ED007A97ED0B7AF8EEC9
:10590000E77AF4EEC77AF1EE10FA34D5D5F80C80C8
:10591000B8F1000F2FD1FEF79FFE8DF8008033788D
:10592000404A3C4906A8FEF728FC07A8FEF7E0FF1E
:105930003D4906A801F05DFF06A8FFF797FB06A802
:1059400001F00CFF02F088F9082809D13B6A6FF0DA
:1059500000424EF6602159433448FEF7C1FC74E71B
:1059600002F07AF90C280CBF796AB96A4EF6602306
:105970006FF00042EFE7FEF76FFE00238DF8003076
:1059800033782B4AA2E7144D2B792BB1134B1B789C
:10599000052B01D0FFF7A2FE00F07EFE90B102F0D1
:1059A0005BF9064650B9287100F076FE10B130461A
:1059B00000F092FE0C4A0023AB611362FEF7AEFFCB
:1059C000062314E700F068FE00287FF438AF0123B7
:1059D0000DE700BF04E503200CE50320FCE40320F1
:1059E00040E50320D1E40320ACE4032008E50320D4
:1059F000905F0100D0E4032034E1032084E503201C
:105A000000E5032054E40320C3BE0D00DDBE0D00FD
:105A1000E3BE0D00C4BC0D0046BB0D000EBF0D0063
:105A2000FCBE0D0032BF0D0078B90D0068E5032003
:105A30005CBF0D00AA4B1B792BB1AA4B1B78062B20
:105A400001D0FFF74BFEA84B1B782BB900F000FCF0
:105A5000A64B18600223CAE600F0FAFBA44B1B68B1
:105A6000C01A4AF6C87398427FF6E9AE00F0F0FB20
:105A7000A04B186000F010FE0028A8D000238DF87D
:105A800000309D4B9D4A1B789D4906A8FEF775FB8B
:105A900007A8FEF72DFF9AE7914D2A792AB1914B7D
:105AA0001B78072B01D0FFF719FE964B964E9B688B
:105AB000012B05DD33781BB901233370032396E6F0
:105AC00000F0EAFDB0B12B7973B1FEF7C5FD0023FC
:105AD0008DF80030884B8D4A1B788D4906A8FEF75B
:105AE0004CFB07A8FEF704FF4FF47A7000F0B8FEF5
:105AF000FEF700FD0021072002F0CBFA00210E2066
:105B000002F0C7FA0023337002F0B2F8814B1A7D1D
:105B1000C0F13C050AB101221A72002204217D481D
:105B2000FEF74AFB4EF660216943FEF779FB79499F
:105B300003A801F01FFF039B7BB19A88012A0CD1B7
:105B40009B89042B09D1744906A801F052FE06A8CE
:105B5000FFF724FA06A801F001FE0121072002F058
:105B600098FA01210E2002F094FAFEF7F9FC68B1D0
:105B7000FEF7F6FC78B1FEF777FC0223039823705A
:105B800000283FF45CAE00F01FFE58E602F064F817
:105B9000C307EDD4EFE70723F0E7514D2A792AB187
:105BA000504B1B78082B01D0FFF798FD00F074FDD7
:105BB000A0B1FEF751FD00238DF800304E4B574A3F
:105BC0001B78534906A8FEF7D8FA07A8FEF790FEFF
:105BD0004FF4FA6000F044FEFEF78CFC0021072031
:105BE00002F057FA6B7C4BB14B4906A801F001FE5D
:105BF00006A8FFF73BFA06A801F0B0FD41F2883095
:105C000000F02EFE02F034F8424B1A7DC0F13C0544
:105C10000AB101221A72002204213E48FEF7CCFA92
:105C20004EF660216943FEF7FBFA06A8394901F0F8
:105C3000A1FE022306982370A2E7294C23792BB1F9
:105C4000284B1B78012B01D0FFF748FD00F000FB2B
:105C5000284B1B6803F5EA4330338342BFF4EFADB2
:105C6000A369032B16DC00F017FD60B100238DF84B
:105C70000030214B2A4A1B78254906A8FEF77DFAF9
:105C800007A8FEF735FE4FF4FA6000F0E9FD01F0D9
:105C90006DFED4E501F0CFFFE369C01AB0F5E15F16
:105CA00042D900F0F9FC60B100238DF80030124BAE
:105CB0001C4A1B78164906A8FEF75FFA07A8FEF7EC
:105CC00017FE4FF4FA6000F0CBFD0023A36102F051
:105CD00023FA03493422012000F0DAFAD7E700BFA3
:105CE0000CE50320FCE4032030E1032008E5032059
:105CF00088E5032000E5032054E40320D2B90D0019
:105D000070BF0D00ACE403205CE4032089BF0D00EC
:105D1000DDBE0D0094E4032046BB0D0096BF0D00D0
:105D2000ADBF0D00C1BF0D0000F0B6FC60B1002397
:105D30008DF800300C4B0D4A1B780D4906A8FEF774
:105D40001CFA07A8FEF7D4FD4FF4FA6000F088FDB6
:105D50000023A36102F0E0F906493422012000F09B
:105D600097FAFEF785FC6AE554E40320DBBF0D00DB
:105D7000DDBE0D000CE503202DE9F0433B4B3C4E0E
:105D80003C4FDFF83091DFF8308100241C603A4B43
:105D9000012585B01D7002F015F92346224642F612
:105DA000D51102F017F902F00DF9224623462521FC
:105DB00002F018F9314BB3603460B480B471022042
:105DC00000F0E0FB3A462E49304602F03BFA21460D
:105DD000284600F0EFFB2946042000F019FA294874
:105DE0002949A0F809400346021D43F8092B9C707D
:105DF000264B43603A46C0E903440575047202F03D
:105E000021FA2348234C244E00F0CDF802F0CAF9C1
:105E100023210246214800F055F8214B21490093E7
:105E20006A462B4648460294CDF80C80FEF728FAC5
:105E30006846FEF7B7F93A463146484602F002FA9C
:105E4000CDE90248184C194B194900936A462B4674
:105E50002046FEF715FA6846FEF7A4F93A463146A1
:105E6000204602F0EFF905B0BDE8F08350E40320CE
:105E700044E40320F8E3032054E403200000FFFF80
:105E800095410D0094E40320EF400D001000030045
:105E900044E50320D9400D0035430D00F4E4032010
:105EA000B5400D00804F120060E40320C1400D009A
:105EB00040771B0068E50320D5400D000368C9B298
:105EC0009B6818474260112241700270704710B5FC
:105ED0000446406801F0DDF910B9606801F084F90A
:105EE000012010BD70B505464178406801F0AEF95B
:105EF00069786868022201F0A6F9686803685B693E
:105F000098470646686803685B699847044668686E
:105F100001F0BCF944EA062084B207EE904AB8EEDC
:105F2000670ADFED027A80EE270A70BD9A99993FE1
:105F30000378232B05D0132B0CBF1820B42000F0BE
:105F40008FBC1820FBE738B504460D464178406801
:105F500001F07CF96068036829469B68984760688F
:105F600001F094F925702046BDE83840FFF7E0BF06
:105F700010B50378A3F12002012A044601D9232B8E
:105F800010D16178606801F061F960682178036878
:105F90009B689847606801F079F92046BDE8104099
:105FA000FFF7C6BF10BD704738B505460C4602F076
:105FB000F9F8297801F04AF902F0F4F8210AFFF71C
:105FC0007DFF02F0EFF8E1B2FFF778FF02F0EAF8A8
:105FD000BDE8384001F05AB908B543F2A201FFF715
:105FE000E3FFBDE808400A2000F03ABC38B504469B
:105FF0000D4602F0D7F801F0F7F820462570FFF7BC
:10600000EBFF012038BD0A44FF2091420ED011F869
:10601000013B5840082310F0800F4FEA400018BFA2
:1060200080F03100013BC0B2F5D1EEE770470000CF
:1060300073B54FF410510546FFF7B6FF4FF4FA70F1
:1060400000F00EFC02F0AEF82978062201F0FBF811
:1060500002F0A8F803681B69984706284BD16E46E2
:10606000044602F09FF803685B699847013C14F00E
:10607000FF0406F8010B6946F3D102222846FFF718
:10608000C2FF9DF80260864235D102220DF1030164
:106090002846FFF7B8FF9DF8056086422BD1BDF872
:1060A0000000BDF8034040BA80B202F01BFA18A30A
:1060B000D3E9002302F090FA11A3D3E9002302F000
:1060C000B5FB114B002202F0CFF802F055FDA8609D
:1060D00060BA80B202F006FA0C4B002202F07CFAA1
:1060E00007A3D3E9002302F0A1FB02F045FD68609D
:1060F000012002B070BD0020FBE700BFAFF30080BD
:1061000000000000E0FFEF400080464000005940E2
:106110000000000000E0654010B50446FFF788FF6E
:1061200010B194ED020A10BD9FED010AFBE700BF1C
:106130000000C07F10B50446FFF77AFF10B194ED60
:10614000010A10BD9FED010AFBE700BF0000C07F00
:1061500008B5024B1B685B6C019308BD7402030019
:1061600008B5024B1B689B6C019308BD74020300C9
:1061700008B5024B1B68DB68019308BD48020300A9
:1061800008B5024B1B68DB69019308BD4802030098
:1061900008B5024B1B681B6A019308BD4802030047
:1061A00008B5024B1B685B6A019308BD48020300F7
:1061B00008B5024B1B689B6A019308BD48020300A7
:1061C00008B5024B1B68DB6A019308BD4802030057
:1061D00008B5024B1B685B6C019308BD48020300C5
:1061E00008B5024B1B689B6C019308BD4802030075
:1061F00008B5024B1B689B6D019308BD4802030064
:1062000008B5024B1B681B6F019308BD48020300D1
:1062100008B5024B1B685B6E019308BD3402030096
:1062200008B5024B1B68DB6E019308BD3402030006
:1062300008B5024B1B685B68019308BD1802030098
:1062400008B5024B1B68DB68019308BD1802030008
:1062500008B5024B1B685B69019308BD1802030077
:1062600008B5024B1B689B6A019308BD1802030026
:1062700008B5024B1B68DB6A019308BD18020300D6
:1062800008B5024B1B685B6C019308BD1802030044
:1062900008B5024B1B689B6C019308BD18020300F4
:1062A00008B5024B1B689B6D019308BD18020300E3
:1062B00008B5024B1B68DB6D019308BD1802030093
:1062C00008B5024B1B685B6E019308BD1802030002
:1062D00008B5024B1B681B68019308BD2C02030024
:1062E00008B5024B1B685B68019308BD2C020300D4
:1062F00008B5024B1B689B68019308BD2C02030084
:1063000008B5024B1B68DB68019308BD2C02030033
:1063100008B5024B1B681B69019308BD2C020300E2
:1063200008B5024B1B685B69019308BD2C02030092
:1063300008B5024B1B681B6B019308BD2C020300C0
:1063400008B5024B1B68DB68019308BD28020300F7
:1063500008B5024B1B689B69019308BD2802030026
:1063600008B5024B1B68DB69019308BD28020300D6
:1063700008B5024B1B681B6A019308BD2802030085
:1063800008B5024B1B685B6A019308BD2802030035
:1063900008B5024B1B689B6A019308BD28020300E5
:1063A00008B5024B1B68DB6A019308BD2802030095
:1063B00008B5024B1B681B6B019308BD2802030044
:1063C00008B5024B1B685B6B019308BD28020300F4
:1063D00008B5024B1B681B6C019308BD2802030023
:1063E00008B5024B1B689B6C019308BD2802030093
:1063F00008B5024B1B68DB6C019308BD2802030043
:1064000008B5024B1B681B6D019308BD28020300F1
:1064100008B5024B1B685B69019308BD6402030069
:1064200008B5024B1B689B68019308BD6802030016
:1064300008B5024B1B68DB68019308BD68020300C6
:1064400008B5024B1B68DB69019308BD30020300ED
:1064500008B5024B1B681B6A019308BD300203009C
:1064600008B5024B1B681B68019308BD3C02030082
:1064700008B5024B1B68DB68019308BD3C020300B2
:1064800008B5024B1B681B69019308BD3C02030061
:1064900008B5024B1B685B69019308BD3C02030011
:1064A00008B5024B1B689B69019308BD3C020300C1
:1064B00008B5024B1B68DB69019308BD3C02030071
:1064C00008B5024B1B681B6A019308BD3C02030020
:1064D00008B5024B1B689B6A019308BD3C02030090
:1064E00008B5024B1B681B68019308BD4C020300F2
:1064F00008B5024B1B681B69019308BD4C020300E1
:1065000008B5024B1B685B69019308BD4C02030090
:1065100008B5024B1B689B69019308BD4C02030040
:1065200008B5024B1B68DB69019308BD4C020300F0
:1065300008B5024B1B681B6A019308BD4C0203009F
:1065400008B5024B1B685B6B019308BD600203003A
:1065500008B5024B1B681B6D019308BD6002030068
:1065600008B5034B1B68D3F89830019308BD0000B1
:106570006002030008B5024B1B681B68019308BD4D
:106580002002030008B5024B1B685B68019308BD3D
:106590002002030008B5024B1B685B69019308BD2C
:1065A0002002030008B5024B1B689B69019308BDDC
:1065B0002002030008B5024B1B68DB6A019308BD8B
:1065C0002002030008B5024B1B68DB6C019308BD79
:1065D0002002030008B5024B1B685B6D019308BDE8
:1065E0002002030008B5024B1B689B6D019308BD98
:1065F0002002030008B5034B1B68D3F888300193D1
:1066000008BD00002002030008B5034B1B68D3F847
:106610009430019308BD00002002030008B5034B2D
:106620001B68D3F8A830019308BD000020020300C6
:1066300008B5034B1B68D3F8AC30019308BD0000CC
:106640002002030008B5034B1B68D3F8B030019358
:1066500008BD00002002030008B5024B1B681B6840
:10666000019308BD4402030008B5024B1B685B6838
:10667000019308BD4402030008B5024B1B689B68E8
:10668000019308BD4402030008B5024B1B68DB6898
:10669000019308BD4402030008B5024B1B685B6907
:1066A000019308BD4402030008B5024B1B68DB6977
:1066B000019308BD4402030008B5024B1B681B6A26
:1066C000019308BD4402030008B5024B1B685B6AD6
:1066D000019308BD4402030008B5024B1B68DB6A46
:1066E000019308BD4402030008B5024B1B681B6BF5
:1066F000019308BD4402030008B5024B1B68DB6B25
:10670000019308BD4402030008B5024B1B685B6C93
:10671000019308BD4402030008B5024B1B685B6887
:10672000019308BD4002030008B5024B1B689B683B
:10673000019308BD4002030008B5024B1B68DB68EB
:10674000019308BD4002030008B5024B1B681B699A
:10675000019308BD4002030008B5024B1B685B694A
:10676000019308BD4002030008B5024B1B689B69FA
:10677000019308BD4002030008B5024B1B68DB69AA
:10678000019308BD4002030008B5024B1B681B6A59
:10679000019308BD4002030008B5024B1B681B6B48
:1067A000019308BD4002030008B5024B1B685B6BF8
:1067B000019308BD4002030008B5024B1B681B682B
:1067C000019308BD1C02030008B5024B1B685B68FF
:1067D000019308BD1C02030008B5024B1B689B68AF
:1067E000019308BD1C02030008B5024B1B681B691E
:1067F000019308BD1C02030008B5024B1B689B698E
:10680000019308BD1C02030008B5024B1B68DB693D
:10681000019308BD1C02030008B5024B1B68DB6A2C
:10682000019308BD1C02030008B5024B1B681B6BDB
:10683000019308BD1C02030008B5024B1B685B6C8A
:10684000019308BD1C0203008A4210B507D0029CC8
:10685000401AE41A6043521A90FBF2F0184410BD3B
:106860000021FFF797BE10B5836804460BB901F00D
:10687000F4FCC3689847A3681BB103222146204655
:10688000984720461021BDE8104001F0E0BC10B54B
:106890000446006808B1FFF7A3FC204610BD0B6852
:1068A000036013B15A6801325A60704710B5064C44
:1068B000002320462360FFF78BFC2046034A04494F
:1068C000BDE8104001F0BEBC8CE50320F8E30320D6
:1068D0008F680D00002240681146FFF735BF002287
:1068E00040681146FFF750BF002240681146FFF78D
:1068F0005BBF40680022FFF74FBF4068002281F075
:106900000101FFF739BF002340681A461946FFF717
:106910002BBF002340681A461946FFF71DBF00220F
:1069200040681146FFF700BF406800220221FFF7D0
:1069300003BF002340681A46FFF7EEBEF0B51B4BBD
:10694000036000250F4628331826C0E9025589B098
:106950004360324629460446103002F04FFC786806
:106960002A462946FFF7F0FE18B9A060204609B074
:10697000F0BD2946324602A8CDE9005502F03EFCA2
:1069800002A96846ADF80860FFF7E2FB10B10123E9
:10699000A360EBE7009B019AA360E2600BB90223BE
:1069A000A36002A9204600F0AEF8DFE7DCC00D00CE
:1069B000084B10B5282422461846002102F01EFC80
:1069C000054B04804FF0FF32426004225A60034AB4
:1069D0001A6010BD98E5032090E50320A8C00D00C3
:1069E0007047007D704710B52821044601F02FFC48
:1069F000204610BD037D7BB1C369002B0CDB07EE85
:106A0000903A9FED077AF8EEE77A87EE870ADFED96
:106A1000057A20EE270A7047BFEE000A704700BFD4
:106A200000FF7F470000C842037D63B18369B3F173
:106A3000004F08D007EE903A9FED047AF8EEE77A1F
:106A400087EE870A70479FED020A70470000C84230
:106A500000000000037D7BB1436A002B0CDB07EED6
:106A6000903A9FED077AF8EEE77A87EE870ADFED36
:106A7000057A20EE270A7047BFEE000A704700BF74
:106A800000FF7F470000C842037D63B1036AB3F192
:106A9000004F08D007EE903A9FED047AF8EEE77ABF
:106AA00087EE870A70479FED020A70470000C842D0
:106AB0000000000070B50C1E06460ADA2D2100F019
:106AC000F8FD614205460A22304600F00BFE2844DC
:106AD00070BD21460025F6E770B50C460546816875
:106AE0002046FFF7E7FF2C210646204600F0E1FD97
:106AF000E96806442046FFF7DDFF304470BDA0F191
:106B00000400FFF7E9BF30B50D4600F110040FCDCA
:106B10000FC495E8030084E80300012030BD7047EE
:106B20000020704710B51021044601F090FB20466C
:106B300010BD08B5FFF7F6FF08BD30B500224FF6CF
:106B40009C74026084808D888C800C6885800460D1
:106B50000A6030BD10B504460068FFF735FE2046D8
:106B600010BD38B5C468F4B12378022B03D104F109
:106B70000C00FFF7EFFF656835B12846FDF712FB03
:106B80001021284601F063FBA56835B12846FDF7C2
:106B900009FB1021284601F05AFB20461421BDE8CC
:106BA000384001F054BB38BD10B588B00446684683
:106BB00000F01FFE694604A800F03EFE04A8A047AE
:106BC000044604A800F0CAFD684600F0C7FD204650
:106BD00008B010BD1FB50023CDE9020101921024B9
:106BE0001A4669461846ADF80230ADF80040FFF786
:106BF0003BFD04B010BD07B50823ADF800300368B5
:106C00008DF80230037A8DF8033000214368019338
:106C10006846FFF779FD03B05DF804FB73B50E46D7
:106C2000044656F8043B00930D4601A83146FFF791
:106C300036FE019A009B6260236001A80023019345
:106C40000093FDF755FE3046FDF752FE2846082119
:106C500001F0FDFA204602B070BD13B50B460246A6
:106C6000D0E900016C4684E8030093E8030082E861
:106C7000030094E8030083E8030002B010BD8268BB
:106C800010B50AB901F0E9FABDE81040C368184729
:106C900008B5006800F11001FFF7F1FF08BD826838
:106CA00010B50AB901F0D9FABDE81040C368184719
:106CB00008B5006800F11001FFF7F1FF08BD000002
:106CC00038B500230446036010200D46FDF7E3F9B4
:106CD00028B10123C0E90133024B0360C560206085
:106CE000204638BD10C10D0038B5002383608B6885
:106CF00004460D462BB102229847EB68E360AB686F
:106D0000A360204638BD0000F0B589B0046868462D
:106D1000FFF713FF4FF00203D4E84F2F002A03D1EF
:106D2000C4E8413F0029F7D125D104F10C0569469B
:106D30002846FFF702FFBFF35B8F0123637000203B
:106D400004F10803BFF35B8F53E8006F43E80002D0
:106D5000002AF9D1BFF35B8F6EB1FFF733FC78B136
:106D600029463046FFF78BFF3046FDF71BFA10210E
:106D7000304601F06CFA6846FFF7ECFE09B0F0BD52
:106D8000314602A8FFF7B0FFE068B4F9105008B12F
:106D900002F072FA06901020ADF81C50FDF77BF956
:106DA0000546E8B1002787601820FDF774F904460E
:106DB00088B10146876002A8FFF74FFF049BA268D5
:106DC000A360059B049206A9E268E36004F1100049
:106DD0000592FFF7B2FE084BEB60084B2C60AB60EE
:106DE00006A8FFF7B7FE02A8FDF7DCF90022294646
:106DF0000348FFF7EFFBB7E7916C0D00296F0D001B
:106E000067680D002DE9F0478AB005469DF8489067
:106E10000C4617469846FFF73FFC07AE824638BB44
:106E20004FF62E73059005A93046ADF81830FFF7E0
:106E300084FE1420FDF72FF9044648B102230370A5
:106E40000123C0E901AA437031460C30FFF775FEFB
:106E50002846214640F8044BFFF732FF3046FFF743
:106E600079FE05A8FFF776FE28460AB0BDE8F08750
:106E70000C234FF0000A1420CDE908AA0793FDF770
:106E80000AF9014628B1C0E901AA80F800A080F8FB
:106E900001A004A80391FFF713FF224B08930820D9
:106EA000FDF7F9F8824628B1039B40F8043B04A99A
:106EB000FFF7F5FC00965FFA89F342463946204613
:106EC000CDF824A0FFF7F8FBB8B9039B5B7803F07B
:106ED000FF0293B94FF69C7305A903A80592ADF87C
:106EE0001830FFF711FF05A8FFF734FE05A8099930
:106EF000FFF794FE06A8FDF7FBFC039B059304A98E
:106F000006A8FFF7CCFC059B069A2B606A6000235D
:106F100006A806930593FDF7EBFC04A8FDF7E8FC33
:106F2000A2E700BFED6F0D00022AF8B5054607D0B5
:106F3000032A18D0012A01D10B6803600020F8BD94
:106F400018200E68FDF7A7F8044650B13146FFF748
:106F5000CBFE3069B6F9147008B102F08DF92061EA
:106F6000A7822C60EAE70468002CE7D004F1100047
:106F7000FFF7F0FD2046FDF715F91821204601F036
:106F800066F9DBE738B5002383608B6804460D465D
:106F90002BB102229847EB68E360AB68A360204600
:106FA00038BD022A70B5044607D0032A12D0012A40
:106FB00001D10B680360002070BD14200E68FDF73E
:106FC0006AF8054620B13146FFF7DCFF337C2B74AD
:106FD0002560F0E70468002CEDD02046FDF7E2F8CC
:106FE0001421204601F033F9E5E70000F0B589B03F
:106FF00004460D4601A81146FFF710FEA4B124B2C5
:107000001DB1284602F038F9054601A803A90395E9
:10701000ADF81040FFF778FE03A8FFF79BFD02A82C
:10702000FDF766FC09B0F0BD019D0123D5E84F2FA7
:10703000002A03D1C5E8413F0029F7D1EFD12B73D6
:10704000BFF35B8F6B702B1DBFF35B8F53E8006F3B
:1070500043E80042002AF9D1BFF35B8F002EDED057
:107060002046FFF7AFFA074660B105F10C01304644
:10707000FFF715FE3046FDF795F81021304601F078
:10708000E6F8CCE7314603A8FFF77CFF2B7B8DF8B1
:107090001C301020FCF7FFFF0546D0B1876014209C
:1070A000FCF7F9FF044678B18760014603A8FFF7B3
:1070B000D4FD059BA268A360069B0592E268E3608D
:1070C0009DF81C3006922374064BEB60064B2C6037
:1070D000AB6003A8FDF766F8002229460348FFF7D6
:1070E00079FAC7E7B16C0D00A36F0D0067680D005A
:1070F000002240681146FFF747BB00224068114656
:10710000FFF752BB40680022FFF746BB40680022F1
:1071100081F00101FFF730BB002340681A46194691
:10712000FFF722BB002340681A461946FFF714BB3D
:10713000002240681146FFF707BB00224068114655
:10714000FFF7F2BA406800220221FFF7F5BA0023E8
:1071500040681A46FFF7E0BA024B03225A60024A1F
:107160001A607047C0E503202CC10D007047F8B5C8
:10717000064615460C468F18BC4206D0336814F8F4
:10718000011B9B6830469847F6E72846F8BD007C0F
:107190000022FFF7EDB8007C0021FFF7F1B8007C7A
:1071A0000021FFF7F5B8007C0021FFF7F9B8007C5B
:1071B0000021FFF7FDB810B51421044601F047F88F
:1071C000204610BD10B54FF47A73044608460021DE
:1071D000C4E90113034B236020741146FFF7F8F84C
:1071E000204610BD60C10D000023007C1A461946E0
:1071F000FFF7A6B87FB500221423CDE90122ADF830
:1072000004300B788DF808304B680393CB680493F7
:10721000007C0B7A059301A9FFF7F2F807B05DF83F
:1072200004FB1FB5003B8DF800104FF06401039183
:1072300018BF0123694601928DF80830FFF7DAFF85
:1072400005B05DF804FB0123FFF7EBBF007C0022D3
:10725000FFF77EB87FB50023CDE901334A6803927A
:107260001423CA68ADF804300B7804920A7A0592A8
:10727000007C8DF8083001AA1946FFF769F807B0BD
:107280005DF804FB007C0022FFF76AB80121FFF7DC
:10729000F9BF007C0021FFF793B808B50021007CFE
:1072A000FFF79EF8B0FA80F0400908BD08B500214C
:1072B000007CFFF79DF8B0FA80F0400908BD7047E8
:1072C00010B51821044600F0C2FF204610BDF0B5ED
:1072D000037D062B8DB00E4600F104074FF000042D
:1072E00012D000F1080515F8011D0A22304600F001
:1072F000F9F9AF42044419D0002CF4D02E213046C5
:1073000000F0D7F90444EEE72F236A4639460A20F5
:107310008DF80040FFF77CF8684601F0CAFF33683B
:107320000246DB68694630469847044620460DB061
:10733000F0BD000010B5054B0446112240F8043B97
:10734000002101F05BFF204610BD00BF88C10D0089
:107350000346074A10B543F8042B01F1100251F817
:10736000044B43F8044B9142F9D10A781A7010BDCE
:1073700088C10D0010B59DF8084044EA032343EA94
:10738000024242EA016104234160037510BD13B556
:10739000CB7800938B784A780978FFF7EBFF02B03F
:1073A00010BD0000014B024A1A607047C8E5032077
:1073B00094C10D00002340681A46FFF7ADB940683C
:1073C00000220221FFF7B8B9002240681146FFF7FA
:1073D000ABB9002240681146FFF7B6B900234068F8
:1073E0001A461946FFF7B8B9002340681A461946ED
:1073F000FFF7BAB94068002281F00101FFF7BCB97C
:1074000040680022FFF7C8B9002240681146FFF724
:10741000CBB9002240681146FFF7B6B92DE9F04319
:10742000002495B016460D460746FFF783FF214618
:1074300018220EA8009401F0E1FE4023CDE90C349F
:1074400021466B460CAA3046FEF7F2FF04460028A0
:1074500046D1024601216868FFF776F9022180468D
:1074600022466868FFF770F9009E81462146002E8B
:1074700036D0002934D17368022B03D00A2B0BD0ED
:10748000F669F4E7B8F1000F04D0716938460431A9
:10749000FFF77DFF4146F3E7B9F1000F01D14946FF
:1074A000EEE77469102201A801F0A8FE06238DF80A
:1074B000143001AD04F108031834186859682A46DD
:1074C00003C20833A3421546F7D101A906A807ADA8
:1074D000FFF73EFF0FCD3C1D0FC42B682370DEE786
:1074E0000098FEF79DFF384615B0BDE8F083000018
:1074F000024B034A1A6000225A607047CCE5032011
:10750000A0C10D0008B500F075FEBDE80840FFF70A
:10751000C4BE10B50446017009B1FFF7F3FF204661
:1075200010BD08B500F066FEBDE80840FFF7BEBE1E
:1075300010B5037804460BB1FFF7F3FF204610BDEA
:1075400010B504460068FFF7ECFF204610BD30B5CB
:1075500087B00D460190FFF7D5FF6B238DF80830FB
:107560000023012403930A2305938DF8104000F0B3
:1075700041FE02A9FFF76EFE00F03CFE03682946BB
:107580009B68984700F036FE2146FFF77BFE039488
:1075900000F030FE02A9FFF72DFE00F02BFE03687D
:1075A0005B699847044601A8FFF7CAFFE0B207B03D
:1075B00030BD70B586B014460D460190FFF7A2FFAE
:1075C0006B238DF808300023039301260A230593CB
:1075D0008DF8106000F00EFE02A9FFF73BFE00F0F0
:1075E00009FE036829469B68984700F003FE03687C
:1075F00021469B68984700F0FDFD3146FFF742FEAB
:1076000001A8FFF79DFF06B070BD13B504460190B9
:10761000FFF778FF01212046FFF799FF00F0CF0028
:1076200040F0100201212046FFF7C3FF01A8FFF739
:1076300087FF012002B010BD13B504460190FFF78B
:1076400061FF01212046FFF782FF012100F0CF02F8
:107650002046FFF7AEFF01A8FFF772FF012002B03E
:1076600010BDF8B506460D468F180024BD420CD05B
:10767000336815F8011B9B6830469847031E01DBF1
:107680001C44F3E7002C08BF1C462046F8BD13B588
:107690000446084659B1019101F00BFE2368019997
:1076A000DB680246204602B0BDE81040184702B031
:1076B00010BD03689B68184738B50D210546FFF7D4
:1076C000F8FF0A2104462846FFF7F3FF204438BD9F
:1076D00038B50546FFF7DBFF04462846FFF7ECFF09
:1076E000204438BD30B58BB000238DF82430012AFA
:1076F00098BF0A2209AC0D46B1FBF2F101FB12530F
:1077000003F0FF03092B94BF30333733DBB2AA42B7
:1077100004F8013DEFD92146FFF7B9FF0BB030BDAA
:1077200010B50446FCF73EFD204610BD0348044A50
:1077300004490023836000F085BD00BFD4E5032029
:10774000F8E3032021770D0010B5044608462170A8
:10775000FEF776FE00236360204610BD10B5044698
:107760000068FFF731F8204610BD10B504460068E8
:1077700008B1FFF729F80023C4E90133236010BDE5
:1077800038B504460D4600680131FFF725F810B101
:10779000C4E90005012038BD10B50368044623B1D3
:1077A00043688B4201D3012010BD2046FFF7E8FF5C
:1077B0000028F9D0A368002BF5D122681370F2E7F6
:1077C00037B50D46114601920446FFF7E5FF019AD1
:1077D00028B92046FFF7C9FF204603B030BDA2609C
:1077E0002946206801F0FCFC2268A3680021D154DE
:1077F000F2E7002313B5C0E9003304468360037346
:1078000041B10846019101F054FD0199024620461C
:10781000FFF7D6FF204602B010BD884210B50446DF
:1078200005D00B682BB18A681946FFF7C9FF2046BF
:1078300010BDFFF79AFFFAE710B500230446C0E930
:10784000003383600373FFF7E8FF204610BD08B5DF
:1078500082683AB921B10878B0FA80F0400900E0B6
:10786000012008BD006809B90078F5E701F0F2FCD5
:10787000F2E758B50E462AB121B184689C4202D87D
:1078800000230B7058BDE41A013A0168944228BFE6
:10789000144619442246304601F025FD0023335595
:1078A000F0E710B50446006818B1FEF78DFF00231D
:1078B000236010BD38B5B1F9043083800B460D4606
:1078C00053F8062FC0F806209B8843810446FFF733
:1078D000E8FF2B6813B1236000232B60204638BDDE
:1078E000B1F904300A6810B533B932B951F8063F1E
:1078F00003608B88838010BD22B19488012C03D053
:10790000042C06D0042205E092894A818C710B81F7
:10791000ECE702220B814FF6FF738A714B81E5E79A
:1079200038B50C460546FFF7BCFF44B12088FEF78A
:1079300043FF286028B12288214601F051FC002035
:1079400038BD0148FCE700BFFCFEFFFF07B50B4652
:1079500000210246009101208C21FEF773FE03B046
:107960005DF804FB01460020FFF7F0BF0020FFF7A1
:10797000F9BF0000F0B52D4D0B7D04468BB00846D5
:10798000AF1D002B38D00B681B79002B34D00022A0
:10799000274B049302A904300292ADF80C208DF815
:1079A0000E20FEF745FEDDF80E30C5F8063000B2B9
:1079B000BDF81230ADF80C00A8800299BB802846B3
:1079C000FFF7AEFF02A8FFF76CFF00232360A38040
:1079D000A37123814FF6FF736381B5F90430A3804F
:1079E0003B68C4F80630BB88296863812046FFF7EE
:1079F00097FF20460BB0F0BD00262023CDE90236CC
:107A00000C4B00930C49334602AA3220FEF7A0FD2E
:107A1000074B049302A94FF6F263044802968DF8CF
:107A20000E60ADF80C30FFF745FFCBE7E4E503202F
:107A30000000FFFFD3C10D00CCC10D0030B50446DE
:107A400085B0084611461A460023FEF7ABFD0D4DE2
:107A5000ADF80C00002301A90193ADF808308DF8B2
:107A60000A3028464FF6FF73ADF80E30FFF722FFBD
:107A700001A8FFF716FF20462946FFF731FF2046F1
:107A800005B030BDE4E5032010B5094B094C0222D6
:107A900000201A60084B2060A080A071A360FEF750
:107AA00071FD2046054A0649BDE8104000F0CABBFA
:107AB000F0E50320E4E503200000FFFFF8E30320E6
:107AC00095410D002DE9F041154ADFF86080D2E9BB
:107AD0000032C01842EB0101124AD2E90032C61846
:107AE00041EB0207D8E90023BB4208BFB2428CB089
:107AF00013D003A96846CDE9006701F07BFA089B23
:107B0000094D03F26C7303AC08930FCC0FC50FCC77
:107B10000FC5C8E9006723682B600CB0BDE8F08191
:107B200028E6032020E60320F8E5032030E60320C2
:107B300008B50020FEF7D8FD28B1FEF7ADFD80F0B6
:107B40000100C0B208BD0120FCE70000FAEE087A8F
:107B5000B4EEE70AF1EE10FA08B511D4F2EE0C7AA1
:107B6000B4EEE70AF1EE10FA0ADCDFED067A60EE19
:107B7000277A17EE900A01F04FF8034BC3E9000192
:107B800008BD00BF0000614528E6032030B504466B
:107B90001848D0E90010521840EB03031648D0E90A
:107BA0000010521893B040EB0303CDE900232422C8
:107BB0000DEB0200002101F021FB002509A9684618
:107BC00001F018FA1622294603A8029501F016FBC7
:107BD00002A909A801F0D6F902A801F06AFB12ABCC
:107BE000184402A900F8415C2046FFF702FE204637
:107BF00013B030BD28E6032020E6032010B5002096
:107C0000FEF74EFB0446A0B9FEF7B4FC012810D1E4
:107C10002046FEF7E7FC60B9FFF78AFF10B9FEF7D0
:107C20002BFDF9E7FFF784FFBDE810400020FEF7C9
:107C300037BB204610BD1FB5FFF7E0FF1022002123
:107C4000684601F0DBFA00216846FEF739FB009830
:107C500005B05DF804FB000008B5FFF7ECFFC117A5
:107C6000FFF730FF014B986808BD00BFF8E503201F
:107C700008B5FFF7E0FFC117FFF724FF014B586875
:107C800008BD00BFF8E50320024B1A68024B1A60DA
:107C9000704700BFB8E10320F4E50320704741744A
:107CA000704708B5007CFEF713FC20EAE07008BDC1
:107CB00008B5007CFEF7E4FB20EAE07008BD08B5DB
:107CC000007CFEF7EDFB40EAE07008BD08B5007CE3
:107CD000FEF7DEFB40EAE07008BD007CFEF7E8BB83
:107CE00037B5457C04462DB1207C03B0BDE830405B
:107CF000FEF7BEBB007C0191FEF7EAFB002801996C
:107D0000F2DC284603B030BD10B51421044600F063
:107D10009EFA204610BD000010B54FF0000C04463E
:107D2000084611464FF47A72C4E901C2044A22603F
:107D30000122207462741A46FEF792FB204610BDA1
:107D400020C20D0013B50E4C2178BFF35B8F11F0EC
:107D5000010112D120460191FCF7A3F9019960B10C
:107D6000084A094B0948FFF7D7FF2046FCF79EF960
:107D7000074A0849054800F065FA044802B010BDFA
:107D800038E603203CE60320C0E6032044E7032056
:107D9000F8E303209D7C0D0041747047704708B5DF
:107DA0000021007CFEF7B4FB40EAE07008BD08B596
:107DB0000121007CFEF7ACFB40EAE07008BD08B58D
:107DC000007CFEF79DFB20EAE07008BD08B5007C52
:107DD000FEF78EFB20EAE07008BD13B50446007C78
:107DE0000191FEF78DFB0028019901DC607C20B138
:107DF000207CFEF795FB20EAE07002B010BD007C0D
:107E0000FEF796BB10B51421044600F020FA204678
:107E100010BD000010B54FF47A73044608460021E7
:107E2000C4E90113044B23600123207463741146D9
:107E3000FEF756FB204610BD50C20D0010B51422AF
:107E40000446002101F0DAF9204610BD10B5104CAF
:107E500088B003A8FFF7F2FF2178BFF35B8F11F022
:107E6000010111D120460191FCF71BF9019958B18C
:107E700003AA0848FFF7CEFF2046FCF717F9064A89
:107E80000649044800F0DEF9024808B010BD00BF02
:107E900058E703205CE70320F8E303209D7D0D00F5
:107EA000014B1860704700BFBCE1032008B50B4BC5
:107EB00043B1FFF7CBFF03681B699847002801DD3A
:107EC000AFF30080064B43B1FFF73CFF03681B692B
:107ED0009847002801DDAFF3008008BD00000000D6
:107EE0000000000008B5FFF7E1FFFEF7B1F9014B14
:107EF000186008BD84E703200248034A0349121AA8
:107F000001F06EB900F4032004F4032018C60D003C
:107F100007B5002300931A466FF07701FEF774FB54
:107F200003B05DF804FB000007B543880A2B08D0B6
:107F3000502B0BD1094B1B684BB103B05DF804EB20
:107F40001847FFF7E5FF03B05DF804FB002300933B
:107F50001A466FF07701FEF757FBF4E774E703204A
:107F600038B5124C1248134D0021FEF765FC23680A
:107F7000AB42114B0CBF012200221A7002D0FFF756
:107F8000BBFF2560FEF754F9044601F03FF90B4BA7
:107F900013B12046AFF3008000210848FEF7ACFB88
:107FA000BDE8384006480021FEF724BB00F403205A
:107FB000A17E0D001E1C279A70E703200000000020
:107FC000297F0D0008B5024B1B681B68019308BD93
:107FD0005C02030008B5024B1B685B68019308BD97
:107FE0005C02030008B5024B1B689B68019308BD47
:107FF0005C020300232813B502D9002002B010BD93
:10800000A0F10B03022B1AD8174C2178BFF35B8F1A
:1080100011F001010BD120460191FCF742F80199C2
:1080200028B11248FFF790FB2046FCF73FF80F4BB2
:108030001878FEF70DFA0028DFD10120DEE70128CD
:1080400009D800F0AFF80021007CFEF7B9F980F004
:108050000100C0B2D2E709380128EED8FFF772FE5E
:10806000007CFEF72DFAF2E778E703207CE7032097
:10807000232838B504460D460AD8FF2908D0FFF753
:10808000B9FF28B129462046BDE83840FEF730B98F
:1080900038BD38B504460D46FEF732F9FF2810D03A
:1080A000062804D84D2323FA00F0C30709D420463C
:1080B000FFF7A0FF28B129462046BDE83840FEF76B
:1080C00027B938BD10B50446FEF71AF9031FDBB215
:1080D000012B08D92046FFF78DFF20B12046BDE8CF
:1080E0001040FEF71DB9002010BD0D2810B5044644
:1080F0009CBF0E34A4B22046FFF77CFF50B1032191
:108100002046FEF7EDF8032804D12046BDE81040D4
:10811000FEF70EB9002010BD10B5084C2378BFF350
:108120005B8FDB0708D42046FBF7BBFF20B1FEF7CF
:1081300097F82046FBF7BAFF014810BD88E70320F7
:108140008CE7032038B50023202543801423044600
:108150000380856005610649284600F07CF80449E3
:108160006060284600F077F8E060204638BD00BF28
:1081700078C20D0038B5002320254380142304461F
:108180000380856005610649284600F064F80449CB
:108190006060284600F05FF8E060204638BD00BF10
:1081A00078C20D0030B50F4D2978BFF35B8F11F009
:1081B000010487B013D12846FBF773FF78B101A8FB
:1081C000FFF7C0FF01AA21460748FEF7FBFF28463C
:1081D000FBF76CFF054A0649034800F033F80248F4
:1081E00007B030BD90E7032098E70320F8E30320B1
:1081F0006D710D0010B50F4C2378BFF35B8FDB075B
:1082000086B013D42046FBF74CFF78B101A8FFF7E6
:10821000B1FF01AA01210848FEF7D4FF2046FBF771
:1082200045FF064A0649044800F00CF8024806B02B
:1082300010BD00BF94E70320ACE70320F8E3032060
:108240006D710D000B460146184600F0C5BEFBF7E8
:1082500026BFFBF720BFFBF720BF08B5FEF7DCFA0F
:1082600081F0004102E000BF83F0004330B54FEAE7
:1082700041044FEA430594EA050F08BF90EA020F54
:108280001FBF54EA000C55EA020C7FEA645C7FEAE7
:10829000655C00F0E2804FEA5454D4EB5555B8BF0A
:1082A0006D420CDD2C4480EA020281EA030382EA7B
:1082B000000083EA010180EA020281EA0303362D0D
:1082C00088BF30BD11F0004F4FEA01314FF4801CE0
:1082D0004CEA113102D0404261EB410113F0004FF2
:1082E0004FEA03334CEA133302D0524263EB4303A9
:1082F00094EA050F00F0A780A4F10104D5F1200E47
:108300000DDB02FA0EFC22FA05F2801841F10001A1
:1083100003FA0EF2801843FA05F359410EE0A5F175
:1083200020050EF1200E012A03FA0EFC28BF4CF0A6
:10833000020C43FA05F3C01851EBE37101F000455C
:1083400007D54FF0000EDCF1000C7EEB00006EEB69
:108350000101B1F5801F1BD3B1F5001F0CD34908F3
:108360005FEA30004FEA3C0C04F101044FEA44524A
:1083700012F5800F80F09A80BCF1004F08BF5FEAD1
:10838000500C50F1000041EB045141EA050130BDB1
:108390005FEA4C0C404141EB0101013C28BFB1F5C3
:1083A000801FE9D291F0000F04BF01460020B1FA0E
:1083B00081F308BF2033A3F10B03B3F120020CDAE1
:1083C0000C3208DD02F1140CC2F10C0201FA0CF0BF
:1083D00021FA02F10CE002F11402D8BFC2F1200C24
:1083E00001FA02F120FA0CFCDCBF41EA0C019040DA
:1083F000E41AA2BF01EB0451294330BD6FEA040423
:108400001F3C1CDA0C340EDC04F11404C4F120020D
:1084100020FA04F001FA02F340EA030021FA04F31F
:1084200045EA030130BDC4F10C04C4F1200220FA76
:1084300002F001FA04F340EA0300294630BD21FAB4
:1084400004F0294630BD94F0000F83F4801306BF7A
:1084500081F480110134013D4EE77FEA645C18BF6E
:108460007FEA655C29D094EA050F08BF90EA020F05
:1084700005D054EA000C04BF1946104630BD91EAFD
:10848000030F1EBF0021002030BD5FEA545C05D100
:108490004000494128BF41F0004130BD14F580043F
:1084A0003CBF01F5801130BD01F0004545F0FE41B3
:1084B00041F470014FF0000030BD7FEA645C1ABFE8
:1084C000194610467FEA655C1CBF0B46024650EA1F
:1084D000013406BF52EA033591EA030F41F400214B
:1084E00030BD00BF90F0000F04BF0021704730B5D1
:1084F0004FF4806404F132044FF000054FF00001A6
:1085000050E700BF90F0000F04BF0021704730B566
:108510004FF4806404F1320410F0004548BF40423B
:108520004FF000013EE700BF42004FEAE2014FEA90
:1085300031014FEA02701FBF12F07F4393F07F4F6B
:1085400081F06051704732F07F4208BF704793F06E
:108550007F4F04BF41F40021704730B54FF4607481
:1085600001F0004521F000411CE700BF50EA010284
:1085700008BF704730B54FF000050AE050EA01022D
:1085800008BF704730B511F0004502D5404261EB9D
:1085900041014FF4806404F132045FEA915C3FF4DE
:1085A000D8AE4FF003025FEADC0C18BF03325FEA7B
:1085B000DC0C18BF033202EBDC02C2F1200300FA2C
:1085C00003FC20FA02F001FA03FE40EA0E0021FA51
:1085D00002F11444BDE600BF70B54FF0FF0C4CF43F
:1085E000E06C1CEA11541DBF1CEA135594EA0C0FF1
:1085F00095EA0C0F00F0DEF82C4481EA030621EA2C
:108600004C5123EA4C5350EA013518BF52EA033566
:1086100041F4801143F4801338D0A0FB02CE4FF018
:108620000005E1FB02E506F00042E0FB03E54FF048
:108630000006E1FB03569CF0000F18BF4EF0010E40
:10864000A4F1FF04B6F5007F64F5407404D25FEA3C
:108650004E0E6D4146EB060642EAC62141EA5551EF
:108660004FEAC52040EA5E504FEACE2EB4F1FD0C31
:1086700088BFBCF5E06F1ED8BEF1004F08BF5FEAAF
:10868000500E50F1000041EB045170BD06F0004661
:1086900046EA010140EA020081EA0301B4EB5C040E
:1086A000C2BFD4EB0C0541EA045170BD41F4801106
:1086B0004FF0000E013C00F3AB8014F1360FDEBF2B
:1086C000002001F0004170BDC4F10004203C35DA07
:1086D0000C341BDC04F11404C4F1200500FA05F38A
:1086E00020FA04F001FA05F240EA020001F000422B
:1086F00021F0004110EBD37021FA04F642EB0601A1
:108700005EEA430E08BF20EAD37070BDC4F10C04CA
:10871000C4F1200500FA04F320FA05F001FA04F28E
:1087200040EA020001F0004110EBD37041F100017A
:108730005EEA430E08BF20EAD37070BDC4F1200585
:1087400000FA05F24EEA020E20FA04F301FA05F2ED
:1087500043EA020321FA04F001F0004121FA04F295
:1087600020EA020000EBD3705EEA430E08BF20EA65
:10877000D37070BD94F0000F0FD101F0004640009F
:1087800041EB010111F4801F08BF013CF7D041EA21
:10879000060195F0000F18BF704703F00046520025
:1087A00043EB030313F4801F08BF013DF7D043EAF6
:1087B0000603704794EA0C0F0CEA135518BF95EAAC
:1087C0000C0F0CD050EA410618BF52EA4306D1D133
:1087D00081EA030101F000414FF0000070BD50EA52
:1087E000410606BF1046194652EA430619D094EADC
:1087F0000C0F02D150EA013613D195EA0C0F05D1C6
:1088000052EA03361CBF104619460AD181EA030119
:1088100001F0004141F0FE4141F470014FF00000D1
:1088200070BD41F0FE4141F4780170BD70B54FF06C
:10883000FF0C4CF4E06C1CEA11541DBF1CEA1355EC
:1088400094EA0C0F95EA0C0F00F0A7F8A4EB0504CE
:1088500081EA030E52EA03354FEA013100F08880C5
:108860004FEA03334FF0805545EA131343EA12638E
:108870004FEA022245EA111545EA10654FEA002643
:108880000EF000419D4208BF964244F1FD0404F5FC
:10889000407402D25B084FEA3202B61A65EB030558
:1088A0005B084FEA32024FF480104FF4002CB6EB15
:1088B000020E75EB030E22BFB61A754640EA0C0095
:1088C0005B084FEA3202B6EB020E75EB030E22BFD5
:1088D000B61A754640EA5C005B084FEA3202B6EB16
:1088E000020E75EB030E22BFB61A754640EA9C00D5
:1088F0005B084FEA3202B6EB020E75EB030E22BFA5
:10890000B61A754640EADC0055EA060E18D04FEA62
:10891000051545EA16754FEA06164FEAC30343EA02
:1089200052734FEAC2025FEA1C1CC0D111F4801FCF
:108930000BD141EA00014FF000004FF0004CB6E7C8
:1089400011F4801F04BF01430020B4F1FD0C88BF67
:10895000BCF5E06F3FF6AFAEB5EB030C04BFB6EB72
:10896000020C5FEA500C50F1000041EB045170BD65
:108970000EF0004E4EEA113114EB5C04C2BFD4EB92
:108980000C0541EA045170BD41F480114FF0000E16
:10899000013C90E645EA060E8DE60CEA135594EA92
:1089A0000C0F08BF95EA0C0F3FF43BAF94EA0C0F95
:1089B0000AD150EA01347FF434AF95EA0C0F7FF40A
:1089C00025AF104619462CE795EA0C0F06D152EA5E
:1089D00003353FF4FDAE1046194622E750EA410642
:1089E00018BF52EA43067FF4C5AE50EA41047FF453
:1089F0000DAF52EA43057FF4EBAE12E74FF0FF3CB8
:108A000006E000BF4FF0010C02E000BF4FF0010C88
:108A10004DF804CD4FEA410C7FEA6C5C4FEA430C01
:108A200018BF7FEA6C5C1BD001B050EA410C0CBF50
:108A300052EA430C91EA030F02BF90EA020F0020B2
:108A4000704710F1000F91EA030F58BF994208BF19
:108A500090422CBFD8176FEAE37040F001007047D6
:108A60004FEA410C7FEA6C5C02D150EA013C07D12D
:108A70004FEA430C7FEA6C5CD6D152EA033CD3D078
:108A80005DF8040B704700BF8446104662468C4672
:108A90001946634600E000BF01B5FFF7B7FF0028A5
:108AA00048BF10F1000F01BD4DF808EDFFF7F4FFCE
:108AB0000CBF012000205DF808FB00BF4DF808ED59
:108AC000FFF7EAFF34BF012000205DF808FB00BF7C
:108AD0004DF808EDFFF7E0FF94BF012000205DF89E
:108AE00008FB00BF4DF808EDFFF7CEFF94BF012053
:108AF00000205DF808FB00BF4DF808EDFFF7C4FF4C
:108B000034BF012000205DF808FB00BF4FEA410C94
:108B10007FEA6C5C02D150EA013C0AD14FEA430C77
:108B20007FEA6C5C02D152EA033C02D14FF00000B4
:108B300070474FF0010070474A0011D212F5001241
:108B400011D20DD56FF47873B3EB62520ED44FEAA5
:108B5000C12343F0004343EA505323FA02F0704725
:108B60004FF00000704750EA013002D14FF0FF3063
:108B700070474FF0000070474FEA4102B2F1E04306
:108B800024BFB3F5001CDCF1FE5C0DD901F0004CF4
:108B90004FEAC0024CEA5070B2F1004F40EB830044
:108BA00008BF20F00100704711F0804F21D113F170
:108BB0003872BCBF01F00040704741F480114FEAA9
:108BC0005252C2F11802C2F1200C10FA0CF320FA32
:108BD00002F018BF40F001004FEAC1234FEAD3234F
:108BE00003FA0CFC40EA0C0023FA02F34FEA4303B9
:108BF000CCE77FEA625307D150EA01331EBF4FF042
:108C0000FE4040F44000704701F0004040F0FE405C
:108C100040F40000704700BF07EE900AF5EEC07AFE
:108C2000F1EE10FA01D400F00BB8F1EE677A08B556
:108C300017EE900A00F004F8404261EB410108BDD4
:108C4000D0B5FFF771FC0C4B002206460F46FFF72C
:108C5000C3FCFFF771FF0446FFF744FC074B0022FB
:108C6000FFF7BAFC02460B4630463946FFF7FCFADE
:108C7000FFF762FF2146D0BD0000F03D0000F0414B
:108C8000D0B50C4B002206460F46FFF7A5FCFFF7B8
:108C900053FF0446FFF726FC074B0022FFF79CFC1E
:108CA00002460B4630463946FFF7DEFAFFF744FF2F
:108CB0002146D0BD0000F03D0000F0412DE9F04715
:108CC000089D04468C46002B40F083808A4217465C
:108CD00047D9B2FA82F242B1C2F1200024FA00F080
:108CE0009140974040EA010C94404FEA1748230C0A
:108CF000BCFBF8F61FFA87FE08FB16C143EA0143E6
:108D000006FB0EF1994209D9FB1806F1FF3080F0FD
:108D10001981994240F21681023E3B445B1AA4B28B
:108D2000B3FBF8F008FB103344EA034400FB0EFEEB
:108D3000A64509D93C1900F1FF3380F00581A6450D
:108D400040F2028102383C4440EA0640A4EB0E04A3
:108D500000261DB1D4400023C5E900433146BDE8DB
:108D6000F08702B9FFDEB2FA82F2002A50D1CB1BA3
:108D70004FEA174E1FFA87F80126B3FBFEFC210CC1
:108D80000EFB1C3341EA034108FB0CF38B4207D96D
:108D900079180CF1FF3002D28B4200F2E980844650
:108DA000C91AA3B2B1FBFEF00EFB101143EA014455
:108DB00008FB00F8A04507D93C1900F1FF3302D2A7
:108DC000A04500F2D9801846A4EB080440EA0C4004
:108DD000BFE78B4209D9002D00F0B1800026C5E91C
:108DE000000130463146BDE8F087B3FA83F6002E25
:108DF0004AD18B4202D3824200F2B880841A61EBDE
:108E0000030101208C46002DA8D0C5E9004CA5E740
:108E1000C2F1200320FA03F6974001FA02F04FEA6C
:108E2000174ED9403043030CB1FBFEF61FFA87F80A
:108E30000EFB161143EA014306FB08F1994204FABE
:108E400002F409D9FB1806F1FF3C80F08D809942AD
:108E500040F28A80023E3B445B1A81B2B3FBFEF0D3
:108E60000EFB103341EA034100FB08F38B4207D9A4
:108E7000791800F1FF3C73D28B4271D90238394422
:108E8000CB1A40EA064678E7C6F1200C03FA06F44E
:108E900022FA0CF31C4320FA0CF701FA06F34FEA0E
:108EA000144E21FA0CF11F433B0CB1FBFEF91FFAE3
:108EB00084F80EFB191143EA014109FB08FA8A45BF
:108EC00002FA06F200FA06F308D9611809F1FF3038
:108ED00048D28A4546D9A9F102092144A1EB0A01E9
:108EE000BFB2B1FBFEF00EFB101147EA014700FBD9
:108EF00008F8B84507D9E71900F1FF312ED2B84577
:108F00002CD90238274440EA0940A7EB0807A0FB08
:108F100002894F45C64649461AD317D05DB1B3EB17
:108F20000E0267EB010707FA0CFCF2404CEA020262
:108F3000F740C5E9002700263146BDE8F0872E46F8
:108F400028460BE70646E9E61846FDE64345E5D226
:108F5000B8EB020E69EB04010138DFE70846D2E7FF
:108F600060468DE78146B9E7664675E730464AE7D1
:108F7000ACF1020C394413E702383C4424E700BF4B
:108F8000704700BF10B50C4641690369826986B01D
:108F900001F26C710491016803914168029181684A
:108FA0000191C1680091074903EB43030B44064953
:108FB00002EB42020A4420460449FDF715FC204614
:108FC00006B010BDAEC20D0099C20D0079C20D00F1
:108FD0000A22002101F096B810B5054C13462CB1B9
:108FE0000A4601460220AFF3008010BD2046FCE790
:108FF000000000002DE9F3410746019101F0E8FE71
:1090000001998046384601F0E7FE43699A07044615
:1090100003F26C7605D1642296FBF2F302FB136334
:109020007BBB4FF4C87396FBF3F503FB1565B5FAEC
:1090300085F56D09684B302202FB053501F09AF980
:1090400001F0A4F9654B1B6853B3D8F80430B34260
:1090500019D1D8F80010D7E90067D8E90823D1B9A9
:10906000964277EB030323DAD8E91223964277EB93
:109070000303B4BF0123002323621BDBD8F82810AD
:109080001AE00125D6E7304601F0CCF80028E0D1FF
:109090004FF0FF3304E0964277EB030302DA00233C
:1090A0002362EBE7D8E91223964277EB0303F6DA63
:1090B00001232362D8F850104FF461633C2091FBE8
:1090C000F3F603FB1613616893FBF0F200FB12301A
:1090D0002368891AA26861601B1A921B3B2B2360CC
:1090E000A26035DD013161603C3B236063683B2B4E
:1090F00034DD0132A2603C3B6360A368172B33DD93
:10910000E2690132E261A2690132062AC8BF002287
:10911000A261E268183B0132A3602369E26055F85E
:1091200023108A420EDD0B2BA2EB0102E26003F159
:10913000010209BF636922610022013302BF22617B
:109140006361E26101F01CF9204602B0BDE8F081E4
:10915000002BCBDA013961603C33C6E7002BCCDA57
:10916000013AA2603C33C7E7002BEBDAE269013A2F
:10917000E261A269013A48BF0622A261E26818339F
:10918000013AE260A360002ADCD12369013B05D4E7
:109190002361236955F82330E360D3E70B23236170
:1091A00063695A1E626103F26B72930705D16421F1
:1091B00092FBF1F301FB132363B94FF4C87192FBE7
:1091C000F1F301FB1323B3FA83F35B0903F5B673E1
:1091D000E361DEE70123F9E7D4C20D00DCE70320F9
:1091E0000A44914200F1FF3300D1704710B511F8E5
:1091F000014B03F8014F9142F9D110BD02440346DF
:10920000934200D1704703F8011BF9E738B50D4BC5
:109210001D68AB6B04467BB91820FDF7CDFA0A4AEE
:109220000A4BA863C0E90023094B83600B238381A9
:1092300001220023C0E90423AB6B00221C615A61A8
:1092400038BD00BFBCE103200E33CDAB34126DE658
:10925000ECDE050010F8012B11F8013B012A28BFB4
:109260009A42F7D0D01A7047034611F8012B03F841
:10927000012B002AF9D17047024B0146186800F013
:1092800003B800BFBCE1032037B5044608460D46CD
:1092900000F00FF8421C114620460192FDF7C4FA77
:1092A000044618B1019A2946FFF79AFF204603B0F9
:1092B00030BD034613F8012B002AFBD1181A0138E0
:1092C000704710B56AB10139841810F8013B11F8E4
:1092D000012F934203D1A04201D0002BF5D1981A5F
:1092E00010BD1046FCE710B50139034632B111F844
:1092F000014F03F8014B013A002CF7D11A44002129
:10930000934200D110BD03F8011BF9E770B5044684
:109310000D4645EC104B164602F020F951EC100BAF
:109320007EB1C5F30A53C3F16B03002B09DD1B05A6
:1093300003F17F55002405F5401522462B46FFF723
:109340004BF970BD000000002DE9F04FA3B01F469F
:1093500000231E93A44B19921B68079304461846DA
:109360008846FFF7A6FF4FF0000A05464FF0000BB6
:10937000CDF874801D9B1A782B2A4CD039D80D2A31
:1093800032D8082A32D8002A3CD000230E931D9EE2
:109390003378302B40F0B480737803F0DF03582B20
:1093A0006CD10E9B01931EAB029700938F4A1FABAB
:1093B0001DA9204601F0D4F910F00707054605D095
:1093C000062F2AD1013600231D960E93199B002BE0
:1093D00040F096850E9BDBB152460BF1004343EC07
:1093E000102B23B0BDE8F08F202ACED101331D937E
:1093F000C0E72D2AC9D101220E925A1C1D925B781A
:10940000002BC4D1199BCDF87480002B40F07685D9
:1094100052465B46E3E70022EEE71E9A3AB1352159
:1094200020A802F09AF91E99204601F0CFFD013FD5
:10943000052F07D8DFE807F00E0B181D0E034FF0BD
:10944000000BDA462807C1D54BF0004BBEE7DDE93B
:1094500020ABF7E7DDE920A31F9A23F4801302F283
:10946000334243EA025BEDE7DFF884B14FF0000AD4
:10947000E8E76FF0004B4FF0FF3AE3E71D9B5A1C03
:109480001D925B78302BF9D0002B9FD001234FF039
:10949000000904931D9B0A93CDF824904F460A229D
:1094A0001D980678A6F13003D9B209292AD907995F
:1094B0002A46FFF706FF98B3002033463D46079043
:1094C0000246652B01D0452B18D11DB9049B0343DF
:1094D00098D00025DDF8748008F101031D9398F8F9
:1094E00001302B2B75D02D2B7BD04FF0000CA3F12E
:1094F0003001092940F28280CDF8748000269DE079
:109500000023C4E7082FD8BF099900F10100DABF92
:1095100002FB0133099302FB093901371D90BFE7B4
:109520001D9B5A191D925B5D002F37D007903D4659
:10953000A3F13002092A12D90122C2E71D9B5A1C4D
:109540001D925B780130302BF8D0A3F13102082A4C
:1095500000F2DB841D9A079000200A920546303BFA
:1095600000F1010214D00799114407912A4600EB3B
:10957000050E0A21724513D12A18082A05F10105A2
:1095800005441CDC09990A2202FB013309930022DD
:109590001D9B591C1D915B781046C9E73846D2E7E0
:1095A000082A04DC099E4E4309960132E2E702F1E3
:1095B000010CBCF1100FD8BF01FB09F9F5E7102D24
:1095C000DCBF0A2202FB0939E1E7002307930122ED
:1095D0007CE74FF0000C08F102031D9398F802306D
:1095E00085E74FF0010CF6E7D0C40D0040C30D0035
:1095F0000000F07F1D9B591C1D915B78302BF9D02A
:10960000A3F1310108293FF679AFA3F1300E1D9B7C
:1096100008931D9B591C1D915B78A3F13006092E00
:1096200037D9089E891B082944F61F6602DC764557
:10963000A8BF7646BCF1000F00D07642002D4FD176
:10964000049901437FF4C2AE002A7FF4DBAE692B9C
:1096500027D024DC492B24D04E2B7FF4D3AE9E4957
:109660001DA801F0C3FA00283FF4CCAE1D9B1B7867
:10967000282B2DD1994920AA1DA801F0CBFA052845
:1096800026D1219BDDF880A043F0FF4B4BF4E00B8B
:109690009CE60A2101FB0E3EAEF1300EB9E76E2BBF
:1096A000DBE78F491DA801F0A1FA00283FF4AAAE1C
:1096B0001D9B8C49013B1DA81D9301F097FA10B921
:1096C0001D9B01331D93DFF82CB24FF0000A7DE69D
:1096D000854802F095F88DED040BDDE904AB75E6E5
:1096E000079B0998F31A002F08BF2F46102D0893E7
:1096F000A846A8BF4FF01008FEF7F4FE092D8246D9
:109700008B4613DD794B03EBC80353E91223FEF7B5
:1097100063FF824648468B46FEF7E4FE02460B4650
:1097200050465946FEF7A2FD82468B460F2D38DC87
:10973000089B002B3FF44AAE24DD162B0BDC6B4D4F
:1097400005EBC305D5E9000152465B46FEF744FF31
:1097500082468B463AE6089AC5F12503934220DB00
:10976000624CC5F10F0504EBC50152465B46D1E9D9
:109770000001FEF731FF089B5D1B04EBC504D4E933
:109780000023E3E7089B16330BDB079B574A9E1B1E
:1097900002EBC606D6E9002350465946FFF746F8C5
:1097A000D6E7089BA5EB08089844B8F1000F71DDD7
:1097B00018F00F030AD04D4901EBC30152465B4636
:1097C000D1E90001FEF708FF82468B4638F00F080A
:1097D0004DD0B8F59A7F22DD00252E4609950795D4
:1097E0002223DFF810B123604FF0000A099B002B01
:1097F0003FF4ECAD1E99204601F0E8FB07992046A6
:1098000001F0E4FB3146204601F0E0FB09992046D7
:1098100001F0DCFB2946204601F0D8FBD6E5002309
:109820004FEA2818504659469946B8F1010F21DCF5
:109830000BB182468B462E4BABF1547B03EBC9092F
:1098400052465B46D9E90001FEF7C6FE294B0A469F
:109850000B4029498B428246BED8A1F580118B422C
:1098600086BFDFF898B04FF0FF3A02F1547B002337
:10987000049381E018F0010F07D01D4B03EBC903DF
:10988000D3E90023FEF7A8FE012309F101094FEAFD
:109890006808CAE7EBD0C8F1000818F00F020AD038
:1098A000124B03EBC20350465946D3E90023FEF79F
:1098B000BDFF82468B465FEA2818D8D0B8F11F0F4B
:1098C0001EDD00252E460995079522234FF0000A3C
:1098D0004FF0000B236089E73DC30D0054C30D001A
:1098E00034C30D0037C30D00D2B90D0010C50D00F3
:1098F000E8C40D000000F07F0000A07CFFFFEF7FB8
:1099000018F0100318BF6A23DFF8B493049350468D
:109910005946002318F0010F04D0D9E90023FEF7BF
:109920005BFE01235FEA680809F10809F2D10BB177
:1099300082468B46049BBBB1CBF30A53C3F16B0346
:10994000002B594610DD1F2B40F32881342BDEBF3E
:10995000203B4FF0FF3202FA03F34FF0000ACCBF76
:109960004FF05C7B03EA010B00220023504659466E
:10997000FFF79AF80028A4D1099B00930A992B4677
:109980003A46204601F077FB099000283FF424AFC7
:10999000079B9E1B089B002BB4BF334600231093EC
:1099A000089B002523EAE37318932E46099B204663
:1099B000596801F0D7FA079000283FF411AF099BCE
:1099C0001A69023203F10C0192000C30FFF708FC17
:1099D0004BEC10AB20AA1FA92046CDE90AAB01F041
:1099E00039FE1E9000283FF4FBAE0121204601F015
:1099F000D0FB064600283FF4F3AE1F9B0499002BD2
:109A0000ABBF109A189A189FDDF84090ACBF03EBDB
:109A10000209D71A209AA3EB01089044A34B08F13E
:109A2000FF389845C2F1360280F2CC80A3EB0803E0
:109A30001F2BA2EB03024FF0010100F3B68001FAE5
:109A400003F3119300230C9309EB0208049BC14517
:109A500017441F444B46A8BF4346BB42A8BF3B46E2
:109A6000002BC2BFA8EB0308FF1AA9EB0309109B48
:109A7000002B17DD31461A46204601F02FFC064622
:109A800000283FF4ADAE01461E9A204601F08AFB45
:109A90000F9000283FF4A4AE1E99204601F096FADC
:109AA0000F9B1E93B8F1000F00F39180089B002BD1
:109AB00008DD189A0799204601F010FC079000284D
:109AC0003FF48EAE002F08DD07993A46204601F09C
:109AD00053FC079000283FF483AEB9F1000F08DD76
