:02000002D0002C
:1040000000400D00B0BA0D00000006000D000501D3
:084010000401D60700000000C6
:0440180010AC0D00DB
:1040200009480A49884208B505D0094A824202D0A7
:10403000121A04F05FFE0748074A0021121A04F022
:1040400067FE014808BD00BFC8E1032024B80D0089
:1040500028E4032028E40320F0E7032070B5074E8E
:10406000074C03F061FFA41BA4080025A54200D162
:1040700070BD56F8043B98470135F7E7FCB70D00D3
:1040800020B80D0001F052B808B501F03DFBBDE8C5
:10409000084003F00BBF02F073BB02F071BB02F0EB
:1040A00077BB0078B0FA80F04009704701230370B5
:1040B00070470000014B01221A707047B4E50320DD
:1040C000024A01239371024A137070473CE50320B2
:1040D00070E5032003681847012A03D0022A03D0A1
:1040E000002070470160FBE70B680360F8E738B514
:1040F0000446006928B185680C2104F08CF8284634
:10410000F8E7204638BD000008B5044903F083FBFA
:1041100018B1034B03221A70012008BD68AC0D00D2
:1041200034E50320436913B183690C3018477047A5
:1041300013B500210446084602F006F80023204685
:1041400001A9019302F018F8019C0CB1012323711D
:104150000021012001F0F8FF2CB1236820469B6864
:1041600098470023237102B010BD0023022202F001
:1041700057BA0023042202F053BA37B59DF81850FD
:104180001D438DF800503C23044602F01FFE2046DC
:1041900003B030BD10B50446006808B102F0F8FA6B
:1041A000204610BD10B58368044613B103220146B2
:1041B0009847204610BD0000F8B5037D05460F4620
:1041C00016468BB10368DB6883B19A88012A06D052
:1041D0009B68F9E79B684BB19A88012AFAD12BB109
:1041E0009A89BA42F6D19E732846F8BD0A49102032
:1041F00004F013F8044668B11022002104F088FD91
:10420000064B23600123A3802B69A360A781A673BB
:104210002C61E9E72875E7E730B50D0010000300D1
:1042200070B5037D05460E46CBB10368DB6823B14C
:104230009A88042A17D09B68F9E70C49102003F0EC
:10424000ECFF044668B11022002104F061FD084B28
:1042500023600423A3802B692C61C4E9023628461D
:1042600070BD2875FBE7DE60F9E700BF30B50D00D3
:10427000100003000246014802F090BC716B0D0073
:10428000F0B58C460025144905710446856001602F
:1042900092E8030085B002AF04F10C0687E8030042
:1042A00096E8030082E8030097E8030086E803002D
:1042B0009168A0696161D1689560D060A161CDE924
:1042C0000035064A2346614604F1080001F044FF28
:1042D000204605B0F0BD00BFBCB20D0031410D005D
:1042E00007B580680B46002140B1CDE900210A46A0
:1042F000032101F049FFB0FA80F0400903B05DF8F6
:1043000004FB08B5806828B1002101F055FF003892
:1043100018BF012008BD07B58068002338B1CDE97A
:104320000013022101F030FFB0FA80F0400903B021
:104330005DF804FB38B5104B036083680446A3B1F5
:104340006FF000410022FFF7E6FFA068002101F0B6
:104350003BFF237903F0FF0513B101F0EDFEF8E711
:10436000A068294601F000FFA56004F10C00FFF7EA
:1043700019FF204638BD00BFBCB20D0010B5044681
:10438000FFF7D8FF20461C2103F045FF204610BD53
:1043900037B5054600220C461146FFF7BCFFA8685A
:1043A000002340B1CDE900431A46194601F0ECFE66
:1043B000B0FA80F0400903B030BD000038B50A4CB7
:1043C0000A4D2378BFF35B8F13F0010F09D120460C
:1043D000FFF767FE28B101F05FFF28602046FFF776
:1043E00065FE286838BD00BF2CE4032030E40320BC
:1043F00030B5194D0FCD99B004AC0FC40FCD0FC41B
:1044000095E8030084E8030014490EA802F07AFA44
:104410000EA802F0CAFA04460EA802F0CFFA0EA8BF
:1044200010EE105A02F0FAFA18AB10EE100A03EB75
:10443000840404F05DF8CDE90201284604F058F840
:10444000CDE90001064A54F8503C0648402102F0EC
:10445000B7F919B030BD00BFC8B20D00C0E50320E8
:104460009DAC0D0034E403202DE9F84F1B48DFF824
:1044700070A0406800231A46194602F051F902F074
:10448000E7F84FF496744FF0000B40F2E7384FF026
:104490000009002001F0F0FE0546002001F0ECFECE
:1044A000461B61EB0B07B94508BFB04505D302F0C9
:1044B000D7F810B902F0C4F8EFE702F0D1F818B15C
:1044C000BDE8F84F02F0CCB801F0A6FECAF8000033
:1044D00002F0B6F8013CDCD1F2E700BFC0E50320F2
:1044E000B4E7032008B502F0BBF880F00100C0B2C9
:1044F00008BD00002DE9F04385B0002401A8CDE9F6
:1045000001448DF80C4002F05AFB204601F0B4FE45
:1045100043F6972805464FF00009002001F0ACFE55
:10452000461B61EB0407B94508BFB04505D3FFF74B
:10453000D9FF10B902F084F8EFE7FFF7D3FF07487F
:1045400000231A461946406802F0F2F84FF4FA6068
:1045500002F06AF9012005B0BDE8F083C0E5032050
:1045600008B503F05DFB122806DC03F059FB0528B3
:10457000D4BF0020012008BD0020FCE713B504468D
:10458000012101A802F0A9FF01A83CB103F021F824
:1045900001A802F0B1FF204602B010BD03F030F8D0
:1045A000F6E7000010B5202490B0224600216846AE
:1045B00004F0AEFB224600210DEB04008DF805400F
:1045C00004F0A6FB00210DEB04008DF8254002F05D
:1045D00009F8154B5979C1B141F2D833ADF806301D
:1045E000124B029341F27003ADF80C30009B43F480
:1045F000007300930021684601F0F4FF0446012097
:10460000FFF7BCFF204610B010BD41F27003ADF8BB
:104610000630074B029341F21003ADF80C30009BBB
:1046200043F400730093E6E73CE5032084030004B1
:104630008403840310B5074C01F0EEFD2368C01A13
:10464000B0F57A7F04D301F0E7FD2060012010BDB2
:104650000020FCE788E4032008B5FFF7EBFF10B962
:1046600001F0EEFFF9E7BDE80840FFF7E3BF000007
:1046700030B585B0002301A8CDE901338DF80C30A9
:1046800002F09DFA01F0C8FD43F69725044601F0BB
:10469000E7FF40B101F0C0FD001BA84203D8642031
:1046A00002F0C2F8F3E70021094B47F23052084606
:1046B00001F03AFD4FF47A7002F0B6F8054B0A2289
:1046C0001B68012101A803F09DF905B030BD00BFB2
:1046D000B6AC0D0080E4032030B585B00D46002255
:1046E0006946009201F020FFB0B9009C0CB123692B
:1046F00023B90A4A00210A2001F006FF0023ADF881
:1047000006300C23ADF8043004230393029523698B
:1047100001AA01212046984705B030BD09620D006D
:1047200030B50E4D0FCD89B001AC0FC495E8070030
:1047300084E8070069460720FFF7CEFF0028A8BFDE
:104740000098074A08AB03EB8000102150F81C3C8E
:10475000044802F035F809B030BD00BFF0B20D00DA
:1047600066B10D00ACE403207FB5524D524C2B7B5B
:104770003BB1524801F0B4FCB4EE400AF1EE10FA3D
:104780003ED70023A3616361606903F0B1FE4C4A28
:10479000CDE9000110214B4802F012F8A06903F0A6
:1047A000A7FE494ACDE900014848102102F008F867
:1047B0002B7C83B3464801F0BDFB454801F074FBF8
:1047C00084ED070AE06903F093FE424ACDE9000157
:1047D0004148102101F0F4FFAB7BFBB1132003F043
:1047E00068FC642600231946009640F68A6202F0AF
:1047F0000FF8AB7B2060022B12D0002363601AE01D
:104800002E4801F06DFC2D4884ED050A01F076FC80
:1048100084ED060AB8E70023E361D3E72360ECE701
:10482000122003F046FC0023009640F68A621946E7
:1048300001F0EEFF6060EB7B012B34D1112003F01F
:1048400038FC1E2300934FF4306200234FF4D671DE
:1048500001F0DEFFA060214B00225868114601F0F4
:1048600057FF08B1FFF7C4FD03A90320FFF734FF8A
:10487000E0B9BDF80C3007EE903AFBEECC7AFDEED5
:10488000E77A174A1748C5ED027A17EE903A0821E1
:1048900001F096FFFFF744FF134B01201870134BF4
:1048A000187004B070BD0023EB73D4E7FFEE007AFC
:1048B000E5E700BF3CE50320DCE4032074E50320CA
:1048C000C3AC0D0080E50320CBAC0D0002E5032056
:1048D00024E50320D4AC0D0012E50320C0E503203D
:1048E000DEAC0D00BCE4032001E5032070E50320ED
:1048F00038B5046805467CB16368013B63605BB909
:10490000236820469B689847A368013BA3601BB9B6
:1049100023682046DB689847284638BD10B5224CEE
:10492000D0B0236A0D93214BE0699A690C92204A1A
:104930000B929B680A93E3680993A36808936368E2
:1049400007932368069303F0D3FDCDE90401A06922
:1049500003F0CEFDCDE90201606903F0C9FD154AFF
:10496000CDE900014FF4807110A801F029FFFFF795
:1049700073FE00238DF800300F4B10491B7810AAEE
:104980000EA8FFF7FAFB0FA8FFF7B2FF03F048F9F4
:104990000B4B18700B4B01221A7001F03DFC0A4BB7
:1049A000186050B010BD00BFDCE403203CE50320DC
:1049B000ACE40320E4AC0D0084E40320A0AD0D00C2
:1049C00000E50320C8E10320B8E5032010B50B780B
:1049D00094B00C46A3B91C4904A804F0CFF9FFF722
:1049E0003BFE00238DF80030184B19491B7804AAB0
:1049F00002A8FFF7C2FB03A8FFF77AFF14B010BDAF
:104A0000084604F065F9C8280ED1124904A804F03C
:104A1000B5F903F0F4F8104BD861104B01221A706D
:104A20000F4B00221A70DAE7204604F051F9C9282A
:104A3000EBD0204604F04CF90A4A0346402104A872
:104A400001F0BEFECBE700BFB9AD0D0084E403204A
:104A5000F0AD0D00C1AD0D003CE5032070E5032075
:104A6000C8E10320D3AD0D007FB51F49044602F015
:104A7000D2FE0646A0B11D4A002393731C4A0124AE
:104A800014708DF800301B4B1B4A1B781B4902A881
:104A9000FFF773FB03A8FFF72BFF204604B070BDA0
:104AA0001749204602F0B7FE054650B10F4B154A94
:104AB00001249C730E4B1C700E4B8DF800601B780C
:104AC000E4E71149204602F0A6FE0028E6D0074B95
:104AD00002229A73064B0D4A01241C70054B8DF877
:104AE00000501B78D2E700BFFDAD0D003CE5032070
:104AF00070E5032084E40320FFAD0D000FAE0D0030
:104B000068AC0D0016AE0D0014B00D0026AE0D0001
:104B100030B5164985B0044602F07DFE0546A0B1C9
:104B2000134A0023D373134A012414708DF8003004
:104B3000114B124A1B78124902A8FFF71EFB03A86B
:104B4000FFF7D6FE204605B030BD0E49204602F0E4
:104B500062FE0028F7D0064B0B4A0124DC73054B9C
:104B60001C70054B8DF800501B78E4E7FDAD0D007F
:104B70003CE5032070E5032084E4032037AE0D00FC
:104B80000FAE0D0068AC0D004AAE0D0030B51A49ED
:104B900085B0044602F03FFE0546A0B1174A002347
:104BA0001374174A012414708DF80030154B164AFF
:104BB0001B78164902A8FFF7E0FA03A8FFF798FE52
:104BC000204605B030BD1249204602F024FE0028E0
:104BD000F7D00A4B0F4801241C74094B1C7001F0DC
:104BE00058F90C48202101F090F9064B8DF800503F
:104BF0001B78094ADDE700BFFDAD0D003CE5032051
:104C000070E5032084E4032062AE0D000FAE0D00BA
:104C100068AC0D0024E5032072AE0D0030B51849D4
:104C200085B0044602F0F7FD0546A0B1154A002301
:104C30001373154A012414708DF80030134B144A75
:104C40001B78144902A8FFF798FA03A8FFF750FE53
:104C5000204605B030BD1049204602F0DCFD00289A
:104C6000F7D0084B0D4801241C73074B44211C70DE
:104C700001F09EF9054B8DF800501B78084AE0E7DB
:104C8000FDAD0D003CE5032070E5032084E4032026
:104C900087AE0D000FAE0D0068AC0D0074E503206B
:104CA0008AAE0D0010B5C6B000680A2203A904F050
:104CB000B1FF431E362B2CD8174B184C01221A700B
:104CC00020620346164A4FF4807106A801F078FD71
:104CD0001448FFF716FB40B1236A12484EF66021D4
:104CE0006FF000425943FFF7FBFAFFF7B5FC01F004
:104CF000B7FC60B100238DF800300B4B0B491B78DB
:104D000004A806AAFFF739FA05A8FFF7F1FD01206C
:104D100000E0002046B010BD70E503203CE5032014
:104D2000A9AE0D0098E5032084E40320CDAE0D006C
:104D300010B5C6B000680A2203A904F06BFF431E39
:104D4000362B2CD8174B184C01221A706062034680
:104D5000164A4FF4807106A801F032FD1448FFF79F
:104D6000D0FA40B1636A12484EF660216FF00042FB
:104D70005943FFF7B5FAFFF76FFC01F071FC60B122
:104D800000238DF800300B4B0B491B7804A806AAB2
:104D9000FFF7F3F905A8FFF7ABFD012000E00020C5
:104DA00046B010BD70E503203CE50320D6AE0D00F3
:104DB00098E5032084E40320CDAE0D0010B5C6B005
:104DC00000680A2203A904F025FF431E362B2CD8C5
:104DD000174B184C01221A70A0620346164A4FF472
:104DE000807106A801F0ECFC1448FFF78AFA40B184
:104DF000A36A12484EF660216FF000425943FFF754
:104E00006FFAFFF729FC01F02BFC60B100238DF84D
:104E100000300B4B0B491B7804A806AAFFF7ADF92D
:104E200005A8FFF765FD012000E0002046B010BD99
:104E300070E503203CE50320F8AE0D0098E5032063
:104E400084E40320CDAE0D0070B586B0006803A9E0
:104E500004F00CFEB5EEC00AF1EE10FA32D4DFED2C
:104E60001A7AB4EEE70AF1EE10FACCBF012600265A
:104E700028DC164B164D01241C7010EE100A85ED2F
:104E80000B0A03F035FB134ACDE900011248082153
:104E900001F096FC2B7913B9012006B070BD01F02A
:104EA000DFFB0028F8D0FFF7D7FB0C4B8DF8006034
:104EB00004A81B78084A0A49FFF75FF905A8FFF71D
:104EC00017FDE9E70020E8E70000C84270E503208D
:104ED0003CE503201CAF0D0090E5032084E4032093
:104EE000D0AF0D0030B5164985B0044602F093FCF2
:104EF0000546A0B1134B144A01241C71134B1C70BE
:104F000000238DF80030124B1B78124902A8FFF7DE
:104F100034F903A8FFF7ECFC204605B030BD0E497C
:104F2000204602F078FC0028F7D0064B0B4A1D7192
:104F3000064B01241C70064B8DF800501B78E4E7EB
:104F400068AC0D003CE5032025AF0D0070E50320A3
:104F500084E4032046AF0D00FDAD0D0036AF0D001B
:104F600030B52A4985B0044602F055FC60B32749A4
:104F7000204602F050FC78BB2549204602F04BFC4D
:104F800000283ED001F06CFB224C18B9FFF76CFAF8
:104F90000123E370FFF760FB00251F4B8DF80050E5
:104FA0001B781E4A1E4902A8FFF7E7F803A8FFF77F
:104FB0009FFC4FF47A7001F037FC1A486FF0004103
:104FC000FFF7E6F9A5711CE01149204602F023FC29
:104FD0000028CCD105B030BD01F042FB70B1FFF725
:104FE0003BFB00238DF800300B4B0F4A1B780C491C
:104FF00002A8FFF7C2F803A8FFF77AFC054B0122CD
:105000009A710A4B01201870E4E700BF68AC0D00EC
:10501000FDAD0D003CE5032084E403205AAF0D00F4
:1050200046AF0D0090E403204BAF0D0070E5032068
:10503000F0B5354985B0044602F0EDFB60B320467B
:105040003149324F324D334E02F0E5FB044658BB36
:105050000146022003F001F82146032002F0FDFF83
:10506000686901F0E1FB0121032002F0F6FF4FF433
:105070007A7001F0D9FB2146032002F0EEFF686947
:1050800001F0D2FB0121032002F0E7FF3378224A2E
:10509000FC608DF800402CE02049204602F0BBFB6C
:1050A0000028CCD105B0F0BD012421460220FC60CF
:1050B00002F0D3FF0021032002F0CFFF686901F066
:1050C000B3FB2146032002F0C8FF4FF47A7001F0D1
:1050D000ABFB0021032002F0C0FF686901F0A4FBD4
:1050E0002146032002F0B9FF00238DF800300C4A5E
:1050F00033780C4902A8FFF740F803A8FFF7F8FB44
:10510000094B01201870CDE768AC0D00DCE40320EA
:105110003CE5032084E4032084AF0D00FDAD0D00C9
:105120006CAF0D007BAF0D0001E50320F0B5B94B6E
:10513000BDB00CAA03F1100516461868596814464C
:1051400003C40833AB422246F7D119889B782180EB
:10515000A3702D220021B04F0DF1430003F0D8FDC4
:1051600002233B70FFF72AF990F83050FFF726F939
:105170006C0190F8315005F01F0525432F2D40F3A9
:105180002182A64A00210A2001F0BEF9A44B05F0B5
:105190001F05012404FA05F5C3F808552146072028
:1051A00002F04AFF0021042002F046FF00211320F4
:1051B00002F042FF0021122002F03EFF00211120E8
:1051C00002F03AFF21460E2002F036FF21460E2063
:1051D00002F043FF2146032002F02EFF2146022069
:1051E00002F02AFF2146032002F037FF00210220AF
:1051F00002F033FF04A801F03BFA002500237D22D2
:105200001CA904A802F019FB2B462A468549CDE9C2
:1052100000551CA801F03CFA83498448FEF7A9FF19
:1052200083498448FEF7A1FF83498448FEF7A1FF24
:1052300083498448FEF79DFF83498448FEF799FF20
:1052400083498448FEF791FF83498448FEF78DFF28
:1052500083498448FEF789FF83498448FEF789FF24
:1052600083498448FEF785FF83498448FEF781FF20
:1052700083498448FEF77DFF83498448FEF775FF24
:1052800083498448FEF771FF83498448FEF76DFF28
:1052900083498448FEF769FF83498448FEF7EAFFA3
:1052A00083498448FEF7E6FF83498448FEF7E2FF1E
:1052B00083498448FEF7DEFF83498448FEF7DAFF1E
:1052C00083498448FEF7D6FF83498448FEF7D2FF1E
:1052D00083498448FEF7CEFF83498448FEF7CAFF1E
:1052E00083498448FEF7C6FF83498448FEF7C2FF1E
:1052F00083498448FEF7BEFF83498448FEF7BAFF1E
:1053000002F0EEFE284600F097FF022811D002F0CE
:10531000E7FE7F490422284600F09EFF02F0E0FEEF
:105320002046042208A90134089500F095FFF02CCE
:10533000F4D1784C02F0D4FE34222146012000F052
:1053400083FF02F0CDFE50492422502000F07CFF64
:10535000A37923B970486FF00041FFF719F8237B58
:105360004BB16E48442100F023FE20B920736C49F4
:10537000304603F003FD237C33B16A4800F089FD19
:105380006848202100F0C1FD0022114608A80892BB
:1053900000F02AFF089B142B02BFA3690133A3610D
:1053A000A369052B03DD0423A361FFF761F9637C87
:1053B0004BB1E06A03F09CF85B4ACDE900012A4852
:1053C000082101F0FDF906236361637C63B12E4B74
:1053D000DB684BB1554908A802F0EFF908A8FFF7C0
:1053E00027FE08A802F09EF901236371FFF7DAF89F
:1053F000042002F04BFE002840F09A804B4908A898
:1054000002F0DBF908A8FFF7ABFD08A802F08AF963
:105410008EE000BF0CB30D0034E5032009620D00DF
:1054200000030050CD490D0034E4032094AF0D007B
:1054300054E503209BAF0D004CB30D00A6AF0D004B
:10544000BCE40320AEAF0D00ACE40320B9AF0D0007
:105450005CE50320A7B00D0060E50320BAB00D00A5
:1054600064E50320CBB00D0090E50320C8AF0D002C
:1054700080E50320DAAF0D0002E50320E6AF0D0062
:1054800012E50320EFAF0D00DCE40320FAAF0D00BE
:10549000E0E4032008B00D00E4E4032016B00D00A2
:1054A0006CE503201FB00D0009410D002BB00D006D
:1054B000614F0D0037B00D00E54E0D0044B00D00FA
:1054C00031500D007BAF0D00694A0D0051B00D0049
:1054D000114B0D0060B00D008D4B0D0072B00D0032
:1054E0000D560D0081B00D001D4C0D0091B00D004A
:1054F000A54C0D00A4B00D00314D0D00B7B00D004E
:10550000BD4D0D00C8B00D00494E0D00DBB00D00C3
:1055100054B30D003CE5032090E4032074E5032020
:10552000EDB00D0024E503201CAF0D00FDAD0D0016
:10553000FFF71AF92E4BA2681B689A4248DC082331
:105540003B7001F08DF870B1237963B100238DF8C1
:105550000030284B28491B7808A83246FEF70DFE7C
:1055600009A8FFF7C5F902F055FC314602F094F89E
:10557000B0EE000A02F0CEFAFFF76EF801F070F814
:10558000C0B12379B3B102F03AFB0246C31708A8B1
:1055900002F0E0FA00238DF80030164B089A1B78D1
:1055A000164902A8FEF7E9FD03A8FFF7A1F908A82C
:1055B00002F0B8F8124B012204A81A7002F0B2F8F7
:1055C0003DB0F0BD1F2D3FF7E1AD4FF0A043E0E54A
:1055D000FEF74AFF0028B4D101233B7000F01CFE07
:1055E000084B09491860304603F0C8FBA9E700BF23
:1055F000CCE1032084E4032033B10D003BB10D0066
:1056000070E5032030E5032021B10D0030B587B0EF
:105610001B49044602A802F0D0F802A8FFF708FDD3
:1056200002A802F07FF81749204602F0F4F8054678
:10563000A0B1154B154A01245C74154B1C70002356
:105640008DF80030134B1B78134902A8FEF795FD27
:1056500003A8FFF74DF9204607B030BD08492046A2
:1056600002F0D9F80028F7D0074B0C4A5D74084BBC
:1056700001241C70074B8DF800501B78E4E700BF35
:10568000FDAD0D0068AC0D003CE5032049B10D00F7
:1056900070E5032084E403200FAE0D0046B10D0039
:1056A00030B5134D134C14492A7820788FB00E234F
:1056B00003FB0212009203FB0013104A282104A8E6
:1056C00001F07EF82B78237000F0CAFF70B1FEF76E
:1056D000C3FF00238DF80030094B0A491B7802A84C
:1056E00004AAFEF74AFD03A8FFF702F90FB030BD88
:1056F00034E503202CE50320D0E103205BB10D004D
:1057000084E4032069B10D002DE9F041A24C237817
:10571000013B8AB0072B74D8DFE813F07102080050
:105720004D007B0017016E01A00121029B4D2B79DA
:105730002BB19B4B1B78022B01D0FFF7B1FF994E89
:10574000337843B102F0CCFC94493422012000F0BC
:1057500083FD00233370944E337843B102F0C0FCD4
:1057600092492422502000F077FD00233370AB795A
:1057700063B100F051FD8E4B1B68C01A8D4B9842EF
:1057800004D98A4BDB680BB90723237002F048FA6F
:10579000894BAA681B7898421CBF03232370874B50
:1057A0001B689A42DCBF08232370854B1B7843B3E8
:1057B0000423237025E0794D2B792BB1784B1B788E
:1057C000032B01D0FFF76CFFFEF7CEFF0646D8B9DA
:1057D0000123237000F020FD7A4B18602B7983B1F0
:1057E00000F03EFF68B1FEF737FF774B8DF80060A1
:1057F00006A81B78754A7649FEF7BFFC07A8FFF795
:1058000077F80AB0BDE8F0816B7C002BD0D105237E
:10581000CFE76B4D6C4E2B7803F0FF07CBB1002721
:10582000FEF71AFF8DF8007033786A4A6A4906A8B5
:10583000FEF7A3FC07A8FFF75BF8684906A801F08C
:10584000BCFF06A8FFF7F4FB06A801F06BFF2F7062
:10585000DDE702F0E5F90828544D0BD14F4FBB6846
:10586000312B2ADCFEF7F8FE00238DF80030337868
:105870005B4A0DE002F0D4F90C28EFD002F0D0F929
:105880001128EBD0FEF7E8FE8DF800703378554A0A
:10589000514906A8FEF771FC07A8FFF729F8EB6845
:1058A000002BB4D04D4906A801F087FF06A8FFF7EA
:1058B000BFFB06A801F036FFA9E7D5ED007A97ED0A
:1058C0000B7AF8EEE77AF4EEC77AF1EE10FA34D5F7
:1058D000D5F80C80B8F1000F2FD1FEF7BDFE8DF882
:1058E00000803378404A3C4906A8FEF746FC07A8EA
:1058F000FEF7FEFF3D4906A801F05FFF06A8FFF78F
:1059000097FB06A801F00EFF02F08AF9082809D1DA
:105910003B6A6FF000424EF6602159433448FEF76F
:10592000DFFC74E702F07CF90C280CBF796AB96AD5
:105930004EF660236FF00042EFE7FEF78DFE002386
:105940008DF8003033782B4AA2E7144D2B792BB118
:10595000134B1B78052B01D0FFF7A2FE00F080FE51
:1059600090B102F05DF9064650B9287100F078FE5A
:1059700010B1304600F094FE0C4A0023AB61136274
:10598000FEF7CCFF062314E700F06AFE00287FF440
:1059900038AF01230DE700BF34E503203CE50320C9
:1059A0002CE5032070E5032001E50320DCE403205F
:1059B00038E50320905F010000E50320CCE10320DF
:1059C000B4E5032030E5032084E403207AB10D0020
:1059D00094B10D009AB10D007BAF0D00FDAD0D002F
:1059E000C5B10D00B3B10D00E9B10D0068AC0D00FB
:1059F00098E5032013B20D00AA4B1B792BB1AA4BDB
:105A00001B78062B01D0FFF74BFEA84B1B782BB958
:105A100000F002FCA64B18600223CAE600F0FCFB73
:105A2000A44B1B68C01A4AF6C87398427FF6E9AEC9
:105A300000F0F2FBA04B186000F012FE0028A8D086
:105A400000238DF800309D4B9D4A1B789D4906A888
:105A5000FEF793FB07A8FEF74BFF9AE7914D2A79D3
:105A60002AB1914B1B78072B01D0FFF719FE964BFB
:105A7000964E9B68012B05DD33781BB901233370EB
:105A8000032396E600F0ECFDB0B12B7973B1FEF77D
:105A9000E3FD00238DF80030884B8D4A1B788D493B
:105AA00006A8FEF76AFB07A8FEF722FF4FF47A70FC
:105AB00000F0BAFEFEF71EFD0021072002F0CDFA2D
:105AC00000210E2002F0C9FA0023337002F0B4F86E
:105AD000814B1A7DC0F13C050AB101221A720022E5
:105AE00004217D48FEF768FB4EF660216943FEF70E
:105AF00097FB794903A801F021FF039B7BB19A88AA
:105B0000012A0CD19B89042B09D1744906A801F004
:105B100054FE06A8FFF724FA06A801F003FE0121AF
:105B2000072002F09AFA01210E2002F096FAFEF701
:105B300017FD68B1FEF714FD78B1FEF795FC02235E
:105B40000398237000283FF45CAE00F021FE58E675
:105B500002F066F8C307EDD4EFE70723F0E7514DF5
:105B60002A792AB1504B1B78082B01D0FFF798FDFA
:105B700000F076FDA0B1FEF76FFD00238DF8003038
:105B80004E4B574A1B78534906A8FEF7F6FA07A86A
:105B9000FEF7AEFE4FF4FA6000F046FEFEF7AAFCF8
:105BA0000021072002F059FA6B7C4BB14B4906A843
:105BB00001F003FE06A8FFF73BFA06A801F0B2FDCC
:105BC00041F2883000F030FE02F036F8424B1A7D88
:105BD000C0F13C050AB101221A72002204213E489C
:105BE000FEF7EAFA4EF660216943FEF719FB06A8B4
:105BF000394901F0A3FE022306982370A2E7294C3D
:105C000023792BB1284B1B78012B01D0FFF748FDDE
:105C100000F002FB284B1B6803F5EA433033834254
:105C2000BFF4EFADA369032B16DC00F019FD60B1E2
:105C300000238DF80030214B2A4A1B78254906A8FD
:105C4000FEF79BFA07A8FEF753FE4FF4FA6000F048
:105C5000EBFD01F06FFED4E501F0D1FFE369C01A5E
:105C6000B0F5E15F42D900F0FBFC60B100238DF894
:105C70000030124B1C4A1B78164906A8FEF77DFA25
:105C800007A8FEF735FE4FF4FA6000F0CDFD0023C3
:105C9000A36102F025FA03493422012000F0DCFA66
:105CA000D7E700BF3CE503202CE50320C8E1032033
:105CB00038E50320B8E5032030E5032084E4032021
:105CC000C2AC0D0027B20D00DCE403208CE40320FD
:105CD00040B20D0094B10D00C4E40320FDAD0D00F1
:105CE0004DB20D0064B20D0078B20D0000F0B8FCAA
:105CF00060B100238DF800300C4B0D4A1B780D4924
:105D000006A8FEF73AFA07A8FEF7F2FD4FF4FA608C
:105D100000F08AFD0023A36102F0E2F90649342273
:105D2000012000F099FAFEF7A3FC6AE584E4032061
:105D300092B20D0094B10D003CE503202DE9F04333
:105D40003B4B3C4E3C4FDFF83091DFF83081002474
:105D50001C603A4B012585B01D7002F017F92346EF
:105D6000224642F6D51102F019F902F00FF9224647
:105D70002346262102F01AF9314BB3603460B48017
:105D8000B471022000F0E2FB3A462E49304602F0A0
:105D90003DFA2146284600F0F1FB2946042000F098
:105DA0001BFA29482949A0F809400346021D43F877
:105DB000092B9C70264B43603A46C0E903440575A5
:105DC000047202F023FA2348234C244E00F0CDF84D
:105DD00002F0CCF923210246214800F055F8214B6E
:105DE000214900936A462B4648460294CDF80C8020
:105DF000FEF746FA6846FEF7D5F93A463146484678
:105E000002F004FACDE90248184C194B19490093E5
:105E10006A462B462046FEF733FA6846FEF7C2F97B
:105E20003A463146204602F0F1F905B0BDE8F0836C
:105E300080E4032074E4032028E4032084E40320A6
:105E40000000FFFF95410D00C4E40320EF400D006A
:105E50001000030074E50320D9400D0035430D0008
:105E600024E50320B5400D00804F120090E403208C
:105E7000C1400D0040771B0098E50320D5400D0080
:105E80000368C9B29B6818474260112241700270D2
:105E9000704710B50446406801F0DFF910B960683A
:105EA00001F086F9012010BD70B5054641784068C3
:105EB00001F0B0F969786868022201F0A8F9686811
:105EC00003685B6998470646686803685B6998479A
:105ED0000446686801F0BEF944EA062084B207EE81
:105EE000904AB8EE670ADFED027A80EE270A70BDAD
:105EF0009A99993F0378232B05D0132B0CBF1820B8
:105F0000B42000F091BC1820FBE738B504460D46DC
:105F10004178406801F07EF96068036829469B6813
:105F20009847606801F096F925702046BDE8384032
:105F3000FFF7E0BF10B50378A3F12002012A044661
:105F400001D9232B10D16178606801F063F9606892
:105F5000217803689B689847606801F07BF92046C8
:105F6000BDE81040FFF7C6BF10BD704738B5054605
:105F70000C4602F0FBF8297801F04CF902F0F6F833
:105F8000210AFFF77DFF02F0F1F8E1B2FFF778FF99
:105F900002F0ECF8BDE8384001F05CB908B543F216
:105FA000A201FFF7E3FFBDE808400A2000F03CBC77
:105FB00038B504460D4602F0D9F801F0F9F820464C
:105FC0002570FFF7EBFF012038BD0A44FF20914206
:105FD0000ED011F8013B5840082310F0800F4FEA13
:105FE000400018BF80F03100013BC0B2F5D1EEE7B0
:105FF000704700000000000073B54FF410510546D3
:10600000FFF7B4FF4FF4FA7000F00EFC02F0AEF8A8
:106010002978062201F0FBF802F0A8F803681B6952
:10602000984706284BD16E46044602F09FF8036855
:106030005B699847013C14F0FF0406F8010B6946C0
:10604000F3D102222846FFF7C0FF9DF80260864286
:1060500035D102220DF103012846FFF7B6FF9DF866
:10606000056086422BD1BDF80000BDF8034040BA60
:1060700080B202F01BFA18A3D3E9002302F090FAD1
:1060800011A3D3E9002302F0B5FB114B002202F06B
:10609000CFF802F055FDA86060BA80B202F006FAAF
:1060A0000C4B002202F07CFA07A3D3E9002302F094
:1060B000A1FB02F045FD6860012002B070BD002028
:1060C000FBE700BFAFF3008000000000E0FFEF40FF
:1060D00000804640000059400000000000E065409C
:1060E00010B50446FFF788FF10B194ED020A10BD09
:1060F0009FED010AFBE700BF0000C07F10B504461A
:10610000FFF77AFF10B194ED010A10BD9FED010A6F
:10611000FBE700BF0000C07F08B5024B1B685B6C4B
:10612000019308BD7402030008B5024B1B689B6C09
:10613000019308BD7402030008B5024B1B68DB68BD
:10614000019308BD4802030008B5024B1B68DB69D8
:10615000019308BD4802030008B5024B1B681B6A87
:10616000019308BD4802030008B5024B1B685B6A37
:10617000019308BD4802030008B5024B1B689B6AE7
:10618000019308BD4802030008B5024B1B68DB6A97
:10619000019308BD4802030008B5024B1B685B6C05
:1061A000019308BD4802030008B5024B1B689B6CB5
:1061B000019308BD4802030008B5024B1B689B6DA4
:1061C000019308BD4802030008B5024B1B681B6F12
:1061D000019308BD4802030008B5024B1B685B6EC3
:1061E000019308BD3402030008B5024B1B68DB6E47
:1061F000019308BD3402030008B5024B1B685B68BD
:10620000019308BD1802030008B5024B1B68DB6848
:10621000019308BD1802030008B5024B1B685B69B7
:10622000019308BD1802030008B5024B1B689B6A66
:10623000019308BD1802030008B5024B1B68DB6A16
:10624000019308BD1802030008B5024B1B685B6C84
:10625000019308BD1802030008B5024B1B689B6C34
:10626000019308BD1802030008B5024B1B689B6D23
:10627000019308BD1802030008B5024B1B68DB6DD3
:10628000019308BD1802030008B5024B1B685B6E42
:10629000019308BD1802030008B5024B1B681B6878
:1062A000019308BD2C02030008B5024B1B685B6814
:1062B000019308BD2C02030008B5024B1B689B68C4
:1062C000019308BD2C02030008B5024B1B68DB6874
:1062D000019308BD2C02030008B5024B1B681B6923
:1062E000019308BD2C02030008B5024B1B685B69D3
:1062F000019308BD2C02030008B5024B1B681B6B01
:10630000019308BD2C02030008B5024B1B68DB6833
:10631000019308BD2802030008B5024B1B689B6966
:10632000019308BD2802030008B5024B1B68DB6916
:10633000019308BD2802030008B5024B1B681B6AC5
:10634000019308BD2802030008B5024B1B685B6A75
:10635000019308BD2802030008B5024B1B689B6A25
:10636000019308BD2802030008B5024B1B68DB6AD5
:10637000019308BD2802030008B5024B1B681B6B84
:10638000019308BD2802030008B5024B1B685B6B34
:10639000019308BD2802030008B5024B1B681B6C63
:1063A000019308BD2802030008B5024B1B689B6CD3
:1063B000019308BD2802030008B5024B1B68DB6C83
:1063C000019308BD2802030008B5024B1B681B6D32
:1063D000019308BD2802030008B5024B1B685B69E6
:1063E000019308BD6402030008B5024B1B689B685B
:1063F000019308BD6802030008B5024B1B68DB6807
:10640000019308BD6802030008B5024B1B68DB69F5
:10641000019308BD3002030008B5024B1B681B6ADC
:10642000019308BD3002030008B5024B1B681B68CE
:10643000019308BD3C02030008B5024B1B68DB68F2
:10644000019308BD3C02030008B5024B1B681B69A1
:10645000019308BD3C02030008B5024B1B685B6951
:10646000019308BD3C02030008B5024B1B689B6901
:10647000019308BD3C02030008B5024B1B68DB69B1
:10648000019308BD3C02030008B5024B1B681B6A60
:10649000019308BD3C02030008B5024B1B689B6AD0
:1064A000019308BD3C02030008B5024B1B681B6842
:1064B000019308BD4C02030008B5024B1B681B6921
:1064C000019308BD4C02030008B5024B1B685B69D1
:1064D000019308BD4C02030008B5024B1B689B6981
:1064E000019308BD4C02030008B5024B1B68DB6931
:1064F000019308BD4C02030008B5024B1B681B6AE0
:10650000019308BD4C02030008B5024B1B685B6B8E
:10651000019308BD6002030008B5024B1B681B6DA8
:10652000019308BD6002030008B5034B1B68D3F854
:106530009830019308BD00006002030008B5024BCB
:106540001B681B68019308BD2002030008B5024BBD
:106550001B685B68019308BD2002030008B5024B6D
:106560001B685B69019308BD2002030008B5024B5C
:106570001B689B69019308BD2002030008B5024B0C
:106580001B68DB6A019308BD2002030008B5024BBB
:106590001B68DB6C019308BD2002030008B5024BA9
:1065A0001B685B6D019308BD2002030008B5024B18
:1065B0001B689B6D019308BD2002030008B5034BC7
:1065C0001B68D3F88830019308BD00002002030047
:1065D00008B5034B1B68D3F89430019308BD000045
:1065E0002002030008B5034B1B68D3F8A8300193C1
:1065F00008BD00002002030008B5034B1B68D3F858
:10660000AC30019308BD00002002030008B5034B25
:106610001B68D3F8B030019308BD000020020300CE
:1066200008B5024B1B681B68019308BD44020300B8
:1066300008B5024B1B685B68019308BD4402030068
:1066400008B5024B1B689B68019308BD4402030018
:1066500008B5024B1B68DB68019308BD44020300C8
:1066600008B5024B1B685B69019308BD4402030037
:1066700008B5024B1B68DB69019308BD44020300A7
:1066800008B5024B1B681B6A019308BD4402030056
:1066900008B5024B1B685B6A019308BD4402030006
:1066A00008B5024B1B68DB6A019308BD4402030076
:1066B00008B5024B1B681B6B019308BD4402030025
:1066C00008B5024B1B68DB6B019308BD4402030055
:1066D00008B5024B1B685B6C019308BD44020300C4
:1066E00008B5024B1B685B68019308BD40020300BC
:1066F00008B5024B1B689B68019308BD400203006C
:1067000008B5024B1B68DB68019308BD400203001B
:1067100008B5024B1B681B69019308BD40020300CA
:1067200008B5024B1B685B69019308BD400203007A
:1067300008B5024B1B689B69019308BD400203002A
:1067400008B5024B1B68DB69019308BD40020300DA
:1067500008B5024B1B681B6A019308BD4002030089
:1067600008B5024B1B681B6B019308BD4002030078
:1067700008B5024B1B685B6B019308BD4002030028
:1067800008B5024B1B681B68019308BD1C0203007F
:1067900008B5024B1B685B68019308BD1C0203002F
:1067A00008B5024B1B689B68019308BD1C020300DF
:1067B00008B5024B1B681B69019308BD1C0203004E
:1067C00008B5024B1B68DB69019308BD1C0203007E
:1067D00008B5024B1B68DB6A019308BD1C0203006D
:1067E00008B5024B1B681B6B019308BD1C0203001C
:1067F00008B5024B1B685B6C019308BD1C020300CB
:1068000008B5024B1B68DB6C019308BD1C0203003A
:106810008A4210B507D0029C401AE41A6043521A0B
:1068200090FBF2F0184410BD0021FFF797BE10B5A1
:10683000836804460BB901F0F4FCC3689847A36869
:106840001BB1032221462046984720461021BDE86F
:10685000104001F0E0BC10B50446006808B1FFF735
:10686000A3FC204610BD0B68036013B15A680132C7
:106870005A60704710B5064C002320462360FFF78E
:106880008BFC2046034A0449BDE8104001F0BEBC21
:10689000BCE5032028E4032057680D00002240686F
:1068A0001146FFF735BF002240681146FFF750BF81
:1068B000002240681146FFF75BBF40680022FFF7E7
:1068C0004FBF4068002281F00101FFF739BF00236C
:1068D00040681A461946FFF72BBF002340681A4646
:1068E0001946FFF71DBF002240681146FFF700BFA1
:1068F000406800220221FFF703BF002340681A46C8
:10690000FFF7EEBEF0B51B4B036000250F462833A2
:106910001826C0E9025589B043603246294604462C
:10692000103002F0F5F978682A462946FFF7F0FEA4
:1069300018B9A060204609B0F0BD2946324602A829
:10694000CDE9005502F0E4F902A96846ADF8086007
:10695000FFF7E2FB10B10123A360EBE7009B019A74
:10696000A360E2600BB90223A36002A9204600F0F5
:10697000AEF8DFE794B30D00084B10B5282422468B
:106980001846002102F0C4F9054B04804FF0FF3295
:10699000426004225A60034A1A6010BDC8E5032011
:1069A000C0E5032060B30D007047007D704710B54F
:1069B0002821044601F02FFC204610BD037D7BB149
:1069C000C369002B0CDB07EE903A9FED077AF8EED7
:1069D000E77A87EE870ADFED057A20EE270A70470F
:1069E000BFEE000A704700BF00FF7F470000C842AB
:1069F000037D63B18369B3F1004F08D007EE903A8D
:106A00009FED047AF8EEE77A87EE870A70479FEDEC
:106A1000020A70470000C84200000000037D7BB1FD
:106A2000436A002B0CDB07EE903A9FED077AF8EEF5
:106A3000E77A87EE870ADFED057A20EE270A7047AE
:106A4000BFEE000A704700BF00FF7F470000C8424A
:106A5000037D63B1036AB3F1004F08D007EE903AAB
:106A60009FED047AF8EEE77A87EE870A70479FED8C
:106A7000020A70470000C8420000000070B50C1EFA
:106A800006460ADA2D2100F0F8FD614205460A2289
:106A9000304600F00BFE284470BD21460025F6E785
:106AA00070B50C46054681682046FFF7E7FF2C21AC
:106AB0000646204600F0E1FDE96806442046FFF75F
:106AC000DDFF304470BDA0F10400FFF7E9BF30B531
:106AD0000D4600F110040FCD0FC495E8030084E8C3
:106AE0000300012030BD70470020704710B5102111
:106AF000044601F090FB204610BD08B5FFF7F6FFF5
:106B000008BD30B500224FF69C74026084808D88E9
:106B10008C800C68858004600A6030BD10B5044626
:106B20000068FFF735FE204610BD38B5C468F4B1E3
:106B30002378022B03D104F10C00FFF7EFFF656807
:106B400035B12846FDF72EFB1021284601F063FBE6
:106B5000A56835B12846FDF725FB1021284601F030
:106B60005AFB20461421BDE8384001F054BB38BD23
:106B700010B588B00446684600F01FFE694604A8B8
:106B800000F03EFE04A8A047044604A800F0CAFD99
:106B9000684600F0C7FD204608B010BD1FB50023B1
:106BA000CDE90201019210241A4669461846ADF853
:106BB0000230ADF80040FFF73BFD04B010BD07B553
:106BC0000823ADF8003003688DF80230037A8DF8A1
:106BD00003300021436801936846FFF779FD03B055
:106BE0005DF804FB73B50E46044656F8043B00936B
:106BF0000D4601A83146FFF736FE019A009B626000
:106C0000236001A8002301930093FDF771FE304635
:106C1000FDF76EFE2846082101F0FDFA204602B07D
:106C200070BD13B50B460246D0E900016C4684E8FE
:106C3000030093E8030082E8030094E8030083E87C
:106C4000030002B010BD826810B50AB901F0E9FA7C
:106C5000BDE81040C368184708B5006800F110018E
:106C6000FFF7F1FF08BD826810B50AB901F0D9FA43
:106C7000BDE81040C368184708B5006800F110016E
:106C8000FFF7F1FF08BD000038B50023044603609C
:106C900010200D46FDF7FFF928B10123C0E90133AB
:106CA000024B0360C5602060204638BDC8B30D00AC
:106CB00038B5002383608B6804460D462BB1022251
:106CC0009847EB68E360AB68A360204638BD0000DE
:106CD000F0B589B004686846FFF713FF4FF0020370
:106CE000D4E84F2F002A03D1C4E8413F0029F7D14F
:106CF00025D104F10C0569462846FFF702FFBFF3D2
:106D00005B8F01236370002004F10803BFF35B8FE6
:106D100053E8006F43E80002002AF9D1BFF35B8F0C
:106D20006EB1FFF733FC78B129463046FFF78BFF91
:106D30003046FDF737FA1021304601F06CFA68460C
:106D4000FFF7ECFE09B0F0BD314602A8FFF7B0FF37
:106D5000E068B4F9105008B102F018F8069010205D
:106D6000ADF81C50FDF797F90546E8B1002787609C
:106D70001820FDF790F9044688B10146876002A803
:106D8000FFF74FFF049BA268A360059B049206A92E
:106D9000E268E36004F110000592FFF7B2FE084BD1
:106DA000EB60084B2C60AB6006A8FFF7B7FE02A8AB
:106DB000FDF7F8F9002229460348FFF7EFFBB7E794
:106DC000596C0D00F16E0D002F680D002DE9F04794
:106DD0008AB005469DF848900C4617469846FFF73E
:106DE0003FFC07AE824638BB4FF62E73059005A9CF
:106DF0003046ADF81830FFF784FE1420FDF74BF94C
:106E0000044648B1022303700123C0E901AA43707C
:106E100031460C30FFF775FE2846214640F8044BFA
:106E2000FFF732FF3046FFF779FE05A8FFF776FE41
:106E300028460AB0BDE8F0870C234FF0000A142062
:106E4000CDE908AA0793FDF726F9014628B1C0E964
:106E500001AA80F800A080F801A004A80391FFF720
:106E600013FF224B08930820FDF715F9824628B13D
:106E7000039B40F8043B04A9FFF7F5FC00965FFA7A
:106E800089F3424639462046CDF824A0FFF7F8FBA7
:106E9000B8B9039B5B7803F0FF0293B94FF69C737C
:106EA00005A903A80592ADF81830FFF711FF05A852
:106EB000FFF734FE05A80999FFF794FE06A8FDF731
:106EC00017FD039B059304A906A8FFF7CCFC059BBF
:106ED000069A2B606A60002306A806930593FDF7C7
:106EE00007FD04A8FDF704FDA2E700BFB56F0D0084
:106EF000022AF8B5054607D0032A18D0012A01D185
:106F00000B6803600020F8BD18200E68FDF7C3F879
:106F1000044650B13146FFF7CBFE3069B6F9147024
:106F200008B101F033FF2061A7822C60EAE7046812
:106F3000002CE7D004F11000FFF7F0FD2046FDF72C
:106F400031F91821204601F066F9DBE738B5002356
:106F500083608B6804460D462BB102229847EB688C
:106F6000E360AB68A360204638BD022A70B50446D2
:106F700007D0032A12D0012A01D10B680360002038
:106F800070BD14200E68FDF786F8054620B1314625
:106F9000FFF7DCFF337C2B742560F0E70468002CDE
:106FA000EDD02046FDF7FEF81421204601F033F91C
:106FB000E5E70000F0B589B004460D4601A811468A
:106FC000FFF710FEA4B124B21DB1284601F0DEFE89
:106FD000054601A803A90395ADF81040FFF778FE18
:106FE00003A8FFF79BFD02A8FDF782FC09B0F0BDE6
:106FF000019D0123D5E84F2F002A03D1C5E8413F69
:107000000029F7D1EFD12B73BFF35B8F6B702B1D72
:10701000BFF35B8F53E8006F43E80042002AF9D1C9
:10702000BFF35B8F002EDED02046FFF7AFFA074696
:1070300060B105F10C013046FFF715FE3046FDF753
:10704000B1F81021304601F0E6F8CCE7314603A84C
:10705000FFF77CFF2B7B8DF81C301020FDF71BF811
:107060000546D0B187601420FDF715F8044678B1C5
:107070008760014603A8FFF7D4FD059BA268A360C3
:10708000069B0592E268E3609DF81C30069223742B
:10709000064BEB60064B2C60AB6003A8FDF782F853
:1070A000002229460348FFF779FAC7E7796C0D00FB
:1070B0006B6F0D002F680D00002240681146FFF72E
:1070C00047BB002240681146FFF752BB40680022D0
:1070D000FFF746BB4068002281F00101FFF730BB9B
:1070E000002340681A461946FFF722BB0023406878
:1070F0001A461946FFF714BB002240681146FFF7F5
:1071000007BB002240681146FFF7F2BA4068002230
:107110000221FFF7F5BA002340681A46FFF7E0BAEC
:10712000024B03225A60024A1A607047F0E50320BE
:10713000E4B30D007047F8B5064615460C468F18A7
:10714000BC4206D0336814F8011B9B683046984750
:10715000F6E72846F8BD007C0022FFF7EDB8007C7A
:107160000021FFF7F1B8007C0021FFF7F5B8007CA3
:107170000021FFF7F9B8007C0021FFF7FDB810B53A
:107180001421044601F047F8204610BD10B54FF415
:107190007A73044608460021C4E90113034B2360B7
:1071A00020741146FFF7F8F8204610BD18B40D0002
:1071B0000023007C1A461946FFF7A6B87FB50022C7
:1071C0001423CDE90122ADF804300B788DF8083096
:1071D0004B680393CB680493007C0B7A059301A959
:1071E000FFF7F2F807B05DF804FB1FB5003B8DF820
:1071F00000104FF06401039118BF0123694601920A
:107200008DF80830FFF7DAFF05B05DF804FB0123C5
:10721000FFF7EBBF007C0022FFF77EB87FB50023AD
:10722000CDE901334A6803921423CA68ADF80430EB
:107230000B7804920A7A0592007C8DF8083001AA36
:107240001946FFF769F807B05DF804FB007C0022DF
:10725000FFF76AB80121FFF7F9BF007C0021FFF7B3
:1072600093B808B50021007CFFF79EF8B0FA80F0D3
:10727000400908BD08B50021007CFFF79DF8B0FA71
:1072800080F0400908BD704710B51821044600F091
:10729000C2FF204610BDF0B5037D062B8DB00E4613
:1072A00000F104074FF0000412D000F1080515F8B2
:1072B000011D0A22304600F0F9F9AF42044419D00A
:1072C000002CF4D02E21304600F0D7F90444EEE72C
:1072D0002F236A4639460A208DF80040FFF77CF8D4
:1072E000684601F070FD33680246DB686946304647
:1072F0009847044620460DB0F0BD000010B5054B80
:107300000446112240F8043B002101F001FD204613
:1073100010BD00BF40B40D000346074A10B543F846
:10732000042B01F1100251F8044B43F8044B914235
:10733000F9D10A781A7010BD40B40D0010B59DF84F
:10734000084044EA032343EA024242EA016104237B
:107350004160037510BD13B5CB7800938B784A78E4
:107360000978FFF7EBFF02B010BD0000014B024AA5
:107370001A607047F8E503204CB40D000023406804
:107380001A46FFF7ADB9406800220221FFF7B8B9ED
:10739000002240681146FFF7ABB900224068114651
:1073A000FFF7B6B9002340681A461946FFF7B8B987
:1073B000002340681A461946FFF7BAB94068002210
:1073C00081F00101FFF7BCB940680022FFF7C8B99E
:1073D000002240681146FFF7CBB9002240681146F1
:1073E000FFF7B6B92DE9F043002495B016460D46D7
:1073F0000746FFF783FF214618220EA8009401F0EC
:1074000087FC4023CDE90C3421466B460CAA30465C
:10741000FEF7F2FF0446002846D1024601216868C3
:10742000FFF776F90221804622466868FFF770F977
:10743000009E81462146002E36D0002934D1736843
:10744000022B03D00A2B0BD0F669F4E7B8F1000F3A
:1074500004D0716938460431FFF77DFF4146F3E7F8
:10746000B9F1000F01D14946EEE77469102201A875
:1074700001F04EFC06238DF8143001AD04F1080331
:107480001834186859682A4603C20833A3421546BF
:10749000F7D101A906A807ADFFF73EFF0FCD3C1DB0
:1074A0000FC42B682370DEE70098FEF79DFF384677
:1074B00015B0BDE8F0830000024B034A1A600022B9
:1074C0005A607047FCE5032058B40D0008B500F081
:1074D00075FEBDE80840FFF7C4BE10B50446017054
:1074E00009B1FFF7F3FF204610BD08B500F066FEB6
:1074F000BDE80840FFF7BEBE10B5037804460BB1E7
:10750000FFF7F3FF204610BD10B504460068FFF7F3
:10751000ECFF204610BD30B587B00D460190FFF757
:10752000D5FF6B238DF808300023012403930A2331
:1075300005938DF8104000F041FE02A9FFF76EFEA2
:1075400000F03CFE036829469B68984700F036FE31
:107550002146FFF77BFE039400F030FE02A9FFF7FF
:107560002DFE00F02BFE03685B699847044601A8D6
:10757000FFF7CAFFE0B207B030BD70B586B0144661
:107580000D460190FFF7A2FF6B238DF80830002312
:10759000039301260A2305938DF8106000F00EFE78
:1075A00002A9FFF73BFE00F009FE036829469B682D
:1075B000984700F003FE036821469B68984700F057
:1075C000FDFD3146FFF742FE01A8FFF79DFF06B023
:1075D00070BD13B504460190FFF778FF01212046E6
:1075E000FFF799FF00F0CF0040F010020121204684
:1075F000FFF7C3FF01A8FFF787FF012002B010BD0E
:1076000013B504460190FFF761FF01212046FFF703
:1076100082FF012100F0CF022046FFF7AEFF01A854
:10762000FFF772FF012002B010BDF8B506460D4607
:107630008F180024BD420CD0336815F8011B9B68DD
:1076400030469847031E01DB1C44F3E7002C08BFBB
:107650001C462046F8BD13B50446084659B10191B1
:1076600001F0B1FB23680199DB680246204602B0B5
:10767000BDE81040184702B010BD03689B6818476A
:1076800038B50D210546FFF7F8FF0A2104462846C4
:10769000FFF7F3FF204438BD38B50546FFF7DBFFA1
:1076A00004462846FFF7ECFF204438BD30B58BB0C8
:1076B00000238DF82430012A98BF0A2209AC0D4618
:1076C000B1FBF2F101FB125303F0FF03092B94BF4E
:1076D00030333733DBB2AA4204F8013DEFD92146FB
:1076E000FFF7B9FF0BB030BD10B50446FCF75AFDEB
:1076F000204610BD0348044A04490023836000F07B
:1077000085BD00BF04E6032028E40320E9760D00D0
:1077100010B5044608462170FEF776FE002363602C
:10772000204610BD10B504460068FFF731F820462A
:1077300010BD10B50446006808B1FFF729F8002312
:10774000C4E90133236010BD38B504460D46006816
:107750000131FFF725F810B1C4E90005012038BD5B
:1077600010B50368044623B143688B4201D301205E
:1077700010BD2046FFF7E8FF0028F9D0A368002BD2
:10778000F5D122681370F2E737B50D461146019224
:107790000446FFF7E5FF019A28B92046FFF7C9FF25
:1077A000204603B030BDA2602946206801F0A2FA4D
:1077B0002268A3680021D154F2E7002313B5C0E981
:1077C000003304468360037341B10846019101F020
:1077D000FAFA019902462046FFF7D6FF204602B08A
:1077E00010BD884210B5044605D00B682BB18A68DD
:1077F0001946FFF7C9FF204610BDFFF79AFFFAE7C9
:1078000010B500230446C0E9003383600373FFF71B
:10781000E8FF204610BD08B582683AB921B1087862
:10782000B0FA80F0400900E0012008BD006809B905
:107830000078F5E701F098FAF2E758B50E462AB15C
:1078400021B184689C4202D800230B7058BDE41A11
:10785000013A0168944228BF144619442246304632
:1078600001F0CBFA00233355F0E710B50446006869
:1078700018B1FEF78DFF0023236010BD38B5B1F9B4
:10788000043083800B460D4653F8062FC0F80620BF
:107890009B8843810446FFF7E8FF2B6813B1236000
:1078A00000232B60204638BDB1F904300A6810B5BA
:1078B00033B932B951F8063F03608B88838010BD1D
:1078C00022B19488012C03D0042C06D0042205E0B8
:1078D00092894A818C710B81ECE702220B814FF671
:1078E000FF738A714B81E5E738B50C460546FFF713
:1078F000BCFF44B12088FEF743FF286028B12288EE
:10790000214601F0F7F9002038BD0148FCE700BF2F
:10791000FCFEFFFF07B50B46002102460091012047
:107920008C21FEF773FE03B05DF804FB01460020D6
:10793000FFF7F0BF0020FFF7F9BF0000F0B52D4DB5
:107940000B7D04468BB00846AF1D002B38D00B686A
:107950001B79002B34D00022274B049302A904305A
:107960000292ADF80C208DF80E20FEF745FEDDF8F2
:107970000E30C5F8063000B2BDF81230ADF80C007C
:10798000A8800299BB802846FFF7AEFF02A8FFF748
:107990006CFF00232360A380A37123814FF6FF7344
:1079A0006381B5F90430A3803B68C4F80630BB8816
:1079B000296863812046FFF797FF20460BB0F0BD92
:1079C00000262023CDE902360C4B00930C493346A8
:1079D00002AA3220FEF7A0FD074B049302A94FF63E
:1079E000F263044802968DF80E60ADF80C30FFF794
:1079F00045FFCBE714E603200000FFFF8BB40D002A
:107A000084B40D0030B5044685B0084611461A46C8
:107A10000023FEF7ABFD0D4DADF80C00002301A9CE
:107A20000193ADF808308DF80A3028464FF6FF7301
:107A3000ADF80E30FFF722FF01A8FFF716FF204632
:107A40002946FFF731FF204605B030BD14E603207C
:107A500010B5094B094C022200201A60084B206027
:107A6000A080A071A360FEF771FD2046054A06497B
:107A7000BDE8104000F0CABB20E6032014E6032056
:107A80000000FFFF28E4032095410D002DE9F0419F
:107A9000154ADFF86080D2E90032C01842EB0101DC
:107AA000124AD2E90032C61841EB0207D8E9002396
:107AB000BB4208BFB2428CB013D003A96846CDE9DF
:107AC0000067FEF79DFE089B094D03F26C7303AC43
:107AD00008930FCC0FC50FCC0FC5C8E9006723680A
:107AE0002B600CB0BDE8F08158E6032050E603207F
:107AF00028E6032060E6032008B50020FEF7D8FD45
:107B000028B1FEF7ADFD80F00100C0B208BD012034
:107B1000FCE70000FAEE087AB4EEE70AF1EE10FA9C
:107B200008B511D4F2EE0C7AB4EEE70AF1EE10FAD1
:107B30000ADCDFED067A60EE277A17EE900A01F094
:107B40004FF8034BC3E9000108BD00BF00006145C9
:107B500058E6032030B504461848D0E90010521802
:107B600040EB03031648D0E90010521893B040EBE5
:107B70000303CDE9002324220DEB0200002101F0D4
:107B8000C7F8002509A96846FEF73AFE16222946DD
:107B900003A8029501F0BCF802A909A801F072F847
:107BA00002A801F010F912AB184402A900F8415CD8
:107BB0002046FFF702FE204613B030BD58E60320F2
:107BC00050E6032010B50020FEF74EFB0446A0B996
:107BD000FEF7B4FC012810D12046FEF7E7FC60B99F
:107BE000FFF78AFF10B9FEF72BFDF9E7FFF784FFD7
:107BF000BDE810400020FEF737BB204610BD1FB582
:107C0000FFF7E0FF10220021684601F081F8002113
:107C10006846FEF739FB009805B05DF804FB0000EC
:107C200008B5FFF7ECFFC117FFF730FF014B98686D
:107C300008BD00BF28E6032008B5FFF7E0FFC11725
:107C4000FFF724FF014B586808BD00BF28E603205A
:107C5000024B1A68024B1A60704700BF50E20320C3
:107C600024E6032070474174704708B5007CFEF796
:107C700013FC20EAE07008BD08B5007CFEF7E4FBC9
:107C800020EAE07008BD08B5007CFEF7EDFB40EA95
:107C9000E07008BD08B5007CFEF7DEFB40EAE0704E
:107CA00008BD007CFEF7E8BB37B5457C04462DB126
:107CB000207C03B0BDE83040FEF7BEBB007C0191E4
:107CC000FEF7EAFB00280199F2DC284603B030BD3C
:107CD00010B51421044600F09EFA204610BD0000A5
:107CE00010B54FF0000C0446084611464FF47A7266
:107CF000C4E901C2044A22600122207462741A4657
:107D0000FEF792FB204610BDD8B40D0013B50E4C03
:107D10002178BFF35B8F11F0010112D12046019150
:107D2000FCF7BFF9019960B1084A094B0948FFF710
:107D3000D7FF2046FCF7BAF9074A0849054800F082
:107D400065FA044802B010BD68E603206CE6032023
:107D5000F0E6032074E7032028E40320657C0D008F
:107D600041747047704708B50021007CFEF7B4FBF2
:107D700040EAE07008BD08B50121007CFEF7ACFBCD
:107D800040EAE07008BD08B5007CFEF79DFB20EAE4
:107D9000E07008BD08B5007CFEF78EFB20EAE070BD
:107DA00008BD13B50446007C0191FEF78DFB002849
:107DB000019901DC607C20B1207CFEF795FB20EA74
:107DC000E07002B010BD007CFEF796BB10B5142128
:107DD000044600F020FA204610BD000010B54FF414
:107DE0007A73044608460021C4E90113044B23605A
:107DF0000123207463741146FEF756FB204610BD24
:107E000008B50D0010B514220446002100F080FFD3
:107E1000204610BD10B5104C88B003A8FFF7F2FF44
:107E20002178BFF35B8F11F0010111D12046019140
:107E3000FCF737F9019958B103AA0848FFF7CEFFBC
:107E40002046FCF733F9064A0649044800F0DEF9FB
:107E5000024808B010BD00BF88E703208CE703206C
:107E600028E40320657D0D00014B1860704700BFBA
:107E700054E2032008B50B4B43B1FFF7CBFF036877
:107E80001B699847002801DDAFF30080064B43B122
:107E9000FFF73CFF03681B699847002801DDAFF33B
:107EA000008008BD000000000000000008B5FFF7DA
:107EB000E1FFFEF7B1F9014B186008BDB4E70320FC
:107EC0000248034A0349121A00F014BF00F40320C9
:107ED00004F4032020B80D0007B5002300931A46D0
:107EE0006FF07701FEF774FB03B05DF804FB000050
:107EF00007B543880A2B08D0502B0BD1094B1B68C0
:107F00004BB103B05DF804EB1847FFF7E5FF03B092
:107F10005DF804FB002300931A466FF07701FEF72B
:107F200057FBF4E7A4E7032038B5124C1248134D71
:107F30000021FEF75DFC2368AB42114B0CBF012210
:107F400000221A7002D0FFF7BBFF2560FEF754F93C
:107F5000044600F0E5FE0B4B13B12046AFF3008062
:107F600000210848FEF7ACFBBDE838400648002178
:107F7000FEF724BB00F40320697E0D001E1C279A27
:107F8000A0E7032000000000F17E0D0008B5024BC1
:107F90001B681B68019308BD5C02030008B5024B17
:107FA0001B685B68019308BD5C02030008B5024BC7
:107FB0001B689B68019308BD5C020300232813B56E
:107FC00002D9002002B010BDA0F10B03022B1AD879
:107FD000174C2178BFF35B8F11F001010BD12046C4
:107FE0000191FCF75EF8019928B11248FFF790FB68
:107FF0002046FCF75BF80F4B1878FEF70DFA0028C7
:10800000DFD10120DEE7012809D800F0AFF8002118
:10801000007CFEF7B9F980F00100C0B2D2E7093860
:108020000128EED8FFF772FE007CFEF72DFAF2E78A
:10803000A8E70320ACE70320232838B504460D4603
:108040000AD8FF2908D0FFF7B9FF28B129462046F2
:10805000BDE83840FEF730B938BD38B504460D46A6
:10806000FEF732F9FF2810D0062804D84D2323FA52
:1080700000F0C30709D42046FFF7A0FF28B1294626
:108080002046BDE83840FEF727B938BD10B5044694
:10809000FEF71AF9031FDBB2012B08D92046FFF7C0
:1080A0008DFF20B12046BDE81040FEF71DB900202D
:1080B00010BD0D2810B504469CBF0E34A4B2204656
:1080C000FFF77CFF50B103212046FEF7EDF80328AF
:1080D00004D12046BDE81040FEF70EB9002010BDC7
:1080E00010B5084C2378BFF35B8FDB0708D420461C
:1080F000FBF7D7FF20B1FEF797F82046FBF7D6FF36
:10810000014810BDB8E70320BCE7032038B50023C1
:1081100020254380142304460380856005610649B9
:10812000284600F07CF804496060284600F077F8A3
:10813000E060204638BD00BF30B50D0038B50023E3
:108140002025438014230446038085600561064989
:10815000284600F064F804496060284600F05FF8A3
:10816000E060204638BD00BF30B50D0030B50F4D82
:108170002978BFF35B8F11F0010487B013D1284633
:10818000FBF78FFF78B101A8FFF7C0FF01AA2146D6
:108190000748FEF7FBFF2846FBF788FF054A06491C
:1081A000034800F033F8024807B030BDC0E70320B1
:1081B000C8E7032028E4032035710D0010B50F4CEB
:1081C0002378BFF35B8FDB0786B013D42046FBF721
:1081D00068FF78B101A8FFF7B1FF01AA01210848A3
:1081E000FEF7D4FF2046FBF761FF064A0649044824
:1081F00000F00CF8024806B010BD00BFC4E7032031
:10820000DCE7032028E4032035710D000B4601460E
:10821000184600F061BDFBF742BFFBF73CBFFBF720
:108220003CBF08B5FEF7D4FA81F0004102E000BF80
:1082300083F0004330B54FEA41044FEA430594EA26
:10824000050F08BF90EA020F1FBF54EA000C55EA61
:10825000020C7FEA645C7FEA655C00F0E2804FEA32
:108260005454D4EB5555B8BF6D420CDD2C4480EA14
:10827000020281EA030382EA000083EA010180EA44
:10828000020281EA0303362D88BF30BD11F0004F92
:108290004FEA01314FF4801C4CEA113102D04042C8
:1082A00061EB410113F0004F4FEA03334CEA133303
:1082B00002D0524263EB430394EA050F00F0A7801B
:1082C000A4F10104D5F1200E0DDB02FA0EFC22FA16
:1082D00005F2801841F1000103FA0EF2801843FA0A
:1082E00005F359410EE0A5F120050EF1200E012AFB
:1082F00003FA0EFC28BF4CF0020C43FA05F3C01839
:1083000051EBE37101F0004507D54FF0000EDCF1B1
:10831000000C7EEB00006EEB0101B1F5801F1BD35A
:10832000B1F5001F0CD349085FEA30004FEA3C0C5E
:1083300004F101044FEA445212F5800F80F09A8054
:10834000BCF1004F08BF5FEA500C50F1000041EB58
:10835000045141EA050130BD5FEA4C0C404141EB5C
:108360000101013C28BFB1F5801FE9D291F0000F57
:1083700004BF01460020B1FA81F308BF2033A3F106
:108380000B03B3F120020CDA0C3208DD02F1140CFD
:10839000C2F10C0201FA0CF021FA02F10CE002F138
:1083A0001402D8BFC2F1200C01FA02F120FA0CFC31
:1083B000DCBF41EA0C019040E41AA2BF01EB04517A
:1083C000294330BD6FEA04041F3C1CDA0C340EDC78
:1083D00004F11404C4F1200220FA04F001FA02F3BB
:1083E00040EA030021FA04F345EA030130BDC4F179
:1083F0000C04C4F1200220FA02F001FA04F340EA6E
:108400000300294630BD21FA04F0294630BD94F01E
:10841000000F83F4801306BF81F480110134013D05
:108420004EE77FEA645C18BF7FEA655C29D094EA76
:10843000050F08BF90EA020F05D054EA000C04BFF4
:108440001946104630BD91EA030F1EBF00210020DF
:1084500030BD5FEA545C05D14000494128BF41F07E
:10846000004130BD14F580043CBF01F5801130BDE2
:1084700001F0004545F0FE4141F470014FF000006D
:1084800030BD7FEA645C1ABF194610467FEA655C1E
:108490001CBF0B46024650EA013406BF52EA0335C0
:1084A00091EA030F41F4002130BD00BF90F0000FAE
:1084B00004BF0021704730B54FF4806404F13204EA
:1084C0004FF000054FF0000150E700BF90F0000FA3
:1084D00004BF0021704730B54FF4806404F13204CA
:1084E00010F0004548BF40424FF000013EE700BF9A
:1084F00042004FEAE2014FEA31014FEA02701FBF2A
:1085000012F07F4393F07F4F81F06051704732F05B
:108510007F4208BF704793F07F4F04BF41F40021B2
:10852000704730B54FF4607401F0004521F0004110
:108530001CE700BF50EA010208BF704730B54FF09A
:1085400000050AE050EA010208BF704730B511F09B
:10855000004502D5404261EB41014FF4806404F1D3
:1085600032045FEA915C3FF4D8AE4FF003025FEA59
:10857000DC0C18BF03325FEADC0C18BF033202EBDD
:10858000DC02C2F1200300FA03FC20FA02F001FA37
:1085900003FE40EA0E0021FA02F11444BDE600BFDA
:1085A00070B54FF0FF0C4CF4E06C1CEA11541DBF89
:1085B0001CEA135594EA0C0F95EA0C0F00F0DEF854
:1085C0002C4481EA030621EA4C5123EA4C5350EA39
:1085D000013518BF52EA033541F4801143F480138A
:1085E00038D0A0FB02CE4FF00005E1FB02E506F01B
:1085F0000042E0FB03E54FF00006E1FB03569CF070
:10860000000F18BF4EF0010EA4F1FF04B6F5007F75
:1086100064F5407404D25FEA4E0E6D4146EB0606E7
:1086200042EAC62141EA55514FEAC52040EA5E5070
:108630004FEACE2EB4F1FD0C88BFBCF5E06F1ED81A
:10864000BEF1004F08BF5FEA500E50F1000041EB51
:10865000045170BD06F0004646EA010140EA0200FE
:1086600081EA0301B4EB5C04C2BFD4EB0C0541EA20
:10867000045170BD41F480114FF0000E013C00F335
:10868000AB8014F1360FDEBF002001F0004170BD59
:10869000C4F10004203C35DA0C341BDC04F1140472
:1086A000C4F1200500FA05F320FA04F001FA05F2FE
:1086B00040EA020001F0004221F0004110EBD370CB
:1086C00021FA04F642EB06015EEA430E08BF20EAF7
:1086D000D37070BDC4F10C04C4F1200500FA04F39A
:1086E00020FA05F001FA04F240EA020001F000412C
:1086F00010EBD37041F100015EEA430E08BF20EA9F
:10870000D37070BDC4F1200500FA05F24EEA020EE6
:1087100020FA04F301FA05F243EA020321FA04F015
:1087200001F0004121FA04F220EA020000EBD370CC
:108730005EEA430E08BF20EAD37070BD94F0000FCC
:108740000FD101F00046400041EB010111F4801F00
:1087500008BF013CF7D041EA060195F0000F18BFB1
:10876000704703F00046520043EB030313F4801FED
:1087700008BF013DF7D043EA0603704794EA0C0FA7
:108780000CEA135518BF95EA0C0F0CD050EA4106BD
:1087900018BF52EA4306D1D181EA030101F000413A
:1087A0004FF0000070BD50EA410606BF1046194662
:1087B00052EA430619D094EA0C0F02D150EA01366E
:1087C00013D195EA0C0F05D152EA03361CBF1046AF
:1087D00019460AD181EA030101F0004141F0FE414E
:1087E00041F470014FF0000070BD41F0FE4141F4D2
:1087F000780170BD70B54FF0FF0C4CF4E06C1CEAD2
:1088000011541DBF1CEA135594EA0C0F95EA0C0F86
:1088100000F0A7F8A4EB050481EA030E52EA033541
:108820004FEA013100F088804FEA03334FF0805562
:1088300045EA131343EA12634FEA022245EA11158F
:1088400045EA10654FEA00260EF000419D4208BF40
:10885000964244F1FD0404F5407402D25B084FEAED
:108860003202B61A65EB03055B084FEA32024FF499
:1088700080104FF4002CB6EB020E75EB030E22BFF6
:10888000B61A754640EA0C005B084FEA3202B6EBB6
:10889000020E75EB030E22BFB61A754640EA5C0065
:1088A0005B084FEA3202B6EB020E75EB030E22BFF5
:1088B000B61A754640EA9C005B084FEA3202B6EBF6
:1088C000020E75EB030E22BFB61A754640EADC00B5
:1088D00055EA060E18D04FEA051545EA16754FEA17
:1088E00006164FEAC30343EA52734FEAC2025FEA35
:1088F0001C1CC0D111F4801F0BD141EA00014FF0C4
:1089000000004FF0004CB6E711F4801F04BF014394
:108910000020B4F1FD0C88BFBCF5E06F3FF6AFAEB0
:10892000B5EB030C04BFB6EB020C5FEA500C50F140
:10893000000041EB045170BD0EF0004E4EEA1131C3
:1089400014EB5C04C2BFD4EB0C0541EA045170BDCA
:1089500041F480114FF0000E013C90E645EA060E0E
:108960008DE60CEA135594EA0C0F08BF95EA0C0F3C
:108970003FF43BAF94EA0C0F0AD150EA01347FF484
:1089800034AF95EA0C0F7FF425AF104619462CE75B
:1089900095EA0C0F06D152EA03353FF4FDAE1046BE
:1089A000194622E750EA410618BF52EA43067FF40F
:1089B000C5AE50EA41047FF40DAF52EA43057FF49F
:1089C000EBAE12E74FF0FF3C06E000BF4FF0010CAA
:1089D00002E000BF4FF0010C4DF804CD4FEA410C0E
:1089E0007FEA6C5C4FEA430C18BF7FEA6C5C1BD0DB
:1089F00001B050EA410C0CBF52EA430C91EA030F5C
:108A000002BF90EA020F0020704710F1000F91EAB8
:108A1000030F58BF994208BF90422CBFD8176FEA86
:108A2000E37040F0010070474FEA410C7FEA6C5C54
:108A300002D150EA013C07D14FEA430C7FEA6C5C5B
:108A4000D6D152EA033CD3D05DF8040B704700BF87
:108A50008446104662468C461946634600E000BFD5
:108A600001B5FFF7B7FF002848BF10F1000F01BDA7
:108A70004DF808EDFFF7F4FF0CBF012000205DF872
:108A800008FB00BF4DF808EDFFF7EAFF34BF0120F7
:108A900000205DF808FB00BF4DF808EDFFF7E0FF90
:108AA00094BF012000205DF808FB00BF4DF808EDE1
:108AB000FFF7CEFF94BF012000205DF808FB00BF48
:108AC0004DF808EDFFF7C4FF34BF012000205DF82A
:108AD00008FB00BF4FEA410C7FEA6C5C02D150EA10
:108AE000013C0AD14FEA430C7FEA6C5C02D152EAA6
:108AF000033C02D14FF0000070474FF00100704777
:108B00004A0011D212F5001211D20DD56FF478730C
:108B1000B3EB62520ED44FEAC12343F0004343EA61
:108B2000505323FA02F070474FF00000704750EAAC
:108B3000013002D14FF0FF3070474FF00000704716
:108B40004FEA4102B2F1E04324BFB3F5001CDCF16F
:108B5000FE5C0DD901F0004C4FEAC0024CEA5070A7
:108B6000B2F1004F40EB830008BF20F001007047D6
:108B700011F0804F21D113F13872BCBF01F00040D9
:108B8000704741F480114FEA5252C2F11802C2F10B
:108B9000200C10FA0CF320FA02F018BF40F001008C
:108BA0004FEAC1234FEAD32303FA0CFC40EA0C003E
:108BB00023FA02F34FEA4303CCE77FEA625307D17B
:108BC00050EA01331EBF4FF0FE4040F440007047B2
:108BD00001F0004040F0FE4040F40000704700BF4C
:108BE00007EE900AF5EEC07AF1EE10FA01D400F02B
:108BF0000BB8F1EE677A08B517EE900A00F004F8AA
:108C0000404261EB410108BDD0B5FFF771FC0C4B50
:108C1000002206460F46FFF7C3FCFFF771FF04462C
:108C2000FFF744FC074B0022FFF7BAFC02460B4655
:108C300030463946FFF7FCFAFFF762FF2146D0BD08
:108C40000000F03D0000F041D0B50C4B002206467C
:108C50000F46FFF7A5FCFFF753FF0446FFF726FC7E
:108C6000074B0022FFF79CFC02460B463046394674
:108C7000FFF7DEFAFFF744FF2146D0BD0000F03DCC
:108C80000000F04110B50C4641690369826986B065
:108C900001F26C710491016803914168029181684D
:108CA0000191C1680091074903EB43030B44064956
:108CB00002EB42020A4420460449FDF779FD2046B2
:108CC00006B010BD66B50D0051B50D0031B50D00F3
:108CD0000A22002100F09EBF10B5054C13462CB1AE
:108CE0000A4601460220AFF3008010BD2046FCE793
:108CF000000000000A44914200F1FF3300D17047A8
:108D000010B511F8014B03F8014F9142F9D110BD94
:108D100002440346934200D1704703F8011BF9E770
:108D200038B50D4B1D68AB6B04467BB91820FDF7B9
:108D300027FD0A4A0A4BA863C0E90023094B836058
:108D40000B23838101220023C0E90423AB6B0022A3
:108D50001C615A6138BD00BF54E203200E33CDAB15
:108D600034126DE6ECDE050010F8012B11F8013B22
:108D7000012A28BF9A42F7D0D01A7047034611F84B
:108D8000012B03F8012B002AF9D17047024B014651
:108D9000186800F003B800BF54E2032037B504465A
:108DA00008460D4600F00FF8421C1146204601927D
:108DB000FDF716FD044618B1019A2946FFF79AFF00
:108DC000204603B030BD034613F8012B002AFBD127
:108DD000181A0138704710B56AB10139841810F8B3
:108DE000013B11F8012F934203D1A04201D0002B87
:108DF000F5D1981A10BD1046FCE710B501390346AD
:108E000032B111F8014F03F8014B013A002CF7D1B0
:108E10001A440021934200D110BD03F8011BF9E769
:108E200070B504460D4645EC104B164601F068FD42
:108E300051EC100B7EB1C5F30A53C3F16B03002B49
:108E400009DD1B0503F17F55002405F54015224679
:108E50002B46FFF7A5FB70BD2DE9F04FA3B01F46D1
:108E600000231E93A44B19921B68079304461846CF
:108E70008846FFF7A8FF4FF0000A05464FF0000BA9
:108E8000CDF874801D9B1A782B2A4CD039D80D2A26
:108E900032D8082A32D8002A3CD000230E931D9ED7
:108EA0003378302B40F0B480737803F0DF03582B15
:108EB0006CD10E9B01931EAB029700938F4A1FABA0
:108EC0001DA9204600F018FF10F00707054605D041
:108ED000062F2AD1013600231D960E93199B002BD5
:108EE00040F096850E9BDBB152460BF1004343ECFC
:108EF000102B23B0BDE8F08F202ACED101331D9373
:108F0000C0E72D2AC9D101220E925A1C1D925B780E
:108F1000002BC4D1199BCDF87480002B40F07685CE
:108F200052465B46E3E70022EEE71E9A3AB135214E
:108F300020A801F0E4FD1E99204601F019FA013F36
:108F4000052F07D8DFE807F00E0B181D0E034FF0B2
:108F5000000BDA462807C1D54BF0004BBEE7DDE930
:108F600020ABF7E7DDE920A31F9A23F4801302F278
:108F7000334243EA025BEDE7DFF884B14FF0000AC9
:108F8000E8E76FF0004B4FF0FF3AE3E71D9B5A1CF8
:108F90001D925B78302BF9D0002B9FD001234FF02E
:108FA000000904931D9B0A93CDF824904F460A2292
:108FB0001D980678A6F13003D9B209292AD9079954
:108FC0002A46FFF708FF98B3002033463D46079036
:108FD0000246652B01D0452B18D11DB9049B0343D4
:108FE00098D00025DDF8748008F101031D9398F8EE
:108FF00001302B2B75D02D2B7BD04FF0000CA3F123
:109000003001092940F28280CDF8748000269DE06D
:109010000023C4E7082FD8BF099900F10100DABF87
:1090200002FB0133099302FB093901371D90BFE7A9
:109030001D9B5A191D925B5D002F37D007903D464E
:10904000A3F13002092A12D90122C2E71D9B5A1C42
:109050001D925B780130302BF8D0A3F13102082A41
:1090600000F2DB841D9A079000200A920546303BEF
:1090700000F1010214D00799114407912A4600EB30
:10908000050E0A21724513D12A18082A05F1010597
:1090900005441CDC09990A2202FB013309930022D2
:1090A0001D9B591C1D915B781046C9E73846D2E7D5
:1090B000082A04DC099E4E4309960132E2E702F1D8
:1090C000010CBCF1100FD8BF01FB09F9F5E7102D19
:1090D000DCBF0A2202FB0939E1E7002307930122E2
:1090E0007CE74FF0000C08F102031D9398F8023062
:1090F00085E74FF0010CF6E7ECB60D0098B50D00D2
:109100000000F07F1D9B591C1D915B78302BF9D01E
:10911000A3F1310108293FF679AFA3F1300E1D9B71
:1091200008931D9B591C1D915B78A3F13006092EF5
:1091300037D9089E891B082944F61F6602DC76454C
:10914000A8BF7646BCF1000F00D07642002D4FD16B
:10915000049901437FF4C2AE002A7FF4DBAE692B91
:1091600027D024DC492B24D04E2B7FF4D3AE9E494C
:109170001DA801F007F800283FF4CCAE1D9B1B781A
:10918000282B2DD1994920AA1DA801F00FF80528F8
:1091900026D1219BDDF880A043F0FF4B4BF4E00B80
:1091A0009CE60A2101FB0E3EAEF1300EB9E76E2BB4
:1091B000DBE78F491DA800F0E5FF00283FF4AAAEC9
:1091C0001D9B8C49013B1DA81D9300F0DBFF10B9CE
:1091D0001D9B01331D93DFF82CB24FF0000A7DE692
:1091E000854801F0E1FC8DED040BDDE904AB75E68B
:1091F000079B0998F31A002F08BF2F46102D0893DC
:10920000A846A8BF4FF01008FFF750F9092D824675
:109210008B4613DD794B03EBC80353E91223FFF7A9
:10922000BFF9824648468B46FFF740F902460B4697
:1092300050465946FEF7FEFF82468B460F2D38DC1E
:10924000089B002B3FF44AAE24DD162B0BDC6B4D44
:1092500005EBC305D5E9000152465B46FFF7A0F9CF
:1092600082468B463AE6089AC5F12503934220DBF5
:10927000624CC5F10F0504EBC50152465B46D1E9CE
:109280000001FFF78DF9089B5D1B04EBC504D4E9D1
:109290000023E3E7089B16330BDB079B574A9E1B13
:1092A00002EBC606D6E9002350465946FFF7A2FA5C
:1092B000D6E7089BA5EB08089844B8F1000F71DDCC
:1092C00018F00F030AD04D4901EBC30152465B462B
:1092D000D1E90001FFF764F982468B4638F00F08A8
:1092E0004DD0B8F59A7F22DD00252E4609950795C9
:1092F0002223DFF810B123604FF0000A099B002BF6
:109300003FF4ECAD1E99204601F032F80799204653
:1093100001F02EF83146204601F02AF8099920463E
:1093200001F026F82946204601F022F8D6E5002370
:109330004FEA2818504659469946B8F1010F21DCEA
:109340000BB182468B462E4BABF1547B03EBC90924
:1093500052465B46D9E90001FFF722F9294B0A463C
:109360000B4029498B428246BED8A1F580118B4221
:1093700086BFDFF898B04FF0FF3A02F1547B00232C
:10938000049381E018F0010F07D01D4B03EBC903D4
:10939000D3E90023FFF704F9012309F101094FEA9A
:1093A0006808CAE7EBD0C8F1000818F00F020AD02D
:1093B000124B03EBC20350465946D3E90023FFF793
:1093C00019FA82468B465FEA2818D8D0B8F11F0FE9
:1093D0001EDD00252E460995079522234FF0000A31
:1093E0004FF0000B236089E793B50D00ACB50D007D
:1093F0008AB50D008DB50D00C2AC0D0028B70D006B
:1094000000B70D000000F07F0000A07CFFFFEF7FA1
:1094100018F0100318BF6A23DFF8B4930493504682
:109420005946002318F0010F04D0D9E90023FFF7B3
:10943000B7F801235FEA680809F10809F2D10BB116
:1094400082468B46049BBBB1CBF30A53C3F16B033B
:10945000002B594610DD1F2B40F32881342BDEBF33
:10946000203B4FF0FF3202FA03F34FF0000ACCBF6B
:109470004FF05C7B03EA010B002200235046594663
:10948000FFF7F6FA0028A4D1099B00930A992B460E
:109490003A46204600F0C1FF099000283FF424AF6F
:1094A000079B9E1B089B002BB4BF334600231093E1
:1094B000089B002523EAE37318932E46099B204658
:1094C000596800F021FF079000283FF411AF099B75
:1094D0001A69023203F10C0192000C30FFF70AFC0A
:1094E0004BEC10AB20AA1FA92046CDE90AAB01F036
:1094F00083FA1E9000283FF4FBAE0121204601F0C4
:109500001AF8064600283FF4F3AE1F9B0499002B7F
:10951000ABBF109A189A189FDDF84090ACBF03EBD0
:109520000209D71A209AA3EB01089044A34B08F133
:10953000FF389845C2F1360280F2CC80A3EB0803D5
:109540001F2BA2EB03024FF0010100F3B68001FADA
:1095500003F3119300230C9309EB0208049BC1450C
:1095600017441F444B46A8BF4346BB42A8BF3B46D7
:10957000002BC2BFA8EB0308FF1AA9EB0309109B3D
:10958000002B17DD31461A46204601F079F80646D1
:1095900000283FF4ADAE01461E9A204600F0D4FFED
:1095A0000F9000283FF4A4AE1E99204600F0E0FE84
:1095B0000F9B1E93B8F1000F00F39180089B002BC6
:1095C00008DD189A0799204601F05AF807900028FC
:1095D0003FF48EAE002F08DD07993A46204601F091
:1095E0009DF8079000283FF483AEB9F1000F08DD25
:1095F00031464A46204601F091F8064600283FF4DD
:1096000077AE079A1E99204601F003F90546002817
:109610003FF46EAEC3680F930023C360314601F080
:10962000DCF8002865DA0F9B53EA0A0340F08780D4
:10963000CBF31303002B40F082802BF000431B0D73
:109640001B05B3F1D66F7AD96B6913B92B69012B5E
:1096500075DD29460122204601F060F831460546B5
:1096600001F0BBF800286ADD0499554A5B460029E1
:1096700000F0858002EA0B01B1F1D66F7FDCB1F119
:109680005C7F7FF7AAAE4F4A0023CDE916325046E1
:10969000DDE916235946FEF783FF0B46034308BF57
:1096A000222382468B4608BF23602BE64FF0FF3211
:1096B00002FA03F303EA0A0ADEE6C8F17F4808F576
:1096C0007F0808F57B4808F1E20801FA08F30C93DB
:1096D000119141E700230C93012311933CE71E995C
:1096E0004246204601F01AF81E9000287FF466AF2B
:1096F000FEE55F466ED10F9ACBF3130342B3324AB5
:10970000934228D1049B5046EBB12D4A3A40B2F126
:10971000D46F4FF0FF3119D8120DC2F16B0301FA6B
:1097200003F3984217D1294B9F4202D101303FF4F5
:10973000DFAD234B3B4003F5801B4FF0000A049B39
:10974000002BA0D1DEE54FF0FF33EAE70B46E8E758
:1097500053EA0A0388D00C9BDBB13B42EFD00F9B4E
:10976000049A50465946C3B1FFF75AFB02460B46CE
:10977000DDE90A01FEF75EFD82468B46DFE7134016
:10978000A3F580136FEA135B6FEA0B5B4FF0FF3AB0
:10979000D5E7119B13EA0A0FE0E7FFF741FB02460A
:1097A0000B46DDE90A01FEF743FD00220023824655
:1097B0008B46FFF75DF90028C1D00EE602FCFFFFE3
:1097C0000000F07F00005039FFFF0F00FFFFEF7F28
:1097D000C0B50D003146284601F05EF959EC108BFA
:1097E00010EE100A00224FF080434946FFF754F96B
:1097F00000287CD00F9B002B4CD0954B0022CDE94C
:109800000C23DFF84C924FF00008924B3B40119331
:10981000119A914B9A4240F0B280DDE90A23DDE9CA
:109820000C01A7F1547B4BEC10ABCDE91623CDE92D
:109830000C0101F065F8DDE90C0153EC102BFEF78B
:10984000AFFE52465B46FEF7F5FC0B468149834A64
:109850001940914282465ED90B9B02F154729342A9
:1098600003D10A9B01333FF443ADDFF8FCB14FF065
:10987000FF3A1E99204600F07BFD0799204600F034
:1098800077FD3146204600F073FD2946204600F062
:109890006FFD13E6BAF1000F1BD1CBF31303F3B93D
:1098A0006B4B002240464946FFF7ECF8D0B94046E2
:1098B00049466B4B0022FEF773FE8046894609F14C
:1098C0000043CDF868801B93DDE91A23CDE90C2312
:1098D0009BE7BAF1010F02D1002F3FF47EAD614B3F
:1098E00000228CE7DFF878914FF00008E7E75C4B47
:1098F000404649460022FEF753FE0F9B80468946AC
:1099000033B901F1004312901393DDE91223DDE72F
:10991000CDE91289F9E703F1547B049B002BA8D110
:109920002BF00043119A1B0D1B059A42A1D1404612
:10993000494601F055F9FEF705FE02460B46404642
:109940004946FEF775FC0F9ACBF3130343EA0A036B
:1099500013438046894653D035A3D3E90023FFF74C
:1099600091F800287FF4CEAC33A3D3E9002340461E
:109970004946FFF7A5F800283FF47BAFC2E4049BFB
:1099800033B3119BB3F1D46F22D82DA3D3E90023B5
:1099900040464946FFF780F8A0B149464046FFF7E8
:1099A000AFF8012838BF0120FEF780FD0F9B8046ED
:1099B000894613BB01F1004314901593DDE914238C
:1099C000CDE90C230D9B119A03F1D6639B1A0D93DD
:1099D000DDE90C019DED0A0BCDE90C0100F090FFD3
:1099E000DDE90C0153EC102BFEF7DAFDDDE90A236B
:1099F000FEF720FC82468B468FE7CDE91489DDE730
:109A000011A3D3E90023FFF73DF8B4E700230E9339
:109A1000199A1D9B1360FFF765BA652B3FF45DAB88
:109A2000452B3FF45AAB0122FFF792BBAFF3008006
:109A30009535A094FFFFDF3F35E5AF350000E03FEF
:109A40000000C0FFFFFFDF419535A094FFFFCF3F2F
:109A50000000F03F0000F07F0000E07FFFFF9F7CF0
:109A60000000E03F0000F0BFFFFFEF7F2DE97043F3
:109A7000264E274B0A462DED028B01463068FFF734
:109A8000EBF955EC104B10EE102A10EE100A2B4695
:109A90002946FFF71FF890B1002D1E4809DA01F0A2
:109AA0008BF8B1EE408AB0EE480ABDEC028BBDE8FF
:109AB0007083BDEC028BBDE8704301F07DB8204699
:109AC0002946FFF73DF808EE100ADFED137AB0EEF5
:109AD000C87AB4EE677AF1EE10FAE4DD25F00049B9
