:02000002D0002C
:1040000000400D00CC960D00000006000D000501DB
:084010000401DC0500000000C2
:04401800708B0D009C
:1040200009480A49884208B505D0094A824202D0A7
:10403000121A04F0D9F80748074A0021121A04F0AE
:10404000DEF8014808BD00BF94E0032054950D0040
:10405000E0E10320E0E10320F0E7032070B503F086
:104060001BF9074C074BE41AA40800251E46A5427D
:1040700004D056F8253098470135F8E770BD00BFE9
:1040800048950D0008950D0000F048BF08B500F0F8
:104090001FFDBDE8084003F0C1B801F05BBD01F0B1
:1040A00061BD01F05FBD0078B0FA80F04009704753
:1040B000012303707047000008B5044902F003FEB5
:1040C00018B1034B03221A70012008BDE98F0D00BF
:1040D00021E2032010B50446006808B101F042FD5A
:1040E000204610BD37B59DF8184023438DF80030A9
:1040F0003C23054602F056F8284603B030BD0000C8
:1041000030B58FB0124904A801F0C2FD04A801F037
:1041100012FE044604A801F05FFE04A810EE105A37
:1041200001F040FE10EE100A03F09EFCCDE9020102
:10413000284603F099FCCDE90001064B064A53F8E6
:1041400024300648402101F025FD0FB030BD00BFEE
:104150002CE3032008E10320C88B0D007CE2032040
:1041600073B53E4D3E4C2B7B53B13E4801F0D4F924
:104170003C4884ED050A01F0DDF984ED060A02E011
:104180000023A36163616069354E03F06DFC364A1C
:10419000CDE900011021354801F0FCFCA06903F0D5
:1041A00063FC334ACDE900011021324801F0F2FCF2
:1041B000AB7B012B0CD1132003F013F96423009384
:1041C000002340F68A62194601F0FCFC306001E0F1
:1041D00000233360AB7B022B0CD1122003F001F9DA
:1041E00064230093002340F68A62194601F0EAFC3A
:1041F000606001E000236360EB7B012B0DD1112097
:1042000003F0EFF81E2300934FF4306200234FF4C5
:10421000D67101F0D7FCA06002E0104B0022DA73E7
:10422000154B00221146586801F05CFC08B1FFF7FD
:1042300067FF124802F0C2F9FDEEC07A104A114839
:10424000C5ED027A17EE903A102101F0A3FC0E4B57
:10425000012018700D4B187002B070BD08E30320E8
:10426000C4E2032034E20320E18B0D00E4E10320EB
:10427000E98B0D00E4E203202CE3032018E2032085
:10428000F28B0D00F4E2032032E2032004E303206A
:104290002DE9D0431A4800231A461946406801F018
:1042A00029FC01F0BFFB4FF4967440F2E73600277B
:1042B000002001F0DFF94FF000098046002001F0F6
:1042C000D9F9B0EB080061EB09018F4208BF8642C3
:1042D00005D301F0B7FB10B901F09CFBEEE701F04C
:1042E000B1FB18B1BDE8D04301F0ACBB01F08AF9D5
:1042F000044B186001F08EFB013CF3D0D8E700BFFF
:104300002CE30320D4E6032008B501F09BFB80F0EA
:104310000100C0B208BD0000F8B501F08BFB002021
:1043200001F0A8F90025044643F69726002700204F
:1043300001F0A0F9001B61EB05018F4208BF864226
:1043400005D3FFF7E1FF10B901F064FBEFE7FFF7DA
:10435000DBFF064800231A461946406801F0D2FBED
:104360004FF4FA6001F03AFC0120F8BD2CE3032081
:10437000154B1648597999B14FF46173038141F295
:10438000D833C3804FF48063438141F2700383814B
:10439000036843F4007343F001030360002111E05C
:1043A00040F2DC53038141F27003C3804FF4806319
:1043B000438141F210038381036843F4007343F0A7
:1043C0000103036001F00CBB08E3032040E203207B
:1043D00010B5074C01F016F92368C01AB0F57A7FC2
:1043E00004D301F00FF92060012010BD002010BDA2
:1043F000BCE2032008B5FFF7EBFF18B1BDE80840A9
:10440000FFF7E6BF01F006FBF5E7000037B501F066
:1044100011FB01F0F7F843F69725044601F012FB73
:1044200040B101F0EFF8001BA84203D8642001F06E
:10443000D5FBF3E70021094B47F23052084601F063
:1044400091F84FF47A7001F0C9FB054B0A221B6802
:104450000121684602F0A8FC03B030BDF88B0D00C6
:1044600064E2032038B5046805467CB16368013B0B
:1044700063605BB9236820469B689847A368013B4B
:10448000A3601BB923682046DB689847284638BDDF
:1044900010B51D4CCEB0E3690A931C4BA0699A6914
:1044A00009929B680893E3680793A368069363687F
:1044B00005932368049303F0D7FACDE902016069FC
:1044C00003F0D2FA124ACDE900014FF480710EA830
:1044D00001F060FB0F4B10491B7800228DF8002083
:1044E0000CA80EAAFFF7FEFD0DA8FFF7BBFF02F018
:1044F00053FD0A4B18700A4B01221A7001F082F822
:10450000084B18604EB010BDC4E2032008E303203E
:10451000058C0D00FCE10320A08C0D0060E203205F
:1045200004E10320F8E1032010B50B7894B00C46A9
:1045300023B91C4904A803F09DFE17E0084603F0C8
:1045400049FDC82804D0204603F044FDC9281ED1E7
:10455000154904A803F08EFE02F016FD134BD86136
:10456000134B01221A70134B00221A70FFF742FFFF
:10457000114B12491B7800228DF8002002A804AAD2
:10458000FFF7B0FD03A8FFF76DFF14B010BD204684
:1045900003F020FD0A4A0346402104A801F0FAFA7C
:1045A000E4E700BFB98C0D00CE8C0D0008E30320BA
:1045B00004E3032004E10320FCE10320C18C0D008F
:1045C000E08C0D0030B5184985B0044602F07BFB45
:1045D000054668B1154B01245C71154B1C70FFF743
:1045E000C7FE144B00221B788DF80020124A10E001
:1045F0001249204602F067FB98B10C4B5D710C4BE1
:1046000001241C70FFF7B4FE0A4B0D4A1B788DF88D
:1046100000500C4902A8FFF765FD03A8FFF722FF31
:10462000204605B030BD00BFE98F0D0008E3032030
:1046300004E30320FCE10320FD8C0D00148D0D002C
:10464000168D0D002C8D0D007FB51E49044602F01D
:104650003AFB064658B11C4B00229A731B4B0124AF
:104660001C701B4B1B788DF800201A4A20E01A4959
:10467000204602F028FB054650B1134B174A01248F
:104680009C73124B1C70124B1B788DF800600FE06E
:104690001349204602F017FB90B10B4B02229A738C
:1046A0000A4B104A01241C70094B1B788DF80050EE
:1046B0000D4902A8FFF716FD03A8FFF7D3FE204619
:1046C00004B070BD148D0D0008E3032004E3032043
:1046D000FCE10320318D0D00E98F0D00418D0D00AF
:1046E0005E8F0D00518D0D002C8D0D0030B51649DB
:1046F00085B0044602F0E7FA054658B1134B002294
:10470000DA73134B01241C70124B1B788DF80020B8
:10471000114A0EE01149204602F0D5FA88B10B4B40
:104720000F4A0124DC730A4B1C700A4B1B788DF86E
:1047300000500C4902A8FFF7D5FC03A8FFF792FE32
:10474000204605B030BD00BF148D0D0008E30320E6
:1047500004E30320FCE10320628D0D00E98F0D00CE
:10476000758D0D002C8D0D001FB51B49044602F000
:10477000AAFA78B91949204602F0A5FA50B91849A1
:10478000204602F0A0FA88B91649204602F09BFAAA
:1047900060B91EE0144B00225A74144B01241C70A3
:1047A000134B1B788DF80020124A0AE00E4B0124AF
:1047B0005C740E4B1C700E4B00221B788DF8002091
:1047C0000D4A0E4902A8FFF78DFC03A8FFF74AFE29
:1047D000204604B010BD00BF898D0D008D8D0D00E9
:1047E000948D0D00918D0D0008E3032004E3032058
:1047F000FCE10320978D0D009A8D0D002C8D0D008E
:1048000030B5164985B0044602F05DFA054658B148
:10481000134B01241C71134B1C70134B00221B788B
:104820008DF80020114A0EE01149204602F04BFAA3
:1048300088B10B4B0F4A1D710A4B01241C700A4BA7
:104840001B788DF800500C4902A8FFF74BFC03A819
:10485000FFF708FE204605B030BD00BFE98F0D0010
:1048600008E3032004E30320FCE10320AC8D0D00EA
:10487000148D0D00BD8D0D002C8D0D0030B5274918
:1048800085B0044602F01FFA28B92549204602F0F7
:104890001AFA00283FD02149204602F014FA0546B2
:1048A00040B1204B1A791C4612B101F0CBF898B9EF
:1048B00001230CE01A49204602F005FA40B1194BD9
:1048C0001A791C4612B101F0BDF8A8B90023A371F2
:1048D000154B012018701EE0FFF78CFD134B144997
:1048E0001B7800228DF8002002A8124AFFF7FAFB7D
:1048F00003A8FFF7B7FDDBE7FFF77CFD0B4B0E4A84
:104900001B780B498DF8005002A8FFF7EBFB03A8BA
:10491000FFF7A8FDDAE705B030BD00BFE98F0D0055
:10492000148D0D0008E3032004E30320FCE10320C1
:104930002C8D0D00D28D0D00DC8D0D0030B5214980
:1049400085B0054602F0BFF90446B0B1012102204E
:1049500002F01BFD0021032002F017FD1A4B5869DD
:1049600001F03CF90121032002F00FFD174B00225A
:104970001B788DF80020164A19E01649284602F0E7
:10498000A2F9E0B12146022002F0FFFC21460320FB
:1049900002F0FBFC0C4B586901F020F901210320C7
:1049A00002F0F3FC094B0C4A1B788DF800400B49D0
:1049B00002A8FFF797FB03A8FFF754FD012005B0FD
:1049C00030BD00BFEE8D0D0008E30320FCE10320A5
:1049D000F18D0D00098E0D000D8E0D00008E0D0065
:1049E00030B587B00A2203A9006803F01DFD41F22B
:1049F0008832904203461FD8124D134A6861012441
:104A000014701021114A124801F0C4F82B79ABB18F
:104A100001F018F890B1FFF7EDFC0E4B0E491B7832
:104A200000228DF8002004A8094AFFF75BFB05A8C7
:104A3000FFF718FD204602E0002000E0012007B04B
:104A400030BD00BF08E3032004E303201D8E0D00EA
:104A500022E20320FCE103209C8F0D0030B5164DAF
:104A6000164C17492A7820788FB00E2303FB0212C8
:104A7000009203FB0013134A282104A801F08AF8CE
:104A80002B78237000F0DEFF70B1FFF7B3FC0E4B04
:104A90000E491B7800228DF8002002A804AAFFF717
:104AA00021FB03A8FFF7DEFC02F074FB04A902F06F
:104AB0002AF80FB030BD00BF21E2032020E203201E
:104AC00094E00320258E0D00FCE10320338E0D00C1
:104AD00070B5904C2378013B88B0072B00F2F98128
:104AE000DFE813F0820108004400740076009700AC
:104AF000C8004001884D2B792BB1884B1B78022BC5
:104B000001D0FFF7ABFF864E337843B102F080FC53
:104B100020228149012000F09DFD00233370814E49
:104B2000337843B102F074FC20227F49502000F01A
:104B300091FD00233370AB7943B100F063FD7B4BF3
:104B40001B68C01A7A4B984200F2C08102F024FA26
:104B5000784BAA681B7898421CBF03232370764BBE
:104B60001B689A4200F3B58108232DE06A4D2B792A
:104B70002BB16A4B1B78032B01D0FFF76FFFFFF7B8
:104B8000EFFA0646E8B90123237000F03BFD6B4BBA
:104B900018602B79002B00F09C8100F053FF002857
:104BA00000F09781FFF726FC654B664A1B78664943
:104BB0008DF8006006A8FFF795FA07A8FFF752FCEA
:104BC00087E16B7C13B10423237082E10523FBE7AB
:104BD000514B1B792BB1514B1B78052B01D0FFF7A3
:104BE0003DFF00F02FFF68B102F0D6F90C2805D187
:104BF00000F028FF10B1002000F044FFFFF748FC50
:104C00000623E1E7FFF744FB002840F0628101231F
:104C1000DAE7414B1B792BB1404B1B78062B01D0B7
:104C2000FFF71CFF494B1B7823B900F0EBFC3F4B0F
:104C300018606DE000F0E6FC454B1B68C01A4AF6B0
:104C4000C873984240F2458100F0DCFC3B4B186091
:104C500000F0F8FE0028DAD0394B3E491B780022DC
:104C60008DF8002006A83C4AFFF73CFA07A8FFF79A
:104C7000F9FBCCE7284B1A791D462AB1274B1B7844
:104C8000072B01D0FFF7EAFE00F0DCFEB0B12B7974
:104C900073B1FFF7AFFB2A4B2B491B7800228DF82D
:104CA000002006A82D4AFFF71DFA07A8FFF7DAFB38
:104CB0004FF47A7000F092FFFFF72EFB00210720DF
:104CC00002F063FB00210E2002F05FFB02F06EF9A0
:104CD000234B1A680423ADF8143008AB002103F805
:104CE0000E1DC0F13C0002923C2201255043019070
:104CF0002A4605A906A8009502F094F8294607203F
:104D000002F043FB29460E2002F03FFBFFF7C0FAFA
:104D1000022359E721E2032008E3032020E20320D5
:104D200004E3032032E20320C4E2032078E20320FC
:104D3000905F010060E20320F4E10320C0E2032061
:104D4000FCE10320D68E0D006C8E0D0004E10320E3
:104D5000F8E10320448E0D00048C0D005D8E0D00E3
:104D600064E203205C4B1A791D462AB15B4B1B7829
:104D7000082B01D0FFF772FE00F064FEB0B12B7972
:104D800073B1FFF737FB564B56491B7800228DF85D
:104D9000002006A8544AFFF7A5F907A8FFF762FB11
:104DA0004FF47A7000F01AFFFFF7B6FA00210720DF
:104DB00002F0EBFA02F0FAF84C4B1A680423ADF853
:104DC000163008AB022503F80D5DC0F13C000292DD
:104DD0003C2250430122019000920DF1160106A8D9
:104DE00002F020F8257074E03B4C23792BB13B4B4B
:104DF0001B78012B01D0FFF731FE00F003FC3C4B88
:104E00001B6803F5EA433033984262D9A369032B48
:104E100014DC00F017FE60B1314B32491B780022E0
:104E20008DF8002006A8334AFFF75CF907A8FFF7C2
:104E300019FB4FF4FA6000F0D1FE24E002F0A4F870
:104E4000254BDB69C01AB0F5E15F1FD900F0FAFD10
:104E500060B1234B23491B7800228DF8002006A85F
:104E6000254AFFF73FF907A8FFF7FCFA4FF4FA606D
:104E700000F0B4FE0023A36102F0CAFA2022164912
:104E8000012000F0E7FB01F08CFF22E000F0DAFDEA
:104E900060B1134B13491B7800228DF8002006A83F
:104EA000164AFFF71FF907A8FFF7DCFA4FF4FA607C
:104EB00000F094FE0023A36102F0AAFA2022064922
:104EC000012000F0C7FBFFF7A1FA02E007232370DF
:104ED0003CE608B070BD00BF08E3032020E20320D9
:104EE000FCE103206C8E0D00728E0D0064E2032045
:104EF000C0E20320898E0D009D8E0D00B78E0D003F
:104F00000023042200F076BD0023022200F072BDCF
:104F10000246014801F025B8375F0D002DE9F04346
:104F2000B74BB9B008AA03F11005164618685968BE
:104F3000144603C40833AB422246F7D119889B7844
:104F40002180A3702D2200210DF1330003F057F9C9
:104F5000AC4A02231370AC4B1B6893F8305093F8A3
:104F6000313003F01F0343EA45152F2D904605DD30
:104F7000A64A00210A2000F0CDFC01E01F2D03DD30
:104F800005F01F05A24B01E04FF0A043012404FAF5
:104F900005F5C3F808552146072002F0E5F9002180
:104FA000042002F0E1F90021132002F0DDF90021D4
:104FB000122002F0D9F90021112002F0D5F9214682
:104FC0000E2002F0D1F921460E2002F0DEF9214632
:104FD000032002F0C9F92146022002F0C5F921465A
:104FE000032002F0D2F90021022002F0CEF904A839
:104FF00000F030FD002700237D2218A904A801F04D
:1050000074FE844D844901973B463A46009718A8A0
:1050100000F030FD81498248FFF772FF05F1180169
:105020008048FFF771FF80498048FFF769FF80499A
:105030008048FFF765FF80498048FFF761FFAB7943
:105040007F48DB1B0DF1E00918BF012309F8D83DAB
:1050500022463B46494600F0CDFC7A497A48FFF7A4
:105060004FFF7A497A48FFF74BFF7A497A48FFF7B2
:105070004BFF7A497A48FFF747FF7A497A48FFF7AA
:1050800043FF7A497A48FFF73BFF7A497A48FFF7AE
:105090003FFF7A496A48FFF73BFF79497948FFF7B4
:1050A00037FF79497948FFF733FF79497948FFF7A6
:1050B0002FFF79497948FFF72BFF79497948FFF7A6
:1050C00027FF79497948FFF723FF79497948FFF7A6
:1050D0001FFF02F09DF9384600F0ACFA022813D108
:1050E0004C4C02F095F920222146012000F0AAFA4A
:1050F0004421714800F079F90746C0B96F4930463C
:1051000003F0B8F8277314E002F082F904226C4926
:10511000384600F09FFA02F07BF920460422494607
:105120000134029700F096FAF02CF4D1D8E701236D
:1051300023730022634C02920127114648462770D0
:1051400000F048FA029B142B01BFAB692770DB19F2
:10515000AB61AB69052B04DD2E4B04229A61FFF78E
:1051600055F96B69642B04D92A4B14225A61012327
:1051700023706B69544A3D48102100F00BFDFFF786
:10518000F7F8042002F01AF918B9224B987101239C
:105190002370FEF7E5FF4D4BAA681B689A4203DCBB
:1051A000082388F800300DE0FFF772F850B90123AA
:1051B00088F8003000F026FA454B46491860304622
:1051C00003F058F800F03EFC08B12B7953B901F018
:1051D000E1FF314601F097FC04A801F000FD39B071
:1051E000BDE8F0833C4B3D491B7800228DF8002040
:1051F00048463246FEF776FF03A8FFF733F9E6E7A5
:10520000848B0D0021E2032074E20320F5550D008C
:105210000003005008E3032029450D007CE2032031
:10522000F08E0D00F78E0D0034900D00028F0D00F2
:10523000F4E203200A8F0D00FDE10320158F0D001D
:10524000228F0D00E4E103202F8F0D00E4E2032004
:105250003B8F0D00C4E20320448F0D00C8E2032001
:10526000528F0D00CCE20320608F0D0022E203205C
:105270009C8F0D00B9400D00698F0D007D480D0019
:10528000C5450D00758F0D0001480D00808F0D0084
:105290003D490D008D8F0D00E1490D00998F0D00E6
:1052A00049460D00A58F0D00ED460D00B48F0D0091
:1052B00069470D00C68F0D0034E20320D68F0D0024
:1052C000C48B0D0004E303201D8E0D00F4E10320C8
:1052D000C0E20320EB8F0D00FCE10320FD8F0D00E9
:1052E000F8B5244B244D254F00241C60244B012687
:1052F0001E7000F0C7F9234B186001F0F9FF234638
:10530000224642F6D51101F0FBFF01F0F1FF2246E3
:1053100023460F2101F0FCFF4FF6FF736B812C60D9
:10532000AC80AC712C81022000F004FB3A46164997
:10533000284602F0E3F8154D2146304600F012FBF6
:105340003146042000F036F92146284601F0F6F8EF
:1053500028460F4D0F493A46202602F0CFF8324634
:105360002146284602F04BFF6E710B48BDE8F8401D
:1053700000F018B864E2032068E20320E0E10320B3
:10538000FCE1032074E20320D5400D0018E2032065
:1053900040E203205B650D0034E203200368C9B2DC
:1053A0009B681847704738B505460C4602F044F82C
:1053B000297801F07EF902F03FF8210AFFF7EEFFAD
:1053C00002F03AF8E1B2FFF7E9FF02F035F8BDE884
:1053D000384001F079B908B543F2A201FFF7E3FFC5
:1053E0000A20BDE8084000F0F9BB38B504460D4678
:1053F00002F022F801F046F920462570FFF7EBFF96
:10540000012038BD0A44FF2091420ED011F8013B23
:105410005840082310F0800F4FEA400018BF80F07A
:105420003100013BC0B2F5D1EEE77047000000004B
:1054300073B54FF410510446FFF7B5FF4FF4FA70FF
:1054400000F0CCFB01F0F8FF0622217801F029F9E9
:1054500001F0F2FF03681B69984706284AD100252E
:1054600001F0EAFF03685B6998470DF80500013514
:10547000062DF5D1022269462046FFF7C3FF9DF8AD
:105480000250854236D102220DF103012046FFF77A
:10549000B9FF9DF8055085422CD1BDF800009DF85C
:1054A00003609DF8045040BA80B202F0BBFA18A322
:1054B000D3E9002302F02CFB11A3D3E9002302F06F
:1054C00051FC0022104B02F06FF902F033FDA06096
:1054D00045EA062002F0A6FA00220C4B02F018FB67
:1054E00007A3D3E9002302F03DFC02F023FD606036
:1054F000012000E0002002B070BD00BFAFF30080CB
:1055000000000000E0FFEF400080464000005940EE
:105510000000000000E0654010B50446FFF788FF7A
:1055200010B194ED020A10BD9FED010A10BD00BF3D
:105530000000C07F10B50446FFF77AFF10B194ED6C
:10554000010A10BD9FED010A10BD00BF0000C07F21
:1055500000F098B808B5024B1B685B6C019308BD5E
:105560007402030008B5024B1B689B6C019308BDD5
:105570007402030008B5024B1B689B68019308BDC9
:105580004802030008B5024B1B681B69019308BD64
:105590004802030008B5024B1B685B69019308BD14
:1055A0004802030008B5024B1B685B6C019308BD01
:1055B0004802030008B5024B1B685B6E019308BDEF
:1055C0003402030008B5024B1B689B6E019308BDB3
:1055D0003402030008B5024B1B68DB6E019308BD63
:1055E0003402030008B5024B1B685B68019308BDD9
:1055F0001802030008B5024B1B68DB68019308BD65
:105600001802030008B5024B1B685B69019308BDD3
:105610001802030008B5024B1B68DB69019308BD43
:105620001802030008B5024B1B689B6A019308BD72
:105630001802030008B5024B1B68DB6A019308BD22
:105640001802030008B5024B1B685B6C019308BD90
:105650001802030008B5024B1B689B6C019308BD40
:105660001802030008B5024B1B689B6D019308BD2F
:105670001802030008B5024B1B68DB6D019308BDDF
:105680001802030008B5024B1B681B68019308BD94
:105690002C02030008B5024B1B685B68019308BD30
:1056A0002C02030008B5024B1B689B68019308BDE0
:1056B0002C02030008B5024B1B68DB68019308BD90
:1056C0002C02030008B5024B1B681B69019308BD3F
:1056D0002C02030008B5024B1B685B69019308BDEF
:1056E0002C02030008B5024B1B681B6B019308BD1D
:1056F0002C02030008B5024B1B68DB68019308BD50
:105700002802030008B5024B1B685B69019308BDC2
:105710002802030008B5024B1B689B69019308BD72
:105720002802030008B5024B1B68DB69019308BD22
:105730002802030008B5024B1B681B6A019308BDD1
:105740002802030008B5024B1B685B6A019308BD81
:105750002802030008B5024B1B689B6A019308BD31
:105760002802030008B5024B1B68DB6A019308BDE1
:105770002802030008B5024B1B681B6B019308BD90
:105780002802030008B5024B1B685B6B019308BD40
:105790002802030008B5024B1B681B6C019308BD6F
:1057A0002802030008B5024B1B689B6C019308BDDF
:1057B0002802030008B5024B1B68DB6C019308BD8F
:1057C0002802030008B5024B1B685B69019308BD02
:1057D0006402030008B5024B1B689B68019308BD77
:1057E0006802030008B5024B1B68DB68019308BD23
:1057F0006802030008B5024B1B68DB69019308BD12
:105800003002030008B5024B1B681B6A019308BDF8
:105810003002030008B5024B1B681B6C019308BDE6
:105820003002030008B5024B1B685B6C019308BD96
:105830003002030008B5024B1B681B68019308BDCA
:105840003C02030008B5024B1B68DB68019308BDEE
:105850003C02030008B5024B1B681B69019308BD9D
:105860003C02030008B5024B1B685B69019308BD4D
:105870003C02030008B5024B1B689B69019308BDFD
:105880003C02030008B5024B1B68DB69019308BDAD
:105890003C02030008B5024B1B681B6A019308BD5C
:1058A0003C02030008B5024B1B689B6A019308BDCC
:1058B0003C02030008B5024B1B681B68019308BD3E
:1058C0004C02030008B5024B1B681B69019308BD1D
:1058D0004C02030008B5024B1B685B69019308BDCD
:1058E0004C02030008B5024B1B689B69019308BD7D
:1058F0004C02030008B5024B1B68DB69019308BD2D
:105900004C02030008B5024B1B681B6A019308BDDB
:105910004C02030008B5024B1B685B6B019308BD8A
:105920006002030008B5024B1B681B68019308BDA9
:105930002002030008B5024B1B685B68019308BD99
:105940002002030008B5024B1B685B69019308BD88
:105950002002030008B5024B1B689B69019308BD38
:105960002002030008B5024B1B68DB6A019308BDE7
:105970002002030008B5024B1B68DB6C019308BDD5
:105980002002030008B5024B1B685B6D019308BD44
:105990002002030008B5024B1B689B6D019308BDF4
:1059A0002002030008B5034B1B68D3F8883001932D
:1059B00008BD00002002030008B5034B1B68D3F8A4
:1059C0009430019308BD00002002030008B5034B8A
:1059D0001B68D3F8A030019308BD0000200203002B
:1059E00008B5034B1B68D3F8A830019308BD00002D
:1059F0002002030008B5024B1B681B68019308BD19
:105A00004402030008B5024B1B685B68019308BDA4
:105A10004402030008B5024B1B689B68019308BD54
:105A20004402030008B5024B1B68DB68019308BD04
:105A30004402030008B5024B1B681B69019308BDB3
:105A40004402030008B5024B1B685B69019308BD63
:105A50004402030008B5024B1B68DB69019308BDD3
:105A60004402030008B5024B1B681B6A019308BD82
:105A70004402030008B5024B1B685B6A019308BD32
:105A80004402030008B5024B1B68DB6A019308BDA2
:105A90004402030008B5024B1B681B6B019308BD51
:105AA0004402030008B5024B1B68DB6B019308BD81
:105AB0004402030008B5024B1B685B68019308BDF4
:105AC0004002030008B5024B1B689B68019308BDA8
:105AD0004002030008B5024B1B68DB68019308BD58
:105AE0004002030008B5024B1B681B69019308BD07
:105AF0004002030008B5024B1B685B69019308BDB7
:105B00004002030008B5024B1B689B69019308BD66
:105B10004002030008B5024B1B68DB69019308BD16
:105B20004002030008B5024B1B681B6A019308BDC5
:105B30004002030008B5024B1B681B6B019308BDB4
:105B40004002030008B5024B1B685B6B019308BD64
:105B50004002030008B5024B1B681B68019308BD97
:105B60001C02030008B5024B1B685B68019308BD6B
:105B70001C02030008B5024B1B689B68019308BD1B
:105B80001C02030008B5024B1B689B69019308BD0A
:105B90001C02030008B5024B1B68DB69019308BDBA
:105BA0001C02030008B5024B1B68DB6A019308BDA9
:105BB0001C02030008B5024B1B681B6B019308BD58
:105BC0001C0203008A4230B507D0039D441AED1A27
:105BD0006C43521A94FBF2F4E01830BD0021FFF739
:105BE000B1BE10B5836804460BB901F08EFCC368E2
:105BF0009847A3681BB103222146204698472046B8
:105C00001021BDE8104001F07EBC0B68036013B1A9
:105C10005A6801325A607047024800230360FFF758
:105C2000C1BC00BF28E30320002211464068FFF7F3
:105C300059BF002211464068FFF774BF0022114689
:105C40004068FFF77FBF00224068FFF773BF002264
:105C500081F001014068FFF75DBF00231A46194635
:105C60004068FFF74FBF00231A4619464068FFF708
:105C700041BF002211464068FFF724BF00220221E5
:105C80004068FFF727BF00231A464068FFF712BF9E
:105C9000F0B51B4B036000250F462833182689B04A
:105CA00043608560C560324629460446103002F0E4
:105CB000A6FA2A4629467868FFF714FF08B9A060BB
:105CC0001BE02946324602A80095019502F097FA9A
:105CD00002A96846ADF80860FFF73CFC10B101234B
:105CE000A3600AE0009B019AA360E2600BB9022363
:105CF000A36002A9204600F089F8204609B0F0BD53
:105D000078900D0038B5084C28252A4600212046F9
:105D100002F075FA4FF0FF336360044B25800422D4
:105D20005A60034A1A6038BD34E303202CE3032091
:105D300044900D007047007D70470000037D1BB14B
:105D40008369B3F1004F02D19FED050A704707EE5A
:105D5000903A9FED047AF8EEE77A87EE870A70476B
:105D6000000000000000C842037D1BB1036AB3F1CC
:105D7000004F02D19FED050A704707EE903A9FED64
:105D8000047AF8EEE77A87EE870A70470000000091
:105D90000000C84210B52821044601F0B4FB20469B
:105DA00010BD0000037D7BB1436A002B0CDB07EEC6
:105DB000903ADFED076A9FED070AB8EEE77AC7EE83
:105DC000267A27EE800A7047BFEE000A704700BFB0
:105DD00000FF7F470000C842037D7BB1C369002BF1
:105DE0000CDB07EE903ADFED076A9FED070AB8EE8D
:105DF000E77AC7EE267A27EE800A7047BFEE000AE0
:105E0000704700BF00FF7F470000C84230B50D4615
:105E100000F110040FCD0FC495E8030084E80300DF
:105E2000012030BD2DE9F04107460C4615462AB940
:105E30000368C9B29B68BDE8F0411847002907DA3A
:105E40000A2A05D12D2100F04FFE6142064601E0ED
:105E500021460026EAB2384600F05FFE3044BDE835
:105E6000F08170B50D4606460A2281682846FFF784
:105E7000D9FF2C210446284600F036FE0A220444AD
:105E8000F1682846FFF7CEFF204470BDA0F1040062
:105E9000FFF7E7BF70470020704710B51021044698
:105EA00001F031FB204610BD08B508B1FFF7F5FF42
:105EB00008BD10B58368044613B103220146984714
:105EC000204610BD0022026010B54FF69C72828001
:105ED000B1F9044084808A8002680C6804600A601A
:105EE00010BD10B504460068FFF73CFE204610BD0B
:105EF00038B5C468F4B12378022B03D104F10C0047
:105F0000FFF7EFFF656835B12846FFF7D2FF102194
:105F1000284601F0F8FAA56835B12846FFF7C9FF11
:105F20001021284601F0EFFA20461421BDE8384040
:105F300001F0E9BA38BD10B588B00446684600F0F3
:105F400095FE694604A800F0B3FE04A8A0470446E5
:105F500004A800F044FE684600F041FE204608B068
:105F600010BDF0B5102485B007460E461546002139
:105F70002246684602F043F9002269461046ADF811
:105F80000040029703960195FFF73CFD05B0F0BD78
:105F900013B5044691E8050000234B600B602060B8
:105FA000626001A801930093FEF75CFA204602B0FC
:105FB00010BDF7B50C4602AD54F8043B45F8083D5A
:105FC00006460F4601A82146FFF71FFE2946304628
:105FD000FFF7DEFF01A8FEF745FA2046FEF742FA7A
:105FE0003846082101F08FFA304603B0F0BD13B5F2
:105FF0000B46044603C88DE8030093E8030084E8D9
:1060000003009DE8030083E8030002B010BD000018
:1060100038B500230446036010200D46FEF73DF816
:1060200028B1012343608360024B0360C560206098
:10603000204638BDAC900D00826810B50AB901F059
:1060400064FAC368BDE81040184708B5006800F15D
:106050001001FFF7F1FF08BD826810B50AB901F021
:1060600054FAC368BDE81040184708B5006800F14D
:106070001001FFF7F1FF08BD38B5002383608B687E
:1060800004460D462BB102229847EB68E360AB68EB
:10609000A360204638BD0000F0B589B004686846AA
:1060A000FFF710FF00238DF808304FF00202D4E80C
:1060B0004F3F002B03D1C4E8412F0029F7D102D074
:1060C0008DF8083063E014F10C0503D069462846CA
:1060D000FFF7F8FEBFF35F8F01236370002004F128
:1060E0000803BFF35F8F53E8006F43E80002002A04
:1060F000F9D1BFF35F8F002E49D0FFF73BFC20B1F1
:1061000029463046FFF798FF3AE0314602A8FFF7EC
:10611000B3FFE068B4F9105008B102F0B3F806908C
:106120001020ADF81C50FDF7B8FF0546E8B1002778
:1061300087601820FDF7B1FF044688B101468760EB
:1061400002A8FFF754FF049BA268A360059B04927A
:1061500006A9E268E36004F110000592FFF7B2FEC1
:106160000D4BEB600D4B2C60AB6006A8FFF7B9FE42
:1061700002A8FFF79EFE002229460948FFF702FC0D
:106180003046FFF796FE1021304601F0BCF9684614
:10619000FFF7A7FE09B0F0BD4B600D00C1620D0016
:1061A000E35B0D002DE9F04F8BB006460F4690469D
:1061B00099469DF850A0FFF745FC07AD834630BBDC
:1061C0004FF62E73059005A92846ADF81830FFF755
:1061D00079FE1420FDF761FF044658B102230370D5
:1061E00001234370C0F804B0C0F808B029460C3051
:1061F000FFF768FE3046214640F8044BFFF708FFE2
:106200002846FFF76EFE05A8FFF76BFE52E000245C
:106210000C2314206C60AC600793FDF73EFF014631
:1062200018B1047044704460846004A80391FFF7BF
:10623000EFFE224B08930820FDF72FFF044628B1FC
:10624000039B40F8043B04A9FFF7DFFC00955FFACD
:106250008AF34A46414638460994FFF703FC20B9C1
:10626000039B5B7803F0FF0283B1039B059304A9B2
:1062700006A8FFF7CAFC05A93046FFF789FE06A865
:10628000FEF7F0F804A8FEF7EDF813E04FF69C7364
:1062900005A903A80592ADF81830FFF7FDFE05A883
:1062A000FFF71FFE05A80999FFF783FE06A8FEF772
:1062B000D9F8DAE730460BB0BDE8F08F31640D0055
:1062C000022AF8B5044606D0032A17D0012A22D1A3
:1062D0000B6803601FE018200E68FDF7DEFE054620
:1062E00050B13146FFF7C8FE3069B6F9147008B1F5
:1062F00001F0C8FF2861AF8225600CE0046854B14A
:1063000004F11000FFF7EDFD2046FFF7D2FD182144
:10631000204601F0F8F80020F8BD38B5002383606E
:106320008B6804460D462BB102229847EB68E36068
:10633000AB68A360204638BD022A70B5044606D07B
:10634000032A11D0012A18D10B68036015E014202C
:106350000E68FDF7A2FE054620B13146FFF7DDFFCE
:10636000337C2B74256008E0046834B12046FFF7C5
:10637000A0FD1421204601F0C6F8002070BD0000E9
:10638000F0B5002387B00C46BFF35F8F50E8006F75
:1063900040E80032002AF9D1BFF35F8F002E3FD0D2
:1063A0001846FFF7E7FA074620B121463046FFF7C7
:1063B00053FE2EE0314601A8FFF7AFFF23788DF89A
:1063C00014301020FDF769FE0546D0B18760142017
:1063D000FDF763FE044678B18760014601A8FFF728
:1063E00006FE039BA268A360049B0392E268E3603D
:1063F0009DF81430049223740A4BEB600A4B2C6016
:10640000AB6001A8FFF755FD002229460748FFF7BA
:10641000B9FA3046FFF74DFD1021304601F073F810
:1064200007B0F0BD6B600D0039630D00E35B0D003C
:1064300030B585B004460D4668461146FFF7B9FDF4
:106440007CB124B228460DB101F01CFF029002A9D4
:106450006846ADF80C40FFF71FFE02A8FFF741FDAC
:106460001DE000988DF808404FF00102D0E84F3F42
:10647000A34203D1C0E8412F0029F7D102D08DF803
:1064800008300CE010F10C014FF0010318BF03734A
:10649000BFF35F8F043000F8033CFFF771FF01A8E2
:1064A000FDF7E0FF05B030BD002211464068FFF760
:1064B00039BB002211464068FFF744BB0022406808
:1064C000FFF738BB002281F001014068FFF722BBD3
:1064D00000231A4619464068FFF714BB00231A46EA
:1064E00019464068FFF706BB002211464068FFF7D7
:1064F000F9BA002211464068FFF7E4BA00220221EF
:106500004068FFF7E7BA00231A464068FFF7D2BA9F
:10651000024B03225A60024A1A6070475CE3032070
:10652000C8900D00006800F0D6B810B504460160B0
:1065300002710AB1FFF7F6FF204610BD38B50446D8
:106540000D4600F099FF2A4601462046FFF7EDFF71
:10655000204638BD006800F0C7B810B5037904467E
:106560000BB1FFF7F7FF204610BDF8B504461646FD
:106570001D460F46FFF7D6FF2068362100F09DF834
:106580002068036839469B6898470121206800F01D
:1065900097F8022236210123206800F085F8206850
:1065A00003685B6998473070206803685B699847A7
:1065B00028702046BDE8F840FFF7CCBF07B502AB16
:1065C000002203F8012D8DF8062004210DF10602AA
:1065D000FFF7CBFF9DF8070001F034FA0022094BCA
:1065E00001F096FA01F0A6FC9DF8063000EE103A94
:1065F00007EE900AB8EEC00A37EE800A03B05DF8E5
:1066000004FB00BF0000703F7047F8B50646154612
:106610000C468F18BC4206D0336814F8011B9B68E7
:1066200030469847F6E72846F8BD0022007CFFF781
:1066300081B80021007CFFF785B80021007CFFF7BE
:1066400089B80021007CFFF78DB80021007CFFF79E
:1066500091B810B51421044600F055FF204610BD36
:1066600010B504464FF47A730846A3600021044B2A
:10667000207461602360FFF78DF8204610BD00BFD5
:10668000FC900D0000231A461946007CFFF732B833
:1066900013B50024007C0094FFF734F8C0B202B0B8
:1066A00010BD0123FFF7F4BFDBB2D2B2C9B2FFF7CE
:1066B000EFBF0022007CFFF72DB8C9B2FFF7F9BF8A
:1066C0000022007CFFF72EB80121FFF7F9BF00215F
:1066D000007CFFF757B808B50021007CFFF762F88F
:1066E000B0FA80F0400908BD08B50021007CFFF732
:1066F00061F8B0FA80F0400908BD704710B5182164
:10670000044600F000FF204610BDF0B5037D062BC7
:106710008DB00E4600F104074FF0000402D000F1E6
:10672000080518E00CAD394605F8304D2F232A46F0
:106730000A20FFF747F8284601F0BFFD33680246FC
:10674000DB682946304698470FE024B12E213046B9
:1067500000F0CAF9044415F8011D0A22304600F081
:10676000DCF9BD420444F0D120460DB0F0BD00007C
:1067700010B5054B0446112240F8043B002101F0FE
:106780003EFD204610BD00BF24910D000346074A80
:1067900010B543F8042B01F1100251F8044B43F8F3
:1067A000044B9142F9D10A781A7010BD24910D0062
:1067B00010B59DF8084044EA032343EA024242EA46
:1067C000016104234160037510BD37B50D788B78E6
:1067D0004A78C97800912946FFF7EAFF03B030BD37
:1067E000014B024A1A60704764E30320A0910D0038
:1067F000002211464068FFF795B900221146406813
:10680000FFF7A0B900224068FFF794B9002281F099
:1068100001014068FFF77EB900231A460121406854
:10682000FFF770B900231A4619464068FFF762B9AE
:10683000002211464068FFF755B900221146406812
:10684000FFF740B9002202214068FFF743B9002357
:106850001A464068FFF72EB938B5054688B1046876
:106860004CB1A3681BB10322214620469847102152
:10687000204600F048FE28461421BDE8384000F0CC
:1068800042BE38BD10B103685B681847704710B549
:1068900003680446BBB15868FEF76CFE78B92368FC
:1068A0005A7C12B95868FEF76DFE23685868FEF7E7
:1068B00071FE20680023236028B1FFF7CDFF206818
:1068C00008B1FFF7C9FF204610BD000038B50C4BDA
:1068D00003600446D0F8CC0108B1FDF7E2FBD4F820
:1068E000C45135B12846FFF7D2FF0421284600F0F5
:1068F0000AFEA06808B1FFF7C5FF204638BD00BFFB
:1069000010920D0038B50E4C0E4B2360002502236B
:1069100004F5E4706360A560C4F8C451C4F8C851BC
:10692000FEF740FE084BC4F8CC5184F8D0512360E8
:106930002046064A0649BDE8384000F0DFBD00BFEA
:1069400068E3032044920D0010920D00E0E1032063
:10695000CD680D0000231A464068FFF7ABB800224F
:1069600002214068FFF7B6B8002211464068FFF7E1
:10697000A9B8002211464068FFF7B4B800231A46B0
:1069800019464068FFF7B6B800231A461946406812
:10699000FFF7B8B8002281F001014068FFF7BAB8EC
:1069A00000224068FFF7C6B8002211464068FFF792
:1069B000C9B8002211464068FFF7B4B82DE9F0438A
:1069C000002495B016460D460746FFF7D1FE214636
:1069D00020220CA8009401F012FC40230C932146C5
:1069E0006B460CAA3046FEF7FDFE0446002844D153
:1069F000024601216868FFF775F8022180462246A9
:106A00006868FFF76FF8009E81462146002E34D05B
:106A1000002932D17368022B02D00A2B09D02AE058
:106A2000B8F1000F27D0716938460431FFF7CDFE69
:106A300020E0B9F1000F1ED07469112201A801F005
:106A4000DEFB06238DF8143001AD04F10803183481
:106A5000186859682A4603C20833A3421546F7D17D
:106A600001A906A807ADFFF791FE0FCD3C1D0FC48D
:106A70002B6823700121F669C8E70098FEF7AAFE8B
:106A8000384615B0BDE8F083024B034A1A60002275
:106A90005A6070473CE5032044920D00F8B5064665
:106AA0000D468F180024BD420CD0336815F8011B29
:106AB0009B6830469847002801DB0444F3E7002C2C
:106AC00008BF04462046F8BD70B505460C4608468A
:106AD00049B101F0F2FB2B68024621462846DB68EB
:106AE000BDE87040184770BD03689B68184738B50B
:106AF0000D210546FFF7F8FF0A2104462846FFF757
:106B0000F3FF204438BD38B50546FFF7DDFF0446E6
:106B10002846FFF7ECFF204438BD30B58BB00B465C
:106B200000218DF82410012A98BF0A220DF12304B8
:106B3000B3FBF2F505FB123303F0FF03092B94BFFF
:106B400030333733DBB2214604F801392B46002DB0
:106B5000EED1FFF7B9FF0BB030BD10B50446FFF71B
:106B6000A8F9204610BD00000348044A0449002348
:106B7000836000F0C3BC00BF44E50320E0E10320D4
:106B80005B6B0D00704710B50C21044600F0BBFC98
:106B9000204610BD0021FEF73DBE0021FEF742BE9B
:106BA00010B5054B0360044601710846FEF722FE4E
:106BB0000023A360204610BD78920D0038B504462E
:106BC0000079FFF7E7FF38B92079FEF71BFE05468D
:106BD0002079FFF7E2FF00E00025284638BD10B518
:106BE00004460068FEF7BEFF204610BD10B50446FF
:106BF000006808B1FEF7B6FF00232360A36063605E
:106C000010BD38B504460D4600680131FEF7B2FFED
:106C100010B184E82100012038BD10B50368044696
:106C200013B143688B4207D22046FFF7EAFF20B139
:106C3000A3680BB922681370012010BD70B50E4611
:106C4000114604461546FFF7E8FF18B92046FFF73E
:106C5000CDFF09E02A463146A560206801F0C4FA5C
:106C60002268A3680021D154204670BD38B50023A6
:106C7000044603604360836003730D4639B10846E0
:106C800001F01BFB294602462046FFF7D7FF2046AE
:106C900038BD884210B50B46044607D0096819B1C3
:106CA0009A68FFF7CBFF01E0FFF7A0FF204610BD79
:106CB00010B5002304460360436083600373FFF74D
:106CC000E8FF204610BD08B582680B4612B919B915
:106CD000012008BD11B90368187802E0006801F0CE
:106CE000BFFAB0FA80F0400908BD70B50E469AB1FF
:106CF00091B185689D4202D800230B7070BD541E6F
:106D0000ED1A0168AC4228BF2C4619442246304691
:106D100001F0F0FA0023335570BD10B50446006849
:106D200018B1FEF71FFF0023236010BD38B5B1F97D
:106D3000043083800B460D4653F8062FC0F806201A
:106D40009B8843810446FFF7E8FF2B6813B123605B
:106D500000232B60204638BDB1F9043010B50BB9C3
:106D60000A689AB10C685CB1A288012A03D0042A8F
:106D700006D1022205E0A4894C818A710B8105E0CD
:106D800004220B814FF6FF738A714B8151F8063F45
:106D900003608B88838010BD014600228C20FEF7A3
:106DA00011BC0020FFF7F8BF30B5044685B0084697
:106DB00011461A460023FEF7CDFD0D4DADF80C002F
:106DC000002301A90193ADF808308DF80A30284658
:106DD0004FF6FF73ADF80E30FFF7A8FF01A8FFF7DD
:106DE0009CFF20462946FFF7B7FF204605B030BD7F
:106DF00054E5032010B500240470448000294FF6A8
:106E0000FF74848007DD0139994209D232F81130CC
:106E10008380012301E002D10223037010BD418071
:106E200010BD0000F0B58BB017461A46129B0193B7
:106E30000E460024119B0294054600933946109B90
:106E40003046FEF7C3FD3B463246014605A8FFF734
:106E5000D1FF0794ADF820400D4C9DF81410BDF9FA
:106E60001620BDF818308DF82210204607A9ADF87D
:106E70002420ADF82630FFF759FF07A8FFF74DFF94
:106E800028462146FFF768FF28460BB0F0BD00BF3B
:106E900054E5032010B5094C00204FF6FF73206025
:106EA000A080A07120816381FEF744FD2046044A42
:106EB0000449BDE8104000F021BB00BF54E50320A9
:106EC000E0E10320D5400D00F0B5144B144F1E68CF
:106ED000144B064418683B6806449E428BB01BD096
:106EE0000AA801AD40F8286D01F086F8436903F265
:106EF0006C73436104460FCC0FC50FCC0FC5D4F89B
:106F000000E0C5F800E001AD0FCD074C0FC40FCD78
:106F10000FC43E60C4F800E00BB0F0BD90E5032064
:106F20008CE5032088E5032060E5032008B50020F8
:106F3000FEF7B0FD28B1FEF785FD80F00100C0B27C
:106F400008BD012008BD10B50020FEF78BFB0446EC
:106F500068B9FEF7E7FC01280BD12046FEF71AFDC1
:106F600038B9FFF7E3FF30B9FEF754FDF9E7012028
:106F700010BD002010BDFFF7D9FF0020FEF772FB07
:106F8000003018BF012010BD08B5FFF7DCFFBDE8D9
:106F90000840FEF73FBB000008B5FFF7F5FFFFF71D
:106FA00093FF014B986808BD60E5032008B5FFF723
:106FB000EBFFFFF789FF014B586808BD60E5032030
:106FC000024B1A68024B1A60704700BF28E1032089
:106FD00084E5032070474174704708B5007CFEF7D4
:106FE00061FC20EAE07008BD08B5007CFEF732FCC9
:106FF00020EAE07008BD08B5007CFEF73BFC30EAF3
:10700000200028BF4FF0FF3008BD08B5007CFEF718
:1070100029FC30EA200028BF4FF0FF3008BD007C7B
:10702000FEF730BC10B51421044600F06CFA20467F
:1070300010BD70B5457C04460E4625B9007CFEF7B0
:1070400031FC002805DD3146207CBDE87040FEF7AC
:10705000F9BB284670BD000010B50446084611462D
:10706000002262604FF47A72A260054A2260012217
:10707000207462741A46FEF7DDFB204610BD00BF87
:10708000B0920D00007CFEF705BC000038B50C4D39
:10709000296811F0010411D12846FDF704F868B100
:1070A000084A094B09482146FFF7D6FF2846FCF756
:1070B000FFFF074A0749054800F020FA034838BD9A
:1070C0002CE6032030E60320A8E5032094E5032006
:1070D000E0E10320D56F0D0041747047704708B59B
:1070E0000021007CFEF7FEFB30EA200028BF4FF0B5
:1070F000FF3008BD08B50121007CFEF7F3FB30EA44
:10710000200028BF4FF0FF3008BD08B5007CFEF717
:10711000E1FB20EAE07008BD08B5007CFEF7D2FB79
:1071200020EAE07008BD007CFEF7ECBB10B514212E
:10713000044600F0E8F9204610BD38B50446007C4E
:107140000D46FEF7C7FB002801DC607C28B129460C
:10715000207CFEF7CFFB20EAE07038BD10B5044676
:10716000002363604FF47A73A360054B236001230F
:107170000846217463741146FEF79CFB204610BD3F
:10718000E0920D0010B514220446002101F037F8FA
:10719000204610BD30B50E4D87B001A8FFF7F2FFB5
:1071A000296811F0010410D12846FCF77CFF60B17A
:1071B00001AA21460748FFF7D1FF2846FCF778FFD0
:1071C000054A0649034800F099F9024807B030BD66
:1071D000B4E60320B8E60320E0E10320DD700D00F3
:1071E00008B50C4B33B1FFF7D5FF03681B6998470F
:1071F000002809DC084B63B1FFF748FF03681B69EF
:107200009847002803DC08BDAFF30080F2E7AFF336
:10721000008008BD000000000000000008B5FFF776
:10722000DFFFFEF7EFF9014B186008BDD4E603203D
:107230000248034A0349121A00F0D6BF00F40320A3
:1072400004F4032050950D0007B5002300931A465F
:107250006FF07701FEF7B0FB03B05DF804FB0000B0
:1072600007B543880A2B08D0502B09D1094B1B685E
:107270003BB103B05DF804EB1847FFF7E5FF06E00C
:10728000002300931A466FF07701FEF795FB03B0D9
:107290005DF804FBCCE6032038B5104C104D236894
:1072A000AB42104B0CBF012200221A7002D0FFF734
:1072B000BFFF2560FEF796F9044600F0A9FF0A4BD0
:1072C00013B12046AFF3008000210748FEF7EAFB28
:1072D00000210648BDE83840FEF764BB00F40320F7
:1072E0001E1C279AD0E603200000000061720D00EA
:1072F00008B5024B1B681B68019308BD5C020300C4
:1073000008B5024B1B685B68019308BD5C02030073
:1073100008B5024B1B689B68019308BD5C02030023
:1073200010B504460F48FFF749FC28B1A4F10B0340
:10733000022B01D8002010BD00F07EF8FFF7C7F93E
:1073400008B1012CF6D9FFF7A1FEFFF79BFE18B19B
:10735000A4F10903012BEDD9232C8CBF00200120BF
:1073600010BD00BF10E70320232838B504460D46A2
:107370000AD8FF2908D0FFF7D3FF28B129462046B5
:10738000BDE83840FEF78EB938BD38B504460D4625
:10739000FEF790F9FF2810D0062804D84D2323FAD1
:1073A00000F0C30709D42046FFF7BAFF28B12946E9
:1073B0002046BDE83840FEF785B938BD10B5044613
:1073C000FEF778F90438C0B2012808D92046FFF743
:1073D000A7FF20B12046BDE81040FEF77BB9002092
:1073E00010BD0D2810B504469CBF0E34A4B2204633
:1073F000FFF796FF50B103212046FEF74BF9032813
:1074000004D12046BDE81040FEF76CB9002010BD45
:1074100010B5074C2368DB0708D42046FCF743FE71
:1074200020B1FEF7FFF82046FCF742FE014810BDF0
:10743000D8E60320DCE6032038B50B4D296811F0AF
:1074400001040FD12846FCF72EFE58B1214607480B
:10745000FFF706F92846FCF72BFE054A05490348C5
:1074600000F04CF8014838BDE0E60320F8E60320C0
:10747000E0E1032009660D0010B50B4C2368DB0723
:107480000FD42046FCF70FFE58B101210748FFF743
:10749000E7F82046FCF70CFE054A0649034800F0D1
:1074A0002DF8024810BD00BF0CE70320E4E60320DE
:1074B000E0E1032009660D0070B50C4C0C4E0D4D3B
:1074C00000212046FFF76CFB20460B4C3246294634
:1074D00000F014F801212046FFF762FB32462946EE
:1074E0002046BDE8704000F009B800BF10E7032057
:1074F000E0E10320856B0D001CE703200B460146ED
:10750000184600F06BBDFCF7CABD08B5FEF74AFB94
:10751000244B1A68D0075CBF01221A60224B1A68FC
:10752000D1075CBF01221A60204B1A68D2075CBFEA
:1075300001221A601E4B1A68D0075CBF01221A6034
:107540001C4B1A68D1075CBF01221A601A4B1A68DB
:10755000D2075CBF01221A60184B1A68D0075CBFC3
:1075600001221A60164B1A68D1075CBF01221A600B
:10757000144B1A68D2075CBF01221A60124B1A68BA
:10758000D0075CBF01221A60104B1A68D1075CBF9C
:1075900001221A600E4B1A68D2075CBF01221A60E2
:1075A000704700BF54E7032050E703204CE7032057
:1075B00048E7032044E7032040E703203CE703209B
:1075C00038E7032034E7032030E703202CE70320CB
:1075D00028E70320184B1A68D1075CBF01221A6004
:1075E000164B1A68D2075CBF01221A60144B1A6846
:1075F000D0075CBF01221A60124B1A68D1075CBF2A
:1076000001221A60104B1A68D2075CBF01221A606F
:107610000E4B1A68D0075CBF01221A600C4B1A6827
:10762000D1075CBF01221A600A4B1A68D2075CBFFF
:1076300001221A60704700BF74E7032070E703203F
:107640006CE7032068E7032064E7032060E703207A
:107650005CE7032058E70320184B1A68D1075CBF8A
:1076600001221A60164B1A68D2075CBF01221A6009
:10767000144B1A68D0075CBF01221A60124B1A68BB
:10768000D1075CBF01221A60104B1A68D2075CBF99
:1076900001221A600E4B1A68D0075CBF01221A60E3
:1076A0000C4B1A68D1075CBF01221A600A4B1A689A
:1076B000D2075CBF01221A60704700BF94E7032025
:1076C00090E703208CE7032088E7032084E703206A
:1076D00080E703207CE7032078E70320244B1A6827
:1076E000D0075CBF01221A60224B1A68D1075CBF29
:1076F00001221A60204B1A68D2075CBF01221A606F
:107700001E4B1A68D0075CBF01221A601C4B1A6816
:10771000D1075CBF01221A601A4B1A68D2075CBFFE
:1077200001221A60184B1A68D0075CBF01221A6048
:10773000164B1A68D1075CBF01221A60144B1A68F5
:10774000D2075CBF01221A60124B1A68D0075CBFD7
:1077500001221A60104B1A68D1075CBF01221A601F
:107760000E4B1A68D2075CBF01221A60704700BF37
:10777000C4E70320C0E70320BCE70320B8E70320E9
:10778000B4E70320B0E70320ACE70320A8E7032019
:10779000A4E70320A0E703209CE7032098E7032049
:1077A00081F0004102E000BF83F0004330B54FEAB2
:1077B00041044FEA430594EA050F08BF90EA020F1F
:1077C0001FBF54EA000C55EA020C7FEA645C7FEAB2
:1077D000655C00F0E2804FEA5454D4EB5555B8BFD5
:1077E0006D420CDD2C4480EA020281EA030382EA46
:1077F000000083EA010180EA020281EA0303362DD8
:1078000088BF30BD11F0004F4FEA01314FF4801CAA
:107810004CEA113102D0404261EB410113F0004FBC
:107820004FEA03334CEA133302D0524263EB430373
:1078300094EA050F00F0A780A4F10104D5F1200E11
:107840000DDB02FA0EFC22FA05F2801841F100016C
:1078500003FA0EF2801843FA05F359410EE0A5F140
:1078600020050EF1200E012A03FA0EFC28BF4CF071
:10787000020C43FA05F3C01851EBE37101F0004527
:1078800007D54FF0000EDCF1000C7EEB00006EEB34
:107890000101B1F5801F1BD3B1F5001F0CD34908BE
:1078A0005FEA30004FEA3C0C04F101044FEA445215
:1078B00012F5800F80F09A80BCF1004F08BF5FEA9C
:1078C000500C50F1000041EB045141EA050130BD7C
:1078D0005FEA4C0C404141EB010111F4801FA4F11F
:1078E0000104E9D191F0000F04BF01460020B1FA74
:1078F00081F308BF2033A3F10B03B3F120020CDAAC
:107900000C3208DD02F1140CC2F10C0201FA0CF089
:1079100021FA02F10CE002F11402D8BFC2F1200CEE
:1079200001FA02F120FA0CFCDCBF41EA0C019040A4
:10793000E41AA2BF01EB0451294330BD6FEA0404ED
:107940001F3C1CDA0C340EDC04F11404C4F12002D8
:1079500020FA04F001FA02F340EA030021FA04F3EA
:1079600045EA030130BDC4F10C04C4F1200220FA41
:1079700002F001FA04F340EA0300294630BD21FA7F
:1079800004F0294630BD94F0000F83F4801306BF45
:1079900081F480110134013D4EE77FEA645C18BF39
:1079A0007FEA655C29D094EA050F08BF90EA020FD0
:1079B00005D054EA000C04BF1946104630BD91EAC8
:1079C000030F1EBF0021002030BD5FEA545C05D1CB
:1079D0004000494128BF41F0004130BD14F580040A
:1079E0003CBF01F5801130BD01F0004545F0FE417E
:1079F00041F470014FF0000030BD7FEA645C1ABFB3
:107A0000194610467FEA655C1CBF0B46024650EAE9
:107A1000013406BF52EA033591EA030F41F4002115
:107A200030BD00BF90F0000F04BF0021704730B59B
:107A30004FF4806404F132044FF000054FF0000170
:107A400050E700BF90F0000F04BF0021704730B531
:107A50004FF4806404F1320410F0004548BF404206
:107A60004FF000013EE700BF42004FEAE2014FEA5B
:107A700031014FEA02701FBF12F07F4393F07F4F36
:107A800081F06051704792F0000F14BF93F07F4F68
:107A9000704730B54FF4607401F0004521F00041AB
:107AA00020E700BF50EA010208BF704730B54FF031
:107AB00000050AE050EA010208BF704730B511F036
:107AC000004502D5404261EB41014FF4806404F16E
:107AD00032045FEA915C3FF4DCAE4FF003025FEAF0
:107AE000DC0C18BF03325FEADC0C18BF033202EB78
:107AF000DC02C2F1200300FA03FC20FA02F001FAD2
:107B000003FE40EA0E0021FA02F11444C1E600BF70
:107B100070B54FF0FF0C4CF4E06C1CEA11541DBF23
:107B20001CEA135594EA0C0F95EA0C0F00F0DEF8EE
:107B30002C4481EA030621EA4C5123EA4C5350EAD3
:107B4000013518BF52EA033541F4801143F4801324
:107B500038D0A0FB02CE4FF00005E1FB02E506F0B5
:107B60000042E0FB03E54FF00006E1FB03569CF00A
:107B7000000F18BF4EF0010EA4F1FF04B6F5007F10
:107B800064F5407404D25FEA4E0E6D4146EB060682
:107B900042EAC62141EA55514FEAC52040EA5E500B
:107BA0004FEACE2EB4F1FD0C88BFBCF5E06F1ED8B5
:107BB000BEF1004F08BF5FEA500E50F1000041EBEC
:107BC000045170BD06F0004646EA010140EA020099
:107BD00081EA0301B4EB5C04C2BFD4EB0C0541EABB
:107BE000045170BD41F480114FF0000E013C00F3D0
:107BF000AB8014F1360FDEBF002001F0004170BDF4
:107C0000C4F10004203C35DA0C341BDC04F114040C
:107C1000C4F1200500FA05F320FA04F001FA05F298
:107C200040EA020001F0004221F0004110EBD37065
:107C300021FA04F642EB06015EEA430E08BF20EA91
:107C4000D37070BDC4F10C04C4F1200500FA04F334
:107C500020FA05F001FA04F240EA020001F00041C6
:107C600010EBD37041F100015EEA430E08BF20EA39
:107C7000D37070BDC4F1200500FA05F24EEA020E81
:107C800020FA04F301FA05F243EA020321FA04F0B0
:107C900001F0004121FA04F220EA020000EBD37067
:107CA0005EEA430E08BF20EAD37070BD94F0000F67
:107CB0000FD101F00046400041EB010111F4801F9B
:107CC00008BF013CF7D041EA060195F0000F18BF4C
:107CD000704703F00046520043EB030313F4801F88
:107CE00008BF013DF7D043EA0603704794EA0C0F42
:107CF0000CEA135518BF95EA0C0F0CD050EA410658
:107D000018BF52EA4306D1D181EA030101F00041D4
:107D10004FF0000070BD50EA410606BF10461946FC
:107D200052EA430619D094EA0C0F02D150EA013608
:107D300013D195EA0C0F05D152EA03361CBF104649
:107D400019460AD181EA030101F0004141F0FE41E8
:107D500041F470014FF0000070BD41F0FE4141F46C
:107D6000780170BD70B54FF0FF0C4CF4E06C1CEA6C
:107D700011541DBF1CEA135594EA0C0F95EA0C0F21
:107D800000F0A7F8A4EB050481EA030E52EA0335DC
:107D90004FEA013100F088804FEA03334FF08055FD
:107DA00045EA131343EA12634FEA022245EA11152A
:107DB00045EA10654FEA00260EF000419D4208BFDB
:107DC000964244F1FD0404F5407402D25B084FEA88
:107DD0003202B61A65EB03055B084FEA32024FF434
:107DE00080104FF4002CB6EB020E75EB030E22BF91
:107DF000B61A754640EA0C005B084FEA3202B6EB51
:107E0000020E75EB030E22BFB61A754640EA5C00FF
:107E10005B084FEA3202B6EB020E75EB030E22BF8F
:107E2000B61A754640EA9C005B084FEA3202B6EB90
:107E3000020E75EB030E22BFB61A754640EADC004F
:107E400055EA060E18D04FEA051545EA16754FEAB1
:107E500006164FEAC30343EA52734FEAC2025FEACF
:107E60001C1CC0D111F4801F0BD141EA00014FF05E
:107E700000004FF0004CB6E711F4801F04BF01432F
:107E80000020B4F1FD0C88BFBCF5E06F3FF6AFAE4B
:107E9000B5EB030C04BFB6EB020C5FEA500C50F1DB
:107EA000000041EB045170BD0EF0004E4EEA11315E
:107EB00014EB5C04C2BFD4EB0C0541EA045170BD65
:107EC00041F480114FF0000E013C90E645EA060EA9
:107ED0008DE60CEA135594EA0C0F08BF95EA0C0FD7
:107EE0003FF43BAF94EA0C0F0AD150EA01347FF41F
:107EF00034AF95EA0C0F7FF425AF104619462CE7F6
:107F000095EA0C0F06D152EA03353FF4FDAE104658
:107F1000194622E750EA410618BF52EA43067FF4A9
:107F2000C5AE50EA41047FF40DAF52EA43057FF439
:107F3000EBAE12E74FEA4102B2F1E04324BFB3F5E2
:107F4000001CDCF1FE5C0DD901F0004C4FEAC002D0
:107F50004CEA5070B2F1004F40EB830008BF20F0B4
:107F60000100704711F0804F21D113F13872BCBF6E
:107F700001F00040704741F480114FEA5252C2F1C3
:107F80001802C2F1200C10FA0CF320FA02F018BF0C
:107F900040F001004FEAC1234FEAD32303FA0CFC5F
:107FA00040EA0C0023FA02F34FEA4303CCE77FEAEE
:107FB000625307D150EA01331EBF4FF0FE4040F438
:107FC0004000704701F0004040F0FE4040F40000E7
:107FD000704700BF0A22002100F026BA10B5054CF8
:107FE00013462CB10A4601460220AFF3008010BDB3
:107FF000204610BD0000000038B5074B1C68E36B3D
:1080000005461BB92420FDF7A5FDE063E16B28467A
:10801000BDE8384000F002B890E103202DE9F041BE
:108020000C46804600F006FD21460746404600F01B
:1080300005FD466906F26C76B307044605D1642255
:1080400096FBF2F302FB13634BB94FF4C87596FB32
:10805000F5F305FB1365B5FA85F35B0900E0012331
:108060005F4A302505FB032500F018FB00F018FBE4
:108070005C4B1B68F3B17B689E4205D13968D8F828
:108080000030FA6941B90AE0304600F05FFA002892
:10809000F4D14FF0FF330DE0934208DB01E093424F
:1080A00007DABA6B9342ACBF0023012302E000233E
:1080B00000E001232362236A012B0CBFF96B396AAC
:1080C0004FF461633C2091FBF3F603FB16136168E8
:1080D00093FBF0F200FB12302368891AA2686160FA
:1080E0001B1A921B3B2B2360A26003DD01316160F0
:1080F0003C3B04E0002B03DA013961603C33236030
:1081000063683B2B03DD0132A2603C3B04E0002BA3
:1081100003DA013AA2603C336360A368172B22DDC7
:10812000E2690132E261A2690132062AC8BF002277
:10813000A261E268183B0132A3602369E26055F84E
:1081400023108A4246DD01330C2B0CBF6369236187
:10815000A2EB0102E26001BF0133002222616361F0
:1081600008BFE26136E0002B34DAE269013AE261ED
:10817000A269013A48BF0622A261E2681833013AB7
:10818000E260A36032BB2369013B01D423611DE09F
:108190000B23236163695A1E12F0030F626103F21D
:1081A0006B7305D1642193FBF1F201FB12324AB9E2
:1081B0004FF4C87193FBF1F201FB1233B3FA83F36E
:1081C0005B0900E0012303F5B673E361236955F809
:1081D0002330E36000F063FA2046BDE8F08100BF81
:1081E0006C940D00E4E7032010B5431E0A4491424D
:1081F00004D011F8014B03F8014FF8E710BD024419
:108200000346934202D003F8011BFAE770470000CF
:1082100038B5124B1C68A36B0546D3B91820FDF77F
:1082200099FC43F20E33A06303804AF6CD334380BA
:1082300041F2342383804EF26D63C3804DF6EC63CC
:108240000381052343810B23838101220023C0E99D
:108250000423A36B00221D615A6138BD90E1032005
:1082600010F8012B11F8013B012A28BF9A42F7D0E0
:10827000D01A7047034611F8012B03F8012B002A8E
:10828000F9D17047024B0146186800F003B800BFEF
:1082900090E1032070B5064608460C4600F00DF844
:1082A000451C29463046FDF785FC064618B12A468E
:1082B0002146FFF799FF304670BD034613F8012BA6
:1082C000002AFBD1181A0138704730B582B1451E1B
:1082D000013915F8013F11F8014FA34206D1EC43D3
:1082E0001444E04201D0002BF3D11C46181B30BDD2
:1082F000104630BD10B5034642B111F8014B03F8EA
:10830000014B013A002CF7D11A4400E010BD934212
:1083100002D003F8014BFAE710BD00002DE9F04749
:1083200080464048D0F800900F463D4615F8014B76
:1083300009EB0400407800F0080000F0FF0608B1E7
:108340002F46F2E72D2C03D1BD1C7C78012603E0DB
:108350002B2C04BF7C78BD1C13B1102B0AD15BE021
:10836000302C57D1287800F0DF0058284DD16C7898
:1083700010230235002E14BF4FF0004C6FF0004C5C
:108380000027BCFBF3FA384603FB1ACC09EB040EBA
:108390009EF801E01EF0040F01D0303C0BE01EF00F
:1083A000030E1BD0BEF1010F0CBF4FF0370E4FF084
:1083B000570ECEEB0404A34210DDB7F1FF3F0AD005
:1083C000504506D801D1644503DC03FB004001277A
:1083D00001E04FF0FF3715F8014BD7E77B1C0CD1BC
:1083E000002E4FF0220314BF4FF000406FF000400A
:1083F000C8F800302AB9BDE8F08706B1404272B132
:1084000007B1691E1160BDE8F0873024002BB1D19F
:108410000823AFE70A23ADE7302CA3D0AAE7BDE8D5
:10842000F08700BF2CE1032013460A4601460248AC
:108430000068FFF773BF00BF90E103202DE9F0470C
:1084400080463C48D0F800900E46354615F8014B62
:1084500009EB0400407800F0080000F0FF0708B1C5
:108460002E46F2E72D2C03D1B51C7478012703E0CA
:108470002B2C04BF7478B51C13B1102B0AD153E018
:10848000302C4FD1287800F0DF00582845D16C7887
:10849000102302354FF0FF3C0026BCFBF3FC03FB2E
:1084A0000CFA6FEA0A0A304609EB040E9EF801E066
:1084B0001EF0040F01D0303C0BE01EF0030E1AD06A
:1084C000BEF1010F0CBF4FF0370E4FF0570ECEEB41
:1084D0000404A3420FDD002E08DB604506D801D15D
:1084E000544503DC03FB0040012601E04FF0FF365A
:1084F00015F8014BD8E7002E07DA2223C8F8003020
:108500004FF0FF302AB9BDE8F08707B1404272B1A1
:1085100006B1691E1160BDE8F0873024002BB9D187
:108520000823B7E70A23B5E7302CABD0B2E7BDE8A4
:10853000F08700BF2CE1032013460A46014602489B
:108540000068FFF77BBF00BF90E103202DE9F74FE4
:10855000044600F06FFA40F2B1739C4240F39680FB
:108560006FF4F663E318A4F2B2729B1040F26D153B
:1085700005FB0235A4F26D726FF0630392FBF3F317
:108580006FF4C8622B44A5184FF4C87295FBF2F53E
:108590001D44642394FBF2F794FBF3F602FB1747A8
:1085A00003FB164600F13803B7FA87FE019304F087
:1085B000030344604FEA5E1E014600934FF0070C30
:1085C0000B7A4A2B0ED14B69009AEC1802B906B906
:1085D00027B93B2BD4BF0023012300E00023234411
:1085E000013B3FE0442B02D14B692B443AE0009B16
:1085F0002BB9002E0CBFF0464FF0010800E0F0460A
:10860000244BCC68302202FB0838A8F1040AA946A2
:108610000123A34204DA5AF804BF0133D944F8E72E
:1086200009F1040393FBFCFBCBEBCB0A012CCAEB57
:10863000030A4B69B8BF012404F18044B3EB0A0A72
:108640000B6904F1FF3403F1FF3348BF0AF1070A55
:10865000C3EBC30358F824405344A34201DB073B58
:10866000FBE74B448C690C4A02FB03430C6A23442E
:1086700041F81C3F019B9942A2D1C369826B93428E
:10868000ACBF002301230360012000E0002003B001
:10869000BDE8F08F6C940D00805101007047704769
:1086A000014B186800F002B890E103202DE9F04F6B
:1086B0008DB0074600F0BEF9B049B14E04463846C9
:1086C00000F0B0F9054660B9AE4BAF4A1860AF4B49
:1086D0001860AF4B30681A605A60FDF743FA356096
:1086E00048E1316879B93068FDF73CFA2846FFF770
:1086F000E4FD411C3846FDF75DFA306048B129467B
:10870000FFF7B8FD05E0FFF7ABFD002800F0328170
:10871000E9E72B789F4AA0493A2B08BF01350AAEFA
:1087200033462846FDF72EFA002840F323810A9BA2
:10873000EF18EB5C2D2B03D101374FF0FF3503E031
:108740002B2B08BF013701250DF1200A0DF11E0B5F
:108750004FF000080396CDF808A00196CDF800B0C0
:10876000334607AA8D49ADF81E803846ADF8208003
:10877000FDF708FA404540F3FD80BDF81E20BDF826
:108780002030DFF824923C2101FB0233BDF81C208D
:108790004FF4616101FB02335D4325627C4D7D4BEB
:1087A0002B600A9B7C491F444A4633463846FDF7F6
:1087B000E9F9404508DC2B686B60724B226A1A604D
:1087C000724BC3F80080D5E00A9BC5F80490FD18F1
:1087D000FB5C2D2B03D101354FF0FF3703E02B2B32
:1087E00008BF013501270023ADF81C30ADF81E305D
:1087F000ADF820300A930396CDF808A00196CDF885
:1088000000B0334607AA65492846FDF7BBF90028A2
:1088100004DC236AA3F56163E3630EE0BDF81E2068
:10882000BDF820303C2101FB0233BDF81C204FF481
:10883000616101FB02335F43E7630A9B27461D44E6
:108840004FF000092B782C2B08BF013595F80080DC
:10885000B8F14D0F26D10DF12603029309AB009319
:108860000396019633460DF122024D492846FDF745
:1088700089F903287ED1BDF822104B1E0B2B79D825
:10888000BDF82420531E042B74D8BDF82630062BC7
:1088900070D887F80880F9603A617B610A9B05EB24
:1088A00003082AE0B8F14A0F06BF013543464423C6
:1088B0000A220BA928460593FFF73EFEDDF82C801F
:1088C000ADF826004545059B14D14D23B9F1000FA5
:1088D00007D123720323E36002232361C4F81490B9
:1088E0000BE084F824300B23A3620123E36200230E
:1088F000236302E080B23B7278610223ADF81C3042
:108900000023ADF81E30ADF820300A9398F80030FF
:108910002F2B0BD10396CDF808A00196CDF800B00F
:10892000334607AA1F494046FDF72CF9BDF81E2023
:10893000BDF820303C2101FB0233BDF81C204FF470
:10894000616101FB0233BB610A9D09F10109B9F1C3
:10895000020F454407F11C077FF474AF6068FFF70E
:10896000F5FD084B226A1A60E36B9B1A074A18BF91
:10897000012313600DB0BDE8F08F00BFCC940D0053
:10898000E0E70320E8E70320CF940D00E4E70320AD
:1089900094E10320D3E70320D3940D00F6940D0057
:1089A000E2940D00F5940D00C8E703202DE9F84F7F
:1089B00007468B46904600F0D9F8194B1D689A4639
:1089C0003DB15C46234613F8012B42B13D2A1C46BB
:1089D000F8D1384600F0CBF80020BDE8F88FCBEB9B
:1089E0000404A94659F8040B0028F2D0224659463F
:1089F000FFF76BFC88B959F8043C1E191B5D3D2B31
:108A00000BD1DAF80030ED1AAD103846C8F8005036
:108A100000F0ADF8701CBDE8F88F4D46E1E700BFEF
:108A2000DCE1032007B501AAFFF7C0FF03B05DF842
:108A300004FB0000004870479CE103200268474B9C
:108A4000F0B592FBF3F403FB1422002ABCBF02F53D
:108A5000A83202F5C0724FF4616004F52F2492FB36
:108A6000F0F300FB13224FF03C00ACBF04F66C2483
:108A700004F66B248B6092FBF0F300FB13224B6037
:108A80000A600723E21C92FBF3F3C3EBC303D31A80
:108A90008B61334B334D94FBF5F503FB054448F6EE
:108AA000AC62B4FBF2F2224440F2B457B4FBF7F3E9
:108AB000D21A2D48B4FBF0F048F69466131AB3FBB3
:108AC000F6F6344440F26D12B3FBF2F0B3FBF7F369
:108AD000E31A02FB1033992403EB83020232B2FB48
:108AE000F4F20A2A04FB02F404F102064FF0050432
:108AF000B6FBF4F434BF02266FF0090616444FF4B7
:108B0000C87202FB05055F1C012E98BF0135B3F545
:108B1000997FA7EB040702D3A3F5997214E08207AB
:108B200005D16424B0FBF4F204FB12024AB94FF4FD
:108B3000C872B0FBF2F402FB1400B0FA80F25209E2
:108B400000E001223B331A44A5F26C750023CA6190
:108B50004D610E61CF600B620846F0BD805101008F
:108B60004FC5FDFFB13A0200B03A020070477047AE
:108B700021400D005D400D0089400D008D400D002D
:108B80000000000053746172747570205375636344
:108B900065737366756C0000000000000000000043
:108BA00000000000000000000000000000000000C5
:108BB00000000000000000000000000000000000B5
:108BC0000000000002000000257320533A25322ED9
:108BD000306625252C20513A25322E306625252059
:108BE0000025342E316620430025342E31662025A1
:108BF000250025692025250041542B4346554E3D2F
:108C000031360D0A007B2254656D70657261747592
:108C10007265223A25342E31662C202248756D6902
:108C200064697479223A25342E31662C2022536FE0
:108C3000696C6D6F69737475726531223A25692CA0
:108C40002022536F696C6D6F69737475726532227F
:108C50003A25692C202277617465725072657373AE
:108C6000757265223A25692C2022536F6C656E6FF0
:108C70006964223A25692C202242617474657279F4
:108C8000223A25692C2022526573657473223A2595
:108C9000692C2022416C65727473223A25697D002B
:108CA0005277616E64612D53656E73652D416E64FC
:108CB0002D436F6E74726F6C004E6F20446174614F
:108CC00000556269646F747320486F6F6B00526562
:108CD00073706F6E736520526563656976656400B5
:108CE000556E6B6E6F776E20726573706F6E736505
:108CF0002072656365766965642025690053657433
:108D000020536F6C617220506F7765726564204DDF
:108D10006F6465003000436C656172656420536F59
:108D20006C617220506F7765726564204D6F646569
:108D3000004E6F20536F696C2053656E736F7273B2
:108D4000004F6E6520536F696C2053656E736F72B0
:108D50000054776F20536F696C2053656E736F7288
:108D600073004E6F20507265737375726520536582
:108D70006E736F72004F6E652050726573737572FB
:108D8000652053656E736F72005965730079657362
:108D9000006E6F004E6F004E6F20536F6C656E6FEC
:108DA000696420417474616368656400536574206C
:108DB000566572626F7365204D6F646500436C6524
:108DC0006172656420566572626F7365204D6F64D1
:108DD00065004C6F7720506F776572004E6F726D33
:108DE000616C204F7065726174696F6E73004F6EB5
:108DF000004F70656E207468652056616C76650062
:108E0000536F6C656E6F6964004F666600436C6FEC
:108E10007365207468652076616C7665002569202D
:108E20006D5365630046726F6D20257320746F204B
:108E30002573005374617465205472616E73697494
:108E4000696F6E00737061726B2F6465766963651C
:108E50002F73657373696F6E2F656E6400476F695A
:108E60006E6720746F20536C656570005374617475
:108E700065004C6F772042617474657279202D20F3
:108E8000536C656570696E67004572726F7220532E
:108E900074617465202D205265736574004572728B
:108EA0006F72205374617465202D20506F77657246
:108EB000204379636C65004572726F722053746150
:108EC0007465202D2046756C6C204D6F64656D2097
:108ED0005265736574004572726F722074616B69BC
:108EE0006E67204D6561737572656D656E74730094
:108EF0005369676E616C005265736574436F756E7C
:108F0000740052656C656173650053746174654FDC
:108F10006643686700506F776572436F6E7465785B
:108F200074004C6F77506F7765724D6F64650054B5
:108F3000656D70657261747572650048756D696400
:108F400069747900536F696C4D6F697374757265DC
:108F50003100536F696C4D6F6973747572653200BF
:108F60005072657373757265004D656173757265D6
:108F70002D4E6F7700536F6C61722D4D6F646500DD
:108F8000566572626F73652D4D6F646500436F6E39
:108F9000746F6C56616C766500536574486F6C64D1
:108FA00054696D6500536574536F696C53656E73D6
:108FB0006F72730053657450726573737572655385
:108FC000656E736F7200536F6C656E6F696450727B
:108FD0006573656E7400436F756C64206E6F7420EA
:108FE00066696E64205348543331004661696C658C
:108FF0006420746F20636F6E6E65637400537461D8
:109000007274757000556E6B6E6F776E004E6F6E7A
:109010006500576946690047534D00554D5453004C
:1090200043444D41004C5445004945454538303294
:109030003135340031350000000000000000000030
:1090400000000000875C0D007D5C0D00735C0D006E
:10905000295C0D00675C0D005B5C0D004F5C0D0032
:10906000475C0D003D5C0D00335C0D00BD690D00DB
:109070000000000000000000355D0D00955D0D0052
:10908000375D0D00D95D0D003D5D0D00A55D0D0046
:10909000695D0D00635E0D00FCFFFFFF0000000036
:1090A0008D5E0D000000000000000000955E0D00C8
:1090B0009B5E0D00F15E0D00A95E0D00975E0D0038
:1090C000000000000000000007650D00FD640D00B9
:1090D000F3640D00E9640D00DD640D00D1640D0042
:1090E000C5640D00BD640D00B3640D00A9640D00DE
:1090F000BD690D00000000000000000009660D00C1
:1091000053660D002B660D000B660D0033660D00D7
:109110003B660D0043660D004B660D00000000002D
:10912000000000000B670D00FB660D00FD660D00E2
:10913000626175640053657269616C0053657269A0
:10914000616C31007479706500706172616D0063EB
:109150006D6400686E64007374726D0066696C748F
:10916000006C766C0061646448616E646C657200CA
:1091700072656D6F766548616E646C657200656ED0
:10918000756D48616E646C657273004A534F4E533F
:10919000747265616D4C6F6748616E646C657200D6
:1091A00061707000253031307520005D200025642D
:1091B000002C200028293A2000205B00636F6465A2
:1091C000203D200064657461696C73203D20006C53
:1091D0006E00666E00636F64650064657461696C3F
:1091E000006E6F6E6500747261636500696E666F14
:1091F000007761726E006572726F720070616E69E5
:109200006300616C6C0000000000000000000000C2
:109210004F680D0045680D003B680D0031680D007A
:1092200025680D0019680D000D680D0005680D001A
:10923000FB670D00F1670D00BD690D000000000027
:109240000000000055690D005F690D0069690D009F
:1092500073690D007D690D0089690D0095690D0028
:10926000A1690D00A9690D00B3690D00BD690D006C
:109270000000000000000000856B0D00876B0D00F2
:10928000252B3033643A253032750025592D256D54
:109290002D25645425483A254D3A2553257A0061F9
:1092A000736374696D650000000000000000000039
:1092B000D56F0D0025700D0033700D009D6A0D00F7
:1092C000E96F0D000B700D00F76F0D001F700D00A2
:1092D000D76F0D00DB6F0D000000000000000000E4
:1092E000DD700D002D710D003B710D009D6A0D00AC
:1092F00019710D00DF700D00F5700D0027710D0064
:109300000B710D00D9700D0000202020202020209E
:109310002020282828282820202020202020202025
:109320002020202020202020208810101010101035
:109330001010101010101010100404040404040481
:10934000040404101010101010104141414141411B
:1093500001010101010101010101010101010101FD
:10936000010101011010101010104242424242420D
:1093700002020202020202020202020202020202CD
:109380000202020210101010200000000000000075
:1093900000000000000000000000000000000000CD
:1093A00000000000000000000000000000000000BD
:1093B00000000000000000000000000000000000AD
:1093C000000000000000000000000000000000009D
:1093D000000000000000000000000000000000008D
:1093E000000000000000000000000000000000007D
:1093F000000000000000000000000000000000006D
:10940000000000000000000000000000000000005C
:10941000000000000000000000000000000000004C
:10942000000000000000000000000000000000003C
:10943000000000000000000000000000000000002C
:10944000000000000000000000000000000000001C
:10945000000000000000000000000000000000000C
:109460000000000000000000000000001F000000DD
:109470001C0000001F0000001E0000001F00000074
:109480001E0000001F0000001F0000001E00000062
:109490001F0000001E0000001F0000001F00000051
:1094A0001D0000001F0000001E0000001F00000043
:1094B0001E0000001F0000001F0000001E00000032
:1094C0001F0000001E0000001F000000545A00474B
:1094D0004D54002531305B5E302D392C2B2D5D2510
:1094E0006E004D256875256E2E256875256E2E2516
:1094F0006875256E002F256875256E3A25687525D7
:109500006E3A256875256E00E1520D0051550D002B
:10951000195C0D00055D0D0011650D00E1670D0082
:1095200005690D00896A0D00696B0D00956E0D00CF
:10953000C16F0D00B9740D0011750D00D5750D00CA
:1095400059760D00DD760D000000000000000000DF
:049550000000000017
:10955400496E697469616C697A650000000045723E
:10956400726F7200000000000000000049646C6526
:10957400000000000000000000004D65617375727A
:10958400696E6700000000005265706F7274696E46
:10959400670000000000526573706F6E736520579A
:1095A40061697400536C656570696E670000000042
:1095B40000004C6F7720426174746572790000007A
:1095C4000100000005900D000D900D0012900D009B
:1095D40017900D001B900D0020900D0025900D009C
:1095E40029900D009F920D0008930D0000000000CB
:1095F4000C940D002C940D004C940D000000000000
:10960400000000000000000000000000E78B0D00D7
:109614000000000000000000000000000000000046
:109624000000000000000000000000000000000036
:109634000000000000000000000000000000000026
:1096440000000000000000000000000030E10320E2
:10965400CF940D00CF940D00010000000000000025
:109664004A000000000000000000000000000000AC
:109674000000000000000000000000004A0000009C
:1096840000000000000000000000000000000000D6
:0C9694000000000000000000ECE70320D4
:1096A000FFFFFFFFD5290F0000000102030405069C
:1096B0000708090A0B0C0D0E0F10111213141516C2
:0C96C0001718191A1B1C1D1E1F20280063
:0496CC007856341286
:04000003D0004020C9
:00000001FF
