:02000002D0002C
:1040000000400D0028990D00000006000D0005017C
:0840100004017E050000000020
:04401800EC8D0D001E
:1040200009480A49884208B505D0094A824202D0A7
:10403000121A04F017FA0748074A0021121A04F06E
:104040001CFA014808BD00BFE8E00320B0970D004E
:1040500034E2032034E20320F0E7032070B503F0DC
:104060002FFA074C074BE41AA40800251E46A54268
:1040700004D056F8253098470135F8E770BD00BFE9
:10408000A8970D0068970D0000F0ECBE08B500F091
:10409000E7FCBDE8084003F0E1B901F0C1BC01F064
:1040A000C7BC01F0C5BC0078B0FA80F04009704789
:1040B000012303707047000008B5044902F051FF66
:1040C00018B1034B03221A70012008BD48900D005F
:1040D00075E2032001F036BA01F03CBA37B59DF81D
:1040E000184023438DF800303C23054601F0A8FF1B
:1040F000284603B030BD000030B58FB0124904A887
:1041000001F034FD04A801F084FD044604A801F088
:10411000E9FD04A810EE105A01F0CAFD10EE100AD5
:1041200003F0A4FDCDE90201284603F09FFDCDE98F
:104130000001064B064A53F824300648402101F09E
:1041400097FC0FB030BD00BF2CE303205CE10320DF
:10415000408E0D0090E203202DE9D0431A48002341
:104160001A461946406801F02BFC01F0C1FB4FF4E0
:10417000967440F2E7360027002001F003FA4FF072
:1041800000098046002001F0FDF9B0EB080061EB6A
:1041900009018F4208BF864205D301F0B9FB10B96F
:1041A00001F09EFBEEE701F0B3FB18B1BDE8D04390
:1041B00001F0AEBB01F0AEF9044B186001F090FBCA
:1041C000013CF3D0D8E700BF2CE30320CCE603206A
:1041D00008B501F09DFB80F00100C0B208BD0000F1
:1041E000F8B501F08DFB002001F0CCF90025044664
:1041F00043F697260027002001F0C4F9001B61EB6D
:1042000005018F4208BF864205D3FFF7E1FF10B9D1
:1042100001F066FBEFE7FFF7DBFF064800231A46D5
:104220001946406801F0D4FB4FF4FA6001F044FCF9
:104230000120F8BD2CE303201FB51F4802F07CFBD2
:104240001D4802F03DFD1D4B1C781D4BBCB11422D6
:1042500041F2E82118481A6002F0F0FB4FF4617156
:10426000154802F075FC002211460292019200925C
:104270000123114802F0CBFC41F2700116E01E222E
:1042800041F270010C481A6002F0D8FB40F2DC5198
:10429000094802F05DFC0123214602940194009438
:1042A0001A46054802F0B3FC41F21001024804B07E
:1042B000BDE8104002F0DEBC76E2032010E30320EC
:1042C00048E2032010B5074C01F024F92368C01A16
:1042D000B0F57A7F04D301F01DF92060012010BDF4
:1042E000002010BDF8E2032008B5FFF7EBFF18B17E
:1042F000BDE80840FFF7E6BF01F0F2FAF5E700007D
:1043000037B501F0FDFA01F005F943F697250446AB
:1043100001F0FEFA40B101F0FDF8001BA84203D8FD
:10432000642001F0C9FBF3E70021094B47F230524A
:10433000084601F09FF84FF47A7001F0BDFB054B81
:104340000A221B680121684602F03EFE03B030BD20
:10435000598E0D00E0E2032038B5046805467CB1B3
:104360006368013B63605BB9236820469B6898479C
:10437000A368013BA3601BB923682046DB6898470C
:10438000284638BD00B5214BCFB01B680A93204B9F
:104390001B6809931F4B1B6808931F4B1B680793EF
:1043A0001E4B1B6806931E4B1B6805931D4B1B6819
:1043B00004931D4B186803F059FCCDE902011B4B17
:1043C000186803F053FC1A4ACDE900014FF48071DC
:1043D0000EA801F04DFB174B17491B7800228DF8F2
:1043E00000200CA80EAAFFF779FE0DA8FFF7B4FF76
:1043F00002F0F2FE114B1870114B01221A7001F0FD
:1044000089F8104B18604FB05DF804FB78E2032088
:10441000D0E2032088E20320E4E2032024E3032027
:10442000DCE20320D8E203208CE20320F4E2032044
:10443000668E0D0050E20320018F0D00D4E20320B0
:1044400058E103204CE20320F0B585B0084602AFE6
:104450000E4604F070F800F1080323F007036D46E0
:10446000ADEB030D02AC421C3146204604F080F84F
:104470009DF808604EB901F04BFA002837D01E4B6A
:104480001E4A1B788DF800602AE0204603F0E0FE0B
:10449000C83801281BD801F03BFA60B1164B184907
:1044A0001B7800228DF800203846164AFFF716FECA
:1044B000381DFFF751FF03F0ADF802F086FEC1B2E0
:1044C0000520FFF709FE104B00221A700FE001F0E3
:1044D0001FFA60B1084B00221B788DF8002022469D
:1044E00038460A49FFF7FAFD381DFFF735FF0C374C
:1044F000AD46BD46F0BD00BF50E20320188F0D0051
:104500003F8F0D002D8F0D0058E10320208F0D00EF
:1045100030B54648464C85B000F086FF10EE100AD4
:1045200084ED000A03F0A2FB424ACDE9000110210C
:10453000414801F09DFA3D4800F084FF3F4B10EEEA
:10454000100A83ED000A03F091FB3D4ACDE900011A
:1045500010213C4801F08CFA132003F044F8642544
:104560000023194640F68A62009501F099FA364B0D
:104570001860122003F037F80023194640F68A62CB
:10458000009501F08DFA314B1860112003F02BF8E3
:104590001E2300934FF4306200234FF4D67101F0D4
:1045A0007FFA2B4B18602B4B00221146586801F004
:1045B000FFF908B1FFF7A0FD274801F04DFF274A9A
:1045C0002748FDEEC07A1021C2ED007A17EE903A2E
:1045D000244A01F04DFAD4ED007AF5EEC07AF1EEFE
:1045E00010FA06D49FED207AF4EEC77AF1EE10FAB5
:1045F00018DD1E491E4803F07BFF1E4802F0F0FA4A
:10460000FFF772FE01F084F960B11B4B1B491B7868
:1046100000228DF8002002A8194AFFF75FFD03A8C9
:10462000FFF79AFE012005B030BD00BF7CE20320F9
:10463000F4E20320458F0D0038E203208CE20320D2
:104640004D8F0D0000E30320D8E20320DCE20320BD
:1046500024E303202CE303206CE2032088E2032000
:1046600011E30320568F0D00000034425C8F0D00D3
:1046700051E2032076E2032050E203208C8F0D00EC
:104680006E8F0D0030B5244985B0054602F069FCF7
:104690000446D0B1214B224D01241C7002F0BAFF18
:1046A0000420FFF717FD40F00400287002F0B2FF6D
:1046B00029780420FFF710FDFFF7BEFD194B0022FB
:1046C0001B788DF80020184A1CE01849284602F093
:1046D00048FCF8B1114B124D1C7002F09BFF0420F6
:1046E000FFF7F8FC20F00400287002F093FF29780F
:1046F0000420FFF7F1FCFFF79FFD0A4B0C4A1B78E3
:104700008DF800400B4902A8FFF7E8FC03A8FFF76B
:1047100023FE012005B030BD48900D0010E30320BA
:1047200021E3032050E20320928F0D00A98F0D009A
:10473000AB8F0D00C18F0D0030B5224985B0054605
:1047400002F00FFC0446C0B11F4B204D01241C7029
:1047500002F060FF0420FFF7BDFC40F00800287065
:1047600002F058FF29780420FFF7B6FC184B00220E
:104770001B788DF80020174A1AE01749284602F0E6
:10478000F0FBE8B1104B114D1C7002F043FF042008
:10479000FFF7A0FC20F00800287002F03BFF29780A
:1047A0000420FFF799FC0A4B0C4A1B788DF8004057
:1047B0000B4902A8FFF792FC03A8FFF7CDFD0120EB
:1047C00005B030BD48900D00EFE2032021E3032047
:1047D00050E20320C68F0D00A98F0D00D78F0D006A
:1047E000C18F0D0030B5CDB00A2205A9006803F0D5
:1047F00059FFC4B204F10C03DBB2182B3DD843B20D
:1048000007EE903AB8EEE70A03931D4D02F07EFCE6
:1048100002F000FF21460320FFF75EFC0024039B0B
:10482000184A4FF480710CA801F022F92B78164930
:104830008DF800400CAA08A8FFF750FC09A8FFF764
:104840008BFD4FF47A7001F037F902F0BEFC01469F
:1048500008A802F077FC089B0393039A2B780A4977
:104860008DF8004006A8FFF739FC07A8FFF774FD94
:1048700008A802F002FB012000E000204DB030BD8E
:1048800050E20320EC8F0D0000900D007FB526490B
:10489000054602F066FB28B92449284602F061FB70
:1048A00000283FD002F0B6FE0420FFF713FC204C96
:1048B0001D492070284602F054FB0646A0B11D4B4E
:1048C0001D491B7800228DF8002002A81B4AFFF723
:1048D00005FC03A8FFF740FD237843F00103237094
:1048E000174B01221A7016E01049284602F039FBD6
:1048F00088B1104B134A1B780F498DF8006002A84D
:10490000FFF7ECFB03A8FFF727FD237803F07E03F6
:1049100023700B4B1E7002F07DFE04202178FFF700
:10492000DBFB012004B070BD48900D00A98F0D0085
:1049300021E3032050E20320C18F0D0005900D00FC
:10494000EEE203200F900D007FB52049054602F0EE
:1049500008FB064670B10021032002F018FE012179
:10496000022002F014FE1A4B00221B788DF8002062
:10497000184A21E01849284602F0F3FA044648B1E3
:104980000121032002F003FE114B144A1B788DF81D
:10499000006011E01249284602F0E3FAA0B1214676
:1049A000032002F0F4FD2146022002F0F0FD084B46
:1049B0000C4A1B788DF800400B4902A8FFF78EFBCC
:1049C00003A8FFF7C9FC012004B070BD48900D009A
:1049D00050E2032021900D00A98F0D0030900D00B2
:1049E00047900D004A900D00BF910D0030B5164D57
:1049F000164C17492A7820788FB00E2303FB021239
:104A0000009203FB0013134A282104A801F030F898
:104A10002B78237000F07CFF70B1FFF765FC0E4B24
:104A20000E491B7800228DF8002002A804AAFFF787
:104A300055FB03A8FFF790FC02F0CCFC04A902F0A0
:104A40008BF90FB030BD00BF75E2032074E2032084
:104A5000E8E003205A900D0050E2032068900D001A
:104A600070B5A14C2378013B88B0062B00F2D881A9
:104A7000DFE813F0620107002D005C007D00AF004D
:104A8000F7009A4B1B782BB1994B1B78022B01D066
:104A9000FFF7ACFF974B1B7843B100F03BFD964B03
:104AA0001B68C01A954B984200F2B78102F094FB44
:104AB000934B1B7898421CBF03232370914B1A68B9
:104AC000914B1B689A4200F3AB8107232CE0874B84
:104AD0001A781D462AB1864B1B78032B01D0FFF7AD
:104AE00085FFFFF715FD0646E8B90123237000F0A6
:104AF00011FD864B18602B78002B00F0918100F09F
:104B000007FF002800F08C81FFF7EEFB804B814A05
:104B10001B7881498DF8006006A8FFF7DFFA07A827
:104B2000FFF71AFC7CE10423237079E16F4B1B78BB
:104B30002BB16F4B1B78042B01D0FFF757FF00F010
:104B4000E7FE68B102F048FB0C2805D100F0E0FE5A
:104B500010B1002000F0FCFEFFF714FC0523E3E792
:104B6000FFF7FAFA002840F05B810123DCE75F4B96
:104B70001B782BB15E4B1B78052B01D0FFF736FF5E
:104B8000664B1B782BB900F0C5FC5B4B1860022309
:104B9000CAE700F0BFFC624B1B68C01A4AF6C87334
:104BA000984240F23D8100F0B5FC584B186000F08F
:104BB000AFFE0028D9D0564B5A491B7800228DF8F9
:104BC000002006A8584AFFF789FA07A8FFF7C4FB98
:104BD000CBE7464B1A781D462AB1454B1B78062B6E
:104BE00001D0FFF703FF00F093FEB0B12B7873B153
:104BF000FFF77AFB464B48491B7800228DF80020CE
:104C000006A84A4AFFF76AFA07A8FFF7A5FB4FF480
:104C10007A7000F051FFFFF7E3FA0021072002F05D
:104C2000B6FC02F0E3FA424B1A680423ADF81430E4
:104C300008AB022603F80E6DC0F13C0002923C2244
:104C4000504301252A46019005A906A8009502F0C7
:104C5000EBF92946072002F09AFCFFF77DFA26704F
:104C6000DEE0224B1A781D462AB1214B1B78072B18
:104C700001D0FFF7BBFE00F04BFEB0B12B7873B153
:104C8000FFF732FB224B24491B7800228DF80020CD
:104C900006A8284AFFF722FA07A8FFF75DFB4FF4A2
:104CA0007A7000F009FFFFF79BFA0021072002F05D
:104CB0006EFC02F09BFA1E4B1A680423ADF8163006
:104CC00008AB022503F80D5DC0F13C0002923C22C6
:104CD00050430122019000920DF1160106A802F046
:104CE000A3F925709CE000BF75E20320EFE20320EA
:104CF00074E20320EEE20320F0E20320905F010063
:104D0000D4E2032088E2032048E20320FCE20320EF
:104D100050E2032005910D003F8F0D0058E1032064
:104D20004CE2032079900D00658E0D0092900D00ED
:104D3000E0E20320A1900D003A4B1B782BB13A4BD7
:104D40001B78012B01D0FFF751FE00F0E3FB374B3E
:104D50001B6803F5EA433033984261D9344B1B6832
:104D6000032B14DC00F0D4FD60B1324B32491B78C8
:104D700000228DF8002006A8304AFFF7AFF907A8F7
:104D8000FFF7EAFA4FF4FA6000F096FE25E002F031
:104D90001CFA044602F03EFC0520FFF79BF9201A9E
:104DA000B0F5E15F1CDD00F0B3FD60B1214B22499D
:104DB0001B7800228DF8002006A8214AFFF78EF903
:104DC00007A8FFF7C9FA4FF4FA6000F075FE02F089
:104DD00021FC00210220FFF77FF902F0F1F81FE02B
:104DE00000F096FD60B1134B13491B7800228DF83B
:104DF000002006A8134AFFF771F907A8FFF7ACFADD
:104E00004FF4FA6000F058FE02F004FC002102208A
:104E1000FFF762F9FFF774FA02E00623237045E614
:104E200008B070BDEFE2032074E20320FCE203202F
:104E3000D0E2032050E203203F8F0D00B8900D0018
:104E4000CC900D00E6900D000023042200F038BD48
:104E50000023022200F034BD0246014800F0CFBF1B
:104E6000D35D0D002DE9F041B44BB8B008AA03F1B1
:104E70001005164618685968144603C40833AB4237
:104E80002246F7D119889B78A3702D2221800DF13D
:104E900033000021AA4FDFF86083AA4D03F0EDFA3A
:104EA0000224012107203C7002F060FB0021042055
:104EB00002F05CFB0021B8F8000002F057FB002173
:104EC000288802F053FB0021112002F04FFB012142
:104ED0000E2002F04BFB01210E2002F058FB0121B5
:104EE000032002F043FB2046012102F03FFB012199
:104EF000032002F04CFB0021204602F048FB04A8EE
:104F000000F00EFD002400237D2218A904A802F061
:104F10003AF8234622468C490194009418A800F0E0
:104F20000FFD8A498A48FFF78FFF8A498A48FFF7B1
:104F30008FFF8A498A48FFF787FF8A498A48FFF727
:104F400083FF8A498A48FFF77FFF23460122894968
:104F5000894800F0B5FC89498948FFF775FF894900
:104F60008948FFF771FF41468848FFF771FF2946DE
:104F70008748FFF76DFF87498748FFF769FF874933
:104F80008748FFF769FF87497B48FFF765FF864938
:104F90008648FFF761FF86498648FFF75DFF86492F
:104FA0008648FFF759FF86498648FFF755FF02F00C
:104FB00031FB2046FFF78EF801280FD144218248AB
:104FC00000F09BF9F8B98149304603F091FA00F0FE
:104FD000A1FA7F4B186001233B7014E002F01AFB2A
:104FE0000125042202A92046029500F0BBFA02F036
:104FF00011FB2846042202A90135029400F0B2FAFE
:105000000A2DF4D1DAE702F005FB0220FFF762F87F
:10501000504C00222060114602A8029200F06AFA69
:10502000029B142B08D123680133236002F0F2FAAB
:1050300021780220FFF750F82368052B07DD02F0E6
:10504000E9FA04210220FFF747F8FFF759F902F0C7
:10505000E1FA0320FFF73EF800F10C03DBB2182B56
:105060009ABF43B200EE103A9FED5A0A414CDFF866
:105070008C81594D98BFB8EEC00A02F047F802F093
:10508000C9FA0420FFF726F800F001032370534B00
:1050900088F80000C0F38002C0F3C00028701A70C6
:1050A000FFF7CAF8042002F08BFA88B998F80030AC
:1050B000207023F0010388F8003002F0ABFA0421DD
:1050C00098F80000FFF708F84549304603F010FA59
:1050D000FFF71EFA434B1A68434B1B689A4202DCE7
:1050E00007233B700CE0FFF737F848B901233B700A
:1050F00000F010FA364B3D491860304603F0F8F9DD
:1051000000F006FC08B12B7853B902F063F9314680
:1051100001F022FE04A801F0B0FE38B0BDE8F08135
:10512000334B34491B7800228DF8002002A8324608
:10513000FEF7D4FF03A8FFF70FF9E6E7008E0D0096
:1051400075E20320DCE2032049440D0090E20320D5
:105150001F910D00D0E2032026910D003D920D001D
:1051600031910D0011E3032039910D0051E203202C
:1051700044910D00EEE2032051910D0038E203202E
:10518000808F0D0000E303205E910D0067910D00FC
:1051900075910D0024E3032083910D00B9400D00AB
:1051A0008C910D008D480D0085460D0098910D00E5
:1051B00039470D00A3910D00E5470D00B0910D009A
:1051C00049490D00BC910D007CE20320C8910D00FF
:1051D000FCE2032000000000EFE2032010E30320C4
:1051E000DD910D0088E2032048E20320F4910D00D8
:1051F00050E2032006920D00D8E2032021E30320B1
:10520000214B70B500241C60204B214E01251D70E0
:1052100000F0C0F902F06EF92346224642F6D5119D
:1052200002F070F902F066F9234622460B2102F0E3
:1052300071F9184B4FF6FF721C705C809A80022047
:1052400000F0E8FA2146284600F0FCFA2946124D03
:10525000042000F03FF92146284601F0BDF8284619
:105260000E4D0F49324602F04BFA2146284601F016
:105270007AFB324628460B4902F042FA0A48BDE85A
:10528000704000F017B800BFE0E2032050E20320B6
:1052900034E20320E8E203206CE2032076E20320FC
:1052A000F7630D0085690D007CE203200368C9B235
:1052B0009B681847704738B505460C4602F0BEF9A2
:1052C000297801F044F902F0B9F9210AFFF7EEFF5D
:1052D00002F0B4F9E1B2FFF7E9FF02F0AFF9BDE87F
:1052E000384001F03FB908B543F2A201FFF7E3FFF0
:1052F0000A20BDE8084000F0DFBB38B504460D4683
:1053000002F09CF901F00CF920462570FFF7EBFF45
:10531000012038BD0A44FF2091420ED011F8013B14
:105320005840082310F0800F4FEA400018BF80F06B
:105330003100013BC0B2F5D1EEE77047000000003C
:1053400073B54FF410510446FFF7B5FF4FF4FA70F0
:1053500000F0B2FB02F072F90622217801F0EFF8BA
:1053600002F06CF903681B69984706284AD10025AA
:1053700002F064F903685B6998470DF80500013590
:10538000062DF5D1022269462046FFF7C3FF9DF89E
:105390000250854236D102220DF103012046FFF76B
:1053A000B9FF9DF8055085422CD1BDF800009DF84D
:1053B00003609DF8045040BA80B202F035FC18A397
:1053C000D3E9002302F0A6FC11A3D3E9002302F0E5
:1053D000CBFD0022104B02F0E9FA02F0ADFEA06016
:1053E00045EA062002F020FC00220C4B02F092FC61
:1053F00007A3D3E9002302F0B7FD02F09DFE606031
:10540000012000E0002002B070BD00BFAFF30080BB
:1054100000000000E0FFEF400080464000005940DF
:105420000000000000E0654010B50446FFF788FF6B
:1054300010B194ED020A10BD9FED010A10BD00BF2E
:105440000000C07F10B50446FFF77AFF10B194ED5D
:10545000010A10BD9FED010A10BD00BF0000C07F12
:1054600000F098B808B5024B1B685B6C019308BD4F
:105470007402030008B5024B1B689B6C019308BDC6
:105480007402030008B5024B1B689B68019308BDBA
:105490004802030008B5024B1B681B69019308BD55
:1054A0004802030008B5024B1B685B69019308BD05
:1054B0004802030008B5024B1B681B6B019308BD33
:1054C0004802030008B5024B1B685B6C019308BDE2
:1054D0004802030008B5024B1B685B6E019308BDD0
:1054E0003402030008B5024B1B689B6E019308BD94
:1054F0003402030008B5024B1B68DB6E019308BD44
:105500003402030008B5024B1B685B68019308BDB9
:105510001802030008B5024B1B685B69019308BDC4
:105520001802030008B5024B1B68DB69019308BD34
:105530001802030008B5024B1B689B6A019308BD63
:105540001802030008B5024B1B68DB6A019308BD13
:105550001802030008B5024B1B681B6B019308BDC2
:105560001802030008B5024B1B689B6C019308BD31
:105570001802030008B5024B1B689B6D019308BD20
:105580001802030008B5024B1B68DB6D019308BDD0
:105590001802030008B5024B1B681B68019308BD85
:1055A0002C02030008B5024B1B685B68019308BD21
:1055B0002C02030008B5024B1B689B68019308BDD1
:1055C0002C02030008B5024B1B68DB68019308BD81
:1055D0002C02030008B5024B1B681B69019308BD30
:1055E0002C02030008B5024B1B685B69019308BDE0
:1055F0002C02030008B5024B1B681B6B019308BD0E
:105600002C02030008B5024B1B68DB68019308BD40
:105610002802030008B5024B1B685B69019308BDB3
:105620002802030008B5024B1B689B69019308BD63
:105630002802030008B5024B1B68DB69019308BD13
:105640002802030008B5024B1B681B6A019308BDC2
:105650002802030008B5024B1B685B6A019308BD72
:105660002802030008B5024B1B689B6A019308BD22
:105670002802030008B5024B1B68DB6A019308BDD2
:105680002802030008B5024B1B681B6B019308BD81
:105690002802030008B5024B1B685B6B019308BD31
:1056A0002802030008B5024B1B681B6C019308BD60
:1056B0002802030008B5024B1B689B6C019308BDD0
:1056C0002802030008B5024B1B68DB6C019308BD80
:1056D0002802030008B5024B1B685B69019308BDF3
:1056E0006402030008B5024B1B689B68019308BD68
:1056F0006802030008B5024B1B68DB68019308BD14
:105700006802030008B5024B1B68DB69019308BD02
:105710003002030008B5024B1B681B6A019308BDE9
:105720003002030008B5024B1B681B68019308BDDB
:105730003C02030008B5024B1B68DB68019308BDFF
:105740003C02030008B5024B1B681B69019308BDAE
:105750003C02030008B5024B1B685B69019308BD5E
:105760003C02030008B5024B1B689B69019308BD0E
:105770003C02030008B5024B1B68DB69019308BDBE
:105780003C02030008B5024B1B681B6A019308BD6D
:105790003C02030008B5024B1B689B6A019308BDDD
:1057A0003C02030008B5024B1B681B68019308BD4F
:1057B0004C02030008B5024B1B681B69019308BD2E
:1057C0004C02030008B5024B1B685B69019308BDDE
:1057D0004C02030008B5024B1B689B69019308BD8E
:1057E0004C02030008B5024B1B68DB69019308BD3E
:1057F0004C02030008B5024B1B681B6A019308BDED
:105800004C02030008B5024B1B681B68019308BDDE
:105810002002030008B5024B1B685B68019308BDBA
:105820002002030008B5024B1B685B69019308BDA9
:105830002002030008B5024B1B689B69019308BD59
:105840002002030008B5024B1B68DB6A019308BD08
:105850002002030008B5024B1B68DB6C019308BDF6
:105860002002030008B5024B1B685B6D019308BD65
:105870002002030008B5024B1B689B6D019308BD15
:105880002002030008B5034B1B68D3F8883001934E
:1058900008BD00002002030008B5034B1B68D3F8C5
:1058A0009430019308BD00002002030008B5034BAB
:1058B0001B68D3F8A030019308BD0000200203004C
:1058C00008B5024B1B681B68019308BD4402030026
:1058D00008B5024B1B685B68019308BD44020300D6
:1058E00008B5024B1B689B68019308BD4402030086
:1058F00008B5024B1B68DB68019308BD4402030036
:1059000008B5024B1B681B69019308BD44020300E4
:1059100008B5024B1B685B69019308BD4402030094
:1059200008B5024B1B68DB69019308BD4402030004
:1059300008B5024B1B681B6A019308BD44020300B3
:1059400008B5024B1B685B6A019308BD4402030063
:1059500008B5024B1B68DB6A019308BD44020300D3
:1059600008B5024B1B681B6B019308BD4402030082
:1059700008B5024B1B68DB6B019308BD44020300B2
:1059800008B5024B1B685B68019308BD4002030029
:1059900008B5024B1B689B68019308BD40020300D9
:1059A00008B5024B1B68DB68019308BD4002030089
:1059B00008B5024B1B681B69019308BD4002030038
:1059C00008B5024B1B685B69019308BD40020300E8
:1059D00008B5024B1B689B69019308BD4002030098
:1059E00008B5024B1B68DB69019308BD4002030048
:1059F00008B5024B1B681B6A019308BD40020300F7
:105A000008B5024B1B681B6B019308BD40020300E5
:105A100008B5024B1B685B6B019308BD4002030095
:105A200008B5024B1B681B68019308BD1C020300EC
:105A300008B5024B1B685B68019308BD1C0203009C
:105A400008B5024B1B689B68019308BD1C0203004C
:105A500008B5024B1B681B69019308BD1C020300BB
:105A600008B5024B1B689B69019308BD1C0203002B
:105A700008B5024B1B68DB69019308BD1C020300DB
:105A800008B5024B1B68DB6A019308BD1C020300CA
:105A900008B5024B1B681B6B019308BD1C02030079
:105AA0008A4230B507D0039D441AED1A6C43521A4E
:105AB00094FBF2F4E01830BD0021FFF7B3BE10B53F
:105AC000836804460BB901F022FEC3689847A368B7
:105AD0001BB1032221462046984720461021BDE8ED
:105AE000104001F012BE0B68036013B15A68013216
:105AF0005A607047024800230360FFF7E3BC00BF11
:105B000028E30320002211464068FFF751BF00221E
:105B100011464068FFF76CBF002211464068FFF74E
:105B200077BF00224068FFF76BBF002281F00101C0
:105B30004068FFF755BF00231A4619464068FFF733
:105B400047BF00231A4619464068FFF739BF0022B5
:105B500011464068FFF71CBF002202214068FFF792
:105B60001FBF00231A464068FFF70ABFF0B51B4B62
:105B7000036000250F462833182689B043608560EE
:105B8000C560324629460446103002F076FC2A46AB
:105B900029467868FFF70CFF08B9A0601BE029468A
:105BA000324602A80095019502F067FC02A96846FA
:105BB000ADF80860FFF756FC10B10123A3600AE0BE
:105BC000009B019AA360E2600BB90223A36002A9C3
:105BD000204600F0A1F8204609B0F0BD80920D00EB
:105BE00038B5084C28252A460021204602F045FCFD
:105BF0004FF0FF336360044B258004225A60034A50
:105C00001A6038BD34E303202CE303204C920D00CE
:105C10007047007D70470000037D1BB18369B3F1BD
:105C2000004F02D19FED050A704707EE903A9FEDB5
:105C3000047AF8EEE77A87EE870A704700000000E2
:105C40000000C842037D1BB1036AB3F1004F02D1CB
:105C50009FED050A704707EE903A9FED047AF8EE43
:105C6000E77A87EE870A7047000000000000C8420C
:105C700070B50D4606460A228168284601F0C7F82D
:105C80002C210446284601F058F80A220444F16801
:105C9000284601F0BCF8204470BDA0F10400FFF7D5
:105CA000E7BF10B52821044601F02FFD204610BDA6
:105CB000037D7BB1436A002B0CDB07EE903ADFEDEE
:105CC000076A9FED070AB8EEE77AC7EE267A27EE55
:105CD000800A7047BFEE000A704700BF00FF7F4791
:105CE0000000C842037D7BB1C369002B0CDB07EECB
:105CF000903ADFED076A9FED070AB8EEE77AC7EE44
:105D0000267A27EE800A7047BFEE000A704700BF70
:105D100000FF7F470000C84230B50D4600F1100477
:105D20000FCD0FC495E8030084E80300012030BDC7
:105D300070470020704710B51021044601F0E5FCC3
:105D4000204610BD08B508B1FFF7F5FF08BD10B536
:105D50008368044613B1032201469847204610BDCC
:105D60000022026010B54FF69C728280B1F90440A7
:105D700084808A8002680C6804600A6010BD10B5D7
:105D800004460068FFF754FE204610BD38B5C468CD
:105D9000F4B12378022B03D104F10C00FFF7EFFFDD
:105DA000656835B12846FFF7D2FF1021284601F07B
:105DB000ACFCA56835B12846FFF7C9FF102128467D
:105DC00001F0A3FC20461421BDE8384001F09DBC41
:105DD00038BD10B588B00446684601F095F86946AC
:105DE00004A801F0B3F804A8A047044604A801F0F1
:105DF00044F8684601F041F8204608B010BDF0B5FF
:105E0000102485B007460E461546002122466846F6
:105E100002F033FB002269461046ADF800400297BD
:105E200003960195FFF754FD05B0F0BD13B5044688
:105E300091E8050000234B600B602060626001A8C0
:105E400001930093FEF788FA204602B010BDF7B523
:105E50000C4602AD54F8043B45F8083D06460F4693
:105E600001A82146FFF73FFE29463046FFF7DEFF37
:105E700001A8FEF771FA2046FEF76EFA38460821AF
:105E800001F043FC304603B0F0BD13B50B460446A9
:105E900003C88DE8030093E8030084E803009DE84D
:105EA000030083E8030002B010BD000038B50023F2
:105EB0000446036010200D46FEF7EFF828B10123D9
:105EC00043608360024B0360C5602060204638BD9C
:105ED000B4920D00826810B50AB901F018FCC368CD
:105EE000BDE81040184708B5006800F11001FFF741
:105EF000F1FF08BD826810B50AB901F008FCC3685B
:105F0000BDE81040184708B5006800F11001FFF720
:105F1000F1FF08BD38B5002383608B6804460D4649
:105F20002BB102229847EB68E360AB68A360204680
:105F300038BD0000F0B589B004686846FFF710FF6F
:105F400000238DF808304FF00202D4E84F3F002BB9
:105F500003D1C4E8412F0029F7D102D08DF80830D1
:105F600063E014F10C0503D069462846FFF7F8FEFC
:105F7000BFF35F8F01236370002004F10803BFF3B8
:105F80005F8F53E8006F43E80002002AF9D1BFF3A6
:105F90005F8F002E49D0FFF75DFC20B129463046C7
:105FA000FFF798FF3AE0314602A8FFF7B3FFE06839
:105FB000B4F9105008B102F0A3FA06901020ADF821
:105FC0001C50FEF76AF80546E8B1002787601820E4
:105FD000FEF763F8044688B10146876002A8FFF720
:105FE00054FF049BA268A360059B049206A9E26883
:105FF000E36004F110000592FFF7B2FE0D4BEB6079
:106000000D4B2C60AB6006A8FFF7B9FE02A8FFF7A6
:106010009EFE002229460948FFF724FC3046FFF780
:1060200096FE1021304601F070FB6846FFF7A7FE90
:1060300009B0F0BDE75E0D005D610D00BF5A0D00B7
:106040002DE9F04F8BB006460F46904699469DF8D5
:1060500050A0FFF75DFC07AD834630BB4FF62E73B3
:10606000059005A92846ADF81830FFF779FE1420F1
:10607000FEF713F8044658B102230370012343705E
:10608000C0F804B0C0F808B029460C30FFF768FE2D
:106090003046214640F8044BFFF708FF2846FFF73B
:1060A0006EFE05A8FFF76BFE52E000240C231420BF
:1060B0006C60AC600793FDF7F0FF014618B1047007
:1060C00044704460846004A80391FFF7EFFE224B04
:1060D00008930820FDF7E1FF044628B1039B40F830
:1060E000043B04A9FFF7FFFC00955FFA8AF34A46D8
:1060F000414638460994FFF71BFC20B9039B5B78A7
:1061000003F0FF0283B1039B059304A906A8FFF7E0
:10611000EAFC05A93046FFF789FE06A8FEF71CF940
:1061200004A8FEF719F913E04FF69C7305A903A81C
:106130000592ADF81830FFF7FDFE05A8FFF71FFE2A
:1061400005A80999FFF783FE06A8FEF705F9DAE727
:1061500030460BB0BDE8F08FCD620D00022AF8B5D5
:10616000044606D0032A17D0012A22D10B68036007
:106170001FE018200E68FDF790FF054650B131462C
:10618000FFF7C8FE3069B6F9147008B102F0B8F92B
:106190002861AF8225600CE0046854B104F110005E
:1061A000FFF7EDFD2046FFF7D2FD1821204601F054
:1061B000ACFA0020F8BD38B5002383608B68044634
:1061C0000D462BB102229847EB68E360AB68A360F1
:1061D000204638BD022A70B5044606D0032A11D0E5
:1061E000012A18D10B68036015E014200E68FDF732
:1061F00054FF054620B13146FFF7DDFF337C2B7499
:10620000256008E0046834B12046FFF7A0FD1421A2
:10621000204601F07AFA002070BD0000F0B500239E
:1062200087B00C46BFF35F8F50E8006F40E8003244
:10623000002AF9D1BFF35F8F002E3FD01846FFF739
:1062400009FB074620B121463046FFF753FE2EE0FA
:10625000314601A8FFF7AFFF23788DF814301020E6
:10626000FDF71BFF0546D0B187601420FDF715FF31
:10627000044678B18760014601A8FFF706FE039B3C
:10628000A268A360049B0392E268E3609DF8143067
:10629000049223740A4BEB600A4B2C60AB6001A89C
:1062A000FFF755FD002229460748FFF7DBFA304685
:1062B000FFF74DFD1021304601F027FA07B0F0BD81
:1062C000075F0D00D5610D00BF5A0D0030B585B0D8
:1062D00004460D4668461146FFF7B9FD7CB124B26D
:1062E00028460DB102F00CF9029002A96846ADF8FB
:1062F0000C40FFF71FFE02A8FFF741FD1DE00098CC
:106300008DF808404FF00102D0E84F3FA34203D17F
:10631000C0E8412F0029F7D102D08DF808300CE0F9
:1063200010F10C014FF0010318BF0373BFF35F8F2F
:10633000043000F8033CFFF771FF01A8FEF70CF8EA
:1063400005B030BD002211464068FFF751BB002266
:1063500011464068FFF75CBB00224068FFF750BB66
:10636000002281F001014068FFF73ABB00231A4682
:1063700019464068FFF72CBB00231A4619464068AF
:10638000FFF71EBB002211464068FFF711BB002239
:1063900011464068FFF7FCBA002202214068FFF76F
:1063A000FFBA00231A464068FFF7EABA024B0322FD
:1063B0005A60024A1A6070475CE30320D0920D00D5
:1063C000006800F0D6B810B50446016002710AB149
:1063D000FFF7F6FF204610BD38B504460D4601F024
:1063E0004DF92A4601462046FFF7EDFF204638BD0D
:1063F000006800F0C7B810B5037904460BB1FFF789
:10640000F7FF204610BDF8B5044616461D460F4658
:10641000FFF7D6FF2068362100F09DF8206803685A
:1064200039469B6898470121206800F097F80222BE
:1064300036210123206800F085F8206803685B6935
:1064400098473070206803685B6998472870204639
:10645000BDE8F840FFF7CCBF07B502AB002203F858
:10646000012D8DF8062004210DF10602FFF7CBFF68
:106470009DF8070001F0E8FB0022094B01F04AFCFF
:1064800001F05AFE9DF8063000EE103A07EE900A31
:10649000B8EEC00A37EE800A03B05DF804FB00BF17
:1064A0000000703F7047F8B5064615460C468F1839
:1064B000BC4206D0336814F8011B9B6830469847ED
:1064C000F6E72846F8BD0022007CFFF7BBB80021A4
:1064D000007CFFF7BFB80021007CFFF7C3B80021A4
:1064E000007CFFF7C7B80021007CFFF7CBB810B5E0
:1064F0001421044601F009F9204610BD10B50446E8
:106500004FF47A730846A3600021044B2074616045
:106510002360FFF7C7F8204610BD00BF04930D00AD
:1065200000231A461946007CFFF76CB813B5002407
:10653000007C0094FFF76EF8C0B202B010BD0123DA
:10654000FFF7F4BFDBB2D2B2C9B2FFF7EFBF002250
:10655000007CFFF767B8C9B2FFF7F9BF0022007CE3
:10656000FFF768B80121FFF7F9BF0021007CFFF7B2
:1065700091B808B50021007CFFF79CF8B0FA80F0D4
:10658000400908BD08B50021007CFFF79BF8B0FA70
:1065900080F0400908BD704710B51821044601F08D
:1065A000B4F8204610BDF0B5037D062B8DB00E4625
:1065B00000F104074FF0000402D000F1080518E0D4
:1065C0000CAD394605F8304D2F232A460A20FFF737
:1065D00081F8284601F0AFFF33680246DB682946A0
:1065E000304698470FE024B12E21304600F0A5FB3D
:1065F000044415F8011D0A22304600F0E4FBBD42B8
:106600000444F0D120460DB0F0BD000010B5054B9C
:106610000446112240F8043B002101F02EFF2046E1
:1066200010BD00BF2C930D000346074A10B543F878
:10663000042B01F1100251F8044B43F8044B914232
:10664000F9D10A781A7010BD2C930D0010B59DF881
:10665000084044EA032343EA024242EA0161042378
:106660004160037510BD37B50D788B784A78C978CD
:1066700000912946FFF7EAFF03B030BD014B024A03
:106680001A60704764E30320A8930D0000221146AE
:106690004068FFF7ADB9002211464068FFF7B8B96E
:1066A00000224068FFF7ACB9002281F00101406888
:1066B000FFF796B900231A4601214068FFF788B911
:1066C00000231A4619464068FFF77AB9002211469E
:1066D0004068FFF76DB9002211464068FFF758B9CE
:1066E000002202214068FFF75BB900231A46406888
:1066F000FFF746B938B5054688B104684CB1A368C0
:106700001BB103222146204698471021204600F065
:10671000FCFF28461421BDE8384000F0F6BF38BD24
:1067200010B103685B681847704710B503680446EA
:10673000BBB15868FEF7A6FE78B923685A7C12B937
:106740005868FEF7A7FE23685868FEF7ABFE20687E
:106750000023236028B1FFF7CDFF206808B1FFF7C1
:10676000C9FF204610BD000038B50C4B036004463D
:10677000D0F8CC0108B1FDF794FCD4F8C45135B180
:106780002846FFF7D2FF0421284600F0BEFFA0688C
:1067900008B1FFF7C5FF204638BD00BF18940D00B3
:1067A00038B50E4C0E4B23600025022304F5E4702F
:1067B0006360A560C4F8C451C4F8C851FEF782FEF6
:1067C000084BC4F8CC5184F8D05123602046064AC7
:1067D0000649BDE8384000F093BF00BF68E30320DE
:1067E0004C940D0018940D0034E2032069670D00ED
:1067F00000231A464068FFF7C3B800220221406810
:10680000FFF7CEB8002211464068FFF7C1B800225A
:1068100011464068FFF7CCB800231A461946406875
:10682000FFF7CEB800231A4619464068FFF7D0B8E4
:10683000002281F001014068FFF7D2B800224068D1
:10684000FFF7DEB8002211464068FFF7E1B80022EA
:1068500011464068FFF7CCB82DE9F043002495B00D
:1068600016460D460746FFF7D1FE214620220CA80A
:10687000009401F002FE40230C9321466B460CAAC3
:106880003046FEF737FF0446002844D10246012176
:106890006868FFF78DF80221804622466868FFF796
:1068A00087F8009E81462146002E34D0002932D13F
:1068B0007368022B02D00A2B09D02AE0B8F1000F2E
:1068C00027D0716938460431FFF7CDFE20E0B9F1D9
:1068D000000F1ED07469112201A801F0CEFD06231D
:1068E0008DF8143001AD04F10803183418685968A4
:1068F0002A4603C20833A3421546F7D101A906A8C8
:1069000007ADFFF791FE0FCD3C1D0FC42B68237020
:106910000121F669C8E70098FEF7E4FE384615B095
:10692000BDE8F083024B034A1A6000225A607047A8
:106930003CE503204C940D0008B500F09FFEFFF7E6
:1069400014FE18B900F09AFEFFF7EAFD00F096FE7B
:10695000BDE80840FFF709BE08B500F08FFEBDE8AE
:106960000840FFF706BE10B50446017009B1FFF7F5
:10697000F3FF204610BD08B500F080FEBDE80840DA
:10698000FFF700BE10B5037804460BB1FFF7F3FF25
:10699000204610BD10B504460068FFF7ECFF204606
:1069A00010BD37B502AC0D4644F8040DFFF7D4FF17
:1069B00000F064FE6B21FFF7CEFD00F05FFE036880
:1069C00029469B68984700F059FE0121FFF7C6FD54
:1069D00000F054FE01231A466B21FFF7B3FD00F0CF
:1069E0004DFE03685B69984705462046FFF7D2FFD6
:1069F000E8B203B030BD73B502AC15460E4644F89C
:106A0000040DFFF7A9FF00F039FE6B21FFF7A3FD8E
:106A100000F034FE036831469B68984700F02EFE74
:106A2000036829469B68984700F028FE0121FFF77C
:106A300095FD2046FFF7AEFF02B070BD37B50446A6
:106A40000D460190FFF788FF00212046FFF7A9FFC0
:106A500041F258139D4200F087025BD020D841F2EA
:106A600018039D424DD00CD840F678739D4242D019
:106A700040F6C8739D4241D040F628739D4260D1D4
:106A800059E041F2B8039D423ED041F208139D42C5
:106A90003DD041F268039D4253D142F020024AE0CA
:106AA00041F298239D423ED00ED841F2F8139D4208
:106AB00033D041F248239D4232D041F2A8139D4287
:106AC0003FD142F0400236E041F238339D422DD0B2
:106AD00006D841F2E8239D4233D142F060022AE019
:106AE00041F288339D4224D041F2D8339D4228D1CF
:106AF00042F078021FE042F008021CE042F010026F
:106B000019E042F0180216E042F0280213E042F0C9
:106B1000300210E042F038020DE042F048020AE094
:106B200042F0500207E042F0580204E042F06802EE
:106B300001E042F0700220460021FFF75CFF0124D3
:106B400000E0002401A8FFF725FF204603B030BD78
:106B500037B504460D460190FFF7FEFE00212046A2
:106B6000FFF71FFFB5F5617F00F0F80223D007D8CB
:106B7000962D1AD0B5F5FA7F1AD0642D29D122E0CE
:106B800040F2DC539D4219D005D8B5F5966F20D15F
:106B900042F0040217E0B5F5FA6F12D040F6B833B0
:106BA0009D4216D142F007020DE042F001020AE0D8
:106BB00042F0020207E042F0030204E042F0050264
:106BC00001E042F0060220460021FFF714FF0124F5
:106BD00000E0002401A8FFF7DDFE204603B030BD31
:106BE00037B502AC054644F8040DFFF7B5FE0121A8
:106BF0002846FFF7D6FE012100F0CF022846FFF716
:106C0000FAFE2046FFF7C6FE012003B030BDF7B5FF
:106C10000C46054617461E460190FFF79DFE002CC8
:106C20000CBF0024802417B144F04004E4B20EB13C
:106C300044F020049DF820300BB144F010049DF87E
:106C400024300BB144F008049DF828300BB144F017
:106C5000040402212846FFF7A4FE00F001022243AB
:106C600002212846FFF7C7FE01A8FFF793FE012087
:106C700003B0F0BD37B504460D460190FFF76CFE3A
:106C800004212046FFF78DFE41F210039D4200F0E3
:106C9000030206D041F270039D420AD142F0B002D5
:106CA00001E042F0980220460421FFF7A4FE0124EF
:106CB00000E0002401A8FFF76DFE204603B030BDC0
:106CC00037B502AC054644F8040DFFF745FE052133
:106CD0002846FFF766FE052100F0CE022846FFF7A2
:106CE0008AFE2046FFF756FE012003B030BDF8B5FE
:106CF00006460D468F180024BD420CD0336815F8A7
:106D0000011B9B6830469847002801DB0444F3E7E9
:106D1000002C08BF04462046F8BD70B505460C4659
:106D2000084649B101F007FC2B6802462146284677
:106D3000DB68BDE87040184770BD03689B68184762
:106D400038B50D210546FFF7F8FF0A21044628460D
:106D5000FFF7F3FF204438BD38B50546FFF7DDFFE8
:106D600004462846FFF7ECFF204438BD30B58BB011
:106D70000B4600218DF82410012A98BF0A220DF13C
:106D80002304B3FBF2F505FB123303F0FF03092BD9
:106D900094BF30333733DBB2214604F801392B4638
:106DA000002DEED1FFF7B9FF0BB030BD10B42AB9FA
:106DB00003685DF8044B9B68C9B21847D2B25DF80E
:106DC000044BFFF7D3BFFFF7F1BF2DE9F0410746B2
:106DD0000E4615462AB90368C9B29B68BDE8F04162
:106DE00018470A2A02D1002901DA04E0D2B2BDE82C
:106DF000F041FFF7BBBF2D21FFF79FFF2A46044656
:106E000071423846FFF7B2FF2044BDE8F081FFF73A
:106E1000DCBF10B50446FEF79AFF204610BD000007
:106E20000348044A04490023836000F069BC00BFA2
:106E300044E5032034E20320136E0D00704710B5C3
:106E40001021044600F061FC204610BD70B5084BCF
:106E50000360044600250E4640F80C5FFEF72AFB4F
:106E600030462671FEF74EFCA560204670BD00BF7F
:106E700080940D000079FEF74DBC10B50446006803
:106E8000FEF7D6FD204610BD10B50446006808B1D7
:106E9000FEF7CEFD00232360A360636010BD38B50C
:106EA00004460D4600680131FEF7CAFD10B184E8C2
:106EB0002100012038BD10B50368044613B14368B2
:106EC0008B4207D22046FFF7EAFF20B1A3680BB937
:106ED00022681370012010BD70B50E46114604469D
:106EE0001546FFF7E8FF18B92046FFF7CDFF09E088
:106EF0002A463146A560206801F0B4FA2268A368EA
:106F00000021D154204670BD38B5002304460360EB
:106F10004360836003730D4639B1084601F00BFBF3
:106F2000294602462046FFF7D7FF204638BD884253
:106F300010B50B46044607D0096819B19A68FFF7E7
:106F4000CBFF01E0FFF7A0FF204610BD10B50023E6
:106F500004460360436083600373FFF7E8FF204645
:106F600010BD08B582680B4612B919B9012008BDD9
:106F700011B90368187802E0006801F0AFFAB0FABE
:106F800080F0400908BD70B50E469AB191B1856890
:106F90009D4202D800230B7070BD541EED1A01688B
:106FA000AC4228BF2C4619442246304601F0E0FA94
:106FB0000023335570BD014600228C20FEF792BAA3
:106FC0000020FFF7F8BF000010B504460846114640
:106FD0001A460023FEF72EFC064B00221A704FF6CD
:106FE000FF7258809A801A689B882260A38020468E
:106FF00010BD00BF54E5032010B500240470448088
:1070000000294FF6FF74848007DD0139994209D2C7
:1070100032F811308380012301E002D10223037092
:1070200010BD418010BD000070B586B016461A46EE
:10703000002302930C9B01930D460B9B0093044687
:107040000A9B31462846FEF731FC33462A46014664
:1070500004A8FFF7D1FF064B0498BDF81420186070
:107060009A801A689B8822602046A38006B070BD73
:1070700054E50320044B00204FF6FF72187058802F
:107080009A80FEF7C7BB00BF54E50320F0B5144B50
:10709000144F1E68144B064418683B6806449E4211
:1070A0008BB01BD00AA801AD40F8286D01F0E2F8C2
:1070B000436903F26C73436104460FCC0FC50FCCD8
:1070C0000FC5D4F800E0C5F800E001AD0FCD074CC6
:1070D0000FC40FCD0FC43E60C4F800E00BB0F0BD8C
:1070E0008CE5032088E5032084E503205CE503208C
:1070F00008B50020FEF734FC28B1FEF709FC80F04B
:107100000100C0B208BD012008BD0000FAEE087AF7
:10711000B4EEE70AF1EE10FA0FD4F2EE0C7AB4EE08
:10712000E70AF1EE10FA08DCDFED047A044B20EEFA
:10713000270ABDEEC00A83ED000A704700006145D2
:107140008CE5032037B50E4B1B6819440D4B1B68AB
:10715000044602A8194440F8041D01F08BF801F020
:107160003BF8054601F0E7F92844002300F8013C0C
:1071700029462046FFF7C8FE204603B030BD00BFB9
:107180008CE5032084E5032010B50020FEF7F2F91A
:10719000044668B9FEF736FB01280BD12046FEF7FE
:1071A00069FB38B9FFF7A4FF30B9FEF799FBF9E79F
:1071B000012010BD002010BDFFF79AFF0020FEF750
:1071C000D9F9003018BF012010BD08B5FFF7DCFF6A
:1071D000BDE80840FEF7A6B908B5FFF7F6FFFFF7D0
:1071E00055FF014B986808BD5CE5032008B5FFF723
:1071F000ECFFFFF74BFF014B586808BD5CE503202F
:10720000024B1A68024B1A60704700BF7CE10320F2
:1072100080E5032070474174704708B5007CFEF795
:10722000B9FA20EAE07008BD08B5007CFEF78AFADA
:1072300020EAE07008BD08B5007CFEF793FA30EA5A
:10724000200028BF4FF0FF3008BD08B5007CFEF7D6
:1072500081FA30EA200028BF4FF0FF3008BD007CE3
:10726000FEF788BA10B51421044600F04EFA204605
:1072700010BD70B5457C04460E4625B9007CFEF76E
:1072800089FA002805DD3146207CBDE87040FEF714
:1072900051BA284670BD000010B504460846114694
:1072A000002262604FF47A72A260054A22600122D5
:1072B000207462741A46FEF735FA204610BD00BFEE
:1072C000B8940D00007CFEF75DBA000038B50C4D97
:1072D000296811F0010411D12846FCF7E4FE68B1D9
:1072E000084A094B09482146FFF7D6FF2846FCF714
:1072F000DFFE074A0749054800F002FA034838BD97
:1073000028E603202CE60320A4E5032090E50320D3
:1073100034E2032015720D0041747047704708B5C0
:107320000021007CFEF756FA30EA200028BF4FF01B
:10733000FF3008BD08B50121007CFEF74BFA30EAAA
:10734000200028BF4FF0FF3008BD08B5007CFEF7D5
:1073500039FA20EAE07008BD08B5007CFEF72AFA89
:1073600020EAE07008BD007CFEF744BA10B5142195
:10737000044600F0CAF9204610BD38B50446007C2A
:107380000D46FEF71FFA002801DC607C28B1294673
:10739000207CFEF727FA20EAE07038BD10B50446DD
:1073A000002363604FF47A73A360054B23600123CD
:1073B0000846217463741146FEF7F4F9204610BDA7
:1073C000E8940D0010B514220446002101F055F890
:1073D000204610BD30B50E4D87B001A8FFF7F2FF73
:1073E000296811F0010410D12846FCF75CFE60B159
:1073F00001AA21460748FFF7D1FF2846FCF758FEAF
:10740000054A0649034800F07BF9024807B030BD41
:10741000B0E60320B4E6032034E203201D730D0020
:1074200008B50C4B33B1FFF7D5FF03681B699847CC
:10743000002809DC084B63B1FFF748FF03681B69AC
:107440009847002803DC08BDAFF30080F2E7AFF3F4
:10745000008008BD000000000000000008B5FFF734
:10746000DFFFFEF757F8014B186008BDCCE603209C
:1074700007B5002300931A466FF07701FEF70CFA68
:1074800003B05DF804FB000007B543880A2B08D061
:10749000502B09D1094B1B683BB103B05DF804EBDD
:1074A0001847FFF7E5FF06E0002300931A466FF048
:1074B0007701FEF7F1F903B05DF804FBC8E603209D
:1074C00010B5FEF71FF8044600F0E0FF074B13B1BC
:1074D0002046AFF3008000210448FEF749FA00215E
:1074E0000348BDE81040FEF7CDB900BF0000000022
:1074F00089740D0008B5024B1B681B68019308BD19
:107500005C02030008B5024B1B685B68019308BD71
:107510005C02030008B5024B1B689B68019308BD21
:107520005C02030010B504460F48FFF7A3FC28B126
:10753000A4F10B03022B01D8002010BD00F07EF84F
:10754000FFF713F808B1012CF6D9FFF7BFFEFFF7DC
:10755000B9FE18B1A4F10903012BEDD9232C8CBF7E
:107560000020012010BD00BF08E70320232838B504
:1075700004460D460AD8FF2908D0FFF7D3FF28B1EB
:1075800029462046BDE83840FEF714B838BD38B566
:1075900004460D46FEF716F8FF2810D0062804D83A
:1075A0004D2323FA00F0C30709D42046FFF7BAFFA2
:1075B00028B129462046BDE83840FEF70BB838BD53
:1075C00010B50446FDF7FEFF0438C0B2012808D903
:1075D0002046FFF7A7FF20B12046BDE81040FEF788
:1075E00001B8002010BD0D2810B504469CBF0E3414
:1075F000A4B22046FFF796FF50B103212046FDF7C5
:10760000D1FF032804D12046BDE81040FDF7F2BFAA
:10761000002010BD10B5074C2368DB0708D42046B6
:10762000FCF741FD20B1FDF785FF2046FCF740FD4A
:10763000014810BDD0E60320D4E6032038B50B4D39
:10764000296811F001040FD12846FCF72CFD58B130
:1076500021460748FEF752FF2846FCF729FD054A58
:107660000549034800F04CF8014838BDD8E603202E
:10767000F0E6032034E20320A5640D0010B50B4CA6
:107680002368DB070FD42046FCF70DFD58B101211C
:107690000748FEF733FF2046FCF70AFD054A064976
:1076A000034800F02DF8024810BD00BF04E7032096
:1076B000DCE6032034E20320A5640D0070B50C4C19
:1076C0000C4E0D4D00212046FFF7C0FB20460B4C11
:1076D0003246294600F014F801212046FFF7B6FB98
:1076E000324629462046BDE8704000F009B800BF88
:1076F00008E7032034E203203D6E0D0018E7032065
:107700000B460146184600F0A7BDFCF7C8BC08B5FB
:10771000FEF7B6F9244B1A68D0075CBF01221A6045
:10772000224B1A68D1075CBF01221A60204B1A68ED
:10773000D2075CBF01221A601E4B1A68D0075CBFDB
:1077400001221A601C4B1A68D1075CBF01221A6023
:107750001A4B1A68D2075CBF01221A60184B1A68CC
:10776000D0075CBF01221A60164B1A68D1075CBFB4
:1077700001221A60144B1A68D2075CBF01221A60FA
:10778000124B1A68D0075CBF01221A60104B1A68AE
:10779000D1075CBF01221A600E4B1A68D2075CBF8A
:1077A00001221A60704700BF54E7032050E703200E
:1077B0004CE7032048E7032044E7032040E7032089
:1077C0003CE7032038E7032034E7032030E70320B9
:1077D0002CE7032028E70320184B1A68D1075CBF69
:1077E00001221A60164B1A68D2075CBF01221A6088
:1077F000144B1A68D0075CBF01221A60124B1A683A
:10780000D1075CBF01221A60104B1A68D2075CBF17
:1078100001221A600E4B1A68D0075CBF01221A6061
:107820000C4B1A68D1075CBF01221A600A4B1A6818
:10783000D2075CBF01221A60704700BF74E70320C3
:1078400070E703206CE7032068E7032064E7032068
:1078500060E703205CE7032058E70320184B1A6811
:10786000D1075CBF01221A60164B1A68D2075CBFB1
:1078700001221A60144B1A68D0075CBF01221A60FB
:10788000124B1A68D1075CBF01221A60104B1A68AC
:10789000D2075CBF01221A600E4B1A68D0075CBF8A
:1078A00001221A600C4B1A68D1075CBF01221A60D2
:1078B0000A4B1A68D2075CBF01221A60704700BFEA
:1078C00094E7032090E703208CE7032088E7032058
:1078D00084E7032080E703207CE7032078E7032088
:1078E000244B1A68D0075CBF01221A60224B1A6829
:1078F000D1075CBF01221A60204B1A68D2075CBF17
:1079000001221A601E4B1A68D0075CBF01221A6060
:107910001C4B1A68D1075CBF01221A601A4B1A6807
:10792000D2075CBF01221A60184B1A68D0075CBFEF
:1079300001221A60164B1A68D1075CBF01221A6037
:10794000144B1A68D2075CBF01221A60124B1A68E6
:10795000D0075CBF01221A60104B1A68D1075CBFC8
:1079600001221A600E4B1A68D2075CBF01221A600E
:10797000704700BFC4E70320C0E70320BCE7032033
:10798000B8E70320B4E70320B0E70320ACE7032007
:10799000A8E70320A4E70320A0E703209CE7032037
:1079A00098E7032081F0004102E000BF83F000432C
:1079B00030B54FEA41044FEA430594EA050F08BF8A
:1079C00090EA020F1FBF54EA000C55EA020C7FEA4E
:1079D000645C7FEA655C00F0E2804FEA5454D4EBCB
:1079E0005555B8BF6D420CDD2C4480EA020281EA95
:1079F000030382EA000083EA010180EA020281EACD
:107A00000303362D88BF30BD11F0004F4FEA01311E
:107A10004FF4801C4CEA113102D0404261EB41012D
:107A200013F0004F4FEA03334CEA133302D05242B3
:107A300063EB430394EA050F00F0A780A4F101046F
:107A4000D5F1200E0DDB02FA0EFC22FA05F28018A9
:107A500041F1000103FA0EF2801843FA05F359418F
:107A60000EE0A5F120050EF1200E012A03FA0EFC0E
:107A700028BF4CF0020C43FA05F3C01851EBE37138
:107A800001F0004507D54FF0000EDCF1000C7EEB55
:107A900000006EEB0101B1F5801F1BD3B1F5001F93
:107AA0000CD349085FEA30004FEA3C0C04F10104B2
:107AB0004FEA445212F5800F80F09A80BCF1004FDB
:107AC00008BF5FEA500C50F1000041EB045141EA5D
:107AD000050130BD5FEA4C0C404141EB010111F45E
:107AE000801FA4F10104E9D191F0000F04BF014609
:107AF0000020B1FA81F308BF2033A3F10B03B3F1E7
:107B000020020CDA0C3208DD02F1140CC2F10C0276
:107B100001FA0CF021FA02F10CE002F11402D8BFD4
:107B2000C2F1200C01FA02F120FA0CFCDCBF41EAA0
:107B30000C019040E41AA2BF01EB0451294330BD6F
:107B40006FEA04041F3C1CDA0C340EDC04F114044C
:107B5000C4F1200220FA04F001FA02F340EA030023
:107B600021FA04F345EA030130BDC4F10C04C4F169
:107B7000200220FA02F001FA04F340EA0300294649
:107B800030BD21FA04F0294630BD94F0000F83F493
:107B9000801306BF81F480110134013D4EE77FEA76
:107BA000645C18BF7FEA655C29D094EA050F08BFC2
:107BB00090EA020F05D054EA000C04BF19461046A3
:107BC00030BD91EA030F1EBF0021002030BD5FEAE7
:107BD000545C05D14000494128BF41F0004130BD0F
:107BE00014F580043CBF01F5801130BD01F0004563
:107BF00045F0FE4141F470014FF0000030BD7FEAD6
:107C0000645C1ABF194610467FEA655C1CBF0B46D0
:107C1000024650EA013406BF52EA033591EA030FE7
:107C200041F4002130BD00BF90F0000F04BF0021DF
:107C3000704730B54FF4806404F132044FF0000512
:107C40004FF0000150E700BF90F0000F04BF00218B
:107C5000704730B54FF4806404F1320410F00045F1
:107C600048BF40424FF000013EE700BF42004FEAEC
:107C7000E2014FEA31014FEA02701FBF12F07F4369
:107C800093F07F4F81F06051704792F0000F14BF66
:107C900093F07F4F704730B54FF4607401F00045AA
:107CA00021F0004120E700BF50EA010208BF704701
:107CB00030B54FF000050AE050EA010208BF7047F6
:107CC00030B511F0004502D5404261EB41014FF45F
:107CD000806404F132045FEA915C3FF4DCAE4FF063
:107CE00003025FEADC0C18BF03325FEADC0C18BF4A
:107CF000033202EBDC02C2F1200300FA03FC20FA9B
:107D000002F001FA03FE40EA0E0021FA02F11444E7
:107D1000C1E600BF70B54FF0FF0C4CF4E06C1CEAFC
:107D200011541DBF1CEA135594EA0C0F95EA0C0F71
:107D300000F0DEF82C4481EA030621EA4C5123EAE4
:107D40004C5350EA013518BF52EA033541F4801113
:107D500043F4801338D0A0FB02CE4FF00005E1FBC6
:107D600002E506F00042E0FB03E54FF00006E1FB10
:107D700003569CF0000F18BF4EF0010EA4F1FF0453
:107D8000B6F5007F64F5407404D25FEA4E0E6D4193
:107D900046EB060642EAC62141EA55514FEAC520A4
:107DA00040EA5E504FEACE2EB4F1FD0C88BFBCF520
:107DB000E06F1ED8BEF1004F08BF5FEA500E50F1D1
:107DC000000041EB045170BD06F0004646EA010197
:107DD00040EA020081EA0301B4EB5C04C2BFD4EBC9
:107DE0000C0541EA045170BD41F480114FF0000EC2
:107DF000013C00F3AB8014F1360FDEBF002001F030
:107E0000004170BDC4F10004203C35DA0C341BDCA9
:107E100004F11404C4F1200500FA05F320FA04F07B
:107E200001FA05F240EA020001F0004221F00041AF
:107E300010EBD37021FA04F642EB06015EEA430E22
:107E400008BF20EAD37070BDC4F10C04C4F1200552
:107E500000FA04F320FA05F001FA04F240EA020005
:107E600001F0004110EBD37041F100015EEA430ED6
:107E700008BF20EAD37070BDC4F1200500FA05F2F6
:107E80004EEA020E20FA04F301FA05F243EA020375
:107E900021FA04F001F0004121FA04F220EA020084
:107EA00000EBD3705EEA430E08BF20EAD37070BDCA
:107EB00094F0000F0FD101F00046400041EB0101AA
:107EC00011F4801F08BF013CF7D041EA060195F08C
:107ED000000F18BF704703F00046520043EB030346
:107EE00013F4801F08BF013DF7D043EA0603704733
:107EF00094EA0C0F0CEA135518BF95EA0C0F0CD03E
:107F000050EA410618BF52EA4306D1D181EA030183
:107F100001F000414FF0000070BD50EA410606BF7D
:107F20001046194652EA430619D094EA0C0F02D1C2
:107F300050EA013613D195EA0C0F05D152EA033607
:107F40001CBF104619460AD181EA030101F0004125
:107F500041F0FE4141F470014FF0000070BD41F06E
:107F6000FE4141F4780170BD70B54FF0FF0C4CF448
:107F7000E06C1CEA11541DBF1CEA135594EA0C0F67
:107F800095EA0C0F00F0A7F8A4EB050481EA030EB4
:107F900052EA03354FEA013100F088804FEA03339B
:107FA0004FF0805545EA131343EA12634FEA022269
:107FB00045EA111545EA10654FEA00260EF000412A
:107FC0009D4208BF964244F1FD0404F5407402D27C
:107FD0005B084FEA3202B61A65EB03055B084FEA0D
:107FE00032024FF480104FF4002CB6EB020E75EB0A
:107FF000030E22BFB61A754640EA0C005B084FEA32
:108000003202B6EB020E75EB030E22BFB61A7546AE
:1080100040EA5C005B084FEA3202B6EB020E75EBF9
:10802000030E22BFB61A754640EA9C005B084FEA71
:108030003202B6EB020E75EB030E22BFB61A75467E
:1080400040EADC0055EA060E18D04FEA051545EA6D
:1080500016754FEA06164FEAC30343EA52734FEA16
:10806000C2025FEA1C1CC0D111F4801F0BD141EA8F
:1080700000014FF000004FF0004CB6E711F4801FF4
:1080800004BF01430020B4F1FD0C88BFBCF5E06FD4
:108090003FF6AFAEB5EB030C04BFB6EB020C5FEAE4
:1080A000500C50F1000041EB045170BD0EF0004E39
:1080B0004EEA113114EB5C04C2BFD4EB0C0541EA6B
:1080C000045170BD41F480114FF0000E013C90E668
:1080D00045EA060E8DE60CEA135594EA0C0F08BF2C
:1080E00095EA0C0F3FF43BAF94EA0C0F0AD150EA2B
:1080F00001347FF434AF95EA0C0F7FF425AF1046BE
:1081000019462CE795EA0C0F06D152EA03353FF4E5
:10811000FDAE1046194622E750EA410618BF52EA62
:1081200043067FF4C5AE50EA41047FF40DAF52EA36
:1081300043057FF4EBAE12E74FEA4102B2F1E043B0
:1081400024BFB3F5001CDCF1FE5C0DD901F0004C3E
:108150004FEAC0024CEA5070B2F1004F40EB83008E
:1081600008BF20F00100704711F0804F21D113F1BA
:108170003872BCBF01F00040704741F480114FEAF3
:108180005252C2F11802C2F1200C10FA0CF320FA7C
:1081900002F018BF40F001004FEAC1234FEAD32399
:1081A00003FA0CFC40EA0C0023FA02F34FEA430303
:1081B000CCE77FEA625307D150EA01331EBF4FF08C
:1081C000FE4040F44000704701F0004040F0FE40A7
:1081D00040F40000704700BF094B70B51C68256C67
:1081E00006463DB91A20FDF71BFC1A2220642946D9
:1081F00000F043F9216C3046BDE8704000F002B851
:10820000E4E1032010B50C4641690369826986B038
:1082100001F26C71049101680391416802918168D7
:108220000191C1680091074903EB43030B440649E0
:1082300002EB42020A4420460449FDF709FC2046AD
:1082400006B010BD25950D0010950D0049950D0047
:108250000A22002100F026BA10B5054C13462CB1B5
:108260000A4601460220AFF3008010BD204610BD33
:108270000000000038B5074B1C68E36B05461BB9CE
:108280002420FDF7CDFBE063E16B2846BDE83840D4
:1082900000F002B8E4E103202DE9F0410C468046ED
:1082A00000F006FD21460746404600F005FD466900
:1082B00006F26C76B307044605D1642296FBF2F30E
:1082C00002FB13634BB94FF4C87596FBF5F305FB3E
:1082D0001365B5FA85F35B0900E001235F4A302599
:1082E00005FB032500F018FB00F018FB5C4B1B6836
:1082F000F3B17B689E4205D13968D8F80030FA693D
:1083000041B90AE0304600F05FFA0028F4D14FF09E
:10831000FF330DE0934208DB01E0934207DABA6BCA
:108320009342ACBF0023012302E0002300E00123BD
:108330002362236A012B0CBFF96B396A4FF4616326
:108340003C2091FBF3F603FB1613616893FBF0F2FC
:1083500000FB12302368891AA26861601B1A921B05
:108360003B2B2360A26003DD013161603C3B04E0F4
:10837000002B03DA013961603C33236063683B2BD7
:1083800003DD0132A2603C3B04E0002B03DA013A3A
:10839000A2603C336360A368172B22DDE2690132DF
:1083A000E261A2690132062AC8BF0022A261E26826
:1083B000183B0132A3602369E26055F823108A421A
:1083C00046DD01330C2B0CBF63692361A2EB010274
:1083D000E26001BF013300222261636108BFE261F4
:1083E00036E0002B34DAE269013AE261A269013A2F
:1083F00048BF0622A261E2681833013AE260A36036
:1084000032BB2369013B01D423611DE00B232361AF
:1084100063695A1E12F0030F626103F26B7305D198
:10842000642193FBF1F201FB12324AB94FF4C87197
:1084300093FBF1F201FB1233B3FA83F35B0900E023
:10844000012303F5B673E361236955F82330E36034
:1084500000F063FA2046BDE8F08100BFCC960D0025
:10846000E4E7032010B5431E0A44914204D011F8FA
:10847000014B03F8014FF8E710BD02440346934255
:1084800002D003F8011BFAE77047000038B5124B21
:108490001C68A36B0546D3B91820FDF7C1FA43F257
:1084A0000E33A06303804AF6CD33438041F2342378
:1084B00083804EF26D63C3804DF6EC630381052328
:1084C00043810B23838101220023C0E90423A36B92
:1084D00000221D615A6138BDE4E1032010F8012B30
:1084E00011F8013B012A28BF9A42F7D0D01A7047F1
:1084F000034611F8012B03F8012B002AF9D170472C
:10850000024B0146186800F003B800BFE4E1032005
:1085100070B5064608460C4600F00DF8451C294685
:108520003046FDF7B5FA064618B12A462146FFF750
:1085300099FF304670BD034613F8012B002AFBD18A
:10854000181A0138704730B582B1451E013915F847
:10855000013F11F8014FA34206D1EC431444E0421D
:1085600001D0002BF3D11C46181B30BD104630BD86
:1085700010B5034642B111F8014B03F8014B013A23
:10858000002CF7D11A4400E010BD934202D003F84A
:10859000014BFAE710BD00002DE9F0478046404846
:1085A000D0F800900F463D4615F8014B09EB04004A
:1085B000407800F0080000F0FF0608B12F46F2E70F
:1085C0002D2C03D1BD1C7C78012603E02B2C04BF8D
:1085D0007C78BD1C13B1102B0AD15BE0302C57D135
:1085E000287800F0DF0058284DD16C781023023530
:1085F000002E14BF4FF0004C6FF0004C0027BCFB66
:10860000F3FA384603FB1ACC09EB040E9EF801E09E
:108610001EF0040F01D0303C0BE01EF0030E1BD007
:10862000BEF1010F0CBF4FF0370E4FF0570ECEEBDF
:108630000404A34210DDB7F1FF3F0AD0504506D82D
:1086400001D1644503DC03FB0040012701E04FF04A
:10865000FF3715F8014BD7E77B1C0CD1002E4FF0EC
:10866000220314BF4FF000406FF00040C8F8003004
:108670002AB9BDE8F08706B1404272B107B1691E60
:108680001160BDE8F0873024002BB1D10823AFE79B
:108690000A23ADE7302CA3D0AAE7BDE8F08700BFDE
:1086A00080E1032013460A46014602480068FFF7AE
:1086B00073BF00BFE4E103202DE9F04780463C484A
:1086C000D0F800900E46354615F8014B09EB040032
:1086D000407800F0080000F0FF0708B12E46F2E7EE
:1086E0002D2C03D1B51C7478012703E02B2C04BF7B
:1086F0007478B51C13B1102B0AD153E0302C4FD134
:10870000287800F0DF00582845D16C781023023516
:108710004FF0FF3C0026BCFBF3FC03FB0CFA6FEAB6
:108720000A0A304609EB040E9EF801E01EF0040F21
:1087300001D0303C0BE01EF0030E1AD0BEF1010F49
:108740000CBF4FF0370E4FF0570ECEEB0404A34290
:108750000FDD002E08DB604506D801D1544503DC4F
:1087600003FB0040012601E04FF0FF3615F8014BF6
:10877000D8E7002E07DA2223C8F800304FF0FF3088
:108780002AB9BDE8F08707B1404272B106B1691E4F
:108790001160BDE8F0873024002BB9D10823B7E77A
:1087A0000A23B5E7302CABD0B2E7BDE8F08700BFB5
:1087B00080E1032013460A46014602480068FFF79D
:1087C0007BBF00BFE4E103202DE9F74F044600F032
:1087D0006FFA40F2B1739C4240F396806FF4F663F7
:1087E000E318A4F2B2729B1040F26D1505FB02353E
:1087F000A4F26D726FF0630392FBF3F36FF4C8623F
:108800002B44A5184FF4C87295FBF2F51D44642360
:1088100094FBF2F794FBF3F602FB174703FB1646B3
:1088200000F13803B7FA87FE019304F003034460B4
:108830004FEA5E1E014600934FF0070C0B7A4A2B5D
:108840000ED14B69009AEC1802B906B927B93B2B37
:10885000D4BF0023012300E000232344013B3FE079
:10886000442B02D14B692B443AE0009B2BB9002EDC
:108870000CBFF0464FF0010800E0F046244BCC68F6
:10888000302202FB0838A8F1040AA9460123A342BA
:1088900004DA5AF804BF0133D944F8E709F10403B4
:1088A00093FBFCFBCBEBCB0A012CCAEB030A4B6915
:1088B000B8BF012404F18044B3EB0A0A0B6904F148
:1088C000FF3403F1FF3348BF0AF1070AC3EBC303C8
:1088D00058F824405344A34201DB073BFBE74B44D9
:1088E0008C690C4A02FB03430C6A234441F81C3F89
:1088F000019B9942A2D1C369826B9342ACBF002312
:1089000001230360012000E0002003B0BDE8F08FE8
:10891000CC960D008051010070477047014B1868DC
:1089200000F002B8E4E103202DE9F04F8DB00746D6
:1089300000F0BEF9B049B14E0446384600F0B0F937
:10894000054660B9AE4BAF4A1860AF4B1860AF4BED
:1089500030681A605A60FDF76BF8356048E131689D
:1089600079B93068FDF764F82846FFF7E4FD411C4B
:108970003846FDF78DF8306048B12946FFF7B8FD5D
:1089800005E0FFF7ABFD002800F03281E9E72B7826
:108990009F4AA0493A2B08BF01350AAE3346284604
:1089A000FDF75EF8002840F323810A9BEF18EB5C8B
:1089B0002D2B03D101374FF0FF3503E02B2B08BFE0
:1089C000013701250DF1200A0DF11E0B4FF00008B3
:1089D0000396CDF808A00196CDF800B0334607AA5B
:1089E0008D49ADF81E803846ADF82080FDF738F887
:1089F000404540F3FD80BDF81E20BDF82030DFF873
:108A000024923C2101FB0233BDF81C204FF461612C
:108A100001FB02335D4325627C4D7D4B2B600A9B3D
:108A20007C491F444A4633463846FDF719F840450D
:108A300008DC2B686B60724B226A1A60724BC3F8B9
:108A40000080D5E00A9BC5F80490FD18FB5C2D2B37
:108A500003D101354FF0FF3703E02B2B08BF013561
:108A600001270023ADF81C30ADF81E30ADF82030E2
:108A70000A930396CDF808A00196CDF800B03346CE
:108A800007AA65492846FCF7EBFF002804DC236AA7
:108A9000A3F56163E3630EE0BDF81E20BDF820304E
:108AA0003C2101FB0233BDF81C204FF4616101FB46
:108AB00002335F43E7630A9B27461D444FF00009DA
:108AC0002B782C2B08BF013595F80080B8F14D0F9D
:108AD00026D10DF12603029309AB0093039601966C
:108AE00033460DF122024D492846FCF7B9FF032811
:108AF0007ED1BDF822104B1E0B2B79D8BDF8242057
:108B0000531E042B74D8BDF82630062B70D887F876
:108B10000880F9603A617B610A9B05EB03082AE053
:108B2000B8F14A0F06BF0135434644230A220BA978
:108B300028460593FFF73EFEDDF82C80ADF82600B1
:108B40004545059B14D14D23B9F1000F07D1237280
:108B50000323E36002232361C4F814900BE084F83C
:108B600024300B23A3620123E3620023236302E08A
:108B700080B23B7278610223ADF81C300023ADF85F
:108B80001E30ADF820300A9398F800302F2B0BD10F
:108B90000396CDF808A00196CDF800B0334607AA99
:108BA0001F494046FCF75CFFBDF81E20BDF8203091
:108BB0003C2101FB0233BDF81C204FF4616101FB35
:108BC0000233BB610A9D09F10109B9F1020F454465
:108BD00007F11C077FF474AF6068FFF7F5FD084BE1
:108BE000226A1A60E36B9B1A074A18BF01231360BD
:108BF0000DB0BDE8F08F00BF2C970D00E0E703201B
:108C0000E8E703202F970D00E4E70320E8E10320C5
:108C1000D3E7032033970D0056970D0042970D00C0
:108C200055970D00C8E703202DE9F84F07468B46FE
:108C3000904600F0D9F8194B1D689A463DB15C4644
:108C4000234613F8012B42B13D2A1C46F8D1384681
:108C500000F0CBF80020BDE8F88FCBEB0404A94668
:108C600059F8040B0028F2D022465946FFF76BFC56
:108C700088B959F8043C1E191B5D3D2B0BD1DAF85D
:108C80000030ED1AAD103846C8F8005000F0ADF8CD
:108C9000701CBDE8F88F4D46E1E700BF30E20320CD
:108CA00007B501AAFFF7C0FF03B05DF804FB0000A1
:108CB00000487047F0E103200268474BF0B592FB93
:108CC000F3F403FB1422002ABCBF02F5A83202F51C
:108CD000C0724FF4616004F52F2492FBF0F300FBA7
:108CE00013224FF03C00ACBF04F66C2404F66B2456
:108CF0008B6092FBF0F300FB13224B600A600723AA
:108D0000E21C92FBF3F3C3EBC303D31A8B61334B27
:108D1000334D94FBF5F503FB054448F6AC62B4FB18
:108D2000F2F2224440F2B457B4FBF7F3D21A2D48C2
:108D3000B4FBF0F048F69466131AB3FBF6F634442D
:108D400040F26D12B3FBF2F0B3FBF7F3E31A02FB50
:108D50001033992403EB83020232B2FBF4F20A2AA5
:108D600004FB02F404F102064FF00504B6FBF4F430
:108D700034BF02266FF0090616444FF4C87202FB96
:108D800005055F1C012E98BF0135B3F5997FA7EB50
:108D9000040702D3A3F5997214E0820705D1642475
:108DA000B0FBF4F204FB12024AB94FF4C872B0FBF4
:108DB000F2F402FB1400B0FA80F2520900E0012242
:108DC0003B331A44A5F26C750023CA614D610E61F4
:108DD000CF600B620846F0BD805101004FC5FDFF1A
:108DE000B13A0200B03A02007047704721400D00CE
:108DF0005D400D0089400D008D400D000000000019
:108E00005374617274757020537563636573736610
:108E1000756C000000000000000000000000000071
:108E20000000000000000000000000000000000042
:108E30000000000000000000000000000000000032
:108E4000257320533A25322E306625252C20513AA1
:108E500025322E30662525200041542B4346554EA1
:108E60003D31360D0A007B2254656D706572617468
:108E7000757265223A25342E31662C202248756D94
:108E80006964697479223A25342E31662C20225384
:108E90006F696C6D6F69737475726531223A2569FB
:108EA0002C2022536F696C6D6F6973747572653213
:108EB000223A25692C20227761746572507265739D
:108EC00073757265223A25692C2022536F6C656E8A
:108ED0006F6964223A25692C20224261747465729C
:108EE00079223A25692C2022526573657473223ADF
:108EF00025692C2022416C65727473223A25697DA4
:108F0000005277616E64615F49727269676174696A
:108F10006F6E5F486F6F6B004E6F2044617461002D
:108F2000556269646F747320486F6F6B005265738C
:108F3000706F6E7365205265636569766564005372
:108F4000746174650025342E316620430025342E6B
:108F500031662025250025692025250043686720E6
:108F600044697361626C65642054656D7000436888
:108F7000617267696E672064697361626C65642001
:108F800054656D706572617475726500416C6572CF
:108F9000740053657420536F6C617220506F776555
:108FA000726564204D6F6465003000436C656172CA
:108FB000656420536F6C617220506F7765726564D1
:108FC000204D6F64650053657420566572626F733F
:108FD00065204D6F646500436C6561726564205661
:108FE0006572626F7365204D6F64650054696D65CD
:108FF000207A6F6E65206F66667365742025690040
:1090000054696D65004C6F7720506F776572004E24
:109010006F726D616C204F7065726174696F6E73F1
:10902000004F70656E207468652056616C7665002F
:1090300056616C756520436F6E74726F6C20446965
:109040007361626C6564002D3100436C6F73652041
:109050007468652076616C76650046726F6D2025B8
:109060007320746F202573005374617465205472EB
:10907000616E736974696F6E00737061726B2F64D7
:1090800065766963652F73657373696F6E2F656E9F
:109090006400476F696E6720746F20536C6565705C
:1090A000004C6F772042617474657279202D2053D3
:1090B0006C656570696E67004572726F72205374DB
:1090C000617465202D205265736574004572726F5E
:1090D00072205374617465202D20506F7765722063
:1090E0004379636C65004572726F722053746174CA
:1090F00065202D2046756C6C204D6F64656D205287
:1091000065736574004572726F722074616B696E6D
:1091100067204D6561737572656D656E747300537C
:1091200069676E616C005265736574436F756E7428
:109130000052656C656173650053746174654F66B8
:1091400043686700506F776572436F6E746578741B
:10915000004C6F77506F7765724D6F64650048758E
:109160006D696469747900536F696C4D6F697374CC
:109170007572653100536F696C4D6F6973747572E8
:109180006532005072657373757265004D65617369
:109190007572652D4E6F7700536F6C61722D4D6F38
:1091A000646500566572626F73652D4D6F6465006E
:1091B00053657454696D655A6F6E650053657453D9
:1091C0006F6C656E6F696400436F756C64206E6FC1
:1091D000742066696E6420534854333100557365BA
:1091E0007220427574746F6E202D2044657465631F
:1091F000746564004661696C656420746F20636FF8
:109200006E6E656374005374617274757000556E90
:109210006B6E6F776E004E6F6E6500576946690022
:1092200047534D00554D54530043444D41004C5459
:10923000450049454545383032313534003131003B
:10924000000000000000000000000000635B0D0053
:10925000595B0D004F5B0D00055B0D00435B0D007E
:10926000375B0D002B5B0D00235B0D00195B0D00C0
:109270000F5B0D0059680D000000000000000000A9
:10928000115C0D00A35C0D00135C0D00E55C0D008E
:10929000195C0D00B15C0D00455C0D00715C0D00AA
:1092A000FCFFFFFF000000009B5C0D0000000000C1
:1092B00000000000315D0D00375D0D008D5D0D007B
:1092C000455D0D00335D0D00000000000000000052
:1092D000A3630D0099630D008F630D0085630D007E
:1092E00079630D006D630D0061630D0059630D001E
:1092F0004F630D0045630D0059680D00000000002C
:1093000000000000A5640D00EF640D00C7640D00AF
:10931000A7640D00CF640D00D7640D00DF640D005D
:10932000E7640D000000000000000000A7650D00CC
:1093300097650D0099650D00626175640053657253
:1093400069616C0053657269616C31007479706594
:1093500000706172616D00636D6400686E6400731B
:1093600074726D0066696C74006C766C0061646484
:1093700048616E646C65720072656D6F76654861F8
:109380006E646C657200656E756D48616E646C65C7
:109390007273004A534F4E53747265616D4C6F6720
:1093A00048616E646C657200617070002530313008
:1093B0007520005D20002564002C200028293A201B
:1093C00000205B00636F6465203D2000646574616C
:1093D000696C73203D200066006C6E00666E006351
:1093E0006F64650064657461696C006E6F6E650022
:1093F000747261636500696E666F007761726E00FA
:109400006572726F720070616E696300616C6C00EE
:109410000000000000000000EB660D00E1660D009A
:10942000D7660D00CD660D00C1660D00B5660D0056
:10943000A9660D00A1660D0097660D008D660D00F2
:1094400059680D000000000000000000F1670D00E9
:10945000FB670D0005680D000F680D0019680D0011
:1094600025680D0031680D003D680D0045680D0050
:109470004F680D0059680D0000000000000000005A
:109480003D6E0D003F6E0D00252B3033643A2530C4
:1094900032750025592D256D2D25645425483A2512
:1094A0004D3A2553257A0061736374696D65000038
:1094B000000000000000000015720D0065720D0034
:1094C00073720D00EF6C0D0029720D004B720D00D0
:1094D00037720D005F720D0017720D001B720D00C8
:1094E00000000000000000001D730D006D730D00F2
:1094F0007B730D00EF6C0D0059730D001F730D0091
:1095000035730D0067730D004B730D0019730D005B
:1095100053756E4D6F6E5475655765645468754626
:1095200072695361744A616E4665624D6172417041
:10953000724D61794A756E4A756C417567536570F5
:109540004F63744E6F76446563252E337320252E4A
:10955000337325336420252E32643A252E32643A43
:10956000252E32642025640A00002020202020209F
:1095700020202028282828282020202020202020C3
:1095800020202020202020202020881010101010C3
:109590001010101010101010101004040404040413
:1095A00004040404101010101010104141414141F6
:1095B000410101010101010101010101010101015B
:1095C00001010101011010101010104242424242EC
:1095D000420202020202020202020202020202022B
:1095E0000202020202101010102000000000000011
:1095F000000000000000000000000000000000006B
:10960000000000000000000000000000000000005A
:10961000000000000000000000000000000000004A
:10962000000000000000000000000000000000003A
:10963000000000000000000000000000000000002A
:10964000000000000000000000000000000000001A
:10965000000000000000000000000000000000000A
:1096600000000000000000000000000000000000FA
:1096700000000000000000000000000000000000EA
:1096800000000000000000000000000000000000DA
:1096900000000000000000000000000000000000CA
:1096A00000000000000000000000000000000000BA
:1096B00000000000000000000000000000000000AA
:1096C0000000000000000000000000001F0000007B
:1096D0001C0000001F0000001E0000001F00000012
:1096E0001E0000001F0000001F0000001E00000000
:1096F0001F0000001E0000001F0000001F000000EF
:109700001D0000001F0000001E0000001F000000E0
:109710001E0000001F0000001F0000001E000000CF
:109720001F0000001E0000001F000000545A0047E8
:109730004D54002531305B5E302D392C2B2D5D25AD
:109740006E004D256875256E2E256875256E2E25B3
:109750006875256E002F256875256E3A2568752574
:109760006E3A256875256E0001520D0061540D009A
:10977000F55A0D00E15B0D00AD630D007D660D0037
:10978000A1670D0025690D00216E0D0075700D009B
:1097900001720D00BD760D0015770D00D9770D0013
:1097A0005D780D00E1780D00000000000000000071
:1097B000496E697469616C697A65000000004572E0
:1097C000726F7200000000000000000049646C65C8
:1097D000000000000000000000004D65617375721C
:1097E000696E6700000000005265706F7274696EE8
:1097F000670000000000526573706F6E736520573C
:1098000061697400536C656570696E6700000000E3
:1098100000004C6F7720426174746572790000001B
:10982000010000000E920D0016920D001B920D001B
:1098300020920D0024920D0029920D002E920D0011
:1098400032920D00A7940D0069950D0000000000F4
:109850006C960D008C960D00AC960D00000000007B
:109860000000000000000000000000004B8F0D0011
:1098700000000000000000000000000000000000E8
:1098800000000000000000000000000000000000D8
:1098900000000000000000000000000000000000C8
:1098A00000000000000000000000000084E1032030
:1098B0002F970D002F970D00010000000000000001
:1098C0004A0000000000000000000000000000004E
:1098D0000000000000000000000000004A0000003E
:1098E0000000000000000000000000000000000078
:0C98F0000000000000000000ECE7032076
:1098FC00FFFFFFFFD5290B00000001020304050642
:10990C000708090A0B0C0D0E0F1011121314151663
:0C991C001718191A1B1C1D1E1F20280004
:049928007856341227
:04000003D0004020C9
:00000001FF
