:02000002D0002C
:1040000000400D00A0B50D00000006000D000501E8
:0840100004017E050000000020
:0440180028A90D00C6
:1040200009480A49884208B505D0094A824202D0A7
:10403000121A04F057FA0748074A0021121A04F02E
:104040005CFA014808BD00BF7CE00320F0B30D001E
:1040500000E2032000E20320F0E7032070B503F044
:10406000C1F9074C074BE41AA40800251E46A542D7
:1040700004D056F8253098470135F8E770BD00BFE9
:10408000ECB30D00ACB30D0000F0BABE08B500F003
:1040900099FCBDE8084003F073B901F099BC01F048
:1040A0009FBC01F09DBC0078B0FA80F040097047D9
:1040B000012303707047000008B5044902F021FF96
:1040C00018B1034B03221A70012008BD88AB0D0004
:1040D00042E2032037B59DF8184023438DF80030A5
:1040E0003C23054601F07CFF284603B030BD0000AC
:1040F00030B58FB0124904A801F008FD04A801F002
:1041000058FD044604A801F0BDFD04A810EE105AA5
:1041100001F09EFD10EE100A03F03AFDCDE9020118
:10412000284603F035FDCDE90001064B064A53F859
:1041300024300648402101F06BFC0FB030BD00BFB9
:104140002CE30320F0E0032080A90D0070E203209F
:104150002DE9D0431A4800231A461946406801F059
:1041600007FC01F09DFB4FF4967440F2E736002700
:10417000002001F0D7F94FF000098046002001F03F
:10418000D1F9B0EB080061EB09018F4208BF86420C
:1041900005D301F095FB10B901F07AFBEEE701F0D1
:1041A0008FFB18B1BDE8D04301F08ABB01F082F962
:1041B000044B186001F06CFB013CF3D0D8E700BF62
:1041C0002CE30320CCE6032008B501F079FB80F056
:1041D0000100C0B208BD0000F8B501F069FB002085
:1041E00001F0A0F90025044643F697260027002099
:1041F00001F098F9001B61EB05018F4208BF864270
:1042000005D3FFF7E1FF10B901F042FBEFE7FFF73D
:10421000DBFF064800231A461946406801F0B0FB50
:104220004FF4FA6001F018FC0120F8BD2CE30320E4
:104230001FB51F4802F050FB1D4802F011FD1D4B39
:104240005C791D4BBCB1142241F2E82118481A6078
:1042500002F0C4FB4FF46171154802F049FC0022E2
:1042600011460292019200920123114802F09FFC34
:1042700041F2700116E01E2241F270010C481A60F2
:1042800002F0ACFB40F2DC51094802F031FC0123A2
:1042900021460294019400941A46054802F087FCD6
:1042A00041F21001024804B0BDE8104002F0B2BC77
:1042B00043E2032008E3032014E2032010B5074C77
:1042C00001F0F8F82368C01AB0F57A7F04D301F042
:1042D000F1F82060012010BD002010BDB0E20320E5
:1042E00008B5FFF7EBFF18B1BDE80840FFF7E6BFE0
:1042F00001F0CEFAF5E7000037B501F0D9FA01F088
:10430000D9F843F69725044601F0DAFA40B101F0F6
:10431000D1F8001BA84203D8642001F09DFBF3E70D
:104320000021094B47F23052084601F06BF84FF478
:104330007A7001F091FB054B0A221B680121684647
:1043400002F012FE03B030BD99A90D005CE203201B
:1043500038B5046805467CB16368013B63605BB9AE
:10436000236820469B689847A368013BA3601BB95C
:1043700023682046DB689847284638BD10B51D4C99
:10438000CEB0E3690A931C4BA0699A6909929B68B5
:104390000893E3680793A36806936368059323680B
:1043A000049303F0F5FBCDE90201606903F0F0FB33
:1043B000124ACDE900014FF480710EA801F028FBEC
:1043C0000F4B10491B7800228DF800200CA80EAA74
:1043D000FFF780FE0DA8FFF7BBFF02F08FFE0A4B30
:1043E00018700A4B01221A7001F064F8084B18602B
:1043F0004EB010BDB8E2032008E30320A6A90D00CB
:104400001CE2032041AA0D0058E20320ECE0032047
:1044100018E2032010B50B7894B00C4623B91C4960
:1044200004A804F0A5F817E0084603F04DFFC828DB
:1044300004D0204603F048FFC9281ED1154904A81E
:1044400004F096F802F052FE134BD861134B012290
:104450001A70134B00221A70FFF742FF114B1249DA
:104460001B7800228DF8002002A804AAFFF732FE74
:1044700003A8FFF76DFF14B010BD204603F024FF22
:104480000A4A0346402104A801F0C2FAE4E700BF4B
:104490005AAA0D006FAA0D0008E3032041E2032091
:1044A000ECE003201CE2032062AA0D0081AA0D00AB
:1044B0007FB5484B484C1A7B1D4652B1474800F027
:1044C0007BFF464884ED050A00F084FF84ED060A70
:1044D00002E00023A3616361606903F059FB404A75
:1044E000CDE9000110213F4801F092FAA06903F0E4
:1044F0004FFB3D4ACDE9000110213C4801F088FA0C
:10450000132003F002F864260023194640F68A625D
:10451000009601F095FA2060122002F0F6FF0023C9
:10452000194640F68A62009601F08AFA606011200E
:1045300002F0EBFF1E2300934FF4306200234FF490
:10454000D67101F07DFA2A4BA0600022114658680E
:1045500001F006FA08B1FFF7CBFD264801F04CFF49
:10456000FDEEC07A244A2548C5ED027A17EE903A4E
:10457000102101F04DFAD4ED057AF5EEC07AF1EE96
:1045800010FA06D49FED1E7AF4EEC77AF1EE10FA17
:1045900018DD1C491C4803F0EBFF1C4802F0F0FA40
:1045A000FFF79EFE01F08CF960B1194B19491B7899
:1045B00000228DF8002002A8174AFFF78BFD03A800
:1045C000FFF7C6FE154B01201870154B187004B08C
:1045D00070BD00BF08E30320B8E203204CE20320D3
:1045E0009EAA0D0004E20320A6AA0D00D8E2032033
:1045F0002CE3032038E20320AFAA0D00E8E20320F9
:1046000000003442B5AA0D001DE2032043E203205E
:104610001CE20320E5AA0D00C7AA0D0048E2032012
:1046200041E2032030B5184985B0044602F069FC28
:10463000054668B1154B01245C71154B1C70FFF7E2
:10464000F7FD144B00221B788DF80020124A10E071
:104650001249204602F055FC98B10C4B5D710C4B91
:1046600001241C70FFF7E4FD0A4B0D4A1B788DF8FE
:1046700000500C4902A8FFF72DFD03A8FFF768FEC4
:10468000204605B030BD00BF88AB0D0008E3032015
:1046900041E203201CE20320EBAA0D0002AB0D0057
:1046A00004AB0D001AAB0D0030B5164985B00446B9
:1046B00002F027FC054658B1134B01241C71134B23
:1046C0001C70134B00221B788DF80020114A0EE05D
:1046D0001149204602F015FC88B10B4B0F4A1D71A1
:1046E0000A4B01241C700A4B1B788DF800500C49B2
:1046F00002A8FFF7EFFC03A8FFF72AFE204605B04B
:1047000030BD00BF88AB0D0008E3032041E2032069
:104710001CE203201FAB0D0002AB0D0030AB0D00FF
:104720001AAB0D0030B5274985B0044602F0E9FB0D
:1047300028B92549204602F0E4FB00283FD0214952
:10474000204602F0DEFB054640B1204B1A791C469C
:1047500012B101F0B5F898B901230CE01A492046CE
:1047600002F0CFFB40B1194B1A791C4612B101F08F
:10477000A7F8A8B90023A371154B012018701EE0FB
:10478000FFF7AEFD134B14491B7800228DF8002073
:1047900002A8124AFFF79EFC03A8FFF7D9FDDBE74A
:1047A000FFF79EFD0B4B0E4A1B780B498DF800500E
:1047B00002A8FFF78FFC03A8FFF7CAFDDAE705B0F0
:1047C00030BD00BF88AB0D0002AB0D0008E3032035
:1047D00041E203201CE203201AAB0D0045AB0D00A3
:1047E0004FAB0D007FB52849054602F08AFB06460F
:1047F000B0B10121022002F05CFE0021032002F092
:1048000058FE224B186801F027F90121032002F01D
:1048100050FE1F4B00221B788DF800201D4A29E016
:104820001D49284602F06DFB044648B101210320D2
:1048300002F03FFE164B194A1B788DF8006019E014
:104840001749284602F05DFBE0B12146022002F044
:1048500030FE2146032002F02CFE0C4B186801F0BC
:10486000FBF80121032002F024FE094B0D4A1B78BE
:104870008DF800400C4902A8FFF72CFC03A8FFF7B5
:1048800067FD012004B070BD88AB0D0044E2032039
:104890001CE2032061AB0D0002AB0D0070AB0D00FC
:1048A00087AB0D008AAB0D0001AD0D0070B586B071
:1048B00003A9006804F0CCFCB5EEC00AF1EE10FAD2
:1048C00031D4F6EE007AB4EEE70AF1EE10FACCBF7E
:1048D000012500253DBBDFED167A164B164E174A13
:1048E000174820EE270A01241C70164BBDEEC00AA3
:1048F0001B6886ED050A102101F08AF83379A3B10F
:1049000000F0DEFF88B1FFF7EBFC0F4B0C4A1B7881
:104910000E498DF8005004A8FFF7DCFB05A8FFF74F
:1049200017FD204602E0002000E0012006B070BD27
:1049300000007A4441E2032008E303209AAB0D0013
:10494000F8E2032044E203201CE203200DAD0D0039
:1049500030B5164D164C17492A7820788FB00E23A3
:1049600003FB0212009203FB0013134A282104A840
:1049700001F04EF82B78237000F0A2FF70B1FFF722
:10498000AFFC0E4B0E491B7800228DF8002002A8C8
:1049900004AAFFF79FFB03A8FFF7DAFC02F0ACFCC8
:1049A00004A902F0A9F90FB030BD00BF42E2032014
:1049B00040E203207CE00320A2AB0D001CE20320B8
:1049C000B0AB0D0070B58C4C2378013B88B0062B42
:1049D00000F2F181DFE813F07A0107003F006E007A
:1049E0008F00C0003801854D2B792BB1844B1B788B
:1049F000022B01D0FFF7ACFF824B1B7833B102F0E2
:104A00009BFD20227D49012000F07CFD7E4B1B7820
:104A100033B102F091FD20227C49502000F072FD5C
:104A2000AB7943B100F046FD794B1B68C01A794B56
:104A3000984200F2BD8102F061FB774BAA681B78B7
:104A400098421CBF03232370744B1B689A4200F3E7
:104A5000B28107232CE0694B1A791D462AB1684BB5
:104A60001B78032B01D0FFF773FFFFF721FD0646EC
:104A7000E8B90123237000F01DFD694B18602B7904
:104A8000002B00F0988100F01BFF002800F09381BC
:104A9000FFF726FC634B644A1B7864498DF800607D
:104AA00006A8FFF717FB07A8FFF752FC83E10423D2
:104AB000237080E1514B1B792BB1514B1B78042B98
:104AC00001D0FFF745FF00F0FBFE68B102F016FBD6
:104AD0000C2805D100F0F4FE10B1002000F010FF0A
:104AE000FFF74CFC0523E3E7FFF732FB002840F01B
:104AF00062810123DCE7414B1B792BB1404B1B78D2
:104B0000052B01D0FFF724FF494B1B7823B900F098
:104B1000D1FC3F4B18606DE000F0CCFC454B1B68AE
:104B2000C01A4AF6C873984240F2458100F0C2FCB0
:104B30003B4B186000F0C4FE0028DAD0394B3E49E8
:104B40001B7800228DF8002006A83C4AFFF7C2FA25
:104B500007A8FFF7FDFBCCE7284B1A791D462AB1C1
:104B6000274B1B78062B01D0FFF7F2FE00F0A8FEC2
:104B7000B0B12B7973B1FFF7B3FB2A4B2B491B78EC
:104B800000228DF8002006A82D4AFFF7A3FA07A8F7
:104B9000FFF7DEFB4FF47A7000F05EFFFFF71CFBBF
:104BA0000021072002F085FC00210E2002F081FC8C
:104BB00002F0AEFA234B1A680423ADF8143008ABA8
:104BC000002103F80E1DC0F13C0002923C22012599
:104BD000504301902A4605A906A8009502F0F4F971
:104BE0002946072002F065FC29460E2002F061FCF0
:104BF000FFF7AEFA02235BE742E2032008E303205B
:104C000040E2032041E2032048E20320B8E203200F
:104C10006CE20320905F010058E2032014E20320BD
:104C2000B4E203201CE2032053AC0D00E9AB0D00FD
:104C3000ECE0032018E20320C1AB0D00A5A90D0094
:104C4000DAAB0D005CE203205C4B1A791D462AB1F9
:104C50005B4B1B78072B01D0FFF77AFE00F030FE8C
:104C6000B0B12B7973B1FFF73BFB564B56491B781C
:104C700000228DF8002006A8544AFFF72BFA07A857
:104C8000FFF766FB4FF47A7000F0E6FEFFF7A4FA38
:104C90000021072002F00DFC02F03AFA4C4B1A6892
:104CA0000423ADF8163008AB022503F80D5DC0F102
:104CB0003C0002923C2250430122019000920DF1EF
:104CC000160106A802F080F9257074E03B4C2379A8
:104CD0002BB13B4B1B78012B01D0FFF739FE00F0C5
:104CE000E9FB3C4B1B6803F5EA433033984262D939
:104CF000A369032B14DC00F0E3FD60B1314B3249B2
:104D00001B7800228DF8002006A8334AFFF7E2F94D
:104D100007A8FFF71DFB4FF4FA6000F09DFE24E0AA
:104D200002F0E4F9254BDB69C01AB0F5E15F1FD949
:104D300000F0C6FD60B1234B23491B7800228DF89B
:104D4000002006A8254AFFF7C5F907A8FFF700FBD2
:104D50004FF4FA6000F080FE0023A36102F0ECFB48
:104D600020221649012000F0CDFB02F0F9F822E0E4
:104D700000F0A6FD60B1134B13491B7800228DF89B
:104D8000002006A8164AFFF7A5F907A8FFF7E0FAE2
:104D90004FF4FA6000F060FE0023A36102F0CCFB48
:104DA00020220649012000F0ADFBFFF7A5FA02E042
:104DB000062323703FE608B070BD00BF08E3032060
:104DC00040E203201CE20320E9AB0D00EFAB0D0035
:104DD0005CE20320B4E2032006AC0D001AAC0D0027
:104DE00034AC0D000023042200F042BD0023022257
:104DF00000F03EBD0246014800F0D1BF735D0D00DA
:104E00002DE9F043AF4BB9B008AA03F110051646DF
:104E100018685968144603C40833AB422246F7D1D8
:104E200019889B782180A3702D2200210DF1330079
:104E300003F063FBA44A02231370A44B1B6893F88E
:104E4000305093F8313003F01F0343EA45152F2DFE
:104E5000904605DD9E4A00210A2000F0A3FC01E0F7
:104E60001F2D03DD05F01F059A4B01E04FF0A04315
:104E7000012404FA05F5C3F808552146072002F07D
:104E800007FB0021042002F003FB0021132002F0A5
:104E9000FFFA0021122002F0FBFA0021112002F09B
:104EA000F7FA21460E2002F0F3FA21460E2002F016
:104EB00000FB2146032002F0EBFA2146022002F01B
:104EC000E7FA2146032002F0F4FA0021022002F062
:104ED000F0FA04A800F0FCFC002700237D2218A9AA
:104EE00004A802F020F87C4D7C4901973B463A46E5
:104EF000009718A800F0FCFC79497A48FFF772FF88
:104F000005F118017848FFF771FF78497848FFF7F5
:104F100069FF78497848FFF765FF78497848FFF7D7
:104F200061FFAB797748DB1B0DF1E00918BF012366
:104F300009F8D83D22463B46494600F099FC7249A3
:104F40007248FFF74FFF72497248FFF74BFF7249F3
:104F50007248FFF74BFF72497248FFF747FF7249EB
:104F60007248FFF743FF72497248FFF73BFF7249EF
:104F70007248FFF73FFF72496248FFF73BFF7149F4
:104F80007148FFF737FF71497148FFF733FF7149E7
:104F90007148FFF72FFF71497148FFF72BFF02F0AF
:104FA000CBFA384600F09EFA022816D14A4C02F09D
:104FB000C3FA20222146012000F09CFA44216948CE
:104FC00000F063F90746D8B96749304603F0D0FAD4
:104FD000664B277301221A7012E002F0ADFA042228
:104FE0006349384600F08EFA02F0A6FA2046042201
:104FF00049460134029700F085FAF02CF4D1D5E748
:10500000002211464846029200F03CFA029B142B03
:1050100005D1AB690133AB61544B01221A70AB6906
:10502000052B04DD2C4B04229A61FFF765F96B69AF
:10503000B3F5FA7F05D9284B14225A614B4B012254
:105040001A70FFF7F5F8042002F04CFA18B9474B34
:10505000A87101221A70FFF72BFA464BAA681B6849
:105060009A4203DC072388F800300DE0FFF770F860
:1050700050B9012388F8003000F01CFA3E4B3F493C
:105080001860304603F074FA00F01AFC08B12B796E
:1050900053B902F031F9314601F02EFE04A801F0B7
:1050A000BCFE39B0BDE8F083354B36491B78002291
:1050B0008DF8002048463246FFF70CF803A8FFF7AA
:1050C00047F9E6E73CA90D0042E2032068E203202D
:1050D000A5540D000003005008E3032015440D0003
:1050E00070E203206DAC0D0074AC0D0074AD0D00CA
:1050F0007FAC0D00E8E2032087AC0D001DE2032029
:1051000092AC0D009FAC0D0004E20320D9AA0D0063
:10511000D8E20320ACAC0D00B8E20320B5AC0D0022
:10512000BCE20320C3AC0D00C0E20320D1AC0D00F3
:10513000F8E203200DAD0D00B9400D00DAAC0D0012
:1051400025470D0025460D00E6AC0D00A9460D00D3
:10515000F1AC0D00E5470D00FEAC0D00AD480D00B3
:105160000AAD0D004CE2032016AD0D0041E2032014
:105170007CA90D0014E20320B4E203202BAD0D0046
:105180001CE203203DAD0D00224B70B500241C60D5
:10519000214B224E01251D7000F0CCF9204B1860E8
:1051A00002F03AF92346224642F6D51102F03CF9C4
:1051B00002F032F9234622460C2102F03DF9194B48
:1051C0004FF6FF721C705C809A80022000F0FAFAA1
:1051D0002146284600F00EFB2946134D042000F01E
:1051E00041F92146284601F0C7F828460F4D1049DD
:1051F000324602F017FA2146284601F084FB324677
:1052000028460C4902F00EFA0B48BDE8704000F049
:1052100019B800BF5CE203201CE2032000E2032077
:1052200068E2032060E2032038E2032043E2032027
:1052300097630D0025690D004CE203200368C9B295
:105240009B681847704738B505460C4602F088F948
:10525000297801F04CF902F083F9210AFFF7EEFFFB
:1052600002F07EF9E1B2FFF7E9FF02F079F9BDE85B
:10527000384001F047B908B543F2A201FFF7E3FF58
:105280000A20BDE8084000F0E7BB38B504460D46EB
:1052900002F066F901F014F920462570FFF7EBFFE4
:1052A000012038BD0A44FF2091420ED011F8013B85
:1052B0005840082310F0800F4FEA400018BF80F0DC
:1052C0003100013BC0B2F5D1EEE7704700000000AD
:1052D00073B54FF410510446FFF7B5FF4FF4FA7061
:1052E00000F0BAFB02F03CF90622217801F0F7F851
:1052F00002F036F903681B69984706284AD1002551
:1053000002F02EF903685B6998470DF80500013536
:10531000062DF5D1022269462046FFF7C3FF9DF80E
:105320000250854236D102220DF103012046FFF7DB
:10533000B9FF9DF8055085422CD1BDF800009DF8BD
:1053400003609DF8045040BA80B202F0FFFB18A33E
:10535000D3E9002302F070FC11A3D3E9002302F08B
:1053600095FD0022104B02F0B3FA02F05DFFA06041
:1053700045EA062002F0EAFB00220C4B02F05CFC3E
:1053800007A3D3E9002302F081FD02F04DFF606026
:10539000012000E0002002B070BD00BFAFF300802C
:1053A00000000000E0FFEF40008046400000594050
:1053B0000000000000E0654010B50446FFF788FFDC
:1053C00010B194ED020A10BD9FED010A10BD00BF9F
:1053D0000000C07F10B50446FFF77AFF10B194EDCE
:1053E000010A10BD9FED010A10BD00BF0000C07F83
:1053F00000F0A0B808B5024B1B685B6C019308BDB8
:105400007402030008B5024B1B689B6C019308BD36
:105410007402030008B5024B1B689B68019308BD2A
:105420004802030008B5024B1B681B69019308BDC5
:105430004802030008B5024B1B685B69019308BD75
:105440004802030008B5024B1B681B6B019308BDA3
:105450004802030008B5024B1B685B6C019308BD52
:105460004802030008B5024B1B685B6E019308BD40
:105470003402030008B5024B1B689B6E019308BD04
:105480003402030008B5024B1B68DB6E019308BDB4
:105490003402030008B5024B1B685B68019308BD2A
:1054A0001802030008B5024B1B68DB68019308BDB6
:1054B0001802030008B5024B1B685B69019308BD25
:1054C0001802030008B5024B1B68DB69019308BD95
:1054D0001802030008B5024B1B689B6A019308BDC4
:1054E0001802030008B5024B1B68DB6A019308BD74
:1054F0001802030008B5024B1B685B6C019308BDE2
:105500001802030008B5024B1B689B6C019308BD91
:105510001802030008B5024B1B689B6D019308BD80
:105520001802030008B5024B1B68DB6D019308BD30
:105530001802030008B5024B1B681B68019308BDE5
:105540002C02030008B5024B1B685B68019308BD81
:105550002C02030008B5024B1B689B68019308BD31
:105560002C02030008B5024B1B68DB68019308BDE1
:105570002C02030008B5024B1B681B69019308BD90
:105580002C02030008B5024B1B685B69019308BD40
:105590002C02030008B5024B1B681B6B019308BD6E
:1055A0002C02030008B5024B1B68DB68019308BDA1
:1055B0002802030008B5024B1B685B69019308BD14
:1055C0002802030008B5024B1B689B69019308BDC4
:1055D0002802030008B5024B1B68DB69019308BD74
:1055E0002802030008B5024B1B681B6A019308BD23
:1055F0002802030008B5024B1B685B6A019308BDD3
:105600002802030008B5024B1B689B6A019308BD82
:105610002802030008B5024B1B68DB6A019308BD32
:105620002802030008B5024B1B681B6B019308BDE1
:105630002802030008B5024B1B685B6B019308BD91
:105640002802030008B5024B1B681B6C019308BDC0
:105650002802030008B5024B1B689B6C019308BD30
:105660002802030008B5024B1B68DB6C019308BDE0
:105670002802030008B5024B1B685B69019308BD53
:105680006402030008B5024B1B689B68019308BDC8
:105690006802030008B5024B1B68DB68019308BD74
:1056A0006802030008B5024B1B68DB69019308BD63
:1056B0003002030008B5024B1B681B6A019308BD4A
:1056C0003002030008B5024B1B681B68019308BD3C
:1056D0003C02030008B5024B1B68DB68019308BD60
:1056E0003C02030008B5024B1B681B69019308BD0F
:1056F0003C02030008B5024B1B685B69019308BDBF
:105700003C02030008B5024B1B689B69019308BD6E
:105710003C02030008B5024B1B68DB69019308BD1E
:105720003C02030008B5024B1B681B6A019308BDCD
:105730003C02030008B5024B1B689B6A019308BD3D
:105740003C02030008B5024B1B681B68019308BDAF
:105750004C02030008B5024B1B681B69019308BD8E
:105760004C02030008B5024B1B685B69019308BD3E
:105770004C02030008B5024B1B689B69019308BDEE
:105780004C02030008B5024B1B68DB69019308BD9E
:105790004C02030008B5024B1B681B6A019308BD4D
:1057A0004C02030008B5024B1B685B6B019308BDFC
:1057B0006002030008B5024B1B681B68019308BD1B
:1057C0002002030008B5024B1B685B68019308BD0B
:1057D0002002030008B5024B1B685B69019308BDFA
:1057E0002002030008B5024B1B689B69019308BDAA
:1057F0002002030008B5024B1B68DB6A019308BD59
:105800002002030008B5024B1B68DB6C019308BD46
:105810002002030008B5024B1B685B6D019308BDB5
:105820002002030008B5024B1B689B6D019308BD65
:105830002002030008B5034B1B68D3F8883001939E
:1058400008BD00002002030008B5034B1B68D3F815
:105850009430019308BD00002002030008B5034BFB
:105860001B68D3F8A030019308BD0000200203009C
:1058700008B5024B1B681B68019308BD4402030076
:1058800008B5024B1B685B68019308BD4402030026
:1058900008B5024B1B689B68019308BD44020300D6
:1058A00008B5024B1B68DB68019308BD4402030086
:1058B00008B5024B1B681B69019308BD4402030035
:1058C00008B5024B1B685B69019308BD44020300E5
:1058D00008B5024B1B68DB69019308BD4402030055
:1058E00008B5024B1B681B6A019308BD4402030004
:1058F00008B5024B1B685B6A019308BD44020300B4
:1059000008B5024B1B68DB6A019308BD4402030023
:1059100008B5024B1B681B6B019308BD44020300D2
:1059200008B5024B1B68DB6B019308BD4402030002
:1059300008B5024B1B685B68019308BD4002030079
:1059400008B5024B1B689B68019308BD4002030029
:1059500008B5024B1B68DB68019308BD40020300D9
:1059600008B5024B1B681B69019308BD4002030088
:1059700008B5024B1B685B69019308BD4002030038
:1059800008B5024B1B689B69019308BD40020300E8
:1059900008B5024B1B68DB69019308BD4002030098
:1059A00008B5024B1B681B6A019308BD4002030047
:1059B00008B5024B1B681B6B019308BD4002030036
:1059C00008B5024B1B685B6B019308BD40020300E6
:1059D00008B5024B1B681B68019308BD1C0203003D
:1059E00008B5024B1B685B68019308BD1C020300ED
:1059F00008B5024B1B689B68019308BD1C0203009D
:105A000008B5024B1B689B69019308BD1C0203008B
:105A100008B5024B1B68DB69019308BD1C0203003B
:105A200008B5024B1B68DB6A019308BD1C0203002A
:105A300008B5024B1B681B6B019308BD1C020300D9
:105A40008A4230B507D0039D441AED1A6C43521AAE
:105A500094FBF2F4E01830BD0021FFF7BBBE10B597
:105A6000836804460BB901F0E4FDC3689847A36856
:105A70001BB1032221462046984720461021BDE84D
:105A8000104001F0D4BD0B68036013B15A680132B5
:105A90005A607047024800230360FFF7DBBC00BF79
:105AA00028E30320002211464068FFF759BF002277
:105AB00011464068FFF774BF002211464068FFF7A7
:105AC0007FBF00224068FFF773BF002281F0010111
:105AD0004068FFF75DBF00231A4619464068FFF78C
:105AE0004FBF00231A4619464068FFF741BF002206
:105AF00011464068FFF724BF002202214068FFF7EB
:105B000027BF00231A464068FFF712BFF0B51B4BB2
:105B1000036000250F462833182689B0436085604E
:105B2000C560324629460446103002F0E6FC2A469B
:105B300029467868FFF714FF08B9A0601BE02946E2
:105B4000324602A80095019502F0D7FC02A96846EA
:105B5000ADF80860FFF74EFC10B10123A3600AE026
:105B6000009B019AA360E2600BB90223A36002A923
:105B7000204600F0A1F8204609B0F0BDB8AD0D00F8
:105B800038B5084C28252A460021204602F0B5FCED
:105B90004FF0FF336360044B258004225A60034AB0
:105BA0001A6038BD34E303202CE3032084AD0D00DC
:105BB0007047007D70470000037D1BB18369B3F11E
:105BC000004F02D19FED050A704707EE903A9FED16
:105BD000047AF8EEE77A87EE870A70470000000043
:105BE0000000C842037D1BB1036AB3F1004F02D12C
:105BF0009FED050A704707EE903A9FED047AF8EEA4
:105C0000E77A87EE870A7047000000000000C8426C
:105C100070B50D4606460A228168284601F0C7F88D
:105C20002C210446284601F058F80A220444F16861
:105C3000284601F0BCF8204470BDA0F10400FFF735
:105C4000E7BF10B52821044601F0F1FC204610BD45
:105C5000037D7BB1436A002B0CDB07EE903ADFED4E
:105C6000076A9FED070AB8EEE77AC7EE267A27EEB5
:105C7000800A7047BFEE000A704700BF00FF7F47F1
:105C80000000C842037D7BB1C369002B0CDB07EE2B
:105C9000903ADFED076A9FED070AB8EEE77AC7EEA4
:105CA000267A27EE800A7047BFEE000A704700BFD1
:105CB00000FF7F470000C84230B50D4600F11004D8
:105CC0000FCD0FC495E8030084E80300012030BD28
:105CD00070470020704710B51021044601F0A7FC62
:105CE000204610BD08B508B1FFF7F5FF08BD10B597
:105CF0008368044613B1032201469847204610BD2D
:105D00000022026010B54FF69C728280B1F9044007
:105D100084808A8002680C6804600A6010BD10B537
:105D200004460068FFF75CFE204610BD38B5C46825
:105D3000F4B12378022B03D104F10C00FFF7EFFF3D
:105D4000656835B12846FFF7D2FF1021284601F0DB
:105D50006EFCA56835B12846FFF7C9FF102128461B
:105D600001F065FC20461421BDE8384001F05FBC1D
:105D700038BD10B588B00446684601F095F869460C
:105D800004A801F0B3F804A8A047044604A801F051
:105D900044F8684601F041F8204608B010BDF0B55F
:105DA000102485B007460E46154600212246684657
:105DB00002F0A3FB002269461046ADF800400297AE
:105DC00003960195FFF75CFD05B0F0BD13B50446E1
:105DD00091E8050000234B600B602060626001A821
:105DE00001930093FEF7B4FA204602B010BDF7B558
:105DF0000C4602AD54F8043B45F8083D06460F46F4
:105E000001A82146FFF73FFE29463046FFF7DEFF97
:105E100001A8FEF79DFA2046FEF79AFA38460821B7
:105E200001F005FC304603B0F0BD13B50B46044647
:105E300003C88DE8030093E8030084E803009DE8AD
:105E4000030083E8030002B010BD000038B5002352
:105E50000446036010200D46FEF71FF928B1012308
:105E600043608360024B0360C5602060204638BDFC
:105E7000ECAD0D00826810B50AB901F0DAFBC36819
:105E8000BDE81040184708B5006800F11001FFF7A1
:105E9000F1FF08BD826810B50AB901F0CAFBC368FA
:105EA000BDE81040184708B5006800F11001FFF781
:105EB000F1FF08BD38B5002383608B6804460D46AA
:105EC0002BB102229847EB68E360AB68A3602046E1
:105ED00038BD0000F0B589B004686846FFF710FFD0
:105EE00000238DF808304FF00202D4E84F3F002B1A
:105EF00003D1C4E8412F0029F7D102D08DF8083032
:105F000063E014F10C0503D069462846FFF7F8FE5C
:105F1000BFF35F8F01236370002004F10803BFF318
:105F20005F8F53E8006F43E80002002AF9D1BFF306
:105F30005F8F002E49D0FFF765FC20B1294630461F
:105F4000FFF798FF3AE0314602A8FFF7B3FFE06899
:105F5000B4F9105008B102F013FB06901020ADF810
:105F60001C50FEF79AF80546E8B100278760182014
:105F7000FEF793F8044688B10146876002A8FFF750
:105F800054FF049BA268A360059B049206A9E268E3
:105F9000E36004F110000592FFF7B2FE0D4BEB60D9
:105FA0000D4B2C60AB6006A8FFF7B9FE02A8FFF707
:105FB0009EFE002229460948FFF72CFC3046FFF7D9
:105FC00096FE1021304601F032FB6846FFF7A7FE2F
:105FD00009B0F0BD875E0D00FD600D005F5A0D0039
:105FE0002DE9F04F8BB006460F46904699469DF836
:105FF00050A0FFF765FC07AD834630BB4FF62E730C
:10600000059005A92846ADF81830FFF779FE142051
:10601000FEF743F8044658B102230370012343708E
:10602000C0F804B0C0F808B029460C30FFF768FE8D
:106030003046214640F8044BFFF708FF2846FFF79B
:106040006EFE05A8FFF76BFE52E000240C2314201F
:106050006C60AC600793FEF720F8014618B104703D
:1060600044704460846004A80391FFF7EFFE224B64
:1060700008930820FEF711F8044628B1039B40F866
:10608000043B04A9FFF7FFFC00955FFA8AF34A4638
:10609000414638460994FFF723FC20B9039B5B78FF
:1060A00003F0FF0283B1039B059304A906A8FFF741
:1060B000EAFC05A93046FFF789FE06A8FEF748F975
:1060C00004A8FEF745F913E04FF69C7305A903A851
:1060D0000592ADF81830FFF7FDFE05A8FFF71FFE8B
:1060E00005A80999FFF783FE06A8FEF731F9DAE75C
:1060F00030460BB0BDE8F08F6D620D00022AF8B596
:10610000044606D0032A17D0012A22D10B68036067
:106110001FE018200E68FDF7C0FF054650B131465C
:10612000FFF7C8FE3069B6F9147008B102F028FA1A
:106130002861AF8225600CE0046854B104F11000BE
:10614000FFF7EDFD2046FFF7D2FD1821204601F0B4
:106150006EFA0020F8BD38B5002383608B680446D2
:106160000D462BB102229847EB68E360AB68A36051
:10617000204638BD022A70B5044606D0032A11D045
:10618000012A18D10B68036015E014200E68FDF792
:1061900084FF054620B13146FFF7DDFF337C2B74C9
:1061A000256008E0046834B12046FFF7A0FD142103
:1061B000204601F03CFA002070BD0000F0B500233D
:1061C00087B00C46BFF35F8F50E8006F40E80032A5
:1061D000002AF9D1BFF35F8F002E3FD01846FFF79A
:1061E00011FB074620B121463046FFF753FE2EE053
:1061F000314601A8FFF7AFFF23788DF81430102047
:10620000FDF74BFF0546D0B187601420FDF745FF31
:10621000044678B18760014601A8FFF706FE039B9C
:10622000A268A360049B0392E268E3609DF81430C7
:10623000049223740A4BEB600A4B2C60AB6001A8FC
:10624000FFF755FD002229460748FFF7E3FA3046DD
:10625000FFF74DFD1021304601F0E9F907B0F0BD20
:10626000A75E0D0075610D005F5A0D0030B585B059
:1062700004460D4668461146FFF7B9FD7CB124B2CD
:1062800028460DB102F07CF9029002A96846ADF8EB
:106290000C40FFF71FFE02A8FFF741FD1DE000982C
:1062A0008DF808404FF00102D0E84F3FA34203D1E0
:1062B000C0E8412F0029F7D102D08DF808300CE05A
:1062C00010F10C014FF0010318BF0373BFF35F8F90
:1062D000043000F8033CFFF771FF01A8FEF738F81F
:1062E00005B030BD002211464068FFF759BB0022BF
:1062F00011464068FFF764BB00224068FFF758BBB7
:10630000002281F001014068FFF742BB00231A46DA
:1063100019464068FFF734BB00231A461946406807
:10632000FFF726BB002211464068FFF719BB002289
:1063300011464068FFF704BB002202214068FFF7C6
:1063400007BB00231A464068FFF7F2BA024B03224C
:106350005A60024A1A6070475CE3032008AE0D00E1
:10636000006800F0D6B810B50446016002710AB1A9
:10637000FFF7F6FF204610BD38B504460D4601F084
:106380000FF92A4601462046FFF7EDFF204638BDAB
:10639000006800F0C7B810B5037904460BB1FFF7E9
:1063A000F7FF204610BDF8B5044616461D460F46B9
:1063B000FFF7D6FF2068362100F09DF820680368BB
:1063C00039469B6898470121206800F097F802221F
:1063D00036210123206800F085F8206803685B6996
:1063E00098473070206803685B699847287020469A
:1063F000BDE8F840FFF7CCBF07B502AB002203F8B9
:10640000012D8DF8062004210DF10602FFF7CBFFC8
:106410009DF8070001F0AAFB0022094B01F00CFCDB
:1064200001F002FF9DF8063000EE103A07EE900AE8
:10643000B8EEC00A37EE800A03B05DF804FB00BF77
:106440000000703F7047F8B5064615460C468F1899
:10645000BC4206D0336814F8011B9B68304698474D
:10646000F6E72846F8BD0022007CFFF7BBB8002104
:10647000007CFFF7BFB80021007CFFF7C3B8002104
:10648000007CFFF7C7B80021007CFFF7CBB810B540
:106490001421044601F0CBF8204610BD10B5044687
:1064A0004FF47A730846A3600021044B20746160A6
:1064B0002360FFF7C7F8204610BD00BF3CAE0D00BB
:1064C00000231A461946007CFFF76CB813B5002468
:1064D000007C0094FFF76EF8C0B202B010BD01233B
:1064E000FFF7F4BFDBB2D2B2C9B2FFF7EFBF0022B1
:1064F000007CFFF767B8C9B2FFF7F9BF0022007C44
:10650000FFF768B80121FFF7F9BF0021007CFFF712
:1065100091B808B50021007CFFF79CF8B0FA80F034
:10652000400908BD08B50021007CFFF79BF8B0FAD0
:1065300080F0400908BD704710B51821044601F0ED
:1065400076F8204610BDF0B5037D062B8DB00E46C3
:1065500000F104074FF0000402D000F1080518E034
:106560000CAD394605F8304D2F232A460A20FFF797
:1065700081F8284602F01FF833680246DB68294696
:10658000304698470FE024B12E21304600F0A5FB9D
:10659000044415F8011D0A22304600F0E4FBBD4218
:1065A0000444F0D120460DB0F0BD000010B5054BFD
:1065B0000446112240F8043B002101F09EFF2046D2
:1065C00010BD00BF64AE0D000346074A10B543F886
:1065D000042B01F1100251F8044B43F8044B914293
:1065E000F9D10A781A7010BD64AE0D0010B59DF88F
:1065F000084044EA032343EA024242EA01610423D9
:106600004160037510BD37B50D788B784A78C9782D
:1066100000912946FFF7EAFF03B030BD014B024A63
:106620001A60704764E30320E0AE0D0000221146BB
:106630004068FFF7B5B9002211464068FFF7C0B9BE
:1066400000224068FFF7B4B9002281F001014068E0
:10665000FFF79EB900231A4601214068FFF790B961
:1066600000231A4619464068FFF782B900221146F6
:106670004068FFF775B9002211464068FFF760B91E
:10668000002202214068FFF763B900231A464068E0
:10669000FFF74EB938B5054688B104684CB1A36818
:1066A0001BB103222146204698471021204600F0C6
:1066B000BEFF28461421BDE8384000F0B8BF38BD01
:1066C00010B103685B681847704710B5036804464B
:1066D000BBB15868FEF79EFE78B923685A7C12B9A0
:1066E0005868FEF79FFE23685868FEF7A3FE2068EF
:1066F0000023236028B1FFF7CDFF206808B1FFF722
:10670000C9FF204610BD000038B50C4B036004469D
:10671000D0F8CC0108B1FDF7C4FCD4F8C45135B1B0
:106720002846FFF7D2FF0421284600F080FFA0682A
:1067300008B1FFF7C5FF204638BD00BF50AF0D00C0
:1067400038B50E4C0E4B23600025022304F5E4708F
:106750006360A560C4F8C451C4F8C851FEF77AFE5E
:10676000084BC4F8CC5184F8D05123602046064A27
:106770000649BDE8384000F055BF00BF68E303207C
:1067800084AF0D0050AF0D0000E2032009670D003B
:1067900000231A464068FFF7CBB800220221406868
:1067A000FFF7D6B8002211464068FFF7C9B80022AB
:1067B00011464068FFF7D4B800231A4619464068CE
:1067C000FFF7D6B800231A4619464068FFF7D8B835
:1067D000002281F001014068FFF7DAB8002240682A
:1067E000FFF7E6B8002211464068FFF7E9B800223B
:1067F00011464068FFF7D4B82DE9F043002495B066
:1068000016460D460746FFF7D1FE214620220CA86A
:10681000009401F072FE40230C9321466B460CAAB3
:106820003046FEF737FF0446002844D102460121D6
:106830006868FFF795F80221804622466868FFF7EE
:106840008FF8009E81462146002E34D0002932D197
:106850007368022B02D00A2B09D02AE0B8F1000F8E
:1068600027D0716938460431FFF7CDFE20E0B9F139
:10687000000F1ED07469112201A801F03EFE06230C
:106880008DF8143001AD04F1080318341868596804
:106890002A4603C20833A3421546F7D101A906A828
:1068A00007ADFFF791FE0FCD3C1D0FC42B68237081
:1068B0000121F669C8E70098FEF7E4FE384615B0F6
:1068C000BDE8F083024B034A1A6000225A60704709
:1068D0003CE5032084AF0D0008B500F061FEFFF732
:1068E00014FE18B900F05CFEFFF7EAFD00F058FE58
:1068F000BDE80840FFF709BE08B500F051FEBDE84D
:106900000840FFF706BE10B50446017009B1FFF755
:10691000F3FF204610BD08B500F042FEBDE8084078
:10692000FFF700BE10B5037804460BB1FFF7F3FF85
:10693000204610BD10B504460068FFF7ECFF204666
:1069400010BD37B502AC0D4644F8040DFFF7D4FF77
:1069500000F026FE6B21FFF7CEFD00F021FE03685C
:1069600029469B68984700F01BFE0121FFF7C6FDF2
:1069700000F016FE01231A466B21FFF7B3FD00F06D
:106980000FFE03685B69984705462046FFF7D2FF74
:10699000E8B203B030BD73B502AC15460E4644F8FC
:1069A000040DFFF7A9FF00F0FBFD6B21FFF7A3FD2E
:1069B00000F0F6FD036831469B68984700F0F0FD53
:1069C000036829469B68984700F0EAFD0121FFF71C
:1069D00095FD2046FFF7AEFF02B070BD37B5044607
:1069E0000D460190FFF788FF00212046FFF7A9FF21
:1069F00041F258139D4200F087025BD020D841F24B
:106A000018039D424DD00CD840F678739D4242D079
:106A100040F6C8739D4241D040F628739D4260D134
:106A200059E041F2B8039D423ED041F208139D4225
:106A30003DD041F268039D4253D142F020024AE02A
:106A400041F298239D423ED00ED841F2F8139D4268
:106A500033D041F248239D4232D041F2A8139D42E7
:106A60003FD142F0400236E041F238339D422DD012
:106A700006D841F2E8239D4233D142F060022AE079
:106A800041F288339D4224D041F2D8339D4228D12F
:106A900042F078021FE042F008021CE042F01002CF
:106AA00019E042F0180216E042F0280213E042F02A
:106AB000300210E042F038020DE042F048020AE0F5
:106AC00042F0500207E042F0580204E042F068024F
:106AD00001E042F0700220460021FFF75CFF012434
:106AE00000E0002401A8FFF725FF204603B030BDD9
:106AF00037B504460D460190FFF7FEFE0021204603
:106B0000FFF71FFFB5F5617F00F0F80223D007D82B
:106B1000962D1AD0B5F5FA7F1AD0642D29D122E02E
:106B200040F2DC539D4219D005D8B5F5966F20D1BF
:106B300042F0040217E0B5F5FA6F12D040F6B83310
:106B40009D4216D142F007020DE042F001020AE038
:106B500042F0020207E042F0030204E042F00502C4
:106B600001E042F0060220460021FFF714FF012455
:106B700000E0002401A8FFF7DDFE204603B030BD91
:106B800037B502AC054644F8040DFFF7B5FE012108
:106B90002846FFF7D6FE012100F0CF022846FFF776
:106BA000FAFE2046FFF7C6FE012003B030BDF7B560
:106BB0000C46054617461E460190FFF79DFE002C29
:106BC0000CBF0024802417B144F04004E4B20EB19D
:106BD00044F020049DF820300BB144F010049DF8DF
:106BE00024300BB144F008049DF828300BB144F078
:106BF000040402212846FFF7A4FE00F0010222430C
:106C000002212846FFF7C7FE01A8FFF793FE0120E7
:106C100003B0F0BD37B504460D460190FFF76CFE9A
:106C200004212046FFF78DFE41F210039D4200F043
:106C3000030206D041F270039D420AD142F0B00235
:106C400001E042F0980220460421FFF7A4FE01244F
:106C500000E0002401A8FFF76DFE204603B030BD20
:106C600037B502AC054644F8040DFFF745FE052193
:106C70002846FFF766FE052100F0CE022846FFF702
:106C80008AFE2046FFF756FE012003B030BDF8B55E
:106C900006460D468F180024BD420CD0336815F807
:106CA000011B9B6830469847002801DB0444F3E74A
:106CB000002C08BF04462046F8BD70B505460C46BA
:106CC000084649B101F077FC2B6802462146284668
:106CD000DB68BDE87040184770BD03689B681847C3
:106CE00038B50D210546FFF7F8FF0A21044628466E
:106CF000FFF7F3FF204438BD38B50546FFF7DDFF49
:106D000004462846FFF7ECFF204438BD30B58BB071
:106D10000B4600218DF82410012A98BF0A220DF19C
:106D20002304B3FBF2F505FB123303F0FF03092B39
:106D300094BF30333733DBB2214604F801392B4698
:106D4000002DEED1FFF7B9FF0BB030BD10B42AB95A
:106D500003685DF8044B9B68C9B21847D2B25DF86E
:106D6000044BFFF7D3BFFFF7F1BF2DE9F041074612
:106D70000E4615462AB90368C9B29B68BDE8F041C2
:106D800018470A2A02D1002901DA04E0D2B2BDE88C
:106D9000F041FFF7BBBF2D21FFF79FFF2A460446B6
:106DA00071423846FFF7B2FF2044BDE8F081FFF79B
:106DB000DCBF10B50446FEF79AFF204610BD000068
:106DC0000348044A04490023836000F02BBC00BF41
:106DD00044E5032000E20320B36D0D00704710B5B9
:106DE0001021044600F023FC204610BD70B5084B6E
:106DF0000360044600250E4640F80C5FFEF722FBB8
:106E000030462671FEF74EFCA560204670BD00BFDF
:106E1000B8AF0D000079FEF74DBC10B50446006810
:106E2000FEF7DEFD204610BD10B50446006808B12F
:106E3000FEF7D6FD00232360A360636010BD38B564
:106E400004460D4600680131FEF7D2FD10B184E81A
:106E50002100012038BD10B50368044613B1436812
:106E60008B4207D22046FFF7EAFF20B1A3680BB997
:106E700022681370012010BD70B50E4611460446FD
:106E80001546FFF7E8FF18B92046FFF7CDFF09E0E8
:106E90002A463146A560206801F024FB2268A368D9
:106EA0000021D154204670BD38B50023044603604C
:106EB0004360836003730D4639B1084601F07BFBE4
:106EC000294602462046FFF7D7FF204638BD8842B4
:106ED00010B50B46044607D0096819B19A68FFF748
:106EE000CBFF01E0FFF7A0FF204610BD10B5002347
:106EF00004460360436083600373FFF7E8FF2046A6
:106F000010BD08B582680B4612B919B9012008BD39
:106F100011B90368187802E0006801F01FFBB0FAAD
:106F200080F0400908BD70B50E469AB191B18568F0
:106F30009D4202D800230B7070BD541EED1A0168EB
:106F4000AC4228BF2C4619442246304601F050FB83
:106F50000023335570BD014600228C20FEF78ABA0B
:106F60000020FFF7F8BF000010B5044608461146A0
:106F70001A460023FEF736FC064B00221A704FF625
:106F8000FF7258809A801A689B882260A3802046EE
:106F900010BD00BF54E5032010B5002404704480E8
:106FA00000294FF6FF74848007DD0139994209D228
:106FB00032F811308380012301E002D102230370F3
:106FC00010BD418010BD000070B586B016461A464F
:106FD000002302930C9B01930D460B9B00930446E8
:106FE0000A9B31462846FEF739FC33462A460146BD
:106FF00004A8FFF7D1FF064B0498BDF814201860D1
:107000009A801A689B8822602046A38006B070BDD3
:1070100054E50320044B00204FF6FF72187058808F
:107020009A80FEF7CFBB00BF54E50320F0B5144BA8
:10703000144F1E68144B064418683B6806449E4271
:107040008BB01BD00AA801AD40F8286D01F04EF9B5
:10705000436903F26C73436104460FCC0FC50FCC38
:107060000FC5D4F800E0C5F800E001AD0FCD074C26
:107070000FC40FCD0FC43E60C4F800E00BB0F0BDEC
:107080008CE5032088E5032084E503205CE50320EC
:1070900008B50020FEF73CFC28B1FEF711FC80F09B
:1070A0000100C0B208BD012008BD10B50020FEF7E8
:1070B00031FA044668B9FEF77DFB01280BD1204662
:1070C000FEF7B0FB38B9FFF7E3FF30B9FEF7E0FB9E
:1070D000F9E7012010BD002010BDFFF7D9FF002007
:1070E000FEF718FA003018BF012010BD08B5FFF7F1
:1070F000DCFFBDE80840FEF7E5B9000008B5FFF782
:10710000F5FFFFF793FF014B986808BD5CE503208E
:1071100008B5FFF7EBFFFFF789FF014B586808BD83
:107120005CE50320024B1A68024B1A60704700BFEF
:1071300010E1032080E5032070474174704708B5D3
:10714000007CFEF7F7FA20EAE07008BD08B5007C85
:10715000FEF7C8FA20EAE07008BD08B5007CFEF72B
:10716000D1FA30EA200028BF4FF0FF3008BD08B543
:10717000007CFEF7BFFA30EA200028BF4FF0FF3056
:1071800008BD007CFEF7C6BA10B51421044600F015
:107190004EFA204610BD70B5457C04460E4625B912
:1071A000007CFEF7C7FA002805DD3146207CBDE8EB
:1071B0007040FEF78FBA284670BD000010B5044637
:1071C00008461146002262604FF47A72A260054AB6
:1071D00022600122207462741A46FEF773FA204678
:1071E00010BD00BFF0AF0D00007CFEF79BBA0000A1
:1071F00038B50C4D296811F0010411D12846FCF76F
:1072000052FF68B1084A094B09482146FFF7D6FFEB
:107210002846FCF74DFF074A0749054800F002FAE7
:10722000034838BD28E603202CE60320A4E503200C
:1072300090E5032000E2032039710D00417470478E
:10724000704708B50021007CFEF794FA30EA200070
:1072500028BF4FF0FF3008BD08B50121007CFEF7C4
:1072600089FA30EA200028BF4FF0FF3008BD08B58A
:10727000007CFEF777FA20EAE07008BD08B5007CD4
:10728000FEF768FA20EAE07008BD007CFEF782BADB
:1072900010B51421044600F0CAF9204610BD38B5D7
:1072A0000446007C0D46FEF75DFA002801DC607C98
:1072B00028B12946207CFEF765FA20EAE07038BD47
:1072C00010B50446002363604FF47A73A360054B46
:1072D000236001230846217463741146FEF732FAD5
:1072E000204610BD20B00D0010B514220446002128
:1072F00001F003F9204610BD30B50E4D87B001A84E
:10730000FFF7F2FF296811F0010410D12846FCF7BD
:10731000CAFE60B101AA21460748FFF7D1FF2846FF
:10732000FCF7C6FE054A0649034800F07BF902480F
:1073300007B030BDB0E60320B4E6032000E203202E
:1073400041720D0008B50C4B33B1FFF7D5FF036850
:107350001B699847002809DC084B63B1FFF748FF19
:1073600003681B699847002803DC08BDAFF3008061
:10737000F2E7AFF3008008BD00000000000000004D
:1073800008B5FFF7DFFFFEF795F8014B186008BD61
:10739000CCE6032007B5002300931A466FF077016F
:1073A000FEF752FA03B05DF804FB000007B543880E
:1073B0000A2B08D0502B09D1094B1B683BB103B0F5
:1073C0005DF804EB1847FFF7E5FF06E000230093A4
:1073D0001A466FF07701FEF737FA03B05DF804FB49
:1073E000C8E6032010B5FEF755F8044601F08EF804
:1073F000074B13B12046AFF3008000210448FEF78D
:107400008FFA00210348BDE81040FEF713BA00BF11
:1074100000000000AD730D0008B5024B1B681B682F
:10742000019308BD5C02030008B5024B1B685B6852
:10743000019308BD5C02030008B5024B1B689B6802
:10744000019308BD5C02030010B504460F48FFF726
:10745000E1FC28B1A4F10B03022B01D8002010BDE0
:1074600000F07EF8FFF751F808B1012CF6D9FFF7CC
:10747000BFFEFFF7B9FE18B1A4F10903012BEDD946
:10748000232C8CBF0020012010BD00BF08E7032083
:10749000232838B504460D460AD8FF2908D0FFF73F
:1074A000D3FF28B129462046BDE83840FEF752B840
:1074B00038BD38B504460D46FEF754F8FF2810D005
:1074C000062804D84D2323FA00F0C30709D4204628
:1074D000FFF7BAFF28B129462046BDE83840FEF73D
:1074E00049B838BD10B50446FEF73CF80438C0B2C0
:1074F000012808D92046FFF7A7FF20B12046BDE8A4
:107500001040FEF73FB8002010BD0D2810B504460E
:107510009CBF0E34A4B22046FFF796FF50B1032162
:107520002046FEF70FF8032804D12046BDE810409E
:10753000FEF730B8002010BD10B5074C2368DB07FC
:1075400008D42046FCF7AFFD20B1FDF7C3FF20466D
:10755000FCF7AEFD014810BDD0E60320D4E60320C1
:1075600038B50B4D296811F001040FD12846FCF7FE
:107570009AFD58B121460748FEF790FF2846FCF7D0
:1075800097FD054A0549034800F04CF8014838BD0D
:10759000D8E60320F0E6032000E2032045640D0056
:1075A00010B50B4C2368DB070FD42046FCF77BFD9E
:1075B00058B101210748FEF771FF2046FCF778FD1E
:1075C000054A0649034800F02DF8024810BD00BFE7
:1075D00004E70320DCE6032000E2032045640D00FD
:1075E00070B50C4C0C4E0D4D00212046FFF7FEFBF4
:1075F00020460B4C3246294600F014F80121204663
:10760000FFF7F4FB324629462046BDE8704000F003
:1076100009B800BF08E7032000E20320DD6D0D007C
:1076200018E703200B460146184600F051BEFCF750
:1076300036BD08B5FEF7F4F9244B1A68D0075CBFD5
:1076400001221A60224B1A68D1075CBF01221A601E
:10765000204B1A68D2075CBF01221A601E4B1A68C1
:10766000D0075CBF01221A601C4B1A68D1075CBFAF
:1076700001221A601A4B1A68D2075CBF01221A60F5
:10768000184B1A68D0075CBF01221A60164B1A68A3
:10769000D1075CBF01221A60144B1A68D2075CBF85
:1076A00001221A60124B1A68D0075CBF01221A60CF
:1076B000104B1A68D1075CBF01221A600E4B1A6882
:1076C000D2075CBF01221A60704700BF54E7032055
:1076D00050E703204CE7032048E7032044E703205A
:1076E00040E703203CE7032038E7032034E703208A
:1076F00030E703202CE7032028E70320184B1A6803
:10770000D1075CBF01221A60164B1A68D2075CBF12
:1077100001221A60144B1A68D0075CBF01221A605C
:10772000124B1A68D1075CBF01221A60104B1A680D
:10773000D2075CBF01221A600E4B1A68D0075CBFEB
:1077400001221A600C4B1A68D1075CBF01221A6033
:107750000A4B1A68D2075CBF01221A60704700BF4B
:1077600074E7032070E703206CE7032068E7032039
:1077700064E7032060E703205CE7032058E7032069
:10778000184B1A68D1075CBF01221A60164B1A68A1
:10779000D2075CBF01221A60144B1A68D0075CBF85
:1077A00001221A60124B1A68D1075CBF01221A60CD
:1077B000104B1A68D2075CBF01221A600E4B1A6880
:1077C000D0075CBF01221A600C4B1A68D1075CBF5E
:1077D00001221A600A4B1A68D2075CBF01221A60A4
:1077E000704700BF94E7032090E703208CE7032055
:1077F00088E7032084E7032080E703207CE7032059
:1078000078E70320244B1A68D0075CBF01221A6076
:10781000224B1A68D1075CBF01221A60204B1A68FC
:10782000D2075CBF01221A601E4B1A68D0075CBFEA
:1078300001221A601C4B1A68D1075CBF01221A6032
:107840001A4B1A68D2075CBF01221A60184B1A68DB
:10785000D0075CBF01221A60164B1A68D1075CBFC3
:1078600001221A60144B1A68D2075CBF01221A6009
:10787000124B1A68D0075CBF01221A60104B1A68BD
:10788000D1075CBF01221A600E4B1A68D2075CBF99
:1078900001221A60704700BFC4E70320C0E703203D
:1078A000BCE70320B8E70320B4E70320B0E70320D8
:1078B000ACE70320A8E70320A4E70320A0E7032008
:1078C0009CE7032098E7032081F0004102E000BF1D
:1078D00083F0004330B54FEA41044FEA430594EA90
:1078E000050F08BF90EA020F1FBF54EA000C55EACB
:1078F000020C7FEA645C7FEA655C00F0E2804FEA9C
:107900005454D4EB5555B8BF6D420CDD2C4480EA7D
:10791000020281EA030382EA000083EA010180EAAD
:10792000020281EA0303362D88BF30BD11F0004FFB
:107930004FEA01314FF4801C4CEA113102D0404231
:1079400061EB410113F0004F4FEA03334CEA13336C
:1079500002D0524263EB430394EA050F00F0A78084
:10796000A4F10104D5F1200E0DDB02FA0EFC22FA7F
:1079700005F2801841F1000103FA0EF2801843FA73
:1079800005F359410EE0A5F120050EF1200E012A64
:1079900003FA0EFC28BF4CF0020C43FA05F3C018A2
:1079A00051EBE37101F0004507D54FF0000EDCF11B
:1079B000000C7EEB00006EEB0101B1F5801F1BD3C4
:1079C000B1F5001F0CD349085FEA30004FEA3C0CC8
:1079D00004F101044FEA445212F5800F80F09A80BE
:1079E000BCF1004F08BF5FEA500C50F1000041EBC2
:1079F000045141EA050130BD5FEA4C0C404141EBC6
:107A0000010111F4801FA4F10104E9D191F0000FEC
:107A100004BF01460020B1FA81F308BF2033A3F16F
:107A20000B03B3F120020CDA0C3208DD02F1140C66
:107A3000C2F10C0201FA0CF021FA02F10CE002F1A1
:107A40001402D8BFC2F1200C01FA02F120FA0CFC9A
:107A5000DCBF41EA0C019040E41AA2BF01EB0451E3
:107A6000294330BD6FEA04041F3C1CDA0C340EDCE1
:107A700004F11404C4F1200220FA04F001FA02F324
:107A800040EA030021FA04F345EA030130BDC4F1E2
:107A90000C04C4F1200220FA02F001FA04F340EAD7
:107AA0000300294630BD21FA04F0294630BD94F088
:107AB000000F83F4801306BF81F480110134013D6F
:107AC0004EE77FEA645C18BF7FEA655C29D094EAE0
:107AD000050F08BF90EA020F05D054EA000C04BF5E
:107AE0001946104630BD91EA030F1EBF0021002049
:107AF00030BD5FEA545C05D14000494128BF41F0E8
:107B0000004130BD14F580043CBF01F5801130BD4B
:107B100001F0004545F0FE4141F470014FF00000D6
:107B200030BD7FEA645C1ABF194610467FEA655C87
:107B30001CBF0B46024650EA013406BF52EA033529
:107B400091EA030F41F4002130BD00BF90F0000F17
:107B500004BF0021704730B54FF4806404F1320453
:107B60004FF000054FF0000150E700BF90F0000F0C
:107B700004BF0021704730B54FF4806404F1320433
:107B800010F0004548BF40424FF000013EE700BF03
:107B900042004FEAE2014FEA31014FEA02701FBF93
:107BA00012F07F4393F07F4F81F06051704792F065
:107BB000000F14BF93F07F4F704730B54FF46074DF
:107BC00001F0004521F0004120E700BF50EA01022A
:107BD00008BF704730B54FF000050AE050EA0102D7
:107BE00008BF704730B511F0004502D5404261EB47
:107BF00041014FF4806404F132045FEA915C3FF488
:107C0000DCAE4FF003025FEADC0C18BF03325FEA20
:107C1000DC0C18BF033202EBDC02C2F1200300FAD5
:107C200003FC20FA02F001FA03FE40EA0E0021FAFA
:107C300002F11444C1E600BF70B54FF0FF0C4CF4E4
:107C4000E06C1CEA11541DBF1CEA135594EA0C0F9A
:107C500095EA0C0F00F0DEF82C4481EA030621EAD5
:107C60004C5123EA4C5350EA013518BF52EA033510
:107C700041F4801143F4801338D0A0FB02CE4FF0C2
:107C80000005E1FB02E506F00042E0FB03E54FF0F2
:107C90000006E1FB03569CF0000F18BF4EF0010EEA
:107CA000A4F1FF04B6F5007F64F5407404D25FEAE6
:107CB0004E0E6D4146EB060642EAC62141EA555199
:107CC0004FEAC52040EA5E504FEACE2EB4F1FD0CDB
:107CD00088BFBCF5E06F1ED8BEF1004F08BF5FEA59
:107CE000500E50F1000041EB045170BD06F000460B
:107CF00046EA010140EA020081EA0301B4EB5C04B8
:107D0000C2BFD4EB0C0541EA045170BD41F48011AF
:107D10004FF0000E013C00F3AB8014F1360FDEBFD4
:107D2000002001F0004170BDC4F10004203C35DAB0
:107D30000C341BDC04F11404C4F1200500FA05F333
:107D400020FA04F001FA05F240EA020001F00042D4
:107D500021F0004110EBD37021FA04F642EB06014A
:107D60005EEA430E08BF20EAD37070BDC4F10C0474
:107D7000C4F1200500FA04F320FA05F001FA04F238
:107D800040EA020001F0004110EBD37041F1000124
:107D90005EEA430E08BF20EAD37070BDC4F120052F
:107DA00000FA05F24EEA020E20FA04F301FA05F297
:107DB00043EA020321FA04F001F0004121FA04F23F
:107DC00020EA020000EBD3705EEA430E08BF20EA0F
:107DD000D37070BD94F0000F0FD101F00046400049
:107DE00041EB010111F4801F08BF013CF7D041EACB
:107DF000060195F0000F18BF704703F000465200CF
:107E000043EB030313F4801F08BF013DF7D043EA9F
:107E10000603704794EA0C0F0CEA135518BF95EA55
:107E20000C0F0CD050EA410618BF52EA4306D1D1DC
:107E300081EA030101F000414FF0000070BD50EAFB
:107E4000410606BF1046194652EA430619D094EA85
:107E50000C0F02D150EA013613D195EA0C0F05D16F
:107E600052EA03361CBF104619460AD181EA0301C3
:107E700001F0004141F0FE4141F470014FF000007B
:107E800070BD41F0FE4141F4780170BD70B54FF016
:107E9000FF0C4CF4E06C1CEA11541DBF1CEA135596
:107EA00094EA0C0F95EA0C0F00F0A7F8A4EB050478
:107EB00081EA030E52EA03354FEA013100F088806F
:107EC0004FEA03334FF0805545EA131343EA126338
:107ED0004FEA022245EA111545EA10654FEA0026ED
:107EE0000EF000419D4208BF964244F1FD0404F5A6
:107EF000407402D25B084FEA3202B61A65EB030502
:107F00005B084FEA32024FF480104FF4002CB6EBBE
:107F1000020E75EB030E22BFB61A754640EA0C003E
:107F20005B084FEA3202B6EB020E75EB030E22BF7E
:107F3000B61A754640EA5C005B084FEA3202B6EBBF
:107F4000020E75EB030E22BFB61A754640EA9C007E
:107F50005B084FEA3202B6EB020E75EB030E22BF4E
:107F6000B61A754640EADC0055EA060E18D04FEA0C
:107F7000051545EA16754FEA06164FEAC30343EAAC
:107F800052734FEAC2025FEA1C1CC0D111F4801F79
:107F90000BD141EA00014FF000004FF0004CB6E772
:107FA00011F4801F04BF01430020B4F1FD0C88BF11
:107FB000BCF5E06F3FF6AFAEB5EB030C04BFB6EB1C
:107FC000020C5FEA500C50F1000041EB045170BD0F
:107FD0000EF0004E4EEA113114EB5C04C2BFD4EB3C
:107FE0000C0541EA045170BD41F480114FF0000EC0
:107FF000013C90E645EA060E8DE60CEA135594EA3C
:108000000C0F08BF95EA0C0F3FF43BAF94EA0C0F3E
:108010000AD150EA01347FF434AF95EA0C0F7FF4B3
:1080200025AF104619462CE795EA0C0F06D152EA07
:1080300003353FF4FDAE1046194622E750EA4106EB
:1080400018BF52EA43067FF4C5AE50EA41047FF4FC
:108050000DAF52EA43057FF4EBAE12E74FF0FF3C61
:1080600006E000BF4FF0010C02E000BF4FF0010C32
:108070004DF804CD4FEA410C7FEA6C5C4FEA430CAB
:1080800018BF7FEA6C5C1BD001B050EA410C0CBFFA
:1080900052EA430C91EA030F02BF90EA020F00205C
:1080A000704710F1000F91EA030F58BF994208BFC3
:1080B00090422CBFD8176FEAE37040F00100704780
:1080C0004FEA410C7FEA6C5C02D150EA013C07D1D7
:1080D0004FEA430C7FEA6C5CD6D152EA033CD3D022
:1080E0005DF8040B704700BF8446104662468C461C
:1080F0001946634600E000BF01B5FFF7B7FF00284F
:1081000048BF10F1000F01BD4DF808EDFFF7F4FF77
:108110000CBF012000205DF808FB00BF4DF808ED02
:10812000FFF7EAFF34BF012000205DF808FB00BF25
:108130004DF808EDFFF7E0FF94BF012000205DF847
:1081400008FB00BF4DF808EDFFF7CEFF94BF0120FC
:1081500000205DF808FB00BF4DF808EDFFF7C4FFF5
:1081600034BF012000205DF808FB00BF4FEA410C3E
:108170007FEA6C5C02D150EA013C0AD14FEA430C21
:108180007FEA6C5C02D152EA033C02D14FF000005E
:1081900070474FF0010070474FEA410212F500129C
:1081A00015D211D56FF47873B3EB625212D94FEA3E
:1081B000C12343F0004343EA505311F0004F23FA28
:1081C00002F018BF404270474FF00000704750EA7D
:1081D000013005D111F0004008BF6FF0004070473A
:1081E0004FF00000704700BF4A0011D212F5001294
:1081F00011D20DD56FF47873B3EB62520ED44FEAFF
:10820000C12343F0004343EA505323FA02F070477E
:108210004FF00000704750EA013002D14FF0FF30BC
:1082200070474FF0000070474FEA4102B2F1E0435F
:1082300024BFB3F5001CDCF1FE5C0DD901F0004C4D
:108240004FEAC0024CEA5070B2F1004F40EB83009D
:1082500008BF20F00100704711F0804F21D113F1C9
:108260003872BCBF01F00040704741F480114FEA02
:108270005252C2F11802C2F1200C10FA0CF320FA8B
:1082800002F018BF40F001004FEAC1234FEAD323A8
:1082900003FA0CFC40EA0C0023FA02F34FEA430312
:1082A000CCE77FEA625307D150EA01331EBF4FF09B
:1082B000FE4040F44000704701F0004040F0FE40B6
:1082C00040F40000704700BF0A22002101F066B8A8
:1082D00010B5054C13462CB10A4601460220AFF3F7
:1082E000008010BD204610BD0000000038B5074BCF
:1082F0001C68E36B05461BB92420FDF769FBE063AE
:10830000E16B2846BDE8384000F002B878E1032070
:108310002DE9F0410C46804601F064FE21460746F7
:10832000404601F063FE466906F26C76B3070446E8
:1083300005D1642296FBF2F302FB13634BB94FF4B1
:10834000C87596FBF5F305FB1365B5FA85F35B0974
:1083500000E001235F4A302505FB032501F058F9B1
:1083600001F058F95C4B1B68F3B17B689E4205D164
:108370003968D8F80030FA6941B90AE0304601F0AE
:108380009FF80028F4D14FF0FF330DE0934208DB53
:1083900001E0934207DABA6B9342ACBF002301239A
:1083A00002E0002300E001232362236A012B0CBFBB
:1083B000F96B396A4FF461633C2091FBF3F603FBE0
:1083C0001613616893FBF0F200FB12302368891AE0
:1083D000A26861601B1A921B3B2B2360A26003DD25
:1083E000013161603C3B04E0002B03DA013961603C
:1083F0003C33236063683B2B03DD0132A2603C3BCE
:1084000004E0002B03DA013AA2603C336360A36806
:10841000172B22DDE2690132E261A2690132062AEC
:10842000C8BF0022A261E268183B0132A360236941
:10843000E26055F823108A4246DD01330C2B0CBF55
:1084400063692361A2EB0102E26001BF01330022F4
:108450002261636108BFE26136E0002B34DAE26931
:10846000013AE261A269013A48BF0622A261E268CC
:108470001833013AE260A36032BB2369013B01D4A7
:1084800023611DE00B23236163695A1E12F0030F61
:10849000626103F26B7305D1642193FBF1F201FB7E
:1084A00012324AB94FF4C87193FBF1F201FB123357
:1084B000B3FA83F35B0900E0012303F5B673E361CC
:1084C000236955F82330E36001F0A3F82046BDE8A6
:1084D000F08100BFB4B10D00E4E70320004870470D
:1084E0007CE1032010B5431E0A44914204D011F8E8
:1084F000014B03F8014FF8E710BD024403469342D5
:1085000002D003F8011BFAE77047000038B5124BA0
:108510001C68A36B0546D3B91820FDF759FA43F23E
:108520000E33A06303804AF6CD33438041F23423F7
:1085300083804EF26D63C3804DF6EC6303810523A7
:1085400043810B23838101220023C0E90423A36B11
:1085500000221D615A6138BD78E1032010F8012B1B
:1085600011F8013B012A28BF9A42F7D0D01A704770
:10857000034611F8012B03F8012B002AF9D17047AB
:10858000024B0146186800F003B800BF78E10320F1
:1085900070B5064608460C4600F00DF8451C294605
:1085A0003046FDF745FA064618B12A462146FFF740
:1085B00099FF304670BD034613F8012B002AFBD10A
:1085C000181A0138704730B582B1451E013915F8C7
:1085D000013F11F8014FA34206D1EC431444E0429D
:1085E00001D0002BF3D11C46181B30BD104630BD06
:1085F00010B5034642B111F8014B03F8014B013AA3
:10860000002CF7D11A4400E010BD934202D003F8C9
:10861000014BFAE710BD70B504460D4645EC104B12
:10862000164602F041F851EC100B7EB1C5F30A5327
:10863000C3F16B03002B09DD1B0503F17F550024FB
:1086400005F5401522462B46FFF7F6FA70BD0000EF
:108650002DE9F04F9DB0002302900C461392189321
:108660004FF0000A4FF0000B1791179B1A780D2A54
:1086700005D8092A13D2002A00F0AC8112E02B2A77
:1086800004D02D2A04D0202A0CD108E0002200E0DA
:1086900001220C925A1C17925B782BB99AE1013394
:1086A0001793E2E700230C93179D2B78302B5CD1B6
:1086B0006B78582B01D0782B4CD10C9B019318ABC5
:1086C0000093A94A029819AB17A901F074F910F0A8
:1086D0000706044600F08785062E05D101350023E4
:1086E00017950C9300F07FBD189A3AB135211AA85E
:1086F00002F0C7F81899029801F045FD062E22D81D
:10870000DFE806F0040D08181D0D04004FF0000B03
:10871000DA4618E0DDF868A0DDF86CB013E01B9BCA
:10872000199ADDF868A023F4801302F2334243EA79
:10873000025B08E0DFF834B24FF0000A03E06FF0AC
:10874000004B4FF0FF3A210740F14D854BF0004BB5
:1087500000F049BD179B5A1C17925B78302BF9D05B
:10876000002B00F04085012300E000234FF00008BB
:108770000693179B0793CDF81480CDF810800A223A
:10878000179D2E78A6F13003D9B209290ED8049985
:108790000829DDBF059902FB0133059302FB083868
:1087A000049B0135013304931795E9E70298FFF71D
:1087B00095FE07680298FFF791FE0068FFF7FBFE41
:1087C000394602462846FFF7FEFE074628B100203C
:1087D0003346049D0246014657E00298FFF77EFEAD
:1087E0000068FFF7E8FE179B1A181792049A1B5CA3
:1087F000002A42D11046302B05D1179B5A1C1792E4
:1088000001305B78F7E7A3F13102082A43D8179AC1
:108810000792024600200546303B00F1010126D0B8
:108820000A4405EB000C29460A2661450ED00131A9
:1088300001F1FF3EBEF1080F03DC059F774305976A
:10884000F3E71029D8BF06FB08F8EEE7284408280C
:1088500000F1010505DC05980A2101FB00330593B1
:1088600004E0102DDCBF0A2101FB08380021179B12
:10887000581C17905B78084602E0049D38463A463B
:10888000A3F130010929C7D90121652B01D0452B5E
:1088900051D16DB904E0652B40F0B3840022012171
:1088A00028B9069B002B00F09580054600E00025C6
:1088B000179C631C179363782B2B06D02D2B02D0AB
:1088C0000026039606E0012300E000230393A31C87
:1088D0001793A378A3F13006092E2BD8302B04D19F
:1088E000179B5E1C17965B78F8E7A3F13106082EFC
:1088F00021D8A3F1300E179B4FF00A0C1F46179B8F
:108900005E1C17965B78A3F13009B9F1090F04D802
:108910000CFB0E3EAEF1300EF1E7F61B082E44F6CE
:108920001F6902DCF145A8BFF146039E2EB1C9F1D3
:10893000000902E017944FF00009002D53D10028E0
:1089400040F05184069A002A40F04D84002941D11C
:108950004E2B20D002DC492B0AD03BE0692B07D0FC
:108960006E2B18D036E000BF14B20D000000F07F6F
:10897000A84917A801F050FA60B3179BA649013B1C
:1089800017A8179301F048FA10B9179B01331793F2
:10899000DFF8A0B21AE0A14917A801F03DFAC8B16A
:1089A000179B1B78282B0FD11AAA9D4917A801F0F5
:1089B00046FA052808D11B9BDDF868A043F0FF4B61
:1089C0004BF4E00B00F00FBCDFF86CB24FF0000A84
:1089D00000F009BC139B1794002B00F00F840023B8
:1089E0000C9300F002BC049B0598002B08BF2B469B
:1089F000102D2C46C2EB0909A8BF10240493FFF7E1
:108A0000A5F8092C82468B4613DD864B03EBC40385
:108A100053E91223FFF710F9064640460F46FFF7C9
:108A200095F802460B4630463946FEF753FF82461C
:108A30008B460F2D36DCB9F1000F00F0D48324DD16
:108A4000B9F1160F07DC774D05EBC90952465B46B5
:108A5000D9E9000114E0C5F12503994522DC714CE8
:108A6000C5F10F0504EBC501C5EB090552465B4690
:108A7000D1E9000104EBC504FFF7DEF8D4E90023D7
:108A8000FFF7DAF882468B46ADE319F1160F09DBE2
:108A9000644DA5EBC909D9E9002350465946FFF7B3
:108AA000F5F9EFE72C1B4C44002C57DD14F00F01B7
:108AB0000AD05C4B03EBC10152465B46D1E9000191
:108AC000FFF7BAF882468B4634F00F0400F0B88006
:108AD000B4F59A7F0BDD0024254605940494029A90
:108AE000DFF850B1222313604FF0000A87E14E4EA9
:108AF000002324115046594698463746012C0BDD79
:108B0000E20704D5D6E90023FFF796F8012308F120
:108B1000010864100836F1E70BB182468B46ABF1D1
:108B2000547B07EBC80752465B46D7E90001FFF7C5
:108B300083F821F000438B460A461B0D3B491B0579
:108B40008B428246C7D8A1F580118B4286BFDFF8E1
:108B5000ECB04FF0FF3A02F1547B71E070D0644208
:108B600014F00F020AD02F4B03EBC20350465946B4
:108B7000D3E90023FFF78AF982468B4624115FD0A0
:108B80001F2C04DD002425460594049430E114F0E4
:108B9000100F0CBF00236A23254E039350465946FD
:108BA0000023002C09DDE20704D5D6E90023FFF7F6
:108BB00043F8012364100836F3E70BB182468B4675
:108BC000039BEBB1CBF30A53C3F16B03002B594664
:108BD00016DD1F2B0EDD342BDEBF203B4FF0FF32A6
:108BE00002FA03F34FF0000ACCBF4FF05C7B03EABC
:108BF000010B05E04FF0FF3202FA03F303EA0A0A21
:108C00000022002350465946FFF77EFA0028B9D1CA
:108C100018E000BF3CB20D003FB20D0045B20D00A0
:108C200028B20D00B0B20D0078B30D000000A07C9A
:108C300048B20D000000F07F0000F8FFFFFFEF7F5B
:108C400000230393059B0093049A079902982B46EF
:108C500001F0EBFA059000283FF43DAFB9F1000FA9
:108C6000C9F10003A8BF00230D93002429EAE9738A
:108C700012932546059B0298596801F04FFA04901B
:108C800000283FF42CAF059B1A69023203F10C0156
:108C900092000C30FFF726FC1AAA19A94BEC10AB76
:108CA0000298CDE908AB01F074FD189000283FF45C
:108CB00016AF0121029801F043FB054600283FF45E
:108CC0000EAF199B03991A9E002BADBF0D9A129AF5
:108CD000DDF8348002EB0308B8BFD21AA3EB01031E
:108CE0003344B549A8BF129A013B8B42C6F1360600
:108CF00080F28A80C91A1F29C8BFB04F4FF00109FE
:108D0000D4BF09FA01F3FF1AA6EB0106D9BF0693F7
:108D1000002709FA07F7CDF8189008EB0609039B1E
:108D2000C84516441E444346A8BF4B46B342A8BF9D
:108D30003346002BC2BFC3EB0909F61AC3EB080880
:108D40000D9B002B64D1B9F1000F7ADC129B002B34
:108D500040F08180002E00F38880B8F1000F00F30E
:108D60008E80049A1899029801F03FFC044600286E
:108D70003FF4B5AEC36807930023C360294601F0F2
:108D800018FC002880F28980079B002B40F00482A9
:108D9000BAF1000F40F00082CBF31303002B40F038
:108DA000FB812BF000431B0D1B05B3F1D66F40F286
:108DB000F3816369002B6CD021460122029801F0F7
:108DC000A7FB2946044601F0F4FB002840F3E481A8
:108DD0002BF00043039A1B0D1B05002A00F08C802A
:108DE000B3F1D66F00F38880B3F15C7F00F3D681D6
:108DF000029A22234FF0000A4FF0000B1360059BEC
:108E0000002B40F0DC81EEE101230027069384E78C
:108E100029461A46029801F02DFB054600283FF42A
:108E20005EAE0146189A029801F093FA0790002866
:108E30003FF455AE1899029801F0A5F9079B1893D5
:108E400081E74A461899029801F062FB18900028C1
:108E50007FF47CAF43E6129A0499029801F00AFB72
:108E6000049000287FF476AF39E6324604990298E0
:108E700001F04EFB049000287FF46FAF2FE62946E7
:108E80004246029801F044FB054600287FF469AF92
:108E900025E62369012B8FDC7EE161D1079ACBF3B4
:108EA000130322B346498B425A462ED1039B5146A7
:108EB00063B1444B1340B3F1D46F07D81B0DC3F11A
:108EC0006B034FF0FF3000FA03F301E04FF0FF3384
:108ED0008B421AD13C498A4202D101333FF4FFADA3
:108EE000384B134003F5801B4FF0000A54E163B97F
:108EF000BAF1000F09D16BE7A3F580136FEA135B9A
:108F00006FEA0B5B4FF0FF3A46E117B117EA0B0F20
:108F100002E0069B13EA0A0F00F03E81079B039ACA
:108F20005046594653B1FFF776FB02460B46DDE942
:108F30000801FEF7CFFC82468B462DE1FFF76BFB65
:108F400002460B46DDE90801FEF7C2FC00220023C1
:108F500082468B46FFF7D8F800287FF449AF1BE123
:108F60002946204601F063FC57EC106B00224FF0BD
:108F7000804310EE100A3946FFF7DAF8002842D095
:108F8000079B23B14FF00008DFF8409011E0BAF1E1
:108F9000000F03D1CBF313033BB91BE0BAF1010F70
:108FA00003D1BBF1000F3FF423AFDFF824904FF063
:108FB00000080026054F39E002FCFFFFE2FBFFFF3F
:108FC000FFFF0F000000F07FFFFFEF7F0000F03F8A
:108FD0000000F0BF0022984B30463946FFF79EF85C
:108FE00040B9304639460022944BFEF725FE06462E
:108FF0000F4601E0914F002607F1004314961593A8
:10900000DDE9148912E08D4B304639460022FEF727
:1090100013FE079B06460F4623B901F100430E904D
:109020000F9301E0CDE90E67DDE90E892BF00043D7
:109030001B0D1B050693069A814B9A422BD1DDE945
:109040000823ABF1547B4BEC10ABCDE90A2301F0C4
:109050002BFB404653EC102B4946FEF7EDFD5246E4
:109060005B46FEF737FC21F000431B0D754A1B05DC
:10907000934282460CD9744B0B9A9A4203D10A9BB5
:1090800001333FF42CADDFF8C0B14FF0FF3A72E08E
:1090900001F1547B38E0039B33B3069BB3F1D46FEB
:1090A00022D85DA3D3E9002330463946FFF740F8C4
:1090B000A8B139463046FFF797F8002808BF0120CD
:1090C000FEF744FD079B06460F4623B901F1004316
:1090D0001090119301E0CDE91067DDE91089069A3F
:1090E00009F1D663C2EB03099DED080B01F0DCFA30
:1090F000404653EC102B4946FEF79EFDDDE9082360
:10910000FEF7E8FB82468B46039BA3BB2BF0004394
:109110001B0D069A1B059A42D8462CD1394630467B
:10912000FFF73AF8FEF722FD0B4602463946304675
:10913000FEF7CEFB079B06460F462BB9BAF1000F90
:1091400002D1CBF3130383B135A3D3E90023304617
:109150003946FEF7E3FF002831D133A3D3E90023DA
:1091600030463946FEF7F8FF04E031A3D3E9002387
:10917000FEF7D4FF18BB1899029801F004F804997F
:10918000029801F000F82946029800F0FCFF214601
:10919000029800F0F8FF6DE5039B83B12B4B0B9316
:1091A00000230A9350465946DDE90A23FEF744FDA1
:1091B00082468B4619B910B9029A22231360189976
:1091C000029800F0E0FF0499029800F0DCFF2946C5
:1091D000029800F0D8FF0599029800F0D4FF2146CC
:1091E000029800F0D0FF139B13B1139A179B1360E2
:1091F0000C9B1BB152460BF1004307E052465B4605
:1092000004E000252A460121FFF741BB43EC102B67
:109210001DB0BDE8F08F00BF0000C0FFFFFFDF41C1
:109220009535A094FFFFDF3F35E5AF350000E03F07
:109230009535A094FFFFCF3F0000F03F0000E03FD6
:109240000000E07FFFFF9F7CFFFFEF7F00005039B1
:1092500038B50E4B0A4601461868FFF7F9F955EC88
:10926000104B10EE102A2B4610EE100A2946FEF77E
:109270007DFF20B10020BDE8384001F04DBB204605
:109280002946FEF7D1FF00EE100A38BD78E1032031
:109290002DE9F04780464048D0F800900F463D4603
:1092A00015F8014B09EB0400407800F0080000F0CD
:1092B000FF0608B12F46F2E72D2C03D1BD1C7C78A8
:1092C000012603E02B2C04BF7C78BD1C13B1102BAE
:1092D0000AD15BE0302C57D1287800F0DF00582805
:1092E0004DD16C7810230235002E14BF4FF0004C86
:1092F0006FF0004C0027BCFBF3FA384603FB1ACC96
:1093000009EB040E9EF801E01EF0040F01D0303C82
:109310000BE01EF0030E1BD0BEF1010F0CBF4FF08F
:10932000370E4FF0570ECEEB0404A34210DDB7F119
:10933000FF3F0AD0504506D801D1644503DC03FB4A
:109340000040012701E04FF0FF3715F8014BD7E748
:109350007B1C0CD1002E4FF0220314BF4FF00040B5
:109360006FF00040C8F800302AB9BDE8F08706B1B8
:10937000404272B107B1691E1160BDE8F087302428
:10938000002BB1D10823AFE70A23ADE7302CA3D0DF
:10939000AAE7BDE8F08700BF14E1032013460A46A0
:1093A000014602480068FFF773BF00BF78E1032061
:1093B0002DE9F04780463C48D0F800900E463546EF
:1093C00015F8014B09EB0400407800F0080000F0AC
:1093D000FF0708B12E46F2E72D2C03D1B51C747897
:1093E000012703E02B2C04BF7478B51C13B1102B9C
:1093F0000AD153E0302C4FD1287800F0DF005828F4
:1094000045D16C78102302354FF0FF3C0026BCFBA1
:10941000F3FC03FB0CFA6FEA0A0A304609EB040E70
:109420009EF801E01EF0040F01D0303C0BE01EF06E
:10943000030E1AD0BEF1010F0CBF4FF0370E4FF0E4
:10944000570ECEEB0404A3420FDD002E08DB60456F
:1094500006D801D1544503DC03FB0040012601E09E
:109460004FF0FF3615F8014BD8E7002E07DA22231C
:10947000C8F800304FF0FF302AB9BDE8F08707B1D7
:10948000404272B106B1691E1160BDE8F087302418
:10949000002BB9D10823B7E70A23B5E7302CABD0AE
:1094A000B2E7BDE8F08700BF14E1032013460A4687
:1094B000014602480068FFF77BBF00BF78E1032048
:1094C0002DE9F74F044600F08DFD40F2B1739C4248
:1094D00040F396806FF4F663E318A4F2B2729B1027
:1094E00040F26D1505FB0235A4F26D726FF0630357
:1094F00092FBF3F36FF4C8622B44A5184FF4C872C3
:1095000095FBF2F51D44642394FBF2F794FBF3F60C
:1095100002FB174703FB164600F13803B7FA87FE34
:10952000019304F0030344604FEA5E1E014600937A
:109530004FF0070C0B7A4A2B0ED14B69009AEC18AE
:1095400002B906B927B93B2BD4BF0023012300E0A1
:1095500000232344013B3FE0442B02D14B692B44C1
:109560003AE0009B2BB9002E0CBFF0464FF00108EB
:1095700000E0F046244BCC68302202FB0838A8F10A
:10958000040AA9460123A34204DA5AF804BF0133AE
:10959000D944F8E709F1040393FBFCFBCBEBCB0ABE
:1095A000012CCAEB030A4B69B8BF012404F18044C3
:1095B000B3EB0A0A0B6904F1FF3403F1FF3348BF30
:1095C0000AF1070AC3EBC30358F824405344A342EB
:1095D00001DB073BFBE74B448C690C4A02FB03436E
:1095E0000C6A234441F81C3F019B9942A2D1C369F4
:1095F000826B9342ACBF002301230360012000E093
:10960000002003B0BDE8F08FB4B10D00805101001F
:1096100070477047014B186800F002B878E10320EA
:109620002DE9F04F8DB0074600F0DCFCB049B14E9B
:109630000446384600F0CEFC054660B9AE4BAF4A52
:109640001860AF4B1860AF4B30681A605A60FCF777
:10965000C7F9356048E1316879B93068FCF7C0F97D
:109660002846FEF7A8FF411C3846FCF7E1F93060B8
:1096700048B12946FEF77CFF05E0FEF76FFF0028A2
:1096800000F03281E9E72B789F4AA0493A2B08BFC6
:1096900001350AAE33462846FCF7B2F9002840F3FC
:1096A00023810A9BEF18EB5C2D2B03D101374FF080
:1096B000FF3503E02B2B08BF013701250DF1200AF0
:1096C0000DF11E0B4FF000080396CDF808A001968F
:1096D000CDF800B0334607AA8D49ADF81E80384654
:1096E000ADF82080FCF78CF9404540F3FD80BDF8D3
:1096F0001E20BDF82030DFF824923C2101FB02330C
:10970000BDF81C204FF4616101FB02335D4325620B
:109710007C4D7D4B2B600A9B7C491F444A46334657
:109720003846FCF76DF9404508DC2B686B60724BDE
:10973000226A1A60724BC3F80080D5E00A9BC5F814
:109740000490FD18FB5C2D2B03D101354FF0FF3742
:1097500003E02B2B08BF013501270023ADF81C3097
:10976000ADF81E30ADF820300A930396CDF808A06E
:109770000196CDF800B0334607AA65492846FCF7A4
:109780003FF9002804DC236AA3F56163E3630EE07C
:10979000BDF81E20BDF820303C2101FB0233BDF88E
:1097A0001C204FF4616101FB02335F43E7630A9BB6
:1097B00027461D444FF000092B782C2B08BF01359C
:1097C00095F80080B8F14D0F26D10DF126030293D4
:1097D00009AB00930396019633460DF122024D49E1
:1097E0002846FCF70DF903287ED1BDF822104B1E48
:1097F0000B2B79D8BDF82420531E042B74D8BDF848
:109800002630062B70D887F80880F9603A617B61B2
:109810000A9B05EB03082AE0B8F14A0F06BF0135A1
:10982000434644230A220BA928460593FFF73EFE30
:10983000DDF82C80ADF826004545059B14D14D235D
:10984000B9F1000F07D123720323E36002232361E0
:10985000C4F814900BE084F824300B23A362012396
:10986000E3620023236302E080B23B72786102234B
:10987000ADF81C300023ADF81E30ADF820300A934F
:1098800098F800302F2B0BD10396CDF808A0019645
:10989000CDF800B0334607AA1F494046FCF7B0F8A0
:1098A000BDF81E20BDF820303C2101FB0233BDF87D
:1098B0001C204FF4616101FB0233BB610A9D09F179
:1098C0000109B9F1020F454407F11C077FF474AF99
:1098D0006068FFF7F5FD084B226A1A60E36B9B1A7C
:1098E000074A18BF012313600DB0BDE8F08F00BF19
:1098F00070B20D00E0E70320E8E7032073B20D002B
:10990000E4E70320B4E10320D3E7032077B20D009E
:109910009AB20D0086B20D0099B20D00C8E703207F
:10992000F0B506694B11B34200F1140527DA11F0C6
:109930001F0105EB860605EB830201D1294616E0DF
:10994000141D55F82320C1F1200ECA402B46B44205
:1099500009D2276807FA0EF73A4343F8042B54F864
:10996000042BCA40F3E71A6052B1043308E0B24254
:109970000B4605D252F8043B41F8043BF7E72B466F
:109980005B1B9B10036103B94361F0BDA0F1300381
:10999000092B01D820380AE0A0F16103052B01D87A
:1099A000473804E0A0F14103052B02D82738C0B2A4
:1099B0007047002070472DE9F04F8BB08A469046E3
:1099C00006930290FEF78AFD036803931846FEF79C
:1099D000F2FD039B019003444FF0000B13F8013C90
:1099E0000793DAF8003002331F4613F8010B3028D2
:1099F00002D10BF1010BF7E7FFF7C8FF0446E0B90E
:109A0000019A03993846FEF7DEFD002834D1019B08
:109A1000F85CFE18FFF7BAFF80B333461878302899
:109A20001F4603F10103F9D0FFF7B0FFB0FA80F54C
:109A30006D0934464FF0010B01E000252C463A46F3
:109A4000164601323078FFF7A1FF0028F8D1019ABD
:109A500003993046FEF7B7FD50B954B9019BF4188D
:109A60002246164601323078FFF790FF0028F8D1E1
:109A700034B1A41BA40003E03E4600E004460125E7
:109A80003378502B01D0702B2AD173782B2B08D030
:109A90002D2B03D0711C4FF0000905E04FF0010998
:109AA00001E04FF00009B11C0878FFF76FFF431E7B
:109AB000DBB2182B14D8A0F1100211F8010FFFF738
:109AC00065FF431EDBB2182B04D80A2303FB0202F6
:109AD000103AF2E7B9F1000F00D05242144400E00E
