:02000002D0002C
:1040000000400D0008970D00000006000D0005019E
:0840100004017E050000000020
:044018005C8C0D00AF
:1040200009480A49884208B505D0094A824202D0A7
:10403000121A04F04FF90748074A0021121A04F037
:1040400054F9014808BD00BFF4E0032090950D002D
:1040500040E2032040E20320F0E7032070B503F0C4
:1040600067F9074C074BE41AA40800251E46A54231
:1040700004D056F8253098470135F8E770BD00BFE9
:1040800084950D0044950D0000F068BE08B500F061
:1040900067FCBDE8084003F019B901F0F9BB01F075
:1040A000FFBB01F0FDBB0078B0FA80F0400970471B
:1040B000012303707047000008B5044902F089FE2F
:1040C00018B1034B03221A70012008BDB68F0D00F2
:1040D00081E2032001F06EB901F074B937B59DF8A3
:1040E000184023438DF800303C23054601F0E0FEE4
:1040F000284603B030BD000030B58FB0124904A887
:1041000001F06CFC04A801F0BCFC044604A801F01A
:1041100021FD04A810EE105A01F002FD10EE100A65
:1041200003F0DCFCCDE90201284603F0D7FCCDE921
:104130000001064B064A53F824300648402101F09E
:10414000CFFB0FB030BD00BF2CE3032068E103209C
:10415000B08C0D009CE203202DE9D0431A480023C7
:104160001A461946406801F063FB01F0F9FA4FF472
:10417000967440F2E7360027002001F03BF94FF03B
:1041800000098046002001F035F9B0EB080061EB32
:1041900009018F4208BF864205D301F0F1FA10B938
:1041A00001F0D6FAEEE701F0EBFA18B1BDE8D04322
:1041B00001F0E6BA01F0E6F8044B186001F0C8FA25
:1041C000013CF3D0D8E700BF2CE30320CCE603206A
:1041D00008B501F0D5FA80F00100C0B208BD0000BA
:1041E000F8B501F0C5FA002001F004F900250446F5
:1041F00043F697260027002001F0FCF8001B61EB36
:1042000005018F4208BF864205D3FFF7E1FF10B9D1
:1042100001F09EFAEFE7FFF7DBFF064800231A469E
:104220001946406801F00CFB4FF4FA6001F07CFB8A
:104230000120F8BD2CE303201FB51F4802F0B4FA9B
:104240001D4802F075FC1D4B1C781D4BBCB114229F
:1042500041F2E82118481A6002F028FB4FF461711E
:10426000154802F0ADFB0022114602920192009225
:104270000123114802F003FC41F2700116E01E22F6
:1042800041F270010C481A6002F010FB40F2DC5160
:10429000094802F095FB0123214602940194009401
:1042A0001A46054802F0EBFB41F21001024804B047
:1042B000BDE8104002F016BC82E2032014E30320A4
:1042C00054E2032010B5074C01F05CF82368C01AD3
:1042D000B0F57A7F04D301F055F82060012010BDBD
:1042E000002010BDFCE2032008B5FFF7EBFF18B17A
:1042F000BDE80840FFF7E6BF01F02AFAF5E7000045
:1043000037B501F035FA01F03DF843F6972504463C
:1043100001F036FA40B101F035F8001BA84203D88D
:10432000642001F001FBF3E70021094B47F2305212
:10433000084600F0D7FF4FF47A7001F0F5FA054B0C
:104340000A221B680121684602F076FD03B030BDE9
:10435000C98C0D00E8E2032038B5046805467CB13D
:104360006368013B63605BB9236820469B6898479C
:10437000A368013BA3601BB923682046DB6898470C
:10438000284638BD00B51D4BCBB01B6807931C4BAE
:104390001B6806931B4B1B6805931B4B1B68049300
:1043A0001A4B186803F09AFBCDE90201184B186804
:1043B00003F094FB174ACDE900014FF480710AA87D
:1043C00001F08EFA144B15491B7800228DF800205D
:1043D00008A80AAAFFF782FE09A8FFF7BDFF02F0AE
:1043E00033FE0F4B18700F4B01221A7000F0CAFFFA
:1043F0000D4B18604BB05DF804FB00BF84E2032056
:10440000DCE2032094E20320E0E2032098E20320B0
:10441000F8E20320D68C0D005CE20320398D0D00FC
:10442000E4E2032064E1032058E20320F0B585B004
:10443000084602AF0E4603F0B6FF00F1080323F072
:1044400007036D46ADEB030D02AC421C314620461E
:1044500003F0C6FF9DF808604EB901F091F90028FD
:1044600037D01E4B1E4A1B788DF800602AE020468C
:1044700003F026FEC83801281BD801F081F960B18D
:10448000164B18491B7800228DF800203846164A32
:10449000FFF724FE381DFFF75FFF02F0F3FF02F085
:1044A000CCFDC1B20520FFF717FE104B00221A7099
:1044B0000FE001F065F960B1084B00221B788DF820
:1044C0000020224638460A49FFF708FE381DFFF74C
:1044D00043FF0C37AD46BD46F0BD00BF5CE2032094
:1044E000508D0D00778D0D00658D0D0064E103206A
:1044F000588D0D001FB53848384C00F0CDFE10EE39
:10450000100A84ED000A03F0E9FA354ACDE900010A
:104510001021344801F0E4F92F4800F0CBFE324B73
:1045200010EE100A83ED000A03F0D8FA2F4ACDE905
:10453000000110212E4801F0D3F9132002F08BFF67
:10454000642300930023194640F68A6201F0E0F9E3
:10455000284B1860284B00221146586801F060F97A
:1045600008B1FFF7C9FD254801F0AEFE244A2548F1
:10457000FDEEC07A1021C2ED007A17EE903A224A81
:1045800001F0AEF9D4ED007AF5EEC07AF1EE10FA52
:1045900006D49FED1E7AF4EEC77AF1EE10FA18DD1C
:1045A0001B491C4803F0DCFE1B4802F051FAFFF7E0
:1045B0009BFE01F0E5F860B1184B19491B78002209
:1045C0008DF8002002A8174AFFF788FD03A8FFF71F
:1045D000C3FE012004B010BD88E20320F8E20320EE
:1045E0007D8D0D0044E2032098E20320858D0D00AF
:1045F00004E30320E0E203202CE3032078E203201D
:1046000094E2032015E303208E8D0D000000344258
:10461000948D0D005DE2032082E203205CE2032022
:10462000C48D0D00A68D0D0030B5244985B005461A
:1046300002F0CFFB0446D0B1214B224D01241C7067
:1046400002F020FF0420FFF745FD40F00400287031
:1046500002F018FF29780420FFF73EFDFFF7ECFD7C
:10466000194B00221B788DF80020184A1CE01849CD
:10467000284602F0AEFBF8B1114B124D1C7002F04F
:1046800001FF0420FFF726FD20F00400287002F04F
:10469000F9FE29780420FFF71FFDFFF7CDFD0A4B37
:1046A0000C4A1B788DF800400B4902A8FFF716FD55
:1046B00003A8FFF751FE012005B030BDB68F0D00F5
:1046C00014E3032025E303205CE20320CA8D0D00E0
:1046D000E18D0D00E38D0D00F98D0D0030B52249FF
:1046E00085B0054602F075FB0446C0B11F4B204D56
:1046F00001241C7002F0C6FE0420FFF7EBFC40F022
:104700000800287002F0BEFE29780420FFF7E4FCC0
:10471000184B00221B788DF80020174A1AE0174921
:10472000284602F056FBE8B1104B114D1C7002F008
:10473000A9FE0420FFF7CEFC20F00800287002F04C
:10474000A1FE29780420FFF7C7FC0A4B0C4A1B780E
:104750008DF800400B4902A8FFF7C0FC03A8FFF743
:10476000FBFD012005B030BDB68F0D00F3E2032044
:1047700025E303205CE20320FE8D0D00E18D0D009A
:104780000F8E0D00F98D0D0030B5CDB00A2205A9B0
:10479000006803F0BFFEC4B204F10C03DBB2182BB7
:1047A0003DD843B207EE903AB8EEE70A03931D4DA9
:1047B00002F0E4FB02F066FE21460320FFF78CFCCA
:1047C0000024039B184A4FF480710CA801F088F86C
:1047D0002B7816498DF800400CAA08A8FFF77EFC3C
:1047E00009A8FFF7B9FD4FF47A7001F09DF802F0C7
:1047F00024FC014608A802F0DDFB089B0393039A02
:104800002B780A498DF8004006A8FFF767FC07A837
:10481000FFF7A2FD08A802F068FA012000E00020DE
:104820004DB030BD5CE20320248E0D00388E0D00AB
:104830007FB52649054602F0CCFA28B92449284616
:1048400002F0C7FA00283FD002F01CFE0420FFF758
:1048500041FC204C1D492070284602F0BAFA064659
:10486000A0B11D4B1D491B7800228DF8002002A825
:104870001B4AFFF733FC03A8FFF76EFD237843F0D4
:1048800001032370174B01221A7016E010492846C5
:1048900002F09FFA88B1104B134A1B780F498DF82C
:1048A000006002A8FFF71AFC03A8FFF755FD237864
:1048B00003F07E0323700B4B1E7002F0E3FD042017
:1048C0002178FFF709FC012004B070BDB68F0D0000
:1048D000E18D0D0025E303205CE20320F98D0D003E
:1048E0003D8E0D00F2E20320478E0D0030B5164DCF
:1048F000164C17492A7820788FB00E2303FB02123A
:10490000009203FB0013134A282104A800F0E8FFDB
:104910002B78237000F034FF70B1FFF7E5FC0E4BED
:104920000E491B7800228DF8002002A804AAFFF788
:10493000D5FB03A8FFF710FD02F084FC04A902F0E8
:1049400043F90FB030BD00BF81E2032080E20320B5
:10495000F4E00320598E0D005CE20320678E0D0009
:1049600070B5A14C2378013B88B0062B00F2D881AA
:10497000DFE813F0620107002D005C007D00AF004E
:10498000F7009A4B1B782BB1994B1B78022B01D067
:10499000FFF7ACFF974B1B7843B100F0F3FC964B4D
:1049A0001B68C01A954B984200F2B78102F04CFB8D
:1049B000934B1B7898421CBF03232370914B1A68BA
:1049C000914B1B689A4200F3AB8107232CE0874B85
:1049D0001A781D462AB1864B1B78032B01D0FFF7AE
:1049E00085FFFFF787FD0646E8B90123237000F035
:1049F000C9FC864B18602B78002B00F0918100F0E9
:104A0000BFFE002800F08C81FFF76EFC804B814ACE
:104A10001B7881498DF8006006A8FFF75FFB07A8A7
:104A2000FFF79AFC7CE10423237079E16F4B1B783C
:104A30002BB16F4B1B78042B01D0FFF757FF00F011
:104A40009FFE68B102F000FB0C2805D100F098FE33
:104A500010B1002000F0B4FEFFF794FC0523E3E75B
:104A6000FFF77AFB002840F05B810123DCE75F4B16
:104A70001B782BB15E4B1B78052B01D0FFF736FF5F
:104A8000664B1B782BB900F07DFC5B4B1860022352
:104A9000CAE700F077FC624B1B68C01A4AF6C8737D
:104AA000984240F23D8100F06DFC584B186000F0D8
:104AB00067FE0028D9D0564B5A491B7800228DF842
:104AC000002006A8584AFFF709FB07A8FFF744FC97
:104AD000CBE7464B1A781D462AB1454B1B78062B6F
:104AE00001D0FFF703FF00F04BFEB0B12B7873B19C
:104AF000FFF7FAFB464B48491B7800228DF800204F
:104B000006A84A4AFFF7EAFA07A8FFF725FC4FF480
:104B10007A7000F009FFFFF763FB0021072002F025
:104B20006EFC02F09BFA424B1A680523ADF8143074
:104B300008AB022603F80E6DC0F13C0002923C2245
:104B4000504301252A46019005A906A8009502F0C8
:104B5000A3F92946072002F052FCFFF7FDFA267060
:104B6000DEE0224B1A781D462AB1214B1B78072B19
:104B700001D0FFF7BBFE00F003FEB0B12B7873B19C
:104B8000FFF7B2FB224B24491B7800228DF800204E
:104B900006A8284AFFF7A2FA07A8FFF7DDFB4FF4A3
:104BA0007A7000F0C1FEFFF71BFB0021072002F026
:104BB00026FC02F053FA1E4B1A680523ADF8163096
:104BC00008AB022503F80D5DC0F13C0002923C22C7
:104BD00050430122019000920DF1160106A802F047
:104BE0005BF925709CE000BF81E20320F3E2032023
:104BF00080E20320F2E20320F4E20320905F010050
:104C0000E4E2032094E2032054E2032000E30320C3
:104C10005CE20320048F0D00778D0D0064E103201A
:104C200058E20320788E0D00D58C0D00918E0D007A
:104C3000E8E20320A08E0D003A4B1B782BB13A4BD3
:104C40001B78012B01D0FFF751FE00F09BFB374B87
:104C50001B6803F5EA433033984261D9344B1B6833
:104C6000032B14DC00F08CFD60B1324B32491B7811
:104C700000228DF8002006A8304AFFF72FFA07A877
:104C8000FFF76AFB4FF4FA6000F04EFE25E002F0F9
:104C9000D4F9044602F0F6FB0520FFF71BFA201AB0
:104CA000B0F5E15F1CDD00F06BFD60B1214B2249E6
:104CB0001B7800228DF8002006A8214AFFF70EFA83
:104CC00007A8FFF749FB4FF4FA6000F02DFE02F051
:104CD000D9FB00210220FFF7FFF902F0A9F81FE03D
:104CE00000F04EFD60B1134B13491B7800228DF884
:104CF000002006A8134AFFF7F1F907A8FFF72CFBDD
:104D00004FF4FA6000F010FE02F0BCFB002102201C
:104D1000FFF7E2F9FFF7F4FA02E00623237045E615
:104D200008B070BDF3E2032080E2032000E303201B
:104D3000DCE203205CE20320778D0D00B78E0D00CE
:104D4000CB8E0D00E58E0D000023042200F0F0BC98
:104D50000246014800F08BBF435C0D002DE9F04195
:104D6000994BB8B008AA03F110051646186859689F
:104D7000144603C40833AB422246F7D119889B7806
:104D8000A3702D2221800DF1330000218F4F03F0FD
:104D9000ACFA0225012107203D7002F01FFB002123
:104DA000052002F01BFB04A8002400F0F1FC002306
:104DB0007D2218A904A802F01EF823462246844941
:104DC0000194009418A800F0F3FC82498248FFF790
:104DD000BBFF23462A468149814800F0A9FC81494E
:104DE0008148FFF7B1FF81498148FFF7ADFF814955
:104DF0008148FFF7A9FF234601228049804800F03F
:104E000097FC80498048FFF79FFF80498048FFF763
:104E10009BFF23462A467F497F4800F089FC7F4953
:104E20007F48FFF795FF7F497548FFF791FF7E495F
:104E30007E48FFF78DFF7E497E48FFF789FF7E4958
:104E40007E48FFF785FF02F01DFB2046FFF742F981
:104E500001280FD144217A4800F089F9F8B979493D
:104E6000304603F07DFA00F08DFA774B186001238D
:104E70003B7014E002F006FB0125042202A9204643
:104E8000029500F0A7FA02F0FDFA2846042202A9D2
:104E90000135029400F09EFA0A2DF4D1DAE702F00F
:104EA000F1FA0220FFF716F94C4C0022206011465F
:104EB00002A8029200F056FA029B142B08D1236834
:104EC0000133236002F0DEFA21780220FFF704F9B3
:104ED0002368052B07DD02F0D5FA04210220FFF735
:104EE000FBF8FFF70DFA02F0CDFA0320FFF7F2F816
:104EF00000F10C03DBB2182B9ABF43B200EE103A5C
:104F00009FED520ADFF8F480514C524D98BFB8EE35
:104F1000C00A02F033F802F0B5FA0420FFF7DAF81D
:104F200000F0010388F800304B4B2070C0F3800282
:104F3000C0F3C0001A702870FFF77EF9FFF7DAFAA5
:104F4000464B1A68464B1B689A4202DC07233B70AB
:104F50000CE0FFF701F948B901233B7000F012FAA9
:104F6000394B40491860304603F0FAF9052002F049
:104F70005FFA78B9237888F8000023F001032370E2
:104F800002F080FA04212078FFF7A6F8364930466F
:104F900003F0E6F900F0F4FB08B12B782BB904A874
:104FA00001F0A3FE38B0BDE8F081304B30491B78EA
:104FB00000228DF8002002A83246FFF78FF803A8E0
:104FC000FFF7CAF9EBE700BF708C0D0081E2032008
:104FD0002D440D009CE203201E8F0D00DCE2032017
:104FE000258F0D0018900D00308F0D0015E3032064
:104FF000388F0D005DE20320438F0D00F2E20320A5
:10500000508F0D0044E20320B88D0D0004E303200F
:105010005D8F0D00E0E20320668F0D00B9400D00AA
:10502000738F0D0031480D0029460D007F8F0D0054
:10503000DD460D008A8F0D0089470D00978F0D000A
:1050400088E20320A38F0D0000E30320000000008E
:1050500025E30320F3E2032014E3032094E203207A
:1050600054E20320B88F0D00CA8F0D005CE20320CC
:10507000E18F0D00214B70B500241C60204B214EA8
:1050800001251D7000F0BEF902F06CF9234622469E
:1050900042F6D51102F06EF902F064F92346224679
:1050A000092102F06FF9184B4FF6FF721C705C80FB
:1050B0009A80022000F0E6FA2146284600F0FAFA2B
:1050C0002946124D042000F03DF92146284601F002
:1050D000BBF828460E4D0F49324602F049FA2146E8
:1050E000284601F078FB324628460B4902F040FA88
:1050F0000A48BDE8704000F017B800BFE8E203209E
:105100005CE2032040E20320ECE2032078E203208B
:1051100082E2032067620D00F5670D0088E203203C
:105120000368C9B29B681847704738B505460C46F6
:1051300002F0BCF9297801F042F902F0B7F9210A2E
:10514000FFF7EEFF02F0B2F9E1B2FFF7E9FF02F07C
:10515000ADF9BDE8384001F03DB908B543F2A20110
:10516000FFF7E3FF0A20BDE8084000F0DDBB38B5DB
:1051700004460D4602F09AF901F00AF9204625701E
:10518000FFF7EBFF012038BD0A44FF2091420ED00B
:1051900011F8013B5840082310F0800F4FEA4000FF
:1051A00018BF80F03100013BC0B2F5D1EEE7704787
:1051B00073B54FF410510446FFF7B7FF4FF4FA7080
:1051C00000F0B2FB02F072F90622217801F0EFF84C
:1051D00002F06CF903681B69984706284AD100253C
:1051E00002F064F903685B6998470DF80500013522
:1051F000062DF5D1022269462046FFF7C5FF9DF82E
:105200000250854236D102220DF103012046FFF7FC
:10521000BBFF9DF8055085422CD1BDF800009DF8DC
:1052200003609DF8045040BA80B202F035FC18A328
:10523000D3E9002302F0A6FC11A3D3E9002302F076
:10524000CBFD0022104B02F0E9FA02F0ADFEA060A7
:1052500045EA062002F020FC00220C4B02F092FCF2
:1052600007A3D3E9002302F0B7FD02F09DFE6060C2
:10527000012000E0002002B070BD00BFAFF300804D
:1052800000000000E0FFEF40008046400000594071
:105290000000000000E0654010B50446FFF788FFFD
:1052A00010B194ED020A10BD9FED010A10BD00BFC0
:1052B0000000C07F10B50446FFF77AFF10B194EDEF
:1052C000010A10BD9FED010A10BD00BF0000C07FA4
:1052D00000F098B808B5024B1B685B6C019308BDE1
:1052E0007402030008B5024B1B689B6C019308BD58
:1052F0007402030008B5024B1B689B68019308BD4C
:105300004802030008B5024B1B681B69019308BDE6
:105310004802030008B5024B1B685B69019308BD96
:105320004802030008B5024B1B681B6B019308BDC4
:105330004802030008B5024B1B685B6C019308BD73
:105340004802030008B5024B1B685B6E019308BD61
:105350003402030008B5024B1B689B6E019308BD25
:105360003402030008B5024B1B68DB6E019308BDD5
:105370003402030008B5024B1B685B68019308BD4B
:105380001802030008B5024B1B685B69019308BD56
:105390001802030008B5024B1B68DB69019308BDC6
:1053A0001802030008B5024B1B689B6A019308BDF5
:1053B0001802030008B5024B1B68DB6A019308BDA5
:1053C0001802030008B5024B1B681B6B019308BD54
:1053D0001802030008B5024B1B689B6C019308BDC3
:1053E0001802030008B5024B1B689B6D019308BDB2
:1053F0001802030008B5024B1B68DB6D019308BD62
:105400001802030008B5024B1B681B68019308BD16
:105410002C02030008B5024B1B685B68019308BDB2
:105420002C02030008B5024B1B689B68019308BD62
:105430002C02030008B5024B1B68DB68019308BD12
:105440002C02030008B5024B1B681B69019308BDC1
:105450002C02030008B5024B1B685B69019308BD71
:105460002C02030008B5024B1B681B6B019308BD9F
:105470002C02030008B5024B1B68DB68019308BDD2
:105480002802030008B5024B1B685B69019308BD45
:105490002802030008B5024B1B689B69019308BDF5
:1054A0002802030008B5024B1B68DB69019308BDA5
:1054B0002802030008B5024B1B681B6A019308BD54
:1054C0002802030008B5024B1B685B6A019308BD04
:1054D0002802030008B5024B1B689B6A019308BDB4
:1054E0002802030008B5024B1B68DB6A019308BD64
:1054F0002802030008B5024B1B681B6B019308BD13
:105500002802030008B5024B1B685B6B019308BDC2
:105510002802030008B5024B1B681B6C019308BDF1
:105520002802030008B5024B1B689B6C019308BD61
:105530002802030008B5024B1B68DB6C019308BD11
:105540002802030008B5024B1B685B69019308BD84
:105550006402030008B5024B1B689B68019308BDF9
:105560006802030008B5024B1B68DB68019308BDA5
:105570006802030008B5024B1B68DB69019308BD94
:105580003002030008B5024B1B681B6A019308BD7B
:105590003002030008B5024B1B681B68019308BD6D
:1055A0003C02030008B5024B1B68DB68019308BD91
:1055B0003C02030008B5024B1B681B69019308BD40
:1055C0003C02030008B5024B1B685B69019308BDF0
:1055D0003C02030008B5024B1B689B69019308BDA0
:1055E0003C02030008B5024B1B68DB69019308BD50
:1055F0003C02030008B5024B1B681B6A019308BDFF
:105600003C02030008B5024B1B689B6A019308BD6E
:105610003C02030008B5024B1B681B68019308BDE0
:105620004C02030008B5024B1B681B69019308BDBF
:105630004C02030008B5024B1B685B69019308BD6F
:105640004C02030008B5024B1B689B69019308BD1F
:105650004C02030008B5024B1B68DB69019308BDCF
:105660004C02030008B5024B1B681B6A019308BD7E
:105670004C02030008B5024B1B681B68019308BD70
:105680002002030008B5024B1B685B68019308BD4C
:105690002002030008B5024B1B685B69019308BD3B
:1056A0002002030008B5024B1B689B69019308BDEB
:1056B0002002030008B5024B1B68DB6A019308BD9A
:1056C0002002030008B5024B1B68DB6C019308BD88
:1056D0002002030008B5024B1B685B6D019308BDF7
:1056E0002002030008B5024B1B689B6D019308BDA7
:1056F0002002030008B5034B1B68D3F888300193E0
:1057000008BD00002002030008B5034B1B68D3F856
:105710009430019308BD00002002030008B5034B3C
:105720001B68D3F8A030019308BD000020020300DD
:1057300008B5024B1B681B68019308BD44020300B7
:1057400008B5024B1B685B68019308BD4402030067
:1057500008B5024B1B689B68019308BD4402030017
:1057600008B5024B1B68DB68019308BD44020300C7
:1057700008B5024B1B681B69019308BD4402030076
:1057800008B5024B1B685B69019308BD4402030026
:1057900008B5024B1B68DB69019308BD4402030096
:1057A00008B5024B1B681B6A019308BD4402030045
:1057B00008B5024B1B685B6A019308BD44020300F5
:1057C00008B5024B1B68DB6A019308BD4402030065
:1057D00008B5024B1B681B6B019308BD4402030014
:1057E00008B5024B1B68DB6B019308BD4402030044
:1057F00008B5024B1B685B68019308BD40020300BB
:1058000008B5024B1B689B68019308BD400203006A
:1058100008B5024B1B68DB68019308BD400203001A
:1058200008B5024B1B681B69019308BD40020300C9
:1058300008B5024B1B685B69019308BD4002030079
:1058400008B5024B1B689B69019308BD4002030029
:1058500008B5024B1B68DB69019308BD40020300D9
:1058600008B5024B1B681B6A019308BD4002030088
:1058700008B5024B1B681B6B019308BD4002030077
:1058800008B5024B1B685B6B019308BD4002030027
:1058900008B5024B1B681B68019308BD1C0203007E
:1058A00008B5024B1B685B68019308BD1C0203002E
:1058B00008B5024B1B689B68019308BD1C020300DE
:1058C00008B5024B1B681B69019308BD1C0203004D
:1058D00008B5024B1B689B69019308BD1C020300BD
:1058E00008B5024B1B68DB69019308BD1C0203006D
:1058F00008B5024B1B68DB6A019308BD1C0203005C
:1059000008B5024B1B681B6B019308BD1C0203000A
:105910008A4230B507D0039D441AED1A6C43521ADF
:1059200094FBF2F4E01830BD0021FFF7B3BE10B5D0
:10593000836804460BB901F022FEC3689847A36848
:105940001BB1032221462046984720461021BDE87E
:10595000104001F012BE0B68036013B15A680132A7
:105960005A607047024800230360FFF7E3BC00BFA2
:1059700028E30320002211464068FFF751BF0022B0
:1059800011464068FFF76CBF002211464068FFF7E0
:1059900077BF00224068FFF76BBF002281F0010152
:1059A0004068FFF755BF00231A4619464068FFF7C5
:1059B00047BF00231A4619464068FFF739BF002247
:1059C00011464068FFF71CBF002202214068FFF724
:1059D0001FBF00231A464068FFF70ABFF0B51B4BF4
:1059E000036000250F462833182689B04360856080
:1059F000C560324629460446103002F076FC2A463D
:105A000029467868FFF70CFF08B9A0601BE029461B
:105A1000324602A80095019502F067FC02A968468B
:105A2000ADF80860FFF756FC10B10123A3600AE04F
:105A3000009B019AA360E2600BB90223A36002A954
:105A4000204600F0A1F8204609B0F0BD58900D00A6
:105A500038B5084C28252A460021204602F045FC8E
:105A60004FF0FF336360044B258004225A60034AE1
:105A70001A6038BD34E303202CE3032024900D008A
:105A80007047007D70470000037D1BB18369B3F14F
:105A9000004F02D19FED050A704707EE903A9FED47
:105AA000047AF8EEE77A87EE870A70470000000074
:105AB0000000C842037D1BB1036AB3F1004F02D15D
:105AC0009FED050A704707EE903A9FED047AF8EED5
:105AD000E77A87EE870A7047000000000000C8429E
:105AE00070B50D4606460A228168284601F0C7F8BF
:105AF0002C210446284601F058F80A220444F16893
:105B0000284601F0BCF8204470BDA0F10400FFF766
:105B1000E7BF10B52821044601F02FFD204610BD37
:105B2000037D7BB1436A002B0CDB07EE903ADFED7F
:105B3000076A9FED070AB8EEE77AC7EE267A27EEE6
:105B4000800A7047BFEE000A704700BF00FF7F4722
:105B50000000C842037D7BB1C369002B0CDB07EE5C
:105B6000903ADFED076A9FED070AB8EEE77AC7EED5
:105B7000267A27EE800A7047BFEE000A704700BF02
:105B800000FF7F470000C84230B50D4600F1100409
:105B90000FCD0FC495E8030084E80300012030BD59
:105BA00070470020704710B51021044601F0E5FC55
:105BB000204610BD08B508B1FFF7F5FF08BD10B5C8
:105BC0008368044613B1032201469847204610BD5E
:105BD0000022026010B54FF69C728280B1F9044039
:105BE00084808A8002680C6804600A6010BD10B569
:105BF00004460068FFF754FE204610BD38B5C4685F
:105C0000F4B12378022B03D104F10C00FFF7EFFF6E
:105C1000656835B12846FFF7D2FF1021284601F00C
:105C2000ACFCA56835B12846FFF7C9FF102128460E
:105C300001F0A3FC20461421BDE8384001F09DBCD2
:105C400038BD10B588B00446684601F095F869463D
:105C500004A801F0B3F804A8A047044604A801F082
:105C600044F8684601F041F8204608B010BDF0B590
:105C7000102485B007460E46154600212246684688
:105C800002F033FB002269461046ADF8004002974F
:105C900003960195FFF754FD05B0F0BD13B504461A
:105CA00091E8050000234B600B602060626001A852
:105CB00001930093FEF750FB204602B010BDF7B5EC
:105CC0000C4602AD54F8043B45F8083D06460F4625
:105CD00001A82146FFF73FFE29463046FFF7DEFFC9
:105CE00001A8FEF739FB2046FEF736FB38460821AF
:105CF00001F043FC304603B0F0BD13B50B4604463B
:105D000003C88DE8030093E8030084E803009DE8DE
:105D1000030083E8030002B010BD000038B5002383
:105D20000446036010200D46FEF7B7F928B10123A1
:105D300043608360024B0360C5602060204638BD2D
:105D40008C900D00826810B50AB901F018FCC36888
:105D5000BDE81040184708B5006800F11001FFF7D2
:105D6000F1FF08BD826810B50AB901F008FCC368EC
:105D7000BDE81040184708B5006800F11001FFF7B2
:105D8000F1FF08BD38B5002383608B6804460D46DB
:105D90002BB102229847EB68E360AB68A360204612
:105DA00038BD0000F0B589B004686846FFF710FF01
:105DB00000238DF808304FF00202D4E84F3F002B4B
:105DC00003D1C4E8412F0029F7D102D08DF8083063
:105DD00063E014F10C0503D069462846FFF7F8FE8E
:105DE000BFF35F8F01236370002004F10803BFF34A
:105DF0005F8F53E8006F43E80002002AF9D1BFF338
:105E00005F8F002E49D0FFF75DFC20B12946304658
:105E1000FFF798FF3AE0314602A8FFF7B3FFE068CA
:105E2000B4F9105008B102F0A3FA06901020ADF8B2
:105E30001C50FEF732F90546E8B1002787601820AC
:105E4000FEF72BF9044688B10146876002A8FFF7E8
:105E500054FF049BA268A360059B049206A9E26814
:105E6000E36004F110000592FFF7B2FE0D4BEB600A
:105E70000D4B2C60AB6006A8FFF7B9FE02A8FFF738
:105E80009EFE002229460948FFF724FC3046FFF712
:105E900096FE1021304601F070FB6846FFF7A7FE22
:105EA00009B0F0BD575D0D00CD5F0D002F590D00FD
:105EB0002DE9F04F8BB006460F46904699469DF867
:105EC00050A0FFF75DFC07AD834630BB4FF62E7345
:105ED000059005A92846ADF81830FFF779FE142083
:105EE000FEF7DBF8044658B1022303700123437028
:105EF000C0F804B0C0F808B029460C30FFF768FEBF
:105F00003046214640F8044BFFF708FF2846FFF7CC
:105F10006EFE05A8FFF76BFE52E000240C23142050
:105F20006C60AC600793FEF7B8F8014618B10470D6
:105F300044704460846004A80391FFF7EFFE224B95
:105F400008930820FEF7A9F8044628B1039B40F8FF
:105F5000043B04A9FFF7FFFC00955FFA8AF34A4669
:105F6000414638460994FFF71BFC20B9039B5B7838
:105F700003F0FF0283B1039B059304A906A8FFF772
:105F8000EAFC05A93046FFF789FE06A8FEF7E4F90A
:105F900004A8FEF7E1F913E04FF69C7305A903A8E6
:105FA0000592ADF81830FFF7FDFE05A8FFF71FFEBC
:105FB00005A80999FFF783FE06A8FEF7CDF9DAE7F1
:105FC00030460BB0BDE8F08F3D610D00022AF8B5F8
:105FD000044606D0032A17D0012A22D10B68036099
:105FE0001FE018200E68FEF758F8054650B13146FC
:105FF000FFF7C8FE3069B6F9147008B102F0B8F9BD
:106000002861AF8225600CE0046854B104F11000EF
:10601000FFF7EDFD2046FFF7D2FD1821204601F0E5
:10602000ACFA0020F8BD38B5002383608B680446C5
:106030000D462BB102229847EB68E360AB68A36082
:10604000204638BD022A70B5044606D0032A11D076
:10605000012A18D10B68036015E014200E68FEF7C2
:106060001CF8054620B13146FFF7DDFF337C2B7469
:10607000256008E0046834B12046FFF7A0FD142134
:10608000204601F07AFA002070BD0000F0B5002330
:1060900087B00C46BFF35F8F50E8006F40E80032D6
:1060A000002AF9D1BFF35F8F002E3FD01846FFF7CB
:1060B00009FB074620B121463046FFF753FE2EE08C
:1060C000314601A8FFF7AFFF23788DF81430102078
:1060D000FDF7E3FF0546D0B187601420FDF7DDFF33
:1060E000044678B18760014601A8FFF706FE039BCE
:1060F000A268A360049B0392E268E3609DF81430F9
:10610000049223740A4BEB600A4B2C60AB6001A82D
:10611000FFF755FD002229460748FFF7DBFA304616
:10612000FFF74DFD1021304601F027FA07B0F0BD12
:10613000775D0D0045600D002F590D0030B585B01D
:1061400004460D4668461146FFF7B9FD7CB124B2FE
:1061500028460DB102F00CF9029002A96846ADF88C
:106160000C40FFF71FFE02A8FFF741FD1DE000985D
:106170008DF808404FF00102D0E84F3FA34203D111
:10618000C0E8412F0029F7D102D08DF808300CE08B
:1061900010F10C014FF0010318BF0373BFF35F8FC1
:1061A000043000F8033CFFF771FF01A8FEF7D4F8B4
:1061B00005B030BD002211464068FFF751BB0022F8
:1061C00011464068FFF75CBB00224068FFF750BBF8
:1061D000002281F001014068FFF73ABB00231A4614
:1061E00019464068FFF72CBB00231A461946406841
:1061F000FFF71EBB002211464068FFF711BB0022CB
:1062000011464068FFF7FCBA002202214068FFF700
:10621000FFBA00231A464068FFF7EABA024B03228E
:106220005A60024A1A6070475CE30320A8900D0090
:10623000006800F0D6B810B50446016002710AB1DA
:10624000FFF7F6FF204610BD38B504460D4601F0B5
:106250004DF92A4601462046FFF7EDFF204638BD9E
:10626000006800F0C7B810B5037904460BB1FFF71A
:10627000F7FF204610BDF8B5044616461D460F46EA
:10628000FFF7D6FF2068362100F09DF820680368EC
:1062900039469B6898470121206800F097F8022250
:1062A00036210123206800F085F8206803685B69C7
:1062B00098473070206803685B69984728702046CB
:1062C000BDE8F840FFF7CCBF07B502AB002203F8EA
:1062D000012D8DF8062004210DF10602FFF7CBFFFA
:1062E0009DF8070001F0E8FB0022094B01F04AFC91
:1062F00001F05AFE9DF8063000EE103A07EE900AC3
:10630000B8EEC00A37EE800A03B05DF804FB00BFA8
:106310000000703F7047F8B5064615460C468F18CA
:10632000BC4206D0336814F8011B9B68304698477E
:10633000F6E72846F8BD0022007CFFF7BBB8002135
:10634000007CFFF7BFB80021007CFFF7C3B8002135
:10635000007CFFF7C7B80021007CFFF7CBB810B571
:106360001421044601F009F9204610BD10B5044679
:106370004FF47A730846A3600021044B20746160D7
:106380002360FFF7C7F8204610BD00BFDC900D006A
:1063900000231A461946007CFFF76CB813B5002499
:1063A000007C0094FFF76EF8C0B202B010BD01236C
:1063B000FFF7F4BFDBB2D2B2C9B2FFF7EFBF0022E2
:1063C000007CFFF767B8C9B2FFF7F9BF0022007C75
:1063D000FFF768B80121FFF7F9BF0021007CFFF744
:1063E00091B808B50021007CFFF79CF8B0FA80F066
:1063F000400908BD08B50021007CFFF79BF8B0FA02
:1064000080F0400908BD704710B51821044601F01E
:10641000B4F8204610BDF0B5037D062B8DB00E46B6
:1064200000F104074FF0000402D000F1080518E065
:106430000CAD394605F8304D2F232A460A20FFF7C8
:1064400081F8284601F0AFFF33680246DB68294631
:10645000304698470FE024B12E21304600F0A5FBCE
:10646000044415F8011D0A22304600F0E4FBBD4249
:106470000444F0D120460DB0F0BD000010B5054B2E
:106480000446112240F8043B002101F02EFF204673
:1064900010BD00BF04910D000346074A10B543F834
:1064A000042B01F1100251F8044B43F8044B9142C4
:1064B000F9D10A781A7010BD04910D0010B59DF83D
:1064C000084044EA032343EA024242EA016104230A
:1064D0004160037510BD37B50D788B784A78C9785F
:1064E00000912946FFF7EAFF03B030BD014B024A95
:1064F0001A60704764E3032083910D000022114667
:106500004068FFF7ADB9002211464068FFF7B8B9FF
:1065100000224068FFF7ACB9002281F00101406819
:10652000FFF796B900231A4601214068FFF788B9A2
:1065300000231A4619464068FFF77AB9002211462F
:106540004068FFF76DB9002211464068FFF758B95F
:10655000002202214068FFF75BB900231A46406819
:10656000FFF746B938B5054688B104684CB1A36851
:106570001BB103222146204698471021204600F0F7
:10658000FCFF28461421BDE8384000F0F6BF38BDB6
:1065900010B103685B681847704710B5036804467C
:1065A000BBB15868FEF7A6FE78B923685A7C12B9C9
:1065B0005868FEF7A7FE23685868FEF7ABFE206810
:1065C0000023236028B1FFF7CDFF206808B1FFF753
:1065D000C9FF204610BD000038B50C4B03600446CF
:1065E000D0F8CC0108B1FDF75CFDD4F8C45135B149
:1065F0002846FFF7D2FF0421284600F0BEFFA0681E
:1066000008B1FFF7C5FF204638BD00BFF4910D006B
:1066100038B50E4C0E4B23600025022304F5E470C0
:106620006360A560C4F8C451C4F8C851FEF782FE87
:10663000084BC4F8CC5184F8D05123602046064A58
:106640000649BDE8384000F093BF00BF68E303206F
:1066500028920D00F4910D0040E20320D9650D0051
:1066600000231A464068FFF7C3B8002202214068A1
:10667000FFF7CEB8002211464068FFF7C1B80022EC
:1066800011464068FFF7CCB800231A461946406807
:10669000FFF7CEB800231A4619464068FFF7D0B876
:1066A000002281F001014068FFF7D2B80022406863
:1066B000FFF7DEB8002211464068FFF7E1B800227C
:1066C00011464068FFF7CCB82DE9F043002495B09F
:1066D00016460D460746FFF7D1FE214620220CA89C
:1066E000009401F002FE40230C9321466B460CAA55
:1066F0003046FEF737FF0446002844D10246012108
:106700006868FFF78DF80221804622466868FFF727
:1067100087F8009E81462146002E34D0002932D1D0
:106720007368022B02D00A2B09D02AE0B8F1000FBF
:1067300027D0716938460431FFF7CDFE20E0B9F16A
:10674000000F1ED07469112201A801F0CEFD0623AE
:106750008DF8143001AD04F1080318341868596835
:106760002A4603C20833A3421546F7D101A906A859
:1067700007ADFFF791FE0FCD3C1D0FC42B682370B2
:106780000121F669C8E70098FEF7E4FE384615B027
:10679000BDE8F083024B034A1A6000225A6070473A
:1067A0003CE5032028920D0008B500F09FFEFFF79E
:1067B00014FE18B900F09AFEFFF7EAFD00F096FE0D
:1067C000BDE80840FFF709BE08B500F08FFEBDE840
:1067D0000840FFF706BE10B50446017009B1FFF787
:1067E000F3FF204610BD08B500F080FEBDE808406C
:1067F000FFF700BE10B5037804460BB1FFF7F3FFB7
:10680000204610BD10B504460068FFF7ECFF204697
:1068100010BD37B502AC0D4644F8040DFFF7D4FFA8
:1068200000F064FE6B21FFF7CEFD00F05FFE036811
:1068300029469B68984700F059FE0121FFF7C6FDE5
:1068400000F054FE01231A466B21FFF7B3FD00F060
:106850004DFE03685B69984705462046FFF7D2FF67
:10686000E8B203B030BD73B502AC15460E4644F82D
:10687000040DFFF7A9FF00F039FE6B21FFF7A3FD20
:1068800000F034FE036831469B68984700F02EFE06
:10689000036829469B68984700F028FE0121FFF70E
:1068A00095FD2046FFF7AEFF02B070BD37B5044638
:1068B0000D460190FFF788FF00212046FFF7A9FF52
:1068C00041F258139D4200F087025BD020D841F27C
:1068D00018039D424DD00CD840F678739D4242D0AB
:1068E00040F6C8739D4241D040F628739D4260D166
:1068F00059E041F2B8039D423ED041F208139D4257
:106900003DD041F268039D4253D142F020024AE05B
:1069100041F298239D423ED00ED841F2F8139D4299
:1069200033D041F248239D4232D041F2A8139D4218
:106930003FD142F0400236E041F238339D422DD043
:1069400006D841F2E8239D4233D142F060022AE0AA
:1069500041F288339D4224D041F2D8339D4228D160
:1069600042F078021FE042F008021CE042F0100200
:1069700019E042F0180216E042F0280213E042F05B
:10698000300210E042F038020DE042F048020AE026
:1069900042F0500207E042F0580204E042F0680280
:1069A00001E042F0700220460021FFF75CFF012465
:1069B00000E0002401A8FFF725FF204603B030BD0A
:1069C00037B504460D460190FFF7FEFE0021204634
:1069D000FFF71FFFB5F5617F00F0F80223D007D85D
:1069E000962D1AD0B5F5FA7F1AD0642D29D122E060
:1069F00040F2DC539D4219D005D8B5F5966F20D1F1
:106A000042F0040217E0B5F5FA6F12D040F6B83341
:106A10009D4216D142F007020DE042F001020AE069
:106A200042F0020207E042F0030204E042F00502F5
:106A300001E042F0060220460021FFF714FF012486
:106A400000E0002401A8FFF7DDFE204603B030BDC2
:106A500037B502AC054644F8040DFFF7B5FE012139
:106A60002846FFF7D6FE012100F0CF022846FFF7A7
:106A7000FAFE2046FFF7C6FE012003B030BDF7B591
:106A80000C46054617461E460190FFF79DFE002C5A
:106A90000CBF0024802417B144F04004E4B20EB1CE
:106AA00044F020049DF820300BB144F010049DF810
:106AB00024300BB144F008049DF828300BB144F0A9
:106AC000040402212846FFF7A4FE00F0010222433D
:106AD00002212846FFF7C7FE01A8FFF793FE012019
:106AE00003B0F0BD37B504460D460190FFF76CFECC
:106AF00004212046FFF78DFE41F210039D4200F075
:106B0000030206D041F270039D420AD142F0B00266
:106B100001E042F0980220460421FFF7A4FE012480
:106B200000E0002401A8FFF76DFE204603B030BD51
:106B300037B502AC054644F8040DFFF745FE0521C4
:106B40002846FFF766FE052100F0CE022846FFF733
:106B50008AFE2046FFF756FE012003B030BDF8B58F
:106B600006460D468F180024BD420CD0336815F838
:106B7000011B9B6830469847002801DB0444F3E77B
:106B8000002C08BF04462046F8BD70B505460C46EB
:106B9000084649B101F007FC2B6802462146284609
:106BA000DB68BDE87040184770BD03689B681847F4
:106BB00038B50D210546FFF7F8FF0A21044628469F
:106BC000FFF7F3FF204438BD38B50546FFF7DDFF7A
:106BD00004462846FFF7ECFF204438BD30B58BB0A3
:106BE0000B4600218DF82410012A98BF0A220DF1CE
:106BF0002304B3FBF2F505FB123303F0FF03092B6B
:106C000094BF30333733DBB2214604F801392B46C9
:106C1000002DEED1FFF7B9FF0BB030BD10B42AB98B
:106C200003685DF8044B9B68C9B21847D2B25DF89F
:106C3000044BFFF7D3BFFFF7F1BF2DE9F041074643
:106C40000E4615462AB90368C9B29B68BDE8F041F3
:106C500018470A2A02D1002901DA04E0D2B2BDE8BD
:106C6000F041FFF7BBBF2D21FFF79FFF2A460446E7
:106C700071423846FFF7B2FF2044BDE8F081FFF7CC
:106C8000DCBF10B50446FEF79AFF204610BD000099
:106C90000348044A04490023836000F069BC00BF34
:106CA00044E5032040E20320836C0D00704710B5DB
:106CB0001021044600F061FC204610BD70B5084B61
:106CC0000360044600250E4640F80C5FFEF72AFBE1
:106CD00030462671FEF74EFCA560204670BD00BF11
:106CE0005C920D000079FEF74DBC10B504460068BB
:106CF000FEF7D6FD204610BD10B50446006808B169
:106D0000FEF7CEFD00232360A360636010BD38B59D
:106D100004460D4600680131FEF7CAFD10B184E853
:106D20002100012038BD10B50368044613B1436843
:106D30008B4207D22046FFF7EAFF20B1A3680BB9C8
:106D400022681370012010BD70B50E46114604462E
:106D50001546FFF7E8FF18B92046FFF7CDFF09E019
:106D60002A463146A560206801F0B4FA2268A3687B
:106D70000021D154204670BD38B50023044603607D
:106D80004360836003730D4639B1084601F00BFB85
:106D9000294602462046FFF7D7FF204638BD8842E5
:106DA00010B50B46044607D0096819B19A68FFF779
:106DB000CBFF01E0FFF7A0FF204610BD10B5002378
:106DC00004460360436083600373FFF7E8FF2046D7
:106DD00010BD08B582680B4612B919B9012008BD6B
:106DE00011B90368187802E0006801F0AFFAB0FA50
:106DF00080F0400908BD70B50E469AB191B1856822
:106E00009D4202D800230B7070BD541EED1A01681C
:106E1000AC4228BF2C4619442246304601F0E0FA25
:106E20000023335570BD014600228C20FEF792BA34
:106E30000020FFF7F8BF000010B5044608461146D1
:106E40001A460023FEF72EFC064B00221A704FF65E
:106E5000FF7258809A801A689B882260A38020461F
:106E600010BD00BF54E5032010B500240470448019
:106E700000294FF6FF74848007DD0139994209D259
:106E800032F811308380012301E002D10223037024
:106E900010BD418010BD000070B586B016461A4680
:106EA000002302930C9B01930D460B9B0093044619
:106EB0000A9B31462846FEF731FC33462A460146F6
:106EC00004A8FFF7D1FF064B0498BDF81420186002
:106ED0009A801A689B8822602046A38006B070BD05
:106EE00054E50320044B00204FF6FF7218705880C1
:106EF0009A80FEF7C7BB00BF54E50320F0B5144BE2
:106F0000144F1E68144B064418683B6806449E42A2
:106F10008BB01BD00AA801AD40F8286D01F0E2F853
:106F2000436903F26C73436104460FCC0FC50FCC69
:106F30000FC5D4F800E0C5F800E001AD0FCD074C57
:106F40000FC40FCD0FC43E60C4F800E00BB0F0BD1D
:106F50008CE5032088E5032084E503205CE503201D
:106F600008B50020FEF734FC28B1FEF709FC80F0DC
:106F70000100C0B208BD012008BD0000FAEE087A89
:106F8000B4EEE70AF1EE10FA0FD4F2EE0C7AB4EE9A
:106F9000E70AF1EE10FA08DCDFED047A044B20EE8C
:106FA000270ABDEEC00A83ED000A70470000614564
:106FB0008CE5032037B50E4B1B6819440D4B1B683D
:106FC000044602A8194440F8041D01F08BF801F0B2
:106FD0003BF8054601F0E7F92844002300F8013C9E
:106FE00029462046FFF7C8FE204603B030BD00BF4B
:106FF0008CE5032084E5032010B50020FEF7F2F9AC
:10700000044668B9FEF736FB01280BD12046FEF78F
:1070100069FB38B9FFF7A4FF30B9FEF799FBF9E730
:10702000012010BD002010BDFFF79AFF0020FEF7E1
:10703000D9F9003018BF012010BD08B5FFF7DCFFFB
:10704000BDE80840FEF7A6B908B5FFF7F6FFFFF761
:1070500055FF014B986808BD5CE5032008B5FFF7B4
:10706000ECFFFFF74BFF014B586808BD5CE50320C0
:10707000024B1A68024B1A60704700BF88E1032078
:1070800080E5032070474174704708B5007CFEF727
:10709000B9FA20EAE07008BD08B5007CFEF78AFA6C
:1070A00020EAE07008BD08B5007CFEF793FA30EAEC
:1070B000200028BF4FF0FF3008BD08B5007CFEF768
:1070C00081FA30EA200028BF4FF0FF3008BD007C75
:1070D000FEF788BA10B51421044600F04EFA204697
:1070E00010BD70B5457C04460E4625B9007CFEF700
:1070F00089FA002805DD3146207CBDE87040FEF7A6
:1071000051BA284670BD000010B504460846114625
:10711000002262604FF47A72A260054A2260012266
:10712000207462741A46FEF735FA204610BD00BF7F
:1071300094920D00007CFEF75DBA000038B50C4D4E
:10714000296811F0010411D12846FCF7ACFF68B1A1
:10715000084A094B09482146FFF7D6FF2846FCF7A5
:10716000A7FF074A0749054800F002FA034838BD5F
:1071700028E603202CE60320A4E5032090E5032065
:1071800040E2032085700D0041747047704708B5D8
:107190000021007CFEF756FA30EA200028BF4FF0AD
:1071A000FF3008BD08B50121007CFEF74BFA30EA3C
:1071B000200028BF4FF0FF3008BD08B5007CFEF767
:1071C00039FA20EAE07008BD08B5007CFEF72AFA1B
:1071D00020EAE07008BD007CFEF744BA10B5142127
:1071E000044600F0CAF9204610BD38B50446007CBC
:1071F0000D46FEF71FFA002801DC607C28B1294605
:10720000207CFEF727FA20EAE07038BD10B504466E
:10721000002363604FF47A73A360054B236001235E
:107220000846217463741146FEF7F4F9204610BD38
:10723000C4920D0010B514220446002101F055F847
:10724000204610BD30B50E4D87B001A8FFF7F2FF04
:10725000296811F0010410D12846FCF724FF60B121
:1072600001AA21460748FFF7D1FF2846FCF720FF77
:10727000054A0649034800F07BF9024807B030BDD3
:10728000B0E60320B4E6032040E203208D710D0038
:1072900008B50C4B33B1FFF7D5FF03681B6998475E
:1072A000002809DC084B63B1FFF748FF03681B693E
:1072B0009847002803DC08BDAFF30080F2E7AFF386
:1072C000008008BD000000000000000008B5FFF7C6
:1072D000DFFFFEF757F8014B186008BDCCE603202E
:1072E00007B5002300931A466FF07701FEF70CFAFA
:1072F00003B05DF804FB000007B543880A2B08D0F3
:10730000502B09D1094B1B683BB103B05DF804EB6E
:107310001847FFF7E5FF06E0002300931A466FF0D9
:107320007701FEF7F1F903B05DF804FBC8E603202E
:1073300010B5FEF71FF8044600F0E0FF074B13B14D
:107340002046AFF3008000210448FEF749FA0021EF
:107350000348BDE81040FEF7CDB900BF00000000B3
:10736000F9720D0008B5024B1B681B68019308BD3C
:107370005C02030008B5024B1B685B68019308BD03
:107380005C02030008B5024B1B689B68019308BDB3
:107390005C02030010B504460F48FFF7A3FC28B1B8
:1073A000A4F10B03022B01D8002010BD00F07EF8E1
:1073B000FFF713F808B1012CF6D9FFF7BFFEFFF76E
:1073C000B9FE18B1A4F10903012BEDD9232C8CBF10
:1073D0000020012010BD00BF08E70320232838B596
:1073E00004460D460AD8FF2908D0FFF7D3FF28B17D
:1073F00029462046BDE83840FEF714B838BD38B5F8
:1074000004460D46FEF716F8FF2810D0062804D8CB
:107410004D2323FA00F0C30709D42046FFF7BAFF33
:1074200028B129462046BDE83840FEF70BB838BDE4
:1074300010B50446FDF7FEFF0438C0B2012808D994
:107440002046FFF7A7FF20B12046BDE81040FEF719
:1074500001B8002010BD0D2810B504469CBF0E34A5
:10746000A4B22046FFF796FF50B103212046FDF756
:10747000D1FF032804D12046BDE81040FDF7F2BF3C
:10748000002010BD10B5074C2368DB0708D4204648
:10749000FCF709FE20B1FDF785FF2046FCF708FE4A
:1074A000014810BDD0E60320D4E6032038B50B4DCB
:1074B000296811F001040FD12846FCF7F4FD58B1FA
:1074C00021460748FEF752FF2846FCF7F1FD054A22
:1074D0000549034800F04CF8014838BDD8E60320C0
:1074E000F0E6032040E2032015630D0010B50B4CBD
:1074F0002368DB070FD42046FCF7D5FD58B10121E6
:107500000748FEF733FF2046FCF7D2FD054A06493F
:10751000034800F02DF8024810BD00BF04E7032027
:10752000DCE6032040E2032015630D0070B50C4C2F
:107530000C4E0D4D00212046FFF7C0FB20460B4CA2
:107540003246294600F014F801212046FFF7B6FB29
:10755000324629462046BDE8704000F009B800BF19
:1075600008E7032040E20320AD6C0D0018E703207C
:107570000B460146184600F0A7BDFCF790BD08B5C4
:10758000FEF7B6F9244B1A68D0075CBF01221A60D7
:10759000224B1A68D1075CBF01221A60204B1A687F
:1075A000D2075CBF01221A601E4B1A68D0075CBF6D
:1075B00001221A601C4B1A68D1075CBF01221A60B5
:1075C0001A4B1A68D2075CBF01221A60184B1A685E
:1075D000D0075CBF01221A60164B1A68D1075CBF46
:1075E00001221A60144B1A68D2075CBF01221A608C
:1075F000124B1A68D0075CBF01221A60104B1A6840
:10760000D1075CBF01221A600E4B1A68D2075CBF1B
:1076100001221A60704700BF54E7032050E703209F
:107620004CE7032048E7032044E7032040E703201A
:107630003CE7032038E7032034E7032030E703204A
:107640002CE7032028E70320184B1A68D1075CBFFA
:1076500001221A60164B1A68D2075CBF01221A6019
:10766000144B1A68D0075CBF01221A60124B1A68CB
:10767000D1075CBF01221A60104B1A68D2075CBFA9
:1076800001221A600E4B1A68D0075CBF01221A60F3
:107690000C4B1A68D1075CBF01221A600A4B1A68AA
:1076A000D2075CBF01221A60704700BF74E7032055
:1076B00070E703206CE7032068E7032064E70320FA
:1076C00060E703205CE7032058E70320184B1A68A3
:1076D000D1075CBF01221A60164B1A68D2075CBF43
:1076E00001221A60144B1A68D0075CBF01221A608D
:1076F000124B1A68D1075CBF01221A60104B1A683E
:10770000D2075CBF01221A600E4B1A68D0075CBF1B
:1077100001221A600C4B1A68D1075CBF01221A6063
:107720000A4B1A68D2075CBF01221A60704700BF7B
:1077300094E7032090E703208CE7032088E70320E9
:1077400084E7032080E703207CE7032078E7032019
:10775000244B1A68D0075CBF01221A60224B1A68BA
:10776000D1075CBF01221A60204B1A68D2075CBFA8
:1077700001221A601E4B1A68D0075CBF01221A60F2
:107780001C4B1A68D1075CBF01221A601A4B1A6899
:10779000D2075CBF01221A60184B1A68D0075CBF81
:1077A00001221A60164B1A68D1075CBF01221A60C9
:1077B000144B1A68D2075CBF01221A60124B1A6878
:1077C000D0075CBF01221A60104B1A68D1075CBF5A
:1077D00001221A600E4B1A68D2075CBF01221A60A0
:1077E000704700BFC4E70320C0E70320BCE70320C5
:1077F000B8E70320B4E70320B0E70320ACE7032099
:10780000A8E70320A4E70320A0E703209CE70320C8
:1078100098E7032081F0004102E000BF83F00043BD
:1078200030B54FEA41044FEA430594EA050F08BF1B
:1078300090EA020F1FBF54EA000C55EA020C7FEADF
:10784000645C7FEA655C00F0E2804FEA5454D4EB5C
:107850005555B8BF6D420CDD2C4480EA020281EA26
:10786000030382EA000083EA010180EA020281EA5E
:107870000303362D88BF30BD11F0004F4FEA0131B0
:107880004FF4801C4CEA113102D0404261EB4101BF
:1078900013F0004F4FEA03334CEA133302D0524245
:1078A00063EB430394EA050F00F0A780A4F1010401
:1078B000D5F1200E0DDB02FA0EFC22FA05F280183B
:1078C00041F1000103FA0EF2801843FA05F3594121
:1078D0000EE0A5F120050EF1200E012A03FA0EFCA0
:1078E00028BF4CF0020C43FA05F3C01851EBE371CA
:1078F00001F0004507D54FF0000EDCF1000C7EEBE7
:1079000000006EEB0101B1F5801F1BD3B1F5001F24
:107910000CD349085FEA30004FEA3C0C04F1010443
:107920004FEA445212F5800F80F09A80BCF1004F6C
:1079300008BF5FEA500C50F1000041EB045141EAEE
:10794000050130BD5FEA4C0C404141EB010111F4EF
:10795000801FA4F10104E9D191F0000F04BF01469A
:107960000020B1FA81F308BF2033A3F10B03B3F178
:1079700020020CDA0C3208DD02F1140CC2F10C0208
:1079800001FA0CF021FA02F10CE002F11402D8BF66
:10799000C2F1200C01FA02F120FA0CFCDCBF41EA32
:1079A0000C019040E41AA2BF01EB0451294330BD01
:1079B0006FEA04041F3C1CDA0C340EDC04F11404DE
:1079C000C4F1200220FA04F001FA02F340EA0300B5
:1079D00021FA04F345EA030130BDC4F10C04C4F1FB
:1079E000200220FA02F001FA04F340EA03002946DB
:1079F00030BD21FA04F0294630BD94F0000F83F425
:107A0000801306BF81F480110134013D4EE77FEA07
:107A1000645C18BF7FEA655C29D094EA050F08BF53
:107A200090EA020F05D054EA000C04BF1946104634
:107A300030BD91EA030F1EBF0021002030BD5FEA78
:107A4000545C05D14000494128BF41F0004130BDA0
:107A500014F580043CBF01F5801130BD01F00045F4
:107A600045F0FE4141F470014FF0000030BD7FEA67
:107A7000645C1ABF194610467FEA655C1CBF0B4662
:107A8000024650EA013406BF52EA033591EA030F79
:107A900041F4002130BD00BF90F0000F04BF002171
:107AA000704730B54FF4806404F132044FF00005A4
:107AB0004FF0000150E700BF90F0000F04BF00211D
:107AC000704730B54FF4806404F1320410F0004583
:107AD00048BF40424FF000013EE700BF42004FEA7E
:107AE000E2014FEA31014FEA02701FBF12F07F43FB
:107AF00093F07F4F81F06051704792F0000F14BFF8
:107B000093F07F4F704730B54FF4607401F000453B
:107B100021F0004120E700BF50EA010208BF704792
:107B200030B54FF000050AE050EA010208BF704787
:107B300030B511F0004502D5404261EB41014FF4F0
:107B4000806404F132045FEA915C3FF4DCAE4FF0F4
:107B500003025FEADC0C18BF03325FEADC0C18BFDB
:107B6000033202EBDC02C2F1200300FA03FC20FA2C
:107B700002F001FA03FE40EA0E0021FA02F1144479
:107B8000C1E600BF70B54FF0FF0C4CF4E06C1CEA8E
:107B900011541DBF1CEA135594EA0C0F95EA0C0F03
:107BA00000F0DEF82C4481EA030621EA4C5123EA76
:107BB0004C5350EA013518BF52EA033541F48011A5
:107BC00043F4801338D0A0FB02CE4FF00005E1FB58
:107BD00002E506F00042E0FB03E54FF00006E1FBA2
:107BE00003569CF0000F18BF4EF0010EA4F1FF04E5
:107BF000B6F5007F64F5407404D25FEA4E0E6D4125
:107C000046EB060642EAC62141EA55514FEAC52035
:107C100040EA5E504FEACE2EB4F1FD0C88BFBCF5B1
:107C2000E06F1ED8BEF1004F08BF5FEA500E50F162
:107C3000000041EB045170BD06F0004646EA010128
:107C400040EA020081EA0301B4EB5C04C2BFD4EB5A
:107C50000C0541EA045170BD41F480114FF0000E53
:107C6000013C00F3AB8014F1360FDEBF002001F0C1
:107C7000004170BDC4F10004203C35DA0C341BDC3B
:107C800004F11404C4F1200500FA05F320FA04F00D
:107C900001FA05F240EA020001F0004221F0004141
:107CA00010EBD37021FA04F642EB06015EEA430EB4
:107CB00008BF20EAD37070BDC4F10C04C4F12005E4
:107CC00000FA04F320FA05F001FA04F240EA020097
:107CD00001F0004110EBD37041F100015EEA430E68
:107CE00008BF20EAD37070BDC4F1200500FA05F288
:107CF0004EEA020E20FA04F301FA05F243EA020307
:107D000021FA04F001F0004121FA04F220EA020015
:107D100000EBD3705EEA430E08BF20EAD37070BD5B
:107D200094F0000F0FD101F00046400041EB01013B
:107D300011F4801F08BF013CF7D041EA060195F01D
:107D4000000F18BF704703F00046520043EB0303D7
:107D500013F4801F08BF013DF7D043EA06037047C4
:107D600094EA0C0F0CEA135518BF95EA0C0F0CD0CF
:107D700050EA410618BF52EA4306D1D181EA030115
:107D800001F000414FF0000070BD50EA410606BF0F
:107D90001046194652EA430619D094EA0C0F02D154
:107DA00050EA013613D195EA0C0F05D152EA033699
:107DB0001CBF104619460AD181EA030101F00041B7
:107DC00041F0FE4141F470014FF0000070BD41F000
:107DD000FE4141F4780170BD70B54FF0FF0C4CF4DA
:107DE000E06C1CEA11541DBF1CEA135594EA0C0FF9
:107DF00095EA0C0F00F0A7F8A4EB050481EA030E46
:107E000052EA03354FEA013100F088804FEA03332C
:107E10004FF0805545EA131343EA12634FEA0222FA
:107E200045EA111545EA10654FEA00260EF00041BB
:107E30009D4208BF964244F1FD0404F5407402D20D
:107E40005B084FEA3202B61A65EB03055B084FEA9E
:107E500032024FF480104FF4002CB6EB020E75EB9B
:107E6000030E22BFB61A754640EA0C005B084FEAC3
:107E70003202B6EB020E75EB030E22BFB61A754640
:107E800040EA5C005B084FEA3202B6EB020E75EB8B
:107E9000030E22BFB61A754640EA9C005B084FEA03
:107EA0003202B6EB020E75EB030E22BFB61A754610
:107EB00040EADC0055EA060E18D04FEA051545EAFF
:107EC00016754FEA06164FEAC30343EA52734FEAA8
:107ED000C2025FEA1C1CC0D111F4801F0BD141EA21
:107EE00000014FF000004FF0004CB6E711F4801F86
:107EF00004BF01430020B4F1FD0C88BFBCF5E06F66
:107F00003FF6AFAEB5EB030C04BFB6EB020C5FEA75
:107F1000500C50F1000041EB045170BD0EF0004ECA
:107F20004EEA113114EB5C04C2BFD4EB0C0541EAFC
:107F3000045170BD41F480114FF0000E013C90E6F9
:107F400045EA060E8DE60CEA135594EA0C0F08BFBD
:107F500095EA0C0F3FF43BAF94EA0C0F0AD150EABC
:107F600001347FF434AF95EA0C0F7FF425AF10464F
:107F700019462CE795EA0C0F06D152EA03353FF477
:107F8000FDAE1046194622E750EA410618BF52EAF4
:107F900043067FF4C5AE50EA41047FF40DAF52EAC8
:107FA00043057FF4EBAE12E74FEA4102B2F1E04342
:107FB00024BFB3F5001CDCF1FE5C0DD901F0004CD0
:107FC0004FEAC0024CEA5070B2F1004F40EB830020
:107FD00008BF20F00100704711F0804F21D113F14C
:107FE0003872BCBF01F00040704741F480114FEA85
:107FF0005252C2F11802C2F1200C10FA0CF320FA0E
:1080000002F018BF40F001004FEAC1234FEAD3232A
:1080100003FA0CFC40EA0C0023FA02F34FEA430394
:10802000CCE77FEA625307D150EA01331EBF4FF01D
:10803000FE4040F44000704701F0004040F0FE4038
:1080400040F40000704700BF094B70B51C68256CF8
:1080500006463DB91A20FDF71BFC1A22206429466A
:1080600000F043F9216C3046BDE8704000F002B8E2
:10807000F0E1032010B50C4641690369826986B0BE
:1080800001F26C7104910168039141680291816869
:108090000191C1680091074903EB43030B44064972
:1080A00002EB42020A4420460449FDF709FC20463F
:1080B00006B010BD01930D00EC920D0025930D004C
:1080C0000A22002100F026BA10B5054C13462CB147
:1080D0000A4601460220AFF3008010BD204610BDC5
:1080E0000000000038B5074B1C68E36B05461BB960
:1080F0002420FDF7CDFBE063E16B2846BDE8384066
:1081000000F002B8F0E103202DE9F0410C46804672
:1081100000F006FD21460746404600F005FD466991
:1081200006F26C76B307044605D1642296FBF2F39F
:1081300002FB13634BB94FF4C87596FBF5F305FBCF
:108140001365B5FA85F35B0900E001235F4A30252A
:1081500005FB032500F018FB00F018FB5C4B1B68C7
:10816000F3B17B689E4205D13968D8F80030FA69CE
:1081700041B90AE0304600F05FFA0028F4D14FF030
:10818000FF330DE0934208DB01E0934207DABA6B5C
:108190009342ACBF0023012302E0002300E001234F
:1081A0002362236A012B0CBFF96B396A4FF46163B8
:1081B0003C2091FBF3F603FB1613616893FBF0F28E
:1081C00000FB12302368891AA26861601B1A921B97
:1081D0003B2B2360A26003DD013161603C3B04E086
:1081E000002B03DA013961603C33236063683B2B69
:1081F00003DD0132A2603C3B04E0002B03DA013ACC
:10820000A2603C336360A368172B22DDE269013270
:10821000E261A2690132062AC8BF0022A261E268B7
:10822000183B0132A3602369E26055F823108A42AB
:1082300046DD01330C2B0CBF63692361A2EB010205
:10824000E26001BF013300222261636108BFE26185
:1082500036E0002B34DAE269013AE261A269013AC0
:1082600048BF0622A261E2681833013AE260A360C7
:1082700032BB2369013B01D423611DE00B23236141
:1082800063695A1E12F0030F626103F26B7305D12A
:10829000642193FBF1F201FB12324AB94FF4C87129
:1082A00093FBF1F201FB1233B3FA83F35B0900E0B5
:1082B000012303F5B673E361236955F82330E360C6
:1082C00000F063FA2046BDE8F08100BFA8940D00DD
:1082D000E4E7032010B5431E0A44914204D011F88C
:1082E000014B03F8014FF8E710BD024403469342E7
:1082F00002D003F8011BFAE77047000038B5124BB3
:108300001C68A36B0546D3B91820FDF7C1FA43F2E8
:108310000E33A06303804AF6CD33438041F2342309
:1083200083804EF26D63C3804DF6EC6303810523B9
:1083300043810B23838101220023C0E90423A36B23
:1083400000221D615A6138BDF0E1032010F8012BB5
:1083500011F8013B012A28BF9A42F7D0D01A704782
:10836000034611F8012B03F8012B002AF9D17047BD
:10837000024B0146186800F003B800BFF0E103208B
:1083800070B5064608460C4600F00DF8451C294617
:108390003046FDF7B5FA064618B12A462146FFF7E2
:1083A00099FF304670BD034613F8012B002AFBD11C
:1083B000181A0138704730B582B1451E013915F8D9
:1083C000013F11F8014FA34206D1EC431444E042AF
:1083D00001D0002BF3D11C46181B30BD104630BD18
:1083E00010B5034642B111F8014B03F8014B013AB5
:1083F000002CF7D11A4400E010BD934202D003F8DC
:10840000014BFAE710BD00002DE9F04780464048D7
:10841000D0F800900F463D4615F8014B09EB0400DB
:10842000407800F0080000F0FF0608B12F46F2E7A0
:108430002D2C03D1BD1C7C78012603E02B2C04BF1E
:108440007C78BD1C13B1102B0AD15BE0302C57D1C6
:10845000287800F0DF0058284DD16C7810230235C1
:10846000002E14BF4FF0004C6FF0004C0027BCFBF7
:10847000F3FA384603FB1ACC09EB040E9EF801E030
:108480001EF0040F01D0303C0BE01EF0030E1BD099
:10849000BEF1010F0CBF4FF0370E4FF0570ECEEB71
:1084A0000404A34210DDB7F1FF3F0AD0504506D8BF
:1084B00001D1644503DC03FB0040012701E04FF0DC
:1084C000FF3715F8014BD7E77B1C0CD1002E4FF07E
:1084D000220314BF4FF000406FF00040C8F8003096
:1084E0002AB9BDE8F08706B1404272B107B1691EF2
:1084F0001160BDE8F0873024002BB1D10823AFE72D
:108500000A23ADE7302CA3D0AAE7BDE8F08700BF6F
:108510008CE1032013460A46014602480068FFF733
:1085200073BF00BFF0E103202DE9F04780463C48CF
:10853000D0F800900E46354615F8014B09EB0400C3
:10854000407800F0080000F0FF0708B12E46F2E77F
:108550002D2C03D1B51C7478012703E02B2C04BF0C
:108560007478B51C13B1102B0AD153E0302C4FD1C5
:10857000287800F0DF00582845D16C7810230235A8
:108580004FF0FF3C0026BCFBF3FC03FB0CFA6FEA48
:108590000A0A304609EB040E9EF801E01EF0040FB3
:1085A00001D0303C0BE01EF0030E1AD0BEF1010FDB
:1085B0000CBF4FF0370E4FF0570ECEEB0404A34222
:1085C0000FDD002E08DB604506D801D1544503DCE1
:1085D00003FB0040012601E04FF0FF3615F8014B88
:1085E000D8E7002E07DA2223C8F800304FF0FF301A
:1085F0002AB9BDE8F08707B1404272B106B1691EE1
:108600001160BDE8F0873024002BB9D10823B7E70B
:108610000A23B5E7302CABD0B2E7BDE8F08700BF46
:108620008CE1032013460A46014602480068FFF722
:108630007BBF00BFF0E103202DE9F74F044600F0B7
:108640006FFA40F2B1739C4240F396806FF4F66388
:10865000E318A4F2B2729B1040F26D1505FB0235CF
:10866000A4F26D726FF0630392FBF3F36FF4C862D0
:108670002B44A5184FF4C87295FBF2F51D446423F2
:1086800094FBF2F794FBF3F602FB174703FB164645
:1086900000F13803B7FA87FE019304F00303446046
:1086A0004FEA5E1E014600934FF0070C0B7A4A2BEF
:1086B0000ED14B69009AEC1802B906B927B93B2BC9
:1086C000D4BF0023012300E000232344013B3FE00B
:1086D000442B02D14B692B443AE0009B2BB9002E6E
:1086E0000CBFF0464FF0010800E0F046244BCC6888
:1086F000302202FB0838A8F1040AA9460123A3424C
:1087000004DA5AF804BF0133D944F8E709F1040345
:1087100093FBFCFBCBEBCB0A012CCAEB030A4B69A6
:10872000B8BF012404F18044B3EB0A0A0B6904F1D9
:10873000FF3403F1FF3348BF0AF1070AC3EBC30359
:1087400058F824405344A34201DB073BFBE74B446A
:108750008C690C4A02FB03430C6A234441F81C3F1A
:10876000019B9942A2D1C369826B9342ACBF0023A3
:1087700001230360012000E0002003B0BDE8F08F7A
:10878000A8940D008051010070477047014B186894
:1087900000F002B8F0E103202DE9F04F8DB007465C
:1087A00000F0BEF9B049B14E0446384600F0B0F9C9
:1087B000054660B9AE4BAF4A1860AF4B1860AF4B7F
:1087C00030681A605A60FDF76BF8356048E131682F
:1087D00079B93068FDF764F82846FFF7E4FD411CDD
:1087E0003846FDF78DF8306048B12946FFF7B8FDEF
:1087F00005E0FFF7ABFD002800F03281E9E72B78B8
:108800009F4AA0493A2B08BF01350AAE3346284695
:10881000FDF75EF8002840F323810A9BEF18EB5C1C
:108820002D2B03D101374FF0FF3503E02B2B08BF71
:10883000013701250DF1200A0DF11E0B4FF0000844
:108840000396CDF808A00196CDF800B0334607AAEC
:108850008D49ADF81E803846ADF82080FDF738F818
:10886000404540F3FD80BDF81E20BDF82030DFF804
:1088700024923C2101FB0233BDF81C204FF46161BE
:1088800001FB02335D4325627C4D7D4B2B600A9BCF
:108890007C491F444A4633463846FDF719F840459F
:1088A00008DC2B686B60724B226A1A60724BC3F84B
:1088B0000080D5E00A9BC5F80490FD18FB5C2D2BC9
:1088C00003D101354FF0FF3703E02B2B08BF0135F3
:1088D00001270023ADF81C30ADF81E30ADF8203074
:1088E0000A930396CDF808A00196CDF800B0334660
:1088F00007AA65492846FCF7EBFF002804DC236A39
:10890000A3F56163E3630EE0BDF81E20BDF82030DF
:108910003C2101FB0233BDF81C204FF4616101FBD7
:1089200002335F43E7630A9B27461D444FF000096B
:108930002B782C2B08BF013595F80080B8F14D0F2E
:1089400026D10DF12603029309AB009303960196FD
:1089500033460DF122024D492846FCF7B9FF0328A2
:108960007ED1BDF822104B1E0B2B79D8BDF82420E8
:10897000531E042B74D8BDF82630062B70D887F808
:108980000880F9603A617B610A9B05EB03082AE0E5
:10899000B8F14A0F06BF0135434644230A220BA90A
:1089A00028460593FFF73EFEDDF82C80ADF8260043
:1089B0004545059B14D14D23B9F1000F07D1237212
:1089C0000323E36002232361C4F814900BE084F8CE
:1089D00024300B23A3620123E3620023236302E01C
:1089E00080B23B7278610223ADF81C300023ADF8F1
:1089F0001E30ADF820300A9398F800302F2B0BD1A1
:108A00000396CDF808A00196CDF800B0334607AA2A
:108A10001F494046FCF75CFFBDF81E20BDF8203022
:108A20003C2101FB0233BDF81C204FF4616101FBC6
:108A30000233BB610A9D09F10109B9F1020F4544F6
:108A400007F11C077FF474AF6068FFF7F5FD084B72
:108A5000226A1A60E36B9B1A074A18BF012313604E
:108A60000DB0BDE8F08F00BF08950D00E0E70320D2
:108A7000E8E703200B950D00E4E70320F4E1032071
:108A8000D3E703200F950D0032950D001E950D00C4
:108A900031950D00C8E703202DE9F84F07468B46B6
:108AA000904600F0D9F8194B1D689A463DB15C46D6
:108AB000234613F8012B42B13D2A1C46F8D1384613
:108AC00000F0CBF80020BDE8F88FCBEB0404A946FA
:108AD00059F8040B0028F2D022465946FFF76BFCE8
:108AE00088B959F8043C1E191B5D3D2B0BD1DAF8EF
:108AF0000030ED1AAD103846C8F8005000F0ADF85F
:108B0000701CBDE8F88F4D46E1E700BF3CE2032052
:108B100007B501AAFFF7C0FF03B05DF804FB000032
:108B200000487047FCE103200268474BF0B592FB18
:108B3000F3F403FB1422002ABCBF02F5A83202F5AD
:108B4000C0724FF4616004F52F2492FBF0F300FB38
:108B500013224FF03C00ACBF04F66C2404F66B24E7
:108B60008B6092FBF0F300FB13224B600A6007233B
:108B7000E21C92FBF3F3C3EBC303D31A8B61334BB9
:108B8000334D94FBF5F503FB054448F6AC62B4FBAA
:108B9000F2F2224440F2B457B4FBF7F3D21A2D4854
:108BA000B4FBF0F048F69466131AB3FBF6F63444BF
:108BB00040F26D12B3FBF2F0B3FBF7F3E31A02FBE2
:108BC0001033992403EB83020232B2FBF4F20A2A37
:108BD00004FB02F404F102064FF00504B6FBF4F4C2
:108BE00034BF02266FF0090616444FF4C87202FB28
:108BF00005055F1C012E98BF0135B3F5997FA7EBE2
:108C0000040702D3A3F5997214E0820705D1642406
:108C1000B0FBF4F204FB12024AB94FF4C872B0FB85
:108C2000F2F402FB1400B0FA80F2520900E00122D3
:108C30003B331A44A5F26C750023CA614D610E6185
:108C4000CF600B620846F0BD805101004FC5FDFFAB
:108C5000B13A0200B03A02007047704721400D005F
:108C60005D400D0089400D008D400D0000000000AA
:108C700053746172747570205375636365737366A2
:108C8000756C000000000000000000000000000003
:108C900000000000000000000000000000000000D4
:108CA00000000000000000000000000000000000C4
:108CB000257320533A25322E306625252C20513A33
:108CC00025322E30662525200041542B4346554E33
:108CD0003D31360D0A007B2254656D7065726174FA
:108CE000757265223A25342E31662C202248756D26
:108CF0006964697479223A25342E31662C20225316
:108D00006F696C6D6F697374757265223A25692C91
:108D1000202242617474657279223A25692C2022DE
:108D2000526573657473223A25692C2022416C6563
:108D3000727473223A25697D005277616E64615FB7
:108D400049727269676174696F6E5F486F6F6B001B
:108D50004E6F204461746100556269646F747320C2
:108D6000486F6F6B00526573706F6E73652052654C
:108D70006365697665640053746174650025342EFB
:108D8000316620430025342E3166202525002569D3
:108D9000202525004368672044697361626C65641F
:108DA0002054656D70004368617267696E67206466
:108DB000697361626C65642054656D70657261747D
:108DC00075726500416C6572740053657420536F51
:108DD0006C617220506F7765726564204D6F6465B9
:108DE000003000436C656172656420536F6C617282
:108DF00020506F7765726564204D6F646500536520
:108E00007420566572626F7365204D6F6465004310
:108E10006C656172656420566572626F7365204D82
:108E20006F64650054696D65207A6F6E65206F66AA
:108E3000667365742025690054696D65004C6F7711
:108E400020506F776572004E6F726D616C204F70AD
:108E500065726174696F6E730046726F6D20257361
:108E600020746F20257300537461746520547261FF
:108E70006E736974696F6E00737061726B2F6465D5
:108E8000766963652F73657373696F6E2F656E64A2
:108E900000476F696E6720746F20536C65657000C2
:108EA0004C6F772042617474657279202D20536C69
:108EB000656570696E67004572726F7220537461E8
:108EC0007465202D205265736574004572726F724F
:108ED000205374617465202D20506F776572204394
:108EE00079636C65004572726F72205374617465AA
:108EF000202D2046756C6C204D6F64656D20526589
:108F0000736574004572726F722074616B696E676D
:108F1000204D6561737572656D656E74730053697C
:108F2000676E616C005265736574436F756E740093
:108F300052656C656173650053746174654F664377
:108F4000686700506F776572436F6E746578740060
:108F50004C6F77506F7765724D6F64650048756D23
:108F6000696469747900536F696C4D6F69737475C6
:108F70007265004D6561737572652D4E6F77005394
:108F80006F6C61722D4D6F646500566572626F7310
:108F9000652D4D6F64650053657454696D655A6F36
:108FA0006E6500436F756C64206E6F742066696E29
:108FB00064205348543331004661696C6564207401
:108FC0006F20636F6E6E6563740055736572204227
:108FD0007574746F6E202D204465746563746564C8
:108FE000005374617274757000556E6B6E6F776E9E
:108FF000004E6F6E6500576946690047534D005536
:109000004D54530043444D41004C5445004945459F
:10901000453830323135340039000000000000009E
:1090200000000000D3590D00C9590D00BF590D00B3
:1090300075590D00B3590D00A7590D009B590D002E
:1090400093590D0089590D007F590D00C9660D0017
:109050000000000000000000815A0D00135B0D00AD
:10906000835A0D00555B0D00895A0D00215B0D00E0
:10907000B55A0D00E15A0D00FCFFFFFF0000000093
:109080000B5B0D000000000000000000A15B0D0064
:10909000A75B0D00FD5B0D00B55B0D00A35B0D0034
:1090A000000000000000000013620D0009620D00C6
:1090B000FF610D00F5610D00E9610D00DD610D003E
:1090C000D1610D00C9610D00BF610D00B5610D00DA
:1090D000C9660D00000000000000000015630D00CF
:1090E0005F630D0037630D0017630D003F630D00D4
:1090F00047630D004F630D0057630D000000000033
:109100000000000017640D0007640D0009640D00E5
:10911000626175640053657269616C0053657269C0
:10912000616C31007479706500706172616D00630B
:109130006D6400696400686E64007374726D00662B
:10914000696C74006C766C0061646448616E646C78
:1091500065720072656D6F766548616E646C6572EC
:1091600000656E756D48616E646C657273004A537C
:109170004F4E53747265616D4C6F6748616E646CDD
:1091800065720061707000253031307520005D20FF
:10919000002564002C200028293A2000205B006371
:1091A0006F6465203D200064657461696C73203DC7
:1091B000200066006C6E00666E00636F646500647C
:1091C000657461696C006E6F6E65007472616365D1
:1091D00000696E666F007761726E006572726F7201
:1091E0000070616E696300616C6C0000000000003B
:1091F000000000005B650D0051650D0047650D0026
:109200003D650D0031650D0025650D0019650D00EA
:1092100011650D0007650D00FD640D00C9660D00A8
:10922000000000000000000061660D006B660D008C
:1092300075660D007F660D0089660D0095660D0050
:10924000A1660D00AD660D00B5660D00BF660D0090
:10925000C9660D000000000000000000AD6C0D00AC
:10926000AF6C0D00252B3033643A25303275002564
:10927000592D256D2D25645425483A254D3A255301
:10928000257A0061736374696D6500000000000059
:109290000000000085700D00D5700D00E3700D001A
:1092A0005F6B0D0099700D00BB700D00A7700D0075
:1092B000CF700D0087700D008B700D000000000056
:1092C000000000008D710D00DD710D00EB710D00CF
:1092D0005F6B0D00C9710D008F710D00A5710D0040
:1092E000D7710D00BB710D0089710D0053756E4D66
:1092F0006F6E54756557656454687546726953613D
:10930000744A616E4665624D61724170724D617959
:109310004A756E4A756C4175675365704F63744E3C
:109320006F76446563252E337320252E33732533E2
:109330006420252E32643A252E32643A252E32647A
:109340002025640A00002020202020202020202822
:1093500028282828202020202020202020202020ED
:109360002020202020208810101010101010101025
:109370001010101010100404040404040404040465
:1093800010101010101010414141414141010101E4
:1093900001010101010101010101010101010101BD
:1093A00001101010101010424242424242020202CA
:1093B000020202020202020202020202020202028D
:1093C000021010101020000000000000000000003B
:1093D000000000000000000000000000000000008D
:1093E000000000000000000000000000000000007D
:1093F000000000000000000000000000000000006D
:10940000000000000000000000000000000000005C
:10941000000000000000000000000000000000004C
:10942000000000000000000000000000000000003C
:10943000000000000000000000000000000000002C
:10944000000000000000000000000000000000001C
:10945000000000000000000000000000000000000C
:1094600000000000000000000000000000000000FC
:1094700000000000000000000000000000000000EC
:1094800000000000000000000000000000000000DC
:1094900000000000000000000000000000000000CC
:1094A00000000000000000001F0000001C00000081
:1094B0001F0000001E0000001F0000001E00000032
:1094C0001F0000001F0000001E0000001F00000021
:1094D0001E0000001F0000001F0000001D00000013
:1094E0001F0000001E0000001F0000001E00000002
:1094F0001F0000001F0000001E0000001F000000F1
:109500001E0000001F000000545A00474D54002563
:1095100031305B5E302D392C2B2D5D256E004D25B5
:109520006875256E2E256875256E2E256875256E45
:10953000002F256875256E3A256875256E3A2568D1
:1095400075256E0075500D00D1520D0065590D0046
:10955000515A0D001D620D00ED640D0011660D00E5
:1095600095670D00916C0D00E56E0D0071700D009A
:109570002D750D0085750D0049760D00CD760D0019
:1095800051770D0000000000000000000000000006
:10959000496E697469616C697A6500000000457202
:1095A000726F7200000000000000000049646C65EA
:1095B000000000000000000000004D65617375723E
:1095C000696E6700000000005265706F7274696E0A
:1095D000670000000000526573706F6E736520575E
:1095E00061697400536C656570696E670000000006
:1095F00000004C6F7720426174746572790000003E
:1096000001000000E98F0D00F18F0D00F68F0D00B5
:10961000FB8F0D00FF8F0D0004900D0009900D00D1
:109620000D900D0083920D0045930D000000000089
:1096300048940D0068940D0088940D00000000000F
:10964000000000000000000000000000838D0D00FD
:10965000000000000000000000000000000000000A
:1096600000000000000000000000000000000000FA
:1096700000000000000000000000000000000000EA
:1096800000000000000000000000000090E1032046
:109690000B950D000B950D0001000000000000006F
:1096A0004A00000000000000000000000000000070
:1096B0000000000000000000000000004A00000060
:1096C000000000000000000000000000000000009A
:0C96D0000000000000000000ECE7032098
:1096DC00FFFFFFFFD5290900000001020304050666
:1096EC000708090A0B0C0D0E0F1011121314151686
:0C96FC001718191A1B1C1D1E1F20280027
:049708007856341249
:04000003D0004020C9
:00000001FF
